{"abi":[{"inputs":[{"internalType":"string","name":"header","type":"string"},{"internalType":"string","name":"description","type":"string"},{"internalType":"string[]","name":"hashtags","type":"string[]"},{"internalType":"address","name":"newManager","type":"address"}],"stateMutability":"payable","type":"constructor"},{"inputs":[{"internalType":"string","name":"description","type":"string"}],"name":"creaetRequest","outputs":[],"stateMutability":"nonpayable","type":"function"},{"inputs":[],"name":"finalizeTask","outputs":[],"stateMutability":"nonpayable","type":"function"},{"inputs":[],"name":"getHashtags","outputs":[{"internalType":"string[]","name":"","type":"string[]"}],"stateMutability":"view","type":"function"},{"inputs":[],"name":"isCompleted","outputs":[{"internalType":"bool","name":"","type":"bool"}],"stateMutability":"view","type":"function"},{"inputs":[],"name":"killTask","outputs":[],"stateMutability":"nonpayable","type":"function"},{"inputs":[],"name":"manager","outputs":[{"internalType":"address payable","name":"","type":"address"}],"stateMutability":"view","type":"function"},{"inputs":[{"internalType":"address","name":"","type":"address"}],"name":"requests","outputs":[{"internalType":"string","name":"description","type":"string"},{"internalType":"bool","name":"exist","type":"bool"}],"stateMutability":"view","type":"function"},{"inputs":[{"internalType":"address","name":"newWorker","type":"address"}],"name":"startTask","outputs":[],"stateMutability":"nonpayable","type":"function"},{"inputs":[],"name":"taskDescription","outputs":[{"internalType":"string","name":"","type":"string"}],"stateMutability":"view","type":"function"},{"inputs":[{"internalType":"uint256","name":"","type":"uint256"}],"name":"taskHashtags","outputs":[{"internalType":"string","name":"","type":"string"}],"stateMutability":"view","type":"function"},{"inputs":[],"name":"taskName","outputs":[{"internalType":"string","name":"","type":"string"}],"stateMutability":"view","type":"function"},{"inputs":[],"name":"worker","outputs":[{"internalType":"address payable","name":"","type":"address"}],"stateMutability":"view","type":"function"}],"devdoc":{"kind":"dev","methods":{},"version":1},"evm":{"assembly":"    /* \"Task.sol\":533:1985  contract Task {... */\n  mstore(0x40, 0x80)\n    /* \"Task.sol\":894:1190  constructor(string memory header, string memory description, string[] memory hashtags, address newManager) payable {... */\n  mload(0x40)\n  sub(codesize, bytecodeSize)\n  dup1\n  bytecodeSize\n  dup4\n  codecopy\n  dup2\n  dup2\n  add\n  0x40\n  mstore\n  dup2\n  add\n  swap1\n  tag_1\n  swap2\n  swap1\n  tag_2\n  jump\t// in\ntag_1:\n    /* \"Task.sol\":1038:1048  newManager */\n  dup1\n    /* \"Task.sol\":1020:1027  manager */\n  0x00\n  dup1\n    /* \"Task.sol\":1020:1049  manager = payable(newManager) */\n  0x0100\n  exp\n  dup2\n  sload\n  dup2\n  0xffffffffffffffffffffffffffffffffffffffff\n  mul\n  not\n  and\n  swap1\n  dup4\n  0xffffffffffffffffffffffffffffffffffffffff\n  and\n  mul\n  or\n  swap1\n  sstore\n  pop\n    /* \"Task.sol\":1071:1077  header */\n  dup4\n    /* \"Task.sol\":1060:1068  taskName */\n  0x01\n    /* \"Task.sol\":1060:1077  taskName = header */\n  swap1\n  dup1\n  mload\n  swap1\n  0x20\n  add\n  swap1\n  tag_5\n  swap3\n  swap2\n  swap1\n  tag_6\n  jump\t// in\ntag_5:\n  pop\n    /* \"Task.sol\":1106:1117  description */\n  dup3\n    /* \"Task.sol\":1088:1103  taskDescription */\n  0x02\n    /* \"Task.sol\":1088:1117  taskDescription = description */\n  swap1\n  dup1\n  mload\n  swap1\n  0x20\n  add\n  swap1\n  tag_7\n  swap3\n  swap2\n  swap1\n  tag_6\n  jump\t// in\ntag_7:\n  pop\n    /* \"Task.sol\":1144:1152  hashtags */\n  dup2\n    /* \"Task.sol\":1129:1141  taskHashtags */\n  0x03\n    /* \"Task.sol\":1129:1152  taskHashtags = hashtags */\n  swap1\n  dup1\n  mload\n  swap1\n  0x20\n  add\n  swap1\n  tag_8\n  swap3\n  swap2\n  swap1\n  tag_9\n  jump\t// in\ntag_8:\n  pop\n    /* \"Task.sol\":1177:1182  false */\n  0x00\n    /* \"Task.sol\":1163:1174  isCompleted */\n  0x04\n  0x14\n    /* \"Task.sol\":1163:1182  isCompleted = false */\n  0x0100\n  exp\n  dup2\n  sload\n  dup2\n  0xff\n  mul\n  not\n  and\n  swap1\n  dup4\n  iszero\n  iszero\n  mul\n  or\n  swap1\n  sstore\n  pop\n    /* \"Task.sol\":894:1190  constructor(string memory header, string memory description, string[] memory hashtags, address newManager) payable {... */\n  pop\n  pop\n  pop\n  pop\n    /* \"Task.sol\":533:1985  contract Task {... */\n  jump(tag_10)\ntag_6:\n  dup3\n  dup1\n  sload\n  tag_11\n  swap1\n  tag_12\n  jump\t// in\ntag_11:\n  swap1\n  0x00\n  mstore\n  keccak256(0x00, 0x20)\n  swap1\n  0x1f\n  add\n  0x20\n  swap1\n  div\n  dup2\n  add\n  swap3\n  dup3\n  tag_14\n  jumpi\n  0x00\n  dup6\n  sstore\n  jump(tag_13)\ntag_14:\n  dup3\n  0x1f\n  lt\n  tag_15\n  jumpi\n  dup1\n  mload\n  not(0xff)\n  and\n  dup4\n  dup1\n  add\n  or\n  dup6\n  sstore\n  jump(tag_13)\ntag_15:\n  dup3\n  dup1\n  add\n  0x01\n  add\n  dup6\n  sstore\n  dup3\n  iszero\n  tag_13\n  jumpi\n  swap2\n  dup3\n  add\ntag_16:\n  dup3\n  dup2\n  gt\n  iszero\n  tag_17\n  jumpi\n  dup3\n  mload\n  dup3\n  sstore\n  swap2\n  0x20\n  add\n  swap2\n  swap1\n  0x01\n  add\n  swap1\n  jump(tag_16)\ntag_17:\ntag_13:\n  pop\n  swap1\n  pop\n  tag_18\n  swap2\n  swap1\n  tag_19\n  jump\t// in\ntag_18:\n  pop\n  swap1\n  jump\t// out\ntag_9:\n  dup3\n  dup1\n  sload\n  dup3\n  dup3\n  sstore\n  swap1\n  0x00\n  mstore\n  keccak256(0x00, 0x20)\n  swap1\n  dup2\n  add\n  swap3\n  dup3\n  iszero\n  tag_20\n  jumpi\n  swap2\n  0x20\n  mul\n  dup3\n  add\ntag_21:\n  dup3\n  dup2\n  gt\n  iszero\n  tag_22\n  jumpi\n  dup3\n  mload\n  dup3\n  swap1\n  dup1\n  mload\n  swap1\n  0x20\n  add\n  swap1\n  tag_23\n  swap3\n  swap2\n  swap1\n  tag_6\n  jump\t// in\ntag_23:\n  pop\n  swap2\n  0x20\n  add\n  swap2\n  swap1\n  0x01\n  add\n  swap1\n  jump(tag_21)\ntag_22:\ntag_20:\n  pop\n  swap1\n  pop\n  tag_24\n  swap2\n  swap1\n  tag_25\n  jump\t// in\ntag_24:\n  pop\n  swap1\n  jump\t// out\ntag_19:\ntag_26:\n  dup1\n  dup3\n  gt\n  iszero\n  tag_27\n  jumpi\n  0x00\n  dup2\n  0x00\n  swap1\n  sstore\n  pop\n  0x01\n  add\n  jump(tag_26)\ntag_27:\n  pop\n  swap1\n  jump\t// out\ntag_25:\ntag_28:\n  dup1\n  dup3\n  gt\n  iszero\n  tag_29\n  jumpi\n  0x00\n  dup2\n  dup2\n  tag_30\n  swap2\n  swap1\n  tag_31\n  jump\t// in\ntag_30:\n  pop\n  0x01\n  add\n  jump(tag_28)\ntag_29:\n  pop\n  swap1\n  jump\t// out\ntag_31:\n  pop\n  dup1\n  sload\n  tag_32\n  swap1\n  tag_12\n  jump\t// in\ntag_32:\n  0x00\n  dup3\n  sstore\n  dup1\n  0x1f\n  lt\n  tag_34\n  jumpi\n  pop\n  jump(tag_33)\ntag_34:\n  0x1f\n  add\n  0x20\n  swap1\n  div\n  swap1\n  0x00\n  mstore\n  keccak256(0x00, 0x20)\n  swap1\n  dup2\n  add\n  swap1\n  tag_35\n  swap2\n  swap1\n  tag_19\n  jump\t// in\ntag_35:\ntag_33:\n  pop\n  jump\t// out\n    /* \"#utility.yul\":7:82   */\ntag_36:\n    /* \"#utility.yul\":40:46   */\n  0x00\n    /* \"#utility.yul\":73:75   */\n  0x40\n    /* \"#utility.yul\":67:76   */\n  mload\n    /* \"#utility.yul\":57:76   */\n  swap1\n  pop\n    /* \"#utility.yul\":7:82   */\n  swap1\n  jump\t// out\n    /* \"#utility.yul\":88:205   */\ntag_37:\n    /* \"#utility.yul\":197:198   */\n  0x00\n    /* \"#utility.yul\":194:195   */\n  dup1\n    /* \"#utility.yul\":187:199   */\n  revert\n    /* \"#utility.yul\":211:328   */\ntag_38:\n    /* \"#utility.yul\":320:321   */\n  0x00\n    /* \"#utility.yul\":317:318   */\n  dup1\n    /* \"#utility.yul\":310:322   */\n  revert\n    /* \"#utility.yul\":334:451   */\ntag_39:\n    /* \"#utility.yul\":443:444   */\n  0x00\n    /* \"#utility.yul\":440:441   */\n  dup1\n    /* \"#utility.yul\":433:445   */\n  revert\n    /* \"#utility.yul\":457:574   */\ntag_40:\n    /* \"#utility.yul\":566:567   */\n  0x00\n    /* \"#utility.yul\":563:564   */\n  dup1\n    /* \"#utility.yul\":556:568   */\n  revert\n    /* \"#utility.yul\":580:682   */\ntag_41:\n    /* \"#utility.yul\":621:627   */\n  0x00\n    /* \"#utility.yul\":672:674   */\n  0x1f\n    /* \"#utility.yul\":668:675   */\n  not\n    /* \"#utility.yul\":663:665   */\n  0x1f\n    /* \"#utility.yul\":656:661   */\n  dup4\n    /* \"#utility.yul\":652:666   */\n  add\n    /* \"#utility.yul\":648:676   */\n  and\n    /* \"#utility.yul\":638:676   */\n  swap1\n  pop\n    /* \"#utility.yul\":580:682   */\n  swap2\n  swap1\n  pop\n  jump\t// out\n    /* \"#utility.yul\":688:868   */\ntag_42:\n    /* \"#utility.yul\":736:813   */\n  0x4e487b7100000000000000000000000000000000000000000000000000000000\n    /* \"#utility.yul\":733:734   */\n  0x00\n    /* \"#utility.yul\":726:814   */\n  mstore\n    /* \"#utility.yul\":833:837   */\n  0x41\n    /* \"#utility.yul\":830:831   */\n  0x04\n    /* \"#utility.yul\":823:838   */\n  mstore\n    /* \"#utility.yul\":857:861   */\n  0x24\n    /* \"#utility.yul\":854:855   */\n  0x00\n    /* \"#utility.yul\":847:862   */\n  revert\n    /* \"#utility.yul\":874:1155   */\ntag_43:\n    /* \"#utility.yul\":957:984   */\n  tag_67\n    /* \"#utility.yul\":979:983   */\n  dup3\n    /* \"#utility.yul\":957:984   */\n  tag_41\n  jump\t// in\ntag_67:\n    /* \"#utility.yul\":949:955   */\n  dup2\n    /* \"#utility.yul\":945:985   */\n  add\n    /* \"#utility.yul\":1087:1093   */\n  dup2\n    /* \"#utility.yul\":1075:1085   */\n  dup2\n    /* \"#utility.yul\":1072:1094   */\n  lt\n    /* \"#utility.yul\":1051:1069   */\n  0xffffffffffffffff\n    /* \"#utility.yul\":1039:1049   */\n  dup3\n    /* \"#utility.yul\":1036:1070   */\n  gt\n    /* \"#utility.yul\":1033:1095   */\n  or\n    /* \"#utility.yul\":1030:1118   */\n  iszero\n  tag_68\n  jumpi\n    /* \"#utility.yul\":1098:1116   */\n  tag_69\n  tag_42\n  jump\t// in\ntag_69:\n    /* \"#utility.yul\":1030:1118   */\ntag_68:\n    /* \"#utility.yul\":1138:1148   */\n  dup1\n    /* \"#utility.yul\":1134:1136   */\n  0x40\n    /* \"#utility.yul\":1127:1149   */\n  mstore\n    /* \"#utility.yul\":917:1155   */\n  pop\n    /* \"#utility.yul\":874:1155   */\n  pop\n  pop\n  jump\t// out\n    /* \"#utility.yul\":1161:1290   */\ntag_44:\n    /* \"#utility.yul\":1195:1201   */\n  0x00\n    /* \"#utility.yul\":1222:1242   */\n  tag_71\n  tag_36\n  jump\t// in\ntag_71:\n    /* \"#utility.yul\":1212:1242   */\n  swap1\n  pop\n    /* \"#utility.yul\":1251:1284   */\n  tag_72\n    /* \"#utility.yul\":1279:1283   */\n  dup3\n    /* \"#utility.yul\":1271:1277   */\n  dup3\n    /* \"#utility.yul\":1251:1284   */\n  tag_43\n  jump\t// in\ntag_72:\n    /* \"#utility.yul\":1161:1290   */\n  swap2\n  swap1\n  pop\n  jump\t// out\n    /* \"#utility.yul\":1296:1604   */\ntag_45:\n    /* \"#utility.yul\":1358:1362   */\n  0x00\n    /* \"#utility.yul\":1448:1466   */\n  0xffffffffffffffff\n    /* \"#utility.yul\":1440:1446   */\n  dup3\n    /* \"#utility.yul\":1437:1467   */\n  gt\n    /* \"#utility.yul\":1434:1490   */\n  iszero\n  tag_74\n  jumpi\n    /* \"#utility.yul\":1470:1488   */\n  tag_75\n  tag_42\n  jump\t// in\ntag_75:\n    /* \"#utility.yul\":1434:1490   */\ntag_74:\n    /* \"#utility.yul\":1508:1537   */\n  tag_76\n    /* \"#utility.yul\":1530:1536   */\n  dup3\n    /* \"#utility.yul\":1508:1537   */\n  tag_41\n  jump\t// in\ntag_76:\n    /* \"#utility.yul\":1500:1537   */\n  swap1\n  pop\n    /* \"#utility.yul\":1592:1596   */\n  0x20\n    /* \"#utility.yul\":1586:1590   */\n  dup2\n    /* \"#utility.yul\":1582:1597   */\n  add\n    /* \"#utility.yul\":1574:1597   */\n  swap1\n  pop\n    /* \"#utility.yul\":1296:1604   */\n  swap2\n  swap1\n  pop\n  jump\t// out\n    /* \"#utility.yul\":1610:1917   */\ntag_46:\n    /* \"#utility.yul\":1678:1679   */\n  0x00\n    /* \"#utility.yul\":1688:1801   */\ntag_78:\n    /* \"#utility.yul\":1702:1708   */\n  dup4\n    /* \"#utility.yul\":1699:1700   */\n  dup2\n    /* \"#utility.yul\":1696:1709   */\n  lt\n    /* \"#utility.yul\":1688:1801   */\n  iszero\n  tag_80\n  jumpi\n    /* \"#utility.yul\":1787:1788   */\n  dup1\n    /* \"#utility.yul\":1782:1785   */\n  dup3\n    /* \"#utility.yul\":1778:1789   */\n  add\n    /* \"#utility.yul\":1772:1790   */\n  mload\n    /* \"#utility.yul\":1768:1769   */\n  dup2\n    /* \"#utility.yul\":1763:1766   */\n  dup5\n    /* \"#utility.yul\":1759:1770   */\n  add\n    /* \"#utility.yul\":1752:1791   */\n  mstore\n    /* \"#utility.yul\":1724:1726   */\n  0x20\n    /* \"#utility.yul\":1721:1722   */\n  dup2\n    /* \"#utility.yul\":1717:1727   */\n  add\n    /* \"#utility.yul\":1712:1727   */\n  swap1\n  pop\n    /* \"#utility.yul\":1688:1801   */\n  jump(tag_78)\ntag_80:\n    /* \"#utility.yul\":1819:1825   */\n  dup4\n    /* \"#utility.yul\":1816:1817   */\n  dup2\n    /* \"#utility.yul\":1813:1826   */\n  gt\n    /* \"#utility.yul\":1810:1911   */\n  iszero\n  tag_81\n  jumpi\n    /* \"#utility.yul\":1899:1900   */\n  0x00\n    /* \"#utility.yul\":1890:1896   */\n  dup5\n    /* \"#utility.yul\":1885:1888   */\n  dup5\n    /* \"#utility.yul\":1881:1897   */\n  add\n    /* \"#utility.yul\":1874:1901   */\n  mstore\n    /* \"#utility.yul\":1810:1911   */\ntag_81:\n    /* \"#utility.yul\":1659:1917   */\n  pop\n    /* \"#utility.yul\":1610:1917   */\n  pop\n  pop\n  pop\n  jump\t// out\n    /* \"#utility.yul\":1923:2344   */\ntag_47:\n    /* \"#utility.yul\":2012:2017   */\n  0x00\n    /* \"#utility.yul\":2037:2103   */\n  tag_83\n    /* \"#utility.yul\":2053:2102   */\n  tag_84\n    /* \"#utility.yul\":2095:2101   */\n  dup5\n    /* \"#utility.yul\":2053:2102   */\n  tag_45\n  jump\t// in\ntag_84:\n    /* \"#utility.yul\":2037:2103   */\n  tag_44\n  jump\t// in\ntag_83:\n    /* \"#utility.yul\":2028:2103   */\n  swap1\n  pop\n    /* \"#utility.yul\":2126:2132   */\n  dup3\n    /* \"#utility.yul\":2119:2124   */\n  dup2\n    /* \"#utility.yul\":2112:2133   */\n  mstore\n    /* \"#utility.yul\":2164:2168   */\n  0x20\n    /* \"#utility.yul\":2157:2162   */\n  dup2\n    /* \"#utility.yul\":2153:2169   */\n  add\n    /* \"#utility.yul\":2202:2205   */\n  dup5\n    /* \"#utility.yul\":2193:2199   */\n  dup5\n    /* \"#utility.yul\":2188:2191   */\n  dup5\n    /* \"#utility.yul\":2184:2200   */\n  add\n    /* \"#utility.yul\":2181:2206   */\n  gt\n    /* \"#utility.yul\":2178:2290   */\n  iszero\n  tag_85\n  jumpi\n    /* \"#utility.yul\":2209:2288   */\n  tag_86\n  tag_40\n  jump\t// in\ntag_86:\n    /* \"#utility.yul\":2178:2290   */\ntag_85:\n    /* \"#utility.yul\":2299:2338   */\n  tag_87\n    /* \"#utility.yul\":2331:2337   */\n  dup5\n    /* \"#utility.yul\":2326:2329   */\n  dup3\n    /* \"#utility.yul\":2321:2324   */\n  dup6\n    /* \"#utility.yul\":2299:2338   */\n  tag_46\n  jump\t// in\ntag_87:\n    /* \"#utility.yul\":2018:2344   */\n  pop\n    /* \"#utility.yul\":1923:2344   */\n  swap4\n  swap3\n  pop\n  pop\n  pop\n  jump\t// out\n    /* \"#utility.yul\":2364:2719   */\ntag_48:\n    /* \"#utility.yul\":2431:2436   */\n  0x00\n    /* \"#utility.yul\":2480:2483   */\n  dup3\n    /* \"#utility.yul\":2473:2477   */\n  0x1f\n    /* \"#utility.yul\":2465:2471   */\n  dup4\n    /* \"#utility.yul\":2461:2478   */\n  add\n    /* \"#utility.yul\":2457:2484   */\n  slt\n    /* \"#utility.yul\":2447:2569   */\n  tag_89\n  jumpi\n    /* \"#utility.yul\":2488:2567   */\n  tag_90\n  tag_39\n  jump\t// in\ntag_90:\n    /* \"#utility.yul\":2447:2569   */\ntag_89:\n    /* \"#utility.yul\":2598:2604   */\n  dup2\n    /* \"#utility.yul\":2592:2605   */\n  mload\n    /* \"#utility.yul\":2623:2713   */\n  tag_91\n    /* \"#utility.yul\":2709:2712   */\n  dup5\n    /* \"#utility.yul\":2701:2707   */\n  dup3\n    /* \"#utility.yul\":2694:2698   */\n  0x20\n    /* \"#utility.yul\":2686:2692   */\n  dup7\n    /* \"#utility.yul\":2682:2699   */\n  add\n    /* \"#utility.yul\":2623:2713   */\n  tag_47\n  jump\t// in\ntag_91:\n    /* \"#utility.yul\":2614:2713   */\n  swap2\n  pop\n    /* \"#utility.yul\":2437:2719   */\n  pop\n    /* \"#utility.yul\":2364:2719   */\n  swap3\n  swap2\n  pop\n  pop\n  jump\t// out\n    /* \"#utility.yul\":2725:3046   */\ntag_49:\n    /* \"#utility.yul\":2812:2816   */\n  0x00\n    /* \"#utility.yul\":2902:2920   */\n  0xffffffffffffffff\n    /* \"#utility.yul\":2894:2900   */\n  dup3\n    /* \"#utility.yul\":2891:2921   */\n  gt\n    /* \"#utility.yul\":2888:2944   */\n  iszero\n  tag_93\n  jumpi\n    /* \"#utility.yul\":2924:2942   */\n  tag_94\n  tag_42\n  jump\t// in\ntag_94:\n    /* \"#utility.yul\":2888:2944   */\ntag_93:\n    /* \"#utility.yul\":2974:2978   */\n  0x20\n    /* \"#utility.yul\":2966:2972   */\n  dup3\n    /* \"#utility.yul\":2962:2979   */\n  mul\n    /* \"#utility.yul\":2954:2979   */\n  swap1\n  pop\n    /* \"#utility.yul\":3034:3038   */\n  0x20\n    /* \"#utility.yul\":3028:3032   */\n  dup2\n    /* \"#utility.yul\":3024:3039   */\n  add\n    /* \"#utility.yul\":3016:3039   */\n  swap1\n  pop\n    /* \"#utility.yul\":2725:3046   */\n  swap2\n  swap1\n  pop\n  jump\t// out\n    /* \"#utility.yul\":3052:3169   */\ntag_50:\n    /* \"#utility.yul\":3161:3162   */\n  0x00\n    /* \"#utility.yul\":3158:3159   */\n  dup1\n    /* \"#utility.yul\":3151:3163   */\n  revert\n    /* \"#utility.yul\":3191:4151   */\ntag_51:\n    /* \"#utility.yul\":3308:3313   */\n  0x00\n    /* \"#utility.yul\":3333:3424   */\n  tag_97\n    /* \"#utility.yul\":3349:3423   */\n  tag_98\n    /* \"#utility.yul\":3416:3422   */\n  dup5\n    /* \"#utility.yul\":3349:3423   */\n  tag_49\n  jump\t// in\ntag_98:\n    /* \"#utility.yul\":3333:3424   */\n  tag_44\n  jump\t// in\ntag_97:\n    /* \"#utility.yul\":3324:3424   */\n  swap1\n  pop\n    /* \"#utility.yul\":3444:3449   */\n  dup1\n    /* \"#utility.yul\":3473:3479   */\n  dup4\n    /* \"#utility.yul\":3466:3471   */\n  dup3\n    /* \"#utility.yul\":3459:3480   */\n  mstore\n    /* \"#utility.yul\":3507:3511   */\n  0x20\n    /* \"#utility.yul\":3500:3505   */\n  dup3\n    /* \"#utility.yul\":3496:3512   */\n  add\n    /* \"#utility.yul\":3489:3512   */\n  swap1\n  pop\n    /* \"#utility.yul\":3560:3564   */\n  0x20\n    /* \"#utility.yul\":3552:3558   */\n  dup5\n    /* \"#utility.yul\":3548:3565   */\n  mul\n    /* \"#utility.yul\":3540:3546   */\n  dup4\n    /* \"#utility.yul\":3536:3566   */\n  add\n    /* \"#utility.yul\":3589:3592   */\n  dup6\n    /* \"#utility.yul\":3581:3587   */\n  dup2\n    /* \"#utility.yul\":3578:3593   */\n  gt\n    /* \"#utility.yul\":3575:3697   */\n  iszero\n  tag_99\n  jumpi\n    /* \"#utility.yul\":3608:3687   */\n  tag_100\n  tag_50\n  jump\t// in\ntag_100:\n    /* \"#utility.yul\":3575:3697   */\ntag_99:\n    /* \"#utility.yul\":3723:3729   */\n  dup4\n    /* \"#utility.yul\":3706:4145   */\ntag_101:\n    /* \"#utility.yul\":3740:3746   */\n  dup2\n    /* \"#utility.yul\":3735:3738   */\n  dup2\n    /* \"#utility.yul\":3732:3747   */\n  lt\n    /* \"#utility.yul\":3706:4145   */\n  iszero\n  tag_103\n  jumpi\n    /* \"#utility.yul\":3822:3825   */\n  dup1\n    /* \"#utility.yul\":3816:3826   */\n  mload\n    /* \"#utility.yul\":3858:3876   */\n  0xffffffffffffffff\n    /* \"#utility.yul\":3845:3856   */\n  dup2\n    /* \"#utility.yul\":3842:3877   */\n  gt\n    /* \"#utility.yul\":3839:3961   */\n  iszero\n  tag_104\n  jumpi\n    /* \"#utility.yul\":3880:3959   */\n  tag_105\n  tag_39\n  jump\t// in\ntag_105:\n    /* \"#utility.yul\":3839:3961   */\ntag_104:\n    /* \"#utility.yul\":4004:4015   */\n  dup1\n    /* \"#utility.yul\":3996:4002   */\n  dup7\n    /* \"#utility.yul\":3992:4016   */\n  add\n    /* \"#utility.yul\":4042:4100   */\n  tag_106\n    /* \"#utility.yul\":4096:4099   */\n  dup10\n    /* \"#utility.yul\":4084:4094   */\n  dup3\n    /* \"#utility.yul\":4042:4100   */\n  tag_48\n  jump\t// in\ntag_106:\n    /* \"#utility.yul\":4037:4040   */\n  dup6\n    /* \"#utility.yul\":4030:4101   */\n  mstore\n    /* \"#utility.yul\":4130:4134   */\n  0x20\n    /* \"#utility.yul\":4125:4128   */\n  dup6\n    /* \"#utility.yul\":4121:4135   */\n  add\n    /* \"#utility.yul\":4114:4135   */\n  swap5\n  pop\n    /* \"#utility.yul\":3782:4145   */\n  pop\n  pop\n    /* \"#utility.yul\":3766:3770   */\n  0x20\n    /* \"#utility.yul\":3761:3764   */\n  dup2\n    /* \"#utility.yul\":3757:3771   */\n  add\n    /* \"#utility.yul\":3750:3771   */\n  swap1\n  pop\n    /* \"#utility.yul\":3706:4145   */\n  jump(tag_101)\ntag_103:\n    /* \"#utility.yul\":3710:3731   */\n  pop\n    /* \"#utility.yul\":3314:4151   */\n  pop\n  pop\n    /* \"#utility.yul\":3191:4151   */\n  swap4\n  swap3\n  pop\n  pop\n  pop\n  jump\t// out\n    /* \"#utility.yul\":4173:4578   */\ntag_52:\n    /* \"#utility.yul\":4265:4270   */\n  0x00\n    /* \"#utility.yul\":4314:4317   */\n  dup3\n    /* \"#utility.yul\":4307:4311   */\n  0x1f\n    /* \"#utility.yul\":4299:4305   */\n  dup4\n    /* \"#utility.yul\":4295:4312   */\n  add\n    /* \"#utility.yul\":4291:4318   */\n  slt\n    /* \"#utility.yul\":4281:4403   */\n  tag_108\n  jumpi\n    /* \"#utility.yul\":4322:4401   */\n  tag_109\n  tag_39\n  jump\t// in\ntag_109:\n    /* \"#utility.yul\":4281:4403   */\ntag_108:\n    /* \"#utility.yul\":4432:4438   */\n  dup2\n    /* \"#utility.yul\":4426:4439   */\n  mload\n    /* \"#utility.yul\":4457:4572   */\n  tag_110\n    /* \"#utility.yul\":4568:4571   */\n  dup5\n    /* \"#utility.yul\":4560:4566   */\n  dup3\n    /* \"#utility.yul\":4553:4557   */\n  0x20\n    /* \"#utility.yul\":4545:4551   */\n  dup7\n    /* \"#utility.yul\":4541:4558   */\n  add\n    /* \"#utility.yul\":4457:4572   */\n  tag_51\n  jump\t// in\ntag_110:\n    /* \"#utility.yul\":4448:4572   */\n  swap2\n  pop\n    /* \"#utility.yul\":4271:4578   */\n  pop\n    /* \"#utility.yul\":4173:4578   */\n  swap3\n  swap2\n  pop\n  pop\n  jump\t// out\n    /* \"#utility.yul\":4584:4710   */\ntag_53:\n    /* \"#utility.yul\":4621:4628   */\n  0x00\n    /* \"#utility.yul\":4661:4703   */\n  0xffffffffffffffffffffffffffffffffffffffff\n    /* \"#utility.yul\":4654:4659   */\n  dup3\n    /* \"#utility.yul\":4650:4704   */\n  and\n    /* \"#utility.yul\":4639:4704   */\n  swap1\n  pop\n    /* \"#utility.yul\":4584:4710   */\n  swap2\n  swap1\n  pop\n  jump\t// out\n    /* \"#utility.yul\":4716:4812   */\ntag_54:\n    /* \"#utility.yul\":4753:4760   */\n  0x00\n    /* \"#utility.yul\":4782:4806   */\n  tag_113\n    /* \"#utility.yul\":4800:4805   */\n  dup3\n    /* \"#utility.yul\":4782:4806   */\n  tag_53\n  jump\t// in\ntag_113:\n    /* \"#utility.yul\":4771:4806   */\n  swap1\n  pop\n    /* \"#utility.yul\":4716:4812   */\n  swap2\n  swap1\n  pop\n  jump\t// out\n    /* \"#utility.yul\":4818:4940   */\ntag_55:\n    /* \"#utility.yul\":4891:4915   */\n  tag_115\n    /* \"#utility.yul\":4909:4914   */\n  dup2\n    /* \"#utility.yul\":4891:4915   */\n  tag_54\n  jump\t// in\ntag_115:\n    /* \"#utility.yul\":4884:4889   */\n  dup2\n    /* \"#utility.yul\":4881:4916   */\n  eq\n    /* \"#utility.yul\":4871:4934   */\n  tag_116\n  jumpi\n    /* \"#utility.yul\":4930:4931   */\n  0x00\n    /* \"#utility.yul\":4927:4928   */\n  dup1\n    /* \"#utility.yul\":4920:4932   */\n  revert\n    /* \"#utility.yul\":4871:4934   */\ntag_116:\n    /* \"#utility.yul\":4818:4940   */\n  pop\n  jump\t// out\n    /* \"#utility.yul\":4946:5089   */\ntag_56:\n    /* \"#utility.yul\":5003:5008   */\n  0x00\n    /* \"#utility.yul\":5034:5040   */\n  dup2\n    /* \"#utility.yul\":5028:5041   */\n  mload\n    /* \"#utility.yul\":5019:5041   */\n  swap1\n  pop\n    /* \"#utility.yul\":5050:5083   */\n  tag_118\n    /* \"#utility.yul\":5077:5082   */\n  dup2\n    /* \"#utility.yul\":5050:5083   */\n  tag_55\n  jump\t// in\ntag_118:\n    /* \"#utility.yul\":4946:5089   */\n  swap3\n  swap2\n  pop\n  pop\n  jump\t// out\n    /* \"#utility.yul\":5095:6484   */\ntag_2:\n    /* \"#utility.yul\":5247:5253   */\n  0x00\n    /* \"#utility.yul\":5255:5261   */\n  dup1\n    /* \"#utility.yul\":5263:5269   */\n  0x00\n    /* \"#utility.yul\":5271:5277   */\n  dup1\n    /* \"#utility.yul\":5320:5323   */\n  0x80\n    /* \"#utility.yul\":5308:5317   */\n  dup6\n    /* \"#utility.yul\":5299:5306   */\n  dup8\n    /* \"#utility.yul\":5295:5318   */\n  sub\n    /* \"#utility.yul\":5291:5324   */\n  slt\n    /* \"#utility.yul\":5288:5408   */\n  iszero\n  tag_120\n  jumpi\n    /* \"#utility.yul\":5327:5406   */\n  tag_121\n  tag_37\n  jump\t// in\ntag_121:\n    /* \"#utility.yul\":5288:5408   */\ntag_120:\n    /* \"#utility.yul\":5468:5469   */\n  0x00\n    /* \"#utility.yul\":5457:5466   */\n  dup6\n    /* \"#utility.yul\":5453:5470   */\n  add\n    /* \"#utility.yul\":5447:5471   */\n  mload\n    /* \"#utility.yul\":5498:5516   */\n  0xffffffffffffffff\n    /* \"#utility.yul\":5490:5496   */\n  dup2\n    /* \"#utility.yul\":5487:5517   */\n  gt\n    /* \"#utility.yul\":5484:5601   */\n  iszero\n  tag_122\n  jumpi\n    /* \"#utility.yul\":5520:5599   */\n  tag_123\n  tag_38\n  jump\t// in\ntag_123:\n    /* \"#utility.yul\":5484:5601   */\ntag_122:\n    /* \"#utility.yul\":5625:5699   */\n  tag_124\n    /* \"#utility.yul\":5691:5698   */\n  dup8\n    /* \"#utility.yul\":5682:5688   */\n  dup3\n    /* \"#utility.yul\":5671:5680   */\n  dup9\n    /* \"#utility.yul\":5667:5689   */\n  add\n    /* \"#utility.yul\":5625:5699   */\n  tag_48\n  jump\t// in\ntag_124:\n    /* \"#utility.yul\":5615:5699   */\n  swap5\n  pop\n    /* \"#utility.yul\":5418:5709   */\n  pop\n    /* \"#utility.yul\":5769:5771   */\n  0x20\n    /* \"#utility.yul\":5758:5767   */\n  dup6\n    /* \"#utility.yul\":5754:5772   */\n  add\n    /* \"#utility.yul\":5748:5773   */\n  mload\n    /* \"#utility.yul\":5800:5818   */\n  0xffffffffffffffff\n    /* \"#utility.yul\":5792:5798   */\n  dup2\n    /* \"#utility.yul\":5789:5819   */\n  gt\n    /* \"#utility.yul\":5786:5903   */\n  iszero\n  tag_125\n  jumpi\n    /* \"#utility.yul\":5822:5901   */\n  tag_126\n  tag_38\n  jump\t// in\ntag_126:\n    /* \"#utility.yul\":5786:5903   */\ntag_125:\n    /* \"#utility.yul\":5927:6001   */\n  tag_127\n    /* \"#utility.yul\":5993:6000   */\n  dup8\n    /* \"#utility.yul\":5984:5990   */\n  dup3\n    /* \"#utility.yul\":5973:5982   */\n  dup9\n    /* \"#utility.yul\":5969:5991   */\n  add\n    /* \"#utility.yul\":5927:6001   */\n  tag_48\n  jump\t// in\ntag_127:\n    /* \"#utility.yul\":5917:6001   */\n  swap4\n  pop\n    /* \"#utility.yul\":5719:6011   */\n  pop\n    /* \"#utility.yul\":6071:6073   */\n  0x40\n    /* \"#utility.yul\":6060:6069   */\n  dup6\n    /* \"#utility.yul\":6056:6074   */\n  add\n    /* \"#utility.yul\":6050:6075   */\n  mload\n    /* \"#utility.yul\":6102:6120   */\n  0xffffffffffffffff\n    /* \"#utility.yul\":6094:6100   */\n  dup2\n    /* \"#utility.yul\":6091:6121   */\n  gt\n    /* \"#utility.yul\":6088:6205   */\n  iszero\n  tag_128\n  jumpi\n    /* \"#utility.yul\":6124:6203   */\n  tag_129\n  tag_38\n  jump\t// in\ntag_129:\n    /* \"#utility.yul\":6088:6205   */\ntag_128:\n    /* \"#utility.yul\":6229:6328   */\n  tag_130\n    /* \"#utility.yul\":6320:6327   */\n  dup8\n    /* \"#utility.yul\":6311:6317   */\n  dup3\n    /* \"#utility.yul\":6300:6309   */\n  dup9\n    /* \"#utility.yul\":6296:6318   */\n  add\n    /* \"#utility.yul\":6229:6328   */\n  tag_52\n  jump\t// in\ntag_130:\n    /* \"#utility.yul\":6219:6328   */\n  swap3\n  pop\n    /* \"#utility.yul\":6021:6338   */\n  pop\n    /* \"#utility.yul\":6377:6379   */\n  0x60\n    /* \"#utility.yul\":6403:6467   */\n  tag_131\n    /* \"#utility.yul\":6459:6466   */\n  dup8\n    /* \"#utility.yul\":6450:6456   */\n  dup3\n    /* \"#utility.yul\":6439:6448   */\n  dup9\n    /* \"#utility.yul\":6435:6457   */\n  add\n    /* \"#utility.yul\":6403:6467   */\n  tag_56\n  jump\t// in\ntag_131:\n    /* \"#utility.yul\":6393:6467   */\n  swap2\n  pop\n    /* \"#utility.yul\":6348:6477   */\n  pop\n    /* \"#utility.yul\":5095:6484   */\n  swap3\n  swap6\n  swap2\n  swap5\n  pop\n  swap3\n  pop\n  jump\t// out\n    /* \"#utility.yul\":6490:6670   */\ntag_57:\n    /* \"#utility.yul\":6538:6615   */\n  0x4e487b7100000000000000000000000000000000000000000000000000000000\n    /* \"#utility.yul\":6535:6536   */\n  0x00\n    /* \"#utility.yul\":6528:6616   */\n  mstore\n    /* \"#utility.yul\":6635:6639   */\n  0x22\n    /* \"#utility.yul\":6632:6633   */\n  0x04\n    /* \"#utility.yul\":6625:6640   */\n  mstore\n    /* \"#utility.yul\":6659:6663   */\n  0x24\n    /* \"#utility.yul\":6656:6657   */\n  0x00\n    /* \"#utility.yul\":6649:6664   */\n  revert\n    /* \"#utility.yul\":6676:6996   */\ntag_12:\n    /* \"#utility.yul\":6720:6726   */\n  0x00\n    /* \"#utility.yul\":6757:6758   */\n  0x02\n    /* \"#utility.yul\":6751:6755   */\n  dup3\n    /* \"#utility.yul\":6747:6759   */\n  div\n    /* \"#utility.yul\":6737:6759   */\n  swap1\n  pop\n    /* \"#utility.yul\":6804:6805   */\n  0x01\n    /* \"#utility.yul\":6798:6802   */\n  dup3\n    /* \"#utility.yul\":6794:6806   */\n  and\n    /* \"#utility.yul\":6825:6843   */\n  dup1\n    /* \"#utility.yul\":6815:6896   */\n  tag_134\n  jumpi\n    /* \"#utility.yul\":6881:6885   */\n  0x7f\n    /* \"#utility.yul\":6873:6879   */\n  dup3\n    /* \"#utility.yul\":6869:6886   */\n  and\n    /* \"#utility.yul\":6859:6886   */\n  swap2\n  pop\n    /* \"#utility.yul\":6815:6896   */\ntag_134:\n    /* \"#utility.yul\":6943:6945   */\n  0x20\n    /* \"#utility.yul\":6935:6941   */\n  dup3\n    /* \"#utility.yul\":6932:6946   */\n  lt\n    /* \"#utility.yul\":6912:6930   */\n  dup2\n    /* \"#utility.yul\":6909:6947   */\n  sub\n    /* \"#utility.yul\":6906:6990   */\n  tag_135\n  jumpi\n    /* \"#utility.yul\":6962:6980   */\n  tag_136\n  tag_57\n  jump\t// in\ntag_136:\n    /* \"#utility.yul\":6906:6990   */\ntag_135:\n    /* \"#utility.yul\":6727:6996   */\n  pop\n    /* \"#utility.yul\":6676:6996   */\n  swap2\n  swap1\n  pop\n  jump\t// out\n    /* \"Task.sol\":533:1985  contract Task {... */\ntag_10:\n  dataSize(sub_0)\n  dup1\n  dataOffset(sub_0)\n  0x00\n  codecopy\n  0x00\n  return\nstop\n\nsub_0: assembly {\n        /* \"Task.sol\":533:1985  contract Task {... */\n      mstore(0x40, 0x80)\n      callvalue\n      dup1\n      iszero\n      tag_1\n      jumpi\n      0x00\n      dup1\n      revert\n    tag_1:\n      pop\n      jumpi(tag_2, lt(calldatasize, 0x04))\n      shr(0xe0, calldataload(0x00))\n      dup1\n      0x5f51c765\n      gt\n      tag_15\n      jumpi\n      dup1\n      0x5f51c765\n      eq\n      tag_9\n      jumpi\n      dup1\n      0x74adad1d\n      eq\n      tag_10\n      jumpi\n      dup1\n      0xa20fca5a\n      eq\n      tag_11\n      jumpi\n      dup1\n      0xaf84a013\n      eq\n      tag_12\n      jumpi\n      dup1\n      0xfa391c64\n      eq\n      tag_13\n      jumpi\n      dup1\n      0xfbc03a1e\n      eq\n      tag_14\n      jumpi\n      jump(tag_2)\n    tag_15:\n      dup1\n      0x1aea77\n      eq\n      tag_3\n      jumpi\n      dup1\n      0x231e407a\n      eq\n      tag_4\n      jumpi\n      dup1\n      0x31c3a6f5\n      eq\n      tag_5\n      jumpi\n      dup1\n      0x481c6a75\n      eq\n      tag_6\n      jumpi\n      dup1\n      0x4d547ada\n      eq\n      tag_7\n      jumpi\n      dup1\n      0x5e1c7322\n      eq\n      tag_8\n      jumpi\n    tag_2:\n      0x00\n      dup1\n      revert\n        /* \"Task.sol\":674:696  string public taskName */\n    tag_3:\n      tag_16\n      tag_17\n      jump\t// in\n    tag_16:\n      mload(0x40)\n      tag_18\n      swap2\n      swap1\n      tag_19\n      jump\t// in\n    tag_18:\n      mload(0x40)\n      dup1\n      swap2\n      sub\n      swap1\n      return\n        /* \"Task.sol\":1395:1532  function killTask() public restricted {... */\n    tag_4:\n      tag_20\n      tag_21\n      jump\t// in\n    tag_20:\n      stop\n        /* \"Task.sol\":1540:1690  function creaetRequest(string memory description) public  {... */\n    tag_5:\n      tag_22\n      0x04\n      dup1\n      calldatasize\n      sub\n      dup2\n      add\n      swap1\n      tag_23\n      swap2\n      swap1\n      tag_24\n      jump\t// in\n    tag_23:\n      tag_25\n      jump\t// in\n    tag_22:\n      stop\n        /* \"Task.sol\":637:667  address payable public manager */\n    tag_6:\n      tag_26\n      tag_27\n      jump\t// in\n    tag_26:\n      mload(0x40)\n      tag_28\n      swap2\n      swap1\n      tag_29\n      jump\t// in\n    tag_28:\n      mload(0x40)\n      dup1\n      swap2\n      sub\n      swap1\n      return\n        /* \"Task.sol\":774:803  address payable public worker */\n    tag_7:\n      tag_30\n      tag_31\n      jump\t// in\n    tag_30:\n      mload(0x40)\n      tag_32\n      swap2\n      swap1\n      tag_29\n      jump\t// in\n    tag_32:\n      mload(0x40)\n      dup1\n      swap2\n      sub\n      swap1\n      return\n        /* \"Task.sol\":1289:1387  function getHashtags() public view returns(string[] memory) {... */\n    tag_8:\n      tag_33\n      tag_34\n      jump\t// in\n    tag_33:\n      mload(0x40)\n      tag_35\n      swap2\n      swap1\n      tag_36\n      jump\t// in\n    tag_35:\n      mload(0x40)\n      dup1\n      swap2\n      sub\n      swap1\n      return\n        /* \"Task.sol\":1698:1845  function startTask(address newWorker) public restricted {... */\n    tag_9:\n      tag_37\n      0x04\n      dup1\n      calldatasize\n      sub\n      dup2\n      add\n      swap1\n      tag_38\n      swap2\n      swap1\n      tag_39\n      jump\t// in\n    tag_38:\n      tag_40\n      jump\t// in\n    tag_37:\n      stop\n        /* \"Task.sol\":840:883  mapping(address => Request) public requests */\n    tag_10:\n      tag_41\n      0x04\n      dup1\n      calldatasize\n      sub\n      dup2\n      add\n      swap1\n      tag_42\n      swap2\n      swap1\n      tag_39\n      jump\t// in\n    tag_42:\n      tag_43\n      jump\t// in\n    tag_41:\n      mload(0x40)\n      tag_44\n      swap3\n      swap2\n      swap1\n      tag_45\n      jump\t// in\n    tag_44:\n      mload(0x40)\n      dup1\n      swap2\n      sub\n      swap1\n      return\n        /* \"Task.sol\":1853:1982  function finalizeTask () public restricted {... */\n    tag_11:\n      tag_46\n      tag_47\n      jump\t// in\n    tag_46:\n      stop\n        /* \"Task.sol\":739:767  string[] public taskHashtags */\n    tag_12:\n      tag_48\n      0x04\n      dup1\n      calldatasize\n      sub\n      dup2\n      add\n      swap1\n      tag_49\n      swap2\n      swap1\n      tag_50\n      jump\t// in\n    tag_49:\n      tag_51\n      jump\t// in\n    tag_48:\n      mload(0x40)\n      tag_52\n      swap2\n      swap1\n      tag_19\n      jump\t// in\n    tag_52:\n      mload(0x40)\n      dup1\n      swap2\n      sub\n      swap1\n      return\n        /* \"Task.sol\":810:833  bool public isCompleted */\n    tag_13:\n      tag_53\n      tag_54\n      jump\t// in\n    tag_53:\n      mload(0x40)\n      tag_55\n      swap2\n      swap1\n      tag_56\n      jump\t// in\n    tag_55:\n      mload(0x40)\n      dup1\n      swap2\n      sub\n      swap1\n      return\n        /* \"Task.sol\":703:732  string public taskDescription */\n    tag_14:\n      tag_57\n      tag_58\n      jump\t// in\n    tag_57:\n      mload(0x40)\n      tag_59\n      swap2\n      swap1\n      tag_19\n      jump\t// in\n    tag_59:\n      mload(0x40)\n      dup1\n      swap2\n      sub\n      swap1\n      return\n        /* \"Task.sol\":674:696  string public taskName */\n    tag_17:\n      0x01\n      dup1\n      sload\n      tag_60\n      swap1\n      tag_61\n      jump\t// in\n    tag_60:\n      dup1\n      0x1f\n      add\n      0x20\n      dup1\n      swap2\n      div\n      mul\n      0x20\n      add\n      mload(0x40)\n      swap1\n      dup2\n      add\n      0x40\n      mstore\n      dup1\n      swap3\n      swap2\n      swap1\n      dup2\n      dup2\n      mstore\n      0x20\n      add\n      dup3\n      dup1\n      sload\n      tag_62\n      swap1\n      tag_61\n      jump\t// in\n    tag_62:\n      dup1\n      iszero\n      tag_63\n      jumpi\n      dup1\n      0x1f\n      lt\n      tag_64\n      jumpi\n      0x0100\n      dup1\n      dup4\n      sload\n      div\n      mul\n      dup4\n      mstore\n      swap2\n      0x20\n      add\n      swap2\n      jump(tag_63)\n    tag_64:\n      dup3\n      add\n      swap2\n      swap1\n      0x00\n      mstore\n      keccak256(0x00, 0x20)\n      swap1\n    tag_65:\n      dup2\n      sload\n      dup2\n      mstore\n      swap1\n      0x01\n      add\n      swap1\n      0x20\n      add\n      dup1\n      dup4\n      gt\n      tag_65\n      jumpi\n      dup3\n      swap1\n      sub\n      0x1f\n      and\n      dup3\n      add\n      swap2\n    tag_63:\n      pop\n      pop\n      pop\n      pop\n      pop\n      dup2\n      jump\t// out\n        /* \"Task.sol\":1395:1532  function killTask() public restricted {... */\n    tag_21:\n        /* \"Task.sol\":1253:1260  manager */\n      0x00\n      dup1\n      sload\n      swap1\n      0x0100\n      exp\n      swap1\n      div\n      0xffffffffffffffffffffffffffffffffffffffff\n      and\n        /* \"Task.sol\":1239:1260  msg.sender == manager */\n      0xffffffffffffffffffffffffffffffffffffffff\n      and\n        /* \"Task.sol\":1239:1249  msg.sender */\n      caller\n        /* \"Task.sol\":1239:1260  msg.sender == manager */\n      0xffffffffffffffffffffffffffffffffffffffff\n      and\n      eq\n        /* \"Task.sol\":1231:1261  require(msg.sender == manager) */\n      tag_67\n      jumpi\n      0x00\n      dup1\n      revert\n    tag_67:\n        /* \"Task.sol\":1470:1471  0 */\n      0x00\n        /* \"Task.sol\":1452:1472  worker == address(0) */\n      0xffffffffffffffffffffffffffffffffffffffff\n      and\n        /* \"Task.sol\":1452:1458  worker */\n      0x04\n      0x00\n      swap1\n      sload\n      swap1\n      0x0100\n      exp\n      swap1\n      div\n      0xffffffffffffffffffffffffffffffffffffffff\n      and\n        /* \"Task.sol\":1452:1472  worker == address(0) */\n      0xffffffffffffffffffffffffffffffffffffffff\n      and\n      eq\n        /* \"Task.sol\":1444:1473  require(worker == address(0)) */\n      tag_69\n      jumpi\n      0x00\n      dup1\n      revert\n    tag_69:\n        /* \"Task.sol\":1485:1492  manager */\n      0x00\n      dup1\n      sload\n      swap1\n      0x0100\n      exp\n      swap1\n      div\n      0xffffffffffffffffffffffffffffffffffffffff\n      and\n        /* \"Task.sol\":1485:1501  manager.transfer */\n      0xffffffffffffffffffffffffffffffffffffffff\n      and\n        /* \"Task.sol\":1485:1524  manager.transfer(address(this).balance) */\n      0x08fc\n        /* \"Task.sol\":1502:1523  address(this).balance */\n      selfbalance\n        /* \"Task.sol\":1485:1524  manager.transfer(address(this).balance) */\n      swap1\n      dup2\n      iszero\n      mul\n      swap1\n      mload(0x40)\n      0x00\n      mload(0x40)\n      dup1\n      dup4\n      sub\n      dup2\n      dup6\n      dup9\n      dup9\n      call\n      swap4\n      pop\n      pop\n      pop\n      pop\n      iszero\n      dup1\n      iszero\n      tag_71\n      jumpi\n      returndatasize\n      0x00\n      dup1\n      returndatacopy\n      revert(0x00, returndatasize)\n    tag_71:\n      pop\n        /* \"Task.sol\":1395:1532  function killTask() public restricted {... */\n      jump\t// out\n        /* \"Task.sol\":1540:1690  function creaetRequest(string memory description) public  {... */\n    tag_25:\n        /* \"Task.sol\":1632:1682  Request(... */\n      mload(0x40)\n      dup1\n      0x40\n      add\n      0x40\n      mstore\n      dup1\n        /* \"Task.sol\":1654:1665  description */\n      dup3\n        /* \"Task.sol\":1632:1682  Request(... */\n      dup2\n      mstore\n      0x20\n      add\n        /* \"Task.sol\":1667:1671  true */\n      0x01\n        /* \"Task.sol\":1632:1682  Request(... */\n      iszero\n      iszero\n      dup2\n      mstore\n      pop\n        /* \"Task.sol\":1609:1617  requests */\n      0x05\n        /* \"Task.sol\":1609:1629  requests[msg.sender] */\n      0x00\n        /* \"Task.sol\":1618:1628  msg.sender */\n      caller\n        /* \"Task.sol\":1609:1629  requests[msg.sender] */\n      0xffffffffffffffffffffffffffffffffffffffff\n      and\n      0xffffffffffffffffffffffffffffffffffffffff\n      and\n      dup2\n      mstore\n      0x20\n      add\n      swap1\n      dup2\n      mstore\n      0x20\n      add\n      0x00\n      keccak256\n        /* \"Task.sol\":1609:1682  requests[msg.sender] = Request(... */\n      0x00\n      dup3\n      add\n      mload\n      dup2\n      0x00\n      add\n      swap1\n      dup1\n      mload\n      swap1\n      0x20\n      add\n      swap1\n      tag_73\n      swap3\n      swap2\n      swap1\n      tag_74\n      jump\t// in\n    tag_73:\n      pop\n      0x20\n      dup3\n      add\n      mload\n      dup2\n      0x01\n      add\n      exp(0x0100, 0x00)\n      dup2\n      sload\n      dup2\n      0xff\n      mul\n      not\n      and\n      swap1\n      dup4\n      iszero\n      iszero\n      mul\n      or\n      swap1\n      sstore\n      pop\n      swap1\n      pop\n      pop\n        /* \"Task.sol\":1540:1690  function creaetRequest(string memory description) public  {... */\n      pop\n      jump\t// out\n        /* \"Task.sol\":637:667  address payable public manager */\n    tag_27:\n      0x00\n      dup1\n      sload\n      swap1\n      0x0100\n      exp\n      swap1\n      div\n      0xffffffffffffffffffffffffffffffffffffffff\n      and\n      dup2\n      jump\t// out\n        /* \"Task.sol\":774:803  address payable public worker */\n    tag_31:\n      0x04\n      0x00\n      swap1\n      sload\n      swap1\n      0x0100\n      exp\n      swap1\n      div\n      0xffffffffffffffffffffffffffffffffffffffff\n      and\n      dup2\n      jump\t// out\n        /* \"Task.sol\":1289:1387  function getHashtags() public view returns(string[] memory) {... */\n    tag_34:\n        /* \"Task.sol\":1332:1347  string[] memory */\n      0x60\n        /* \"Task.sol\":1367:1379  taskHashtags */\n      0x03\n        /* \"Task.sol\":1360:1379  return taskHashtags */\n      dup1\n      sload\n      dup1\n      0x20\n      mul\n      0x20\n      add\n      mload(0x40)\n      swap1\n      dup2\n      add\n      0x40\n      mstore\n      dup1\n      swap3\n      swap2\n      swap1\n      dup2\n      dup2\n      mstore\n      0x20\n      add\n      0x00\n      swap1\n    tag_76:\n      dup3\n      dup3\n      lt\n      iszero\n      tag_77\n      jumpi\n      dup4\n      dup3\n      swap1\n      0x00\n      mstore\n      keccak256(0x00, 0x20)\n      add\n      dup1\n      sload\n      tag_79\n      swap1\n      tag_61\n      jump\t// in\n    tag_79:\n      dup1\n      0x1f\n      add\n      0x20\n      dup1\n      swap2\n      div\n      mul\n      0x20\n      add\n      mload(0x40)\n      swap1\n      dup2\n      add\n      0x40\n      mstore\n      dup1\n      swap3\n      swap2\n      swap1\n      dup2\n      dup2\n      mstore\n      0x20\n      add\n      dup3\n      dup1\n      sload\n      tag_80\n      swap1\n      tag_61\n      jump\t// in\n    tag_80:\n      dup1\n      iszero\n      tag_81\n      jumpi\n      dup1\n      0x1f\n      lt\n      tag_82\n      jumpi\n      0x0100\n      dup1\n      dup4\n      sload\n      div\n      mul\n      dup4\n      mstore\n      swap2\n      0x20\n      add\n      swap2\n      jump(tag_81)\n    tag_82:\n      dup3\n      add\n      swap2\n      swap1\n      0x00\n      mstore\n      keccak256(0x00, 0x20)\n      swap1\n    tag_83:\n      dup2\n      sload\n      dup2\n      mstore\n      swap1\n      0x01\n      add\n      swap1\n      0x20\n      add\n      dup1\n      dup4\n      gt\n      tag_83\n      jumpi\n      dup3\n      swap1\n      sub\n      0x1f\n      and\n      dup3\n      add\n      swap2\n    tag_81:\n      pop\n      pop\n      pop\n      pop\n      pop\n      dup2\n      mstore\n      0x20\n      add\n      swap1\n      0x01\n      add\n      swap1\n      jump(tag_76)\n    tag_77:\n      pop\n      pop\n      pop\n      pop\n      swap1\n      pop\n        /* \"Task.sol\":1289:1387  function getHashtags() public view returns(string[] memory) {... */\n      swap1\n      jump\t// out\n        /* \"Task.sol\":1698:1845  function startTask(address newWorker) public restricted {... */\n    tag_40:\n        /* \"Task.sol\":1253:1260  manager */\n      0x00\n      dup1\n      sload\n      swap1\n      0x0100\n      exp\n      swap1\n      div\n      0xffffffffffffffffffffffffffffffffffffffff\n      and\n        /* \"Task.sol\":1239:1260  msg.sender == manager */\n      0xffffffffffffffffffffffffffffffffffffffff\n      and\n        /* \"Task.sol\":1239:1249  msg.sender */\n      caller\n        /* \"Task.sol\":1239:1260  msg.sender == manager */\n      0xffffffffffffffffffffffffffffffffffffffff\n      and\n      eq\n        /* \"Task.sol\":1231:1261  require(msg.sender == manager) */\n      tag_85\n      jumpi\n      0x00\n      dup1\n      revert\n    tag_85:\n        /* \"Task.sol\":1773:1781  requests */\n      0x05\n        /* \"Task.sol\":1773:1792  requests[newWorker] */\n      0x00\n        /* \"Task.sol\":1782:1791  newWorker */\n      dup3\n        /* \"Task.sol\":1773:1792  requests[newWorker] */\n      0xffffffffffffffffffffffffffffffffffffffff\n      and\n      0xffffffffffffffffffffffffffffffffffffffff\n      and\n      dup2\n      mstore\n      0x20\n      add\n      swap1\n      dup2\n      mstore\n      0x20\n      add\n      0x00\n      keccak256\n        /* \"Task.sol\":1773:1798  requests[newWorker].exist */\n      0x01\n      add\n      0x00\n      swap1\n      sload\n      swap1\n      0x0100\n      exp\n      swap1\n      div\n      0xff\n      and\n        /* \"Task.sol\":1765:1799  require(requests[newWorker].exist) */\n      tag_87\n      jumpi\n      0x00\n      dup1\n      revert\n    tag_87:\n        /* \"Task.sol\":1827:1836  newWorker */\n      dup1\n        /* \"Task.sol\":1810:1816  worker */\n      0x04\n      0x00\n        /* \"Task.sol\":1810:1837  worker = payable(newWorker) */\n      0x0100\n      exp\n      dup2\n      sload\n      dup2\n      0xffffffffffffffffffffffffffffffffffffffff\n      mul\n      not\n      and\n      swap1\n      dup4\n      0xffffffffffffffffffffffffffffffffffffffff\n      and\n      mul\n      or\n      swap1\n      sstore\n      pop\n        /* \"Task.sol\":1698:1845  function startTask(address newWorker) public restricted {... */\n      pop\n      jump\t// out\n        /* \"Task.sol\":840:883  mapping(address => Request) public requests */\n    tag_43:\n      mstore(0x20, 0x05)\n      dup1\n      0x00\n      mstore\n      keccak256(0x00, 0x40)\n      0x00\n      swap2\n      pop\n      swap1\n      pop\n      dup1\n      0x00\n      add\n      dup1\n      sload\n      tag_88\n      swap1\n      tag_61\n      jump\t// in\n    tag_88:\n      dup1\n      0x1f\n      add\n      0x20\n      dup1\n      swap2\n      div\n      mul\n      0x20\n      add\n      mload(0x40)\n      swap1\n      dup2\n      add\n      0x40\n      mstore\n      dup1\n      swap3\n      swap2\n      swap1\n      dup2\n      dup2\n      mstore\n      0x20\n      add\n      dup3\n      dup1\n      sload\n      tag_89\n      swap1\n      tag_61\n      jump\t// in\n    tag_89:\n      dup1\n      iszero\n      tag_90\n      jumpi\n      dup1\n      0x1f\n      lt\n      tag_91\n      jumpi\n      0x0100\n      dup1\n      dup4\n      sload\n      div\n      mul\n      dup4\n      mstore\n      swap2\n      0x20\n      add\n      swap2\n      jump(tag_90)\n    tag_91:\n      dup3\n      add\n      swap2\n      swap1\n      0x00\n      mstore\n      keccak256(0x00, 0x20)\n      swap1\n    tag_92:\n      dup2\n      sload\n      dup2\n      mstore\n      swap1\n      0x01\n      add\n      swap1\n      0x20\n      add\n      dup1\n      dup4\n      gt\n      tag_92\n      jumpi\n      dup3\n      swap1\n      sub\n      0x1f\n      and\n      dup3\n      add\n      swap2\n    tag_90:\n      pop\n      pop\n      pop\n      pop\n      pop\n      swap1\n      dup1\n      0x01\n      add\n      0x00\n      swap1\n      sload\n      swap1\n      0x0100\n      exp\n      swap1\n      div\n      0xff\n      and\n      swap1\n      pop\n      dup3\n      jump\t// out\n        /* \"Task.sol\":1853:1982  function finalizeTask () public restricted {... */\n    tag_47:\n        /* \"Task.sol\":1253:1260  manager */\n      0x00\n      dup1\n      sload\n      swap1\n      0x0100\n      exp\n      swap1\n      div\n      0xffffffffffffffffffffffffffffffffffffffff\n      and\n        /* \"Task.sol\":1239:1260  msg.sender == manager */\n      0xffffffffffffffffffffffffffffffffffffffff\n      and\n        /* \"Task.sol\":1239:1249  msg.sender */\n      caller\n        /* \"Task.sol\":1239:1260  msg.sender == manager */\n      0xffffffffffffffffffffffffffffffffffffffff\n      and\n      eq\n        /* \"Task.sol\":1231:1261  require(msg.sender == manager) */\n      tag_94\n      jumpi\n      0x00\n      dup1\n      revert\n    tag_94:\n        /* \"Task.sol\":1907:1913  worker */\n      0x04\n      0x00\n      swap1\n      sload\n      swap1\n      0x0100\n      exp\n      swap1\n      div\n      0xffffffffffffffffffffffffffffffffffffffff\n      and\n        /* \"Task.sol\":1907:1922  worker.transfer */\n      0xffffffffffffffffffffffffffffffffffffffff\n      and\n        /* \"Task.sol\":1907:1945  worker.transfer(address(this).balance) */\n      0x08fc\n        /* \"Task.sol\":1923:1944  address(this).balance */\n      selfbalance\n        /* \"Task.sol\":1907:1945  worker.transfer(address(this).balance) */\n      swap1\n      dup2\n      iszero\n      mul\n      swap1\n      mload(0x40)\n      0x00\n      mload(0x40)\n      dup1\n      dup4\n      sub\n      dup2\n      dup6\n      dup9\n      dup9\n      call\n      swap4\n      pop\n      pop\n      pop\n      pop\n      iszero\n      dup1\n      iszero\n      tag_97\n      jumpi\n      returndatasize\n      0x00\n      dup1\n      returndatacopy\n      revert(0x00, returndatasize)\n    tag_97:\n      pop\n        /* \"Task.sol\":1970:1974  true */\n      0x01\n        /* \"Task.sol\":1956:1967  isCompleted */\n      0x04\n      0x14\n        /* \"Task.sol\":1956:1974  isCompleted = true */\n      0x0100\n      exp\n      dup2\n      sload\n      dup2\n      0xff\n      mul\n      not\n      and\n      swap1\n      dup4\n      iszero\n      iszero\n      mul\n      or\n      swap1\n      sstore\n      pop\n        /* \"Task.sol\":1853:1982  function finalizeTask () public restricted {... */\n      jump\t// out\n        /* \"Task.sol\":739:767  string[] public taskHashtags */\n    tag_51:\n      0x03\n      dup2\n      dup2\n      sload\n      dup2\n      lt\n      tag_98\n      jumpi\n      0x00\n      dup1\n      revert\n    tag_98:\n      swap1\n      0x00\n      mstore\n      keccak256(0x00, 0x20)\n      add\n      0x00\n      swap2\n      pop\n      swap1\n      pop\n      dup1\n      sload\n      tag_100\n      swap1\n      tag_61\n      jump\t// in\n    tag_100:\n      dup1\n      0x1f\n      add\n      0x20\n      dup1\n      swap2\n      div\n      mul\n      0x20\n      add\n      mload(0x40)\n      swap1\n      dup2\n      add\n      0x40\n      mstore\n      dup1\n      swap3\n      swap2\n      swap1\n      dup2\n      dup2\n      mstore\n      0x20\n      add\n      dup3\n      dup1\n      sload\n      tag_101\n      swap1\n      tag_61\n      jump\t// in\n    tag_101:\n      dup1\n      iszero\n      tag_102\n      jumpi\n      dup1\n      0x1f\n      lt\n      tag_103\n      jumpi\n      0x0100\n      dup1\n      dup4\n      sload\n      div\n      mul\n      dup4\n      mstore\n      swap2\n      0x20\n      add\n      swap2\n      jump(tag_102)\n    tag_103:\n      dup3\n      add\n      swap2\n      swap1\n      0x00\n      mstore\n      keccak256(0x00, 0x20)\n      swap1\n    tag_104:\n      dup2\n      sload\n      dup2\n      mstore\n      swap1\n      0x01\n      add\n      swap1\n      0x20\n      add\n      dup1\n      dup4\n      gt\n      tag_104\n      jumpi\n      dup3\n      swap1\n      sub\n      0x1f\n      and\n      dup3\n      add\n      swap2\n    tag_102:\n      pop\n      pop\n      pop\n      pop\n      pop\n      dup2\n      jump\t// out\n        /* \"Task.sol\":810:833  bool public isCompleted */\n    tag_54:\n      0x04\n      0x14\n      swap1\n      sload\n      swap1\n      0x0100\n      exp\n      swap1\n      div\n      0xff\n      and\n      dup2\n      jump\t// out\n        /* \"Task.sol\":703:732  string public taskDescription */\n    tag_58:\n      0x02\n      dup1\n      sload\n      tag_105\n      swap1\n      tag_61\n      jump\t// in\n    tag_105:\n      dup1\n      0x1f\n      add\n      0x20\n      dup1\n      swap2\n      div\n      mul\n      0x20\n      add\n      mload(0x40)\n      swap1\n      dup2\n      add\n      0x40\n      mstore\n      dup1\n      swap3\n      swap2\n      swap1\n      dup2\n      dup2\n      mstore\n      0x20\n      add\n      dup3\n      dup1\n      sload\n      tag_106\n      swap1\n      tag_61\n      jump\t// in\n    tag_106:\n      dup1\n      iszero\n      tag_107\n      jumpi\n      dup1\n      0x1f\n      lt\n      tag_108\n      jumpi\n      0x0100\n      dup1\n      dup4\n      sload\n      div\n      mul\n      dup4\n      mstore\n      swap2\n      0x20\n      add\n      swap2\n      jump(tag_107)\n    tag_108:\n      dup3\n      add\n      swap2\n      swap1\n      0x00\n      mstore\n      keccak256(0x00, 0x20)\n      swap1\n    tag_109:\n      dup2\n      sload\n      dup2\n      mstore\n      swap1\n      0x01\n      add\n      swap1\n      0x20\n      add\n      dup1\n      dup4\n      gt\n      tag_109\n      jumpi\n      dup3\n      swap1\n      sub\n      0x1f\n      and\n      dup3\n      add\n      swap2\n    tag_107:\n      pop\n      pop\n      pop\n      pop\n      pop\n      dup2\n      jump\t// out\n    tag_74:\n      dup3\n      dup1\n      sload\n      tag_110\n      swap1\n      tag_61\n      jump\t// in\n    tag_110:\n      swap1\n      0x00\n      mstore\n      keccak256(0x00, 0x20)\n      swap1\n      0x1f\n      add\n      0x20\n      swap1\n      div\n      dup2\n      add\n      swap3\n      dup3\n      tag_112\n      jumpi\n      0x00\n      dup6\n      sstore\n      jump(tag_111)\n    tag_112:\n      dup3\n      0x1f\n      lt\n      tag_113\n      jumpi\n      dup1\n      mload\n      not(0xff)\n      and\n      dup4\n      dup1\n      add\n      or\n      dup6\n      sstore\n      jump(tag_111)\n    tag_113:\n      dup3\n      dup1\n      add\n      0x01\n      add\n      dup6\n      sstore\n      dup3\n      iszero\n      tag_111\n      jumpi\n      swap2\n      dup3\n      add\n    tag_114:\n      dup3\n      dup2\n      gt\n      iszero\n      tag_115\n      jumpi\n      dup3\n      mload\n      dup3\n      sstore\n      swap2\n      0x20\n      add\n      swap2\n      swap1\n      0x01\n      add\n      swap1\n      jump(tag_114)\n    tag_115:\n    tag_111:\n      pop\n      swap1\n      pop\n      tag_116\n      swap2\n      swap1\n      tag_117\n      jump\t// in\n    tag_116:\n      pop\n      swap1\n      jump\t// out\n    tag_117:\n    tag_118:\n      dup1\n      dup3\n      gt\n      iszero\n      tag_119\n      jumpi\n      0x00\n      dup2\n      0x00\n      swap1\n      sstore\n      pop\n      0x01\n      add\n      jump(tag_118)\n    tag_119:\n      pop\n      swap1\n      jump\t// out\n        /* \"#utility.yul\":7:106   */\n    tag_120:\n        /* \"#utility.yul\":59:65   */\n      0x00\n        /* \"#utility.yul\":93:98   */\n      dup2\n        /* \"#utility.yul\":87:99   */\n      mload\n        /* \"#utility.yul\":77:99   */\n      swap1\n      pop\n        /* \"#utility.yul\":7:106   */\n      swap2\n      swap1\n      pop\n      jump\t// out\n        /* \"#utility.yul\":112:281   */\n    tag_121:\n        /* \"#utility.yul\":196:207   */\n      0x00\n        /* \"#utility.yul\":230:236   */\n      dup3\n        /* \"#utility.yul\":225:228   */\n      dup3\n        /* \"#utility.yul\":218:237   */\n      mstore\n        /* \"#utility.yul\":270:274   */\n      0x20\n        /* \"#utility.yul\":265:268   */\n      dup3\n        /* \"#utility.yul\":261:275   */\n      add\n        /* \"#utility.yul\":246:275   */\n      swap1\n      pop\n        /* \"#utility.yul\":112:281   */\n      swap3\n      swap2\n      pop\n      pop\n      jump\t// out\n        /* \"#utility.yul\":287:594   */\n    tag_122:\n        /* \"#utility.yul\":355:356   */\n      0x00\n        /* \"#utility.yul\":365:478   */\n    tag_161:\n        /* \"#utility.yul\":379:385   */\n      dup4\n        /* \"#utility.yul\":376:377   */\n      dup2\n        /* \"#utility.yul\":373:386   */\n      lt\n        /* \"#utility.yul\":365:478   */\n      iszero\n      tag_163\n      jumpi\n        /* \"#utility.yul\":464:465   */\n      dup1\n        /* \"#utility.yul\":459:462   */\n      dup3\n        /* \"#utility.yul\":455:466   */\n      add\n        /* \"#utility.yul\":449:467   */\n      mload\n        /* \"#utility.yul\":445:446   */\n      dup2\n        /* \"#utility.yul\":440:443   */\n      dup5\n        /* \"#utility.yul\":436:447   */\n      add\n        /* \"#utility.yul\":429:468   */\n      mstore\n        /* \"#utility.yul\":401:403   */\n      0x20\n        /* \"#utility.yul\":398:399   */\n      dup2\n        /* \"#utility.yul\":394:404   */\n      add\n        /* \"#utility.yul\":389:404   */\n      swap1\n      pop\n        /* \"#utility.yul\":365:478   */\n      jump(tag_161)\n    tag_163:\n        /* \"#utility.yul\":496:502   */\n      dup4\n        /* \"#utility.yul\":493:494   */\n      dup2\n        /* \"#utility.yul\":490:503   */\n      gt\n        /* \"#utility.yul\":487:588   */\n      iszero\n      tag_164\n      jumpi\n        /* \"#utility.yul\":576:577   */\n      0x00\n        /* \"#utility.yul\":567:573   */\n      dup5\n        /* \"#utility.yul\":562:565   */\n      dup5\n        /* \"#utility.yul\":558:574   */\n      add\n        /* \"#utility.yul\":551:578   */\n      mstore\n        /* \"#utility.yul\":487:588   */\n    tag_164:\n        /* \"#utility.yul\":336:594   */\n      pop\n        /* \"#utility.yul\":287:594   */\n      pop\n      pop\n      pop\n      jump\t// out\n        /* \"#utility.yul\":600:702   */\n    tag_123:\n        /* \"#utility.yul\":641:647   */\n      0x00\n        /* \"#utility.yul\":692:694   */\n      0x1f\n        /* \"#utility.yul\":688:695   */\n      not\n        /* \"#utility.yul\":683:685   */\n      0x1f\n        /* \"#utility.yul\":676:681   */\n      dup4\n        /* \"#utility.yul\":672:686   */\n      add\n        /* \"#utility.yul\":668:696   */\n      and\n        /* \"#utility.yul\":658:696   */\n      swap1\n      pop\n        /* \"#utility.yul\":600:702   */\n      swap2\n      swap1\n      pop\n      jump\t// out\n        /* \"#utility.yul\":708:1072   */\n    tag_124:\n        /* \"#utility.yul\":796:799   */\n      0x00\n        /* \"#utility.yul\":824:863   */\n      tag_167\n        /* \"#utility.yul\":857:862   */\n      dup3\n        /* \"#utility.yul\":824:863   */\n      tag_120\n      jump\t// in\n    tag_167:\n        /* \"#utility.yul\":879:950   */\n      tag_168\n        /* \"#utility.yul\":943:949   */\n      dup2\n        /* \"#utility.yul\":938:941   */\n      dup6\n        /* \"#utility.yul\":879:950   */\n      tag_121\n      jump\t// in\n    tag_168:\n        /* \"#utility.yul\":872:950   */\n      swap4\n      pop\n        /* \"#utility.yul\":959:1011   */\n      tag_169\n        /* \"#utility.yul\":1004:1010   */\n      dup2\n        /* \"#utility.yul\":999:1002   */\n      dup6\n        /* \"#utility.yul\":992:996   */\n      0x20\n        /* \"#utility.yul\":985:990   */\n      dup7\n        /* \"#utility.yul\":981:997   */\n      add\n        /* \"#utility.yul\":959:1011   */\n      tag_122\n      jump\t// in\n    tag_169:\n        /* \"#utility.yul\":1036:1065   */\n      tag_170\n        /* \"#utility.yul\":1058:1064   */\n      dup2\n        /* \"#utility.yul\":1036:1065   */\n      tag_123\n      jump\t// in\n    tag_170:\n        /* \"#utility.yul\":1031:1034   */\n      dup5\n        /* \"#utility.yul\":1027:1066   */\n      add\n        /* \"#utility.yul\":1020:1066   */\n      swap2\n      pop\n        /* \"#utility.yul\":800:1072   */\n      pop\n        /* \"#utility.yul\":708:1072   */\n      swap3\n      swap2\n      pop\n      pop\n      jump\t// out\n        /* \"#utility.yul\":1078:1391   */\n    tag_19:\n        /* \"#utility.yul\":1191:1195   */\n      0x00\n        /* \"#utility.yul\":1229:1231   */\n      0x20\n        /* \"#utility.yul\":1218:1227   */\n      dup3\n        /* \"#utility.yul\":1214:1232   */\n      add\n        /* \"#utility.yul\":1206:1232   */\n      swap1\n      pop\n        /* \"#utility.yul\":1278:1287   */\n      dup2\n        /* \"#utility.yul\":1272:1276   */\n      dup2\n        /* \"#utility.yul\":1268:1288   */\n      sub\n        /* \"#utility.yul\":1264:1265   */\n      0x00\n        /* \"#utility.yul\":1253:1262   */\n      dup4\n        /* \"#utility.yul\":1249:1266   */\n      add\n        /* \"#utility.yul\":1242:1289   */\n      mstore\n        /* \"#utility.yul\":1306:1384   */\n      tag_172\n        /* \"#utility.yul\":1379:1383   */\n      dup2\n        /* \"#utility.yul\":1370:1376   */\n      dup5\n        /* \"#utility.yul\":1306:1384   */\n      tag_124\n      jump\t// in\n    tag_172:\n        /* \"#utility.yul\":1298:1384   */\n      swap1\n      pop\n        /* \"#utility.yul\":1078:1391   */\n      swap3\n      swap2\n      pop\n      pop\n      jump\t// out\n        /* \"#utility.yul\":1397:1472   */\n    tag_125:\n        /* \"#utility.yul\":1430:1436   */\n      0x00\n        /* \"#utility.yul\":1463:1465   */\n      0x40\n        /* \"#utility.yul\":1457:1466   */\n      mload\n        /* \"#utility.yul\":1447:1466   */\n      swap1\n      pop\n        /* \"#utility.yul\":1397:1472   */\n      swap1\n      jump\t// out\n        /* \"#utility.yul\":1478:1595   */\n    tag_126:\n        /* \"#utility.yul\":1587:1588   */\n      0x00\n        /* \"#utility.yul\":1584:1585   */\n      dup1\n        /* \"#utility.yul\":1577:1589   */\n      revert\n        /* \"#utility.yul\":1601:1718   */\n    tag_127:\n        /* \"#utility.yul\":1710:1711   */\n      0x00\n        /* \"#utility.yul\":1707:1708   */\n      dup1\n        /* \"#utility.yul\":1700:1712   */\n      revert\n        /* \"#utility.yul\":1724:1841   */\n    tag_128:\n        /* \"#utility.yul\":1833:1834   */\n      0x00\n        /* \"#utility.yul\":1830:1831   */\n      dup1\n        /* \"#utility.yul\":1823:1835   */\n      revert\n        /* \"#utility.yul\":1847:1964   */\n    tag_129:\n        /* \"#utility.yul\":1956:1957   */\n      0x00\n        /* \"#utility.yul\":1953:1954   */\n      dup1\n        /* \"#utility.yul\":1946:1958   */\n      revert\n        /* \"#utility.yul\":1970:2150   */\n    tag_130:\n        /* \"#utility.yul\":2018:2095   */\n      0x4e487b7100000000000000000000000000000000000000000000000000000000\n        /* \"#utility.yul\":2015:2016   */\n      0x00\n        /* \"#utility.yul\":2008:2096   */\n      mstore\n        /* \"#utility.yul\":2115:2119   */\n      0x41\n        /* \"#utility.yul\":2112:2113   */\n      0x04\n        /* \"#utility.yul\":2105:2120   */\n      mstore\n        /* \"#utility.yul\":2139:2143   */\n      0x24\n        /* \"#utility.yul\":2136:2137   */\n      0x00\n        /* \"#utility.yul\":2129:2144   */\n      revert\n        /* \"#utility.yul\":2156:2437   */\n    tag_131:\n        /* \"#utility.yul\":2239:2266   */\n      tag_180\n        /* \"#utility.yul\":2261:2265   */\n      dup3\n        /* \"#utility.yul\":2239:2266   */\n      tag_123\n      jump\t// in\n    tag_180:\n        /* \"#utility.yul\":2231:2237   */\n      dup2\n        /* \"#utility.yul\":2227:2267   */\n      add\n        /* \"#utility.yul\":2369:2375   */\n      dup2\n        /* \"#utility.yul\":2357:2367   */\n      dup2\n        /* \"#utility.yul\":2354:2376   */\n      lt\n        /* \"#utility.yul\":2333:2351   */\n      0xffffffffffffffff\n        /* \"#utility.yul\":2321:2331   */\n      dup3\n        /* \"#utility.yul\":2318:2352   */\n      gt\n        /* \"#utility.yul\":2315:2377   */\n      or\n        /* \"#utility.yul\":2312:2400   */\n      iszero\n      tag_181\n      jumpi\n        /* \"#utility.yul\":2380:2398   */\n      tag_182\n      tag_130\n      jump\t// in\n    tag_182:\n        /* \"#utility.yul\":2312:2400   */\n    tag_181:\n        /* \"#utility.yul\":2420:2430   */\n      dup1\n        /* \"#utility.yul\":2416:2418   */\n      0x40\n        /* \"#utility.yul\":2409:2431   */\n      mstore\n        /* \"#utility.yul\":2199:2437   */\n      pop\n        /* \"#utility.yul\":2156:2437   */\n      pop\n      pop\n      jump\t// out\n        /* \"#utility.yul\":2443:2572   */\n    tag_132:\n        /* \"#utility.yul\":2477:2483   */\n      0x00\n        /* \"#utility.yul\":2504:2524   */\n      tag_184\n      tag_125\n      jump\t// in\n    tag_184:\n        /* \"#utility.yul\":2494:2524   */\n      swap1\n      pop\n        /* \"#utility.yul\":2533:2566   */\n      tag_185\n        /* \"#utility.yul\":2561:2565   */\n      dup3\n        /* \"#utility.yul\":2553:2559   */\n      dup3\n        /* \"#utility.yul\":2533:2566   */\n      tag_131\n      jump\t// in\n    tag_185:\n        /* \"#utility.yul\":2443:2572   */\n      swap2\n      swap1\n      pop\n      jump\t// out\n        /* \"#utility.yul\":2578:2886   */\n    tag_133:\n        /* \"#utility.yul\":2640:2644   */\n      0x00\n        /* \"#utility.yul\":2730:2748   */\n      0xffffffffffffffff\n        /* \"#utility.yul\":2722:2728   */\n      dup3\n        /* \"#utility.yul\":2719:2749   */\n      gt\n        /* \"#utility.yul\":2716:2772   */\n      iszero\n      tag_187\n      jumpi\n        /* \"#utility.yul\":2752:2770   */\n      tag_188\n      tag_130\n      jump\t// in\n    tag_188:\n        /* \"#utility.yul\":2716:2772   */\n    tag_187:\n        /* \"#utility.yul\":2790:2819   */\n      tag_189\n        /* \"#utility.yul\":2812:2818   */\n      dup3\n        /* \"#utility.yul\":2790:2819   */\n      tag_123\n      jump\t// in\n    tag_189:\n        /* \"#utility.yul\":2782:2819   */\n      swap1\n      pop\n        /* \"#utility.yul\":2874:2878   */\n      0x20\n        /* \"#utility.yul\":2868:2872   */\n      dup2\n        /* \"#utility.yul\":2864:2879   */\n      add\n        /* \"#utility.yul\":2856:2879   */\n      swap1\n      pop\n        /* \"#utility.yul\":2578:2886   */\n      swap2\n      swap1\n      pop\n      jump\t// out\n        /* \"#utility.yul\":2892:3046   */\n    tag_134:\n        /* \"#utility.yul\":2976:2982   */\n      dup3\n        /* \"#utility.yul\":2971:2974   */\n      dup2\n        /* \"#utility.yul\":2966:2969   */\n      dup4\n        /* \"#utility.yul\":2953:2983   */\n      calldatacopy\n        /* \"#utility.yul\":3038:3039   */\n      0x00\n        /* \"#utility.yul\":3029:3035   */\n      dup4\n        /* \"#utility.yul\":3024:3027   */\n      dup4\n        /* \"#utility.yul\":3020:3036   */\n      add\n        /* \"#utility.yul\":3013:3040   */\n      mstore\n        /* \"#utility.yul\":2892:3046   */\n      pop\n      pop\n      pop\n      jump\t// out\n        /* \"#utility.yul\":3052:3464   */\n    tag_135:\n        /* \"#utility.yul\":3130:3135   */\n      0x00\n        /* \"#utility.yul\":3155:3221   */\n      tag_192\n        /* \"#utility.yul\":3171:3220   */\n      tag_193\n        /* \"#utility.yul\":3213:3219   */\n      dup5\n        /* \"#utility.yul\":3171:3220   */\n      tag_133\n      jump\t// in\n    tag_193:\n        /* \"#utility.yul\":3155:3221   */\n      tag_132\n      jump\t// in\n    tag_192:\n        /* \"#utility.yul\":3146:3221   */\n      swap1\n      pop\n        /* \"#utility.yul\":3244:3250   */\n      dup3\n        /* \"#utility.yul\":3237:3242   */\n      dup2\n        /* \"#utility.yul\":3230:3251   */\n      mstore\n        /* \"#utility.yul\":3282:3286   */\n      0x20\n        /* \"#utility.yul\":3275:3280   */\n      dup2\n        /* \"#utility.yul\":3271:3287   */\n      add\n        /* \"#utility.yul\":3320:3323   */\n      dup5\n        /* \"#utility.yul\":3311:3317   */\n      dup5\n        /* \"#utility.yul\":3306:3309   */\n      dup5\n        /* \"#utility.yul\":3302:3318   */\n      add\n        /* \"#utility.yul\":3299:3324   */\n      gt\n        /* \"#utility.yul\":3296:3408   */\n      iszero\n      tag_194\n      jumpi\n        /* \"#utility.yul\":3327:3406   */\n      tag_195\n      tag_129\n      jump\t// in\n    tag_195:\n        /* \"#utility.yul\":3296:3408   */\n    tag_194:\n        /* \"#utility.yul\":3417:3458   */\n      tag_196\n        /* \"#utility.yul\":3451:3457   */\n      dup5\n        /* \"#utility.yul\":3446:3449   */\n      dup3\n        /* \"#utility.yul\":3441:3444   */\n      dup6\n        /* \"#utility.yul\":3417:3458   */\n      tag_134\n      jump\t// in\n    tag_196:\n        /* \"#utility.yul\":3136:3464   */\n      pop\n        /* \"#utility.yul\":3052:3464   */\n      swap4\n      swap3\n      pop\n      pop\n      pop\n      jump\t// out\n        /* \"#utility.yul\":3484:3824   */\n    tag_136:\n        /* \"#utility.yul\":3540:3545   */\n      0x00\n        /* \"#utility.yul\":3589:3592   */\n      dup3\n        /* \"#utility.yul\":3582:3586   */\n      0x1f\n        /* \"#utility.yul\":3574:3580   */\n      dup4\n        /* \"#utility.yul\":3570:3587   */\n      add\n        /* \"#utility.yul\":3566:3593   */\n      slt\n        /* \"#utility.yul\":3556:3678   */\n      tag_198\n      jumpi\n        /* \"#utility.yul\":3597:3676   */\n      tag_199\n      tag_128\n      jump\t// in\n    tag_199:\n        /* \"#utility.yul\":3556:3678   */\n    tag_198:\n        /* \"#utility.yul\":3714:3720   */\n      dup2\n        /* \"#utility.yul\":3701:3721   */\n      calldataload\n        /* \"#utility.yul\":3739:3818   */\n      tag_200\n        /* \"#utility.yul\":3814:3817   */\n      dup5\n        /* \"#utility.yul\":3806:3812   */\n      dup3\n        /* \"#utility.yul\":3799:3803   */\n      0x20\n        /* \"#utility.yul\":3791:3797   */\n      dup7\n        /* \"#utility.yul\":3787:3804   */\n      add\n        /* \"#utility.yul\":3739:3818   */\n      tag_135\n      jump\t// in\n    tag_200:\n        /* \"#utility.yul\":3730:3818   */\n      swap2\n      pop\n        /* \"#utility.yul\":3546:3824   */\n      pop\n        /* \"#utility.yul\":3484:3824   */\n      swap3\n      swap2\n      pop\n      pop\n      jump\t// out\n        /* \"#utility.yul\":3830:4339   */\n    tag_24:\n        /* \"#utility.yul\":3899:3905   */\n      0x00\n        /* \"#utility.yul\":3948:3950   */\n      0x20\n        /* \"#utility.yul\":3936:3945   */\n      dup3\n        /* \"#utility.yul\":3927:3934   */\n      dup5\n        /* \"#utility.yul\":3923:3946   */\n      sub\n        /* \"#utility.yul\":3919:3951   */\n      slt\n        /* \"#utility.yul\":3916:4035   */\n      iszero\n      tag_202\n      jumpi\n        /* \"#utility.yul\":3954:4033   */\n      tag_203\n      tag_126\n      jump\t// in\n    tag_203:\n        /* \"#utility.yul\":3916:4035   */\n    tag_202:\n        /* \"#utility.yul\":4102:4103   */\n      0x00\n        /* \"#utility.yul\":4091:4100   */\n      dup3\n        /* \"#utility.yul\":4087:4104   */\n      add\n        /* \"#utility.yul\":4074:4105   */\n      calldataload\n        /* \"#utility.yul\":4132:4150   */\n      0xffffffffffffffff\n        /* \"#utility.yul\":4124:4130   */\n      dup2\n        /* \"#utility.yul\":4121:4151   */\n      gt\n        /* \"#utility.yul\":4118:4235   */\n      iszero\n      tag_204\n      jumpi\n        /* \"#utility.yul\":4154:4233   */\n      tag_205\n      tag_127\n      jump\t// in\n    tag_205:\n        /* \"#utility.yul\":4118:4235   */\n    tag_204:\n        /* \"#utility.yul\":4259:4322   */\n      tag_206\n        /* \"#utility.yul\":4314:4321   */\n      dup5\n        /* \"#utility.yul\":4305:4311   */\n      dup3\n        /* \"#utility.yul\":4294:4303   */\n      dup6\n        /* \"#utility.yul\":4290:4312   */\n      add\n        /* \"#utility.yul\":4259:4322   */\n      tag_136\n      jump\t// in\n    tag_206:\n        /* \"#utility.yul\":4249:4322   */\n      swap2\n      pop\n        /* \"#utility.yul\":4045:4332   */\n      pop\n        /* \"#utility.yul\":3830:4339   */\n      swap3\n      swap2\n      pop\n      pop\n      jump\t// out\n        /* \"#utility.yul\":4345:4471   */\n    tag_137:\n        /* \"#utility.yul\":4382:4389   */\n      0x00\n        /* \"#utility.yul\":4422:4464   */\n      0xffffffffffffffffffffffffffffffffffffffff\n        /* \"#utility.yul\":4415:4420   */\n      dup3\n        /* \"#utility.yul\":4411:4465   */\n      and\n        /* \"#utility.yul\":4400:4465   */\n      swap1\n      pop\n        /* \"#utility.yul\":4345:4471   */\n      swap2\n      swap1\n      pop\n      jump\t// out\n        /* \"#utility.yul\":4477:4581   */\n    tag_138:\n        /* \"#utility.yul\":4522:4529   */\n      0x00\n        /* \"#utility.yul\":4551:4575   */\n      tag_209\n        /* \"#utility.yul\":4569:4574   */\n      dup3\n        /* \"#utility.yul\":4551:4575   */\n      tag_137\n      jump\t// in\n    tag_209:\n        /* \"#utility.yul\":4540:4575   */\n      swap1\n      pop\n        /* \"#utility.yul\":4477:4581   */\n      swap2\n      swap1\n      pop\n      jump\t// out\n        /* \"#utility.yul\":4587:4729   */\n    tag_139:\n        /* \"#utility.yul\":4690:4722   */\n      tag_211\n        /* \"#utility.yul\":4716:4721   */\n      dup2\n        /* \"#utility.yul\":4690:4722   */\n      tag_138\n      jump\t// in\n    tag_211:\n        /* \"#utility.yul\":4685:4688   */\n      dup3\n        /* \"#utility.yul\":4678:4723   */\n      mstore\n        /* \"#utility.yul\":4587:4729   */\n      pop\n      pop\n      jump\t// out\n        /* \"#utility.yul\":4735:4989   */\n    tag_29:\n        /* \"#utility.yul\":4844:4848   */\n      0x00\n        /* \"#utility.yul\":4882:4884   */\n      0x20\n        /* \"#utility.yul\":4871:4880   */\n      dup3\n        /* \"#utility.yul\":4867:4885   */\n      add\n        /* \"#utility.yul\":4859:4885   */\n      swap1\n      pop\n        /* \"#utility.yul\":4895:4982   */\n      tag_213\n        /* \"#utility.yul\":4979:4980   */\n      0x00\n        /* \"#utility.yul\":4968:4977   */\n      dup4\n        /* \"#utility.yul\":4964:4981   */\n      add\n        /* \"#utility.yul\":4955:4961   */\n      dup5\n        /* \"#utility.yul\":4895:4982   */\n      tag_139\n      jump\t// in\n    tag_213:\n        /* \"#utility.yul\":4735:4989   */\n      swap3\n      swap2\n      pop\n      pop\n      jump\t// out\n        /* \"#utility.yul\":4995:5119   */\n    tag_140:\n        /* \"#utility.yul\":5072:5078   */\n      0x00\n        /* \"#utility.yul\":5106:5111   */\n      dup2\n        /* \"#utility.yul\":5100:5112   */\n      mload\n        /* \"#utility.yul\":5090:5112   */\n      swap1\n      pop\n        /* \"#utility.yul\":4995:5119   */\n      swap2\n      swap1\n      pop\n      jump\t// out\n        /* \"#utility.yul\":5125:5319   */\n    tag_141:\n        /* \"#utility.yul\":5234:5245   */\n      0x00\n        /* \"#utility.yul\":5268:5274   */\n      dup3\n        /* \"#utility.yul\":5263:5266   */\n      dup3\n        /* \"#utility.yul\":5256:5275   */\n      mstore\n        /* \"#utility.yul\":5308:5312   */\n      0x20\n        /* \"#utility.yul\":5303:5306   */\n      dup3\n        /* \"#utility.yul\":5299:5313   */\n      add\n        /* \"#utility.yul\":5284:5313   */\n      swap1\n      pop\n        /* \"#utility.yul\":5125:5319   */\n      swap3\n      swap2\n      pop\n      pop\n      jump\t// out\n        /* \"#utility.yul\":5325:5467   */\n    tag_142:\n        /* \"#utility.yul\":5402:5406   */\n      0x00\n        /* \"#utility.yul\":5425:5428   */\n      dup2\n        /* \"#utility.yul\":5417:5428   */\n      swap1\n      pop\n        /* \"#utility.yul\":5455:5459   */\n      0x20\n        /* \"#utility.yul\":5450:5453   */\n      dup3\n        /* \"#utility.yul\":5446:5460   */\n      add\n        /* \"#utility.yul\":5438:5460   */\n      swap1\n      pop\n        /* \"#utility.yul\":5325:5467   */\n      swap2\n      swap1\n      pop\n      jump\t// out\n        /* \"#utility.yul\":5473:5632   */\n    tag_143:\n        /* \"#utility.yul\":5547:5558   */\n      0x00\n        /* \"#utility.yul\":5581:5587   */\n      dup3\n        /* \"#utility.yul\":5576:5579   */\n      dup3\n        /* \"#utility.yul\":5569:5588   */\n      mstore\n        /* \"#utility.yul\":5621:5625   */\n      0x20\n        /* \"#utility.yul\":5616:5619   */\n      dup3\n        /* \"#utility.yul\":5612:5626   */\n      add\n        /* \"#utility.yul\":5597:5626   */\n      swap1\n      pop\n        /* \"#utility.yul\":5473:5632   */\n      swap3\n      swap2\n      pop\n      pop\n      jump\t// out\n        /* \"#utility.yul\":5638:5982   */\n    tag_144:\n        /* \"#utility.yul\":5716:5719   */\n      0x00\n        /* \"#utility.yul\":5744:5783   */\n      tag_219\n        /* \"#utility.yul\":5777:5782   */\n      dup3\n        /* \"#utility.yul\":5744:5783   */\n      tag_120\n      jump\t// in\n    tag_219:\n        /* \"#utility.yul\":5799:5860   */\n      tag_220\n        /* \"#utility.yul\":5853:5859   */\n      dup2\n        /* \"#utility.yul\":5848:5851   */\n      dup6\n        /* \"#utility.yul\":5799:5860   */\n      tag_143\n      jump\t// in\n    tag_220:\n        /* \"#utility.yul\":5792:5860   */\n      swap4\n      pop\n        /* \"#utility.yul\":5869:5921   */\n      tag_221\n        /* \"#utility.yul\":5914:5920   */\n      dup2\n        /* \"#utility.yul\":5909:5912   */\n      dup6\n        /* \"#utility.yul\":5902:5906   */\n      0x20\n        /* \"#utility.yul\":5895:5900   */\n      dup7\n        /* \"#utility.yul\":5891:5907   */\n      add\n        /* \"#utility.yul\":5869:5921   */\n      tag_122\n      jump\t// in\n    tag_221:\n        /* \"#utility.yul\":5946:5975   */\n      tag_222\n        /* \"#utility.yul\":5968:5974   */\n      dup2\n        /* \"#utility.yul\":5946:5975   */\n      tag_123\n      jump\t// in\n    tag_222:\n        /* \"#utility.yul\":5941:5944   */\n      dup5\n        /* \"#utility.yul\":5937:5976   */\n      add\n        /* \"#utility.yul\":5930:5976   */\n      swap2\n      pop\n        /* \"#utility.yul\":5720:5982   */\n      pop\n        /* \"#utility.yul\":5638:5982   */\n      swap3\n      swap2\n      pop\n      pop\n      jump\t// out\n        /* \"#utility.yul\":5988:6184   */\n    tag_145:\n        /* \"#utility.yul\":6077:6087   */\n      0x00\n        /* \"#utility.yul\":6112:6178   */\n      tag_224\n        /* \"#utility.yul\":6174:6177   */\n      dup4\n        /* \"#utility.yul\":6166:6172   */\n      dup4\n        /* \"#utility.yul\":6112:6178   */\n      tag_144\n      jump\t// in\n    tag_224:\n        /* \"#utility.yul\":6098:6178   */\n      swap1\n      pop\n        /* \"#utility.yul\":5988:6184   */\n      swap3\n      swap2\n      pop\n      pop\n      jump\t// out\n        /* \"#utility.yul\":6190:6313   */\n    tag_146:\n        /* \"#utility.yul\":6270:6274   */\n      0x00\n        /* \"#utility.yul\":6302:6306   */\n      0x20\n        /* \"#utility.yul\":6297:6300   */\n      dup3\n        /* \"#utility.yul\":6293:6307   */\n      add\n        /* \"#utility.yul\":6285:6307   */\n      swap1\n      pop\n        /* \"#utility.yul\":6190:6313   */\n      swap2\n      swap1\n      pop\n      jump\t// out\n        /* \"#utility.yul\":6347:7338   */\n    tag_147:\n        /* \"#utility.yul\":6486:6489   */\n      0x00\n        /* \"#utility.yul\":6515:6579   */\n      tag_227\n        /* \"#utility.yul\":6573:6578   */\n      dup3\n        /* \"#utility.yul\":6515:6579   */\n      tag_140\n      jump\t// in\n    tag_227:\n        /* \"#utility.yul\":6595:6691   */\n      tag_228\n        /* \"#utility.yul\":6684:6690   */\n      dup2\n        /* \"#utility.yul\":6679:6682   */\n      dup6\n        /* \"#utility.yul\":6595:6691   */\n      tag_141\n      jump\t// in\n    tag_228:\n        /* \"#utility.yul\":6588:6691   */\n      swap4\n      pop\n        /* \"#utility.yul\":6717:6720   */\n      dup4\n        /* \"#utility.yul\":6762:6766   */\n      0x20\n        /* \"#utility.yul\":6754:6760   */\n      dup3\n        /* \"#utility.yul\":6750:6767   */\n      mul\n        /* \"#utility.yul\":6745:6748   */\n      dup6\n        /* \"#utility.yul\":6741:6768   */\n      add\n        /* \"#utility.yul\":6792:6858   */\n      tag_229\n        /* \"#utility.yul\":6852:6857   */\n      dup6\n        /* \"#utility.yul\":6792:6858   */\n      tag_142\n      jump\t// in\n    tag_229:\n        /* \"#utility.yul\":6881:6888   */\n      dup1\n        /* \"#utility.yul\":6912:6913   */\n      0x00\n        /* \"#utility.yul\":6897:7293   */\n    tag_230:\n        /* \"#utility.yul\":6922:6928   */\n      dup6\n        /* \"#utility.yul\":6919:6920   */\n      dup2\n        /* \"#utility.yul\":6916:6929   */\n      lt\n        /* \"#utility.yul\":6897:7293   */\n      iszero\n      tag_232\n      jumpi\n        /* \"#utility.yul\":6993:7002   */\n      dup5\n        /* \"#utility.yul\":6987:6991   */\n      dup5\n        /* \"#utility.yul\":6983:7003   */\n      sub\n        /* \"#utility.yul\":6978:6981   */\n      dup10\n        /* \"#utility.yul\":6971:7004   */\n      mstore\n        /* \"#utility.yul\":7044:7050   */\n      dup2\n        /* \"#utility.yul\":7038:7051   */\n      mload\n        /* \"#utility.yul\":7072:7156   */\n      tag_233\n        /* \"#utility.yul\":7151:7155   */\n      dup6\n        /* \"#utility.yul\":7136:7149   */\n      dup3\n        /* \"#utility.yul\":7072:7156   */\n      tag_145\n      jump\t// in\n    tag_233:\n        /* \"#utility.yul\":7064:7156   */\n      swap5\n      pop\n        /* \"#utility.yul\":7179:7249   */\n      tag_234\n        /* \"#utility.yul\":7242:7248   */\n      dup4\n        /* \"#utility.yul\":7179:7249   */\n      tag_146\n      jump\t// in\n    tag_234:\n        /* \"#utility.yul\":7169:7249   */\n      swap3\n      pop\n        /* \"#utility.yul\":7278:7282   */\n      0x20\n        /* \"#utility.yul\":7273:7276   */\n      dup11\n        /* \"#utility.yul\":7269:7283   */\n      add\n        /* \"#utility.yul\":7262:7283   */\n      swap10\n      pop\n        /* \"#utility.yul\":6957:7293   */\n      pop\n        /* \"#utility.yul\":6944:6945   */\n      0x01\n        /* \"#utility.yul\":6941:6942   */\n      dup2\n        /* \"#utility.yul\":6937:6946   */\n      add\n        /* \"#utility.yul\":6932:6946   */\n      swap1\n      pop\n        /* \"#utility.yul\":6897:7293   */\n      jump(tag_230)\n    tag_232:\n        /* \"#utility.yul\":6901:6915   */\n      pop\n        /* \"#utility.yul\":7309:7313   */\n      dup3\n        /* \"#utility.yul\":7302:7313   */\n      swap8\n      pop\n        /* \"#utility.yul\":7329:7332   */\n      dup8\n        /* \"#utility.yul\":7322:7332   */\n      swap6\n      pop\n        /* \"#utility.yul\":6491:7338   */\n      pop\n      pop\n      pop\n      pop\n      pop\n        /* \"#utility.yul\":6347:7338   */\n      swap3\n      swap2\n      pop\n      pop\n      jump\t// out\n        /* \"#utility.yul\":7344:7757   */\n    tag_36:\n        /* \"#utility.yul\":7507:7511   */\n      0x00\n        /* \"#utility.yul\":7545:7547   */\n      0x20\n        /* \"#utility.yul\":7534:7543   */\n      dup3\n        /* \"#utility.yul\":7530:7548   */\n      add\n        /* \"#utility.yul\":7522:7548   */\n      swap1\n      pop\n        /* \"#utility.yul\":7594:7603   */\n      dup2\n        /* \"#utility.yul\":7588:7592   */\n      dup2\n        /* \"#utility.yul\":7584:7604   */\n      sub\n        /* \"#utility.yul\":7580:7581   */\n      0x00\n        /* \"#utility.yul\":7569:7578   */\n      dup4\n        /* \"#utility.yul\":7565:7582   */\n      add\n        /* \"#utility.yul\":7558:7605   */\n      mstore\n        /* \"#utility.yul\":7622:7750   */\n      tag_236\n        /* \"#utility.yul\":7745:7749   */\n      dup2\n        /* \"#utility.yul\":7736:7742   */\n      dup5\n        /* \"#utility.yul\":7622:7750   */\n      tag_147\n      jump\t// in\n    tag_236:\n        /* \"#utility.yul\":7614:7750   */\n      swap1\n      pop\n        /* \"#utility.yul\":7344:7757   */\n      swap3\n      swap2\n      pop\n      pop\n      jump\t// out\n        /* \"#utility.yul\":7763:7859   */\n    tag_148:\n        /* \"#utility.yul\":7800:7807   */\n      0x00\n        /* \"#utility.yul\":7829:7853   */\n      tag_238\n        /* \"#utility.yul\":7847:7852   */\n      dup3\n        /* \"#utility.yul\":7829:7853   */\n      tag_137\n      jump\t// in\n    tag_238:\n        /* \"#utility.yul\":7818:7853   */\n      swap1\n      pop\n        /* \"#utility.yul\":7763:7859   */\n      swap2\n      swap1\n      pop\n      jump\t// out\n        /* \"#utility.yul\":7865:7987   */\n    tag_149:\n        /* \"#utility.yul\":7938:7962   */\n      tag_240\n        /* \"#utility.yul\":7956:7961   */\n      dup2\n        /* \"#utility.yul\":7938:7962   */\n      tag_148\n      jump\t// in\n    tag_240:\n        /* \"#utility.yul\":7931:7936   */\n      dup2\n        /* \"#utility.yul\":7928:7963   */\n      eq\n        /* \"#utility.yul\":7918:7981   */\n      tag_241\n      jumpi\n        /* \"#utility.yul\":7977:7978   */\n      0x00\n        /* \"#utility.yul\":7974:7975   */\n      dup1\n        /* \"#utility.yul\":7967:7979   */\n      revert\n        /* \"#utility.yul\":7918:7981   */\n    tag_241:\n        /* \"#utility.yul\":7865:7987   */\n      pop\n      jump\t// out\n        /* \"#utility.yul\":7993:8132   */\n    tag_150:\n        /* \"#utility.yul\":8039:8044   */\n      0x00\n        /* \"#utility.yul\":8077:8083   */\n      dup2\n        /* \"#utility.yul\":8064:8084   */\n      calldataload\n        /* \"#utility.yul\":8055:8084   */\n      swap1\n      pop\n        /* \"#utility.yul\":8093:8126   */\n      tag_243\n        /* \"#utility.yul\":8120:8125   */\n      dup2\n        /* \"#utility.yul\":8093:8126   */\n      tag_149\n      jump\t// in\n    tag_243:\n        /* \"#utility.yul\":7993:8132   */\n      swap3\n      swap2\n      pop\n      pop\n      jump\t// out\n        /* \"#utility.yul\":8138:8467   */\n    tag_39:\n        /* \"#utility.yul\":8197:8203   */\n      0x00\n        /* \"#utility.yul\":8246:8248   */\n      0x20\n        /* \"#utility.yul\":8234:8243   */\n      dup3\n        /* \"#utility.yul\":8225:8232   */\n      dup5\n        /* \"#utility.yul\":8221:8244   */\n      sub\n        /* \"#utility.yul\":8217:8249   */\n      slt\n        /* \"#utility.yul\":8214:8333   */\n      iszero\n      tag_245\n      jumpi\n        /* \"#utility.yul\":8252:8331   */\n      tag_246\n      tag_126\n      jump\t// in\n    tag_246:\n        /* \"#utility.yul\":8214:8333   */\n    tag_245:\n        /* \"#utility.yul\":8372:8373   */\n      0x00\n        /* \"#utility.yul\":8397:8450   */\n      tag_247\n        /* \"#utility.yul\":8442:8449   */\n      dup5\n        /* \"#utility.yul\":8433:8439   */\n      dup3\n        /* \"#utility.yul\":8422:8431   */\n      dup6\n        /* \"#utility.yul\":8418:8440   */\n      add\n        /* \"#utility.yul\":8397:8450   */\n      tag_150\n      jump\t// in\n    tag_247:\n        /* \"#utility.yul\":8387:8450   */\n      swap2\n      pop\n        /* \"#utility.yul\":8343:8460   */\n      pop\n        /* \"#utility.yul\":8138:8467   */\n      swap3\n      swap2\n      pop\n      pop\n      jump\t// out\n        /* \"#utility.yul\":8473:8563   */\n    tag_151:\n        /* \"#utility.yul\":8507:8514   */\n      0x00\n        /* \"#utility.yul\":8550:8555   */\n      dup2\n        /* \"#utility.yul\":8543:8556   */\n      iszero\n        /* \"#utility.yul\":8536:8557   */\n      iszero\n        /* \"#utility.yul\":8525:8557   */\n      swap1\n      pop\n        /* \"#utility.yul\":8473:8563   */\n      swap2\n      swap1\n      pop\n      jump\t// out\n        /* \"#utility.yul\":8569:8678   */\n    tag_152:\n        /* \"#utility.yul\":8650:8671   */\n      tag_250\n        /* \"#utility.yul\":8665:8670   */\n      dup2\n        /* \"#utility.yul\":8650:8671   */\n      tag_151\n      jump\t// in\n    tag_250:\n        /* \"#utility.yul\":8645:8648   */\n      dup3\n        /* \"#utility.yul\":8638:8672   */\n      mstore\n        /* \"#utility.yul\":8569:8678   */\n      pop\n      pop\n      jump\t// out\n        /* \"#utility.yul\":8684:9095   */\n    tag_45:\n        /* \"#utility.yul\":8819:8823   */\n      0x00\n        /* \"#utility.yul\":8857:8859   */\n      0x40\n        /* \"#utility.yul\":8846:8855   */\n      dup3\n        /* \"#utility.yul\":8842:8860   */\n      add\n        /* \"#utility.yul\":8834:8860   */\n      swap1\n      pop\n        /* \"#utility.yul\":8906:8915   */\n      dup2\n        /* \"#utility.yul\":8900:8904   */\n      dup2\n        /* \"#utility.yul\":8896:8916   */\n      sub\n        /* \"#utility.yul\":8892:8893   */\n      0x00\n        /* \"#utility.yul\":8881:8890   */\n      dup4\n        /* \"#utility.yul\":8877:8894   */\n      add\n        /* \"#utility.yul\":8870:8917   */\n      mstore\n        /* \"#utility.yul\":8934:9012   */\n      tag_252\n        /* \"#utility.yul\":9007:9011   */\n      dup2\n        /* \"#utility.yul\":8998:9004   */\n      dup6\n        /* \"#utility.yul\":8934:9012   */\n      tag_124\n      jump\t// in\n    tag_252:\n        /* \"#utility.yul\":8926:9012   */\n      swap1\n      pop\n        /* \"#utility.yul\":9022:9088   */\n      tag_253\n        /* \"#utility.yul\":9084:9086   */\n      0x20\n        /* \"#utility.yul\":9073:9082   */\n      dup4\n        /* \"#utility.yul\":9069:9087   */\n      add\n        /* \"#utility.yul\":9060:9066   */\n      dup5\n        /* \"#utility.yul\":9022:9088   */\n      tag_152\n      jump\t// in\n    tag_253:\n        /* \"#utility.yul\":8684:9095   */\n      swap4\n      swap3\n      pop\n      pop\n      pop\n      jump\t// out\n        /* \"#utility.yul\":9101:9178   */\n    tag_153:\n        /* \"#utility.yul\":9138:9145   */\n      0x00\n        /* \"#utility.yul\":9167:9172   */\n      dup2\n        /* \"#utility.yul\":9156:9172   */\n      swap1\n      pop\n        /* \"#utility.yul\":9101:9178   */\n      swap2\n      swap1\n      pop\n      jump\t// out\n        /* \"#utility.yul\":9184:9306   */\n    tag_154:\n        /* \"#utility.yul\":9257:9281   */\n      tag_256\n        /* \"#utility.yul\":9275:9280   */\n      dup2\n        /* \"#utility.yul\":9257:9281   */\n      tag_153\n      jump\t// in\n    tag_256:\n        /* \"#utility.yul\":9250:9255   */\n      dup2\n        /* \"#utility.yul\":9247:9282   */\n      eq\n        /* \"#utility.yul\":9237:9300   */\n      tag_257\n      jumpi\n        /* \"#utility.yul\":9296:9297   */\n      0x00\n        /* \"#utility.yul\":9293:9294   */\n      dup1\n        /* \"#utility.yul\":9286:9298   */\n      revert\n        /* \"#utility.yul\":9237:9300   */\n    tag_257:\n        /* \"#utility.yul\":9184:9306   */\n      pop\n      jump\t// out\n        /* \"#utility.yul\":9312:9451   */\n    tag_155:\n        /* \"#utility.yul\":9358:9363   */\n      0x00\n        /* \"#utility.yul\":9396:9402   */\n      dup2\n        /* \"#utility.yul\":9383:9403   */\n      calldataload\n        /* \"#utility.yul\":9374:9403   */\n      swap1\n      pop\n        /* \"#utility.yul\":9412:9445   */\n      tag_259\n        /* \"#utility.yul\":9439:9444   */\n      dup2\n        /* \"#utility.yul\":9412:9445   */\n      tag_154\n      jump\t// in\n    tag_259:\n        /* \"#utility.yul\":9312:9451   */\n      swap3\n      swap2\n      pop\n      pop\n      jump\t// out\n        /* \"#utility.yul\":9457:9786   */\n    tag_50:\n        /* \"#utility.yul\":9516:9522   */\n      0x00\n        /* \"#utility.yul\":9565:9567   */\n      0x20\n        /* \"#utility.yul\":9553:9562   */\n      dup3\n        /* \"#utility.yul\":9544:9551   */\n      dup5\n        /* \"#utility.yul\":9540:9563   */\n      sub\n        /* \"#utility.yul\":9536:9568   */\n      slt\n        /* \"#utility.yul\":9533:9652   */\n      iszero\n      tag_261\n      jumpi\n        /* \"#utility.yul\":9571:9650   */\n      tag_262\n      tag_126\n      jump\t// in\n    tag_262:\n        /* \"#utility.yul\":9533:9652   */\n    tag_261:\n        /* \"#utility.yul\":9691:9692   */\n      0x00\n        /* \"#utility.yul\":9716:9769   */\n      tag_263\n        /* \"#utility.yul\":9761:9768   */\n      dup5\n        /* \"#utility.yul\":9752:9758   */\n      dup3\n        /* \"#utility.yul\":9741:9750   */\n      dup6\n        /* \"#utility.yul\":9737:9759   */\n      add\n        /* \"#utility.yul\":9716:9769   */\n      tag_155\n      jump\t// in\n    tag_263:\n        /* \"#utility.yul\":9706:9769   */\n      swap2\n      pop\n        /* \"#utility.yul\":9662:9779   */\n      pop\n        /* \"#utility.yul\":9457:9786   */\n      swap3\n      swap2\n      pop\n      pop\n      jump\t// out\n        /* \"#utility.yul\":9792:10002   */\n    tag_56:\n        /* \"#utility.yul\":9879:9883   */\n      0x00\n        /* \"#utility.yul\":9917:9919   */\n      0x20\n        /* \"#utility.yul\":9906:9915   */\n      dup3\n        /* \"#utility.yul\":9902:9920   */\n      add\n        /* \"#utility.yul\":9894:9920   */\n      swap1\n      pop\n        /* \"#utility.yul\":9930:9995   */\n      tag_265\n        /* \"#utility.yul\":9992:9993   */\n      0x00\n        /* \"#utility.yul\":9981:9990   */\n      dup4\n        /* \"#utility.yul\":9977:9994   */\n      add\n        /* \"#utility.yul\":9968:9974   */\n      dup5\n        /* \"#utility.yul\":9930:9995   */\n      tag_152\n      jump\t// in\n    tag_265:\n        /* \"#utility.yul\":9792:10002   */\n      swap3\n      swap2\n      pop\n      pop\n      jump\t// out\n        /* \"#utility.yul\":10008:10188   */\n    tag_156:\n        /* \"#utility.yul\":10056:10133   */\n      0x4e487b7100000000000000000000000000000000000000000000000000000000\n        /* \"#utility.yul\":10053:10054   */\n      0x00\n        /* \"#utility.yul\":10046:10134   */\n      mstore\n        /* \"#utility.yul\":10153:10157   */\n      0x22\n        /* \"#utility.yul\":10150:10151   */\n      0x04\n        /* \"#utility.yul\":10143:10158   */\n      mstore\n        /* \"#utility.yul\":10177:10181   */\n      0x24\n        /* \"#utility.yul\":10174:10175   */\n      0x00\n        /* \"#utility.yul\":10167:10182   */\n      revert\n        /* \"#utility.yul\":10194:10514   */\n    tag_61:\n        /* \"#utility.yul\":10238:10244   */\n      0x00\n        /* \"#utility.yul\":10275:10276   */\n      0x02\n        /* \"#utility.yul\":10269:10273   */\n      dup3\n        /* \"#utility.yul\":10265:10277   */\n      div\n        /* \"#utility.yul\":10255:10277   */\n      swap1\n      pop\n        /* \"#utility.yul\":10322:10323   */\n      0x01\n        /* \"#utility.yul\":10316:10320   */\n      dup3\n        /* \"#utility.yul\":10312:10324   */\n      and\n        /* \"#utility.yul\":10343:10361   */\n      dup1\n        /* \"#utility.yul\":10333:10414   */\n      tag_268\n      jumpi\n        /* \"#utility.yul\":10399:10403   */\n      0x7f\n        /* \"#utility.yul\":10391:10397   */\n      dup3\n        /* \"#utility.yul\":10387:10404   */\n      and\n        /* \"#utility.yul\":10377:10404   */\n      swap2\n      pop\n        /* \"#utility.yul\":10333:10414   */\n    tag_268:\n        /* \"#utility.yul\":10461:10463   */\n      0x20\n        /* \"#utility.yul\":10453:10459   */\n      dup3\n        /* \"#utility.yul\":10450:10464   */\n      lt\n        /* \"#utility.yul\":10430:10448   */\n      dup2\n        /* \"#utility.yul\":10427:10465   */\n      sub\n        /* \"#utility.yul\":10424:10508   */\n      tag_269\n      jumpi\n        /* \"#utility.yul\":10480:10498   */\n      tag_270\n      tag_156\n      jump\t// in\n    tag_270:\n        /* \"#utility.yul\":10424:10508   */\n    tag_269:\n        /* \"#utility.yul\":10245:10514   */\n      pop\n        /* \"#utility.yul\":10194:10514   */\n      swap2\n      swap1\n      pop\n      jump\t// out\n\n    auxdata: 0xa2646970667358221220b7c005196c3df4f48666de386e8921977d1d2ad2c603a623e136598c158f1a3a64736f6c634300080e0033\n}\n","bytecode":{"linkReferences":{},"object":"60806040526040516200163c3803806200163c83398181016040528101906200002991906200055c565b806000806101000a81548173ffffffffffffffffffffffffffffffffffffffff021916908373ffffffffffffffffffffffffffffffffffffffff160217905550836001908051906020019062000081929190620000d9565b5082600290805190602001906200009a929190620000d9565b508160039080519060200190620000b39291906200016a565b506000600460146101000a81548160ff021916908315150217905550505050506200068f565b828054620000e7906200065a565b90600052602060002090601f0160209004810192826200010b576000855562000157565b82601f106200012657805160ff191683800117855562000157565b8280016001018555821562000157579182015b828111156200015657825182559160200191906001019062000139565b5b509050620001669190620001d1565b5090565b828054828255906000526020600020908101928215620001be579160200282015b82811115620001bd578251829080519060200190620001ac929190620000d9565b50916020019190600101906200018b565b5b509050620001cd9190620001f0565b5090565b5b80821115620001ec576000816000905550600101620001d2565b5090565b5b808211156200021457600081816200020a919062000218565b50600101620001f1565b5090565b50805462000226906200065a565b6000825580601f106200023a57506200025b565b601f0160209004906000526020600020908101906200025a9190620001d1565b5b50565b6000604051905090565b600080fd5b600080fd5b600080fd5b600080fd5b6000601f19601f8301169050919050565b7f4e487b7100000000000000000000000000000000000000000000000000000000600052604160045260246000fd5b620002c7826200027c565b810181811067ffffffffffffffff82111715620002e957620002e86200028d565b5b80604052505050565b6000620002fe6200025e565b90506200030c8282620002bc565b919050565b600067ffffffffffffffff8211156200032f576200032e6200028d565b5b6200033a826200027c565b9050602081019050919050565b60005b83811015620003675780820151818401526020810190506200034a565b8381111562000377576000848401525b50505050565b6000620003946200038e8462000311565b620002f2565b905082815260208101848484011115620003b357620003b262000277565b5b620003c084828562000347565b509392505050565b600082601f830112620003e057620003df62000272565b5b8151620003f28482602086016200037d565b91505092915050565b600067ffffffffffffffff8211156200041957620004186200028d565b5b602082029050602081019050919050565b600080fd5b6000620004466200044084620003fb565b620002f2565b905080838252602082019050602084028301858111156200046c576200046b6200042a565b5b835b81811015620004ba57805167ffffffffffffffff81111562000495576200049462000272565b5b808601620004a48982620003c8565b855260208501945050506020810190506200046e565b5050509392505050565b600082601f830112620004dc57620004db62000272565b5b8151620004ee8482602086016200042f565b91505092915050565b600073ffffffffffffffffffffffffffffffffffffffff82169050919050565b60006200052482620004f7565b9050919050565b620005368162000517565b81146200054257600080fd5b50565b60008151905062000556816200052b565b92915050565b6000806000806080858703121562000579576200057862000268565b5b600085015167ffffffffffffffff8111156200059a57620005996200026d565b5b620005a887828801620003c8565b945050602085015167ffffffffffffffff811115620005cc57620005cb6200026d565b5b620005da87828801620003c8565b935050604085015167ffffffffffffffff811115620005fe57620005fd6200026d565b5b6200060c87828801620004c4565b92505060606200061f8782880162000545565b91505092959194509250565b7f4e487b7100000000000000000000000000000000000000000000000000000000600052602260045260246000fd5b600060028204905060018216806200067357607f821691505b6020821081036200068957620006886200062b565b5b50919050565b610f9d806200069f6000396000f3fe608060405234801561001057600080fd5b50600436106100b35760003560e01c80635f51c765116100715780635f51c7651461015657806374adad1d14610172578063a20fca5a146101a3578063af84a013146101ad578063fa391c64146101dd578063fbc03a1e146101fb576100b3565b80621aea77146100b8578063231e407a146100d657806331c3a6f5146100e0578063481c6a75146100fc5780634d547ada1461011a5780635e1c732214610138575b600080fd5b6100c0610219565b6040516100cd9190610a95565b60405180910390f35b6100de6102a7565b005b6100fa60048036038101906100f59190610c00565b6103c3565b005b61010461045d565b6040516101119190610c8a565b60405180910390f35b610122610481565b60405161012f9190610c8a565b60405180910390f35b6101406104a7565b60405161014d9190610db1565b60405180910390f35b610170600480360381019061016b9190610e11565b610580565b005b61018c60048036038101906101879190610e11565b610675565b60405161019a929190610e59565b60405180910390f35b6101ab61072e565b005b6101c760048036038101906101c29190610ebf565b61080c565b6040516101d49190610a95565b60405180910390f35b6101e56108b8565b6040516101f29190610eec565b60405180910390f35b6102036108cb565b6040516102109190610a95565b60405180910390f35b6001805461022690610f36565b80601f016020809104026020016040519081016040528092919081815260200182805461025290610f36565b801561029f5780601f106102745761010080835404028352916020019161029f565b820191906000526020600020905b81548152906001019060200180831161028257829003601f168201915b505050505081565b60008054906101000a900473ffffffffffffffffffffffffffffffffffffffff1673ffffffffffffffffffffffffffffffffffffffff163373ffffffffffffffffffffffffffffffffffffffff16146102ff57600080fd5b600073ffffffffffffffffffffffffffffffffffffffff16600460009054906101000a900473ffffffffffffffffffffffffffffffffffffffff1673ffffffffffffffffffffffffffffffffffffffff161461035a57600080fd5b60008054906101000a900473ffffffffffffffffffffffffffffffffffffffff1673ffffffffffffffffffffffffffffffffffffffff166108fc479081150290604051600060405180830381858888f193505050501580156103c0573d6000803e3d6000fd5b50565b604051806040016040528082815260200160011515815250600560003373ffffffffffffffffffffffffffffffffffffffff1673ffffffffffffffffffffffffffffffffffffffff1681526020019081526020016000206000820151816000019080519060200190610436929190610959565b5060208201518160010160006101000a81548160ff02191690831515021790555090505050565b60008054906101000a900473ffffffffffffffffffffffffffffffffffffffff1681565b600460009054906101000a900473ffffffffffffffffffffffffffffffffffffffff1681565b60606003805480602002602001604051908101604052809291908181526020016000905b828210156105775783829060005260206000200180546104ea90610f36565b80601f016020809104026020016040519081016040528092919081815260200182805461051690610f36565b80156105635780601f1061053857610100808354040283529160200191610563565b820191906000526020600020905b81548152906001019060200180831161054657829003601f168201915b5050505050815260200190600101906104cb565b50505050905090565b60008054906101000a900473ffffffffffffffffffffffffffffffffffffffff1673ffffffffffffffffffffffffffffffffffffffff163373ffffffffffffffffffffffffffffffffffffffff16146105d857600080fd5b600560008273ffffffffffffffffffffffffffffffffffffffff1673ffffffffffffffffffffffffffffffffffffffff16815260200190815260200160002060010160009054906101000a900460ff1661063157600080fd5b80600460006101000a81548173ffffffffffffffffffffffffffffffffffffffff021916908373ffffffffffffffffffffffffffffffffffffffff16021790555050565b600560205280600052604060002060009150905080600001805461069890610f36565b80601f01602080910402602001604051908101604052809291908181526020018280546106c490610f36565b80156107115780601f106106e657610100808354040283529160200191610711565b820191906000526020600020905b8154815290600101906020018083116106f457829003601f168201915b5050505050908060010160009054906101000a900460ff16905082565b60008054906101000a900473ffffffffffffffffffffffffffffffffffffffff1673ffffffffffffffffffffffffffffffffffffffff163373ffffffffffffffffffffffffffffffffffffffff161461078657600080fd5b600460009054906101000a900473ffffffffffffffffffffffffffffffffffffffff1673ffffffffffffffffffffffffffffffffffffffff166108fc479081150290604051600060405180830381858888f193505050501580156107ee573d6000803e3d6000fd5b506001600460146101000a81548160ff021916908315150217905550565b6003818154811061081c57600080fd5b90600052602060002001600091509050805461083790610f36565b80601f016020809104026020016040519081016040528092919081815260200182805461086390610f36565b80156108b05780601f10610885576101008083540402835291602001916108b0565b820191906000526020600020905b81548152906001019060200180831161089357829003601f168201915b505050505081565b600460149054906101000a900460ff1681565b600280546108d890610f36565b80601f016020809104026020016040519081016040528092919081815260200182805461090490610f36565b80156109515780601f1061092657610100808354040283529160200191610951565b820191906000526020600020905b81548152906001019060200180831161093457829003601f168201915b505050505081565b82805461096590610f36565b90600052602060002090601f01602090048101928261098757600085556109ce565b82601f106109a057805160ff19168380011785556109ce565b828001600101855582156109ce579182015b828111156109cd5782518255916020019190600101906109b2565b5b5090506109db91906109df565b5090565b5b808211156109f85760008160009055506001016109e0565b5090565b600081519050919050565b600082825260208201905092915050565b60005b83811015610a36578082015181840152602081019050610a1b565b83811115610a45576000848401525b50505050565b6000601f19601f8301169050919050565b6000610a67826109fc565b610a718185610a07565b9350610a81818560208601610a18565b610a8a81610a4b565b840191505092915050565b60006020820190508181036000830152610aaf8184610a5c565b905092915050565b6000604051905090565b600080fd5b600080fd5b600080fd5b600080fd5b7f4e487b7100000000000000000000000000000000000000000000000000000000600052604160045260246000fd5b610b0d82610a4b565b810181811067ffffffffffffffff82111715610b2c57610b2b610ad5565b5b80604052505050565b6000610b3f610ab7565b9050610b4b8282610b04565b919050565b600067ffffffffffffffff821115610b6b57610b6a610ad5565b5b610b7482610a4b565b9050602081019050919050565b82818337600083830152505050565b6000610ba3610b9e84610b50565b610b35565b905082815260208101848484011115610bbf57610bbe610ad0565b5b610bca848285610b81565b509392505050565b600082601f830112610be757610be6610acb565b5b8135610bf7848260208601610b90565b91505092915050565b600060208284031215610c1657610c15610ac1565b5b600082013567ffffffffffffffff811115610c3457610c33610ac6565b5b610c4084828501610bd2565b91505092915050565b600073ffffffffffffffffffffffffffffffffffffffff82169050919050565b6000610c7482610c49565b9050919050565b610c8481610c69565b82525050565b6000602082019050610c9f6000830184610c7b565b92915050565b600081519050919050565b600082825260208201905092915050565b6000819050602082019050919050565b600082825260208201905092915050565b6000610ced826109fc565b610cf78185610cd1565b9350610d07818560208601610a18565b610d1081610a4b565b840191505092915050565b6000610d278383610ce2565b905092915050565b6000602082019050919050565b6000610d4782610ca5565b610d518185610cb0565b935083602082028501610d6385610cc1565b8060005b85811015610d9f5784840389528151610d808582610d1b565b9450610d8b83610d2f565b925060208a01995050600181019050610d67565b50829750879550505050505092915050565b60006020820190508181036000830152610dcb8184610d3c565b905092915050565b6000610dde82610c49565b9050919050565b610dee81610dd3565b8114610df957600080fd5b50565b600081359050610e0b81610de5565b92915050565b600060208284031215610e2757610e26610ac1565b5b6000610e3584828501610dfc565b91505092915050565b60008115159050919050565b610e5381610e3e565b82525050565b60006040820190508181036000830152610e738185610a5c565b9050610e826020830184610e4a565b9392505050565b6000819050919050565b610e9c81610e89565b8114610ea757600080fd5b50565b600081359050610eb981610e93565b92915050565b600060208284031215610ed557610ed4610ac1565b5b6000610ee384828501610eaa565b91505092915050565b6000602082019050610f016000830184610e4a565b92915050565b7f4e487b7100000000000000000000000000000000000000000000000000000000600052602260045260246000fd5b60006002820490506001821680610f4e57607f821691505b602082108103610f6157610f60610f07565b5b5091905056fea2646970667358221220b7c005196c3df4f48666de386e8921977d1d2ad2c603a623e136598c158f1a3a64736f6c634300080e0033","opcodes":"PUSH1 0x80 PUSH1 0x40 MSTORE PUSH1 0x40 MLOAD PUSH3 0x163C CODESIZE SUB DUP1 PUSH3 0x163C DUP4 CODECOPY DUP2 DUP2 ADD PUSH1 0x40 MSTORE DUP2 ADD SWAP1 PUSH3 0x29 SWAP2 SWAP1 PUSH3 0x55C JUMP JUMPDEST DUP1 PUSH1 0x0 DUP1 PUSH2 0x100 EXP DUP2 SLOAD DUP2 PUSH20 0xFFFFFFFFFFFFFFFFFFFFFFFFFFFFFFFFFFFFFFFF MUL NOT AND SWAP1 DUP4 PUSH20 0xFFFFFFFFFFFFFFFFFFFFFFFFFFFFFFFFFFFFFFFF AND MUL OR SWAP1 SSTORE POP DUP4 PUSH1 0x1 SWAP1 DUP1 MLOAD SWAP1 PUSH1 0x20 ADD SWAP1 PUSH3 0x81 SWAP3 SWAP2 SWAP1 PUSH3 0xD9 JUMP JUMPDEST POP DUP3 PUSH1 0x2 SWAP1 DUP1 MLOAD SWAP1 PUSH1 0x20 ADD SWAP1 PUSH3 0x9A SWAP3 SWAP2 SWAP1 PUSH3 0xD9 JUMP JUMPDEST POP DUP2 PUSH1 0x3 SWAP1 DUP1 MLOAD SWAP1 PUSH1 0x20 ADD SWAP1 PUSH3 0xB3 SWAP3 SWAP2 SWAP1 PUSH3 0x16A JUMP JUMPDEST POP PUSH1 0x0 PUSH1 0x4 PUSH1 0x14 PUSH2 0x100 EXP DUP2 SLOAD DUP2 PUSH1 0xFF MUL NOT AND SWAP1 DUP4 ISZERO ISZERO MUL OR SWAP1 SSTORE POP POP POP POP POP PUSH3 0x68F JUMP JUMPDEST DUP3 DUP1 SLOAD PUSH3 0xE7 SWAP1 PUSH3 0x65A JUMP JUMPDEST SWAP1 PUSH1 0x0 MSTORE PUSH1 0x20 PUSH1 0x0 KECCAK256 SWAP1 PUSH1 0x1F ADD PUSH1 0x20 SWAP1 DIV DUP2 ADD SWAP3 DUP3 PUSH3 0x10B JUMPI PUSH1 0x0 DUP6 SSTORE PUSH3 0x157 JUMP JUMPDEST DUP3 PUSH1 0x1F LT PUSH3 0x126 JUMPI DUP1 MLOAD PUSH1 0xFF NOT AND DUP4 DUP1 ADD OR DUP6 SSTORE PUSH3 0x157 JUMP JUMPDEST DUP3 DUP1 ADD PUSH1 0x1 ADD DUP6 SSTORE DUP3 ISZERO PUSH3 0x157 JUMPI SWAP2 DUP3 ADD JUMPDEST DUP3 DUP2 GT ISZERO PUSH3 0x156 JUMPI DUP3 MLOAD DUP3 SSTORE SWAP2 PUSH1 0x20 ADD SWAP2 SWAP1 PUSH1 0x1 ADD SWAP1 PUSH3 0x139 JUMP JUMPDEST JUMPDEST POP SWAP1 POP PUSH3 0x166 SWAP2 SWAP1 PUSH3 0x1D1 JUMP JUMPDEST POP SWAP1 JUMP JUMPDEST DUP3 DUP1 SLOAD DUP3 DUP3 SSTORE SWAP1 PUSH1 0x0 MSTORE PUSH1 0x20 PUSH1 0x0 KECCAK256 SWAP1 DUP2 ADD SWAP3 DUP3 ISZERO PUSH3 0x1BE JUMPI SWAP2 PUSH1 0x20 MUL DUP3 ADD JUMPDEST DUP3 DUP2 GT ISZERO PUSH3 0x1BD JUMPI DUP3 MLOAD DUP3 SWAP1 DUP1 MLOAD SWAP1 PUSH1 0x20 ADD SWAP1 PUSH3 0x1AC SWAP3 SWAP2 SWAP1 PUSH3 0xD9 JUMP JUMPDEST POP SWAP2 PUSH1 0x20 ADD SWAP2 SWAP1 PUSH1 0x1 ADD SWAP1 PUSH3 0x18B JUMP JUMPDEST JUMPDEST POP SWAP1 POP PUSH3 0x1CD SWAP2 SWAP1 PUSH3 0x1F0 JUMP JUMPDEST POP SWAP1 JUMP JUMPDEST JUMPDEST DUP1 DUP3 GT ISZERO PUSH3 0x1EC JUMPI PUSH1 0x0 DUP2 PUSH1 0x0 SWAP1 SSTORE POP PUSH1 0x1 ADD PUSH3 0x1D2 JUMP JUMPDEST POP SWAP1 JUMP JUMPDEST JUMPDEST DUP1 DUP3 GT ISZERO PUSH3 0x214 JUMPI PUSH1 0x0 DUP2 DUP2 PUSH3 0x20A SWAP2 SWAP1 PUSH3 0x218 JUMP JUMPDEST POP PUSH1 0x1 ADD PUSH3 0x1F1 JUMP JUMPDEST POP SWAP1 JUMP JUMPDEST POP DUP1 SLOAD PUSH3 0x226 SWAP1 PUSH3 0x65A JUMP JUMPDEST PUSH1 0x0 DUP3 SSTORE DUP1 PUSH1 0x1F LT PUSH3 0x23A JUMPI POP PUSH3 0x25B JUMP JUMPDEST PUSH1 0x1F ADD PUSH1 0x20 SWAP1 DIV SWAP1 PUSH1 0x0 MSTORE PUSH1 0x20 PUSH1 0x0 KECCAK256 SWAP1 DUP2 ADD SWAP1 PUSH3 0x25A SWAP2 SWAP1 PUSH3 0x1D1 JUMP JUMPDEST JUMPDEST POP JUMP JUMPDEST PUSH1 0x0 PUSH1 0x40 MLOAD SWAP1 POP SWAP1 JUMP JUMPDEST PUSH1 0x0 DUP1 REVERT JUMPDEST PUSH1 0x0 DUP1 REVERT JUMPDEST PUSH1 0x0 DUP1 REVERT JUMPDEST PUSH1 0x0 DUP1 REVERT JUMPDEST PUSH1 0x0 PUSH1 0x1F NOT PUSH1 0x1F DUP4 ADD AND SWAP1 POP SWAP2 SWAP1 POP JUMP JUMPDEST PUSH32 0x4E487B7100000000000000000000000000000000000000000000000000000000 PUSH1 0x0 MSTORE PUSH1 0x41 PUSH1 0x4 MSTORE PUSH1 0x24 PUSH1 0x0 REVERT JUMPDEST PUSH3 0x2C7 DUP3 PUSH3 0x27C JUMP JUMPDEST DUP2 ADD DUP2 DUP2 LT PUSH8 0xFFFFFFFFFFFFFFFF DUP3 GT OR ISZERO PUSH3 0x2E9 JUMPI PUSH3 0x2E8 PUSH3 0x28D JUMP JUMPDEST JUMPDEST DUP1 PUSH1 0x40 MSTORE POP POP POP JUMP JUMPDEST PUSH1 0x0 PUSH3 0x2FE PUSH3 0x25E JUMP JUMPDEST SWAP1 POP PUSH3 0x30C DUP3 DUP3 PUSH3 0x2BC JUMP JUMPDEST SWAP2 SWAP1 POP JUMP JUMPDEST PUSH1 0x0 PUSH8 0xFFFFFFFFFFFFFFFF DUP3 GT ISZERO PUSH3 0x32F JUMPI PUSH3 0x32E PUSH3 0x28D JUMP JUMPDEST JUMPDEST PUSH3 0x33A DUP3 PUSH3 0x27C JUMP JUMPDEST SWAP1 POP PUSH1 0x20 DUP2 ADD SWAP1 POP SWAP2 SWAP1 POP JUMP JUMPDEST PUSH1 0x0 JUMPDEST DUP4 DUP2 LT ISZERO PUSH3 0x367 JUMPI DUP1 DUP3 ADD MLOAD DUP2 DUP5 ADD MSTORE PUSH1 0x20 DUP2 ADD SWAP1 POP PUSH3 0x34A JUMP JUMPDEST DUP4 DUP2 GT ISZERO PUSH3 0x377 JUMPI PUSH1 0x0 DUP5 DUP5 ADD MSTORE JUMPDEST POP POP POP POP JUMP JUMPDEST PUSH1 0x0 PUSH3 0x394 PUSH3 0x38E DUP5 PUSH3 0x311 JUMP JUMPDEST PUSH3 0x2F2 JUMP JUMPDEST SWAP1 POP DUP3 DUP2 MSTORE PUSH1 0x20 DUP2 ADD DUP5 DUP5 DUP5 ADD GT ISZERO PUSH3 0x3B3 JUMPI PUSH3 0x3B2 PUSH3 0x277 JUMP JUMPDEST JUMPDEST PUSH3 0x3C0 DUP5 DUP3 DUP6 PUSH3 0x347 JUMP JUMPDEST POP SWAP4 SWAP3 POP POP POP JUMP JUMPDEST PUSH1 0x0 DUP3 PUSH1 0x1F DUP4 ADD SLT PUSH3 0x3E0 JUMPI PUSH3 0x3DF PUSH3 0x272 JUMP JUMPDEST JUMPDEST DUP2 MLOAD PUSH3 0x3F2 DUP5 DUP3 PUSH1 0x20 DUP7 ADD PUSH3 0x37D JUMP JUMPDEST SWAP2 POP POP SWAP3 SWAP2 POP POP JUMP JUMPDEST PUSH1 0x0 PUSH8 0xFFFFFFFFFFFFFFFF DUP3 GT ISZERO PUSH3 0x419 JUMPI PUSH3 0x418 PUSH3 0x28D JUMP JUMPDEST JUMPDEST PUSH1 0x20 DUP3 MUL SWAP1 POP PUSH1 0x20 DUP2 ADD SWAP1 POP SWAP2 SWAP1 POP JUMP JUMPDEST PUSH1 0x0 DUP1 REVERT JUMPDEST PUSH1 0x0 PUSH3 0x446 PUSH3 0x440 DUP5 PUSH3 0x3FB JUMP JUMPDEST PUSH3 0x2F2 JUMP JUMPDEST SWAP1 POP DUP1 DUP4 DUP3 MSTORE PUSH1 0x20 DUP3 ADD SWAP1 POP PUSH1 0x20 DUP5 MUL DUP4 ADD DUP6 DUP2 GT ISZERO PUSH3 0x46C JUMPI PUSH3 0x46B PUSH3 0x42A JUMP JUMPDEST JUMPDEST DUP4 JUMPDEST DUP2 DUP2 LT ISZERO PUSH3 0x4BA JUMPI DUP1 MLOAD PUSH8 0xFFFFFFFFFFFFFFFF DUP2 GT ISZERO PUSH3 0x495 JUMPI PUSH3 0x494 PUSH3 0x272 JUMP JUMPDEST JUMPDEST DUP1 DUP7 ADD PUSH3 0x4A4 DUP10 DUP3 PUSH3 0x3C8 JUMP JUMPDEST DUP6 MSTORE PUSH1 0x20 DUP6 ADD SWAP5 POP POP POP PUSH1 0x20 DUP2 ADD SWAP1 POP PUSH3 0x46E JUMP JUMPDEST POP POP POP SWAP4 SWAP3 POP POP POP JUMP JUMPDEST PUSH1 0x0 DUP3 PUSH1 0x1F DUP4 ADD SLT PUSH3 0x4DC JUMPI PUSH3 0x4DB PUSH3 0x272 JUMP JUMPDEST JUMPDEST DUP2 MLOAD PUSH3 0x4EE DUP5 DUP3 PUSH1 0x20 DUP7 ADD PUSH3 0x42F JUMP JUMPDEST SWAP2 POP POP SWAP3 SWAP2 POP POP JUMP JUMPDEST PUSH1 0x0 PUSH20 0xFFFFFFFFFFFFFFFFFFFFFFFFFFFFFFFFFFFFFFFF DUP3 AND SWAP1 POP SWAP2 SWAP1 POP JUMP JUMPDEST PUSH1 0x0 PUSH3 0x524 DUP3 PUSH3 0x4F7 JUMP JUMPDEST SWAP1 POP SWAP2 SWAP1 POP JUMP JUMPDEST PUSH3 0x536 DUP2 PUSH3 0x517 JUMP JUMPDEST DUP2 EQ PUSH3 0x542 JUMPI PUSH1 0x0 DUP1 REVERT JUMPDEST POP JUMP JUMPDEST PUSH1 0x0 DUP2 MLOAD SWAP1 POP PUSH3 0x556 DUP2 PUSH3 0x52B JUMP JUMPDEST SWAP3 SWAP2 POP POP JUMP JUMPDEST PUSH1 0x0 DUP1 PUSH1 0x0 DUP1 PUSH1 0x80 DUP6 DUP8 SUB SLT ISZERO PUSH3 0x579 JUMPI PUSH3 0x578 PUSH3 0x268 JUMP JUMPDEST JUMPDEST PUSH1 0x0 DUP6 ADD MLOAD PUSH8 0xFFFFFFFFFFFFFFFF DUP2 GT ISZERO PUSH3 0x59A JUMPI PUSH3 0x599 PUSH3 0x26D JUMP JUMPDEST JUMPDEST PUSH3 0x5A8 DUP8 DUP3 DUP9 ADD PUSH3 0x3C8 JUMP JUMPDEST SWAP5 POP POP PUSH1 0x20 DUP6 ADD MLOAD PUSH8 0xFFFFFFFFFFFFFFFF DUP2 GT ISZERO PUSH3 0x5CC JUMPI PUSH3 0x5CB PUSH3 0x26D JUMP JUMPDEST JUMPDEST PUSH3 0x5DA DUP8 DUP3 DUP9 ADD PUSH3 0x3C8 JUMP JUMPDEST SWAP4 POP POP PUSH1 0x40 DUP6 ADD MLOAD PUSH8 0xFFFFFFFFFFFFFFFF DUP2 GT ISZERO PUSH3 0x5FE JUMPI PUSH3 0x5FD PUSH3 0x26D JUMP JUMPDEST JUMPDEST PUSH3 0x60C DUP8 DUP3 DUP9 ADD PUSH3 0x4C4 JUMP JUMPDEST SWAP3 POP POP PUSH1 0x60 PUSH3 0x61F DUP8 DUP3 DUP9 ADD PUSH3 0x545 JUMP JUMPDEST SWAP2 POP POP SWAP3 SWAP6 SWAP2 SWAP5 POP SWAP3 POP JUMP JUMPDEST PUSH32 0x4E487B7100000000000000000000000000000000000000000000000000000000 PUSH1 0x0 MSTORE PUSH1 0x22 PUSH1 0x4 MSTORE PUSH1 0x24 PUSH1 0x0 REVERT JUMPDEST PUSH1 0x0 PUSH1 0x2 DUP3 DIV SWAP1 POP PUSH1 0x1 DUP3 AND DUP1 PUSH3 0x673 JUMPI PUSH1 0x7F DUP3 AND SWAP2 POP JUMPDEST PUSH1 0x20 DUP3 LT DUP2 SUB PUSH3 0x689 JUMPI PUSH3 0x688 PUSH3 0x62B JUMP JUMPDEST JUMPDEST POP SWAP2 SWAP1 POP JUMP JUMPDEST PUSH2 0xF9D DUP1 PUSH3 0x69F PUSH1 0x0 CODECOPY PUSH1 0x0 RETURN INVALID PUSH1 0x80 PUSH1 0x40 MSTORE CALLVALUE DUP1 ISZERO PUSH2 0x10 JUMPI PUSH1 0x0 DUP1 REVERT JUMPDEST POP PUSH1 0x4 CALLDATASIZE LT PUSH2 0xB3 JUMPI PUSH1 0x0 CALLDATALOAD PUSH1 0xE0 SHR DUP1 PUSH4 0x5F51C765 GT PUSH2 0x71 JUMPI DUP1 PUSH4 0x5F51C765 EQ PUSH2 0x156 JUMPI DUP1 PUSH4 0x74ADAD1D EQ PUSH2 0x172 JUMPI DUP1 PUSH4 0xA20FCA5A EQ PUSH2 0x1A3 JUMPI DUP1 PUSH4 0xAF84A013 EQ PUSH2 0x1AD JUMPI DUP1 PUSH4 0xFA391C64 EQ PUSH2 0x1DD JUMPI DUP1 PUSH4 0xFBC03A1E EQ PUSH2 0x1FB JUMPI PUSH2 0xB3 JUMP JUMPDEST DUP1 PUSH3 0x1AEA77 EQ PUSH2 0xB8 JUMPI DUP1 PUSH4 0x231E407A EQ PUSH2 0xD6 JUMPI DUP1 PUSH4 0x31C3A6F5 EQ PUSH2 0xE0 JUMPI DUP1 PUSH4 0x481C6A75 EQ PUSH2 0xFC JUMPI DUP1 PUSH4 0x4D547ADA EQ PUSH2 0x11A JUMPI DUP1 PUSH4 0x5E1C7322 EQ PUSH2 0x138 JUMPI JUMPDEST PUSH1 0x0 DUP1 REVERT JUMPDEST PUSH2 0xC0 PUSH2 0x219 JUMP JUMPDEST PUSH1 0x40 MLOAD PUSH2 0xCD SWAP2 SWAP1 PUSH2 0xA95 JUMP JUMPDEST PUSH1 0x40 MLOAD DUP1 SWAP2 SUB SWAP1 RETURN JUMPDEST PUSH2 0xDE PUSH2 0x2A7 JUMP JUMPDEST STOP JUMPDEST PUSH2 0xFA PUSH1 0x4 DUP1 CALLDATASIZE SUB DUP2 ADD SWAP1 PUSH2 0xF5 SWAP2 SWAP1 PUSH2 0xC00 JUMP JUMPDEST PUSH2 0x3C3 JUMP JUMPDEST STOP JUMPDEST PUSH2 0x104 PUSH2 0x45D JUMP JUMPDEST PUSH1 0x40 MLOAD PUSH2 0x111 SWAP2 SWAP1 PUSH2 0xC8A JUMP JUMPDEST PUSH1 0x40 MLOAD DUP1 SWAP2 SUB SWAP1 RETURN JUMPDEST PUSH2 0x122 PUSH2 0x481 JUMP JUMPDEST PUSH1 0x40 MLOAD PUSH2 0x12F SWAP2 SWAP1 PUSH2 0xC8A JUMP JUMPDEST PUSH1 0x40 MLOAD DUP1 SWAP2 SUB SWAP1 RETURN JUMPDEST PUSH2 0x140 PUSH2 0x4A7 JUMP JUMPDEST PUSH1 0x40 MLOAD PUSH2 0x14D SWAP2 SWAP1 PUSH2 0xDB1 JUMP JUMPDEST PUSH1 0x40 MLOAD DUP1 SWAP2 SUB SWAP1 RETURN JUMPDEST PUSH2 0x170 PUSH1 0x4 DUP1 CALLDATASIZE SUB DUP2 ADD SWAP1 PUSH2 0x16B SWAP2 SWAP1 PUSH2 0xE11 JUMP JUMPDEST PUSH2 0x580 JUMP JUMPDEST STOP JUMPDEST PUSH2 0x18C PUSH1 0x4 DUP1 CALLDATASIZE SUB DUP2 ADD SWAP1 PUSH2 0x187 SWAP2 SWAP1 PUSH2 0xE11 JUMP JUMPDEST PUSH2 0x675 JUMP JUMPDEST PUSH1 0x40 MLOAD PUSH2 0x19A SWAP3 SWAP2 SWAP1 PUSH2 0xE59 JUMP JUMPDEST PUSH1 0x40 MLOAD DUP1 SWAP2 SUB SWAP1 RETURN JUMPDEST PUSH2 0x1AB PUSH2 0x72E JUMP JUMPDEST STOP JUMPDEST PUSH2 0x1C7 PUSH1 0x4 DUP1 CALLDATASIZE SUB DUP2 ADD SWAP1 PUSH2 0x1C2 SWAP2 SWAP1 PUSH2 0xEBF JUMP JUMPDEST PUSH2 0x80C JUMP JUMPDEST PUSH1 0x40 MLOAD PUSH2 0x1D4 SWAP2 SWAP1 PUSH2 0xA95 JUMP JUMPDEST PUSH1 0x40 MLOAD DUP1 SWAP2 SUB SWAP1 RETURN JUMPDEST PUSH2 0x1E5 PUSH2 0x8B8 JUMP JUMPDEST PUSH1 0x40 MLOAD PUSH2 0x1F2 SWAP2 SWAP1 PUSH2 0xEEC JUMP JUMPDEST PUSH1 0x40 MLOAD DUP1 SWAP2 SUB SWAP1 RETURN JUMPDEST PUSH2 0x203 PUSH2 0x8CB JUMP JUMPDEST PUSH1 0x40 MLOAD PUSH2 0x210 SWAP2 SWAP1 PUSH2 0xA95 JUMP JUMPDEST PUSH1 0x40 MLOAD DUP1 SWAP2 SUB SWAP1 RETURN JUMPDEST PUSH1 0x1 DUP1 SLOAD PUSH2 0x226 SWAP1 PUSH2 0xF36 JUMP JUMPDEST DUP1 PUSH1 0x1F ADD PUSH1 0x20 DUP1 SWAP2 DIV MUL PUSH1 0x20 ADD PUSH1 0x40 MLOAD SWAP1 DUP2 ADD PUSH1 0x40 MSTORE DUP1 SWAP3 SWAP2 SWAP1 DUP2 DUP2 MSTORE PUSH1 0x20 ADD DUP3 DUP1 SLOAD PUSH2 0x252 SWAP1 PUSH2 0xF36 JUMP JUMPDEST DUP1 ISZERO PUSH2 0x29F JUMPI DUP1 PUSH1 0x1F LT PUSH2 0x274 JUMPI PUSH2 0x100 DUP1 DUP4 SLOAD DIV MUL DUP4 MSTORE SWAP2 PUSH1 0x20 ADD SWAP2 PUSH2 0x29F JUMP JUMPDEST DUP3 ADD SWAP2 SWAP1 PUSH1 0x0 MSTORE PUSH1 0x20 PUSH1 0x0 KECCAK256 SWAP1 JUMPDEST DUP2 SLOAD DUP2 MSTORE SWAP1 PUSH1 0x1 ADD SWAP1 PUSH1 0x20 ADD DUP1 DUP4 GT PUSH2 0x282 JUMPI DUP3 SWAP1 SUB PUSH1 0x1F AND DUP3 ADD SWAP2 JUMPDEST POP POP POP POP POP DUP2 JUMP JUMPDEST PUSH1 0x0 DUP1 SLOAD SWAP1 PUSH2 0x100 EXP SWAP1 DIV PUSH20 0xFFFFFFFFFFFFFFFFFFFFFFFFFFFFFFFFFFFFFFFF AND PUSH20 0xFFFFFFFFFFFFFFFFFFFFFFFFFFFFFFFFFFFFFFFF AND CALLER PUSH20 0xFFFFFFFFFFFFFFFFFFFFFFFFFFFFFFFFFFFFFFFF AND EQ PUSH2 0x2FF JUMPI PUSH1 0x0 DUP1 REVERT JUMPDEST PUSH1 0x0 PUSH20 0xFFFFFFFFFFFFFFFFFFFFFFFFFFFFFFFFFFFFFFFF AND PUSH1 0x4 PUSH1 0x0 SWAP1 SLOAD SWAP1 PUSH2 0x100 EXP SWAP1 DIV PUSH20 0xFFFFFFFFFFFFFFFFFFFFFFFFFFFFFFFFFFFFFFFF AND PUSH20 0xFFFFFFFFFFFFFFFFFFFFFFFFFFFFFFFFFFFFFFFF AND EQ PUSH2 0x35A JUMPI PUSH1 0x0 DUP1 REVERT JUMPDEST PUSH1 0x0 DUP1 SLOAD SWAP1 PUSH2 0x100 EXP SWAP1 DIV PUSH20 0xFFFFFFFFFFFFFFFFFFFFFFFFFFFFFFFFFFFFFFFF AND PUSH20 0xFFFFFFFFFFFFFFFFFFFFFFFFFFFFFFFFFFFFFFFF AND PUSH2 0x8FC SELFBALANCE SWAP1 DUP2 ISZERO MUL SWAP1 PUSH1 0x40 MLOAD PUSH1 0x0 PUSH1 0x40 MLOAD DUP1 DUP4 SUB DUP2 DUP6 DUP9 DUP9 CALL SWAP4 POP POP POP POP ISZERO DUP1 ISZERO PUSH2 0x3C0 JUMPI RETURNDATASIZE PUSH1 0x0 DUP1 RETURNDATACOPY RETURNDATASIZE PUSH1 0x0 REVERT JUMPDEST POP JUMP JUMPDEST PUSH1 0x40 MLOAD DUP1 PUSH1 0x40 ADD PUSH1 0x40 MSTORE DUP1 DUP3 DUP2 MSTORE PUSH1 0x20 ADD PUSH1 0x1 ISZERO ISZERO DUP2 MSTORE POP PUSH1 0x5 PUSH1 0x0 CALLER PUSH20 0xFFFFFFFFFFFFFFFFFFFFFFFFFFFFFFFFFFFFFFFF AND PUSH20 0xFFFFFFFFFFFFFFFFFFFFFFFFFFFFFFFFFFFFFFFF AND DUP2 MSTORE PUSH1 0x20 ADD SWAP1 DUP2 MSTORE PUSH1 0x20 ADD PUSH1 0x0 KECCAK256 PUSH1 0x0 DUP3 ADD MLOAD DUP2 PUSH1 0x0 ADD SWAP1 DUP1 MLOAD SWAP1 PUSH1 0x20 ADD SWAP1 PUSH2 0x436 SWAP3 SWAP2 SWAP1 PUSH2 0x959 JUMP JUMPDEST POP PUSH1 0x20 DUP3 ADD MLOAD DUP2 PUSH1 0x1 ADD PUSH1 0x0 PUSH2 0x100 EXP DUP2 SLOAD DUP2 PUSH1 0xFF MUL NOT AND SWAP1 DUP4 ISZERO ISZERO MUL OR SWAP1 SSTORE POP SWAP1 POP POP POP JUMP JUMPDEST PUSH1 0x0 DUP1 SLOAD SWAP1 PUSH2 0x100 EXP SWAP1 DIV PUSH20 0xFFFFFFFFFFFFFFFFFFFFFFFFFFFFFFFFFFFFFFFF AND DUP2 JUMP JUMPDEST PUSH1 0x4 PUSH1 0x0 SWAP1 SLOAD SWAP1 PUSH2 0x100 EXP SWAP1 DIV PUSH20 0xFFFFFFFFFFFFFFFFFFFFFFFFFFFFFFFFFFFFFFFF AND DUP2 JUMP JUMPDEST PUSH1 0x60 PUSH1 0x3 DUP1 SLOAD DUP1 PUSH1 0x20 MUL PUSH1 0x20 ADD PUSH1 0x40 MLOAD SWAP1 DUP2 ADD PUSH1 0x40 MSTORE DUP1 SWAP3 SWAP2 SWAP1 DUP2 DUP2 MSTORE PUSH1 0x20 ADD PUSH1 0x0 SWAP1 JUMPDEST DUP3 DUP3 LT ISZERO PUSH2 0x577 JUMPI DUP4 DUP3 SWAP1 PUSH1 0x0 MSTORE PUSH1 0x20 PUSH1 0x0 KECCAK256 ADD DUP1 SLOAD PUSH2 0x4EA SWAP1 PUSH2 0xF36 JUMP JUMPDEST DUP1 PUSH1 0x1F ADD PUSH1 0x20 DUP1 SWAP2 DIV MUL PUSH1 0x20 ADD PUSH1 0x40 MLOAD SWAP1 DUP2 ADD PUSH1 0x40 MSTORE DUP1 SWAP3 SWAP2 SWAP1 DUP2 DUP2 MSTORE PUSH1 0x20 ADD DUP3 DUP1 SLOAD PUSH2 0x516 SWAP1 PUSH2 0xF36 JUMP JUMPDEST DUP1 ISZERO PUSH2 0x563 JUMPI DUP1 PUSH1 0x1F LT PUSH2 0x538 JUMPI PUSH2 0x100 DUP1 DUP4 SLOAD DIV MUL DUP4 MSTORE SWAP2 PUSH1 0x20 ADD SWAP2 PUSH2 0x563 JUMP JUMPDEST DUP3 ADD SWAP2 SWAP1 PUSH1 0x0 MSTORE PUSH1 0x20 PUSH1 0x0 KECCAK256 SWAP1 JUMPDEST DUP2 SLOAD DUP2 MSTORE SWAP1 PUSH1 0x1 ADD SWAP1 PUSH1 0x20 ADD DUP1 DUP4 GT PUSH2 0x546 JUMPI DUP3 SWAP1 SUB PUSH1 0x1F AND DUP3 ADD SWAP2 JUMPDEST POP POP POP POP POP DUP2 MSTORE PUSH1 0x20 ADD SWAP1 PUSH1 0x1 ADD SWAP1 PUSH2 0x4CB JUMP JUMPDEST POP POP POP POP SWAP1 POP SWAP1 JUMP JUMPDEST PUSH1 0x0 DUP1 SLOAD SWAP1 PUSH2 0x100 EXP SWAP1 DIV PUSH20 0xFFFFFFFFFFFFFFFFFFFFFFFFFFFFFFFFFFFFFFFF AND PUSH20 0xFFFFFFFFFFFFFFFFFFFFFFFFFFFFFFFFFFFFFFFF AND CALLER PUSH20 0xFFFFFFFFFFFFFFFFFFFFFFFFFFFFFFFFFFFFFFFF AND EQ PUSH2 0x5D8 JUMPI PUSH1 0x0 DUP1 REVERT JUMPDEST PUSH1 0x5 PUSH1 0x0 DUP3 PUSH20 0xFFFFFFFFFFFFFFFFFFFFFFFFFFFFFFFFFFFFFFFF AND PUSH20 0xFFFFFFFFFFFFFFFFFFFFFFFFFFFFFFFFFFFFFFFF AND DUP2 MSTORE PUSH1 0x20 ADD SWAP1 DUP2 MSTORE PUSH1 0x20 ADD PUSH1 0x0 KECCAK256 PUSH1 0x1 ADD PUSH1 0x0 SWAP1 SLOAD SWAP1 PUSH2 0x100 EXP SWAP1 DIV PUSH1 0xFF AND PUSH2 0x631 JUMPI PUSH1 0x0 DUP1 REVERT JUMPDEST DUP1 PUSH1 0x4 PUSH1 0x0 PUSH2 0x100 EXP DUP2 SLOAD DUP2 PUSH20 0xFFFFFFFFFFFFFFFFFFFFFFFFFFFFFFFFFFFFFFFF MUL NOT AND SWAP1 DUP4 PUSH20 0xFFFFFFFFFFFFFFFFFFFFFFFFFFFFFFFFFFFFFFFF AND MUL OR SWAP1 SSTORE POP POP JUMP JUMPDEST PUSH1 0x5 PUSH1 0x20 MSTORE DUP1 PUSH1 0x0 MSTORE PUSH1 0x40 PUSH1 0x0 KECCAK256 PUSH1 0x0 SWAP2 POP SWAP1 POP DUP1 PUSH1 0x0 ADD DUP1 SLOAD PUSH2 0x698 SWAP1 PUSH2 0xF36 JUMP JUMPDEST DUP1 PUSH1 0x1F ADD PUSH1 0x20 DUP1 SWAP2 DIV MUL PUSH1 0x20 ADD PUSH1 0x40 MLOAD SWAP1 DUP2 ADD PUSH1 0x40 MSTORE DUP1 SWAP3 SWAP2 SWAP1 DUP2 DUP2 MSTORE PUSH1 0x20 ADD DUP3 DUP1 SLOAD PUSH2 0x6C4 SWAP1 PUSH2 0xF36 JUMP JUMPDEST DUP1 ISZERO PUSH2 0x711 JUMPI DUP1 PUSH1 0x1F LT PUSH2 0x6E6 JUMPI PUSH2 0x100 DUP1 DUP4 SLOAD DIV MUL DUP4 MSTORE SWAP2 PUSH1 0x20 ADD SWAP2 PUSH2 0x711 JUMP JUMPDEST DUP3 ADD SWAP2 SWAP1 PUSH1 0x0 MSTORE PUSH1 0x20 PUSH1 0x0 KECCAK256 SWAP1 JUMPDEST DUP2 SLOAD DUP2 MSTORE SWAP1 PUSH1 0x1 ADD SWAP1 PUSH1 0x20 ADD DUP1 DUP4 GT PUSH2 0x6F4 JUMPI DUP3 SWAP1 SUB PUSH1 0x1F AND DUP3 ADD SWAP2 JUMPDEST POP POP POP POP POP SWAP1 DUP1 PUSH1 0x1 ADD PUSH1 0x0 SWAP1 SLOAD SWAP1 PUSH2 0x100 EXP SWAP1 DIV PUSH1 0xFF AND SWAP1 POP DUP3 JUMP JUMPDEST PUSH1 0x0 DUP1 SLOAD SWAP1 PUSH2 0x100 EXP SWAP1 DIV PUSH20 0xFFFFFFFFFFFFFFFFFFFFFFFFFFFFFFFFFFFFFFFF AND PUSH20 0xFFFFFFFFFFFFFFFFFFFFFFFFFFFFFFFFFFFFFFFF AND CALLER PUSH20 0xFFFFFFFFFFFFFFFFFFFFFFFFFFFFFFFFFFFFFFFF AND EQ PUSH2 0x786 JUMPI PUSH1 0x0 DUP1 REVERT JUMPDEST PUSH1 0x4 PUSH1 0x0 SWAP1 SLOAD SWAP1 PUSH2 0x100 EXP SWAP1 DIV PUSH20 0xFFFFFFFFFFFFFFFFFFFFFFFFFFFFFFFFFFFFFFFF AND PUSH20 0xFFFFFFFFFFFFFFFFFFFFFFFFFFFFFFFFFFFFFFFF AND PUSH2 0x8FC SELFBALANCE SWAP1 DUP2 ISZERO MUL SWAP1 PUSH1 0x40 MLOAD PUSH1 0x0 PUSH1 0x40 MLOAD DUP1 DUP4 SUB DUP2 DUP6 DUP9 DUP9 CALL SWAP4 POP POP POP POP ISZERO DUP1 ISZERO PUSH2 0x7EE JUMPI RETURNDATASIZE PUSH1 0x0 DUP1 RETURNDATACOPY RETURNDATASIZE PUSH1 0x0 REVERT JUMPDEST POP PUSH1 0x1 PUSH1 0x4 PUSH1 0x14 PUSH2 0x100 EXP DUP2 SLOAD DUP2 PUSH1 0xFF MUL NOT AND SWAP1 DUP4 ISZERO ISZERO MUL OR SWAP1 SSTORE POP JUMP JUMPDEST PUSH1 0x3 DUP2 DUP2 SLOAD DUP2 LT PUSH2 0x81C JUMPI PUSH1 0x0 DUP1 REVERT JUMPDEST SWAP1 PUSH1 0x0 MSTORE PUSH1 0x20 PUSH1 0x0 KECCAK256 ADD PUSH1 0x0 SWAP2 POP SWAP1 POP DUP1 SLOAD PUSH2 0x837 SWAP1 PUSH2 0xF36 JUMP JUMPDEST DUP1 PUSH1 0x1F ADD PUSH1 0x20 DUP1 SWAP2 DIV MUL PUSH1 0x20 ADD PUSH1 0x40 MLOAD SWAP1 DUP2 ADD PUSH1 0x40 MSTORE DUP1 SWAP3 SWAP2 SWAP1 DUP2 DUP2 MSTORE PUSH1 0x20 ADD DUP3 DUP1 SLOAD PUSH2 0x863 SWAP1 PUSH2 0xF36 JUMP JUMPDEST DUP1 ISZERO PUSH2 0x8B0 JUMPI DUP1 PUSH1 0x1F LT PUSH2 0x885 JUMPI PUSH2 0x100 DUP1 DUP4 SLOAD DIV MUL DUP4 MSTORE SWAP2 PUSH1 0x20 ADD SWAP2 PUSH2 0x8B0 JUMP JUMPDEST DUP3 ADD SWAP2 SWAP1 PUSH1 0x0 MSTORE PUSH1 0x20 PUSH1 0x0 KECCAK256 SWAP1 JUMPDEST DUP2 SLOAD DUP2 MSTORE SWAP1 PUSH1 0x1 ADD SWAP1 PUSH1 0x20 ADD DUP1 DUP4 GT PUSH2 0x893 JUMPI DUP3 SWAP1 SUB PUSH1 0x1F AND DUP3 ADD SWAP2 JUMPDEST POP POP POP POP POP DUP2 JUMP JUMPDEST PUSH1 0x4 PUSH1 0x14 SWAP1 SLOAD SWAP1 PUSH2 0x100 EXP SWAP1 DIV PUSH1 0xFF AND DUP2 JUMP JUMPDEST PUSH1 0x2 DUP1 SLOAD PUSH2 0x8D8 SWAP1 PUSH2 0xF36 JUMP JUMPDEST DUP1 PUSH1 0x1F ADD PUSH1 0x20 DUP1 SWAP2 DIV MUL PUSH1 0x20 ADD PUSH1 0x40 MLOAD SWAP1 DUP2 ADD PUSH1 0x40 MSTORE DUP1 SWAP3 SWAP2 SWAP1 DUP2 DUP2 MSTORE PUSH1 0x20 ADD DUP3 DUP1 SLOAD PUSH2 0x904 SWAP1 PUSH2 0xF36 JUMP JUMPDEST DUP1 ISZERO PUSH2 0x951 JUMPI DUP1 PUSH1 0x1F LT PUSH2 0x926 JUMPI PUSH2 0x100 DUP1 DUP4 SLOAD DIV MUL DUP4 MSTORE SWAP2 PUSH1 0x20 ADD SWAP2 PUSH2 0x951 JUMP JUMPDEST DUP3 ADD SWAP2 SWAP1 PUSH1 0x0 MSTORE PUSH1 0x20 PUSH1 0x0 KECCAK256 SWAP1 JUMPDEST DUP2 SLOAD DUP2 MSTORE SWAP1 PUSH1 0x1 ADD SWAP1 PUSH1 0x20 ADD DUP1 DUP4 GT PUSH2 0x934 JUMPI DUP3 SWAP1 SUB PUSH1 0x1F AND DUP3 ADD SWAP2 JUMPDEST POP POP POP POP POP DUP2 JUMP JUMPDEST DUP3 DUP1 SLOAD PUSH2 0x965 SWAP1 PUSH2 0xF36 JUMP JUMPDEST SWAP1 PUSH1 0x0 MSTORE PUSH1 0x20 PUSH1 0x0 KECCAK256 SWAP1 PUSH1 0x1F ADD PUSH1 0x20 SWAP1 DIV DUP2 ADD SWAP3 DUP3 PUSH2 0x987 JUMPI PUSH1 0x0 DUP6 SSTORE PUSH2 0x9CE JUMP JUMPDEST DUP3 PUSH1 0x1F LT PUSH2 0x9A0 JUMPI DUP1 MLOAD PUSH1 0xFF NOT AND DUP4 DUP1 ADD OR DUP6 SSTORE PUSH2 0x9CE JUMP JUMPDEST DUP3 DUP1 ADD PUSH1 0x1 ADD DUP6 SSTORE DUP3 ISZERO PUSH2 0x9CE JUMPI SWAP2 DUP3 ADD JUMPDEST DUP3 DUP2 GT ISZERO PUSH2 0x9CD JUMPI DUP3 MLOAD DUP3 SSTORE SWAP2 PUSH1 0x20 ADD SWAP2 SWAP1 PUSH1 0x1 ADD SWAP1 PUSH2 0x9B2 JUMP JUMPDEST JUMPDEST POP SWAP1 POP PUSH2 0x9DB SWAP2 SWAP1 PUSH2 0x9DF JUMP JUMPDEST POP SWAP1 JUMP JUMPDEST JUMPDEST DUP1 DUP3 GT ISZERO PUSH2 0x9F8 JUMPI PUSH1 0x0 DUP2 PUSH1 0x0 SWAP1 SSTORE POP PUSH1 0x1 ADD PUSH2 0x9E0 JUMP JUMPDEST POP SWAP1 JUMP JUMPDEST PUSH1 0x0 DUP2 MLOAD SWAP1 POP SWAP2 SWAP1 POP JUMP JUMPDEST PUSH1 0x0 DUP3 DUP3 MSTORE PUSH1 0x20 DUP3 ADD SWAP1 POP SWAP3 SWAP2 POP POP JUMP JUMPDEST PUSH1 0x0 JUMPDEST DUP4 DUP2 LT ISZERO PUSH2 0xA36 JUMPI DUP1 DUP3 ADD MLOAD DUP2 DUP5 ADD MSTORE PUSH1 0x20 DUP2 ADD SWAP1 POP PUSH2 0xA1B JUMP JUMPDEST DUP4 DUP2 GT ISZERO PUSH2 0xA45 JUMPI PUSH1 0x0 DUP5 DUP5 ADD MSTORE JUMPDEST POP POP POP POP JUMP JUMPDEST PUSH1 0x0 PUSH1 0x1F NOT PUSH1 0x1F DUP4 ADD AND SWAP1 POP SWAP2 SWAP1 POP JUMP JUMPDEST PUSH1 0x0 PUSH2 0xA67 DUP3 PUSH2 0x9FC JUMP JUMPDEST PUSH2 0xA71 DUP2 DUP6 PUSH2 0xA07 JUMP JUMPDEST SWAP4 POP PUSH2 0xA81 DUP2 DUP6 PUSH1 0x20 DUP7 ADD PUSH2 0xA18 JUMP JUMPDEST PUSH2 0xA8A DUP2 PUSH2 0xA4B JUMP JUMPDEST DUP5 ADD SWAP2 POP POP SWAP3 SWAP2 POP POP JUMP JUMPDEST PUSH1 0x0 PUSH1 0x20 DUP3 ADD SWAP1 POP DUP2 DUP2 SUB PUSH1 0x0 DUP4 ADD MSTORE PUSH2 0xAAF DUP2 DUP5 PUSH2 0xA5C JUMP JUMPDEST SWAP1 POP SWAP3 SWAP2 POP POP JUMP JUMPDEST PUSH1 0x0 PUSH1 0x40 MLOAD SWAP1 POP SWAP1 JUMP JUMPDEST PUSH1 0x0 DUP1 REVERT JUMPDEST PUSH1 0x0 DUP1 REVERT JUMPDEST PUSH1 0x0 DUP1 REVERT JUMPDEST PUSH1 0x0 DUP1 REVERT JUMPDEST PUSH32 0x4E487B7100000000000000000000000000000000000000000000000000000000 PUSH1 0x0 MSTORE PUSH1 0x41 PUSH1 0x4 MSTORE PUSH1 0x24 PUSH1 0x0 REVERT JUMPDEST PUSH2 0xB0D DUP3 PUSH2 0xA4B JUMP JUMPDEST DUP2 ADD DUP2 DUP2 LT PUSH8 0xFFFFFFFFFFFFFFFF DUP3 GT OR ISZERO PUSH2 0xB2C JUMPI PUSH2 0xB2B PUSH2 0xAD5 JUMP JUMPDEST JUMPDEST DUP1 PUSH1 0x40 MSTORE POP POP POP JUMP JUMPDEST PUSH1 0x0 PUSH2 0xB3F PUSH2 0xAB7 JUMP JUMPDEST SWAP1 POP PUSH2 0xB4B DUP3 DUP3 PUSH2 0xB04 JUMP JUMPDEST SWAP2 SWAP1 POP JUMP JUMPDEST PUSH1 0x0 PUSH8 0xFFFFFFFFFFFFFFFF DUP3 GT ISZERO PUSH2 0xB6B JUMPI PUSH2 0xB6A PUSH2 0xAD5 JUMP JUMPDEST JUMPDEST PUSH2 0xB74 DUP3 PUSH2 0xA4B JUMP JUMPDEST SWAP1 POP PUSH1 0x20 DUP2 ADD SWAP1 POP SWAP2 SWAP1 POP JUMP JUMPDEST DUP3 DUP2 DUP4 CALLDATACOPY PUSH1 0x0 DUP4 DUP4 ADD MSTORE POP POP POP JUMP JUMPDEST PUSH1 0x0 PUSH2 0xBA3 PUSH2 0xB9E DUP5 PUSH2 0xB50 JUMP JUMPDEST PUSH2 0xB35 JUMP JUMPDEST SWAP1 POP DUP3 DUP2 MSTORE PUSH1 0x20 DUP2 ADD DUP5 DUP5 DUP5 ADD GT ISZERO PUSH2 0xBBF JUMPI PUSH2 0xBBE PUSH2 0xAD0 JUMP JUMPDEST JUMPDEST PUSH2 0xBCA DUP5 DUP3 DUP6 PUSH2 0xB81 JUMP JUMPDEST POP SWAP4 SWAP3 POP POP POP JUMP JUMPDEST PUSH1 0x0 DUP3 PUSH1 0x1F DUP4 ADD SLT PUSH2 0xBE7 JUMPI PUSH2 0xBE6 PUSH2 0xACB JUMP JUMPDEST JUMPDEST DUP2 CALLDATALOAD PUSH2 0xBF7 DUP5 DUP3 PUSH1 0x20 DUP7 ADD PUSH2 0xB90 JUMP JUMPDEST SWAP2 POP POP SWAP3 SWAP2 POP POP JUMP JUMPDEST PUSH1 0x0 PUSH1 0x20 DUP3 DUP5 SUB SLT ISZERO PUSH2 0xC16 JUMPI PUSH2 0xC15 PUSH2 0xAC1 JUMP JUMPDEST JUMPDEST PUSH1 0x0 DUP3 ADD CALLDATALOAD PUSH8 0xFFFFFFFFFFFFFFFF DUP2 GT ISZERO PUSH2 0xC34 JUMPI PUSH2 0xC33 PUSH2 0xAC6 JUMP JUMPDEST JUMPDEST PUSH2 0xC40 DUP5 DUP3 DUP6 ADD PUSH2 0xBD2 JUMP JUMPDEST SWAP2 POP POP SWAP3 SWAP2 POP POP JUMP JUMPDEST PUSH1 0x0 PUSH20 0xFFFFFFFFFFFFFFFFFFFFFFFFFFFFFFFFFFFFFFFF DUP3 AND SWAP1 POP SWAP2 SWAP1 POP JUMP JUMPDEST PUSH1 0x0 PUSH2 0xC74 DUP3 PUSH2 0xC49 JUMP JUMPDEST SWAP1 POP SWAP2 SWAP1 POP JUMP JUMPDEST PUSH2 0xC84 DUP2 PUSH2 0xC69 JUMP JUMPDEST DUP3 MSTORE POP POP JUMP JUMPDEST PUSH1 0x0 PUSH1 0x20 DUP3 ADD SWAP1 POP PUSH2 0xC9F PUSH1 0x0 DUP4 ADD DUP5 PUSH2 0xC7B JUMP JUMPDEST SWAP3 SWAP2 POP POP JUMP JUMPDEST PUSH1 0x0 DUP2 MLOAD SWAP1 POP SWAP2 SWAP1 POP JUMP JUMPDEST PUSH1 0x0 DUP3 DUP3 MSTORE PUSH1 0x20 DUP3 ADD SWAP1 POP SWAP3 SWAP2 POP POP JUMP JUMPDEST PUSH1 0x0 DUP2 SWAP1 POP PUSH1 0x20 DUP3 ADD SWAP1 POP SWAP2 SWAP1 POP JUMP JUMPDEST PUSH1 0x0 DUP3 DUP3 MSTORE PUSH1 0x20 DUP3 ADD SWAP1 POP SWAP3 SWAP2 POP POP JUMP JUMPDEST PUSH1 0x0 PUSH2 0xCED DUP3 PUSH2 0x9FC JUMP JUMPDEST PUSH2 0xCF7 DUP2 DUP6 PUSH2 0xCD1 JUMP JUMPDEST SWAP4 POP PUSH2 0xD07 DUP2 DUP6 PUSH1 0x20 DUP7 ADD PUSH2 0xA18 JUMP JUMPDEST PUSH2 0xD10 DUP2 PUSH2 0xA4B JUMP JUMPDEST DUP5 ADD SWAP2 POP POP SWAP3 SWAP2 POP POP JUMP JUMPDEST PUSH1 0x0 PUSH2 0xD27 DUP4 DUP4 PUSH2 0xCE2 JUMP JUMPDEST SWAP1 POP SWAP3 SWAP2 POP POP JUMP JUMPDEST PUSH1 0x0 PUSH1 0x20 DUP3 ADD SWAP1 POP SWAP2 SWAP1 POP JUMP JUMPDEST PUSH1 0x0 PUSH2 0xD47 DUP3 PUSH2 0xCA5 JUMP JUMPDEST PUSH2 0xD51 DUP2 DUP6 PUSH2 0xCB0 JUMP JUMPDEST SWAP4 POP DUP4 PUSH1 0x20 DUP3 MUL DUP6 ADD PUSH2 0xD63 DUP6 PUSH2 0xCC1 JUMP JUMPDEST DUP1 PUSH1 0x0 JUMPDEST DUP6 DUP2 LT ISZERO PUSH2 0xD9F JUMPI DUP5 DUP5 SUB DUP10 MSTORE DUP2 MLOAD PUSH2 0xD80 DUP6 DUP3 PUSH2 0xD1B JUMP JUMPDEST SWAP5 POP PUSH2 0xD8B DUP4 PUSH2 0xD2F JUMP JUMPDEST SWAP3 POP PUSH1 0x20 DUP11 ADD SWAP10 POP POP PUSH1 0x1 DUP2 ADD SWAP1 POP PUSH2 0xD67 JUMP JUMPDEST POP DUP3 SWAP8 POP DUP8 SWAP6 POP POP POP POP POP POP SWAP3 SWAP2 POP POP JUMP JUMPDEST PUSH1 0x0 PUSH1 0x20 DUP3 ADD SWAP1 POP DUP2 DUP2 SUB PUSH1 0x0 DUP4 ADD MSTORE PUSH2 0xDCB DUP2 DUP5 PUSH2 0xD3C JUMP JUMPDEST SWAP1 POP SWAP3 SWAP2 POP POP JUMP JUMPDEST PUSH1 0x0 PUSH2 0xDDE DUP3 PUSH2 0xC49 JUMP JUMPDEST SWAP1 POP SWAP2 SWAP1 POP JUMP JUMPDEST PUSH2 0xDEE DUP2 PUSH2 0xDD3 JUMP JUMPDEST DUP2 EQ PUSH2 0xDF9 JUMPI PUSH1 0x0 DUP1 REVERT JUMPDEST POP JUMP JUMPDEST PUSH1 0x0 DUP2 CALLDATALOAD SWAP1 POP PUSH2 0xE0B DUP2 PUSH2 0xDE5 JUMP JUMPDEST SWAP3 SWAP2 POP POP JUMP JUMPDEST PUSH1 0x0 PUSH1 0x20 DUP3 DUP5 SUB SLT ISZERO PUSH2 0xE27 JUMPI PUSH2 0xE26 PUSH2 0xAC1 JUMP JUMPDEST JUMPDEST PUSH1 0x0 PUSH2 0xE35 DUP5 DUP3 DUP6 ADD PUSH2 0xDFC JUMP JUMPDEST SWAP2 POP POP SWAP3 SWAP2 POP POP JUMP JUMPDEST PUSH1 0x0 DUP2 ISZERO ISZERO SWAP1 POP SWAP2 SWAP1 POP JUMP JUMPDEST PUSH2 0xE53 DUP2 PUSH2 0xE3E JUMP JUMPDEST DUP3 MSTORE POP POP JUMP JUMPDEST PUSH1 0x0 PUSH1 0x40 DUP3 ADD SWAP1 POP DUP2 DUP2 SUB PUSH1 0x0 DUP4 ADD MSTORE PUSH2 0xE73 DUP2 DUP6 PUSH2 0xA5C JUMP JUMPDEST SWAP1 POP PUSH2 0xE82 PUSH1 0x20 DUP4 ADD DUP5 PUSH2 0xE4A JUMP JUMPDEST SWAP4 SWAP3 POP POP POP JUMP JUMPDEST PUSH1 0x0 DUP2 SWAP1 POP SWAP2 SWAP1 POP JUMP JUMPDEST PUSH2 0xE9C DUP2 PUSH2 0xE89 JUMP JUMPDEST DUP2 EQ PUSH2 0xEA7 JUMPI PUSH1 0x0 DUP1 REVERT JUMPDEST POP JUMP JUMPDEST PUSH1 0x0 DUP2 CALLDATALOAD SWAP1 POP PUSH2 0xEB9 DUP2 PUSH2 0xE93 JUMP JUMPDEST SWAP3 SWAP2 POP POP JUMP JUMPDEST PUSH1 0x0 PUSH1 0x20 DUP3 DUP5 SUB SLT ISZERO PUSH2 0xED5 JUMPI PUSH2 0xED4 PUSH2 0xAC1 JUMP JUMPDEST JUMPDEST PUSH1 0x0 PUSH2 0xEE3 DUP5 DUP3 DUP6 ADD PUSH2 0xEAA JUMP JUMPDEST SWAP2 POP POP SWAP3 SWAP2 POP POP JUMP JUMPDEST PUSH1 0x0 PUSH1 0x20 DUP3 ADD SWAP1 POP PUSH2 0xF01 PUSH1 0x0 DUP4 ADD DUP5 PUSH2 0xE4A JUMP JUMPDEST SWAP3 SWAP2 POP POP JUMP JUMPDEST PUSH32 0x4E487B7100000000000000000000000000000000000000000000000000000000 PUSH1 0x0 MSTORE PUSH1 0x22 PUSH1 0x4 MSTORE PUSH1 0x24 PUSH1 0x0 REVERT JUMPDEST PUSH1 0x0 PUSH1 0x2 DUP3 DIV SWAP1 POP PUSH1 0x1 DUP3 AND DUP1 PUSH2 0xF4E JUMPI PUSH1 0x7F DUP3 AND SWAP2 POP JUMPDEST PUSH1 0x20 DUP3 LT DUP2 SUB PUSH2 0xF61 JUMPI PUSH2 0xF60 PUSH2 0xF07 JUMP JUMPDEST JUMPDEST POP SWAP2 SWAP1 POP JUMP INVALID LOG2 PUSH5 0x6970667358 0x22 SLT KECCAK256 0xB7 0xC0 SDIV NOT PUSH13 0x3DF4F48666DE386E8921977D1D 0x2A 0xD2 0xC6 SUB 0xA6 0x23 0xE1 CALLDATASIZE MSIZE DUP13 ISZERO DUP16 BYTE GASPRICE PUSH5 0x736F6C6343 STOP ADDMOD 0xE STOP CALLER "},"gasEstimates":{"creation":{"codeDepositCost":"799400","executionCost":"infinite","totalCost":"infinite"},"external":{"creaetRequest(string)":"infinite","finalizeTask()":"infinite","getHashtags()":"infinite","isCompleted()":"2609","killTask()":"infinite","manager()":"2578","requests(address)":"infinite","startTask(address)":"29138","taskDescription()":"infinite","taskHashtags(uint256)":"infinite","taskName()":"infinite","worker()":"2603"}},"methodIdentifiers":{"creaetRequest(string)":"31c3a6f5","finalizeTask()":"a20fca5a","getHashtags()":"5e1c7322","isCompleted()":"fa391c64","killTask()":"231e407a","manager()":"481c6a75","requests(address)":"74adad1d","startTask(address)":"5f51c765","taskDescription()":"fbc03a1e","taskHashtags(uint256)":"af84a013","taskName()":"001aea77","worker()":"4d547ada"}},"storageLayout":{"storage":[{"astId":70,"contract":"Task.sol:Task","label":"manager","offset":0,"slot":"0","type":"t_address_payable"},{"astId":72,"contract":"Task.sol:Task","label":"taskName","offset":0,"slot":"1","type":"t_string_storage"},{"astId":74,"contract":"Task.sol:Task","label":"taskDescription","offset":0,"slot":"2","type":"t_string_storage"},{"astId":77,"contract":"Task.sol:Task","label":"taskHashtags","offset":0,"slot":"3","type":"t_array(t_string_storage)dyn_storage"},{"astId":79,"contract":"Task.sol:Task","label":"worker","offset":0,"slot":"4","type":"t_address_payable"},{"astId":81,"contract":"Task.sol:Task","label":"isCompleted","offset":20,"slot":"4","type":"t_bool"},{"astId":86,"contract":"Task.sol:Task","label":"requests","offset":0,"slot":"5","type":"t_mapping(t_address,t_struct(Request)68_storage)"}],"types":{"t_address":{"encoding":"inplace","label":"address","numberOfBytes":"20"},"t_address_payable":{"encoding":"inplace","label":"address payable","numberOfBytes":"20"},"t_array(t_string_storage)dyn_storage":{"base":"t_string_storage","encoding":"dynamic_array","label":"string[]","numberOfBytes":"32"},"t_bool":{"encoding":"inplace","label":"bool","numberOfBytes":"1"},"t_mapping(t_address,t_struct(Request)68_storage)":{"encoding":"mapping","key":"t_address","label":"mapping(address => struct Task.Request)","numberOfBytes":"32","value":"t_struct(Request)68_storage"},"t_string_storage":{"encoding":"bytes","label":"string","numberOfBytes":"32"},"t_struct(Request)68_storage":{"encoding":"inplace","label":"struct Task.Request","members":[{"astId":65,"contract":"Task.sol:Task","label":"description","offset":0,"slot":"0","type":"t_string_storage"},{"astId":67,"contract":"Task.sol:Task","label":"exist","offset":0,"slot":"1","type":"t_bool"}],"numberOfBytes":"64"}}},"userdoc":{"kind":"user","methods":{},"version":1}}