{"abi":[{"inputs":[{"internalType":"uint256","name":"","type":"uint256"}],"name":"allTasks","outputs":[{"internalType":"address","name":"","type":"address"}],"stateMutability":"view","type":"function"},{"inputs":[{"internalType":"string","name":"header","type":"string"},{"internalType":"string","name":"description","type":"string"},{"internalType":"string","name":"sphere","type":"string"},{"internalType":"string[]","name":"files","type":"string[]"},{"internalType":"string[]","name":"hashtags","type":"string[]"}],"name":"createTask","outputs":[{"internalType":"address","name":"","type":"address"}],"stateMutability":"payable","type":"function"},{"inputs":[],"name":"getAllTasks","outputs":[{"internalType":"address[]","name":"","type":"address[]"}],"stateMutability":"view","type":"function"}],"devdoc":{"kind":"dev","methods":{},"version":1},"evm":{"assembly":"    /* \"Task.sol\":60:633  contract TaskFactory {... */\n  mstore(0x40, 0x80)\n  callvalue\n  dup1\n  iszero\n  tag_1\n  jumpi\n  0x00\n  dup1\n  revert\ntag_1:\n  pop\n  dataSize(sub_0)\n  dup1\n  dataOffset(sub_0)\n  0x00\n  codecopy\n  0x00\n  return\nstop\n\nsub_0: assembly {\n        /* \"Task.sol\":60:633  contract TaskFactory {... */\n      mstore(0x40, 0x80)\n      jumpi(tag_1, lt(calldatasize, 0x04))\n      shr(0xe0, calldataload(0x00))\n      dup1\n      0x3f90b454\n      eq\n      tag_2\n      jumpi\n      dup1\n      0x779900b4\n      eq\n      tag_3\n      jumpi\n      dup1\n      0xd01d4764\n      eq\n      tag_4\n      jumpi\n    tag_1:\n      0x00\n      dup1\n      revert\n        /* \"Task.sol\":88:113  address[] public allTasks */\n    tag_2:\n      callvalue\n      dup1\n      iszero\n      tag_5\n      jumpi\n      0x00\n      dup1\n      revert\n    tag_5:\n      pop\n      tag_6\n      0x04\n      dup1\n      calldatasize\n      sub\n      dup2\n      add\n      swap1\n      tag_7\n      swap2\n      swap1\n      tag_8\n      jump\t// in\n    tag_7:\n      tag_9\n      jump\t// in\n    tag_6:\n      mload(0x40)\n      tag_10\n      swap2\n      swap1\n      tag_11\n      jump\t// in\n    tag_10:\n      mload(0x40)\n      dup1\n      swap2\n      sub\n      swap1\n      return\n        /* \"Task.sol\":535:630  function getAllTasks() public view returns(address[] memory) {... */\n    tag_3:\n      callvalue\n      dup1\n      iszero\n      tag_12\n      jumpi\n      0x00\n      dup1\n      revert\n    tag_12:\n      pop\n      tag_13\n      tag_14\n      jump\t// in\n    tag_13:\n      mload(0x40)\n      tag_15\n      swap2\n      swap1\n      tag_16\n      jump\t// in\n    tag_15:\n      mload(0x40)\n      dup1\n      swap2\n      sub\n      swap1\n      return\n        /* \"Task.sol\":122:527  function createTask(string memory header, string memory description, string memory sphere, string[] memory files, string[] memory hashtags) public payable returns(address) {... */\n    tag_4:\n      tag_17\n      0x04\n      dup1\n      calldatasize\n      sub\n      dup2\n      add\n      swap1\n      tag_18\n      swap2\n      swap1\n      tag_19\n      jump\t// in\n    tag_18:\n      tag_20\n      jump\t// in\n    tag_17:\n      mload(0x40)\n      tag_21\n      swap2\n      swap1\n      tag_11\n      jump\t// in\n    tag_21:\n      mload(0x40)\n      dup1\n      swap2\n      sub\n      swap1\n      return\n        /* \"Task.sol\":88:113  address[] public allTasks */\n    tag_9:\n      0x00\n      dup2\n      dup2\n      sload\n      dup2\n      lt\n      tag_22\n      jumpi\n      0x00\n      dup1\n      revert\n    tag_22:\n      swap1\n      0x00\n      mstore\n      keccak256(0x00, 0x20)\n      add\n      0x00\n      swap2\n      pop\n      sload\n      swap1\n      0x0100\n      exp\n      swap1\n      div\n      0xffffffffffffffffffffffffffffffffffffffff\n      and\n      dup2\n      jump\t// out\n        /* \"Task.sol\":535:630  function getAllTasks() public view returns(address[] memory) {... */\n    tag_14:\n        /* \"Task.sol\":578:594  address[] memory */\n      0x60\n        /* \"Task.sol\":614:622  allTasks */\n      0x00\n        /* \"Task.sol\":607:622  return allTasks */\n      dup1\n      sload\n      dup1\n      0x20\n      mul\n      0x20\n      add\n      mload(0x40)\n      swap1\n      dup2\n      add\n      0x40\n      mstore\n      dup1\n      swap3\n      swap2\n      swap1\n      dup2\n      dup2\n      mstore\n      0x20\n      add\n      dup3\n      dup1\n      sload\n      dup1\n      iszero\n      tag_25\n      jumpi\n      0x20\n      mul\n      dup3\n      add\n      swap2\n      swap1\n      0x00\n      mstore\n      keccak256(0x00, 0x20)\n      swap1\n    tag_26:\n      dup2\n      0x00\n      swap1\n      sload\n      swap1\n      0x0100\n      exp\n      swap1\n      div\n      0xffffffffffffffffffffffffffffffffffffffff\n      and\n      0xffffffffffffffffffffffffffffffffffffffff\n      and\n      dup2\n      mstore\n      0x20\n      add\n      swap1\n      0x01\n      add\n      swap1\n      dup1\n      dup4\n      gt\n      tag_26\n      jumpi\n    tag_25:\n      pop\n      pop\n      pop\n      pop\n      pop\n      swap1\n      pop\n        /* \"Task.sol\":535:630  function getAllTasks() public view returns(address[] memory) {... */\n      swap1\n      jump\t// out\n        /* \"Task.sol\":122:527  function createTask(string memory header, string memory description, string memory sphere, string[] memory files, string[] memory hashtags) public payable returns(address) {... */\n    tag_20:\n        /* \"Task.sol\":285:292  address */\n      0x00\n        /* \"Task.sol\":305:317  Task newTask */\n      dup1\n        /* \"Task.sol\":336:345  msg.value */\n      callvalue\n        /* \"Task.sol\":347:353  header */\n      dup8\n        /* \"Task.sol\":355:366  description */\n      dup8\n        /* \"Task.sol\":368:374  sphere */\n      dup8\n        /* \"Task.sol\":376:381  files */\n      dup8\n        /* \"Task.sol\":383:391  hashtags */\n      dup8\n        /* \"Task.sol\":393:403  msg.sender */\n      caller\n        /* \"Task.sol\":320:404  new Task{value: msg.value}(header, description, sphere, files, hashtags, msg.sender) */\n      mload(0x40)\n      tag_28\n      swap1\n      tag_29\n      jump\t// in\n    tag_28:\n      tag_30\n      swap7\n      swap6\n      swap5\n      swap4\n      swap3\n      swap2\n      swap1\n      tag_31\n      jump\t// in\n    tag_30:\n      mload(0x40)\n      dup1\n      swap2\n      sub\n      swap1\n      dup3\n      create\n      swap1\n      pop\n      dup1\n      iszero\n      dup1\n      iszero\n      tag_32\n      jumpi\n      returndatasize\n      0x00\n      dup1\n      returndatacopy\n      revert(0x00, returndatasize)\n    tag_32:\n      pop\n        /* \"Task.sol\":305:404  Task newTask = new Task{value: msg.value}(header, description, sphere, files, hashtags, msg.sender) */\n      swap1\n      pop\n        /* \"Task.sol\":415:434  address taskAddress */\n      0x00\n        /* \"Task.sol\":445:452  newTask */\n      dup2\n        /* \"Task.sol\":415:453  address taskAddress = address(newTask) */\n      swap1\n      pop\n        /* \"Task.sol\":464:472  allTasks */\n      0x00\n        /* \"Task.sol\":478:489  taskAddress */\n      dup2\n        /* \"Task.sol\":464:490  allTasks.push(taskAddress) */\n      swap1\n      dup1\n      0x01\n      dup2\n      sload\n      add\n      dup1\n      dup3\n      sstore\n      dup1\n      swap2\n      pop\n      pop\n      0x01\n      swap1\n      sub\n      swap1\n      0x00\n      mstore\n      keccak256(0x00, 0x20)\n      add\n      0x00\n      swap1\n      swap2\n      swap1\n      swap2\n      swap1\n      swap2\n      0x0100\n      exp\n      dup2\n      sload\n      dup2\n      0xffffffffffffffffffffffffffffffffffffffff\n      mul\n      not\n      and\n      swap1\n      dup4\n      0xffffffffffffffffffffffffffffffffffffffff\n      and\n      mul\n      or\n      swap1\n      sstore\n      pop\n        /* \"Task.sol\":508:519  taskAddress */\n      dup1\n        /* \"Task.sol\":501:519  return taskAddress */\n      swap3\n      pop\n      pop\n      pop\n        /* \"Task.sol\":122:527  function createTask(string memory header, string memory description, string memory sphere, string[] memory files, string[] memory hashtags) public payable returns(address) {... */\n      swap6\n      swap5\n      pop\n      pop\n      pop\n      pop\n      pop\n      jump\t// out\n    tag_29:\n      dataSize(sub_0)\n      dup1\n      dataOffset(sub_0)\n      dup4\n      codecopy\n      add\n      swap1\n      jump\t// out\n        /* \"#utility.yul\":7:82   */\n    tag_34:\n        /* \"#utility.yul\":40:46   */\n      0x00\n        /* \"#utility.yul\":73:75   */\n      0x40\n        /* \"#utility.yul\":67:76   */\n      mload\n        /* \"#utility.yul\":57:76   */\n      swap1\n      pop\n        /* \"#utility.yul\":7:82   */\n      swap1\n      jump\t// out\n        /* \"#utility.yul\":88:205   */\n    tag_35:\n        /* \"#utility.yul\":197:198   */\n      0x00\n        /* \"#utility.yul\":194:195   */\n      dup1\n        /* \"#utility.yul\":187:199   */\n      revert\n        /* \"#utility.yul\":211:328   */\n    tag_36:\n        /* \"#utility.yul\":320:321   */\n      0x00\n        /* \"#utility.yul\":317:318   */\n      dup1\n        /* \"#utility.yul\":310:322   */\n      revert\n        /* \"#utility.yul\":334:411   */\n    tag_37:\n        /* \"#utility.yul\":371:378   */\n      0x00\n        /* \"#utility.yul\":400:405   */\n      dup2\n        /* \"#utility.yul\":389:405   */\n      swap1\n      pop\n        /* \"#utility.yul\":334:411   */\n      swap2\n      swap1\n      pop\n      jump\t// out\n        /* \"#utility.yul\":417:539   */\n    tag_38:\n        /* \"#utility.yul\":490:514   */\n      tag_82\n        /* \"#utility.yul\":508:513   */\n      dup2\n        /* \"#utility.yul\":490:514   */\n      tag_37\n      jump\t// in\n    tag_82:\n        /* \"#utility.yul\":483:488   */\n      dup2\n        /* \"#utility.yul\":480:515   */\n      eq\n        /* \"#utility.yul\":470:533   */\n      tag_83\n      jumpi\n        /* \"#utility.yul\":529:530   */\n      0x00\n        /* \"#utility.yul\":526:527   */\n      dup1\n        /* \"#utility.yul\":519:531   */\n      revert\n        /* \"#utility.yul\":470:533   */\n    tag_83:\n        /* \"#utility.yul\":417:539   */\n      pop\n      jump\t// out\n        /* \"#utility.yul\":545:684   */\n    tag_39:\n        /* \"#utility.yul\":591:596   */\n      0x00\n        /* \"#utility.yul\":629:635   */\n      dup2\n        /* \"#utility.yul\":616:636   */\n      calldataload\n        /* \"#utility.yul\":607:636   */\n      swap1\n      pop\n        /* \"#utility.yul\":645:678   */\n      tag_85\n        /* \"#utility.yul\":672:677   */\n      dup2\n        /* \"#utility.yul\":645:678   */\n      tag_38\n      jump\t// in\n    tag_85:\n        /* \"#utility.yul\":545:684   */\n      swap3\n      swap2\n      pop\n      pop\n      jump\t// out\n        /* \"#utility.yul\":690:1019   */\n    tag_8:\n        /* \"#utility.yul\":749:755   */\n      0x00\n        /* \"#utility.yul\":798:800   */\n      0x20\n        /* \"#utility.yul\":786:795   */\n      dup3\n        /* \"#utility.yul\":777:784   */\n      dup5\n        /* \"#utility.yul\":773:796   */\n      sub\n        /* \"#utility.yul\":769:801   */\n      slt\n        /* \"#utility.yul\":766:885   */\n      iszero\n      tag_87\n      jumpi\n        /* \"#utility.yul\":804:883   */\n      tag_88\n      tag_35\n      jump\t// in\n    tag_88:\n        /* \"#utility.yul\":766:885   */\n    tag_87:\n        /* \"#utility.yul\":924:925   */\n      0x00\n        /* \"#utility.yul\":949:1002   */\n      tag_89\n        /* \"#utility.yul\":994:1001   */\n      dup5\n        /* \"#utility.yul\":985:991   */\n      dup3\n        /* \"#utility.yul\":974:983   */\n      dup6\n        /* \"#utility.yul\":970:992   */\n      add\n        /* \"#utility.yul\":949:1002   */\n      tag_39\n      jump\t// in\n    tag_89:\n        /* \"#utility.yul\":939:1002   */\n      swap2\n      pop\n        /* \"#utility.yul\":895:1012   */\n      pop\n        /* \"#utility.yul\":690:1019   */\n      swap3\n      swap2\n      pop\n      pop\n      jump\t// out\n        /* \"#utility.yul\":1025:1151   */\n    tag_40:\n        /* \"#utility.yul\":1062:1069   */\n      0x00\n        /* \"#utility.yul\":1102:1144   */\n      0xffffffffffffffffffffffffffffffffffffffff\n        /* \"#utility.yul\":1095:1100   */\n      dup3\n        /* \"#utility.yul\":1091:1145   */\n      and\n        /* \"#utility.yul\":1080:1145   */\n      swap1\n      pop\n        /* \"#utility.yul\":1025:1151   */\n      swap2\n      swap1\n      pop\n      jump\t// out\n        /* \"#utility.yul\":1157:1253   */\n    tag_41:\n        /* \"#utility.yul\":1194:1201   */\n      0x00\n        /* \"#utility.yul\":1223:1247   */\n      tag_92\n        /* \"#utility.yul\":1241:1246   */\n      dup3\n        /* \"#utility.yul\":1223:1247   */\n      tag_40\n      jump\t// in\n    tag_92:\n        /* \"#utility.yul\":1212:1247   */\n      swap1\n      pop\n        /* \"#utility.yul\":1157:1253   */\n      swap2\n      swap1\n      pop\n      jump\t// out\n        /* \"#utility.yul\":1259:1377   */\n    tag_42:\n        /* \"#utility.yul\":1346:1370   */\n      tag_94\n        /* \"#utility.yul\":1364:1369   */\n      dup2\n        /* \"#utility.yul\":1346:1370   */\n      tag_41\n      jump\t// in\n    tag_94:\n        /* \"#utility.yul\":1341:1344   */\n      dup3\n        /* \"#utility.yul\":1334:1371   */\n      mstore\n        /* \"#utility.yul\":1259:1377   */\n      pop\n      pop\n      jump\t// out\n        /* \"#utility.yul\":1383:1605   */\n    tag_11:\n        /* \"#utility.yul\":1476:1480   */\n      0x00\n        /* \"#utility.yul\":1514:1516   */\n      0x20\n        /* \"#utility.yul\":1503:1512   */\n      dup3\n        /* \"#utility.yul\":1499:1517   */\n      add\n        /* \"#utility.yul\":1491:1517   */\n      swap1\n      pop\n        /* \"#utility.yul\":1527:1598   */\n      tag_96\n        /* \"#utility.yul\":1595:1596   */\n      0x00\n        /* \"#utility.yul\":1584:1593   */\n      dup4\n        /* \"#utility.yul\":1580:1597   */\n      add\n        /* \"#utility.yul\":1571:1577   */\n      dup5\n        /* \"#utility.yul\":1527:1598   */\n      tag_42\n      jump\t// in\n    tag_96:\n        /* \"#utility.yul\":1383:1605   */\n      swap3\n      swap2\n      pop\n      pop\n      jump\t// out\n        /* \"#utility.yul\":1611:1725   */\n    tag_43:\n        /* \"#utility.yul\":1678:1684   */\n      0x00\n        /* \"#utility.yul\":1712:1717   */\n      dup2\n        /* \"#utility.yul\":1706:1718   */\n      mload\n        /* \"#utility.yul\":1696:1718   */\n      swap1\n      pop\n        /* \"#utility.yul\":1611:1725   */\n      swap2\n      swap1\n      pop\n      jump\t// out\n        /* \"#utility.yul\":1731:1915   */\n    tag_44:\n        /* \"#utility.yul\":1830:1841   */\n      0x00\n        /* \"#utility.yul\":1864:1870   */\n      dup3\n        /* \"#utility.yul\":1859:1862   */\n      dup3\n        /* \"#utility.yul\":1852:1871   */\n      mstore\n        /* \"#utility.yul\":1904:1908   */\n      0x20\n        /* \"#utility.yul\":1899:1902   */\n      dup3\n        /* \"#utility.yul\":1895:1909   */\n      add\n        /* \"#utility.yul\":1880:1909   */\n      swap1\n      pop\n        /* \"#utility.yul\":1731:1915   */\n      swap3\n      swap2\n      pop\n      pop\n      jump\t// out\n        /* \"#utility.yul\":1921:2053   */\n    tag_45:\n        /* \"#utility.yul\":1988:1992   */\n      0x00\n        /* \"#utility.yul\":2011:2014   */\n      dup2\n        /* \"#utility.yul\":2003:2014   */\n      swap1\n      pop\n        /* \"#utility.yul\":2041:2045   */\n      0x20\n        /* \"#utility.yul\":2036:2039   */\n      dup3\n        /* \"#utility.yul\":2032:2046   */\n      add\n        /* \"#utility.yul\":2024:2046   */\n      swap1\n      pop\n        /* \"#utility.yul\":1921:2053   */\n      swap2\n      swap1\n      pop\n      jump\t// out\n        /* \"#utility.yul\":2059:2167   */\n    tag_46:\n        /* \"#utility.yul\":2136:2160   */\n      tag_101\n        /* \"#utility.yul\":2154:2159   */\n      dup2\n        /* \"#utility.yul\":2136:2160   */\n      tag_41\n      jump\t// in\n    tag_101:\n        /* \"#utility.yul\":2131:2134   */\n      dup3\n        /* \"#utility.yul\":2124:2161   */\n      mstore\n        /* \"#utility.yul\":2059:2167   */\n      pop\n      pop\n      jump\t// out\n        /* \"#utility.yul\":2173:2352   */\n    tag_47:\n        /* \"#utility.yul\":2242:2252   */\n      0x00\n        /* \"#utility.yul\":2263:2309   */\n      tag_103\n        /* \"#utility.yul\":2305:2308   */\n      dup4\n        /* \"#utility.yul\":2297:2303   */\n      dup4\n        /* \"#utility.yul\":2263:2309   */\n      tag_46\n      jump\t// in\n    tag_103:\n        /* \"#utility.yul\":2341:2345   */\n      0x20\n        /* \"#utility.yul\":2336:2339   */\n      dup4\n        /* \"#utility.yul\":2332:2346   */\n      add\n        /* \"#utility.yul\":2318:2346   */\n      swap1\n      pop\n        /* \"#utility.yul\":2173:2352   */\n      swap3\n      swap2\n      pop\n      pop\n      jump\t// out\n        /* \"#utility.yul\":2358:2471   */\n    tag_48:\n        /* \"#utility.yul\":2428:2432   */\n      0x00\n        /* \"#utility.yul\":2460:2464   */\n      0x20\n        /* \"#utility.yul\":2455:2458   */\n      dup3\n        /* \"#utility.yul\":2451:2465   */\n      add\n        /* \"#utility.yul\":2443:2465   */\n      swap1\n      pop\n        /* \"#utility.yul\":2358:2471   */\n      swap2\n      swap1\n      pop\n      jump\t// out\n        /* \"#utility.yul\":2507:3239   */\n    tag_49:\n        /* \"#utility.yul\":2626:2629   */\n      0x00\n        /* \"#utility.yul\":2655:2709   */\n      tag_106\n        /* \"#utility.yul\":2703:2708   */\n      dup3\n        /* \"#utility.yul\":2655:2709   */\n      tag_43\n      jump\t// in\n    tag_106:\n        /* \"#utility.yul\":2725:2811   */\n      tag_107\n        /* \"#utility.yul\":2804:2810   */\n      dup2\n        /* \"#utility.yul\":2799:2802   */\n      dup6\n        /* \"#utility.yul\":2725:2811   */\n      tag_44\n      jump\t// in\n    tag_107:\n        /* \"#utility.yul\":2718:2811   */\n      swap4\n      pop\n        /* \"#utility.yul\":2835:2891   */\n      tag_108\n        /* \"#utility.yul\":2885:2890   */\n      dup4\n        /* \"#utility.yul\":2835:2891   */\n      tag_45\n      jump\t// in\n    tag_108:\n        /* \"#utility.yul\":2914:2921   */\n      dup1\n        /* \"#utility.yul\":2945:2946   */\n      0x00\n        /* \"#utility.yul\":2930:3214   */\n    tag_109:\n        /* \"#utility.yul\":2955:2961   */\n      dup4\n        /* \"#utility.yul\":2952:2953   */\n      dup2\n        /* \"#utility.yul\":2949:2962   */\n      lt\n        /* \"#utility.yul\":2930:3214   */\n      iszero\n      tag_111\n      jumpi\n        /* \"#utility.yul\":3031:3037   */\n      dup2\n        /* \"#utility.yul\":3025:3038   */\n      mload\n        /* \"#utility.yul\":3058:3121   */\n      tag_112\n        /* \"#utility.yul\":3117:3120   */\n      dup9\n        /* \"#utility.yul\":3102:3115   */\n      dup3\n        /* \"#utility.yul\":3058:3121   */\n      tag_47\n      jump\t// in\n    tag_112:\n        /* \"#utility.yul\":3051:3121   */\n      swap8\n      pop\n        /* \"#utility.yul\":3144:3204   */\n      tag_113\n        /* \"#utility.yul\":3197:3203   */\n      dup4\n        /* \"#utility.yul\":3144:3204   */\n      tag_48\n      jump\t// in\n    tag_113:\n        /* \"#utility.yul\":3134:3204   */\n      swap3\n      pop\n        /* \"#utility.yul\":2990:3214   */\n      pop\n        /* \"#utility.yul\":2977:2978   */\n      0x01\n        /* \"#utility.yul\":2974:2975   */\n      dup2\n        /* \"#utility.yul\":2970:2979   */\n      add\n        /* \"#utility.yul\":2965:2979   */\n      swap1\n      pop\n        /* \"#utility.yul\":2930:3214   */\n      jump(tag_109)\n    tag_111:\n        /* \"#utility.yul\":2934:2948   */\n      pop\n        /* \"#utility.yul\":3230:3233   */\n      dup6\n        /* \"#utility.yul\":3223:3233   */\n      swap4\n      pop\n        /* \"#utility.yul\":2631:3239   */\n      pop\n      pop\n      pop\n        /* \"#utility.yul\":2507:3239   */\n      swap3\n      swap2\n      pop\n      pop\n      jump\t// out\n        /* \"#utility.yul\":3245:3618   */\n    tag_16:\n        /* \"#utility.yul\":3388:3392   */\n      0x00\n        /* \"#utility.yul\":3426:3428   */\n      0x20\n        /* \"#utility.yul\":3415:3424   */\n      dup3\n        /* \"#utility.yul\":3411:3429   */\n      add\n        /* \"#utility.yul\":3403:3429   */\n      swap1\n      pop\n        /* \"#utility.yul\":3475:3484   */\n      dup2\n        /* \"#utility.yul\":3469:3473   */\n      dup2\n        /* \"#utility.yul\":3465:3485   */\n      sub\n        /* \"#utility.yul\":3461:3462   */\n      0x00\n        /* \"#utility.yul\":3450:3459   */\n      dup4\n        /* \"#utility.yul\":3446:3463   */\n      add\n        /* \"#utility.yul\":3439:3486   */\n      mstore\n        /* \"#utility.yul\":3503:3611   */\n      tag_115\n        /* \"#utility.yul\":3606:3610   */\n      dup2\n        /* \"#utility.yul\":3597:3603   */\n      dup5\n        /* \"#utility.yul\":3503:3611   */\n      tag_49\n      jump\t// in\n    tag_115:\n        /* \"#utility.yul\":3495:3611   */\n      swap1\n      pop\n        /* \"#utility.yul\":3245:3618   */\n      swap3\n      swap2\n      pop\n      pop\n      jump\t// out\n        /* \"#utility.yul\":3624:3741   */\n    tag_50:\n        /* \"#utility.yul\":3733:3734   */\n      0x00\n        /* \"#utility.yul\":3730:3731   */\n      dup1\n        /* \"#utility.yul\":3723:3735   */\n      revert\n        /* \"#utility.yul\":3747:3864   */\n    tag_51:\n        /* \"#utility.yul\":3856:3857   */\n      0x00\n        /* \"#utility.yul\":3853:3854   */\n      dup1\n        /* \"#utility.yul\":3846:3858   */\n      revert\n        /* \"#utility.yul\":3870:3972   */\n    tag_52:\n        /* \"#utility.yul\":3911:3917   */\n      0x00\n        /* \"#utility.yul\":3962:3964   */\n      0x1f\n        /* \"#utility.yul\":3958:3965   */\n      not\n        /* \"#utility.yul\":3953:3955   */\n      0x1f\n        /* \"#utility.yul\":3946:3951   */\n      dup4\n        /* \"#utility.yul\":3942:3956   */\n      add\n        /* \"#utility.yul\":3938:3966   */\n      and\n        /* \"#utility.yul\":3928:3966   */\n      swap1\n      pop\n        /* \"#utility.yul\":3870:3972   */\n      swap2\n      swap1\n      pop\n      jump\t// out\n        /* \"#utility.yul\":3978:4158   */\n    tag_53:\n        /* \"#utility.yul\":4026:4103   */\n      0x4e487b7100000000000000000000000000000000000000000000000000000000\n        /* \"#utility.yul\":4023:4024   */\n      0x00\n        /* \"#utility.yul\":4016:4104   */\n      mstore\n        /* \"#utility.yul\":4123:4127   */\n      0x41\n        /* \"#utility.yul\":4120:4121   */\n      0x04\n        /* \"#utility.yul\":4113:4128   */\n      mstore\n        /* \"#utility.yul\":4147:4151   */\n      0x24\n        /* \"#utility.yul\":4144:4145   */\n      0x00\n        /* \"#utility.yul\":4137:4152   */\n      revert\n        /* \"#utility.yul\":4164:4445   */\n    tag_54:\n        /* \"#utility.yul\":4247:4274   */\n      tag_121\n        /* \"#utility.yul\":4269:4273   */\n      dup3\n        /* \"#utility.yul\":4247:4274   */\n      tag_52\n      jump\t// in\n    tag_121:\n        /* \"#utility.yul\":4239:4245   */\n      dup2\n        /* \"#utility.yul\":4235:4275   */\n      add\n        /* \"#utility.yul\":4377:4383   */\n      dup2\n        /* \"#utility.yul\":4365:4375   */\n      dup2\n        /* \"#utility.yul\":4362:4384   */\n      lt\n        /* \"#utility.yul\":4341:4359   */\n      0xffffffffffffffff\n        /* \"#utility.yul\":4329:4339   */\n      dup3\n        /* \"#utility.yul\":4326:4360   */\n      gt\n        /* \"#utility.yul\":4323:4385   */\n      or\n        /* \"#utility.yul\":4320:4408   */\n      iszero\n      tag_122\n      jumpi\n        /* \"#utility.yul\":4388:4406   */\n      tag_123\n      tag_53\n      jump\t// in\n    tag_123:\n        /* \"#utility.yul\":4320:4408   */\n    tag_122:\n        /* \"#utility.yul\":4428:4438   */\n      dup1\n        /* \"#utility.yul\":4424:4426   */\n      0x40\n        /* \"#utility.yul\":4417:4439   */\n      mstore\n        /* \"#utility.yul\":4207:4445   */\n      pop\n        /* \"#utility.yul\":4164:4445   */\n      pop\n      pop\n      jump\t// out\n        /* \"#utility.yul\":4451:4580   */\n    tag_55:\n        /* \"#utility.yul\":4485:4491   */\n      0x00\n        /* \"#utility.yul\":4512:4532   */\n      tag_125\n      tag_34\n      jump\t// in\n    tag_125:\n        /* \"#utility.yul\":4502:4532   */\n      swap1\n      pop\n        /* \"#utility.yul\":4541:4574   */\n      tag_126\n        /* \"#utility.yul\":4569:4573   */\n      dup3\n        /* \"#utility.yul\":4561:4567   */\n      dup3\n        /* \"#utility.yul\":4541:4574   */\n      tag_54\n      jump\t// in\n    tag_126:\n        /* \"#utility.yul\":4451:4580   */\n      swap2\n      swap1\n      pop\n      jump\t// out\n        /* \"#utility.yul\":4586:4894   */\n    tag_56:\n        /* \"#utility.yul\":4648:4652   */\n      0x00\n        /* \"#utility.yul\":4738:4756   */\n      0xffffffffffffffff\n        /* \"#utility.yul\":4730:4736   */\n      dup3\n        /* \"#utility.yul\":4727:4757   */\n      gt\n        /* \"#utility.yul\":4724:4780   */\n      iszero\n      tag_128\n      jumpi\n        /* \"#utility.yul\":4760:4778   */\n      tag_129\n      tag_53\n      jump\t// in\n    tag_129:\n        /* \"#utility.yul\":4724:4780   */\n    tag_128:\n        /* \"#utility.yul\":4798:4827   */\n      tag_130\n        /* \"#utility.yul\":4820:4826   */\n      dup3\n        /* \"#utility.yul\":4798:4827   */\n      tag_52\n      jump\t// in\n    tag_130:\n        /* \"#utility.yul\":4790:4827   */\n      swap1\n      pop\n        /* \"#utility.yul\":4882:4886   */\n      0x20\n        /* \"#utility.yul\":4876:4880   */\n      dup2\n        /* \"#utility.yul\":4872:4887   */\n      add\n        /* \"#utility.yul\":4864:4887   */\n      swap1\n      pop\n        /* \"#utility.yul\":4586:4894   */\n      swap2\n      swap1\n      pop\n      jump\t// out\n        /* \"#utility.yul\":4900:5054   */\n    tag_57:\n        /* \"#utility.yul\":4984:4990   */\n      dup3\n        /* \"#utility.yul\":4979:4982   */\n      dup2\n        /* \"#utility.yul\":4974:4977   */\n      dup4\n        /* \"#utility.yul\":4961:4991   */\n      calldatacopy\n        /* \"#utility.yul\":5046:5047   */\n      0x00\n        /* \"#utility.yul\":5037:5043   */\n      dup4\n        /* \"#utility.yul\":5032:5035   */\n      dup4\n        /* \"#utility.yul\":5028:5044   */\n      add\n        /* \"#utility.yul\":5021:5048   */\n      mstore\n        /* \"#utility.yul\":4900:5054   */\n      pop\n      pop\n      pop\n      jump\t// out\n        /* \"#utility.yul\":5060:5472   */\n    tag_58:\n        /* \"#utility.yul\":5138:5143   */\n      0x00\n        /* \"#utility.yul\":5163:5229   */\n      tag_133\n        /* \"#utility.yul\":5179:5228   */\n      tag_134\n        /* \"#utility.yul\":5221:5227   */\n      dup5\n        /* \"#utility.yul\":5179:5228   */\n      tag_56\n      jump\t// in\n    tag_134:\n        /* \"#utility.yul\":5163:5229   */\n      tag_55\n      jump\t// in\n    tag_133:\n        /* \"#utility.yul\":5154:5229   */\n      swap1\n      pop\n        /* \"#utility.yul\":5252:5258   */\n      dup3\n        /* \"#utility.yul\":5245:5250   */\n      dup2\n        /* \"#utility.yul\":5238:5259   */\n      mstore\n        /* \"#utility.yul\":5290:5294   */\n      0x20\n        /* \"#utility.yul\":5283:5288   */\n      dup2\n        /* \"#utility.yul\":5279:5295   */\n      add\n        /* \"#utility.yul\":5328:5331   */\n      dup5\n        /* \"#utility.yul\":5319:5325   */\n      dup5\n        /* \"#utility.yul\":5314:5317   */\n      dup5\n        /* \"#utility.yul\":5310:5326   */\n      add\n        /* \"#utility.yul\":5307:5332   */\n      gt\n        /* \"#utility.yul\":5304:5416   */\n      iszero\n      tag_135\n      jumpi\n        /* \"#utility.yul\":5335:5414   */\n      tag_136\n      tag_51\n      jump\t// in\n    tag_136:\n        /* \"#utility.yul\":5304:5416   */\n    tag_135:\n        /* \"#utility.yul\":5425:5466   */\n      tag_137\n        /* \"#utility.yul\":5459:5465   */\n      dup5\n        /* \"#utility.yul\":5454:5457   */\n      dup3\n        /* \"#utility.yul\":5449:5452   */\n      dup6\n        /* \"#utility.yul\":5425:5466   */\n      tag_57\n      jump\t// in\n    tag_137:\n        /* \"#utility.yul\":5144:5472   */\n      pop\n        /* \"#utility.yul\":5060:5472   */\n      swap4\n      swap3\n      pop\n      pop\n      pop\n      jump\t// out\n        /* \"#utility.yul\":5492:5832   */\n    tag_59:\n        /* \"#utility.yul\":5548:5553   */\n      0x00\n        /* \"#utility.yul\":5597:5600   */\n      dup3\n        /* \"#utility.yul\":5590:5594   */\n      0x1f\n        /* \"#utility.yul\":5582:5588   */\n      dup4\n        /* \"#utility.yul\":5578:5595   */\n      add\n        /* \"#utility.yul\":5574:5601   */\n      slt\n        /* \"#utility.yul\":5564:5686   */\n      tag_139\n      jumpi\n        /* \"#utility.yul\":5605:5684   */\n      tag_140\n      tag_50\n      jump\t// in\n    tag_140:\n        /* \"#utility.yul\":5564:5686   */\n    tag_139:\n        /* \"#utility.yul\":5722:5728   */\n      dup2\n        /* \"#utility.yul\":5709:5729   */\n      calldataload\n        /* \"#utility.yul\":5747:5826   */\n      tag_141\n        /* \"#utility.yul\":5822:5825   */\n      dup5\n        /* \"#utility.yul\":5814:5820   */\n      dup3\n        /* \"#utility.yul\":5807:5811   */\n      0x20\n        /* \"#utility.yul\":5799:5805   */\n      dup7\n        /* \"#utility.yul\":5795:5812   */\n      add\n        /* \"#utility.yul\":5747:5826   */\n      tag_58\n      jump\t// in\n    tag_141:\n        /* \"#utility.yul\":5738:5826   */\n      swap2\n      pop\n        /* \"#utility.yul\":5554:5832   */\n      pop\n        /* \"#utility.yul\":5492:5832   */\n      swap3\n      swap2\n      pop\n      pop\n      jump\t// out\n        /* \"#utility.yul\":5838:6159   */\n    tag_60:\n        /* \"#utility.yul\":5925:5929   */\n      0x00\n        /* \"#utility.yul\":6015:6033   */\n      0xffffffffffffffff\n        /* \"#utility.yul\":6007:6013   */\n      dup3\n        /* \"#utility.yul\":6004:6034   */\n      gt\n        /* \"#utility.yul\":6001:6057   */\n      iszero\n      tag_143\n      jumpi\n        /* \"#utility.yul\":6037:6055   */\n      tag_144\n      tag_53\n      jump\t// in\n    tag_144:\n        /* \"#utility.yul\":6001:6057   */\n    tag_143:\n        /* \"#utility.yul\":6087:6091   */\n      0x20\n        /* \"#utility.yul\":6079:6085   */\n      dup3\n        /* \"#utility.yul\":6075:6092   */\n      mul\n        /* \"#utility.yul\":6067:6092   */\n      swap1\n      pop\n        /* \"#utility.yul\":6147:6151   */\n      0x20\n        /* \"#utility.yul\":6141:6145   */\n      dup2\n        /* \"#utility.yul\":6137:6152   */\n      add\n        /* \"#utility.yul\":6129:6152   */\n      swap1\n      pop\n        /* \"#utility.yul\":5838:6159   */\n      swap2\n      swap1\n      pop\n      jump\t// out\n        /* \"#utility.yul\":6165:6282   */\n    tag_61:\n        /* \"#utility.yul\":6274:6275   */\n      0x00\n        /* \"#utility.yul\":6271:6272   */\n      dup1\n        /* \"#utility.yul\":6264:6276   */\n      revert\n        /* \"#utility.yul\":6304:7249   */\n    tag_62:\n        /* \"#utility.yul\":6410:6415   */\n      0x00\n        /* \"#utility.yul\":6435:6526   */\n      tag_147\n        /* \"#utility.yul\":6451:6525   */\n      tag_148\n        /* \"#utility.yul\":6518:6524   */\n      dup5\n        /* \"#utility.yul\":6451:6525   */\n      tag_60\n      jump\t// in\n    tag_148:\n        /* \"#utility.yul\":6435:6526   */\n      tag_55\n      jump\t// in\n    tag_147:\n        /* \"#utility.yul\":6426:6526   */\n      swap1\n      pop\n        /* \"#utility.yul\":6546:6551   */\n      dup1\n        /* \"#utility.yul\":6575:6581   */\n      dup4\n        /* \"#utility.yul\":6568:6573   */\n      dup3\n        /* \"#utility.yul\":6561:6582   */\n      mstore\n        /* \"#utility.yul\":6609:6613   */\n      0x20\n        /* \"#utility.yul\":6602:6607   */\n      dup3\n        /* \"#utility.yul\":6598:6614   */\n      add\n        /* \"#utility.yul\":6591:6614   */\n      swap1\n      pop\n        /* \"#utility.yul\":6662:6666   */\n      0x20\n        /* \"#utility.yul\":6654:6660   */\n      dup5\n        /* \"#utility.yul\":6650:6667   */\n      mul\n        /* \"#utility.yul\":6642:6648   */\n      dup4\n        /* \"#utility.yul\":6638:6668   */\n      add\n        /* \"#utility.yul\":6691:6694   */\n      dup6\n        /* \"#utility.yul\":6683:6689   */\n      dup2\n        /* \"#utility.yul\":6680:6695   */\n      gt\n        /* \"#utility.yul\":6677:6799   */\n      iszero\n      tag_149\n      jumpi\n        /* \"#utility.yul\":6710:6789   */\n      tag_150\n      tag_61\n      jump\t// in\n    tag_150:\n        /* \"#utility.yul\":6677:6799   */\n    tag_149:\n        /* \"#utility.yul\":6825:6831   */\n      dup4\n        /* \"#utility.yul\":6808:7243   */\n    tag_151:\n        /* \"#utility.yul\":6842:6848   */\n      dup2\n        /* \"#utility.yul\":6837:6840   */\n      dup2\n        /* \"#utility.yul\":6834:6849   */\n      lt\n        /* \"#utility.yul\":6808:7243   */\n      iszero\n      tag_153\n      jumpi\n        /* \"#utility.yul\":6931:6934   */\n      dup1\n        /* \"#utility.yul\":6918:6935   */\n      calldataload\n        /* \"#utility.yul\":6967:6985   */\n      0xffffffffffffffff\n        /* \"#utility.yul\":6954:6965   */\n      dup2\n        /* \"#utility.yul\":6951:6986   */\n      gt\n        /* \"#utility.yul\":6948:7070   */\n      iszero\n      tag_154\n      jumpi\n        /* \"#utility.yul\":6989:7068   */\n      tag_155\n      tag_50\n      jump\t// in\n    tag_155:\n        /* \"#utility.yul\":6948:7070   */\n    tag_154:\n        /* \"#utility.yul\":7113:7124   */\n      dup1\n        /* \"#utility.yul\":7105:7111   */\n      dup7\n        /* \"#utility.yul\":7101:7125   */\n      add\n        /* \"#utility.yul\":7151:7198   */\n      tag_156\n        /* \"#utility.yul\":7194:7197   */\n      dup10\n        /* \"#utility.yul\":7182:7192   */\n      dup3\n        /* \"#utility.yul\":7151:7198   */\n      tag_59\n      jump\t// in\n    tag_156:\n        /* \"#utility.yul\":7146:7149   */\n      dup6\n        /* \"#utility.yul\":7139:7199   */\n      mstore\n        /* \"#utility.yul\":7228:7232   */\n      0x20\n        /* \"#utility.yul\":7223:7226   */\n      dup6\n        /* \"#utility.yul\":7219:7233   */\n      add\n        /* \"#utility.yul\":7212:7233   */\n      swap5\n      pop\n        /* \"#utility.yul\":6884:7243   */\n      pop\n      pop\n        /* \"#utility.yul\":6868:6872   */\n      0x20\n        /* \"#utility.yul\":6863:6866   */\n      dup2\n        /* \"#utility.yul\":6859:6873   */\n      add\n        /* \"#utility.yul\":6852:6873   */\n      swap1\n      pop\n        /* \"#utility.yul\":6808:7243   */\n      jump(tag_151)\n    tag_153:\n        /* \"#utility.yul\":6812:6833   */\n      pop\n        /* \"#utility.yul\":6416:7249   */\n      pop\n      pop\n        /* \"#utility.yul\":6304:7249   */\n      swap4\n      swap3\n      pop\n      pop\n      pop\n      jump\t// out\n        /* \"#utility.yul\":7271:7661   */\n    tag_63:\n        /* \"#utility.yul\":7352:7357   */\n      0x00\n        /* \"#utility.yul\":7401:7404   */\n      dup3\n        /* \"#utility.yul\":7394:7398   */\n      0x1f\n        /* \"#utility.yul\":7386:7392   */\n      dup4\n        /* \"#utility.yul\":7382:7399   */\n      add\n        /* \"#utility.yul\":7378:7405   */\n      slt\n        /* \"#utility.yul\":7368:7490   */\n      tag_158\n      jumpi\n        /* \"#utility.yul\":7409:7488   */\n      tag_159\n      tag_50\n      jump\t// in\n    tag_159:\n        /* \"#utility.yul\":7368:7490   */\n    tag_158:\n        /* \"#utility.yul\":7526:7532   */\n      dup2\n        /* \"#utility.yul\":7513:7533   */\n      calldataload\n        /* \"#utility.yul\":7551:7655   */\n      tag_160\n        /* \"#utility.yul\":7651:7654   */\n      dup5\n        /* \"#utility.yul\":7643:7649   */\n      dup3\n        /* \"#utility.yul\":7636:7640   */\n      0x20\n        /* \"#utility.yul\":7628:7634   */\n      dup7\n        /* \"#utility.yul\":7624:7641   */\n      add\n        /* \"#utility.yul\":7551:7655   */\n      tag_62\n      jump\t// in\n    tag_160:\n        /* \"#utility.yul\":7542:7655   */\n      swap2\n      pop\n        /* \"#utility.yul\":7358:7661   */\n      pop\n        /* \"#utility.yul\":7271:7661   */\n      swap3\n      swap2\n      pop\n      pop\n      jump\t// out\n        /* \"#utility.yul\":7667:9578   */\n    tag_19:\n        /* \"#utility.yul\":7862:7868   */\n      0x00\n        /* \"#utility.yul\":7870:7876   */\n      dup1\n        /* \"#utility.yul\":7878:7884   */\n      0x00\n        /* \"#utility.yul\":7886:7892   */\n      dup1\n        /* \"#utility.yul\":7894:7900   */\n      0x00\n        /* \"#utility.yul\":7943:7946   */\n      0xa0\n        /* \"#utility.yul\":7931:7940   */\n      dup7\n        /* \"#utility.yul\":7922:7929   */\n      dup9\n        /* \"#utility.yul\":7918:7941   */\n      sub\n        /* \"#utility.yul\":7914:7947   */\n      slt\n        /* \"#utility.yul\":7911:8031   */\n      iszero\n      tag_162\n      jumpi\n        /* \"#utility.yul\":7950:8029   */\n      tag_163\n      tag_35\n      jump\t// in\n    tag_163:\n        /* \"#utility.yul\":7911:8031   */\n    tag_162:\n        /* \"#utility.yul\":8098:8099   */\n      0x00\n        /* \"#utility.yul\":8087:8096   */\n      dup7\n        /* \"#utility.yul\":8083:8100   */\n      add\n        /* \"#utility.yul\":8070:8101   */\n      calldataload\n        /* \"#utility.yul\":8128:8146   */\n      0xffffffffffffffff\n        /* \"#utility.yul\":8120:8126   */\n      dup2\n        /* \"#utility.yul\":8117:8147   */\n      gt\n        /* \"#utility.yul\":8114:8231   */\n      iszero\n      tag_164\n      jumpi\n        /* \"#utility.yul\":8150:8229   */\n      tag_165\n      tag_36\n      jump\t// in\n    tag_165:\n        /* \"#utility.yul\":8114:8231   */\n    tag_164:\n        /* \"#utility.yul\":8255:8318   */\n      tag_166\n        /* \"#utility.yul\":8310:8317   */\n      dup9\n        /* \"#utility.yul\":8301:8307   */\n      dup3\n        /* \"#utility.yul\":8290:8299   */\n      dup10\n        /* \"#utility.yul\":8286:8308   */\n      add\n        /* \"#utility.yul\":8255:8318   */\n      tag_59\n      jump\t// in\n    tag_166:\n        /* \"#utility.yul\":8245:8318   */\n      swap6\n      pop\n        /* \"#utility.yul\":8041:8328   */\n      pop\n        /* \"#utility.yul\":8395:8397   */\n      0x20\n        /* \"#utility.yul\":8384:8393   */\n      dup7\n        /* \"#utility.yul\":8380:8398   */\n      add\n        /* \"#utility.yul\":8367:8399   */\n      calldataload\n        /* \"#utility.yul\":8426:8444   */\n      0xffffffffffffffff\n        /* \"#utility.yul\":8418:8424   */\n      dup2\n        /* \"#utility.yul\":8415:8445   */\n      gt\n        /* \"#utility.yul\":8412:8529   */\n      iszero\n      tag_167\n      jumpi\n        /* \"#utility.yul\":8448:8527   */\n      tag_168\n      tag_36\n      jump\t// in\n    tag_168:\n        /* \"#utility.yul\":8412:8529   */\n    tag_167:\n        /* \"#utility.yul\":8553:8616   */\n      tag_169\n        /* \"#utility.yul\":8608:8615   */\n      dup9\n        /* \"#utility.yul\":8599:8605   */\n      dup3\n        /* \"#utility.yul\":8588:8597   */\n      dup10\n        /* \"#utility.yul\":8584:8606   */\n      add\n        /* \"#utility.yul\":8553:8616   */\n      tag_59\n      jump\t// in\n    tag_169:\n        /* \"#utility.yul\":8543:8616   */\n      swap5\n      pop\n        /* \"#utility.yul\":8338:8626   */\n      pop\n        /* \"#utility.yul\":8693:8695   */\n      0x40\n        /* \"#utility.yul\":8682:8691   */\n      dup7\n        /* \"#utility.yul\":8678:8696   */\n      add\n        /* \"#utility.yul\":8665:8697   */\n      calldataload\n        /* \"#utility.yul\":8724:8742   */\n      0xffffffffffffffff\n        /* \"#utility.yul\":8716:8722   */\n      dup2\n        /* \"#utility.yul\":8713:8743   */\n      gt\n        /* \"#utility.yul\":8710:8827   */\n      iszero\n      tag_170\n      jumpi\n        /* \"#utility.yul\":8746:8825   */\n      tag_171\n      tag_36\n      jump\t// in\n    tag_171:\n        /* \"#utility.yul\":8710:8827   */\n    tag_170:\n        /* \"#utility.yul\":8851:8914   */\n      tag_172\n        /* \"#utility.yul\":8906:8913   */\n      dup9\n        /* \"#utility.yul\":8897:8903   */\n      dup3\n        /* \"#utility.yul\":8886:8895   */\n      dup10\n        /* \"#utility.yul\":8882:8904   */\n      add\n        /* \"#utility.yul\":8851:8914   */\n      tag_59\n      jump\t// in\n    tag_172:\n        /* \"#utility.yul\":8841:8914   */\n      swap4\n      pop\n        /* \"#utility.yul\":8636:8924   */\n      pop\n        /* \"#utility.yul\":8991:8993   */\n      0x60\n        /* \"#utility.yul\":8980:8989   */\n      dup7\n        /* \"#utility.yul\":8976:8994   */\n      add\n        /* \"#utility.yul\":8963:8995   */\n      calldataload\n        /* \"#utility.yul\":9022:9040   */\n      0xffffffffffffffff\n        /* \"#utility.yul\":9014:9020   */\n      dup2\n        /* \"#utility.yul\":9011:9041   */\n      gt\n        /* \"#utility.yul\":9008:9125   */\n      iszero\n      tag_173\n      jumpi\n        /* \"#utility.yul\":9044:9123   */\n      tag_174\n      tag_36\n      jump\t// in\n    tag_174:\n        /* \"#utility.yul\":9008:9125   */\n    tag_173:\n        /* \"#utility.yul\":9149:9237   */\n      tag_175\n        /* \"#utility.yul\":9229:9236   */\n      dup9\n        /* \"#utility.yul\":9220:9226   */\n      dup3\n        /* \"#utility.yul\":9209:9218   */\n      dup10\n        /* \"#utility.yul\":9205:9227   */\n      add\n        /* \"#utility.yul\":9149:9237   */\n      tag_63\n      jump\t// in\n    tag_175:\n        /* \"#utility.yul\":9139:9237   */\n      swap3\n      pop\n        /* \"#utility.yul\":8934:9247   */\n      pop\n        /* \"#utility.yul\":9314:9317   */\n      0x80\n        /* \"#utility.yul\":9303:9312   */\n      dup7\n        /* \"#utility.yul\":9299:9318   */\n      add\n        /* \"#utility.yul\":9286:9319   */\n      calldataload\n        /* \"#utility.yul\":9346:9364   */\n      0xffffffffffffffff\n        /* \"#utility.yul\":9338:9344   */\n      dup2\n        /* \"#utility.yul\":9335:9365   */\n      gt\n        /* \"#utility.yul\":9332:9449   */\n      iszero\n      tag_176\n      jumpi\n        /* \"#utility.yul\":9368:9447   */\n      tag_177\n      tag_36\n      jump\t// in\n    tag_177:\n        /* \"#utility.yul\":9332:9449   */\n    tag_176:\n        /* \"#utility.yul\":9473:9561   */\n      tag_178\n        /* \"#utility.yul\":9553:9560   */\n      dup9\n        /* \"#utility.yul\":9544:9550   */\n      dup3\n        /* \"#utility.yul\":9533:9542   */\n      dup10\n        /* \"#utility.yul\":9529:9551   */\n      add\n        /* \"#utility.yul\":9473:9561   */\n      tag_63\n      jump\t// in\n    tag_178:\n        /* \"#utility.yul\":9463:9561   */\n      swap2\n      pop\n        /* \"#utility.yul\":9257:9571   */\n      pop\n        /* \"#utility.yul\":7667:9578   */\n      swap3\n      swap6\n      pop\n      swap3\n      swap6\n      swap1\n      swap4\n      pop\n      jump\t// out\n        /* \"#utility.yul\":9584:9683   */\n    tag_64:\n        /* \"#utility.yul\":9636:9642   */\n      0x00\n        /* \"#utility.yul\":9670:9675   */\n      dup2\n        /* \"#utility.yul\":9664:9676   */\n      mload\n        /* \"#utility.yul\":9654:9676   */\n      swap1\n      pop\n        /* \"#utility.yul\":9584:9683   */\n      swap2\n      swap1\n      pop\n      jump\t// out\n        /* \"#utility.yul\":9689:9858   */\n    tag_65:\n        /* \"#utility.yul\":9773:9784   */\n      0x00\n        /* \"#utility.yul\":9807:9813   */\n      dup3\n        /* \"#utility.yul\":9802:9805   */\n      dup3\n        /* \"#utility.yul\":9795:9814   */\n      mstore\n        /* \"#utility.yul\":9847:9851   */\n      0x20\n        /* \"#utility.yul\":9842:9845   */\n      dup3\n        /* \"#utility.yul\":9838:9852   */\n      add\n        /* \"#utility.yul\":9823:9852   */\n      swap1\n      pop\n        /* \"#utility.yul\":9689:9858   */\n      swap3\n      swap2\n      pop\n      pop\n      jump\t// out\n        /* \"#utility.yul\":9864:10171   */\n    tag_66:\n        /* \"#utility.yul\":9932:9933   */\n      0x00\n        /* \"#utility.yul\":9942:10055   */\n    tag_182:\n        /* \"#utility.yul\":9956:9962   */\n      dup4\n        /* \"#utility.yul\":9953:9954   */\n      dup2\n        /* \"#utility.yul\":9950:9963   */\n      lt\n        /* \"#utility.yul\":9942:10055   */\n      iszero\n      tag_184\n      jumpi\n        /* \"#utility.yul\":10041:10042   */\n      dup1\n        /* \"#utility.yul\":10036:10039   */\n      dup3\n        /* \"#utility.yul\":10032:10043   */\n      add\n        /* \"#utility.yul\":10026:10044   */\n      mload\n        /* \"#utility.yul\":10022:10023   */\n      dup2\n        /* \"#utility.yul\":10017:10020   */\n      dup5\n        /* \"#utility.yul\":10013:10024   */\n      add\n        /* \"#utility.yul\":10006:10045   */\n      mstore\n        /* \"#utility.yul\":9978:9980   */\n      0x20\n        /* \"#utility.yul\":9975:9976   */\n      dup2\n        /* \"#utility.yul\":9971:9981   */\n      add\n        /* \"#utility.yul\":9966:9981   */\n      swap1\n      pop\n        /* \"#utility.yul\":9942:10055   */\n      jump(tag_182)\n    tag_184:\n        /* \"#utility.yul\":10073:10079   */\n      dup4\n        /* \"#utility.yul\":10070:10071   */\n      dup2\n        /* \"#utility.yul\":10067:10080   */\n      gt\n        /* \"#utility.yul\":10064:10165   */\n      iszero\n      tag_185\n      jumpi\n        /* \"#utility.yul\":10153:10154   */\n      0x00\n        /* \"#utility.yul\":10144:10150   */\n      dup5\n        /* \"#utility.yul\":10139:10142   */\n      dup5\n        /* \"#utility.yul\":10135:10151   */\n      add\n        /* \"#utility.yul\":10128:10155   */\n      mstore\n        /* \"#utility.yul\":10064:10165   */\n    tag_185:\n        /* \"#utility.yul\":9913:10171   */\n      pop\n        /* \"#utility.yul\":9864:10171   */\n      pop\n      pop\n      pop\n      jump\t// out\n        /* \"#utility.yul\":10177:10541   */\n    tag_67:\n        /* \"#utility.yul\":10265:10268   */\n      0x00\n        /* \"#utility.yul\":10293:10332   */\n      tag_187\n        /* \"#utility.yul\":10326:10331   */\n      dup3\n        /* \"#utility.yul\":10293:10332   */\n      tag_64\n      jump\t// in\n    tag_187:\n        /* \"#utility.yul\":10348:10419   */\n      tag_188\n        /* \"#utility.yul\":10412:10418   */\n      dup2\n        /* \"#utility.yul\":10407:10410   */\n      dup6\n        /* \"#utility.yul\":10348:10419   */\n      tag_65\n      jump\t// in\n    tag_188:\n        /* \"#utility.yul\":10341:10419   */\n      swap4\n      pop\n        /* \"#utility.yul\":10428:10480   */\n      tag_189\n        /* \"#utility.yul\":10473:10479   */\n      dup2\n        /* \"#utility.yul\":10468:10471   */\n      dup6\n        /* \"#utility.yul\":10461:10465   */\n      0x20\n        /* \"#utility.yul\":10454:10459   */\n      dup7\n        /* \"#utility.yul\":10450:10466   */\n      add\n        /* \"#utility.yul\":10428:10480   */\n      tag_66\n      jump\t// in\n    tag_189:\n        /* \"#utility.yul\":10505:10534   */\n      tag_190\n        /* \"#utility.yul\":10527:10533   */\n      dup2\n        /* \"#utility.yul\":10505:10534   */\n      tag_52\n      jump\t// in\n    tag_190:\n        /* \"#utility.yul\":10500:10503   */\n      dup5\n        /* \"#utility.yul\":10496:10535   */\n      add\n        /* \"#utility.yul\":10489:10535   */\n      swap2\n      pop\n        /* \"#utility.yul\":10269:10541   */\n      pop\n        /* \"#utility.yul\":10177:10541   */\n      swap3\n      swap2\n      pop\n      pop\n      jump\t// out\n        /* \"#utility.yul\":10547:10671   */\n    tag_68:\n        /* \"#utility.yul\":10624:10630   */\n      0x00\n        /* \"#utility.yul\":10658:10663   */\n      dup2\n        /* \"#utility.yul\":10652:10664   */\n      mload\n        /* \"#utility.yul\":10642:10664   */\n      swap1\n      pop\n        /* \"#utility.yul\":10547:10671   */\n      swap2\n      swap1\n      pop\n      jump\t// out\n        /* \"#utility.yul\":10677:10871   */\n    tag_69:\n        /* \"#utility.yul\":10786:10797   */\n      0x00\n        /* \"#utility.yul\":10820:10826   */\n      dup3\n        /* \"#utility.yul\":10815:10818   */\n      dup3\n        /* \"#utility.yul\":10808:10827   */\n      mstore\n        /* \"#utility.yul\":10860:10864   */\n      0x20\n        /* \"#utility.yul\":10855:10858   */\n      dup3\n        /* \"#utility.yul\":10851:10865   */\n      add\n        /* \"#utility.yul\":10836:10865   */\n      swap1\n      pop\n        /* \"#utility.yul\":10677:10871   */\n      swap3\n      swap2\n      pop\n      pop\n      jump\t// out\n        /* \"#utility.yul\":10877:11019   */\n    tag_70:\n        /* \"#utility.yul\":10954:10958   */\n      0x00\n        /* \"#utility.yul\":10977:10980   */\n      dup2\n        /* \"#utility.yul\":10969:10980   */\n      swap1\n      pop\n        /* \"#utility.yul\":11007:11011   */\n      0x20\n        /* \"#utility.yul\":11002:11005   */\n      dup3\n        /* \"#utility.yul\":10998:11012   */\n      add\n        /* \"#utility.yul\":10990:11012   */\n      swap1\n      pop\n        /* \"#utility.yul\":10877:11019   */\n      swap2\n      swap1\n      pop\n      jump\t// out\n        /* \"#utility.yul\":11025:11184   */\n    tag_71:\n        /* \"#utility.yul\":11099:11110   */\n      0x00\n        /* \"#utility.yul\":11133:11139   */\n      dup3\n        /* \"#utility.yul\":11128:11131   */\n      dup3\n        /* \"#utility.yul\":11121:11140   */\n      mstore\n        /* \"#utility.yul\":11173:11177   */\n      0x20\n        /* \"#utility.yul\":11168:11171   */\n      dup3\n        /* \"#utility.yul\":11164:11178   */\n      add\n        /* \"#utility.yul\":11149:11178   */\n      swap1\n      pop\n        /* \"#utility.yul\":11025:11184   */\n      swap3\n      swap2\n      pop\n      pop\n      jump\t// out\n        /* \"#utility.yul\":11190:11534   */\n    tag_72:\n        /* \"#utility.yul\":11268:11271   */\n      0x00\n        /* \"#utility.yul\":11296:11335   */\n      tag_196\n        /* \"#utility.yul\":11329:11334   */\n      dup3\n        /* \"#utility.yul\":11296:11335   */\n      tag_64\n      jump\t// in\n    tag_196:\n        /* \"#utility.yul\":11351:11412   */\n      tag_197\n        /* \"#utility.yul\":11405:11411   */\n      dup2\n        /* \"#utility.yul\":11400:11403   */\n      dup6\n        /* \"#utility.yul\":11351:11412   */\n      tag_71\n      jump\t// in\n    tag_197:\n        /* \"#utility.yul\":11344:11412   */\n      swap4\n      pop\n        /* \"#utility.yul\":11421:11473   */\n      tag_198\n        /* \"#utility.yul\":11466:11472   */\n      dup2\n        /* \"#utility.yul\":11461:11464   */\n      dup6\n        /* \"#utility.yul\":11454:11458   */\n      0x20\n        /* \"#utility.yul\":11447:11452   */\n      dup7\n        /* \"#utility.yul\":11443:11459   */\n      add\n        /* \"#utility.yul\":11421:11473   */\n      tag_66\n      jump\t// in\n    tag_198:\n        /* \"#utility.yul\":11498:11527   */\n      tag_199\n        /* \"#utility.yul\":11520:11526   */\n      dup2\n        /* \"#utility.yul\":11498:11527   */\n      tag_52\n      jump\t// in\n    tag_199:\n        /* \"#utility.yul\":11493:11496   */\n      dup5\n        /* \"#utility.yul\":11489:11528   */\n      add\n        /* \"#utility.yul\":11482:11528   */\n      swap2\n      pop\n        /* \"#utility.yul\":11272:11534   */\n      pop\n        /* \"#utility.yul\":11190:11534   */\n      swap3\n      swap2\n      pop\n      pop\n      jump\t// out\n        /* \"#utility.yul\":11540:11736   */\n    tag_73:\n        /* \"#utility.yul\":11629:11639   */\n      0x00\n        /* \"#utility.yul\":11664:11730   */\n      tag_201\n        /* \"#utility.yul\":11726:11729   */\n      dup4\n        /* \"#utility.yul\":11718:11724   */\n      dup4\n        /* \"#utility.yul\":11664:11730   */\n      tag_72\n      jump\t// in\n    tag_201:\n        /* \"#utility.yul\":11650:11730   */\n      swap1\n      pop\n        /* \"#utility.yul\":11540:11736   */\n      swap3\n      swap2\n      pop\n      pop\n      jump\t// out\n        /* \"#utility.yul\":11742:11865   */\n    tag_74:\n        /* \"#utility.yul\":11822:11826   */\n      0x00\n        /* \"#utility.yul\":11854:11858   */\n      0x20\n        /* \"#utility.yul\":11849:11852   */\n      dup3\n        /* \"#utility.yul\":11845:11859   */\n      add\n        /* \"#utility.yul\":11837:11859   */\n      swap1\n      pop\n        /* \"#utility.yul\":11742:11865   */\n      swap2\n      swap1\n      pop\n      jump\t// out\n        /* \"#utility.yul\":11899:12890   */\n    tag_75:\n        /* \"#utility.yul\":12038:12041   */\n      0x00\n        /* \"#utility.yul\":12067:12131   */\n      tag_204\n        /* \"#utility.yul\":12125:12130   */\n      dup3\n        /* \"#utility.yul\":12067:12131   */\n      tag_68\n      jump\t// in\n    tag_204:\n        /* \"#utility.yul\":12147:12243   */\n      tag_205\n        /* \"#utility.yul\":12236:12242   */\n      dup2\n        /* \"#utility.yul\":12231:12234   */\n      dup6\n        /* \"#utility.yul\":12147:12243   */\n      tag_69\n      jump\t// in\n    tag_205:\n        /* \"#utility.yul\":12140:12243   */\n      swap4\n      pop\n        /* \"#utility.yul\":12269:12272   */\n      dup4\n        /* \"#utility.yul\":12314:12318   */\n      0x20\n        /* \"#utility.yul\":12306:12312   */\n      dup3\n        /* \"#utility.yul\":12302:12319   */\n      mul\n        /* \"#utility.yul\":12297:12300   */\n      dup6\n        /* \"#utility.yul\":12293:12320   */\n      add\n        /* \"#utility.yul\":12344:12410   */\n      tag_206\n        /* \"#utility.yul\":12404:12409   */\n      dup6\n        /* \"#utility.yul\":12344:12410   */\n      tag_70\n      jump\t// in\n    tag_206:\n        /* \"#utility.yul\":12433:12440   */\n      dup1\n        /* \"#utility.yul\":12464:12465   */\n      0x00\n        /* \"#utility.yul\":12449:12845   */\n    tag_207:\n        /* \"#utility.yul\":12474:12480   */\n      dup6\n        /* \"#utility.yul\":12471:12472   */\n      dup2\n        /* \"#utility.yul\":12468:12481   */\n      lt\n        /* \"#utility.yul\":12449:12845   */\n      iszero\n      tag_209\n      jumpi\n        /* \"#utility.yul\":12545:12554   */\n      dup5\n        /* \"#utility.yul\":12539:12543   */\n      dup5\n        /* \"#utility.yul\":12535:12555   */\n      sub\n        /* \"#utility.yul\":12530:12533   */\n      dup10\n        /* \"#utility.yul\":12523:12556   */\n      mstore\n        /* \"#utility.yul\":12596:12602   */\n      dup2\n        /* \"#utility.yul\":12590:12603   */\n      mload\n        /* \"#utility.yul\":12624:12708   */\n      tag_210\n        /* \"#utility.yul\":12703:12707   */\n      dup6\n        /* \"#utility.yul\":12688:12701   */\n      dup3\n        /* \"#utility.yul\":12624:12708   */\n      tag_73\n      jump\t// in\n    tag_210:\n        /* \"#utility.yul\":12616:12708   */\n      swap5\n      pop\n        /* \"#utility.yul\":12731:12801   */\n      tag_211\n        /* \"#utility.yul\":12794:12800   */\n      dup4\n        /* \"#utility.yul\":12731:12801   */\n      tag_74\n      jump\t// in\n    tag_211:\n        /* \"#utility.yul\":12721:12801   */\n      swap3\n      pop\n        /* \"#utility.yul\":12830:12834   */\n      0x20\n        /* \"#utility.yul\":12825:12828   */\n      dup11\n        /* \"#utility.yul\":12821:12835   */\n      add\n        /* \"#utility.yul\":12814:12835   */\n      swap10\n      pop\n        /* \"#utility.yul\":12509:12845   */\n      pop\n        /* \"#utility.yul\":12496:12497   */\n      0x01\n        /* \"#utility.yul\":12493:12494   */\n      dup2\n        /* \"#utility.yul\":12489:12498   */\n      add\n        /* \"#utility.yul\":12484:12498   */\n      swap1\n      pop\n        /* \"#utility.yul\":12449:12845   */\n      jump(tag_207)\n    tag_209:\n        /* \"#utility.yul\":12453:12467   */\n      pop\n        /* \"#utility.yul\":12861:12865   */\n      dup3\n        /* \"#utility.yul\":12854:12865   */\n      swap8\n      pop\n        /* \"#utility.yul\":12881:12884   */\n      dup8\n        /* \"#utility.yul\":12874:12884   */\n      swap6\n      pop\n        /* \"#utility.yul\":12043:12890   */\n      pop\n      pop\n      pop\n      pop\n      pop\n        /* \"#utility.yul\":11899:12890   */\n      swap3\n      swap2\n      pop\n      pop\n      jump\t// out\n        /* \"#utility.yul\":12896:14326   */\n    tag_31:\n        /* \"#utility.yul\":13329:13333   */\n      0x00\n        /* \"#utility.yul\":13367:13370   */\n      0xc0\n        /* \"#utility.yul\":13356:13365   */\n      dup3\n        /* \"#utility.yul\":13352:13371   */\n      add\n        /* \"#utility.yul\":13344:13371   */\n      swap1\n      pop\n        /* \"#utility.yul\":13417:13426   */\n      dup2\n        /* \"#utility.yul\":13411:13415   */\n      dup2\n        /* \"#utility.yul\":13407:13427   */\n      sub\n        /* \"#utility.yul\":13403:13404   */\n      0x00\n        /* \"#utility.yul\":13392:13401   */\n      dup4\n        /* \"#utility.yul\":13388:13405   */\n      add\n        /* \"#utility.yul\":13381:13428   */\n      mstore\n        /* \"#utility.yul\":13445:13523   */\n      tag_213\n        /* \"#utility.yul\":13518:13522   */\n      dup2\n        /* \"#utility.yul\":13509:13515   */\n      dup10\n        /* \"#utility.yul\":13445:13523   */\n      tag_67\n      jump\t// in\n    tag_213:\n        /* \"#utility.yul\":13437:13523   */\n      swap1\n      pop\n        /* \"#utility.yul\":13570:13579   */\n      dup2\n        /* \"#utility.yul\":13564:13568   */\n      dup2\n        /* \"#utility.yul\":13560:13580   */\n      sub\n        /* \"#utility.yul\":13555:13557   */\n      0x20\n        /* \"#utility.yul\":13544:13553   */\n      dup4\n        /* \"#utility.yul\":13540:13558   */\n      add\n        /* \"#utility.yul\":13533:13581   */\n      mstore\n        /* \"#utility.yul\":13598:13676   */\n      tag_214\n        /* \"#utility.yul\":13671:13675   */\n      dup2\n        /* \"#utility.yul\":13662:13668   */\n      dup9\n        /* \"#utility.yul\":13598:13676   */\n      tag_67\n      jump\t// in\n    tag_214:\n        /* \"#utility.yul\":13590:13676   */\n      swap1\n      pop\n        /* \"#utility.yul\":13723:13732   */\n      dup2\n        /* \"#utility.yul\":13717:13721   */\n      dup2\n        /* \"#utility.yul\":13713:13733   */\n      sub\n        /* \"#utility.yul\":13708:13710   */\n      0x40\n        /* \"#utility.yul\":13697:13706   */\n      dup4\n        /* \"#utility.yul\":13693:13711   */\n      add\n        /* \"#utility.yul\":13686:13734   */\n      mstore\n        /* \"#utility.yul\":13751:13829   */\n      tag_215\n        /* \"#utility.yul\":13824:13828   */\n      dup2\n        /* \"#utility.yul\":13815:13821   */\n      dup8\n        /* \"#utility.yul\":13751:13829   */\n      tag_67\n      jump\t// in\n    tag_215:\n        /* \"#utility.yul\":13743:13829   */\n      swap1\n      pop\n        /* \"#utility.yul\":13876:13885   */\n      dup2\n        /* \"#utility.yul\":13870:13874   */\n      dup2\n        /* \"#utility.yul\":13866:13886   */\n      sub\n        /* \"#utility.yul\":13861:13863   */\n      0x60\n        /* \"#utility.yul\":13850:13859   */\n      dup4\n        /* \"#utility.yul\":13846:13864   */\n      add\n        /* \"#utility.yul\":13839:13887   */\n      mstore\n        /* \"#utility.yul\":13904:14032   */\n      tag_216\n        /* \"#utility.yul\":14027:14031   */\n      dup2\n        /* \"#utility.yul\":14018:14024   */\n      dup7\n        /* \"#utility.yul\":13904:14032   */\n      tag_75\n      jump\t// in\n    tag_216:\n        /* \"#utility.yul\":13896:14032   */\n      swap1\n      pop\n        /* \"#utility.yul\":14080:14089   */\n      dup2\n        /* \"#utility.yul\":14074:14078   */\n      dup2\n        /* \"#utility.yul\":14070:14090   */\n      sub\n        /* \"#utility.yul\":14064:14067   */\n      0x80\n        /* \"#utility.yul\":14053:14062   */\n      dup4\n        /* \"#utility.yul\":14049:14068   */\n      add\n        /* \"#utility.yul\":14042:14091   */\n      mstore\n        /* \"#utility.yul\":14108:14236   */\n      tag_217\n        /* \"#utility.yul\":14231:14235   */\n      dup2\n        /* \"#utility.yul\":14222:14228   */\n      dup6\n        /* \"#utility.yul\":14108:14236   */\n      tag_75\n      jump\t// in\n    tag_217:\n        /* \"#utility.yul\":14100:14236   */\n      swap1\n      pop\n        /* \"#utility.yul\":14246:14319   */\n      tag_218\n        /* \"#utility.yul\":14314:14317   */\n      0xa0\n        /* \"#utility.yul\":14303:14312   */\n      dup4\n        /* \"#utility.yul\":14299:14318   */\n      add\n        /* \"#utility.yul\":14290:14296   */\n      dup5\n        /* \"#utility.yul\":14246:14319   */\n      tag_42\n      jump\t// in\n    tag_218:\n        /* \"#utility.yul\":12896:14326   */\n      swap8\n      swap7\n      pop\n      pop\n      pop\n      pop\n      pop\n      pop\n      pop\n      jump\t// out\n    stop\n\n    sub_0: assembly {\n            /* \"Task.sol\":639:2734  contract Task {... */\n          mstore(0x40, 0x80)\n            /* \"Task.sol\":1173:1572  constructor(string memory header, string memory description, string memory sphere, string[] memory files, string[] memory hashtags, address newManager) payable {... */\n          mload(0x40)\n          sub(codesize, bytecodeSize)\n          dup1\n          bytecodeSize\n          dup4\n          codecopy\n          dup2\n          dup2\n          add\n          0x40\n          mstore\n          dup2\n          add\n          swap1\n          tag_1\n          swap2\n          swap1\n          tag_2\n          jump\t// in\n        tag_1:\n            /* \"Task.sol\":1362:1372  newManager */\n          dup1\n            /* \"Task.sol\":1344:1351  manager */\n          0x00\n          dup1\n            /* \"Task.sol\":1344:1373  manager = payable(newManager) */\n          0x0100\n          exp\n          dup2\n          sload\n          dup2\n          0xffffffffffffffffffffffffffffffffffffffff\n          mul\n          not\n          and\n          swap1\n          dup4\n          0xffffffffffffffffffffffffffffffffffffffff\n          and\n          mul\n          or\n          swap1\n          sstore\n          pop\n            /* \"Task.sol\":1397:1403  sphere */\n          dup4\n            /* \"Task.sol\":1384:1394  taskSphere */\n          0x01\n            /* \"Task.sol\":1384:1403  taskSphere = sphere */\n          swap1\n          dup1\n          mload\n          swap1\n          0x20\n          add\n          swap1\n          tag_5\n          swap3\n          swap2\n          swap1\n          tag_6\n          jump\t// in\n        tag_5:\n          pop\n            /* \"Task.sol\":1425:1431  header */\n          dup6\n            /* \"Task.sol\":1414:1422  taskName */\n          0x02\n            /* \"Task.sol\":1414:1431  taskName = header */\n          swap1\n          dup1\n          mload\n          swap1\n          0x20\n          add\n          swap1\n          tag_7\n          swap3\n          swap2\n          swap1\n          tag_6\n          jump\t// in\n        tag_7:\n          pop\n            /* \"Task.sol\":1454:1459  files */\n          dup3\n            /* \"Task.sol\":1442:1451  taskFiles */\n          0x03\n            /* \"Task.sol\":1442:1459  taskFiles = files */\n          swap1\n          dup1\n          mload\n          swap1\n          0x20\n          add\n          swap1\n          tag_8\n          swap3\n          swap2\n          swap1\n          tag_9\n          jump\t// in\n        tag_8:\n          pop\n            /* \"Task.sol\":1488:1499  description */\n          dup5\n            /* \"Task.sol\":1470:1485  taskDescription */\n          0x04\n            /* \"Task.sol\":1470:1499  taskDescription = description */\n          swap1\n          dup1\n          mload\n          swap1\n          0x20\n          add\n          swap1\n          tag_10\n          swap3\n          swap2\n          swap1\n          tag_6\n          jump\t// in\n        tag_10:\n          pop\n            /* \"Task.sol\":1526:1534  hashtags */\n          dup2\n            /* \"Task.sol\":1511:1523  taskHashtags */\n          0x05\n            /* \"Task.sol\":1511:1534  taskHashtags = hashtags */\n          swap1\n          dup1\n          mload\n          swap1\n          0x20\n          add\n          swap1\n          tag_11\n          swap3\n          swap2\n          swap1\n          tag_9\n          jump\t// in\n        tag_11:\n          pop\n            /* \"Task.sol\":1559:1564  false */\n          0x00\n            /* \"Task.sol\":1545:1556  isCompleted */\n          0x06\n          0x14\n            /* \"Task.sol\":1545:1564  isCompleted = false */\n          0x0100\n          exp\n          dup2\n          sload\n          dup2\n          0xff\n          mul\n          not\n          and\n          swap1\n          dup4\n          iszero\n          iszero\n          mul\n          or\n          swap1\n          sstore\n          pop\n            /* \"Task.sol\":1173:1572  constructor(string memory header, string memory description, string memory sphere, string[] memory files, string[] memory hashtags, address newManager) payable {... */\n          pop\n          pop\n          pop\n          pop\n          pop\n          pop\n            /* \"Task.sol\":639:2734  contract Task {... */\n          jump(tag_12)\n        tag_6:\n          dup3\n          dup1\n          sload\n          tag_13\n          swap1\n          tag_14\n          jump\t// in\n        tag_13:\n          swap1\n          0x00\n          mstore\n          keccak256(0x00, 0x20)\n          swap1\n          0x1f\n          add\n          0x20\n          swap1\n          div\n          dup2\n          add\n          swap3\n          dup3\n          tag_16\n          jumpi\n          0x00\n          dup6\n          sstore\n          jump(tag_15)\n        tag_16:\n          dup3\n          0x1f\n          lt\n          tag_17\n          jumpi\n          dup1\n          mload\n          not(0xff)\n          and\n          dup4\n          dup1\n          add\n          or\n          dup6\n          sstore\n          jump(tag_15)\n        tag_17:\n          dup3\n          dup1\n          add\n          0x01\n          add\n          dup6\n          sstore\n          dup3\n          iszero\n          tag_15\n          jumpi\n          swap2\n          dup3\n          add\n        tag_18:\n          dup3\n          dup2\n          gt\n          iszero\n          tag_19\n          jumpi\n          dup3\n          mload\n          dup3\n          sstore\n          swap2\n          0x20\n          add\n          swap2\n          swap1\n          0x01\n          add\n          swap1\n          jump(tag_18)\n        tag_19:\n        tag_15:\n          pop\n          swap1\n          pop\n          tag_20\n          swap2\n          swap1\n          tag_21\n          jump\t// in\n        tag_20:\n          pop\n          swap1\n          jump\t// out\n        tag_9:\n          dup3\n          dup1\n          sload\n          dup3\n          dup3\n          sstore\n          swap1\n          0x00\n          mstore\n          keccak256(0x00, 0x20)\n          swap1\n          dup2\n          add\n          swap3\n          dup3\n          iszero\n          tag_22\n          jumpi\n          swap2\n          0x20\n          mul\n          dup3\n          add\n        tag_23:\n          dup3\n          dup2\n          gt\n          iszero\n          tag_24\n          jumpi\n          dup3\n          mload\n          dup3\n          swap1\n          dup1\n          mload\n          swap1\n          0x20\n          add\n          swap1\n          tag_25\n          swap3\n          swap2\n          swap1\n          tag_6\n          jump\t// in\n        tag_25:\n          pop\n          swap2\n          0x20\n          add\n          swap2\n          swap1\n          0x01\n          add\n          swap1\n          jump(tag_23)\n        tag_24:\n        tag_22:\n          pop\n          swap1\n          pop\n          tag_26\n          swap2\n          swap1\n          tag_27\n          jump\t// in\n        tag_26:\n          pop\n          swap1\n          jump\t// out\n        tag_21:\n        tag_28:\n          dup1\n          dup3\n          gt\n          iszero\n          tag_29\n          jumpi\n          0x00\n          dup2\n          0x00\n          swap1\n          sstore\n          pop\n          0x01\n          add\n          jump(tag_28)\n        tag_29:\n          pop\n          swap1\n          jump\t// out\n        tag_27:\n        tag_30:\n          dup1\n          dup3\n          gt\n          iszero\n          tag_31\n          jumpi\n          0x00\n          dup2\n          dup2\n          tag_32\n          swap2\n          swap1\n          tag_33\n          jump\t// in\n        tag_32:\n          pop\n          0x01\n          add\n          jump(tag_30)\n        tag_31:\n          pop\n          swap1\n          jump\t// out\n        tag_33:\n          pop\n          dup1\n          sload\n          tag_34\n          swap1\n          tag_14\n          jump\t// in\n        tag_34:\n          0x00\n          dup3\n          sstore\n          dup1\n          0x1f\n          lt\n          tag_36\n          jumpi\n          pop\n          jump(tag_35)\n        tag_36:\n          0x1f\n          add\n          0x20\n          swap1\n          div\n          swap1\n          0x00\n          mstore\n          keccak256(0x00, 0x20)\n          swap1\n          dup2\n          add\n          swap1\n          tag_37\n          swap2\n          swap1\n          tag_21\n          jump\t// in\n        tag_37:\n        tag_35:\n          pop\n          jump\t// out\n            /* \"#utility.yul\":7:82   */\n        tag_38:\n            /* \"#utility.yul\":40:46   */\n          0x00\n            /* \"#utility.yul\":73:75   */\n          0x40\n            /* \"#utility.yul\":67:76   */\n          mload\n            /* \"#utility.yul\":57:76   */\n          swap1\n          pop\n            /* \"#utility.yul\":7:82   */\n          swap1\n          jump\t// out\n            /* \"#utility.yul\":88:205   */\n        tag_39:\n            /* \"#utility.yul\":197:198   */\n          0x00\n            /* \"#utility.yul\":194:195   */\n          dup1\n            /* \"#utility.yul\":187:199   */\n          revert\n            /* \"#utility.yul\":211:328   */\n        tag_40:\n            /* \"#utility.yul\":320:321   */\n          0x00\n            /* \"#utility.yul\":317:318   */\n          dup1\n            /* \"#utility.yul\":310:322   */\n          revert\n            /* \"#utility.yul\":334:451   */\n        tag_41:\n            /* \"#utility.yul\":443:444   */\n          0x00\n            /* \"#utility.yul\":440:441   */\n          dup1\n            /* \"#utility.yul\":433:445   */\n          revert\n            /* \"#utility.yul\":457:574   */\n        tag_42:\n            /* \"#utility.yul\":566:567   */\n          0x00\n            /* \"#utility.yul\":563:564   */\n          dup1\n            /* \"#utility.yul\":556:568   */\n          revert\n            /* \"#utility.yul\":580:682   */\n        tag_43:\n            /* \"#utility.yul\":621:627   */\n          0x00\n            /* \"#utility.yul\":672:674   */\n          0x1f\n            /* \"#utility.yul\":668:675   */\n          not\n            /* \"#utility.yul\":663:665   */\n          0x1f\n            /* \"#utility.yul\":656:661   */\n          dup4\n            /* \"#utility.yul\":652:666   */\n          add\n            /* \"#utility.yul\":648:676   */\n          and\n            /* \"#utility.yul\":638:676   */\n          swap1\n          pop\n            /* \"#utility.yul\":580:682   */\n          swap2\n          swap1\n          pop\n          jump\t// out\n            /* \"#utility.yul\":688:868   */\n        tag_44:\n            /* \"#utility.yul\":736:813   */\n          0x4e487b7100000000000000000000000000000000000000000000000000000000\n            /* \"#utility.yul\":733:734   */\n          0x00\n            /* \"#utility.yul\":726:814   */\n          mstore\n            /* \"#utility.yul\":833:837   */\n          0x41\n            /* \"#utility.yul\":830:831   */\n          0x04\n            /* \"#utility.yul\":823:838   */\n          mstore\n            /* \"#utility.yul\":857:861   */\n          0x24\n            /* \"#utility.yul\":854:855   */\n          0x00\n            /* \"#utility.yul\":847:862   */\n          revert\n            /* \"#utility.yul\":874:1155   */\n        tag_45:\n            /* \"#utility.yul\":957:984   */\n          tag_69\n            /* \"#utility.yul\":979:983   */\n          dup3\n            /* \"#utility.yul\":957:984   */\n          tag_43\n          jump\t// in\n        tag_69:\n            /* \"#utility.yul\":949:955   */\n          dup2\n            /* \"#utility.yul\":945:985   */\n          add\n            /* \"#utility.yul\":1087:1093   */\n          dup2\n            /* \"#utility.yul\":1075:1085   */\n          dup2\n            /* \"#utility.yul\":1072:1094   */\n          lt\n            /* \"#utility.yul\":1051:1069   */\n          0xffffffffffffffff\n            /* \"#utility.yul\":1039:1049   */\n          dup3\n            /* \"#utility.yul\":1036:1070   */\n          gt\n            /* \"#utility.yul\":1033:1095   */\n          or\n            /* \"#utility.yul\":1030:1118   */\n          iszero\n          tag_70\n          jumpi\n            /* \"#utility.yul\":1098:1116   */\n          tag_71\n          tag_44\n          jump\t// in\n        tag_71:\n            /* \"#utility.yul\":1030:1118   */\n        tag_70:\n            /* \"#utility.yul\":1138:1148   */\n          dup1\n            /* \"#utility.yul\":1134:1136   */\n          0x40\n            /* \"#utility.yul\":1127:1149   */\n          mstore\n            /* \"#utility.yul\":917:1155   */\n          pop\n            /* \"#utility.yul\":874:1155   */\n          pop\n          pop\n          jump\t// out\n            /* \"#utility.yul\":1161:1290   */\n        tag_46:\n            /* \"#utility.yul\":1195:1201   */\n          0x00\n            /* \"#utility.yul\":1222:1242   */\n          tag_73\n          tag_38\n          jump\t// in\n        tag_73:\n            /* \"#utility.yul\":1212:1242   */\n          swap1\n          pop\n            /* \"#utility.yul\":1251:1284   */\n          tag_74\n            /* \"#utility.yul\":1279:1283   */\n          dup3\n            /* \"#utility.yul\":1271:1277   */\n          dup3\n            /* \"#utility.yul\":1251:1284   */\n          tag_45\n          jump\t// in\n        tag_74:\n            /* \"#utility.yul\":1161:1290   */\n          swap2\n          swap1\n          pop\n          jump\t// out\n            /* \"#utility.yul\":1296:1604   */\n        tag_47:\n            /* \"#utility.yul\":1358:1362   */\n          0x00\n            /* \"#utility.yul\":1448:1466   */\n          0xffffffffffffffff\n            /* \"#utility.yul\":1440:1446   */\n          dup3\n            /* \"#utility.yul\":1437:1467   */\n          gt\n            /* \"#utility.yul\":1434:1490   */\n          iszero\n          tag_76\n          jumpi\n            /* \"#utility.yul\":1470:1488   */\n          tag_77\n          tag_44\n          jump\t// in\n        tag_77:\n            /* \"#utility.yul\":1434:1490   */\n        tag_76:\n            /* \"#utility.yul\":1508:1537   */\n          tag_78\n            /* \"#utility.yul\":1530:1536   */\n          dup3\n            /* \"#utility.yul\":1508:1537   */\n          tag_43\n          jump\t// in\n        tag_78:\n            /* \"#utility.yul\":1500:1537   */\n          swap1\n          pop\n            /* \"#utility.yul\":1592:1596   */\n          0x20\n            /* \"#utility.yul\":1586:1590   */\n          dup2\n            /* \"#utility.yul\":1582:1597   */\n          add\n            /* \"#utility.yul\":1574:1597   */\n          swap1\n          pop\n            /* \"#utility.yul\":1296:1604   */\n          swap2\n          swap1\n          pop\n          jump\t// out\n            /* \"#utility.yul\":1610:1917   */\n        tag_48:\n            /* \"#utility.yul\":1678:1679   */\n          0x00\n            /* \"#utility.yul\":1688:1801   */\n        tag_80:\n            /* \"#utility.yul\":1702:1708   */\n          dup4\n            /* \"#utility.yul\":1699:1700   */\n          dup2\n            /* \"#utility.yul\":1696:1709   */\n          lt\n            /* \"#utility.yul\":1688:1801   */\n          iszero\n          tag_82\n          jumpi\n            /* \"#utility.yul\":1787:1788   */\n          dup1\n            /* \"#utility.yul\":1782:1785   */\n          dup3\n            /* \"#utility.yul\":1778:1789   */\n          add\n            /* \"#utility.yul\":1772:1790   */\n          mload\n            /* \"#utility.yul\":1768:1769   */\n          dup2\n            /* \"#utility.yul\":1763:1766   */\n          dup5\n            /* \"#utility.yul\":1759:1770   */\n          add\n            /* \"#utility.yul\":1752:1791   */\n          mstore\n            /* \"#utility.yul\":1724:1726   */\n          0x20\n            /* \"#utility.yul\":1721:1722   */\n          dup2\n            /* \"#utility.yul\":1717:1727   */\n          add\n            /* \"#utility.yul\":1712:1727   */\n          swap1\n          pop\n            /* \"#utility.yul\":1688:1801   */\n          jump(tag_80)\n        tag_82:\n            /* \"#utility.yul\":1819:1825   */\n          dup4\n            /* \"#utility.yul\":1816:1817   */\n          dup2\n            /* \"#utility.yul\":1813:1826   */\n          gt\n            /* \"#utility.yul\":1810:1911   */\n          iszero\n          tag_83\n          jumpi\n            /* \"#utility.yul\":1899:1900   */\n          0x00\n            /* \"#utility.yul\":1890:1896   */\n          dup5\n            /* \"#utility.yul\":1885:1888   */\n          dup5\n            /* \"#utility.yul\":1881:1897   */\n          add\n            /* \"#utility.yul\":1874:1901   */\n          mstore\n            /* \"#utility.yul\":1810:1911   */\n        tag_83:\n            /* \"#utility.yul\":1659:1917   */\n          pop\n            /* \"#utility.yul\":1610:1917   */\n          pop\n          pop\n          pop\n          jump\t// out\n            /* \"#utility.yul\":1923:2344   */\n        tag_49:\n            /* \"#utility.yul\":2012:2017   */\n          0x00\n            /* \"#utility.yul\":2037:2103   */\n          tag_85\n            /* \"#utility.yul\":2053:2102   */\n          tag_86\n            /* \"#utility.yul\":2095:2101   */\n          dup5\n            /* \"#utility.yul\":2053:2102   */\n          tag_47\n          jump\t// in\n        tag_86:\n            /* \"#utility.yul\":2037:2103   */\n          tag_46\n          jump\t// in\n        tag_85:\n            /* \"#utility.yul\":2028:2103   */\n          swap1\n          pop\n            /* \"#utility.yul\":2126:2132   */\n          dup3\n            /* \"#utility.yul\":2119:2124   */\n          dup2\n            /* \"#utility.yul\":2112:2133   */\n          mstore\n            /* \"#utility.yul\":2164:2168   */\n          0x20\n            /* \"#utility.yul\":2157:2162   */\n          dup2\n            /* \"#utility.yul\":2153:2169   */\n          add\n            /* \"#utility.yul\":2202:2205   */\n          dup5\n            /* \"#utility.yul\":2193:2199   */\n          dup5\n            /* \"#utility.yul\":2188:2191   */\n          dup5\n            /* \"#utility.yul\":2184:2200   */\n          add\n            /* \"#utility.yul\":2181:2206   */\n          gt\n            /* \"#utility.yul\":2178:2290   */\n          iszero\n          tag_87\n          jumpi\n            /* \"#utility.yul\":2209:2288   */\n          tag_88\n          tag_42\n          jump\t// in\n        tag_88:\n            /* \"#utility.yul\":2178:2290   */\n        tag_87:\n            /* \"#utility.yul\":2299:2338   */\n          tag_89\n            /* \"#utility.yul\":2331:2337   */\n          dup5\n            /* \"#utility.yul\":2326:2329   */\n          dup3\n            /* \"#utility.yul\":2321:2324   */\n          dup6\n            /* \"#utility.yul\":2299:2338   */\n          tag_48\n          jump\t// in\n        tag_89:\n            /* \"#utility.yul\":2018:2344   */\n          pop\n            /* \"#utility.yul\":1923:2344   */\n          swap4\n          swap3\n          pop\n          pop\n          pop\n          jump\t// out\n            /* \"#utility.yul\":2364:2719   */\n        tag_50:\n            /* \"#utility.yul\":2431:2436   */\n          0x00\n            /* \"#utility.yul\":2480:2483   */\n          dup3\n            /* \"#utility.yul\":2473:2477   */\n          0x1f\n            /* \"#utility.yul\":2465:2471   */\n          dup4\n            /* \"#utility.yul\":2461:2478   */\n          add\n            /* \"#utility.yul\":2457:2484   */\n          slt\n            /* \"#utility.yul\":2447:2569   */\n          tag_91\n          jumpi\n            /* \"#utility.yul\":2488:2567   */\n          tag_92\n          tag_41\n          jump\t// in\n        tag_92:\n            /* \"#utility.yul\":2447:2569   */\n        tag_91:\n            /* \"#utility.yul\":2598:2604   */\n          dup2\n            /* \"#utility.yul\":2592:2605   */\n          mload\n            /* \"#utility.yul\":2623:2713   */\n          tag_93\n            /* \"#utility.yul\":2709:2712   */\n          dup5\n            /* \"#utility.yul\":2701:2707   */\n          dup3\n            /* \"#utility.yul\":2694:2698   */\n          0x20\n            /* \"#utility.yul\":2686:2692   */\n          dup7\n            /* \"#utility.yul\":2682:2699   */\n          add\n            /* \"#utility.yul\":2623:2713   */\n          tag_49\n          jump\t// in\n        tag_93:\n            /* \"#utility.yul\":2614:2713   */\n          swap2\n          pop\n            /* \"#utility.yul\":2437:2719   */\n          pop\n            /* \"#utility.yul\":2364:2719   */\n          swap3\n          swap2\n          pop\n          pop\n          jump\t// out\n            /* \"#utility.yul\":2725:3046   */\n        tag_51:\n            /* \"#utility.yul\":2812:2816   */\n          0x00\n            /* \"#utility.yul\":2902:2920   */\n          0xffffffffffffffff\n            /* \"#utility.yul\":2894:2900   */\n          dup3\n            /* \"#utility.yul\":2891:2921   */\n          gt\n            /* \"#utility.yul\":2888:2944   */\n          iszero\n          tag_95\n          jumpi\n            /* \"#utility.yul\":2924:2942   */\n          tag_96\n          tag_44\n          jump\t// in\n        tag_96:\n            /* \"#utility.yul\":2888:2944   */\n        tag_95:\n            /* \"#utility.yul\":2974:2978   */\n          0x20\n            /* \"#utility.yul\":2966:2972   */\n          dup3\n            /* \"#utility.yul\":2962:2979   */\n          mul\n            /* \"#utility.yul\":2954:2979   */\n          swap1\n          pop\n            /* \"#utility.yul\":3034:3038   */\n          0x20\n            /* \"#utility.yul\":3028:3032   */\n          dup2\n            /* \"#utility.yul\":3024:3039   */\n          add\n            /* \"#utility.yul\":3016:3039   */\n          swap1\n          pop\n            /* \"#utility.yul\":2725:3046   */\n          swap2\n          swap1\n          pop\n          jump\t// out\n            /* \"#utility.yul\":3052:3169   */\n        tag_52:\n            /* \"#utility.yul\":3161:3162   */\n          0x00\n            /* \"#utility.yul\":3158:3159   */\n          dup1\n            /* \"#utility.yul\":3151:3163   */\n          revert\n            /* \"#utility.yul\":3191:4151   */\n        tag_53:\n            /* \"#utility.yul\":3308:3313   */\n          0x00\n            /* \"#utility.yul\":3333:3424   */\n          tag_99\n            /* \"#utility.yul\":3349:3423   */\n          tag_100\n            /* \"#utility.yul\":3416:3422   */\n          dup5\n            /* \"#utility.yul\":3349:3423   */\n          tag_51\n          jump\t// in\n        tag_100:\n            /* \"#utility.yul\":3333:3424   */\n          tag_46\n          jump\t// in\n        tag_99:\n            /* \"#utility.yul\":3324:3424   */\n          swap1\n          pop\n            /* \"#utility.yul\":3444:3449   */\n          dup1\n            /* \"#utility.yul\":3473:3479   */\n          dup4\n            /* \"#utility.yul\":3466:3471   */\n          dup3\n            /* \"#utility.yul\":3459:3480   */\n          mstore\n            /* \"#utility.yul\":3507:3511   */\n          0x20\n            /* \"#utility.yul\":3500:3505   */\n          dup3\n            /* \"#utility.yul\":3496:3512   */\n          add\n            /* \"#utility.yul\":3489:3512   */\n          swap1\n          pop\n            /* \"#utility.yul\":3560:3564   */\n          0x20\n            /* \"#utility.yul\":3552:3558   */\n          dup5\n            /* \"#utility.yul\":3548:3565   */\n          mul\n            /* \"#utility.yul\":3540:3546   */\n          dup4\n            /* \"#utility.yul\":3536:3566   */\n          add\n            /* \"#utility.yul\":3589:3592   */\n          dup6\n            /* \"#utility.yul\":3581:3587   */\n          dup2\n            /* \"#utility.yul\":3578:3593   */\n          gt\n            /* \"#utility.yul\":3575:3697   */\n          iszero\n          tag_101\n          jumpi\n            /* \"#utility.yul\":3608:3687   */\n          tag_102\n          tag_52\n          jump\t// in\n        tag_102:\n            /* \"#utility.yul\":3575:3697   */\n        tag_101:\n            /* \"#utility.yul\":3723:3729   */\n          dup4\n            /* \"#utility.yul\":3706:4145   */\n        tag_103:\n            /* \"#utility.yul\":3740:3746   */\n          dup2\n            /* \"#utility.yul\":3735:3738   */\n          dup2\n            /* \"#utility.yul\":3732:3747   */\n          lt\n            /* \"#utility.yul\":3706:4145   */\n          iszero\n          tag_105\n          jumpi\n            /* \"#utility.yul\":3822:3825   */\n          dup1\n            /* \"#utility.yul\":3816:3826   */\n          mload\n            /* \"#utility.yul\":3858:3876   */\n          0xffffffffffffffff\n            /* \"#utility.yul\":3845:3856   */\n          dup2\n            /* \"#utility.yul\":3842:3877   */\n          gt\n            /* \"#utility.yul\":3839:3961   */\n          iszero\n          tag_106\n          jumpi\n            /* \"#utility.yul\":3880:3959   */\n          tag_107\n          tag_41\n          jump\t// in\n        tag_107:\n            /* \"#utility.yul\":3839:3961   */\n        tag_106:\n            /* \"#utility.yul\":4004:4015   */\n          dup1\n            /* \"#utility.yul\":3996:4002   */\n          dup7\n            /* \"#utility.yul\":3992:4016   */\n          add\n            /* \"#utility.yul\":4042:4100   */\n          tag_108\n            /* \"#utility.yul\":4096:4099   */\n          dup10\n            /* \"#utility.yul\":4084:4094   */\n          dup3\n            /* \"#utility.yul\":4042:4100   */\n          tag_50\n          jump\t// in\n        tag_108:\n            /* \"#utility.yul\":4037:4040   */\n          dup6\n            /* \"#utility.yul\":4030:4101   */\n          mstore\n            /* \"#utility.yul\":4130:4134   */\n          0x20\n            /* \"#utility.yul\":4125:4128   */\n          dup6\n            /* \"#utility.yul\":4121:4135   */\n          add\n            /* \"#utility.yul\":4114:4135   */\n          swap5\n          pop\n            /* \"#utility.yul\":3782:4145   */\n          pop\n          pop\n            /* \"#utility.yul\":3766:3770   */\n          0x20\n            /* \"#utility.yul\":3761:3764   */\n          dup2\n            /* \"#utility.yul\":3757:3771   */\n          add\n            /* \"#utility.yul\":3750:3771   */\n          swap1\n          pop\n            /* \"#utility.yul\":3706:4145   */\n          jump(tag_103)\n        tag_105:\n            /* \"#utility.yul\":3710:3731   */\n          pop\n            /* \"#utility.yul\":3314:4151   */\n          pop\n          pop\n            /* \"#utility.yul\":3191:4151   */\n          swap4\n          swap3\n          pop\n          pop\n          pop\n          jump\t// out\n            /* \"#utility.yul\":4173:4578   */\n        tag_54:\n            /* \"#utility.yul\":4265:4270   */\n          0x00\n            /* \"#utility.yul\":4314:4317   */\n          dup3\n            /* \"#utility.yul\":4307:4311   */\n          0x1f\n            /* \"#utility.yul\":4299:4305   */\n          dup4\n            /* \"#utility.yul\":4295:4312   */\n          add\n            /* \"#utility.yul\":4291:4318   */\n          slt\n            /* \"#utility.yul\":4281:4403   */\n          tag_110\n          jumpi\n            /* \"#utility.yul\":4322:4401   */\n          tag_111\n          tag_41\n          jump\t// in\n        tag_111:\n            /* \"#utility.yul\":4281:4403   */\n        tag_110:\n            /* \"#utility.yul\":4432:4438   */\n          dup2\n            /* \"#utility.yul\":4426:4439   */\n          mload\n            /* \"#utility.yul\":4457:4572   */\n          tag_112\n            /* \"#utility.yul\":4568:4571   */\n          dup5\n            /* \"#utility.yul\":4560:4566   */\n          dup3\n            /* \"#utility.yul\":4553:4557   */\n          0x20\n            /* \"#utility.yul\":4545:4551   */\n          dup7\n            /* \"#utility.yul\":4541:4558   */\n          add\n            /* \"#utility.yul\":4457:4572   */\n          tag_53\n          jump\t// in\n        tag_112:\n            /* \"#utility.yul\":4448:4572   */\n          swap2\n          pop\n            /* \"#utility.yul\":4271:4578   */\n          pop\n            /* \"#utility.yul\":4173:4578   */\n          swap3\n          swap2\n          pop\n          pop\n          jump\t// out\n            /* \"#utility.yul\":4584:4710   */\n        tag_55:\n            /* \"#utility.yul\":4621:4628   */\n          0x00\n            /* \"#utility.yul\":4661:4703   */\n          0xffffffffffffffffffffffffffffffffffffffff\n            /* \"#utility.yul\":4654:4659   */\n          dup3\n            /* \"#utility.yul\":4650:4704   */\n          and\n            /* \"#utility.yul\":4639:4704   */\n          swap1\n          pop\n            /* \"#utility.yul\":4584:4710   */\n          swap2\n          swap1\n          pop\n          jump\t// out\n            /* \"#utility.yul\":4716:4812   */\n        tag_56:\n            /* \"#utility.yul\":4753:4760   */\n          0x00\n            /* \"#utility.yul\":4782:4806   */\n          tag_115\n            /* \"#utility.yul\":4800:4805   */\n          dup3\n            /* \"#utility.yul\":4782:4806   */\n          tag_55\n          jump\t// in\n        tag_115:\n            /* \"#utility.yul\":4771:4806   */\n          swap1\n          pop\n            /* \"#utility.yul\":4716:4812   */\n          swap2\n          swap1\n          pop\n          jump\t// out\n            /* \"#utility.yul\":4818:4940   */\n        tag_57:\n            /* \"#utility.yul\":4891:4915   */\n          tag_117\n            /* \"#utility.yul\":4909:4914   */\n          dup2\n            /* \"#utility.yul\":4891:4915   */\n          tag_56\n          jump\t// in\n        tag_117:\n            /* \"#utility.yul\":4884:4889   */\n          dup2\n            /* \"#utility.yul\":4881:4916   */\n          eq\n            /* \"#utility.yul\":4871:4934   */\n          tag_118\n          jumpi\n            /* \"#utility.yul\":4930:4931   */\n          0x00\n            /* \"#utility.yul\":4927:4928   */\n          dup1\n            /* \"#utility.yul\":4920:4932   */\n          revert\n            /* \"#utility.yul\":4871:4934   */\n        tag_118:\n            /* \"#utility.yul\":4818:4940   */\n          pop\n          jump\t// out\n            /* \"#utility.yul\":4946:5089   */\n        tag_58:\n            /* \"#utility.yul\":5003:5008   */\n          0x00\n            /* \"#utility.yul\":5034:5040   */\n          dup2\n            /* \"#utility.yul\":5028:5041   */\n          mload\n            /* \"#utility.yul\":5019:5041   */\n          swap1\n          pop\n            /* \"#utility.yul\":5050:5083   */\n          tag_120\n            /* \"#utility.yul\":5077:5082   */\n          dup2\n            /* \"#utility.yul\":5050:5083   */\n          tag_57\n          jump\t// in\n        tag_120:\n            /* \"#utility.yul\":4946:5089   */\n          swap3\n          swap2\n          pop\n          pop\n          jump\t// out\n            /* \"#utility.yul\":5095:7194   */\n        tag_2:\n            /* \"#utility.yul\":5310:5316   */\n          0x00\n            /* \"#utility.yul\":5318:5324   */\n          dup1\n            /* \"#utility.yul\":5326:5332   */\n          0x00\n            /* \"#utility.yul\":5334:5340   */\n          dup1\n            /* \"#utility.yul\":5342:5348   */\n          0x00\n            /* \"#utility.yul\":5350:5356   */\n          dup1\n            /* \"#utility.yul\":5399:5402   */\n          0xc0\n            /* \"#utility.yul\":5387:5396   */\n          dup8\n            /* \"#utility.yul\":5378:5385   */\n          dup10\n            /* \"#utility.yul\":5374:5397   */\n          sub\n            /* \"#utility.yul\":5370:5403   */\n          slt\n            /* \"#utility.yul\":5367:5487   */\n          iszero\n          tag_122\n          jumpi\n            /* \"#utility.yul\":5406:5485   */\n          tag_123\n          tag_39\n          jump\t// in\n        tag_123:\n            /* \"#utility.yul\":5367:5487   */\n        tag_122:\n            /* \"#utility.yul\":5547:5548   */\n          0x00\n            /* \"#utility.yul\":5536:5545   */\n          dup8\n            /* \"#utility.yul\":5532:5549   */\n          add\n            /* \"#utility.yul\":5526:5550   */\n          mload\n            /* \"#utility.yul\":5577:5595   */\n          0xffffffffffffffff\n            /* \"#utility.yul\":5569:5575   */\n          dup2\n            /* \"#utility.yul\":5566:5596   */\n          gt\n            /* \"#utility.yul\":5563:5680   */\n          iszero\n          tag_124\n          jumpi\n            /* \"#utility.yul\":5599:5678   */\n          tag_125\n          tag_40\n          jump\t// in\n        tag_125:\n            /* \"#utility.yul\":5563:5680   */\n        tag_124:\n            /* \"#utility.yul\":5704:5778   */\n          tag_126\n            /* \"#utility.yul\":5770:5777   */\n          dup10\n            /* \"#utility.yul\":5761:5767   */\n          dup3\n            /* \"#utility.yul\":5750:5759   */\n          dup11\n            /* \"#utility.yul\":5746:5768   */\n          add\n            /* \"#utility.yul\":5704:5778   */\n          tag_50\n          jump\t// in\n        tag_126:\n            /* \"#utility.yul\":5694:5778   */\n          swap7\n          pop\n            /* \"#utility.yul\":5497:5788   */\n          pop\n            /* \"#utility.yul\":5848:5850   */\n          0x20\n            /* \"#utility.yul\":5837:5846   */\n          dup8\n            /* \"#utility.yul\":5833:5851   */\n          add\n            /* \"#utility.yul\":5827:5852   */\n          mload\n            /* \"#utility.yul\":5879:5897   */\n          0xffffffffffffffff\n            /* \"#utility.yul\":5871:5877   */\n          dup2\n            /* \"#utility.yul\":5868:5898   */\n          gt\n            /* \"#utility.yul\":5865:5982   */\n          iszero\n          tag_127\n          jumpi\n            /* \"#utility.yul\":5901:5980   */\n          tag_128\n          tag_40\n          jump\t// in\n        tag_128:\n            /* \"#utility.yul\":5865:5982   */\n        tag_127:\n            /* \"#utility.yul\":6006:6080   */\n          tag_129\n            /* \"#utility.yul\":6072:6079   */\n          dup10\n            /* \"#utility.yul\":6063:6069   */\n          dup3\n            /* \"#utility.yul\":6052:6061   */\n          dup11\n            /* \"#utility.yul\":6048:6070   */\n          add\n            /* \"#utility.yul\":6006:6080   */\n          tag_50\n          jump\t// in\n        tag_129:\n            /* \"#utility.yul\":5996:6080   */\n          swap6\n          pop\n            /* \"#utility.yul\":5798:6090   */\n          pop\n            /* \"#utility.yul\":6150:6152   */\n          0x40\n            /* \"#utility.yul\":6139:6148   */\n          dup8\n            /* \"#utility.yul\":6135:6153   */\n          add\n            /* \"#utility.yul\":6129:6154   */\n          mload\n            /* \"#utility.yul\":6181:6199   */\n          0xffffffffffffffff\n            /* \"#utility.yul\":6173:6179   */\n          dup2\n            /* \"#utility.yul\":6170:6200   */\n          gt\n            /* \"#utility.yul\":6167:6284   */\n          iszero\n          tag_130\n          jumpi\n            /* \"#utility.yul\":6203:6282   */\n          tag_131\n          tag_40\n          jump\t// in\n        tag_131:\n            /* \"#utility.yul\":6167:6284   */\n        tag_130:\n            /* \"#utility.yul\":6308:6382   */\n          tag_132\n            /* \"#utility.yul\":6374:6381   */\n          dup10\n            /* \"#utility.yul\":6365:6371   */\n          dup3\n            /* \"#utility.yul\":6354:6363   */\n          dup11\n            /* \"#utility.yul\":6350:6372   */\n          add\n            /* \"#utility.yul\":6308:6382   */\n          tag_50\n          jump\t// in\n        tag_132:\n            /* \"#utility.yul\":6298:6382   */\n          swap5\n          pop\n            /* \"#utility.yul\":6100:6392   */\n          pop\n            /* \"#utility.yul\":6452:6454   */\n          0x60\n            /* \"#utility.yul\":6441:6450   */\n          dup8\n            /* \"#utility.yul\":6437:6455   */\n          add\n            /* \"#utility.yul\":6431:6456   */\n          mload\n            /* \"#utility.yul\":6483:6501   */\n          0xffffffffffffffff\n            /* \"#utility.yul\":6475:6481   */\n          dup2\n            /* \"#utility.yul\":6472:6502   */\n          gt\n            /* \"#utility.yul\":6469:6586   */\n          iszero\n          tag_133\n          jumpi\n            /* \"#utility.yul\":6505:6584   */\n          tag_134\n          tag_40\n          jump\t// in\n        tag_134:\n            /* \"#utility.yul\":6469:6586   */\n        tag_133:\n            /* \"#utility.yul\":6610:6709   */\n          tag_135\n            /* \"#utility.yul\":6701:6708   */\n          dup10\n            /* \"#utility.yul\":6692:6698   */\n          dup3\n            /* \"#utility.yul\":6681:6690   */\n          dup11\n            /* \"#utility.yul\":6677:6699   */\n          add\n            /* \"#utility.yul\":6610:6709   */\n          tag_54\n          jump\t// in\n        tag_135:\n            /* \"#utility.yul\":6600:6709   */\n          swap4\n          pop\n            /* \"#utility.yul\":6402:6719   */\n          pop\n            /* \"#utility.yul\":6779:6782   */\n          0x80\n            /* \"#utility.yul\":6768:6777   */\n          dup8\n            /* \"#utility.yul\":6764:6783   */\n          add\n            /* \"#utility.yul\":6758:6784   */\n          mload\n            /* \"#utility.yul\":6811:6829   */\n          0xffffffffffffffff\n            /* \"#utility.yul\":6803:6809   */\n          dup2\n            /* \"#utility.yul\":6800:6830   */\n          gt\n            /* \"#utility.yul\":6797:6914   */\n          iszero\n          tag_136\n          jumpi\n            /* \"#utility.yul\":6833:6912   */\n          tag_137\n          tag_40\n          jump\t// in\n        tag_137:\n            /* \"#utility.yul\":6797:6914   */\n        tag_136:\n            /* \"#utility.yul\":6938:7037   */\n          tag_138\n            /* \"#utility.yul\":7029:7036   */\n          dup10\n            /* \"#utility.yul\":7020:7026   */\n          dup3\n            /* \"#utility.yul\":7009:7018   */\n          dup11\n            /* \"#utility.yul\":7005:7027   */\n          add\n            /* \"#utility.yul\":6938:7037   */\n          tag_54\n          jump\t// in\n        tag_138:\n            /* \"#utility.yul\":6928:7037   */\n          swap3\n          pop\n            /* \"#utility.yul\":6729:7047   */\n          pop\n            /* \"#utility.yul\":7086:7089   */\n          0xa0\n            /* \"#utility.yul\":7113:7177   */\n          tag_139\n            /* \"#utility.yul\":7169:7176   */\n          dup10\n            /* \"#utility.yul\":7160:7166   */\n          dup3\n            /* \"#utility.yul\":7149:7158   */\n          dup11\n            /* \"#utility.yul\":7145:7167   */\n          add\n            /* \"#utility.yul\":7113:7177   */\n          tag_58\n          jump\t// in\n        tag_139:\n            /* \"#utility.yul\":7103:7177   */\n          swap2\n          pop\n            /* \"#utility.yul\":7057:7187   */\n          pop\n            /* \"#utility.yul\":5095:7194   */\n          swap3\n          swap6\n          pop\n          swap3\n          swap6\n          pop\n          swap3\n          swap6\n          jump\t// out\n            /* \"#utility.yul\":7200:7380   */\n        tag_59:\n            /* \"#utility.yul\":7248:7325   */\n          0x4e487b7100000000000000000000000000000000000000000000000000000000\n            /* \"#utility.yul\":7245:7246   */\n          0x00\n            /* \"#utility.yul\":7238:7326   */\n          mstore\n            /* \"#utility.yul\":7345:7349   */\n          0x22\n            /* \"#utility.yul\":7342:7343   */\n          0x04\n            /* \"#utility.yul\":7335:7350   */\n          mstore\n            /* \"#utility.yul\":7369:7373   */\n          0x24\n            /* \"#utility.yul\":7366:7367   */\n          0x00\n            /* \"#utility.yul\":7359:7374   */\n          revert\n            /* \"#utility.yul\":7386:7706   */\n        tag_14:\n            /* \"#utility.yul\":7430:7436   */\n          0x00\n            /* \"#utility.yul\":7467:7468   */\n          0x02\n            /* \"#utility.yul\":7461:7465   */\n          dup3\n            /* \"#utility.yul\":7457:7469   */\n          div\n            /* \"#utility.yul\":7447:7469   */\n          swap1\n          pop\n            /* \"#utility.yul\":7514:7515   */\n          0x01\n            /* \"#utility.yul\":7508:7512   */\n          dup3\n            /* \"#utility.yul\":7504:7516   */\n          and\n            /* \"#utility.yul\":7535:7553   */\n          dup1\n            /* \"#utility.yul\":7525:7606   */\n          tag_142\n          jumpi\n            /* \"#utility.yul\":7591:7595   */\n          0x7f\n            /* \"#utility.yul\":7583:7589   */\n          dup3\n            /* \"#utility.yul\":7579:7596   */\n          and\n            /* \"#utility.yul\":7569:7596   */\n          swap2\n          pop\n            /* \"#utility.yul\":7525:7606   */\n        tag_142:\n            /* \"#utility.yul\":7653:7655   */\n          0x20\n            /* \"#utility.yul\":7645:7651   */\n          dup3\n            /* \"#utility.yul\":7642:7656   */\n          lt\n            /* \"#utility.yul\":7622:7640   */\n          dup2\n            /* \"#utility.yul\":7619:7657   */\n          sub\n            /* \"#utility.yul\":7616:7700   */\n          tag_143\n          jumpi\n            /* \"#utility.yul\":7672:7690   */\n          tag_144\n          tag_59\n          jump\t// in\n        tag_144:\n            /* \"#utility.yul\":7616:7700   */\n        tag_143:\n            /* \"#utility.yul\":7437:7706   */\n          pop\n            /* \"#utility.yul\":7386:7706   */\n          swap2\n          swap1\n          pop\n          jump\t// out\n            /* \"Task.sol\":639:2734  contract Task {... */\n        tag_12:\n          dataSize(sub_0)\n          dup1\n          dataOffset(sub_0)\n          0x00\n          codecopy\n          0x00\n          return\n        stop\n\n        sub_0: assembly {\n                /* \"Task.sol\":639:2734  contract Task {... */\n              mstore(0x40, 0x80)\n              callvalue\n              dup1\n              iszero\n              tag_1\n              jumpi\n              0x00\n              dup1\n              revert\n            tag_1:\n              pop\n              jumpi(tag_2, lt(calldatasize, 0x04))\n              shr(0xe0, calldataload(0x00))\n              dup1\n              0x5f51c765\n              gt\n              tag_19\n              jumpi\n              dup1\n              0xaf84a013\n              gt\n              tag_20\n              jumpi\n              dup1\n              0xaf84a013\n              eq\n              tag_15\n              jumpi\n              dup1\n              0xdea4e339\n              eq\n              tag_16\n              jumpi\n              dup1\n              0xfa391c64\n              eq\n              tag_17\n              jumpi\n              dup1\n              0xfbc03a1e\n              eq\n              tag_18\n              jumpi\n              jump(tag_2)\n            tag_20:\n              dup1\n              0x5f51c765\n              eq\n              tag_11\n              jumpi\n              dup1\n              0x71096387\n              eq\n              tag_12\n              jumpi\n              dup1\n              0x74adad1d\n              eq\n              tag_13\n              jumpi\n              dup1\n              0xa20fca5a\n              eq\n              tag_14\n              jumpi\n              jump(tag_2)\n            tag_19:\n              dup1\n              0x481c6a75\n              gt\n              tag_21\n              jumpi\n              dup1\n              0x481c6a75\n              eq\n              tag_7\n              jumpi\n              dup1\n              0x4d547ada\n              eq\n              tag_8\n              jumpi\n              dup1\n              0x5a9b0b89\n              eq\n              tag_9\n              jumpi\n              dup1\n              0x5e1c7322\n              eq\n              tag_10\n              jumpi\n              jump(tag_2)\n            tag_21:\n              dup1\n              0x1aea77\n              eq\n              tag_3\n              jumpi\n              dup1\n              0x231e407a\n              eq\n              tag_4\n              jumpi\n              dup1\n              0x31c3a6f5\n              eq\n              tag_5\n              jumpi\n              dup1\n              0x43a7e9b9\n              eq\n              tag_6\n              jumpi\n            tag_2:\n              0x00\n              dup1\n              revert\n                /* \"Task.sol\":844:866  string public taskName */\n            tag_3:\n              tag_22\n              tag_23\n              jump\t// in\n            tag_22:\n              mload(0x40)\n              tag_24\n              swap2\n              swap1\n              tag_25\n              jump\t// in\n            tag_24:\n              mload(0x40)\n              dup1\n              swap2\n              sub\n              swap1\n              return\n                /* \"Task.sol\":2074:2211  function killTask() public restricted {... */\n            tag_4:\n              tag_26\n              tag_27\n              jump\t// in\n            tag_26:\n              stop\n                /* \"Task.sol\":2219:2439  function creaetRequest(string memory description) public  {... */\n            tag_5:\n              tag_28\n              0x04\n              dup1\n              calldatasize\n              sub\n              dup2\n              add\n              swap1\n              tag_29\n              swap2\n              swap1\n              tag_30\n              jump\t// in\n            tag_29:\n              tag_31\n              jump\t// in\n            tag_28:\n              stop\n                /* \"Task.sol\":1092:1129  address payable[] public requestsKeys */\n            tag_6:\n              tag_32\n              0x04\n              dup1\n              calldatasize\n              sub\n              dup2\n              add\n              swap1\n              tag_33\n              swap2\n              swap1\n              tag_34\n              jump\t// in\n            tag_33:\n              tag_35\n              jump\t// in\n            tag_32:\n              mload(0x40)\n              tag_36\n              swap2\n              swap1\n              tag_37\n              jump\t// in\n            tag_36:\n              mload(0x40)\n              dup1\n              swap2\n              sub\n              swap1\n              return\n                /* \"Task.sol\":776:806  address payable public manager */\n            tag_7:\n              tag_38\n              tag_39\n              jump\t// in\n            tag_38:\n              mload(0x40)\n              tag_40\n              swap2\n              swap1\n              tag_37\n              jump\t// in\n            tag_40:\n              mload(0x40)\n              dup1\n              swap2\n              sub\n              swap1\n              return\n                /* \"Task.sol\":976:1005  address payable public worker */\n            tag_8:\n              tag_41\n              tag_42\n              jump\t// in\n            tag_41:\n              mload(0x40)\n              tag_43\n              swap2\n              swap1\n              tag_37\n              jump\t// in\n            tag_43:\n              mload(0x40)\n              dup1\n              swap2\n              sub\n              swap1\n              return\n                /* \"Task.sol\":1580:1869  function getInfo() public view returns(address payable, string memory, string[] memory, string memory, string memory, address payable, bool, address payable[] memory) {... */\n            tag_9:\n              tag_44\n              tag_45\n              jump\t// in\n            tag_44:\n              mload(0x40)\n              tag_46\n              swap9\n              swap8\n              swap7\n              swap6\n              swap5\n              swap4\n              swap3\n              swap2\n              swap1\n              tag_47\n              jump\t// in\n            tag_46:\n              mload(0x40)\n              dup1\n              swap2\n              sub\n              swap1\n              return\n                /* \"Task.sol\":1968:2066  function getHashtags() public view returns(string[] memory) {... */\n            tag_10:\n              tag_48\n              tag_49\n              jump\t// in\n            tag_48:\n              mload(0x40)\n              tag_50\n              swap2\n              swap1\n              tag_51\n              jump\t// in\n            tag_50:\n              mload(0x40)\n              dup1\n              swap2\n              sub\n              swap1\n              return\n                /* \"Task.sol\":2447:2594  function startTask(address newWorker) public restricted {... */\n            tag_11:\n              tag_52\n              0x04\n              dup1\n              calldatasize\n              sub\n              dup2\n              add\n              swap1\n              tag_53\n              swap2\n              swap1\n              tag_54\n              jump\t// in\n            tag_53:\n              tag_55\n              jump\t// in\n            tag_52:\n              stop\n                /* \"Task.sol\":873:898  string[] public taskFiles */\n            tag_12:\n              tag_56\n              0x04\n              dup1\n              calldatasize\n              sub\n              dup2\n              add\n              swap1\n              tag_57\n              swap2\n              swap1\n              tag_34\n              jump\t// in\n            tag_57:\n              tag_58\n              jump\t// in\n            tag_56:\n              mload(0x40)\n              tag_59\n              swap2\n              swap1\n              tag_25\n              jump\t// in\n            tag_59:\n              mload(0x40)\n              dup1\n              swap2\n              sub\n              swap1\n              return\n                /* \"Task.sol\":1042:1085  mapping(address => Request) public requests */\n            tag_13:\n              tag_60\n              0x04\n              dup1\n              calldatasize\n              sub\n              dup2\n              add\n              swap1\n              tag_61\n              swap2\n              swap1\n              tag_54\n              jump\t// in\n            tag_61:\n              tag_62\n              jump\t// in\n            tag_60:\n              mload(0x40)\n              tag_63\n              swap4\n              swap3\n              swap2\n              swap1\n              tag_64\n              jump\t// in\n            tag_63:\n              mload(0x40)\n              dup1\n              swap2\n              sub\n              swap1\n              return\n                /* \"Task.sol\":2602:2731  function finalizeTask () public restricted {... */\n            tag_14:\n              tag_65\n              tag_66\n              jump\t// in\n            tag_65:\n              stop\n                /* \"Task.sol\":941:969  string[] public taskHashtags */\n            tag_15:\n              tag_67\n              0x04\n              dup1\n              calldatasize\n              sub\n              dup2\n              add\n              swap1\n              tag_68\n              swap2\n              swap1\n              tag_34\n              jump\t// in\n            tag_68:\n              tag_69\n              jump\t// in\n            tag_67:\n              mload(0x40)\n              tag_70\n              swap2\n              swap1\n              tag_25\n              jump\t// in\n            tag_70:\n              mload(0x40)\n              dup1\n              swap2\n              sub\n              swap1\n              return\n                /* \"Task.sol\":813:837  string public taskSphere */\n            tag_16:\n              tag_71\n              tag_72\n              jump\t// in\n            tag_71:\n              mload(0x40)\n              tag_73\n              swap2\n              swap1\n              tag_25\n              jump\t// in\n            tag_73:\n              mload(0x40)\n              dup1\n              swap2\n              sub\n              swap1\n              return\n                /* \"Task.sol\":1012:1035  bool public isCompleted */\n            tag_17:\n              tag_74\n              tag_75\n              jump\t// in\n            tag_74:\n              mload(0x40)\n              tag_76\n              swap2\n              swap1\n              tag_77\n              jump\t// in\n            tag_76:\n              mload(0x40)\n              dup1\n              swap2\n              sub\n              swap1\n              return\n                /* \"Task.sol\":905:934  string public taskDescription */\n            tag_18:\n              tag_78\n              tag_79\n              jump\t// in\n            tag_78:\n              mload(0x40)\n              tag_80\n              swap2\n              swap1\n              tag_25\n              jump\t// in\n            tag_80:\n              mload(0x40)\n              dup1\n              swap2\n              sub\n              swap1\n              return\n                /* \"Task.sol\":844:866  string public taskName */\n            tag_23:\n              0x02\n              dup1\n              sload\n              tag_81\n              swap1\n              tag_82\n              jump\t// in\n            tag_81:\n              dup1\n              0x1f\n              add\n              0x20\n              dup1\n              swap2\n              div\n              mul\n              0x20\n              add\n              mload(0x40)\n              swap1\n              dup2\n              add\n              0x40\n              mstore\n              dup1\n              swap3\n              swap2\n              swap1\n              dup2\n              dup2\n              mstore\n              0x20\n              add\n              dup3\n              dup1\n              sload\n              tag_83\n              swap1\n              tag_82\n              jump\t// in\n            tag_83:\n              dup1\n              iszero\n              tag_84\n              jumpi\n              dup1\n              0x1f\n              lt\n              tag_85\n              jumpi\n              0x0100\n              dup1\n              dup4\n              sload\n              div\n              mul\n              dup4\n              mstore\n              swap2\n              0x20\n              add\n              swap2\n              jump(tag_84)\n            tag_85:\n              dup3\n              add\n              swap2\n              swap1\n              0x00\n              mstore\n              keccak256(0x00, 0x20)\n              swap1\n            tag_86:\n              dup2\n              sload\n              dup2\n              mstore\n              swap1\n              0x01\n              add\n              swap1\n              0x20\n              add\n              dup1\n              dup4\n              gt\n              tag_86\n              jumpi\n              dup3\n              swap1\n              sub\n              0x1f\n              and\n              dup3\n              add\n              swap2\n            tag_84:\n              pop\n              pop\n              pop\n              pop\n              pop\n              dup2\n              jump\t// out\n                /* \"Task.sol\":2074:2211  function killTask() public restricted {... */\n            tag_27:\n                /* \"Task.sol\":1932:1939  manager */\n              0x00\n              dup1\n              sload\n              swap1\n              0x0100\n              exp\n              swap1\n              div\n              0xffffffffffffffffffffffffffffffffffffffff\n              and\n                /* \"Task.sol\":1918:1939  msg.sender == manager */\n              0xffffffffffffffffffffffffffffffffffffffff\n              and\n                /* \"Task.sol\":1918:1928  msg.sender */\n              caller\n                /* \"Task.sol\":1918:1939  msg.sender == manager */\n              0xffffffffffffffffffffffffffffffffffffffff\n              and\n              eq\n                /* \"Task.sol\":1910:1940  require(msg.sender == manager) */\n              tag_88\n              jumpi\n              0x00\n              dup1\n              revert\n            tag_88:\n                /* \"Task.sol\":2149:2150  0 */\n              0x00\n                /* \"Task.sol\":2131:2151  worker == address(0) */\n              0xffffffffffffffffffffffffffffffffffffffff\n              and\n                /* \"Task.sol\":2131:2137  worker */\n              0x06\n              0x00\n              swap1\n              sload\n              swap1\n              0x0100\n              exp\n              swap1\n              div\n              0xffffffffffffffffffffffffffffffffffffffff\n              and\n                /* \"Task.sol\":2131:2151  worker == address(0) */\n              0xffffffffffffffffffffffffffffffffffffffff\n              and\n              eq\n                /* \"Task.sol\":2123:2152  require(worker == address(0)) */\n              tag_90\n              jumpi\n              0x00\n              dup1\n              revert\n            tag_90:\n                /* \"Task.sol\":2164:2171  manager */\n              0x00\n              dup1\n              sload\n              swap1\n              0x0100\n              exp\n              swap1\n              div\n              0xffffffffffffffffffffffffffffffffffffffff\n              and\n                /* \"Task.sol\":2164:2180  manager.transfer */\n              0xffffffffffffffffffffffffffffffffffffffff\n              and\n                /* \"Task.sol\":2164:2203  manager.transfer(address(this).balance) */\n              0x08fc\n                /* \"Task.sol\":2181:2202  address(this).balance */\n              selfbalance\n                /* \"Task.sol\":2164:2203  manager.transfer(address(this).balance) */\n              swap1\n              dup2\n              iszero\n              mul\n              swap1\n              mload(0x40)\n              0x00\n              mload(0x40)\n              dup1\n              dup4\n              sub\n              dup2\n              dup6\n              dup9\n              dup9\n              call\n              swap4\n              pop\n              pop\n              pop\n              pop\n              iszero\n              dup1\n              iszero\n              tag_92\n              jumpi\n              returndatasize\n              0x00\n              dup1\n              returndatacopy\n              revert(0x00, returndatasize)\n            tag_92:\n              pop\n                /* \"Task.sol\":2074:2211  function killTask() public restricted {... */\n              jump\t// out\n                /* \"Task.sol\":2219:2439  function creaetRequest(string memory description) public  {... */\n            tag_31:\n                /* \"Task.sol\":2311:2382  Request(... */\n              mload(0x40)\n              dup1\n              0x60\n              add\n              0x40\n              mstore\n              dup1\n                /* \"Task.sol\":2333:2344  description */\n              dup3\n                /* \"Task.sol\":2311:2382  Request(... */\n              dup2\n              mstore\n              0x20\n              add\n                /* \"Task.sol\":2354:2364  msg.sender */\n              caller\n                /* \"Task.sol\":2311:2382  Request(... */\n              0xffffffffffffffffffffffffffffffffffffffff\n              and\n              dup2\n              mstore\n              0x20\n              add\n                /* \"Task.sol\":2367:2371  true */\n              0x01\n                /* \"Task.sol\":2311:2382  Request(... */\n              iszero\n              iszero\n              dup2\n              mstore\n              pop\n                /* \"Task.sol\":2288:2296  requests */\n              0x07\n                /* \"Task.sol\":2288:2308  requests[msg.sender] */\n              0x00\n                /* \"Task.sol\":2297:2307  msg.sender */\n              caller\n                /* \"Task.sol\":2288:2308  requests[msg.sender] */\n              0xffffffffffffffffffffffffffffffffffffffff\n              and\n              0xffffffffffffffffffffffffffffffffffffffff\n              and\n              dup2\n              mstore\n              0x20\n              add\n              swap1\n              dup2\n              mstore\n              0x20\n              add\n              0x00\n              keccak256\n                /* \"Task.sol\":2288:2382  requests[msg.sender] = Request(... */\n              0x00\n              dup3\n              add\n              mload\n              dup2\n              0x00\n              add\n              swap1\n              dup1\n              mload\n              swap1\n              0x20\n              add\n              swap1\n              tag_94\n              swap3\n              swap2\n              swap1\n              tag_95\n              jump\t// in\n            tag_94:\n              pop\n              0x20\n              dup3\n              add\n              mload\n              dup2\n              0x01\n              add\n              exp(0x0100, 0x00)\n              dup2\n              sload\n              dup2\n              0xffffffffffffffffffffffffffffffffffffffff\n              mul\n              not\n              and\n              swap1\n              dup4\n              0xffffffffffffffffffffffffffffffffffffffff\n              and\n              mul\n              or\n              swap1\n              sstore\n              pop\n              0x40\n              dup3\n              add\n              mload\n              dup2\n              0x01\n              add\n              exp(0x0100, 0x14)\n              dup2\n              sload\n              dup2\n              0xff\n              mul\n              not\n              and\n              swap1\n              dup4\n              iszero\n              iszero\n              mul\n              or\n              swap1\n              sstore\n              pop\n              swap1\n              pop\n              pop\n                /* \"Task.sol\":2393:2405  requestsKeys */\n              0x08\n                /* \"Task.sol\":2419:2429  msg.sender */\n              caller\n                /* \"Task.sol\":2393:2431  requestsKeys.push(payable(msg.sender)) */\n              swap1\n              dup1\n              0x01\n              dup2\n              sload\n              add\n              dup1\n              dup3\n              sstore\n              dup1\n              swap2\n              pop\n              pop\n              0x01\n              swap1\n              sub\n              swap1\n              0x00\n              mstore\n              keccak256(0x00, 0x20)\n              add\n              0x00\n              swap1\n              swap2\n              swap1\n              swap2\n              swap1\n              swap2\n              0x0100\n              exp\n              dup2\n              sload\n              dup2\n              0xffffffffffffffffffffffffffffffffffffffff\n              mul\n              not\n              and\n              swap1\n              dup4\n              0xffffffffffffffffffffffffffffffffffffffff\n              and\n              mul\n              or\n              swap1\n              sstore\n              pop\n                /* \"Task.sol\":2219:2439  function creaetRequest(string memory description) public  {... */\n              pop\n              jump\t// out\n                /* \"Task.sol\":1092:1129  address payable[] public requestsKeys */\n            tag_35:\n              0x08\n              dup2\n              dup2\n              sload\n              dup2\n              lt\n              tag_97\n              jumpi\n              0x00\n              dup1\n              revert\n            tag_97:\n              swap1\n              0x00\n              mstore\n              keccak256(0x00, 0x20)\n              add\n              0x00\n              swap2\n              pop\n              sload\n              swap1\n              0x0100\n              exp\n              swap1\n              div\n              0xffffffffffffffffffffffffffffffffffffffff\n              and\n              dup2\n              jump\t// out\n                /* \"Task.sol\":776:806  address payable public manager */\n            tag_39:\n              0x00\n              dup1\n              sload\n              swap1\n              0x0100\n              exp\n              swap1\n              div\n              0xffffffffffffffffffffffffffffffffffffffff\n              and\n              dup2\n              jump\t// out\n                /* \"Task.sol\":976:1005  address payable public worker */\n            tag_42:\n              0x06\n              0x00\n              swap1\n              sload\n              swap1\n              0x0100\n              exp\n              swap1\n              div\n              0xffffffffffffffffffffffffffffffffffffffff\n              and\n              dup2\n              jump\t// out\n                /* \"Task.sol\":1580:1869  function getInfo() public view returns(address payable, string memory, string[] memory, string memory, string memory, address payable, bool, address payable[] memory) {... */\n            tag_45:\n                /* \"Task.sol\":1619:1634  address payable */\n              0x00\n                /* \"Task.sol\":1636:1649  string memory */\n              0x60\n                /* \"Task.sol\":1651:1666  string[] memory */\n              dup1\n                /* \"Task.sol\":1668:1681  string memory */\n              0x60\n                /* \"Task.sol\":1683:1696  string memory */\n              dup1\n                /* \"Task.sol\":1698:1713  address payable */\n              0x00\n                /* \"Task.sol\":1715:1719  bool */\n              dup1\n                /* \"Task.sol\":1721:1745  address payable[] memory */\n              0x60\n                /* \"Task.sol\":1766:1773  manager */\n              0x00\n              dup1\n              sload\n              swap1\n              0x0100\n              exp\n              swap1\n              div\n              0xffffffffffffffffffffffffffffffffffffffff\n              and\n                /* \"Task.sol\":1775:1783  taskName */\n              0x02\n                /* \"Task.sol\":1785:1794  taskFiles */\n              0x03\n                /* \"Task.sol\":1796:1811  taskDescription */\n              0x04\n                /* \"Task.sol\":1813:1823  taskSphere */\n              0x01\n                /* \"Task.sol\":1825:1831  worker */\n              0x06\n              0x00\n              swap1\n              sload\n              swap1\n              0x0100\n              exp\n              swap1\n              div\n              0xffffffffffffffffffffffffffffffffffffffff\n              and\n                /* \"Task.sol\":1833:1844  isCompleted */\n              0x06\n              0x14\n              swap1\n              sload\n              swap1\n              0x0100\n              exp\n              swap1\n              div\n              0xff\n              and\n                /* \"Task.sol\":1846:1858  requestsKeys */\n              0x08\n                /* \"Task.sol\":1758:1859  return (manager, taskName, taskFiles, taskDescription, taskSphere, worker, isCompleted, requestsKeys) */\n              dup7\n              dup1\n              sload\n              tag_100\n              swap1\n              tag_82\n              jump\t// in\n            tag_100:\n              dup1\n              0x1f\n              add\n              0x20\n              dup1\n              swap2\n              div\n              mul\n              0x20\n              add\n              mload(0x40)\n              swap1\n              dup2\n              add\n              0x40\n              mstore\n              dup1\n              swap3\n              swap2\n              swap1\n              dup2\n              dup2\n              mstore\n              0x20\n              add\n              dup3\n              dup1\n              sload\n              tag_101\n              swap1\n              tag_82\n              jump\t// in\n            tag_101:\n              dup1\n              iszero\n              tag_102\n              jumpi\n              dup1\n              0x1f\n              lt\n              tag_103\n              jumpi\n              0x0100\n              dup1\n              dup4\n              sload\n              div\n              mul\n              dup4\n              mstore\n              swap2\n              0x20\n              add\n              swap2\n              jump(tag_102)\n            tag_103:\n              dup3\n              add\n              swap2\n              swap1\n              0x00\n              mstore\n              keccak256(0x00, 0x20)\n              swap1\n            tag_104:\n              dup2\n              sload\n              dup2\n              mstore\n              swap1\n              0x01\n              add\n              swap1\n              0x20\n              add\n              dup1\n              dup4\n              gt\n              tag_104\n              jumpi\n              dup3\n              swap1\n              sub\n              0x1f\n              and\n              dup3\n              add\n              swap2\n            tag_102:\n              pop\n              pop\n              pop\n              pop\n              pop\n              swap7\n              pop\n              dup6\n              dup1\n              sload\n              dup1\n              0x20\n              mul\n              0x20\n              add\n              mload(0x40)\n              swap1\n              dup2\n              add\n              0x40\n              mstore\n              dup1\n              swap3\n              swap2\n              swap1\n              dup2\n              dup2\n              mstore\n              0x20\n              add\n              0x00\n              swap1\n            tag_105:\n              dup3\n              dup3\n              lt\n              iszero\n              tag_106\n              jumpi\n              dup4\n              dup3\n              swap1\n              0x00\n              mstore\n              keccak256(0x00, 0x20)\n              add\n              dup1\n              sload\n              tag_108\n              swap1\n              tag_82\n              jump\t// in\n            tag_108:\n              dup1\n              0x1f\n              add\n              0x20\n              dup1\n              swap2\n              div\n              mul\n              0x20\n              add\n              mload(0x40)\n              swap1\n              dup2\n              add\n              0x40\n              mstore\n              dup1\n              swap3\n              swap2\n              swap1\n              dup2\n              dup2\n              mstore\n              0x20\n              add\n              dup3\n              dup1\n              sload\n              tag_109\n              swap1\n              tag_82\n              jump\t// in\n            tag_109:\n              dup1\n              iszero\n              tag_110\n              jumpi\n              dup1\n              0x1f\n              lt\n              tag_111\n              jumpi\n              0x0100\n              dup1\n              dup4\n              sload\n              div\n              mul\n              dup4\n              mstore\n              swap2\n              0x20\n              add\n              swap2\n              jump(tag_110)\n            tag_111:\n              dup3\n              add\n              swap2\n              swap1\n              0x00\n              mstore\n              keccak256(0x00, 0x20)\n              swap1\n            tag_112:\n              dup2\n              sload\n              dup2\n              mstore\n              swap1\n              0x01\n              add\n              swap1\n              0x20\n              add\n              dup1\n              dup4\n              gt\n              tag_112\n              jumpi\n              dup3\n              swap1\n              sub\n              0x1f\n              and\n              dup3\n              add\n              swap2\n            tag_110:\n              pop\n              pop\n              pop\n              pop\n              pop\n              dup2\n              mstore\n              0x20\n              add\n              swap1\n              0x01\n              add\n              swap1\n              jump(tag_105)\n            tag_106:\n              pop\n              pop\n              pop\n              pop\n              swap6\n              pop\n              dup5\n              dup1\n              sload\n              tag_113\n              swap1\n              tag_82\n              jump\t// in\n            tag_113:\n              dup1\n              0x1f\n              add\n              0x20\n              dup1\n              swap2\n              div\n              mul\n              0x20\n              add\n              mload(0x40)\n              swap1\n              dup2\n              add\n              0x40\n              mstore\n              dup1\n              swap3\n              swap2\n              swap1\n              dup2\n              dup2\n              mstore\n              0x20\n              add\n              dup3\n              dup1\n              sload\n              tag_114\n              swap1\n              tag_82\n              jump\t// in\n            tag_114:\n              dup1\n              iszero\n              tag_115\n              jumpi\n              dup1\n              0x1f\n              lt\n              tag_116\n              jumpi\n              0x0100\n              dup1\n              dup4\n              sload\n              div\n              mul\n              dup4\n              mstore\n              swap2\n              0x20\n              add\n              swap2\n              jump(tag_115)\n            tag_116:\n              dup3\n              add\n              swap2\n              swap1\n              0x00\n              mstore\n              keccak256(0x00, 0x20)\n              swap1\n            tag_117:\n              dup2\n              sload\n              dup2\n              mstore\n              swap1\n              0x01\n              add\n              swap1\n              0x20\n              add\n              dup1\n              dup4\n              gt\n              tag_117\n              jumpi\n              dup3\n              swap1\n              sub\n              0x1f\n              and\n              dup3\n              add\n              swap2\n            tag_115:\n              pop\n              pop\n              pop\n              pop\n              pop\n              swap5\n              pop\n              dup4\n              dup1\n              sload\n              tag_118\n              swap1\n              tag_82\n              jump\t// in\n            tag_118:\n              dup1\n              0x1f\n              add\n              0x20\n              dup1\n              swap2\n              div\n              mul\n              0x20\n              add\n              mload(0x40)\n              swap1\n              dup2\n              add\n              0x40\n              mstore\n              dup1\n              swap3\n              swap2\n              swap1\n              dup2\n              dup2\n              mstore\n              0x20\n              add\n              dup3\n              dup1\n              sload\n              tag_119\n              swap1\n              tag_82\n              jump\t// in\n            tag_119:\n              dup1\n              iszero\n              tag_120\n              jumpi\n              dup1\n              0x1f\n              lt\n              tag_121\n              jumpi\n              0x0100\n              dup1\n              dup4\n              sload\n              div\n              mul\n              dup4\n              mstore\n              swap2\n              0x20\n              add\n              swap2\n              jump(tag_120)\n            tag_121:\n              dup3\n              add\n              swap2\n              swap1\n              0x00\n              mstore\n              keccak256(0x00, 0x20)\n              swap1\n            tag_122:\n              dup2\n              sload\n              dup2\n              mstore\n              swap1\n              0x01\n              add\n              swap1\n              0x20\n              add\n              dup1\n              dup4\n              gt\n              tag_122\n              jumpi\n              dup3\n              swap1\n              sub\n              0x1f\n              and\n              dup3\n              add\n              swap2\n            tag_120:\n              pop\n              pop\n              pop\n              pop\n              pop\n              swap4\n              pop\n              dup1\n              dup1\n              sload\n              dup1\n              0x20\n              mul\n              0x20\n              add\n              mload(0x40)\n              swap1\n              dup2\n              add\n              0x40\n              mstore\n              dup1\n              swap3\n              swap2\n              swap1\n              dup2\n              dup2\n              mstore\n              0x20\n              add\n              dup3\n              dup1\n              sload\n              dup1\n              iszero\n              tag_123\n              jumpi\n              0x20\n              mul\n              dup3\n              add\n              swap2\n              swap1\n              0x00\n              mstore\n              keccak256(0x00, 0x20)\n              swap1\n            tag_124:\n              dup2\n              0x00\n              swap1\n              sload\n              swap1\n              0x0100\n              exp\n              swap1\n              div\n              0xffffffffffffffffffffffffffffffffffffffff\n              and\n              0xffffffffffffffffffffffffffffffffffffffff\n              and\n              dup2\n              mstore\n              0x20\n              add\n              swap1\n              0x01\n              add\n              swap1\n              dup1\n              dup4\n              gt\n              tag_124\n              jumpi\n            tag_123:\n              pop\n              pop\n              pop\n              pop\n              pop\n              swap1\n              pop\n              swap8\n              pop\n              swap8\n              pop\n              swap8\n              pop\n              swap8\n              pop\n              swap8\n              pop\n              swap8\n              pop\n              swap8\n              pop\n              swap8\n              pop\n                /* \"Task.sol\":1580:1869  function getInfo() public view returns(address payable, string memory, string[] memory, string memory, string memory, address payable, bool, address payable[] memory) {... */\n              swap1\n              swap2\n              swap3\n              swap4\n              swap5\n              swap6\n              swap7\n              swap8\n              jump\t// out\n                /* \"Task.sol\":1968:2066  function getHashtags() public view returns(string[] memory) {... */\n            tag_49:\n                /* \"Task.sol\":2011:2026  string[] memory */\n              0x60\n                /* \"Task.sol\":2046:2058  taskHashtags */\n              0x05\n                /* \"Task.sol\":2039:2058  return taskHashtags */\n              dup1\n              sload\n              dup1\n              0x20\n              mul\n              0x20\n              add\n              mload(0x40)\n              swap1\n              dup2\n              add\n              0x40\n              mstore\n              dup1\n              swap3\n              swap2\n              swap1\n              dup2\n              dup2\n              mstore\n              0x20\n              add\n              0x00\n              swap1\n            tag_126:\n              dup3\n              dup3\n              lt\n              iszero\n              tag_127\n              jumpi\n              dup4\n              dup3\n              swap1\n              0x00\n              mstore\n              keccak256(0x00, 0x20)\n              add\n              dup1\n              sload\n              tag_129\n              swap1\n              tag_82\n              jump\t// in\n            tag_129:\n              dup1\n              0x1f\n              add\n              0x20\n              dup1\n              swap2\n              div\n              mul\n              0x20\n              add\n              mload(0x40)\n              swap1\n              dup2\n              add\n              0x40\n              mstore\n              dup1\n              swap3\n              swap2\n              swap1\n              dup2\n              dup2\n              mstore\n              0x20\n              add\n              dup3\n              dup1\n              sload\n              tag_130\n              swap1\n              tag_82\n              jump\t// in\n            tag_130:\n              dup1\n              iszero\n              tag_131\n              jumpi\n              dup1\n              0x1f\n              lt\n              tag_132\n              jumpi\n              0x0100\n              dup1\n              dup4\n              sload\n              div\n              mul\n              dup4\n              mstore\n              swap2\n              0x20\n              add\n              swap2\n              jump(tag_131)\n            tag_132:\n              dup3\n              add\n              swap2\n              swap1\n              0x00\n              mstore\n              keccak256(0x00, 0x20)\n              swap1\n            tag_133:\n              dup2\n              sload\n              dup2\n              mstore\n              swap1\n              0x01\n              add\n              swap1\n              0x20\n              add\n              dup1\n              dup4\n              gt\n              tag_133\n              jumpi\n              dup3\n              swap1\n              sub\n              0x1f\n              and\n              dup3\n              add\n              swap2\n            tag_131:\n              pop\n              pop\n              pop\n              pop\n              pop\n              dup2\n              mstore\n              0x20\n              add\n              swap1\n              0x01\n              add\n              swap1\n              jump(tag_126)\n            tag_127:\n              pop\n              pop\n              pop\n              pop\n              swap1\n              pop\n                /* \"Task.sol\":1968:2066  function getHashtags() public view returns(string[] memory) {... */\n              swap1\n              jump\t// out\n                /* \"Task.sol\":2447:2594  function startTask(address newWorker) public restricted {... */\n            tag_55:\n                /* \"Task.sol\":1932:1939  manager */\n              0x00\n              dup1\n              sload\n              swap1\n              0x0100\n              exp\n              swap1\n              div\n              0xffffffffffffffffffffffffffffffffffffffff\n              and\n                /* \"Task.sol\":1918:1939  msg.sender == manager */\n              0xffffffffffffffffffffffffffffffffffffffff\n              and\n                /* \"Task.sol\":1918:1928  msg.sender */\n              caller\n                /* \"Task.sol\":1918:1939  msg.sender == manager */\n              0xffffffffffffffffffffffffffffffffffffffff\n              and\n              eq\n                /* \"Task.sol\":1910:1940  require(msg.sender == manager) */\n              tag_135\n              jumpi\n              0x00\n              dup1\n              revert\n            tag_135:\n                /* \"Task.sol\":2522:2530  requests */\n              0x07\n                /* \"Task.sol\":2522:2541  requests[newWorker] */\n              0x00\n                /* \"Task.sol\":2531:2540  newWorker */\n              dup3\n                /* \"Task.sol\":2522:2541  requests[newWorker] */\n              0xffffffffffffffffffffffffffffffffffffffff\n              and\n              0xffffffffffffffffffffffffffffffffffffffff\n              and\n              dup2\n              mstore\n              0x20\n              add\n              swap1\n              dup2\n              mstore\n              0x20\n              add\n              0x00\n              keccak256\n                /* \"Task.sol\":2522:2547  requests[newWorker].exist */\n              0x01\n              add\n              0x14\n              swap1\n              sload\n              swap1\n              0x0100\n              exp\n              swap1\n              div\n              0xff\n              and\n                /* \"Task.sol\":2514:2548  require(requests[newWorker].exist) */\n              tag_137\n              jumpi\n              0x00\n              dup1\n              revert\n            tag_137:\n                /* \"Task.sol\":2576:2585  newWorker */\n              dup1\n                /* \"Task.sol\":2559:2565  worker */\n              0x06\n              0x00\n                /* \"Task.sol\":2559:2586  worker = payable(newWorker) */\n              0x0100\n              exp\n              dup2\n              sload\n              dup2\n              0xffffffffffffffffffffffffffffffffffffffff\n              mul\n              not\n              and\n              swap1\n              dup4\n              0xffffffffffffffffffffffffffffffffffffffff\n              and\n              mul\n              or\n              swap1\n              sstore\n              pop\n                /* \"Task.sol\":2447:2594  function startTask(address newWorker) public restricted {... */\n              pop\n              jump\t// out\n                /* \"Task.sol\":873:898  string[] public taskFiles */\n            tag_58:\n              0x03\n              dup2\n              dup2\n              sload\n              dup2\n              lt\n              tag_138\n              jumpi\n              0x00\n              dup1\n              revert\n            tag_138:\n              swap1\n              0x00\n              mstore\n              keccak256(0x00, 0x20)\n              add\n              0x00\n              swap2\n              pop\n              swap1\n              pop\n              dup1\n              sload\n              tag_140\n              swap1\n              tag_82\n              jump\t// in\n            tag_140:\n              dup1\n              0x1f\n              add\n              0x20\n              dup1\n              swap2\n              div\n              mul\n              0x20\n              add\n              mload(0x40)\n              swap1\n              dup2\n              add\n              0x40\n              mstore\n              dup1\n              swap3\n              swap2\n              swap1\n              dup2\n              dup2\n              mstore\n              0x20\n              add\n              dup3\n              dup1\n              sload\n              tag_141\n              swap1\n              tag_82\n              jump\t// in\n            tag_141:\n              dup1\n              iszero\n              tag_142\n              jumpi\n              dup1\n              0x1f\n              lt\n              tag_143\n              jumpi\n              0x0100\n              dup1\n              dup4\n              sload\n              div\n              mul\n              dup4\n              mstore\n              swap2\n              0x20\n              add\n              swap2\n              jump(tag_142)\n            tag_143:\n              dup3\n              add\n              swap2\n              swap1\n              0x00\n              mstore\n              keccak256(0x00, 0x20)\n              swap1\n            tag_144:\n              dup2\n              sload\n              dup2\n              mstore\n              swap1\n              0x01\n              add\n              swap1\n              0x20\n              add\n              dup1\n              dup4\n              gt\n              tag_144\n              jumpi\n              dup3\n              swap1\n              sub\n              0x1f\n              and\n              dup3\n              add\n              swap2\n            tag_142:\n              pop\n              pop\n              pop\n              pop\n              pop\n              dup2\n              jump\t// out\n                /* \"Task.sol\":1042:1085  mapping(address => Request) public requests */\n            tag_62:\n              mstore(0x20, 0x07)\n              dup1\n              0x00\n              mstore\n              keccak256(0x00, 0x40)\n              0x00\n              swap2\n              pop\n              swap1\n              pop\n              dup1\n              0x00\n              add\n              dup1\n              sload\n              tag_145\n              swap1\n              tag_82\n              jump\t// in\n            tag_145:\n              dup1\n              0x1f\n              add\n              0x20\n              dup1\n              swap2\n              div\n              mul\n              0x20\n              add\n              mload(0x40)\n              swap1\n              dup2\n              add\n              0x40\n              mstore\n              dup1\n              swap3\n              swap2\n              swap1\n              dup2\n              dup2\n              mstore\n              0x20\n              add\n              dup3\n              dup1\n              sload\n              tag_146\n              swap1\n              tag_82\n              jump\t// in\n            tag_146:\n              dup1\n              iszero\n              tag_147\n              jumpi\n              dup1\n              0x1f\n              lt\n              tag_148\n              jumpi\n              0x0100\n              dup1\n              dup4\n              sload\n              div\n              mul\n              dup4\n              mstore\n              swap2\n              0x20\n              add\n              swap2\n              jump(tag_147)\n            tag_148:\n              dup3\n              add\n              swap2\n              swap1\n              0x00\n              mstore\n              keccak256(0x00, 0x20)\n              swap1\n            tag_149:\n              dup2\n              sload\n              dup2\n              mstore\n              swap1\n              0x01\n              add\n              swap1\n              0x20\n              add\n              dup1\n              dup4\n              gt\n              tag_149\n              jumpi\n              dup3\n              swap1\n              sub\n              0x1f\n              and\n              dup3\n              add\n              swap2\n            tag_147:\n              pop\n              pop\n              pop\n              pop\n              pop\n              swap1\n              dup1\n              0x01\n              add\n              0x00\n              swap1\n              sload\n              swap1\n              0x0100\n              exp\n              swap1\n              div\n              0xffffffffffffffffffffffffffffffffffffffff\n              and\n              swap1\n              dup1\n              0x01\n              add\n              0x14\n              swap1\n              sload\n              swap1\n              0x0100\n              exp\n              swap1\n              div\n              0xff\n              and\n              swap1\n              pop\n              dup4\n              jump\t// out\n                /* \"Task.sol\":2602:2731  function finalizeTask () public restricted {... */\n            tag_66:\n                /* \"Task.sol\":1932:1939  manager */\n              0x00\n              dup1\n              sload\n              swap1\n              0x0100\n              exp\n              swap1\n              div\n              0xffffffffffffffffffffffffffffffffffffffff\n              and\n                /* \"Task.sol\":1918:1939  msg.sender == manager */\n              0xffffffffffffffffffffffffffffffffffffffff\n              and\n                /* \"Task.sol\":1918:1928  msg.sender */\n              caller\n                /* \"Task.sol\":1918:1939  msg.sender == manager */\n              0xffffffffffffffffffffffffffffffffffffffff\n              and\n              eq\n                /* \"Task.sol\":1910:1940  require(msg.sender == manager) */\n              tag_151\n              jumpi\n              0x00\n              dup1\n              revert\n            tag_151:\n                /* \"Task.sol\":2656:2662  worker */\n              0x06\n              0x00\n              swap1\n              sload\n              swap1\n              0x0100\n              exp\n              swap1\n              div\n              0xffffffffffffffffffffffffffffffffffffffff\n              and\n                /* \"Task.sol\":2656:2671  worker.transfer */\n              0xffffffffffffffffffffffffffffffffffffffff\n              and\n                /* \"Task.sol\":2656:2694  worker.transfer(address(this).balance) */\n              0x08fc\n                /* \"Task.sol\":2672:2693  address(this).balance */\n              selfbalance\n                /* \"Task.sol\":2656:2694  worker.transfer(address(this).balance) */\n              swap1\n              dup2\n              iszero\n              mul\n              swap1\n              mload(0x40)\n              0x00\n              mload(0x40)\n              dup1\n              dup4\n              sub\n              dup2\n              dup6\n              dup9\n              dup9\n              call\n              swap4\n              pop\n              pop\n              pop\n              pop\n              iszero\n              dup1\n              iszero\n              tag_154\n              jumpi\n              returndatasize\n              0x00\n              dup1\n              returndatacopy\n              revert(0x00, returndatasize)\n            tag_154:\n              pop\n                /* \"Task.sol\":2719:2723  true */\n              0x01\n                /* \"Task.sol\":2705:2716  isCompleted */\n              0x06\n              0x14\n                /* \"Task.sol\":2705:2723  isCompleted = true */\n              0x0100\n              exp\n              dup2\n              sload\n              dup2\n              0xff\n              mul\n              not\n              and\n              swap1\n              dup4\n              iszero\n              iszero\n              mul\n              or\n              swap1\n              sstore\n              pop\n                /* \"Task.sol\":2602:2731  function finalizeTask () public restricted {... */\n              jump\t// out\n                /* \"Task.sol\":941:969  string[] public taskHashtags */\n            tag_69:\n              0x05\n              dup2\n              dup2\n              sload\n              dup2\n              lt\n              tag_155\n              jumpi\n              0x00\n              dup1\n              revert\n            tag_155:\n              swap1\n              0x00\n              mstore\n              keccak256(0x00, 0x20)\n              add\n              0x00\n              swap2\n              pop\n              swap1\n              pop\n              dup1\n              sload\n              tag_157\n              swap1\n              tag_82\n              jump\t// in\n            tag_157:\n              dup1\n              0x1f\n              add\n              0x20\n              dup1\n              swap2\n              div\n              mul\n              0x20\n              add\n              mload(0x40)\n              swap1\n              dup2\n              add\n              0x40\n              mstore\n              dup1\n              swap3\n              swap2\n              swap1\n              dup2\n              dup2\n              mstore\n              0x20\n              add\n              dup3\n              dup1\n              sload\n              tag_158\n              swap1\n              tag_82\n              jump\t// in\n            tag_158:\n              dup1\n              iszero\n              tag_159\n              jumpi\n              dup1\n              0x1f\n              lt\n              tag_160\n              jumpi\n              0x0100\n              dup1\n              dup4\n              sload\n              div\n              mul\n              dup4\n              mstore\n              swap2\n              0x20\n              add\n              swap2\n              jump(tag_159)\n            tag_160:\n              dup3\n              add\n              swap2\n              swap1\n              0x00\n              mstore\n              keccak256(0x00, 0x20)\n              swap1\n            tag_161:\n              dup2\n              sload\n              dup2\n              mstore\n              swap1\n              0x01\n              add\n              swap1\n              0x20\n              add\n              dup1\n              dup4\n              gt\n              tag_161\n              jumpi\n              dup3\n              swap1\n              sub\n              0x1f\n              and\n              dup3\n              add\n              swap2\n            tag_159:\n              pop\n              pop\n              pop\n              pop\n              pop\n              dup2\n              jump\t// out\n                /* \"Task.sol\":813:837  string public taskSphere */\n            tag_72:\n              0x01\n              dup1\n              sload\n              tag_162\n              swap1\n              tag_82\n              jump\t// in\n            tag_162:\n              dup1\n              0x1f\n              add\n              0x20\n              dup1\n              swap2\n              div\n              mul\n              0x20\n              add\n              mload(0x40)\n              swap1\n              dup2\n              add\n              0x40\n              mstore\n              dup1\n              swap3\n              swap2\n              swap1\n              dup2\n              dup2\n              mstore\n              0x20\n              add\n              dup3\n              dup1\n              sload\n              tag_163\n              swap1\n              tag_82\n              jump\t// in\n            tag_163:\n              dup1\n              iszero\n              tag_164\n              jumpi\n              dup1\n              0x1f\n              lt\n              tag_165\n              jumpi\n              0x0100\n              dup1\n              dup4\n              sload\n              div\n              mul\n              dup4\n              mstore\n              swap2\n              0x20\n              add\n              swap2\n              jump(tag_164)\n            tag_165:\n              dup3\n              add\n              swap2\n              swap1\n              0x00\n              mstore\n              keccak256(0x00, 0x20)\n              swap1\n            tag_166:\n              dup2\n              sload\n              dup2\n              mstore\n              swap1\n              0x01\n              add\n              swap1\n              0x20\n              add\n              dup1\n              dup4\n              gt\n              tag_166\n              jumpi\n              dup3\n              swap1\n              sub\n              0x1f\n              and\n              dup3\n              add\n              swap2\n            tag_164:\n              pop\n              pop\n              pop\n              pop\n              pop\n              dup2\n              jump\t// out\n                /* \"Task.sol\":1012:1035  bool public isCompleted */\n            tag_75:\n              0x06\n              0x14\n              swap1\n              sload\n              swap1\n              0x0100\n              exp\n              swap1\n              div\n              0xff\n              and\n              dup2\n              jump\t// out\n                /* \"Task.sol\":905:934  string public taskDescription */\n            tag_79:\n              0x04\n              dup1\n              sload\n              tag_167\n              swap1\n              tag_82\n              jump\t// in\n            tag_167:\n              dup1\n              0x1f\n              add\n              0x20\n              dup1\n              swap2\n              div\n              mul\n              0x20\n              add\n              mload(0x40)\n              swap1\n              dup2\n              add\n              0x40\n              mstore\n              dup1\n              swap3\n              swap2\n              swap1\n              dup2\n              dup2\n              mstore\n              0x20\n              add\n              dup3\n              dup1\n              sload\n              tag_168\n              swap1\n              tag_82\n              jump\t// in\n            tag_168:\n              dup1\n              iszero\n              tag_169\n              jumpi\n              dup1\n              0x1f\n              lt\n              tag_170\n              jumpi\n              0x0100\n              dup1\n              dup4\n              sload\n              div\n              mul\n              dup4\n              mstore\n              swap2\n              0x20\n              add\n              swap2\n              jump(tag_169)\n            tag_170:\n              dup3\n              add\n              swap2\n              swap1\n              0x00\n              mstore\n              keccak256(0x00, 0x20)\n              swap1\n            tag_171:\n              dup2\n              sload\n              dup2\n              mstore\n              swap1\n              0x01\n              add\n              swap1\n              0x20\n              add\n              dup1\n              dup4\n              gt\n              tag_171\n              jumpi\n              dup3\n              swap1\n              sub\n              0x1f\n              and\n              dup3\n              add\n              swap2\n            tag_169:\n              pop\n              pop\n              pop\n              pop\n              pop\n              dup2\n              jump\t// out\n            tag_95:\n              dup3\n              dup1\n              sload\n              tag_172\n              swap1\n              tag_82\n              jump\t// in\n            tag_172:\n              swap1\n              0x00\n              mstore\n              keccak256(0x00, 0x20)\n              swap1\n              0x1f\n              add\n              0x20\n              swap1\n              div\n              dup2\n              add\n              swap3\n              dup3\n              tag_174\n              jumpi\n              0x00\n              dup6\n              sstore\n              jump(tag_173)\n            tag_174:\n              dup3\n              0x1f\n              lt\n              tag_175\n              jumpi\n              dup1\n              mload\n              not(0xff)\n              and\n              dup4\n              dup1\n              add\n              or\n              dup6\n              sstore\n              jump(tag_173)\n            tag_175:\n              dup3\n              dup1\n              add\n              0x01\n              add\n              dup6\n              sstore\n              dup3\n              iszero\n              tag_173\n              jumpi\n              swap2\n              dup3\n              add\n            tag_176:\n              dup3\n              dup2\n              gt\n              iszero\n              tag_177\n              jumpi\n              dup3\n              mload\n              dup3\n              sstore\n              swap2\n              0x20\n              add\n              swap2\n              swap1\n              0x01\n              add\n              swap1\n              jump(tag_176)\n            tag_177:\n            tag_173:\n              pop\n              swap1\n              pop\n              tag_178\n              swap2\n              swap1\n              tag_179\n              jump\t// in\n            tag_178:\n              pop\n              swap1\n              jump\t// out\n            tag_179:\n            tag_180:\n              dup1\n              dup3\n              gt\n              iszero\n              tag_181\n              jumpi\n              0x00\n              dup2\n              0x00\n              swap1\n              sstore\n              pop\n              0x01\n              add\n              jump(tag_180)\n            tag_181:\n              pop\n              swap1\n              jump\t// out\n                /* \"#utility.yul\":7:106   */\n            tag_182:\n                /* \"#utility.yul\":59:65   */\n              0x00\n                /* \"#utility.yul\":93:98   */\n              dup2\n                /* \"#utility.yul\":87:99   */\n              mload\n                /* \"#utility.yul\":77:99   */\n              swap1\n              pop\n                /* \"#utility.yul\":7:106   */\n              swap2\n              swap1\n              pop\n              jump\t// out\n                /* \"#utility.yul\":112:281   */\n            tag_183:\n                /* \"#utility.yul\":196:207   */\n              0x00\n                /* \"#utility.yul\":230:236   */\n              dup3\n                /* \"#utility.yul\":225:228   */\n              dup3\n                /* \"#utility.yul\":218:237   */\n              mstore\n                /* \"#utility.yul\":270:274   */\n              0x20\n                /* \"#utility.yul\":265:268   */\n              dup3\n                /* \"#utility.yul\":261:275   */\n              add\n                /* \"#utility.yul\":246:275   */\n              swap1\n              pop\n                /* \"#utility.yul\":112:281   */\n              swap3\n              swap2\n              pop\n              pop\n              jump\t// out\n                /* \"#utility.yul\":287:594   */\n            tag_184:\n                /* \"#utility.yul\":355:356   */\n              0x00\n                /* \"#utility.yul\":365:478   */\n            tag_230:\n                /* \"#utility.yul\":379:385   */\n              dup4\n                /* \"#utility.yul\":376:377   */\n              dup2\n                /* \"#utility.yul\":373:386   */\n              lt\n                /* \"#utility.yul\":365:478   */\n              iszero\n              tag_232\n              jumpi\n                /* \"#utility.yul\":464:465   */\n              dup1\n                /* \"#utility.yul\":459:462   */\n              dup3\n                /* \"#utility.yul\":455:466   */\n              add\n                /* \"#utility.yul\":449:467   */\n              mload\n                /* \"#utility.yul\":445:446   */\n              dup2\n                /* \"#utility.yul\":440:443   */\n              dup5\n                /* \"#utility.yul\":436:447   */\n              add\n                /* \"#utility.yul\":429:468   */\n              mstore\n                /* \"#utility.yul\":401:403   */\n              0x20\n                /* \"#utility.yul\":398:399   */\n              dup2\n                /* \"#utility.yul\":394:404   */\n              add\n                /* \"#utility.yul\":389:404   */\n              swap1\n              pop\n                /* \"#utility.yul\":365:478   */\n              jump(tag_230)\n            tag_232:\n                /* \"#utility.yul\":496:502   */\n              dup4\n                /* \"#utility.yul\":493:494   */\n              dup2\n                /* \"#utility.yul\":490:503   */\n              gt\n                /* \"#utility.yul\":487:588   */\n              iszero\n              tag_233\n              jumpi\n                /* \"#utility.yul\":576:577   */\n              0x00\n                /* \"#utility.yul\":567:573   */\n              dup5\n                /* \"#utility.yul\":562:565   */\n              dup5\n                /* \"#utility.yul\":558:574   */\n              add\n                /* \"#utility.yul\":551:578   */\n              mstore\n                /* \"#utility.yul\":487:588   */\n            tag_233:\n                /* \"#utility.yul\":336:594   */\n              pop\n                /* \"#utility.yul\":287:594   */\n              pop\n              pop\n              pop\n              jump\t// out\n                /* \"#utility.yul\":600:702   */\n            tag_185:\n                /* \"#utility.yul\":641:647   */\n              0x00\n                /* \"#utility.yul\":692:694   */\n              0x1f\n                /* \"#utility.yul\":688:695   */\n              not\n                /* \"#utility.yul\":683:685   */\n              0x1f\n                /* \"#utility.yul\":676:681   */\n              dup4\n                /* \"#utility.yul\":672:686   */\n              add\n                /* \"#utility.yul\":668:696   */\n              and\n                /* \"#utility.yul\":658:696   */\n              swap1\n              pop\n                /* \"#utility.yul\":600:702   */\n              swap2\n              swap1\n              pop\n              jump\t// out\n                /* \"#utility.yul\":708:1072   */\n            tag_186:\n                /* \"#utility.yul\":796:799   */\n              0x00\n                /* \"#utility.yul\":824:863   */\n              tag_236\n                /* \"#utility.yul\":857:862   */\n              dup3\n                /* \"#utility.yul\":824:863   */\n              tag_182\n              jump\t// in\n            tag_236:\n                /* \"#utility.yul\":879:950   */\n              tag_237\n                /* \"#utility.yul\":943:949   */\n              dup2\n                /* \"#utility.yul\":938:941   */\n              dup6\n                /* \"#utility.yul\":879:950   */\n              tag_183\n              jump\t// in\n            tag_237:\n                /* \"#utility.yul\":872:950   */\n              swap4\n              pop\n                /* \"#utility.yul\":959:1011   */\n              tag_238\n                /* \"#utility.yul\":1004:1010   */\n              dup2\n                /* \"#utility.yul\":999:1002   */\n              dup6\n                /* \"#utility.yul\":992:996   */\n              0x20\n                /* \"#utility.yul\":985:990   */\n              dup7\n                /* \"#utility.yul\":981:997   */\n              add\n                /* \"#utility.yul\":959:1011   */\n              tag_184\n              jump\t// in\n            tag_238:\n                /* \"#utility.yul\":1036:1065   */\n              tag_239\n                /* \"#utility.yul\":1058:1064   */\n              dup2\n                /* \"#utility.yul\":1036:1065   */\n              tag_185\n              jump\t// in\n            tag_239:\n                /* \"#utility.yul\":1031:1034   */\n              dup5\n                /* \"#utility.yul\":1027:1066   */\n              add\n                /* \"#utility.yul\":1020:1066   */\n              swap2\n              pop\n                /* \"#utility.yul\":800:1072   */\n              pop\n                /* \"#utility.yul\":708:1072   */\n              swap3\n              swap2\n              pop\n              pop\n              jump\t// out\n                /* \"#utility.yul\":1078:1391   */\n            tag_25:\n                /* \"#utility.yul\":1191:1195   */\n              0x00\n                /* \"#utility.yul\":1229:1231   */\n              0x20\n                /* \"#utility.yul\":1218:1227   */\n              dup3\n                /* \"#utility.yul\":1214:1232   */\n              add\n                /* \"#utility.yul\":1206:1232   */\n              swap1\n              pop\n                /* \"#utility.yul\":1278:1287   */\n              dup2\n                /* \"#utility.yul\":1272:1276   */\n              dup2\n                /* \"#utility.yul\":1268:1288   */\n              sub\n                /* \"#utility.yul\":1264:1265   */\n              0x00\n                /* \"#utility.yul\":1253:1262   */\n              dup4\n                /* \"#utility.yul\":1249:1266   */\n              add\n                /* \"#utility.yul\":1242:1289   */\n              mstore\n                /* \"#utility.yul\":1306:1384   */\n              tag_241\n                /* \"#utility.yul\":1379:1383   */\n              dup2\n                /* \"#utility.yul\":1370:1376   */\n              dup5\n                /* \"#utility.yul\":1306:1384   */\n              tag_186\n              jump\t// in\n            tag_241:\n                /* \"#utility.yul\":1298:1384   */\n              swap1\n              pop\n                /* \"#utility.yul\":1078:1391   */\n              swap3\n              swap2\n              pop\n              pop\n              jump\t// out\n                /* \"#utility.yul\":1397:1472   */\n            tag_187:\n                /* \"#utility.yul\":1430:1436   */\n              0x00\n                /* \"#utility.yul\":1463:1465   */\n              0x40\n                /* \"#utility.yul\":1457:1466   */\n              mload\n                /* \"#utility.yul\":1447:1466   */\n              swap1\n              pop\n                /* \"#utility.yul\":1397:1472   */\n              swap1\n              jump\t// out\n                /* \"#utility.yul\":1478:1595   */\n            tag_188:\n                /* \"#utility.yul\":1587:1588   */\n              0x00\n                /* \"#utility.yul\":1584:1585   */\n              dup1\n                /* \"#utility.yul\":1577:1589   */\n              revert\n                /* \"#utility.yul\":1601:1718   */\n            tag_189:\n                /* \"#utility.yul\":1710:1711   */\n              0x00\n                /* \"#utility.yul\":1707:1708   */\n              dup1\n                /* \"#utility.yul\":1700:1712   */\n              revert\n                /* \"#utility.yul\":1724:1841   */\n            tag_190:\n                /* \"#utility.yul\":1833:1834   */\n              0x00\n                /* \"#utility.yul\":1830:1831   */\n              dup1\n                /* \"#utility.yul\":1823:1835   */\n              revert\n                /* \"#utility.yul\":1847:1964   */\n            tag_191:\n                /* \"#utility.yul\":1956:1957   */\n              0x00\n                /* \"#utility.yul\":1953:1954   */\n              dup1\n                /* \"#utility.yul\":1946:1958   */\n              revert\n                /* \"#utility.yul\":1970:2150   */\n            tag_192:\n                /* \"#utility.yul\":2018:2095   */\n              0x4e487b7100000000000000000000000000000000000000000000000000000000\n                /* \"#utility.yul\":2015:2016   */\n              0x00\n                /* \"#utility.yul\":2008:2096   */\n              mstore\n                /* \"#utility.yul\":2115:2119   */\n              0x41\n                /* \"#utility.yul\":2112:2113   */\n              0x04\n                /* \"#utility.yul\":2105:2120   */\n              mstore\n                /* \"#utility.yul\":2139:2143   */\n              0x24\n                /* \"#utility.yul\":2136:2137   */\n              0x00\n                /* \"#utility.yul\":2129:2144   */\n              revert\n                /* \"#utility.yul\":2156:2437   */\n            tag_193:\n                /* \"#utility.yul\":2239:2266   */\n              tag_249\n                /* \"#utility.yul\":2261:2265   */\n              dup3\n                /* \"#utility.yul\":2239:2266   */\n              tag_185\n              jump\t// in\n            tag_249:\n                /* \"#utility.yul\":2231:2237   */\n              dup2\n                /* \"#utility.yul\":2227:2267   */\n              add\n                /* \"#utility.yul\":2369:2375   */\n              dup2\n                /* \"#utility.yul\":2357:2367   */\n              dup2\n                /* \"#utility.yul\":2354:2376   */\n              lt\n                /* \"#utility.yul\":2333:2351   */\n              0xffffffffffffffff\n                /* \"#utility.yul\":2321:2331   */\n              dup3\n                /* \"#utility.yul\":2318:2352   */\n              gt\n                /* \"#utility.yul\":2315:2377   */\n              or\n                /* \"#utility.yul\":2312:2400   */\n              iszero\n              tag_250\n              jumpi\n                /* \"#utility.yul\":2380:2398   */\n              tag_251\n              tag_192\n              jump\t// in\n            tag_251:\n                /* \"#utility.yul\":2312:2400   */\n            tag_250:\n                /* \"#utility.yul\":2420:2430   */\n              dup1\n                /* \"#utility.yul\":2416:2418   */\n              0x40\n                /* \"#utility.yul\":2409:2431   */\n              mstore\n                /* \"#utility.yul\":2199:2437   */\n              pop\n                /* \"#utility.yul\":2156:2437   */\n              pop\n              pop\n              jump\t// out\n                /* \"#utility.yul\":2443:2572   */\n            tag_194:\n                /* \"#utility.yul\":2477:2483   */\n              0x00\n                /* \"#utility.yul\":2504:2524   */\n              tag_253\n              tag_187\n              jump\t// in\n            tag_253:\n                /* \"#utility.yul\":2494:2524   */\n              swap1\n              pop\n                /* \"#utility.yul\":2533:2566   */\n              tag_254\n                /* \"#utility.yul\":2561:2565   */\n              dup3\n                /* \"#utility.yul\":2553:2559   */\n              dup3\n                /* \"#utility.yul\":2533:2566   */\n              tag_193\n              jump\t// in\n            tag_254:\n                /* \"#utility.yul\":2443:2572   */\n              swap2\n              swap1\n              pop\n              jump\t// out\n                /* \"#utility.yul\":2578:2886   */\n            tag_195:\n                /* \"#utility.yul\":2640:2644   */\n              0x00\n                /* \"#utility.yul\":2730:2748   */\n              0xffffffffffffffff\n                /* \"#utility.yul\":2722:2728   */\n              dup3\n                /* \"#utility.yul\":2719:2749   */\n              gt\n                /* \"#utility.yul\":2716:2772   */\n              iszero\n              tag_256\n              jumpi\n                /* \"#utility.yul\":2752:2770   */\n              tag_257\n              tag_192\n              jump\t// in\n            tag_257:\n                /* \"#utility.yul\":2716:2772   */\n            tag_256:\n                /* \"#utility.yul\":2790:2819   */\n              tag_258\n                /* \"#utility.yul\":2812:2818   */\n              dup3\n                /* \"#utility.yul\":2790:2819   */\n              tag_185\n              jump\t// in\n            tag_258:\n                /* \"#utility.yul\":2782:2819   */\n              swap1\n              pop\n                /* \"#utility.yul\":2874:2878   */\n              0x20\n                /* \"#utility.yul\":2868:2872   */\n              dup2\n                /* \"#utility.yul\":2864:2879   */\n              add\n                /* \"#utility.yul\":2856:2879   */\n              swap1\n              pop\n                /* \"#utility.yul\":2578:2886   */\n              swap2\n              swap1\n              pop\n              jump\t// out\n                /* \"#utility.yul\":2892:3046   */\n            tag_196:\n                /* \"#utility.yul\":2976:2982   */\n              dup3\n                /* \"#utility.yul\":2971:2974   */\n              dup2\n                /* \"#utility.yul\":2966:2969   */\n              dup4\n                /* \"#utility.yul\":2953:2983   */\n              calldatacopy\n                /* \"#utility.yul\":3038:3039   */\n              0x00\n                /* \"#utility.yul\":3029:3035   */\n              dup4\n                /* \"#utility.yul\":3024:3027   */\n              dup4\n                /* \"#utility.yul\":3020:3036   */\n              add\n                /* \"#utility.yul\":3013:3040   */\n              mstore\n                /* \"#utility.yul\":2892:3046   */\n              pop\n              pop\n              pop\n              jump\t// out\n                /* \"#utility.yul\":3052:3464   */\n            tag_197:\n                /* \"#utility.yul\":3130:3135   */\n              0x00\n                /* \"#utility.yul\":3155:3221   */\n              tag_261\n                /* \"#utility.yul\":3171:3220   */\n              tag_262\n                /* \"#utility.yul\":3213:3219   */\n              dup5\n                /* \"#utility.yul\":3171:3220   */\n              tag_195\n              jump\t// in\n            tag_262:\n                /* \"#utility.yul\":3155:3221   */\n              tag_194\n              jump\t// in\n            tag_261:\n                /* \"#utility.yul\":3146:3221   */\n              swap1\n              pop\n                /* \"#utility.yul\":3244:3250   */\n              dup3\n                /* \"#utility.yul\":3237:3242   */\n              dup2\n                /* \"#utility.yul\":3230:3251   */\n              mstore\n                /* \"#utility.yul\":3282:3286   */\n              0x20\n                /* \"#utility.yul\":3275:3280   */\n              dup2\n                /* \"#utility.yul\":3271:3287   */\n              add\n                /* \"#utility.yul\":3320:3323   */\n              dup5\n                /* \"#utility.yul\":3311:3317   */\n              dup5\n                /* \"#utility.yul\":3306:3309   */\n              dup5\n                /* \"#utility.yul\":3302:3318   */\n              add\n                /* \"#utility.yul\":3299:3324   */\n              gt\n                /* \"#utility.yul\":3296:3408   */\n              iszero\n              tag_263\n              jumpi\n                /* \"#utility.yul\":3327:3406   */\n              tag_264\n              tag_191\n              jump\t// in\n            tag_264:\n                /* \"#utility.yul\":3296:3408   */\n            tag_263:\n                /* \"#utility.yul\":3417:3458   */\n              tag_265\n                /* \"#utility.yul\":3451:3457   */\n              dup5\n                /* \"#utility.yul\":3446:3449   */\n              dup3\n                /* \"#utility.yul\":3441:3444   */\n              dup6\n                /* \"#utility.yul\":3417:3458   */\n              tag_196\n              jump\t// in\n            tag_265:\n                /* \"#utility.yul\":3136:3464   */\n              pop\n                /* \"#utility.yul\":3052:3464   */\n              swap4\n              swap3\n              pop\n              pop\n              pop\n              jump\t// out\n                /* \"#utility.yul\":3484:3824   */\n            tag_198:\n                /* \"#utility.yul\":3540:3545   */\n              0x00\n                /* \"#utility.yul\":3589:3592   */\n              dup3\n                /* \"#utility.yul\":3582:3586   */\n              0x1f\n                /* \"#utility.yul\":3574:3580   */\n              dup4\n                /* \"#utility.yul\":3570:3587   */\n              add\n                /* \"#utility.yul\":3566:3593   */\n              slt\n                /* \"#utility.yul\":3556:3678   */\n              tag_267\n              jumpi\n                /* \"#utility.yul\":3597:3676   */\n              tag_268\n              tag_190\n              jump\t// in\n            tag_268:\n                /* \"#utility.yul\":3556:3678   */\n            tag_267:\n                /* \"#utility.yul\":3714:3720   */\n              dup2\n                /* \"#utility.yul\":3701:3721   */\n              calldataload\n                /* \"#utility.yul\":3739:3818   */\n              tag_269\n                /* \"#utility.yul\":3814:3817   */\n              dup5\n                /* \"#utility.yul\":3806:3812   */\n              dup3\n                /* \"#utility.yul\":3799:3803   */\n              0x20\n                /* \"#utility.yul\":3791:3797   */\n              dup7\n                /* \"#utility.yul\":3787:3804   */\n              add\n                /* \"#utility.yul\":3739:3818   */\n              tag_197\n              jump\t// in\n            tag_269:\n                /* \"#utility.yul\":3730:3818   */\n              swap2\n              pop\n                /* \"#utility.yul\":3546:3824   */\n              pop\n                /* \"#utility.yul\":3484:3824   */\n              swap3\n              swap2\n              pop\n              pop\n              jump\t// out\n                /* \"#utility.yul\":3830:4339   */\n            tag_30:\n                /* \"#utility.yul\":3899:3905   */\n              0x00\n                /* \"#utility.yul\":3948:3950   */\n              0x20\n                /* \"#utility.yul\":3936:3945   */\n              dup3\n                /* \"#utility.yul\":3927:3934   */\n              dup5\n                /* \"#utility.yul\":3923:3946   */\n              sub\n                /* \"#utility.yul\":3919:3951   */\n              slt\n                /* \"#utility.yul\":3916:4035   */\n              iszero\n              tag_271\n              jumpi\n                /* \"#utility.yul\":3954:4033   */\n              tag_272\n              tag_188\n              jump\t// in\n            tag_272:\n                /* \"#utility.yul\":3916:4035   */\n            tag_271:\n                /* \"#utility.yul\":4102:4103   */\n              0x00\n                /* \"#utility.yul\":4091:4100   */\n              dup3\n                /* \"#utility.yul\":4087:4104   */\n              add\n                /* \"#utility.yul\":4074:4105   */\n              calldataload\n                /* \"#utility.yul\":4132:4150   */\n              0xffffffffffffffff\n                /* \"#utility.yul\":4124:4130   */\n              dup2\n                /* \"#utility.yul\":4121:4151   */\n              gt\n                /* \"#utility.yul\":4118:4235   */\n              iszero\n              tag_273\n              jumpi\n                /* \"#utility.yul\":4154:4233   */\n              tag_274\n              tag_189\n              jump\t// in\n            tag_274:\n                /* \"#utility.yul\":4118:4235   */\n            tag_273:\n                /* \"#utility.yul\":4259:4322   */\n              tag_275\n                /* \"#utility.yul\":4314:4321   */\n              dup5\n                /* \"#utility.yul\":4305:4311   */\n              dup3\n                /* \"#utility.yul\":4294:4303   */\n              dup6\n                /* \"#utility.yul\":4290:4312   */\n              add\n                /* \"#utility.yul\":4259:4322   */\n              tag_198\n              jump\t// in\n            tag_275:\n                /* \"#utility.yul\":4249:4322   */\n              swap2\n              pop\n                /* \"#utility.yul\":4045:4332   */\n              pop\n                /* \"#utility.yul\":3830:4339   */\n              swap3\n              swap2\n              pop\n              pop\n              jump\t// out\n                /* \"#utility.yul\":4345:4422   */\n            tag_199:\n                /* \"#utility.yul\":4382:4389   */\n              0x00\n                /* \"#utility.yul\":4411:4416   */\n              dup2\n                /* \"#utility.yul\":4400:4416   */\n              swap1\n              pop\n                /* \"#utility.yul\":4345:4422   */\n              swap2\n              swap1\n              pop\n              jump\t// out\n                /* \"#utility.yul\":4428:4550   */\n            tag_200:\n                /* \"#utility.yul\":4501:4525   */\n              tag_278\n                /* \"#utility.yul\":4519:4524   */\n              dup2\n                /* \"#utility.yul\":4501:4525   */\n              tag_199\n              jump\t// in\n            tag_278:\n                /* \"#utility.yul\":4494:4499   */\n              dup2\n                /* \"#utility.yul\":4491:4526   */\n              eq\n                /* \"#utility.yul\":4481:4544   */\n              tag_279\n              jumpi\n                /* \"#utility.yul\":4540:4541   */\n              0x00\n                /* \"#utility.yul\":4537:4538   */\n              dup1\n                /* \"#utility.yul\":4530:4542   */\n              revert\n                /* \"#utility.yul\":4481:4544   */\n            tag_279:\n                /* \"#utility.yul\":4428:4550   */\n              pop\n              jump\t// out\n                /* \"#utility.yul\":4556:4695   */\n            tag_201:\n                /* \"#utility.yul\":4602:4607   */\n              0x00\n                /* \"#utility.yul\":4640:4646   */\n              dup2\n                /* \"#utility.yul\":4627:4647   */\n              calldataload\n                /* \"#utility.yul\":4618:4647   */\n              swap1\n              pop\n                /* \"#utility.yul\":4656:4689   */\n              tag_281\n                /* \"#utility.yul\":4683:4688   */\n              dup2\n                /* \"#utility.yul\":4656:4689   */\n              tag_200\n              jump\t// in\n            tag_281:\n                /* \"#utility.yul\":4556:4695   */\n              swap3\n              swap2\n              pop\n              pop\n              jump\t// out\n                /* \"#utility.yul\":4701:5030   */\n            tag_34:\n                /* \"#utility.yul\":4760:4766   */\n              0x00\n                /* \"#utility.yul\":4809:4811   */\n              0x20\n                /* \"#utility.yul\":4797:4806   */\n              dup3\n                /* \"#utility.yul\":4788:4795   */\n              dup5\n                /* \"#utility.yul\":4784:4807   */\n              sub\n                /* \"#utility.yul\":4780:4812   */\n              slt\n                /* \"#utility.yul\":4777:4896   */\n              iszero\n              tag_283\n              jumpi\n                /* \"#utility.yul\":4815:4894   */\n              tag_284\n              tag_188\n              jump\t// in\n            tag_284:\n                /* \"#utility.yul\":4777:4896   */\n            tag_283:\n                /* \"#utility.yul\":4935:4936   */\n              0x00\n                /* \"#utility.yul\":4960:5013   */\n              tag_285\n                /* \"#utility.yul\":5005:5012   */\n              dup5\n                /* \"#utility.yul\":4996:5002   */\n              dup3\n                /* \"#utility.yul\":4985:4994   */\n              dup6\n                /* \"#utility.yul\":4981:5003   */\n              add\n                /* \"#utility.yul\":4960:5013   */\n              tag_201\n              jump\t// in\n            tag_285:\n                /* \"#utility.yul\":4950:5013   */\n              swap2\n              pop\n                /* \"#utility.yul\":4906:5023   */\n              pop\n                /* \"#utility.yul\":4701:5030   */\n              swap3\n              swap2\n              pop\n              pop\n              jump\t// out\n                /* \"#utility.yul\":5036:5162   */\n            tag_202:\n                /* \"#utility.yul\":5073:5080   */\n              0x00\n                /* \"#utility.yul\":5113:5155   */\n              0xffffffffffffffffffffffffffffffffffffffff\n                /* \"#utility.yul\":5106:5111   */\n              dup3\n                /* \"#utility.yul\":5102:5156   */\n              and\n                /* \"#utility.yul\":5091:5156   */\n              swap1\n              pop\n                /* \"#utility.yul\":5036:5162   */\n              swap2\n              swap1\n              pop\n              jump\t// out\n                /* \"#utility.yul\":5168:5272   */\n            tag_203:\n                /* \"#utility.yul\":5213:5220   */\n              0x00\n                /* \"#utility.yul\":5242:5266   */\n              tag_288\n                /* \"#utility.yul\":5260:5265   */\n              dup3\n                /* \"#utility.yul\":5242:5266   */\n              tag_202\n              jump\t// in\n            tag_288:\n                /* \"#utility.yul\":5231:5266   */\n              swap1\n              pop\n                /* \"#utility.yul\":5168:5272   */\n              swap2\n              swap1\n              pop\n              jump\t// out\n                /* \"#utility.yul\":5278:5420   */\n            tag_204:\n                /* \"#utility.yul\":5381:5413   */\n              tag_290\n                /* \"#utility.yul\":5407:5412   */\n              dup2\n                /* \"#utility.yul\":5381:5413   */\n              tag_203\n              jump\t// in\n            tag_290:\n                /* \"#utility.yul\":5376:5379   */\n              dup3\n                /* \"#utility.yul\":5369:5414   */\n              mstore\n                /* \"#utility.yul\":5278:5420   */\n              pop\n              pop\n              jump\t// out\n                /* \"#utility.yul\":5426:5680   */\n            tag_37:\n                /* \"#utility.yul\":5535:5539   */\n              0x00\n                /* \"#utility.yul\":5573:5575   */\n              0x20\n                /* \"#utility.yul\":5562:5571   */\n              dup3\n                /* \"#utility.yul\":5558:5576   */\n              add\n                /* \"#utility.yul\":5550:5576   */\n              swap1\n              pop\n                /* \"#utility.yul\":5586:5673   */\n              tag_292\n                /* \"#utility.yul\":5670:5671   */\n              0x00\n                /* \"#utility.yul\":5659:5668   */\n              dup4\n                /* \"#utility.yul\":5655:5672   */\n              add\n                /* \"#utility.yul\":5646:5652   */\n              dup5\n                /* \"#utility.yul\":5586:5673   */\n              tag_204\n              jump\t// in\n            tag_292:\n                /* \"#utility.yul\":5426:5680   */\n              swap3\n              swap2\n              pop\n              pop\n              jump\t// out\n                /* \"#utility.yul\":5686:5810   */\n            tag_205:\n                /* \"#utility.yul\":5763:5769   */\n              0x00\n                /* \"#utility.yul\":5797:5802   */\n              dup2\n                /* \"#utility.yul\":5791:5803   */\n              mload\n                /* \"#utility.yul\":5781:5803   */\n              swap1\n              pop\n                /* \"#utility.yul\":5686:5810   */\n              swap2\n              swap1\n              pop\n              jump\t// out\n                /* \"#utility.yul\":5816:6010   */\n            tag_206:\n                /* \"#utility.yul\":5925:5936   */\n              0x00\n                /* \"#utility.yul\":5959:5965   */\n              dup3\n                /* \"#utility.yul\":5954:5957   */\n              dup3\n                /* \"#utility.yul\":5947:5966   */\n              mstore\n                /* \"#utility.yul\":5999:6003   */\n              0x20\n                /* \"#utility.yul\":5994:5997   */\n              dup3\n                /* \"#utility.yul\":5990:6004   */\n              add\n                /* \"#utility.yul\":5975:6004   */\n              swap1\n              pop\n                /* \"#utility.yul\":5816:6010   */\n              swap3\n              swap2\n              pop\n              pop\n              jump\t// out\n                /* \"#utility.yul\":6016:6158   */\n            tag_207:\n                /* \"#utility.yul\":6093:6097   */\n              0x00\n                /* \"#utility.yul\":6116:6119   */\n              dup2\n                /* \"#utility.yul\":6108:6119   */\n              swap1\n              pop\n                /* \"#utility.yul\":6146:6150   */\n              0x20\n                /* \"#utility.yul\":6141:6144   */\n              dup3\n                /* \"#utility.yul\":6137:6151   */\n              add\n                /* \"#utility.yul\":6129:6151   */\n              swap1\n              pop\n                /* \"#utility.yul\":6016:6158   */\n              swap2\n              swap1\n              pop\n              jump\t// out\n                /* \"#utility.yul\":6164:6323   */\n            tag_208:\n                /* \"#utility.yul\":6238:6249   */\n              0x00\n                /* \"#utility.yul\":6272:6278   */\n              dup3\n                /* \"#utility.yul\":6267:6270   */\n              dup3\n                /* \"#utility.yul\":6260:6279   */\n              mstore\n                /* \"#utility.yul\":6312:6316   */\n              0x20\n                /* \"#utility.yul\":6307:6310   */\n              dup3\n                /* \"#utility.yul\":6303:6317   */\n              add\n                /* \"#utility.yul\":6288:6317   */\n              swap1\n              pop\n                /* \"#utility.yul\":6164:6323   */\n              swap3\n              swap2\n              pop\n              pop\n              jump\t// out\n                /* \"#utility.yul\":6329:6673   */\n            tag_209:\n                /* \"#utility.yul\":6407:6410   */\n              0x00\n                /* \"#utility.yul\":6435:6474   */\n              tag_298\n                /* \"#utility.yul\":6468:6473   */\n              dup3\n                /* \"#utility.yul\":6435:6474   */\n              tag_182\n              jump\t// in\n            tag_298:\n                /* \"#utility.yul\":6490:6551   */\n              tag_299\n                /* \"#utility.yul\":6544:6550   */\n              dup2\n                /* \"#utility.yul\":6539:6542   */\n              dup6\n                /* \"#utility.yul\":6490:6551   */\n              tag_208\n              jump\t// in\n            tag_299:\n                /* \"#utility.yul\":6483:6551   */\n              swap4\n              pop\n                /* \"#utility.yul\":6560:6612   */\n              tag_300\n                /* \"#utility.yul\":6605:6611   */\n              dup2\n                /* \"#utility.yul\":6600:6603   */\n              dup6\n                /* \"#utility.yul\":6593:6597   */\n              0x20\n                /* \"#utility.yul\":6586:6591   */\n              dup7\n                /* \"#utility.yul\":6582:6598   */\n              add\n                /* \"#utility.yul\":6560:6612   */\n              tag_184\n              jump\t// in\n            tag_300:\n                /* \"#utility.yul\":6637:6666   */\n              tag_301\n                /* \"#utility.yul\":6659:6665   */\n              dup2\n                /* \"#utility.yul\":6637:6666   */\n              tag_185\n              jump\t// in\n            tag_301:\n                /* \"#utility.yul\":6632:6635   */\n              dup5\n                /* \"#utility.yul\":6628:6667   */\n              add\n                /* \"#utility.yul\":6621:6667   */\n              swap2\n              pop\n                /* \"#utility.yul\":6411:6673   */\n              pop\n                /* \"#utility.yul\":6329:6673   */\n              swap3\n              swap2\n              pop\n              pop\n              jump\t// out\n                /* \"#utility.yul\":6679:6875   */\n            tag_210:\n                /* \"#utility.yul\":6768:6778   */\n              0x00\n                /* \"#utility.yul\":6803:6869   */\n              tag_303\n                /* \"#utility.yul\":6865:6868   */\n              dup4\n                /* \"#utility.yul\":6857:6863   */\n              dup4\n                /* \"#utility.yul\":6803:6869   */\n              tag_209\n              jump\t// in\n            tag_303:\n                /* \"#utility.yul\":6789:6869   */\n              swap1\n              pop\n                /* \"#utility.yul\":6679:6875   */\n              swap3\n              swap2\n              pop\n              pop\n              jump\t// out\n                /* \"#utility.yul\":6881:7004   */\n            tag_211:\n                /* \"#utility.yul\":6961:6965   */\n              0x00\n                /* \"#utility.yul\":6993:6997   */\n              0x20\n                /* \"#utility.yul\":6988:6991   */\n              dup3\n                /* \"#utility.yul\":6984:6998   */\n              add\n                /* \"#utility.yul\":6976:6998   */\n              swap1\n              pop\n                /* \"#utility.yul\":6881:7004   */\n              swap2\n              swap1\n              pop\n              jump\t// out\n                /* \"#utility.yul\":7038:8029   */\n            tag_212:\n                /* \"#utility.yul\":7177:7180   */\n              0x00\n                /* \"#utility.yul\":7206:7270   */\n              tag_306\n                /* \"#utility.yul\":7264:7269   */\n              dup3\n                /* \"#utility.yul\":7206:7270   */\n              tag_205\n              jump\t// in\n            tag_306:\n                /* \"#utility.yul\":7286:7382   */\n              tag_307\n                /* \"#utility.yul\":7375:7381   */\n              dup2\n                /* \"#utility.yul\":7370:7373   */\n              dup6\n                /* \"#utility.yul\":7286:7382   */\n              tag_206\n              jump\t// in\n            tag_307:\n                /* \"#utility.yul\":7279:7382   */\n              swap4\n              pop\n                /* \"#utility.yul\":7408:7411   */\n              dup4\n                /* \"#utility.yul\":7453:7457   */\n              0x20\n                /* \"#utility.yul\":7445:7451   */\n              dup3\n                /* \"#utility.yul\":7441:7458   */\n              mul\n                /* \"#utility.yul\":7436:7439   */\n              dup6\n                /* \"#utility.yul\":7432:7459   */\n              add\n                /* \"#utility.yul\":7483:7549   */\n              tag_308\n                /* \"#utility.yul\":7543:7548   */\n              dup6\n                /* \"#utility.yul\":7483:7549   */\n              tag_207\n              jump\t// in\n            tag_308:\n                /* \"#utility.yul\":7572:7579   */\n              dup1\n                /* \"#utility.yul\":7603:7604   */\n              0x00\n                /* \"#utility.yul\":7588:7984   */\n            tag_309:\n                /* \"#utility.yul\":7613:7619   */\n              dup6\n                /* \"#utility.yul\":7610:7611   */\n              dup2\n                /* \"#utility.yul\":7607:7620   */\n              lt\n                /* \"#utility.yul\":7588:7984   */\n              iszero\n              tag_311\n              jumpi\n                /* \"#utility.yul\":7684:7693   */\n              dup5\n                /* \"#utility.yul\":7678:7682   */\n              dup5\n                /* \"#utility.yul\":7674:7694   */\n              sub\n                /* \"#utility.yul\":7669:7672   */\n              dup10\n                /* \"#utility.yul\":7662:7695   */\n              mstore\n                /* \"#utility.yul\":7735:7741   */\n              dup2\n                /* \"#utility.yul\":7729:7742   */\n              mload\n                /* \"#utility.yul\":7763:7847   */\n              tag_312\n                /* \"#utility.yul\":7842:7846   */\n              dup6\n                /* \"#utility.yul\":7827:7840   */\n              dup3\n                /* \"#utility.yul\":7763:7847   */\n              tag_210\n              jump\t// in\n            tag_312:\n                /* \"#utility.yul\":7755:7847   */\n              swap5\n              pop\n                /* \"#utility.yul\":7870:7940   */\n              tag_313\n                /* \"#utility.yul\":7933:7939   */\n              dup4\n                /* \"#utility.yul\":7870:7940   */\n              tag_211\n              jump\t// in\n            tag_313:\n                /* \"#utility.yul\":7860:7940   */\n              swap3\n              pop\n                /* \"#utility.yul\":7969:7973   */\n              0x20\n                /* \"#utility.yul\":7964:7967   */\n              dup11\n                /* \"#utility.yul\":7960:7974   */\n              add\n                /* \"#utility.yul\":7953:7974   */\n              swap10\n              pop\n                /* \"#utility.yul\":7648:7984   */\n              pop\n                /* \"#utility.yul\":7635:7636   */\n              0x01\n                /* \"#utility.yul\":7632:7633   */\n              dup2\n                /* \"#utility.yul\":7628:7637   */\n              add\n                /* \"#utility.yul\":7623:7637   */\n              swap1\n              pop\n                /* \"#utility.yul\":7588:7984   */\n              jump(tag_309)\n            tag_311:\n                /* \"#utility.yul\":7592:7606   */\n              pop\n                /* \"#utility.yul\":8000:8004   */\n              dup3\n                /* \"#utility.yul\":7993:8004   */\n              swap8\n              pop\n                /* \"#utility.yul\":8020:8023   */\n              dup8\n                /* \"#utility.yul\":8013:8023   */\n              swap6\n              pop\n                /* \"#utility.yul\":7182:8029   */\n              pop\n              pop\n              pop\n              pop\n              pop\n                /* \"#utility.yul\":7038:8029   */\n              swap3\n              swap2\n              pop\n              pop\n              jump\t// out\n                /* \"#utility.yul\":8035:8125   */\n            tag_213:\n                /* \"#utility.yul\":8069:8076   */\n              0x00\n                /* \"#utility.yul\":8112:8117   */\n              dup2\n                /* \"#utility.yul\":8105:8118   */\n              iszero\n                /* \"#utility.yul\":8098:8119   */\n              iszero\n                /* \"#utility.yul\":8087:8119   */\n              swap1\n              pop\n                /* \"#utility.yul\":8035:8125   */\n              swap2\n              swap1\n              pop\n              jump\t// out\n                /* \"#utility.yul\":8131:8240   */\n            tag_214:\n                /* \"#utility.yul\":8212:8233   */\n              tag_316\n                /* \"#utility.yul\":8227:8232   */\n              dup2\n                /* \"#utility.yul\":8212:8233   */\n              tag_213\n              jump\t// in\n            tag_316:\n                /* \"#utility.yul\":8207:8210   */\n              dup3\n                /* \"#utility.yul\":8200:8234   */\n              mstore\n                /* \"#utility.yul\":8131:8240   */\n              pop\n              pop\n              jump\t// out\n                /* \"#utility.yul\":8246:8368   */\n            tag_215:\n                /* \"#utility.yul\":8321:8327   */\n              0x00\n                /* \"#utility.yul\":8355:8360   */\n              dup2\n                /* \"#utility.yul\":8349:8361   */\n              mload\n                /* \"#utility.yul\":8339:8361   */\n              swap1\n              pop\n                /* \"#utility.yul\":8246:8368   */\n              swap2\n              swap1\n              pop\n              jump\t// out\n                /* \"#utility.yul\":8374:8566   */\n            tag_216:\n                /* \"#utility.yul\":8481:8492   */\n              0x00\n                /* \"#utility.yul\":8515:8521   */\n              dup3\n                /* \"#utility.yul\":8510:8513   */\n              dup3\n                /* \"#utility.yul\":8503:8522   */\n              mstore\n                /* \"#utility.yul\":8555:8559   */\n              0x20\n                /* \"#utility.yul\":8550:8553   */\n              dup3\n                /* \"#utility.yul\":8546:8560   */\n              add\n                /* \"#utility.yul\":8531:8560   */\n              swap1\n              pop\n                /* \"#utility.yul\":8374:8566   */\n              swap3\n              swap2\n              pop\n              pop\n              jump\t// out\n                /* \"#utility.yul\":8572:8712   */\n            tag_217:\n                /* \"#utility.yul\":8647:8651   */\n              0x00\n                /* \"#utility.yul\":8670:8673   */\n              dup2\n                /* \"#utility.yul\":8662:8673   */\n              swap1\n              pop\n                /* \"#utility.yul\":8700:8704   */\n              0x20\n                /* \"#utility.yul\":8695:8698   */\n              dup3\n                /* \"#utility.yul\":8691:8705   */\n              add\n                /* \"#utility.yul\":8683:8705   */\n              swap1\n              pop\n                /* \"#utility.yul\":8572:8712   */\n              swap2\n              swap1\n              pop\n              jump\t// out\n                /* \"#utility.yul\":8718:8850   */\n            tag_218:\n                /* \"#utility.yul\":8811:8843   */\n              tag_321\n                /* \"#utility.yul\":8837:8842   */\n              dup2\n                /* \"#utility.yul\":8811:8843   */\n              tag_203\n              jump\t// in\n            tag_321:\n                /* \"#utility.yul\":8806:8809   */\n              dup3\n                /* \"#utility.yul\":8799:8844   */\n              mstore\n                /* \"#utility.yul\":8718:8850   */\n              pop\n              pop\n              jump\t// out\n                /* \"#utility.yul\":8856:9067   */\n            tag_219:\n                /* \"#utility.yul\":8941:8951   */\n              0x00\n                /* \"#utility.yul\":8962:9024   */\n              tag_323\n                /* \"#utility.yul\":9020:9023   */\n              dup4\n                /* \"#utility.yul\":9012:9018   */\n              dup4\n                /* \"#utility.yul\":8962:9024   */\n              tag_218\n              jump\t// in\n            tag_323:\n                /* \"#utility.yul\":9056:9060   */\n              0x20\n                /* \"#utility.yul\":9051:9054   */\n              dup4\n                /* \"#utility.yul\":9047:9061   */\n              add\n                /* \"#utility.yul\":9033:9061   */\n              swap1\n              pop\n                /* \"#utility.yul\":8856:9067   */\n              swap3\n              swap2\n              pop\n              pop\n              jump\t// out\n                /* \"#utility.yul\":9073:9194   */\n            tag_220:\n                /* \"#utility.yul\":9151:9155   */\n              0x00\n                /* \"#utility.yul\":9183:9187   */\n              0x20\n                /* \"#utility.yul\":9178:9181   */\n              dup3\n                /* \"#utility.yul\":9174:9188   */\n              add\n                /* \"#utility.yul\":9166:9188   */\n              swap1\n              pop\n                /* \"#utility.yul\":9073:9194   */\n              swap2\n              swap1\n              pop\n              jump\t// out\n                /* \"#utility.yul\":9246:10042   */\n            tag_221:\n                /* \"#utility.yul\":9381:9384   */\n              0x00\n                /* \"#utility.yul\":9410:9472   */\n              tag_326\n                /* \"#utility.yul\":9466:9471   */\n              dup3\n                /* \"#utility.yul\":9410:9472   */\n              tag_215\n              jump\t// in\n            tag_326:\n                /* \"#utility.yul\":9488:9582   */\n              tag_327\n                /* \"#utility.yul\":9575:9581   */\n              dup2\n                /* \"#utility.yul\":9570:9573   */\n              dup6\n                /* \"#utility.yul\":9488:9582   */\n              tag_216\n              jump\t// in\n            tag_327:\n                /* \"#utility.yul\":9481:9582   */\n              swap4\n              pop\n                /* \"#utility.yul\":9606:9670   */\n              tag_328\n                /* \"#utility.yul\":9664:9669   */\n              dup4\n                /* \"#utility.yul\":9606:9670   */\n              tag_217\n              jump\t// in\n            tag_328:\n                /* \"#utility.yul\":9693:9700   */\n              dup1\n                /* \"#utility.yul\":9724:9725   */\n              0x00\n                /* \"#utility.yul\":9709:10017   */\n            tag_329:\n                /* \"#utility.yul\":9734:9740   */\n              dup4\n                /* \"#utility.yul\":9731:9732   */\n              dup2\n                /* \"#utility.yul\":9728:9741   */\n              lt\n                /* \"#utility.yul\":9709:10017   */\n              iszero\n              tag_331\n              jumpi\n                /* \"#utility.yul\":9810:9816   */\n              dup2\n                /* \"#utility.yul\":9804:9817   */\n              mload\n                /* \"#utility.yul\":9837:9916   */\n              tag_332\n                /* \"#utility.yul\":9912:9915   */\n              dup9\n                /* \"#utility.yul\":9897:9910   */\n              dup3\n                /* \"#utility.yul\":9837:9916   */\n              tag_219\n              jump\t// in\n            tag_332:\n                /* \"#utility.yul\":9830:9916   */\n              swap8\n              pop\n                /* \"#utility.yul\":9939:10007   */\n              tag_333\n                /* \"#utility.yul\":10000:10006   */\n              dup4\n                /* \"#utility.yul\":9939:10007   */\n              tag_220\n              jump\t// in\n            tag_333:\n                /* \"#utility.yul\":9929:10007   */\n              swap3\n              pop\n                /* \"#utility.yul\":9769:10017   */\n              pop\n                /* \"#utility.yul\":9756:9757   */\n              0x01\n                /* \"#utility.yul\":9753:9754   */\n              dup2\n                /* \"#utility.yul\":9749:9758   */\n              add\n                /* \"#utility.yul\":9744:9758   */\n              swap1\n              pop\n                /* \"#utility.yul\":9709:10017   */\n              jump(tag_329)\n            tag_331:\n                /* \"#utility.yul\":9713:9727   */\n              pop\n                /* \"#utility.yul\":10033:10036   */\n              dup6\n                /* \"#utility.yul\":10026:10036   */\n              swap4\n              pop\n                /* \"#utility.yul\":9386:10042   */\n              pop\n              pop\n              pop\n                /* \"#utility.yul\":9246:10042   */\n              swap3\n              swap2\n              pop\n              pop\n              jump\t// out\n                /* \"#utility.yul\":10048:11744   */\n            tag_47:\n                /* \"#utility.yul\":10559:10563   */\n              0x00\n                /* \"#utility.yul\":10597:10600   */\n              0x0100\n                /* \"#utility.yul\":10586:10595   */\n              dup3\n                /* \"#utility.yul\":10582:10601   */\n              add\n                /* \"#utility.yul\":10574:10601   */\n              swap1\n              pop\n                /* \"#utility.yul\":10611:10698   */\n              tag_335\n                /* \"#utility.yul\":10695:10696   */\n              0x00\n                /* \"#utility.yul\":10684:10693   */\n              dup4\n                /* \"#utility.yul\":10680:10697   */\n              add\n                /* \"#utility.yul\":10671:10677   */\n              dup12\n                /* \"#utility.yul\":10611:10698   */\n              tag_204\n              jump\t// in\n            tag_335:\n                /* \"#utility.yul\":10745:10754   */\n              dup2\n                /* \"#utility.yul\":10739:10743   */\n              dup2\n                /* \"#utility.yul\":10735:10755   */\n              sub\n                /* \"#utility.yul\":10730:10732   */\n              0x20\n                /* \"#utility.yul\":10719:10728   */\n              dup4\n                /* \"#utility.yul\":10715:10733   */\n              add\n                /* \"#utility.yul\":10708:10756   */\n              mstore\n                /* \"#utility.yul\":10773:10851   */\n              tag_336\n                /* \"#utility.yul\":10846:10850   */\n              dup2\n                /* \"#utility.yul\":10837:10843   */\n              dup11\n                /* \"#utility.yul\":10773:10851   */\n              tag_186\n              jump\t// in\n            tag_336:\n                /* \"#utility.yul\":10765:10851   */\n              swap1\n              pop\n                /* \"#utility.yul\":10898:10907   */\n              dup2\n                /* \"#utility.yul\":10892:10896   */\n              dup2\n                /* \"#utility.yul\":10888:10908   */\n              sub\n                /* \"#utility.yul\":10883:10885   */\n              0x40\n                /* \"#utility.yul\":10872:10881   */\n              dup4\n                /* \"#utility.yul\":10868:10886   */\n              add\n                /* \"#utility.yul\":10861:10909   */\n              mstore\n                /* \"#utility.yul\":10926:11054   */\n              tag_337\n                /* \"#utility.yul\":11049:11053   */\n              dup2\n                /* \"#utility.yul\":11040:11046   */\n              dup10\n                /* \"#utility.yul\":10926:11054   */\n              tag_212\n              jump\t// in\n            tag_337:\n                /* \"#utility.yul\":10918:11054   */\n              swap1\n              pop\n                /* \"#utility.yul\":11101:11110   */\n              dup2\n                /* \"#utility.yul\":11095:11099   */\n              dup2\n                /* \"#utility.yul\":11091:11111   */\n              sub\n                /* \"#utility.yul\":11086:11088   */\n              0x60\n                /* \"#utility.yul\":11075:11084   */\n              dup4\n                /* \"#utility.yul\":11071:11089   */\n              add\n                /* \"#utility.yul\":11064:11112   */\n              mstore\n                /* \"#utility.yul\":11129:11207   */\n              tag_338\n                /* \"#utility.yul\":11202:11206   */\n              dup2\n                /* \"#utility.yul\":11193:11199   */\n              dup9\n                /* \"#utility.yul\":11129:11207   */\n              tag_186\n              jump\t// in\n            tag_338:\n                /* \"#utility.yul\":11121:11207   */\n              swap1\n              pop\n                /* \"#utility.yul\":11255:11264   */\n              dup2\n                /* \"#utility.yul\":11249:11253   */\n              dup2\n                /* \"#utility.yul\":11245:11265   */\n              sub\n                /* \"#utility.yul\":11239:11242   */\n              0x80\n                /* \"#utility.yul\":11228:11237   */\n              dup4\n                /* \"#utility.yul\":11224:11243   */\n              add\n                /* \"#utility.yul\":11217:11266   */\n              mstore\n                /* \"#utility.yul\":11283:11361   */\n              tag_339\n                /* \"#utility.yul\":11356:11360   */\n              dup2\n                /* \"#utility.yul\":11347:11353   */\n              dup8\n                /* \"#utility.yul\":11283:11361   */\n              tag_186\n              jump\t// in\n            tag_339:\n                /* \"#utility.yul\":11275:11361   */\n              swap1\n              pop\n                /* \"#utility.yul\":11371:11460   */\n              tag_340\n                /* \"#utility.yul\":11455:11458   */\n              0xa0\n                /* \"#utility.yul\":11444:11453   */\n              dup4\n                /* \"#utility.yul\":11440:11459   */\n              add\n                /* \"#utility.yul\":11431:11437   */\n              dup7\n                /* \"#utility.yul\":11371:11460   */\n              tag_204\n              jump\t// in\n            tag_340:\n                /* \"#utility.yul\":11470:11537   */\n              tag_341\n                /* \"#utility.yul\":11532:11535   */\n              0xc0\n                /* \"#utility.yul\":11521:11530   */\n              dup4\n                /* \"#utility.yul\":11517:11536   */\n              add\n                /* \"#utility.yul\":11508:11514   */\n              dup6\n                /* \"#utility.yul\":11470:11537   */\n              tag_214\n              jump\t// in\n            tag_341:\n                /* \"#utility.yul\":11585:11594   */\n              dup2\n                /* \"#utility.yul\":11579:11583   */\n              dup2\n                /* \"#utility.yul\":11575:11595   */\n              sub\n                /* \"#utility.yul\":11569:11572   */\n              0xe0\n                /* \"#utility.yul\":11558:11567   */\n              dup4\n                /* \"#utility.yul\":11554:11573   */\n              add\n                /* \"#utility.yul\":11547:11596   */\n              mstore\n                /* \"#utility.yul\":11613:11737   */\n              tag_342\n                /* \"#utility.yul\":11732:11736   */\n              dup2\n                /* \"#utility.yul\":11723:11729   */\n              dup5\n                /* \"#utility.yul\":11613:11737   */\n              tag_221\n              jump\t// in\n            tag_342:\n                /* \"#utility.yul\":11605:11737   */\n              swap1\n              pop\n                /* \"#utility.yul\":10048:11744   */\n              swap10\n              swap9\n              pop\n              pop\n              pop\n              pop\n              pop\n              pop\n              pop\n              pop\n              pop\n              jump\t// out\n                /* \"#utility.yul\":11750:12163   */\n            tag_51:\n                /* \"#utility.yul\":11913:11917   */\n              0x00\n                /* \"#utility.yul\":11951:11953   */\n              0x20\n                /* \"#utility.yul\":11940:11949   */\n              dup3\n                /* \"#utility.yul\":11936:11954   */\n              add\n                /* \"#utility.yul\":11928:11954   */\n              swap1\n              pop\n                /* \"#utility.yul\":12000:12009   */\n              dup2\n                /* \"#utility.yul\":11994:11998   */\n              dup2\n                /* \"#utility.yul\":11990:12010   */\n              sub\n                /* \"#utility.yul\":11986:11987   */\n              0x00\n                /* \"#utility.yul\":11975:11984   */\n              dup4\n                /* \"#utility.yul\":11971:11988   */\n              add\n                /* \"#utility.yul\":11964:12011   */\n              mstore\n                /* \"#utility.yul\":12028:12156   */\n              tag_344\n                /* \"#utility.yul\":12151:12155   */\n              dup2\n                /* \"#utility.yul\":12142:12148   */\n              dup5\n                /* \"#utility.yul\":12028:12156   */\n              tag_212\n              jump\t// in\n            tag_344:\n                /* \"#utility.yul\":12020:12156   */\n              swap1\n              pop\n                /* \"#utility.yul\":11750:12163   */\n              swap3\n              swap2\n              pop\n              pop\n              jump\t// out\n                /* \"#utility.yul\":12169:12265   */\n            tag_222:\n                /* \"#utility.yul\":12206:12213   */\n              0x00\n                /* \"#utility.yul\":12235:12259   */\n              tag_346\n                /* \"#utility.yul\":12253:12258   */\n              dup3\n                /* \"#utility.yul\":12235:12259   */\n              tag_202\n              jump\t// in\n            tag_346:\n                /* \"#utility.yul\":12224:12259   */\n              swap1\n              pop\n                /* \"#utility.yul\":12169:12265   */\n              swap2\n              swap1\n              pop\n              jump\t// out\n                /* \"#utility.yul\":12271:12393   */\n            tag_223:\n                /* \"#utility.yul\":12344:12368   */\n              tag_348\n                /* \"#utility.yul\":12362:12367   */\n              dup2\n                /* \"#utility.yul\":12344:12368   */\n              tag_222\n              jump\t// in\n            tag_348:\n                /* \"#utility.yul\":12337:12342   */\n              dup2\n                /* \"#utility.yul\":12334:12369   */\n              eq\n                /* \"#utility.yul\":12324:12387   */\n              tag_349\n              jumpi\n                /* \"#utility.yul\":12383:12384   */\n              0x00\n                /* \"#utility.yul\":12380:12381   */\n              dup1\n                /* \"#utility.yul\":12373:12385   */\n              revert\n                /* \"#utility.yul\":12324:12387   */\n            tag_349:\n                /* \"#utility.yul\":12271:12393   */\n              pop\n              jump\t// out\n                /* \"#utility.yul\":12399:12538   */\n            tag_224:\n                /* \"#utility.yul\":12445:12450   */\n              0x00\n                /* \"#utility.yul\":12483:12489   */\n              dup2\n                /* \"#utility.yul\":12470:12490   */\n              calldataload\n                /* \"#utility.yul\":12461:12490   */\n              swap1\n              pop\n                /* \"#utility.yul\":12499:12532   */\n              tag_351\n                /* \"#utility.yul\":12526:12531   */\n              dup2\n                /* \"#utility.yul\":12499:12532   */\n              tag_223\n              jump\t// in\n            tag_351:\n                /* \"#utility.yul\":12399:12538   */\n              swap3\n              swap2\n              pop\n              pop\n              jump\t// out\n                /* \"#utility.yul\":12544:12873   */\n            tag_54:\n                /* \"#utility.yul\":12603:12609   */\n              0x00\n                /* \"#utility.yul\":12652:12654   */\n              0x20\n                /* \"#utility.yul\":12640:12649   */\n              dup3\n                /* \"#utility.yul\":12631:12638   */\n              dup5\n                /* \"#utility.yul\":12627:12650   */\n              sub\n                /* \"#utility.yul\":12623:12655   */\n              slt\n                /* \"#utility.yul\":12620:12739   */\n              iszero\n              tag_353\n              jumpi\n                /* \"#utility.yul\":12658:12737   */\n              tag_354\n              tag_188\n              jump\t// in\n            tag_354:\n                /* \"#utility.yul\":12620:12739   */\n            tag_353:\n                /* \"#utility.yul\":12778:12779   */\n              0x00\n                /* \"#utility.yul\":12803:12856   */\n              tag_355\n                /* \"#utility.yul\":12848:12855   */\n              dup5\n                /* \"#utility.yul\":12839:12845   */\n              dup3\n                /* \"#utility.yul\":12828:12837   */\n              dup6\n                /* \"#utility.yul\":12824:12846   */\n              add\n                /* \"#utility.yul\":12803:12856   */\n              tag_224\n              jump\t// in\n            tag_355:\n                /* \"#utility.yul\":12793:12856   */\n              swap2\n              pop\n                /* \"#utility.yul\":12749:12866   */\n              pop\n                /* \"#utility.yul\":12544:12873   */\n              swap3\n              swap2\n              pop\n              pop\n              jump\t// out\n                /* \"#utility.yul\":12879:13432   */\n            tag_64:\n                /* \"#utility.yul\":13058:13062   */\n              0x00\n                /* \"#utility.yul\":13096:13098   */\n              0x60\n                /* \"#utility.yul\":13085:13094   */\n              dup3\n                /* \"#utility.yul\":13081:13099   */\n              add\n                /* \"#utility.yul\":13073:13099   */\n              swap1\n              pop\n                /* \"#utility.yul\":13145:13154   */\n              dup2\n                /* \"#utility.yul\":13139:13143   */\n              dup2\n                /* \"#utility.yul\":13135:13155   */\n              sub\n                /* \"#utility.yul\":13131:13132   */\n              0x00\n                /* \"#utility.yul\":13120:13129   */\n              dup4\n                /* \"#utility.yul\":13116:13133   */\n              add\n                /* \"#utility.yul\":13109:13156   */\n              mstore\n                /* \"#utility.yul\":13173:13251   */\n              tag_357\n                /* \"#utility.yul\":13246:13250   */\n              dup2\n                /* \"#utility.yul\":13237:13243   */\n              dup7\n                /* \"#utility.yul\":13173:13251   */\n              tag_186\n              jump\t// in\n            tag_357:\n                /* \"#utility.yul\":13165:13251   */\n              swap1\n              pop\n                /* \"#utility.yul\":13261:13349   */\n              tag_358\n                /* \"#utility.yul\":13345:13347   */\n              0x20\n                /* \"#utility.yul\":13334:13343   */\n              dup4\n                /* \"#utility.yul\":13330:13348   */\n              add\n                /* \"#utility.yul\":13321:13327   */\n              dup6\n                /* \"#utility.yul\":13261:13349   */\n              tag_204\n              jump\t// in\n            tag_358:\n                /* \"#utility.yul\":13359:13425   */\n              tag_359\n                /* \"#utility.yul\":13421:13423   */\n              0x40\n                /* \"#utility.yul\":13410:13419   */\n              dup4\n                /* \"#utility.yul\":13406:13424   */\n              add\n                /* \"#utility.yul\":13397:13403   */\n              dup5\n                /* \"#utility.yul\":13359:13425   */\n              tag_214\n              jump\t// in\n            tag_359:\n                /* \"#utility.yul\":12879:13432   */\n              swap5\n              swap4\n              pop\n              pop\n              pop\n              pop\n              jump\t// out\n                /* \"#utility.yul\":13438:13648   */\n            tag_77:\n                /* \"#utility.yul\":13525:13529   */\n              0x00\n                /* \"#utility.yul\":13563:13565   */\n              0x20\n                /* \"#utility.yul\":13552:13561   */\n              dup3\n                /* \"#utility.yul\":13548:13566   */\n              add\n                /* \"#utility.yul\":13540:13566   */\n              swap1\n              pop\n                /* \"#utility.yul\":13576:13641   */\n              tag_361\n                /* \"#utility.yul\":13638:13639   */\n              0x00\n                /* \"#utility.yul\":13627:13636   */\n              dup4\n                /* \"#utility.yul\":13623:13640   */\n              add\n                /* \"#utility.yul\":13614:13620   */\n              dup5\n                /* \"#utility.yul\":13576:13641   */\n              tag_214\n              jump\t// in\n            tag_361:\n                /* \"#utility.yul\":13438:13648   */\n              swap3\n              swap2\n              pop\n              pop\n              jump\t// out\n                /* \"#utility.yul\":13654:13834   */\n            tag_225:\n                /* \"#utility.yul\":13702:13779   */\n              0x4e487b7100000000000000000000000000000000000000000000000000000000\n                /* \"#utility.yul\":13699:13700   */\n              0x00\n                /* \"#utility.yul\":13692:13780   */\n              mstore\n                /* \"#utility.yul\":13799:13803   */\n              0x22\n                /* \"#utility.yul\":13796:13797   */\n              0x04\n                /* \"#utility.yul\":13789:13804   */\n              mstore\n                /* \"#utility.yul\":13823:13827   */\n              0x24\n                /* \"#utility.yul\":13820:13821   */\n              0x00\n                /* \"#utility.yul\":13813:13828   */\n              revert\n                /* \"#utility.yul\":13840:14160   */\n            tag_82:\n                /* \"#utility.yul\":13884:13890   */\n              0x00\n                /* \"#utility.yul\":13921:13922   */\n              0x02\n                /* \"#utility.yul\":13915:13919   */\n              dup3\n                /* \"#utility.yul\":13911:13923   */\n              div\n                /* \"#utility.yul\":13901:13923   */\n              swap1\n              pop\n                /* \"#utility.yul\":13968:13969   */\n              0x01\n                /* \"#utility.yul\":13962:13966   */\n              dup3\n                /* \"#utility.yul\":13958:13970   */\n              and\n                /* \"#utility.yul\":13989:14007   */\n              dup1\n                /* \"#utility.yul\":13979:14060   */\n              tag_364\n              jumpi\n                /* \"#utility.yul\":14045:14049   */\n              0x7f\n                /* \"#utility.yul\":14037:14043   */\n              dup3\n                /* \"#utility.yul\":14033:14050   */\n              and\n                /* \"#utility.yul\":14023:14050   */\n              swap2\n              pop\n                /* \"#utility.yul\":13979:14060   */\n            tag_364:\n                /* \"#utility.yul\":14107:14109   */\n              0x20\n                /* \"#utility.yul\":14099:14105   */\n              dup3\n                /* \"#utility.yul\":14096:14110   */\n              lt\n                /* \"#utility.yul\":14076:14094   */\n              dup2\n                /* \"#utility.yul\":14073:14111   */\n              sub\n                /* \"#utility.yul\":14070:14154   */\n              tag_365\n              jumpi\n                /* \"#utility.yul\":14126:14144   */\n              tag_366\n              tag_225\n              jump\t// in\n            tag_366:\n                /* \"#utility.yul\":14070:14154   */\n            tag_365:\n                /* \"#utility.yul\":13891:14160   */\n              pop\n                /* \"#utility.yul\":13840:14160   */\n              swap2\n              swap1\n              pop\n              jump\t// out\n\n            auxdata: 0xa26469706673582212209117d0cca923d91f27cdcbab0ba8a73332dacd02ea66cb0ac9d97f08f6cb60c264736f6c634300080e0033\n        }\n    }\n\n    auxdata: 0xa26469706673582212209c14217716e59867b69cbceb4156a185fc16776ed5edbdff8b6eef6cb7a5867664736f6c634300080e0033\n}\n","bytecode":{"linkReferences":{},"object":"608060405234801561001057600080fd5b50612974806100206000396000f3fe608060405260043610620000385760003560e01c80633f90b454146200003d578063779900b41462000081578063d01d476414620000b1575b600080fd5b3480156200004a57600080fd5b50620000696004803603810190620000639190620002d4565b620000e7565b6040516200007891906200034b565b60405180910390f35b3480156200008e57600080fd5b506200009962000127565b604051620000a8919062000436565b60405180910390f35b620000cf6004803603810190620000c99190620006b8565b620001b7565b604051620000de91906200034b565b60405180910390f35b60008181548110620000f857600080fd5b906000526020600020016000915054906101000a900473ffffffffffffffffffffffffffffffffffffffff1681565b60606000805480602002602001604051908101604052809291908181526020018280548015620001ad57602002820191906000526020600020905b8160009054906101000a900473ffffffffffffffffffffffffffffffffffffffff1673ffffffffffffffffffffffffffffffffffffffff168152602001906001019080831162000162575b5050505050905090565b60008034878787878733604051620001cf9062000277565b620001e09695949392919062000990565b6040518091039082f0905080158015620001fe573d6000803e3d6000fd5b50905060008190506000819080600181540180825580915050600190039060005260206000200160009091909190916101000a81548173ffffffffffffffffffffffffffffffffffffffff021916908373ffffffffffffffffffffffffffffffffffffffff160217905550809250505095945050505050565b611f1e8062000a2183390190565b6000604051905090565b600080fd5b600080fd5b6000819050919050565b620002ae8162000299565b8114620002ba57600080fd5b50565b600081359050620002ce81620002a3565b92915050565b600060208284031215620002ed57620002ec6200028f565b5b6000620002fd84828501620002bd565b91505092915050565b600073ffffffffffffffffffffffffffffffffffffffff82169050919050565b6000620003338262000306565b9050919050565b620003458162000326565b82525050565b60006020820190506200036260008301846200033a565b92915050565b600081519050919050565b600082825260208201905092915050565b6000819050602082019050919050565b6200039f8162000326565b82525050565b6000620003b3838362000394565b60208301905092915050565b6000602082019050919050565b6000620003d98262000368565b620003e5818562000373565b9350620003f28362000384565b8060005b83811015620004295781516200040d8882620003a5565b97506200041a83620003bf565b925050600181019050620003f6565b5085935050505092915050565b60006020820190508181036000830152620004528184620003cc565b905092915050565b600080fd5b600080fd5b6000601f19601f8301169050919050565b7f4e487b7100000000000000000000000000000000000000000000000000000000600052604160045260246000fd5b620004af8262000464565b810181811067ffffffffffffffff82111715620004d157620004d062000475565b5b80604052505050565b6000620004e662000285565b9050620004f48282620004a4565b919050565b600067ffffffffffffffff82111562000517576200051662000475565b5b620005228262000464565b9050602081019050919050565b82818337600083830152505050565b6000620005556200054f84620004f9565b620004da565b9050828152602081018484840111156200057457620005736200045f565b5b620005818482856200052f565b509392505050565b600082601f830112620005a157620005a06200045a565b5b8135620005b38482602086016200053e565b91505092915050565b600067ffffffffffffffff821115620005da57620005d962000475565b5b602082029050602081019050919050565b600080fd5b6000620006076200060184620005bc565b620004da565b905080838252602082019050602084028301858111156200062d576200062c620005eb565b5b835b818110156200067b57803567ffffffffffffffff8111156200065657620006556200045a565b5b80860162000665898262000589565b855260208501945050506020810190506200062f565b5050509392505050565b600082601f8301126200069d576200069c6200045a565b5b8135620006af848260208601620005f0565b91505092915050565b600080600080600060a08688031215620006d757620006d66200028f565b5b600086013567ffffffffffffffff811115620006f857620006f762000294565b5b620007068882890162000589565b955050602086013567ffffffffffffffff8111156200072a576200072962000294565b5b620007388882890162000589565b945050604086013567ffffffffffffffff8111156200075c576200075b62000294565b5b6200076a8882890162000589565b935050606086013567ffffffffffffffff8111156200078e576200078d62000294565b5b6200079c8882890162000685565b925050608086013567ffffffffffffffff811115620007c057620007bf62000294565b5b620007ce8882890162000685565b9150509295509295909350565b600081519050919050565b600082825260208201905092915050565b60005b8381101562000817578082015181840152602081019050620007fa565b8381111562000827576000848401525b50505050565b60006200083a82620007db565b620008468185620007e6565b935062000858818560208601620007f7565b620008638162000464565b840191505092915050565b600081519050919050565b600082825260208201905092915050565b6000819050602082019050919050565b600082825260208201905092915050565b6000620008b882620007db565b620008c481856200089a565b9350620008d6818560208601620007f7565b620008e18162000464565b840191505092915050565b6000620008fa8383620008ab565b905092915050565b6000602082019050919050565b60006200091c826200086e565b62000928818562000879565b9350836020820285016200093c856200088a565b8060005b858110156200097e57848403895281516200095c8582620008ec565b9450620009698362000902565b925060208a0199505060018101905062000940565b50829750879550505050505092915050565b600060c0820190508181036000830152620009ac81896200082d565b90508181036020830152620009c281886200082d565b90508181036040830152620009d881876200082d565b90508181036060830152620009ee81866200090f565b9050818103608083015262000a0481856200090f565b905062000a1560a08301846200033a565b97965050505050505056fe608060405260405162001f1e38038062001f1e833981810160405281019062000029919062000590565b806000806101000a81548173ffffffffffffffffffffffffffffffffffffffff021916908373ffffffffffffffffffffffffffffffffffffffff1602179055508360019080519060200190620000819291906200010d565b5085600290805190602001906200009a9291906200010d565b508260039080519060200190620000b39291906200019e565b508460049080519060200190620000cc9291906200010d565b508160059080519060200190620000e59291906200019e565b506000600660146101000a81548160ff0219169083151502179055505050505050506200072b565b8280546200011b90620006f6565b90600052602060002090601f0160209004810192826200013f57600085556200018b565b82601f106200015a57805160ff19168380011785556200018b565b828001600101855582156200018b579182015b828111156200018a5782518255916020019190600101906200016d565b5b5090506200019a919062000205565b5090565b828054828255906000526020600020908101928215620001f2579160200282015b82811115620001f1578251829080519060200190620001e09291906200010d565b5091602001919060010190620001bf565b5b50905062000201919062000224565b5090565b5b808211156200022057600081600090555060010162000206565b5090565b5b808211156200024857600081816200023e91906200024c565b5060010162000225565b5090565b5080546200025a90620006f6565b6000825580601f106200026e57506200028f565b601f0160209004906000526020600020908101906200028e919062000205565b5b50565b6000604051905090565b600080fd5b600080fd5b600080fd5b600080fd5b6000601f19601f8301169050919050565b7f4e487b7100000000000000000000000000000000000000000000000000000000600052604160045260246000fd5b620002fb82620002b0565b810181811067ffffffffffffffff821117156200031d576200031c620002c1565b5b80604052505050565b60006200033262000292565b9050620003408282620002f0565b919050565b600067ffffffffffffffff821115620003635762000362620002c1565b5b6200036e82620002b0565b9050602081019050919050565b60005b838110156200039b5780820151818401526020810190506200037e565b83811115620003ab576000848401525b50505050565b6000620003c8620003c28462000345565b62000326565b905082815260208101848484011115620003e757620003e6620002ab565b5b620003f48482856200037b565b509392505050565b600082601f830112620004145762000413620002a6565b5b815162000426848260208601620003b1565b91505092915050565b600067ffffffffffffffff8211156200044d576200044c620002c1565b5b602082029050602081019050919050565b600080fd5b60006200047a62000474846200042f565b62000326565b90508083825260208201905060208402830185811115620004a0576200049f6200045e565b5b835b81811015620004ee57805167ffffffffffffffff811115620004c957620004c8620002a6565b5b808601620004d88982620003fc565b85526020850194505050602081019050620004a2565b5050509392505050565b600082601f83011262000510576200050f620002a6565b5b81516200052284826020860162000463565b91505092915050565b600073ffffffffffffffffffffffffffffffffffffffff82169050919050565b600062000558826200052b565b9050919050565b6200056a816200054b565b81146200057657600080fd5b50565b6000815190506200058a816200055f565b92915050565b60008060008060008060c08789031215620005b057620005af6200029c565b5b600087015167ffffffffffffffff811115620005d157620005d0620002a1565b5b620005df89828a01620003fc565b965050602087015167ffffffffffffffff811115620006035762000602620002a1565b5b6200061189828a01620003fc565b955050604087015167ffffffffffffffff811115620006355762000634620002a1565b5b6200064389828a01620003fc565b945050606087015167ffffffffffffffff811115620006675762000666620002a1565b5b6200067589828a01620004f8565b935050608087015167ffffffffffffffff811115620006995762000698620002a1565b5b620006a789828a01620004f8565b92505060a0620006ba89828a0162000579565b9150509295509295509295565b7f4e487b7100000000000000000000000000000000000000000000000000000000600052602260045260246000fd5b600060028204905060018216806200070f57607f821691505b602082108103620007255762000724620006c7565b5b50919050565b6117e3806200073b6000396000f3fe608060405234801561001057600080fd5b50600436106100ff5760003560e01c80635f51c76511610097578063af84a01311610066578063af84a0131461027f578063dea4e339146102af578063fa391c64146102cd578063fbc03a1e146102eb576100ff565b80635f51c765146101f7578063710963871461021357806374adad1d14610243578063a20fca5a14610275576100ff565b8063481c6a75116100d3578063481c6a75146101785780634d547ada146101965780635a9b0b89146101b45780635e1c7322146101d9576100ff565b80621aea7714610104578063231e407a1461012257806331c3a6f51461012c57806343a7e9b914610148575b600080fd5b61010c610309565b604051610119919061116e565b60405180910390f35b61012a610397565b005b610146600480360381019061014191906112d9565b6104b3565b005b610162600480360381019061015d9190611358565b610613565b60405161016f91906113c6565b60405180910390f35b610180610652565b60405161018d91906113c6565b60405180910390f35b61019e610676565b6040516101ab91906113c6565b60405180910390f35b6101bc61069c565b6040516101d09897969594939291906115c6565b60405180910390f35b6101e1610a20565b6040516101ee9190611667565b60405180910390f35b610211600480360381019061020c91906116c7565b610af9565b005b61022d60048036038101906102289190611358565b610bee565b60405161023a919061116e565b60405180910390f35b61025d600480360381019061025891906116c7565b610c9a565b60405161026c939291906116f4565b60405180910390f35b61027d610d79565b005b61029960048036038101906102949190611358565b610e57565b6040516102a6919061116e565b60405180910390f35b6102b7610f03565b6040516102c4919061116e565b60405180910390f35b6102d5610f91565b6040516102e29190611732565b60405180910390f35b6102f3610fa4565b604051610300919061116e565b60405180910390f35b600280546103169061177c565b80601f01602080910402602001604051908101604052809291908181526020018280546103429061177c565b801561038f5780601f106103645761010080835404028352916020019161038f565b820191906000526020600020905b81548152906001019060200180831161037257829003601f168201915b505050505081565b60008054906101000a900473ffffffffffffffffffffffffffffffffffffffff1673ffffffffffffffffffffffffffffffffffffffff163373ffffffffffffffffffffffffffffffffffffffff16146103ef57600080fd5b600073ffffffffffffffffffffffffffffffffffffffff16600660009054906101000a900473ffffffffffffffffffffffffffffffffffffffff1673ffffffffffffffffffffffffffffffffffffffff161461044a57600080fd5b60008054906101000a900473ffffffffffffffffffffffffffffffffffffffff1673ffffffffffffffffffffffffffffffffffffffff166108fc479081150290604051600060405180830381858888f193505050501580156104b0573d6000803e3d6000fd5b50565b60405180606001604052808281526020013373ffffffffffffffffffffffffffffffffffffffff16815260200160011515815250600760003373ffffffffffffffffffffffffffffffffffffffff1673ffffffffffffffffffffffffffffffffffffffff1681526020019081526020016000206000820151816000019080519060200190610542929190611032565b5060208201518160010160006101000a81548173ffffffffffffffffffffffffffffffffffffffff021916908373ffffffffffffffffffffffffffffffffffffffff16021790555060408201518160010160146101000a81548160ff0219169083151502179055509050506008339080600181540180825580915050600190039060005260206000200160009091909190916101000a81548173ffffffffffffffffffffffffffffffffffffffff021916908373ffffffffffffffffffffffffffffffffffffffff16021790555050565b6008818154811061062357600080fd5b906000526020600020016000915054906101000a900473ffffffffffffffffffffffffffffffffffffffff1681565b60008054906101000a900473ffffffffffffffffffffffffffffffffffffffff1681565b600660009054906101000a900473ffffffffffffffffffffffffffffffffffffffff1681565b6000606080606080600080606060008054906101000a900473ffffffffffffffffffffffffffffffffffffffff166002600360046001600660009054906101000a900473ffffffffffffffffffffffffffffffffffffffff16600660149054906101000a900460ff1660088680546107139061177c565b80601f016020809104026020016040519081016040528092919081815260200182805461073f9061177c565b801561078c5780601f106107615761010080835404028352916020019161078c565b820191906000526020600020905b81548152906001019060200180831161076f57829003601f168201915b5050505050965085805480602002602001604051908101604052809291908181526020016000905b828210156108605783829060005260206000200180546107d39061177c565b80601f01602080910402602001604051908101604052809291908181526020018280546107ff9061177c565b801561084c5780601f106108215761010080835404028352916020019161084c565b820191906000526020600020905b81548152906001019060200180831161082f57829003601f168201915b5050505050815260200190600101906107b4565b5050505095508480546108729061177c565b80601f016020809104026020016040519081016040528092919081815260200182805461089e9061177c565b80156108eb5780601f106108c0576101008083540402835291602001916108eb565b820191906000526020600020905b8154815290600101906020018083116108ce57829003601f168201915b505050505094508380546108fe9061177c565b80601f016020809104026020016040519081016040528092919081815260200182805461092a9061177c565b80156109775780601f1061094c57610100808354040283529160200191610977565b820191906000526020600020905b81548152906001019060200180831161095a57829003601f168201915b50505050509350808054806020026020016040519081016040528092919081815260200182805480156109ff57602002820191906000526020600020905b8160009054906101000a900473ffffffffffffffffffffffffffffffffffffffff1673ffffffffffffffffffffffffffffffffffffffff16815260200190600101908083116109b5575b50505050509050975097509750975097509750975097509091929394959697565b60606005805480602002602001604051908101604052809291908181526020016000905b82821015610af0578382906000526020600020018054610a639061177c565b80601f0160208091040260200160405190810160405280929190818152602001828054610a8f9061177c565b8015610adc5780601f10610ab157610100808354040283529160200191610adc565b820191906000526020600020905b815481529060010190602001808311610abf57829003601f168201915b505050505081526020019060010190610a44565b50505050905090565b60008054906101000a900473ffffffffffffffffffffffffffffffffffffffff1673ffffffffffffffffffffffffffffffffffffffff163373ffffffffffffffffffffffffffffffffffffffff1614610b5157600080fd5b600760008273ffffffffffffffffffffffffffffffffffffffff1673ffffffffffffffffffffffffffffffffffffffff16815260200190815260200160002060010160149054906101000a900460ff16610baa57600080fd5b80600660006101000a81548173ffffffffffffffffffffffffffffffffffffffff021916908373ffffffffffffffffffffffffffffffffffffffff16021790555050565b60038181548110610bfe57600080fd5b906000526020600020016000915090508054610c199061177c565b80601f0160208091040260200160405190810160405280929190818152602001828054610c459061177c565b8015610c925780601f10610c6757610100808354040283529160200191610c92565b820191906000526020600020905b815481529060010190602001808311610c7557829003601f168201915b505050505081565b6007602052806000526040600020600091509050806000018054610cbd9061177c565b80601f0160208091040260200160405190810160405280929190818152602001828054610ce99061177c565b8015610d365780601f10610d0b57610100808354040283529160200191610d36565b820191906000526020600020905b815481529060010190602001808311610d1957829003601f168201915b5050505050908060010160009054906101000a900473ffffffffffffffffffffffffffffffffffffffff16908060010160149054906101000a900460ff16905083565b60008054906101000a900473ffffffffffffffffffffffffffffffffffffffff1673ffffffffffffffffffffffffffffffffffffffff163373ffffffffffffffffffffffffffffffffffffffff1614610dd157600080fd5b600660009054906101000a900473ffffffffffffffffffffffffffffffffffffffff1673ffffffffffffffffffffffffffffffffffffffff166108fc479081150290604051600060405180830381858888f19350505050158015610e39573d6000803e3d6000fd5b506001600660146101000a81548160ff021916908315150217905550565b60058181548110610e6757600080fd5b906000526020600020016000915090508054610e829061177c565b80601f0160208091040260200160405190810160405280929190818152602001828054610eae9061177c565b8015610efb5780601f10610ed057610100808354040283529160200191610efb565b820191906000526020600020905b815481529060010190602001808311610ede57829003601f168201915b505050505081565b60018054610f109061177c565b80601f0160208091040260200160405190810160405280929190818152602001828054610f3c9061177c565b8015610f895780601f10610f5e57610100808354040283529160200191610f89565b820191906000526020600020905b815481529060010190602001808311610f6c57829003601f168201915b505050505081565b600660149054906101000a900460ff1681565b60048054610fb19061177c565b80601f0160208091040260200160405190810160405280929190818152602001828054610fdd9061177c565b801561102a5780601f10610fff5761010080835404028352916020019161102a565b820191906000526020600020905b81548152906001019060200180831161100d57829003601f168201915b505050505081565b82805461103e9061177c565b90600052602060002090601f01602090048101928261106057600085556110a7565b82601f1061107957805160ff19168380011785556110a7565b828001600101855582156110a7579182015b828111156110a657825182559160200191906001019061108b565b5b5090506110b491906110b8565b5090565b5b808211156110d15760008160009055506001016110b9565b5090565b600081519050919050565b600082825260208201905092915050565b60005b8381101561110f5780820151818401526020810190506110f4565b8381111561111e576000848401525b50505050565b6000601f19601f8301169050919050565b6000611140826110d5565b61114a81856110e0565b935061115a8185602086016110f1565b61116381611124565b840191505092915050565b600060208201905081810360008301526111888184611135565b905092915050565b6000604051905090565b600080fd5b600080fd5b600080fd5b600080fd5b7f4e487b7100000000000000000000000000000000000000000000000000000000600052604160045260246000fd5b6111e682611124565b810181811067ffffffffffffffff82111715611205576112046111ae565b5b80604052505050565b6000611218611190565b905061122482826111dd565b919050565b600067ffffffffffffffff821115611244576112436111ae565b5b61124d82611124565b9050602081019050919050565b82818337600083830152505050565b600061127c61127784611229565b61120e565b905082815260208101848484011115611298576112976111a9565b5b6112a384828561125a565b509392505050565b600082601f8301126112c0576112bf6111a4565b5b81356112d0848260208601611269565b91505092915050565b6000602082840312156112ef576112ee61119a565b5b600082013567ffffffffffffffff81111561130d5761130c61119f565b5b611319848285016112ab565b91505092915050565b6000819050919050565b61133581611322565b811461134057600080fd5b50565b6000813590506113528161132c565b92915050565b60006020828403121561136e5761136d61119a565b5b600061137c84828501611343565b91505092915050565b600073ffffffffffffffffffffffffffffffffffffffff82169050919050565b60006113b082611385565b9050919050565b6113c0816113a5565b82525050565b60006020820190506113db60008301846113b7565b92915050565b600081519050919050565b600082825260208201905092915050565b6000819050602082019050919050565b600082825260208201905092915050565b6000611429826110d5565b611433818561140d565b93506114438185602086016110f1565b61144c81611124565b840191505092915050565b6000611463838361141e565b905092915050565b6000602082019050919050565b6000611483826113e1565b61148d81856113ec565b93508360208202850161149f856113fd565b8060005b858110156114db57848403895281516114bc8582611457565b94506114c78361146b565b925060208a019950506001810190506114a3565b50829750879550505050505092915050565b60008115159050919050565b611502816114ed565b82525050565b600081519050919050565b600082825260208201905092915050565b6000819050602082019050919050565b61153d816113a5565b82525050565b600061154f8383611534565b60208301905092915050565b6000602082019050919050565b600061157382611508565b61157d8185611513565b935061158883611524565b8060005b838110156115b95781516115a08882611543565b97506115ab8361155b565b92505060018101905061158c565b5085935050505092915050565b6000610100820190506115dc600083018b6113b7565b81810360208301526115ee818a611135565b905081810360408301526116028189611478565b905081810360608301526116168188611135565b9050818103608083015261162a8187611135565b905061163960a08301866113b7565b61164660c08301856114f9565b81810360e08301526116588184611568565b90509998505050505050505050565b600060208201905081810360008301526116818184611478565b905092915050565b600061169482611385565b9050919050565b6116a481611689565b81146116af57600080fd5b50565b6000813590506116c18161169b565b92915050565b6000602082840312156116dd576116dc61119a565b5b60006116eb848285016116b2565b91505092915050565b6000606082019050818103600083015261170e8186611135565b905061171d60208301856113b7565b61172a60408301846114f9565b949350505050565b600060208201905061174760008301846114f9565b92915050565b7f4e487b7100000000000000000000000000000000000000000000000000000000600052602260045260246000fd5b6000600282049050600182168061179457607f821691505b6020821081036117a7576117a661174d565b5b5091905056fea26469706673582212209117d0cca923d91f27cdcbab0ba8a73332dacd02ea66cb0ac9d97f08f6cb60c264736f6c634300080e0033a26469706673582212209c14217716e59867b69cbceb4156a185fc16776ed5edbdff8b6eef6cb7a5867664736f6c634300080e0033","opcodes":"PUSH1 0x80 PUSH1 0x40 MSTORE CALLVALUE DUP1 ISZERO PUSH2 0x10 JUMPI PUSH1 0x0 DUP1 REVERT JUMPDEST POP PUSH2 0x2974 DUP1 PUSH2 0x20 PUSH1 0x0 CODECOPY PUSH1 0x0 RETURN INVALID PUSH1 0x80 PUSH1 0x40 MSTORE PUSH1 0x4 CALLDATASIZE LT PUSH3 0x38 JUMPI PUSH1 0x0 CALLDATALOAD PUSH1 0xE0 SHR DUP1 PUSH4 0x3F90B454 EQ PUSH3 0x3D JUMPI DUP1 PUSH4 0x779900B4 EQ PUSH3 0x81 JUMPI DUP1 PUSH4 0xD01D4764 EQ PUSH3 0xB1 JUMPI JUMPDEST PUSH1 0x0 DUP1 REVERT JUMPDEST CALLVALUE DUP1 ISZERO PUSH3 0x4A JUMPI PUSH1 0x0 DUP1 REVERT JUMPDEST POP PUSH3 0x69 PUSH1 0x4 DUP1 CALLDATASIZE SUB DUP2 ADD SWAP1 PUSH3 0x63 SWAP2 SWAP1 PUSH3 0x2D4 JUMP JUMPDEST PUSH3 0xE7 JUMP JUMPDEST PUSH1 0x40 MLOAD PUSH3 0x78 SWAP2 SWAP1 PUSH3 0x34B JUMP JUMPDEST PUSH1 0x40 MLOAD DUP1 SWAP2 SUB SWAP1 RETURN JUMPDEST CALLVALUE DUP1 ISZERO PUSH3 0x8E JUMPI PUSH1 0x0 DUP1 REVERT JUMPDEST POP PUSH3 0x99 PUSH3 0x127 JUMP JUMPDEST PUSH1 0x40 MLOAD PUSH3 0xA8 SWAP2 SWAP1 PUSH3 0x436 JUMP JUMPDEST PUSH1 0x40 MLOAD DUP1 SWAP2 SUB SWAP1 RETURN JUMPDEST PUSH3 0xCF PUSH1 0x4 DUP1 CALLDATASIZE SUB DUP2 ADD SWAP1 PUSH3 0xC9 SWAP2 SWAP1 PUSH3 0x6B8 JUMP JUMPDEST PUSH3 0x1B7 JUMP JUMPDEST PUSH1 0x40 MLOAD PUSH3 0xDE SWAP2 SWAP1 PUSH3 0x34B JUMP JUMPDEST PUSH1 0x40 MLOAD DUP1 SWAP2 SUB SWAP1 RETURN JUMPDEST PUSH1 0x0 DUP2 DUP2 SLOAD DUP2 LT PUSH3 0xF8 JUMPI PUSH1 0x0 DUP1 REVERT JUMPDEST SWAP1 PUSH1 0x0 MSTORE PUSH1 0x20 PUSH1 0x0 KECCAK256 ADD PUSH1 0x0 SWAP2 POP SLOAD SWAP1 PUSH2 0x100 EXP SWAP1 DIV PUSH20 0xFFFFFFFFFFFFFFFFFFFFFFFFFFFFFFFFFFFFFFFF AND DUP2 JUMP JUMPDEST PUSH1 0x60 PUSH1 0x0 DUP1 SLOAD DUP1 PUSH1 0x20 MUL PUSH1 0x20 ADD PUSH1 0x40 MLOAD SWAP1 DUP2 ADD PUSH1 0x40 MSTORE DUP1 SWAP3 SWAP2 SWAP1 DUP2 DUP2 MSTORE PUSH1 0x20 ADD DUP3 DUP1 SLOAD DUP1 ISZERO PUSH3 0x1AD JUMPI PUSH1 0x20 MUL DUP3 ADD SWAP2 SWAP1 PUSH1 0x0 MSTORE PUSH1 0x20 PUSH1 0x0 KECCAK256 SWAP1 JUMPDEST DUP2 PUSH1 0x0 SWAP1 SLOAD SWAP1 PUSH2 0x100 EXP SWAP1 DIV PUSH20 0xFFFFFFFFFFFFFFFFFFFFFFFFFFFFFFFFFFFFFFFF AND PUSH20 0xFFFFFFFFFFFFFFFFFFFFFFFFFFFFFFFFFFFFFFFF AND DUP2 MSTORE PUSH1 0x20 ADD SWAP1 PUSH1 0x1 ADD SWAP1 DUP1 DUP4 GT PUSH3 0x162 JUMPI JUMPDEST POP POP POP POP POP SWAP1 POP SWAP1 JUMP JUMPDEST PUSH1 0x0 DUP1 CALLVALUE DUP8 DUP8 DUP8 DUP8 DUP8 CALLER PUSH1 0x40 MLOAD PUSH3 0x1CF SWAP1 PUSH3 0x277 JUMP JUMPDEST PUSH3 0x1E0 SWAP7 SWAP6 SWAP5 SWAP4 SWAP3 SWAP2 SWAP1 PUSH3 0x990 JUMP JUMPDEST PUSH1 0x40 MLOAD DUP1 SWAP2 SUB SWAP1 DUP3 CREATE SWAP1 POP DUP1 ISZERO DUP1 ISZERO PUSH3 0x1FE JUMPI RETURNDATASIZE PUSH1 0x0 DUP1 RETURNDATACOPY RETURNDATASIZE PUSH1 0x0 REVERT JUMPDEST POP SWAP1 POP PUSH1 0x0 DUP2 SWAP1 POP PUSH1 0x0 DUP2 SWAP1 DUP1 PUSH1 0x1 DUP2 SLOAD ADD DUP1 DUP3 SSTORE DUP1 SWAP2 POP POP PUSH1 0x1 SWAP1 SUB SWAP1 PUSH1 0x0 MSTORE PUSH1 0x20 PUSH1 0x0 KECCAK256 ADD PUSH1 0x0 SWAP1 SWAP2 SWAP1 SWAP2 SWAP1 SWAP2 PUSH2 0x100 EXP DUP2 SLOAD DUP2 PUSH20 0xFFFFFFFFFFFFFFFFFFFFFFFFFFFFFFFFFFFFFFFF MUL NOT AND SWAP1 DUP4 PUSH20 0xFFFFFFFFFFFFFFFFFFFFFFFFFFFFFFFFFFFFFFFF AND MUL OR SWAP1 SSTORE POP DUP1 SWAP3 POP POP POP SWAP6 SWAP5 POP POP POP POP POP JUMP JUMPDEST PUSH2 0x1F1E DUP1 PUSH3 0xA21 DUP4 CODECOPY ADD SWAP1 JUMP JUMPDEST PUSH1 0x0 PUSH1 0x40 MLOAD SWAP1 POP SWAP1 JUMP JUMPDEST PUSH1 0x0 DUP1 REVERT JUMPDEST PUSH1 0x0 DUP1 REVERT JUMPDEST PUSH1 0x0 DUP2 SWAP1 POP SWAP2 SWAP1 POP JUMP JUMPDEST PUSH3 0x2AE DUP2 PUSH3 0x299 JUMP JUMPDEST DUP2 EQ PUSH3 0x2BA JUMPI PUSH1 0x0 DUP1 REVERT JUMPDEST POP JUMP JUMPDEST PUSH1 0x0 DUP2 CALLDATALOAD SWAP1 POP PUSH3 0x2CE DUP2 PUSH3 0x2A3 JUMP JUMPDEST SWAP3 SWAP2 POP POP JUMP JUMPDEST PUSH1 0x0 PUSH1 0x20 DUP3 DUP5 SUB SLT ISZERO PUSH3 0x2ED JUMPI PUSH3 0x2EC PUSH3 0x28F JUMP JUMPDEST JUMPDEST PUSH1 0x0 PUSH3 0x2FD DUP5 DUP3 DUP6 ADD PUSH3 0x2BD JUMP JUMPDEST SWAP2 POP POP SWAP3 SWAP2 POP POP JUMP JUMPDEST PUSH1 0x0 PUSH20 0xFFFFFFFFFFFFFFFFFFFFFFFFFFFFFFFFFFFFFFFF DUP3 AND SWAP1 POP SWAP2 SWAP1 POP JUMP JUMPDEST PUSH1 0x0 PUSH3 0x333 DUP3 PUSH3 0x306 JUMP JUMPDEST SWAP1 POP SWAP2 SWAP1 POP JUMP JUMPDEST PUSH3 0x345 DUP2 PUSH3 0x326 JUMP JUMPDEST DUP3 MSTORE POP POP JUMP JUMPDEST PUSH1 0x0 PUSH1 0x20 DUP3 ADD SWAP1 POP PUSH3 0x362 PUSH1 0x0 DUP4 ADD DUP5 PUSH3 0x33A JUMP JUMPDEST SWAP3 SWAP2 POP POP JUMP JUMPDEST PUSH1 0x0 DUP2 MLOAD SWAP1 POP SWAP2 SWAP1 POP JUMP JUMPDEST PUSH1 0x0 DUP3 DUP3 MSTORE PUSH1 0x20 DUP3 ADD SWAP1 POP SWAP3 SWAP2 POP POP JUMP JUMPDEST PUSH1 0x0 DUP2 SWAP1 POP PUSH1 0x20 DUP3 ADD SWAP1 POP SWAP2 SWAP1 POP JUMP JUMPDEST PUSH3 0x39F DUP2 PUSH3 0x326 JUMP JUMPDEST DUP3 MSTORE POP POP JUMP JUMPDEST PUSH1 0x0 PUSH3 0x3B3 DUP4 DUP4 PUSH3 0x394 JUMP JUMPDEST PUSH1 0x20 DUP4 ADD SWAP1 POP SWAP3 SWAP2 POP POP JUMP JUMPDEST PUSH1 0x0 PUSH1 0x20 DUP3 ADD SWAP1 POP SWAP2 SWAP1 POP JUMP JUMPDEST PUSH1 0x0 PUSH3 0x3D9 DUP3 PUSH3 0x368 JUMP JUMPDEST PUSH3 0x3E5 DUP2 DUP6 PUSH3 0x373 JUMP JUMPDEST SWAP4 POP PUSH3 0x3F2 DUP4 PUSH3 0x384 JUMP JUMPDEST DUP1 PUSH1 0x0 JUMPDEST DUP4 DUP2 LT ISZERO PUSH3 0x429 JUMPI DUP2 MLOAD PUSH3 0x40D DUP9 DUP3 PUSH3 0x3A5 JUMP JUMPDEST SWAP8 POP PUSH3 0x41A DUP4 PUSH3 0x3BF JUMP JUMPDEST SWAP3 POP POP PUSH1 0x1 DUP2 ADD SWAP1 POP PUSH3 0x3F6 JUMP JUMPDEST POP DUP6 SWAP4 POP POP POP POP SWAP3 SWAP2 POP POP JUMP JUMPDEST PUSH1 0x0 PUSH1 0x20 DUP3 ADD SWAP1 POP DUP2 DUP2 SUB PUSH1 0x0 DUP4 ADD MSTORE PUSH3 0x452 DUP2 DUP5 PUSH3 0x3CC JUMP JUMPDEST SWAP1 POP SWAP3 SWAP2 POP POP JUMP JUMPDEST PUSH1 0x0 DUP1 REVERT JUMPDEST PUSH1 0x0 DUP1 REVERT JUMPDEST PUSH1 0x0 PUSH1 0x1F NOT PUSH1 0x1F DUP4 ADD AND SWAP1 POP SWAP2 SWAP1 POP JUMP JUMPDEST PUSH32 0x4E487B7100000000000000000000000000000000000000000000000000000000 PUSH1 0x0 MSTORE PUSH1 0x41 PUSH1 0x4 MSTORE PUSH1 0x24 PUSH1 0x0 REVERT JUMPDEST PUSH3 0x4AF DUP3 PUSH3 0x464 JUMP JUMPDEST DUP2 ADD DUP2 DUP2 LT PUSH8 0xFFFFFFFFFFFFFFFF DUP3 GT OR ISZERO PUSH3 0x4D1 JUMPI PUSH3 0x4D0 PUSH3 0x475 JUMP JUMPDEST JUMPDEST DUP1 PUSH1 0x40 MSTORE POP POP POP JUMP JUMPDEST PUSH1 0x0 PUSH3 0x4E6 PUSH3 0x285 JUMP JUMPDEST SWAP1 POP PUSH3 0x4F4 DUP3 DUP3 PUSH3 0x4A4 JUMP JUMPDEST SWAP2 SWAP1 POP JUMP JUMPDEST PUSH1 0x0 PUSH8 0xFFFFFFFFFFFFFFFF DUP3 GT ISZERO PUSH3 0x517 JUMPI PUSH3 0x516 PUSH3 0x475 JUMP JUMPDEST JUMPDEST PUSH3 0x522 DUP3 PUSH3 0x464 JUMP JUMPDEST SWAP1 POP PUSH1 0x20 DUP2 ADD SWAP1 POP SWAP2 SWAP1 POP JUMP JUMPDEST DUP3 DUP2 DUP4 CALLDATACOPY PUSH1 0x0 DUP4 DUP4 ADD MSTORE POP POP POP JUMP JUMPDEST PUSH1 0x0 PUSH3 0x555 PUSH3 0x54F DUP5 PUSH3 0x4F9 JUMP JUMPDEST PUSH3 0x4DA JUMP JUMPDEST SWAP1 POP DUP3 DUP2 MSTORE PUSH1 0x20 DUP2 ADD DUP5 DUP5 DUP5 ADD GT ISZERO PUSH3 0x574 JUMPI PUSH3 0x573 PUSH3 0x45F JUMP JUMPDEST JUMPDEST PUSH3 0x581 DUP5 DUP3 DUP6 PUSH3 0x52F JUMP JUMPDEST POP SWAP4 SWAP3 POP POP POP JUMP JUMPDEST PUSH1 0x0 DUP3 PUSH1 0x1F DUP4 ADD SLT PUSH3 0x5A1 JUMPI PUSH3 0x5A0 PUSH3 0x45A JUMP JUMPDEST JUMPDEST DUP2 CALLDATALOAD PUSH3 0x5B3 DUP5 DUP3 PUSH1 0x20 DUP7 ADD PUSH3 0x53E JUMP JUMPDEST SWAP2 POP POP SWAP3 SWAP2 POP POP JUMP JUMPDEST PUSH1 0x0 PUSH8 0xFFFFFFFFFFFFFFFF DUP3 GT ISZERO PUSH3 0x5DA JUMPI PUSH3 0x5D9 PUSH3 0x475 JUMP JUMPDEST JUMPDEST PUSH1 0x20 DUP3 MUL SWAP1 POP PUSH1 0x20 DUP2 ADD SWAP1 POP SWAP2 SWAP1 POP JUMP JUMPDEST PUSH1 0x0 DUP1 REVERT JUMPDEST PUSH1 0x0 PUSH3 0x607 PUSH3 0x601 DUP5 PUSH3 0x5BC JUMP JUMPDEST PUSH3 0x4DA JUMP JUMPDEST SWAP1 POP DUP1 DUP4 DUP3 MSTORE PUSH1 0x20 DUP3 ADD SWAP1 POP PUSH1 0x20 DUP5 MUL DUP4 ADD DUP6 DUP2 GT ISZERO PUSH3 0x62D JUMPI PUSH3 0x62C PUSH3 0x5EB JUMP JUMPDEST JUMPDEST DUP4 JUMPDEST DUP2 DUP2 LT ISZERO PUSH3 0x67B JUMPI DUP1 CALLDATALOAD PUSH8 0xFFFFFFFFFFFFFFFF DUP2 GT ISZERO PUSH3 0x656 JUMPI PUSH3 0x655 PUSH3 0x45A JUMP JUMPDEST JUMPDEST DUP1 DUP7 ADD PUSH3 0x665 DUP10 DUP3 PUSH3 0x589 JUMP JUMPDEST DUP6 MSTORE PUSH1 0x20 DUP6 ADD SWAP5 POP POP POP PUSH1 0x20 DUP2 ADD SWAP1 POP PUSH3 0x62F JUMP JUMPDEST POP POP POP SWAP4 SWAP3 POP POP POP JUMP JUMPDEST PUSH1 0x0 DUP3 PUSH1 0x1F DUP4 ADD SLT PUSH3 0x69D JUMPI PUSH3 0x69C PUSH3 0x45A JUMP JUMPDEST JUMPDEST DUP2 CALLDATALOAD PUSH3 0x6AF DUP5 DUP3 PUSH1 0x20 DUP7 ADD PUSH3 0x5F0 JUMP JUMPDEST SWAP2 POP POP SWAP3 SWAP2 POP POP JUMP JUMPDEST PUSH1 0x0 DUP1 PUSH1 0x0 DUP1 PUSH1 0x0 PUSH1 0xA0 DUP7 DUP9 SUB SLT ISZERO PUSH3 0x6D7 JUMPI PUSH3 0x6D6 PUSH3 0x28F JUMP JUMPDEST JUMPDEST PUSH1 0x0 DUP7 ADD CALLDATALOAD PUSH8 0xFFFFFFFFFFFFFFFF DUP2 GT ISZERO PUSH3 0x6F8 JUMPI PUSH3 0x6F7 PUSH3 0x294 JUMP JUMPDEST JUMPDEST PUSH3 0x706 DUP9 DUP3 DUP10 ADD PUSH3 0x589 JUMP JUMPDEST SWAP6 POP POP PUSH1 0x20 DUP7 ADD CALLDATALOAD PUSH8 0xFFFFFFFFFFFFFFFF DUP2 GT ISZERO PUSH3 0x72A JUMPI PUSH3 0x729 PUSH3 0x294 JUMP JUMPDEST JUMPDEST PUSH3 0x738 DUP9 DUP3 DUP10 ADD PUSH3 0x589 JUMP JUMPDEST SWAP5 POP POP PUSH1 0x40 DUP7 ADD CALLDATALOAD PUSH8 0xFFFFFFFFFFFFFFFF DUP2 GT ISZERO PUSH3 0x75C JUMPI PUSH3 0x75B PUSH3 0x294 JUMP JUMPDEST JUMPDEST PUSH3 0x76A DUP9 DUP3 DUP10 ADD PUSH3 0x589 JUMP JUMPDEST SWAP4 POP POP PUSH1 0x60 DUP7 ADD CALLDATALOAD PUSH8 0xFFFFFFFFFFFFFFFF DUP2 GT ISZERO PUSH3 0x78E JUMPI PUSH3 0x78D PUSH3 0x294 JUMP JUMPDEST JUMPDEST PUSH3 0x79C DUP9 DUP3 DUP10 ADD PUSH3 0x685 JUMP JUMPDEST SWAP3 POP POP PUSH1 0x80 DUP7 ADD CALLDATALOAD PUSH8 0xFFFFFFFFFFFFFFFF DUP2 GT ISZERO PUSH3 0x7C0 JUMPI PUSH3 0x7BF PUSH3 0x294 JUMP JUMPDEST JUMPDEST PUSH3 0x7CE DUP9 DUP3 DUP10 ADD PUSH3 0x685 JUMP JUMPDEST SWAP2 POP POP SWAP3 SWAP6 POP SWAP3 SWAP6 SWAP1 SWAP4 POP JUMP JUMPDEST PUSH1 0x0 DUP2 MLOAD SWAP1 POP SWAP2 SWAP1 POP JUMP JUMPDEST PUSH1 0x0 DUP3 DUP3 MSTORE PUSH1 0x20 DUP3 ADD SWAP1 POP SWAP3 SWAP2 POP POP JUMP JUMPDEST PUSH1 0x0 JUMPDEST DUP4 DUP2 LT ISZERO PUSH3 0x817 JUMPI DUP1 DUP3 ADD MLOAD DUP2 DUP5 ADD MSTORE PUSH1 0x20 DUP2 ADD SWAP1 POP PUSH3 0x7FA JUMP JUMPDEST DUP4 DUP2 GT ISZERO PUSH3 0x827 JUMPI PUSH1 0x0 DUP5 DUP5 ADD MSTORE JUMPDEST POP POP POP POP JUMP JUMPDEST PUSH1 0x0 PUSH3 0x83A DUP3 PUSH3 0x7DB JUMP JUMPDEST PUSH3 0x846 DUP2 DUP6 PUSH3 0x7E6 JUMP JUMPDEST SWAP4 POP PUSH3 0x858 DUP2 DUP6 PUSH1 0x20 DUP7 ADD PUSH3 0x7F7 JUMP JUMPDEST PUSH3 0x863 DUP2 PUSH3 0x464 JUMP JUMPDEST DUP5 ADD SWAP2 POP POP SWAP3 SWAP2 POP POP JUMP JUMPDEST PUSH1 0x0 DUP2 MLOAD SWAP1 POP SWAP2 SWAP1 POP JUMP JUMPDEST PUSH1 0x0 DUP3 DUP3 MSTORE PUSH1 0x20 DUP3 ADD SWAP1 POP SWAP3 SWAP2 POP POP JUMP JUMPDEST PUSH1 0x0 DUP2 SWAP1 POP PUSH1 0x20 DUP3 ADD SWAP1 POP SWAP2 SWAP1 POP JUMP JUMPDEST PUSH1 0x0 DUP3 DUP3 MSTORE PUSH1 0x20 DUP3 ADD SWAP1 POP SWAP3 SWAP2 POP POP JUMP JUMPDEST PUSH1 0x0 PUSH3 0x8B8 DUP3 PUSH3 0x7DB JUMP JUMPDEST PUSH3 0x8C4 DUP2 DUP6 PUSH3 0x89A JUMP JUMPDEST SWAP4 POP PUSH3 0x8D6 DUP2 DUP6 PUSH1 0x20 DUP7 ADD PUSH3 0x7F7 JUMP JUMPDEST PUSH3 0x8E1 DUP2 PUSH3 0x464 JUMP JUMPDEST DUP5 ADD SWAP2 POP POP SWAP3 SWAP2 POP POP JUMP JUMPDEST PUSH1 0x0 PUSH3 0x8FA DUP4 DUP4 PUSH3 0x8AB JUMP JUMPDEST SWAP1 POP SWAP3 SWAP2 POP POP JUMP JUMPDEST PUSH1 0x0 PUSH1 0x20 DUP3 ADD SWAP1 POP SWAP2 SWAP1 POP JUMP JUMPDEST PUSH1 0x0 PUSH3 0x91C DUP3 PUSH3 0x86E JUMP JUMPDEST PUSH3 0x928 DUP2 DUP6 PUSH3 0x879 JUMP JUMPDEST SWAP4 POP DUP4 PUSH1 0x20 DUP3 MUL DUP6 ADD PUSH3 0x93C DUP6 PUSH3 0x88A JUMP JUMPDEST DUP1 PUSH1 0x0 JUMPDEST DUP6 DUP2 LT ISZERO PUSH3 0x97E JUMPI DUP5 DUP5 SUB DUP10 MSTORE DUP2 MLOAD PUSH3 0x95C DUP6 DUP3 PUSH3 0x8EC JUMP JUMPDEST SWAP5 POP PUSH3 0x969 DUP4 PUSH3 0x902 JUMP JUMPDEST SWAP3 POP PUSH1 0x20 DUP11 ADD SWAP10 POP POP PUSH1 0x1 DUP2 ADD SWAP1 POP PUSH3 0x940 JUMP JUMPDEST POP DUP3 SWAP8 POP DUP8 SWAP6 POP POP POP POP POP POP SWAP3 SWAP2 POP POP JUMP JUMPDEST PUSH1 0x0 PUSH1 0xC0 DUP3 ADD SWAP1 POP DUP2 DUP2 SUB PUSH1 0x0 DUP4 ADD MSTORE PUSH3 0x9AC DUP2 DUP10 PUSH3 0x82D JUMP JUMPDEST SWAP1 POP DUP2 DUP2 SUB PUSH1 0x20 DUP4 ADD MSTORE PUSH3 0x9C2 DUP2 DUP9 PUSH3 0x82D JUMP JUMPDEST SWAP1 POP DUP2 DUP2 SUB PUSH1 0x40 DUP4 ADD MSTORE PUSH3 0x9D8 DUP2 DUP8 PUSH3 0x82D JUMP JUMPDEST SWAP1 POP DUP2 DUP2 SUB PUSH1 0x60 DUP4 ADD MSTORE PUSH3 0x9EE DUP2 DUP7 PUSH3 0x90F JUMP JUMPDEST SWAP1 POP DUP2 DUP2 SUB PUSH1 0x80 DUP4 ADD MSTORE PUSH3 0xA04 DUP2 DUP6 PUSH3 0x90F JUMP JUMPDEST SWAP1 POP PUSH3 0xA15 PUSH1 0xA0 DUP4 ADD DUP5 PUSH3 0x33A JUMP JUMPDEST SWAP8 SWAP7 POP POP POP POP POP POP POP JUMP INVALID PUSH1 0x80 PUSH1 0x40 MSTORE PUSH1 0x40 MLOAD PUSH3 0x1F1E CODESIZE SUB DUP1 PUSH3 0x1F1E DUP4 CODECOPY DUP2 DUP2 ADD PUSH1 0x40 MSTORE DUP2 ADD SWAP1 PUSH3 0x29 SWAP2 SWAP1 PUSH3 0x590 JUMP JUMPDEST DUP1 PUSH1 0x0 DUP1 PUSH2 0x100 EXP DUP2 SLOAD DUP2 PUSH20 0xFFFFFFFFFFFFFFFFFFFFFFFFFFFFFFFFFFFFFFFF MUL NOT AND SWAP1 DUP4 PUSH20 0xFFFFFFFFFFFFFFFFFFFFFFFFFFFFFFFFFFFFFFFF AND MUL OR SWAP1 SSTORE POP DUP4 PUSH1 0x1 SWAP1 DUP1 MLOAD SWAP1 PUSH1 0x20 ADD SWAP1 PUSH3 0x81 SWAP3 SWAP2 SWAP1 PUSH3 0x10D JUMP JUMPDEST POP DUP6 PUSH1 0x2 SWAP1 DUP1 MLOAD SWAP1 PUSH1 0x20 ADD SWAP1 PUSH3 0x9A SWAP3 SWAP2 SWAP1 PUSH3 0x10D JUMP JUMPDEST POP DUP3 PUSH1 0x3 SWAP1 DUP1 MLOAD SWAP1 PUSH1 0x20 ADD SWAP1 PUSH3 0xB3 SWAP3 SWAP2 SWAP1 PUSH3 0x19E JUMP JUMPDEST POP DUP5 PUSH1 0x4 SWAP1 DUP1 MLOAD SWAP1 PUSH1 0x20 ADD SWAP1 PUSH3 0xCC SWAP3 SWAP2 SWAP1 PUSH3 0x10D JUMP JUMPDEST POP DUP2 PUSH1 0x5 SWAP1 DUP1 MLOAD SWAP1 PUSH1 0x20 ADD SWAP1 PUSH3 0xE5 SWAP3 SWAP2 SWAP1 PUSH3 0x19E JUMP JUMPDEST POP PUSH1 0x0 PUSH1 0x6 PUSH1 0x14 PUSH2 0x100 EXP DUP2 SLOAD DUP2 PUSH1 0xFF MUL NOT AND SWAP1 DUP4 ISZERO ISZERO MUL OR SWAP1 SSTORE POP POP POP POP POP POP POP PUSH3 0x72B JUMP JUMPDEST DUP3 DUP1 SLOAD PUSH3 0x11B SWAP1 PUSH3 0x6F6 JUMP JUMPDEST SWAP1 PUSH1 0x0 MSTORE PUSH1 0x20 PUSH1 0x0 KECCAK256 SWAP1 PUSH1 0x1F ADD PUSH1 0x20 SWAP1 DIV DUP2 ADD SWAP3 DUP3 PUSH3 0x13F JUMPI PUSH1 0x0 DUP6 SSTORE PUSH3 0x18B JUMP JUMPDEST DUP3 PUSH1 0x1F LT PUSH3 0x15A JUMPI DUP1 MLOAD PUSH1 0xFF NOT AND DUP4 DUP1 ADD OR DUP6 SSTORE PUSH3 0x18B JUMP JUMPDEST DUP3 DUP1 ADD PUSH1 0x1 ADD DUP6 SSTORE DUP3 ISZERO PUSH3 0x18B JUMPI SWAP2 DUP3 ADD JUMPDEST DUP3 DUP2 GT ISZERO PUSH3 0x18A JUMPI DUP3 MLOAD DUP3 SSTORE SWAP2 PUSH1 0x20 ADD SWAP2 SWAP1 PUSH1 0x1 ADD SWAP1 PUSH3 0x16D JUMP JUMPDEST JUMPDEST POP SWAP1 POP PUSH3 0x19A SWAP2 SWAP1 PUSH3 0x205 JUMP JUMPDEST POP SWAP1 JUMP JUMPDEST DUP3 DUP1 SLOAD DUP3 DUP3 SSTORE SWAP1 PUSH1 0x0 MSTORE PUSH1 0x20 PUSH1 0x0 KECCAK256 SWAP1 DUP2 ADD SWAP3 DUP3 ISZERO PUSH3 0x1F2 JUMPI SWAP2 PUSH1 0x20 MUL DUP3 ADD JUMPDEST DUP3 DUP2 GT ISZERO PUSH3 0x1F1 JUMPI DUP3 MLOAD DUP3 SWAP1 DUP1 MLOAD SWAP1 PUSH1 0x20 ADD SWAP1 PUSH3 0x1E0 SWAP3 SWAP2 SWAP1 PUSH3 0x10D JUMP JUMPDEST POP SWAP2 PUSH1 0x20 ADD SWAP2 SWAP1 PUSH1 0x1 ADD SWAP1 PUSH3 0x1BF JUMP JUMPDEST JUMPDEST POP SWAP1 POP PUSH3 0x201 SWAP2 SWAP1 PUSH3 0x224 JUMP JUMPDEST POP SWAP1 JUMP JUMPDEST JUMPDEST DUP1 DUP3 GT ISZERO PUSH3 0x220 JUMPI PUSH1 0x0 DUP2 PUSH1 0x0 SWAP1 SSTORE POP PUSH1 0x1 ADD PUSH3 0x206 JUMP JUMPDEST POP SWAP1 JUMP JUMPDEST JUMPDEST DUP1 DUP3 GT ISZERO PUSH3 0x248 JUMPI PUSH1 0x0 DUP2 DUP2 PUSH3 0x23E SWAP2 SWAP1 PUSH3 0x24C JUMP JUMPDEST POP PUSH1 0x1 ADD PUSH3 0x225 JUMP JUMPDEST POP SWAP1 JUMP JUMPDEST POP DUP1 SLOAD PUSH3 0x25A SWAP1 PUSH3 0x6F6 JUMP JUMPDEST PUSH1 0x0 DUP3 SSTORE DUP1 PUSH1 0x1F LT PUSH3 0x26E JUMPI POP PUSH3 0x28F JUMP JUMPDEST PUSH1 0x1F ADD PUSH1 0x20 SWAP1 DIV SWAP1 PUSH1 0x0 MSTORE PUSH1 0x20 PUSH1 0x0 KECCAK256 SWAP1 DUP2 ADD SWAP1 PUSH3 0x28E SWAP2 SWAP1 PUSH3 0x205 JUMP JUMPDEST JUMPDEST POP JUMP JUMPDEST PUSH1 0x0 PUSH1 0x40 MLOAD SWAP1 POP SWAP1 JUMP JUMPDEST PUSH1 0x0 DUP1 REVERT JUMPDEST PUSH1 0x0 DUP1 REVERT JUMPDEST PUSH1 0x0 DUP1 REVERT JUMPDEST PUSH1 0x0 DUP1 REVERT JUMPDEST PUSH1 0x0 PUSH1 0x1F NOT PUSH1 0x1F DUP4 ADD AND SWAP1 POP SWAP2 SWAP1 POP JUMP JUMPDEST PUSH32 0x4E487B7100000000000000000000000000000000000000000000000000000000 PUSH1 0x0 MSTORE PUSH1 0x41 PUSH1 0x4 MSTORE PUSH1 0x24 PUSH1 0x0 REVERT JUMPDEST PUSH3 0x2FB DUP3 PUSH3 0x2B0 JUMP JUMPDEST DUP2 ADD DUP2 DUP2 LT PUSH8 0xFFFFFFFFFFFFFFFF DUP3 GT OR ISZERO PUSH3 0x31D JUMPI PUSH3 0x31C PUSH3 0x2C1 JUMP JUMPDEST JUMPDEST DUP1 PUSH1 0x40 MSTORE POP POP POP JUMP JUMPDEST PUSH1 0x0 PUSH3 0x332 PUSH3 0x292 JUMP JUMPDEST SWAP1 POP PUSH3 0x340 DUP3 DUP3 PUSH3 0x2F0 JUMP JUMPDEST SWAP2 SWAP1 POP JUMP JUMPDEST PUSH1 0x0 PUSH8 0xFFFFFFFFFFFFFFFF DUP3 GT ISZERO PUSH3 0x363 JUMPI PUSH3 0x362 PUSH3 0x2C1 JUMP JUMPDEST JUMPDEST PUSH3 0x36E DUP3 PUSH3 0x2B0 JUMP JUMPDEST SWAP1 POP PUSH1 0x20 DUP2 ADD SWAP1 POP SWAP2 SWAP1 POP JUMP JUMPDEST PUSH1 0x0 JUMPDEST DUP4 DUP2 LT ISZERO PUSH3 0x39B JUMPI DUP1 DUP3 ADD MLOAD DUP2 DUP5 ADD MSTORE PUSH1 0x20 DUP2 ADD SWAP1 POP PUSH3 0x37E JUMP JUMPDEST DUP4 DUP2 GT ISZERO PUSH3 0x3AB JUMPI PUSH1 0x0 DUP5 DUP5 ADD MSTORE JUMPDEST POP POP POP POP JUMP JUMPDEST PUSH1 0x0 PUSH3 0x3C8 PUSH3 0x3C2 DUP5 PUSH3 0x345 JUMP JUMPDEST PUSH3 0x326 JUMP JUMPDEST SWAP1 POP DUP3 DUP2 MSTORE PUSH1 0x20 DUP2 ADD DUP5 DUP5 DUP5 ADD GT ISZERO PUSH3 0x3E7 JUMPI PUSH3 0x3E6 PUSH3 0x2AB JUMP JUMPDEST JUMPDEST PUSH3 0x3F4 DUP5 DUP3 DUP6 PUSH3 0x37B JUMP JUMPDEST POP SWAP4 SWAP3 POP POP POP JUMP JUMPDEST PUSH1 0x0 DUP3 PUSH1 0x1F DUP4 ADD SLT PUSH3 0x414 JUMPI PUSH3 0x413 PUSH3 0x2A6 JUMP JUMPDEST JUMPDEST DUP2 MLOAD PUSH3 0x426 DUP5 DUP3 PUSH1 0x20 DUP7 ADD PUSH3 0x3B1 JUMP JUMPDEST SWAP2 POP POP SWAP3 SWAP2 POP POP JUMP JUMPDEST PUSH1 0x0 PUSH8 0xFFFFFFFFFFFFFFFF DUP3 GT ISZERO PUSH3 0x44D JUMPI PUSH3 0x44C PUSH3 0x2C1 JUMP JUMPDEST JUMPDEST PUSH1 0x20 DUP3 MUL SWAP1 POP PUSH1 0x20 DUP2 ADD SWAP1 POP SWAP2 SWAP1 POP JUMP JUMPDEST PUSH1 0x0 DUP1 REVERT JUMPDEST PUSH1 0x0 PUSH3 0x47A PUSH3 0x474 DUP5 PUSH3 0x42F JUMP JUMPDEST PUSH3 0x326 JUMP JUMPDEST SWAP1 POP DUP1 DUP4 DUP3 MSTORE PUSH1 0x20 DUP3 ADD SWAP1 POP PUSH1 0x20 DUP5 MUL DUP4 ADD DUP6 DUP2 GT ISZERO PUSH3 0x4A0 JUMPI PUSH3 0x49F PUSH3 0x45E JUMP JUMPDEST JUMPDEST DUP4 JUMPDEST DUP2 DUP2 LT ISZERO PUSH3 0x4EE JUMPI DUP1 MLOAD PUSH8 0xFFFFFFFFFFFFFFFF DUP2 GT ISZERO PUSH3 0x4C9 JUMPI PUSH3 0x4C8 PUSH3 0x2A6 JUMP JUMPDEST JUMPDEST DUP1 DUP7 ADD PUSH3 0x4D8 DUP10 DUP3 PUSH3 0x3FC JUMP JUMPDEST DUP6 MSTORE PUSH1 0x20 DUP6 ADD SWAP5 POP POP POP PUSH1 0x20 DUP2 ADD SWAP1 POP PUSH3 0x4A2 JUMP JUMPDEST POP POP POP SWAP4 SWAP3 POP POP POP JUMP JUMPDEST PUSH1 0x0 DUP3 PUSH1 0x1F DUP4 ADD SLT PUSH3 0x510 JUMPI PUSH3 0x50F PUSH3 0x2A6 JUMP JUMPDEST JUMPDEST DUP2 MLOAD PUSH3 0x522 DUP5 DUP3 PUSH1 0x20 DUP7 ADD PUSH3 0x463 JUMP JUMPDEST SWAP2 POP POP SWAP3 SWAP2 POP POP JUMP JUMPDEST PUSH1 0x0 PUSH20 0xFFFFFFFFFFFFFFFFFFFFFFFFFFFFFFFFFFFFFFFF DUP3 AND SWAP1 POP SWAP2 SWAP1 POP JUMP JUMPDEST PUSH1 0x0 PUSH3 0x558 DUP3 PUSH3 0x52B JUMP JUMPDEST SWAP1 POP SWAP2 SWAP1 POP JUMP JUMPDEST PUSH3 0x56A DUP2 PUSH3 0x54B JUMP JUMPDEST DUP2 EQ PUSH3 0x576 JUMPI PUSH1 0x0 DUP1 REVERT JUMPDEST POP JUMP JUMPDEST PUSH1 0x0 DUP2 MLOAD SWAP1 POP PUSH3 0x58A DUP2 PUSH3 0x55F JUMP JUMPDEST SWAP3 SWAP2 POP POP JUMP JUMPDEST PUSH1 0x0 DUP1 PUSH1 0x0 DUP1 PUSH1 0x0 DUP1 PUSH1 0xC0 DUP8 DUP10 SUB SLT ISZERO PUSH3 0x5B0 JUMPI PUSH3 0x5AF PUSH3 0x29C JUMP JUMPDEST JUMPDEST PUSH1 0x0 DUP8 ADD MLOAD PUSH8 0xFFFFFFFFFFFFFFFF DUP2 GT ISZERO PUSH3 0x5D1 JUMPI PUSH3 0x5D0 PUSH3 0x2A1 JUMP JUMPDEST JUMPDEST PUSH3 0x5DF DUP10 DUP3 DUP11 ADD PUSH3 0x3FC JUMP JUMPDEST SWAP7 POP POP PUSH1 0x20 DUP8 ADD MLOAD PUSH8 0xFFFFFFFFFFFFFFFF DUP2 GT ISZERO PUSH3 0x603 JUMPI PUSH3 0x602 PUSH3 0x2A1 JUMP JUMPDEST JUMPDEST PUSH3 0x611 DUP10 DUP3 DUP11 ADD PUSH3 0x3FC JUMP JUMPDEST SWAP6 POP POP PUSH1 0x40 DUP8 ADD MLOAD PUSH8 0xFFFFFFFFFFFFFFFF DUP2 GT ISZERO PUSH3 0x635 JUMPI PUSH3 0x634 PUSH3 0x2A1 JUMP JUMPDEST JUMPDEST PUSH3 0x643 DUP10 DUP3 DUP11 ADD PUSH3 0x3FC JUMP JUMPDEST SWAP5 POP POP PUSH1 0x60 DUP8 ADD MLOAD PUSH8 0xFFFFFFFFFFFFFFFF DUP2 GT ISZERO PUSH3 0x667 JUMPI PUSH3 0x666 PUSH3 0x2A1 JUMP JUMPDEST JUMPDEST PUSH3 0x675 DUP10 DUP3 DUP11 ADD PUSH3 0x4F8 JUMP JUMPDEST SWAP4 POP POP PUSH1 0x80 DUP8 ADD MLOAD PUSH8 0xFFFFFFFFFFFFFFFF DUP2 GT ISZERO PUSH3 0x699 JUMPI PUSH3 0x698 PUSH3 0x2A1 JUMP JUMPDEST JUMPDEST PUSH3 0x6A7 DUP10 DUP3 DUP11 ADD PUSH3 0x4F8 JUMP JUMPDEST SWAP3 POP POP PUSH1 0xA0 PUSH3 0x6BA DUP10 DUP3 DUP11 ADD PUSH3 0x579 JUMP JUMPDEST SWAP2 POP POP SWAP3 SWAP6 POP SWAP3 SWAP6 POP SWAP3 SWAP6 JUMP JUMPDEST PUSH32 0x4E487B7100000000000000000000000000000000000000000000000000000000 PUSH1 0x0 MSTORE PUSH1 0x22 PUSH1 0x4 MSTORE PUSH1 0x24 PUSH1 0x0 REVERT JUMPDEST PUSH1 0x0 PUSH1 0x2 DUP3 DIV SWAP1 POP PUSH1 0x1 DUP3 AND DUP1 PUSH3 0x70F JUMPI PUSH1 0x7F DUP3 AND SWAP2 POP JUMPDEST PUSH1 0x20 DUP3 LT DUP2 SUB PUSH3 0x725 JUMPI PUSH3 0x724 PUSH3 0x6C7 JUMP JUMPDEST JUMPDEST POP SWAP2 SWAP1 POP JUMP JUMPDEST PUSH2 0x17E3 DUP1 PUSH3 0x73B PUSH1 0x0 CODECOPY PUSH1 0x0 RETURN INVALID PUSH1 0x80 PUSH1 0x40 MSTORE CALLVALUE DUP1 ISZERO PUSH2 0x10 JUMPI PUSH1 0x0 DUP1 REVERT JUMPDEST POP PUSH1 0x4 CALLDATASIZE LT PUSH2 0xFF JUMPI PUSH1 0x0 CALLDATALOAD PUSH1 0xE0 SHR DUP1 PUSH4 0x5F51C765 GT PUSH2 0x97 JUMPI DUP1 PUSH4 0xAF84A013 GT PUSH2 0x66 JUMPI DUP1 PUSH4 0xAF84A013 EQ PUSH2 0x27F JUMPI DUP1 PUSH4 0xDEA4E339 EQ PUSH2 0x2AF JUMPI DUP1 PUSH4 0xFA391C64 EQ PUSH2 0x2CD JUMPI DUP1 PUSH4 0xFBC03A1E EQ PUSH2 0x2EB JUMPI PUSH2 0xFF JUMP JUMPDEST DUP1 PUSH4 0x5F51C765 EQ PUSH2 0x1F7 JUMPI DUP1 PUSH4 0x71096387 EQ PUSH2 0x213 JUMPI DUP1 PUSH4 0x74ADAD1D EQ PUSH2 0x243 JUMPI DUP1 PUSH4 0xA20FCA5A EQ PUSH2 0x275 JUMPI PUSH2 0xFF JUMP JUMPDEST DUP1 PUSH4 0x481C6A75 GT PUSH2 0xD3 JUMPI DUP1 PUSH4 0x481C6A75 EQ PUSH2 0x178 JUMPI DUP1 PUSH4 0x4D547ADA EQ PUSH2 0x196 JUMPI DUP1 PUSH4 0x5A9B0B89 EQ PUSH2 0x1B4 JUMPI DUP1 PUSH4 0x5E1C7322 EQ PUSH2 0x1D9 JUMPI PUSH2 0xFF JUMP JUMPDEST DUP1 PUSH3 0x1AEA77 EQ PUSH2 0x104 JUMPI DUP1 PUSH4 0x231E407A EQ PUSH2 0x122 JUMPI DUP1 PUSH4 0x31C3A6F5 EQ PUSH2 0x12C JUMPI DUP1 PUSH4 0x43A7E9B9 EQ PUSH2 0x148 JUMPI JUMPDEST PUSH1 0x0 DUP1 REVERT JUMPDEST PUSH2 0x10C PUSH2 0x309 JUMP JUMPDEST PUSH1 0x40 MLOAD PUSH2 0x119 SWAP2 SWAP1 PUSH2 0x116E JUMP JUMPDEST PUSH1 0x40 MLOAD DUP1 SWAP2 SUB SWAP1 RETURN JUMPDEST PUSH2 0x12A PUSH2 0x397 JUMP JUMPDEST STOP JUMPDEST PUSH2 0x146 PUSH1 0x4 DUP1 CALLDATASIZE SUB DUP2 ADD SWAP1 PUSH2 0x141 SWAP2 SWAP1 PUSH2 0x12D9 JUMP JUMPDEST PUSH2 0x4B3 JUMP JUMPDEST STOP JUMPDEST PUSH2 0x162 PUSH1 0x4 DUP1 CALLDATASIZE SUB DUP2 ADD SWAP1 PUSH2 0x15D SWAP2 SWAP1 PUSH2 0x1358 JUMP JUMPDEST PUSH2 0x613 JUMP JUMPDEST PUSH1 0x40 MLOAD PUSH2 0x16F SWAP2 SWAP1 PUSH2 0x13C6 JUMP JUMPDEST PUSH1 0x40 MLOAD DUP1 SWAP2 SUB SWAP1 RETURN JUMPDEST PUSH2 0x180 PUSH2 0x652 JUMP JUMPDEST PUSH1 0x40 MLOAD PUSH2 0x18D SWAP2 SWAP1 PUSH2 0x13C6 JUMP JUMPDEST PUSH1 0x40 MLOAD DUP1 SWAP2 SUB SWAP1 RETURN JUMPDEST PUSH2 0x19E PUSH2 0x676 JUMP JUMPDEST PUSH1 0x40 MLOAD PUSH2 0x1AB SWAP2 SWAP1 PUSH2 0x13C6 JUMP JUMPDEST PUSH1 0x40 MLOAD DUP1 SWAP2 SUB SWAP1 RETURN JUMPDEST PUSH2 0x1BC PUSH2 0x69C JUMP JUMPDEST PUSH1 0x40 MLOAD PUSH2 0x1D0 SWAP9 SWAP8 SWAP7 SWAP6 SWAP5 SWAP4 SWAP3 SWAP2 SWAP1 PUSH2 0x15C6 JUMP JUMPDEST PUSH1 0x40 MLOAD DUP1 SWAP2 SUB SWAP1 RETURN JUMPDEST PUSH2 0x1E1 PUSH2 0xA20 JUMP JUMPDEST PUSH1 0x40 MLOAD PUSH2 0x1EE SWAP2 SWAP1 PUSH2 0x1667 JUMP JUMPDEST PUSH1 0x40 MLOAD DUP1 SWAP2 SUB SWAP1 RETURN JUMPDEST PUSH2 0x211 PUSH1 0x4 DUP1 CALLDATASIZE SUB DUP2 ADD SWAP1 PUSH2 0x20C SWAP2 SWAP1 PUSH2 0x16C7 JUMP JUMPDEST PUSH2 0xAF9 JUMP JUMPDEST STOP JUMPDEST PUSH2 0x22D PUSH1 0x4 DUP1 CALLDATASIZE SUB DUP2 ADD SWAP1 PUSH2 0x228 SWAP2 SWAP1 PUSH2 0x1358 JUMP JUMPDEST PUSH2 0xBEE JUMP JUMPDEST PUSH1 0x40 MLOAD PUSH2 0x23A SWAP2 SWAP1 PUSH2 0x116E JUMP JUMPDEST PUSH1 0x40 MLOAD DUP1 SWAP2 SUB SWAP1 RETURN JUMPDEST PUSH2 0x25D PUSH1 0x4 DUP1 CALLDATASIZE SUB DUP2 ADD SWAP1 PUSH2 0x258 SWAP2 SWAP1 PUSH2 0x16C7 JUMP JUMPDEST PUSH2 0xC9A JUMP JUMPDEST PUSH1 0x40 MLOAD PUSH2 0x26C SWAP4 SWAP3 SWAP2 SWAP1 PUSH2 0x16F4 JUMP JUMPDEST PUSH1 0x40 MLOAD DUP1 SWAP2 SUB SWAP1 RETURN JUMPDEST PUSH2 0x27D PUSH2 0xD79 JUMP JUMPDEST STOP JUMPDEST PUSH2 0x299 PUSH1 0x4 DUP1 CALLDATASIZE SUB DUP2 ADD SWAP1 PUSH2 0x294 SWAP2 SWAP1 PUSH2 0x1358 JUMP JUMPDEST PUSH2 0xE57 JUMP JUMPDEST PUSH1 0x40 MLOAD PUSH2 0x2A6 SWAP2 SWAP1 PUSH2 0x116E JUMP JUMPDEST PUSH1 0x40 MLOAD DUP1 SWAP2 SUB SWAP1 RETURN JUMPDEST PUSH2 0x2B7 PUSH2 0xF03 JUMP JUMPDEST PUSH1 0x40 MLOAD PUSH2 0x2C4 SWAP2 SWAP1 PUSH2 0x116E JUMP JUMPDEST PUSH1 0x40 MLOAD DUP1 SWAP2 SUB SWAP1 RETURN JUMPDEST PUSH2 0x2D5 PUSH2 0xF91 JUMP JUMPDEST PUSH1 0x40 MLOAD PUSH2 0x2E2 SWAP2 SWAP1 PUSH2 0x1732 JUMP JUMPDEST PUSH1 0x40 MLOAD DUP1 SWAP2 SUB SWAP1 RETURN JUMPDEST PUSH2 0x2F3 PUSH2 0xFA4 JUMP JUMPDEST PUSH1 0x40 MLOAD PUSH2 0x300 SWAP2 SWAP1 PUSH2 0x116E JUMP JUMPDEST PUSH1 0x40 MLOAD DUP1 SWAP2 SUB SWAP1 RETURN JUMPDEST PUSH1 0x2 DUP1 SLOAD PUSH2 0x316 SWAP1 PUSH2 0x177C JUMP JUMPDEST DUP1 PUSH1 0x1F ADD PUSH1 0x20 DUP1 SWAP2 DIV MUL PUSH1 0x20 ADD PUSH1 0x40 MLOAD SWAP1 DUP2 ADD PUSH1 0x40 MSTORE DUP1 SWAP3 SWAP2 SWAP1 DUP2 DUP2 MSTORE PUSH1 0x20 ADD DUP3 DUP1 SLOAD PUSH2 0x342 SWAP1 PUSH2 0x177C JUMP JUMPDEST DUP1 ISZERO PUSH2 0x38F JUMPI DUP1 PUSH1 0x1F LT PUSH2 0x364 JUMPI PUSH2 0x100 DUP1 DUP4 SLOAD DIV MUL DUP4 MSTORE SWAP2 PUSH1 0x20 ADD SWAP2 PUSH2 0x38F JUMP JUMPDEST DUP3 ADD SWAP2 SWAP1 PUSH1 0x0 MSTORE PUSH1 0x20 PUSH1 0x0 KECCAK256 SWAP1 JUMPDEST DUP2 SLOAD DUP2 MSTORE SWAP1 PUSH1 0x1 ADD SWAP1 PUSH1 0x20 ADD DUP1 DUP4 GT PUSH2 0x372 JUMPI DUP3 SWAP1 SUB PUSH1 0x1F AND DUP3 ADD SWAP2 JUMPDEST POP POP POP POP POP DUP2 JUMP JUMPDEST PUSH1 0x0 DUP1 SLOAD SWAP1 PUSH2 0x100 EXP SWAP1 DIV PUSH20 0xFFFFFFFFFFFFFFFFFFFFFFFFFFFFFFFFFFFFFFFF AND PUSH20 0xFFFFFFFFFFFFFFFFFFFFFFFFFFFFFFFFFFFFFFFF AND CALLER PUSH20 0xFFFFFFFFFFFFFFFFFFFFFFFFFFFFFFFFFFFFFFFF AND EQ PUSH2 0x3EF JUMPI PUSH1 0x0 DUP1 REVERT JUMPDEST PUSH1 0x0 PUSH20 0xFFFFFFFFFFFFFFFFFFFFFFFFFFFFFFFFFFFFFFFF AND PUSH1 0x6 PUSH1 0x0 SWAP1 SLOAD SWAP1 PUSH2 0x100 EXP SWAP1 DIV PUSH20 0xFFFFFFFFFFFFFFFFFFFFFFFFFFFFFFFFFFFFFFFF AND PUSH20 0xFFFFFFFFFFFFFFFFFFFFFFFFFFFFFFFFFFFFFFFF AND EQ PUSH2 0x44A JUMPI PUSH1 0x0 DUP1 REVERT JUMPDEST PUSH1 0x0 DUP1 SLOAD SWAP1 PUSH2 0x100 EXP SWAP1 DIV PUSH20 0xFFFFFFFFFFFFFFFFFFFFFFFFFFFFFFFFFFFFFFFF AND PUSH20 0xFFFFFFFFFFFFFFFFFFFFFFFFFFFFFFFFFFFFFFFF AND PUSH2 0x8FC SELFBALANCE SWAP1 DUP2 ISZERO MUL SWAP1 PUSH1 0x40 MLOAD PUSH1 0x0 PUSH1 0x40 MLOAD DUP1 DUP4 SUB DUP2 DUP6 DUP9 DUP9 CALL SWAP4 POP POP POP POP ISZERO DUP1 ISZERO PUSH2 0x4B0 JUMPI RETURNDATASIZE PUSH1 0x0 DUP1 RETURNDATACOPY RETURNDATASIZE PUSH1 0x0 REVERT JUMPDEST POP JUMP JUMPDEST PUSH1 0x40 MLOAD DUP1 PUSH1 0x60 ADD PUSH1 0x40 MSTORE DUP1 DUP3 DUP2 MSTORE PUSH1 0x20 ADD CALLER PUSH20 0xFFFFFFFFFFFFFFFFFFFFFFFFFFFFFFFFFFFFFFFF AND DUP2 MSTORE PUSH1 0x20 ADD PUSH1 0x1 ISZERO ISZERO DUP2 MSTORE POP PUSH1 0x7 PUSH1 0x0 CALLER PUSH20 0xFFFFFFFFFFFFFFFFFFFFFFFFFFFFFFFFFFFFFFFF AND PUSH20 0xFFFFFFFFFFFFFFFFFFFFFFFFFFFFFFFFFFFFFFFF AND DUP2 MSTORE PUSH1 0x20 ADD SWAP1 DUP2 MSTORE PUSH1 0x20 ADD PUSH1 0x0 KECCAK256 PUSH1 0x0 DUP3 ADD MLOAD DUP2 PUSH1 0x0 ADD SWAP1 DUP1 MLOAD SWAP1 PUSH1 0x20 ADD SWAP1 PUSH2 0x542 SWAP3 SWAP2 SWAP1 PUSH2 0x1032 JUMP JUMPDEST POP PUSH1 0x20 DUP3 ADD MLOAD DUP2 PUSH1 0x1 ADD PUSH1 0x0 PUSH2 0x100 EXP DUP2 SLOAD DUP2 PUSH20 0xFFFFFFFFFFFFFFFFFFFFFFFFFFFFFFFFFFFFFFFF MUL NOT AND SWAP1 DUP4 PUSH20 0xFFFFFFFFFFFFFFFFFFFFFFFFFFFFFFFFFFFFFFFF AND MUL OR SWAP1 SSTORE POP PUSH1 0x40 DUP3 ADD MLOAD DUP2 PUSH1 0x1 ADD PUSH1 0x14 PUSH2 0x100 EXP DUP2 SLOAD DUP2 PUSH1 0xFF MUL NOT AND SWAP1 DUP4 ISZERO ISZERO MUL OR SWAP1 SSTORE POP SWAP1 POP POP PUSH1 0x8 CALLER SWAP1 DUP1 PUSH1 0x1 DUP2 SLOAD ADD DUP1 DUP3 SSTORE DUP1 SWAP2 POP POP PUSH1 0x1 SWAP1 SUB SWAP1 PUSH1 0x0 MSTORE PUSH1 0x20 PUSH1 0x0 KECCAK256 ADD PUSH1 0x0 SWAP1 SWAP2 SWAP1 SWAP2 SWAP1 SWAP2 PUSH2 0x100 EXP DUP2 SLOAD DUP2 PUSH20 0xFFFFFFFFFFFFFFFFFFFFFFFFFFFFFFFFFFFFFFFF MUL NOT AND SWAP1 DUP4 PUSH20 0xFFFFFFFFFFFFFFFFFFFFFFFFFFFFFFFFFFFFFFFF AND MUL OR SWAP1 SSTORE POP POP JUMP JUMPDEST PUSH1 0x8 DUP2 DUP2 SLOAD DUP2 LT PUSH2 0x623 JUMPI PUSH1 0x0 DUP1 REVERT JUMPDEST SWAP1 PUSH1 0x0 MSTORE PUSH1 0x20 PUSH1 0x0 KECCAK256 ADD PUSH1 0x0 SWAP2 POP SLOAD SWAP1 PUSH2 0x100 EXP SWAP1 DIV PUSH20 0xFFFFFFFFFFFFFFFFFFFFFFFFFFFFFFFFFFFFFFFF AND DUP2 JUMP JUMPDEST PUSH1 0x0 DUP1 SLOAD SWAP1 PUSH2 0x100 EXP SWAP1 DIV PUSH20 0xFFFFFFFFFFFFFFFFFFFFFFFFFFFFFFFFFFFFFFFF AND DUP2 JUMP JUMPDEST PUSH1 0x6 PUSH1 0x0 SWAP1 SLOAD SWAP1 PUSH2 0x100 EXP SWAP1 DIV PUSH20 0xFFFFFFFFFFFFFFFFFFFFFFFFFFFFFFFFFFFFFFFF AND DUP2 JUMP JUMPDEST PUSH1 0x0 PUSH1 0x60 DUP1 PUSH1 0x60 DUP1 PUSH1 0x0 DUP1 PUSH1 0x60 PUSH1 0x0 DUP1 SLOAD SWAP1 PUSH2 0x100 EXP SWAP1 DIV PUSH20 0xFFFFFFFFFFFFFFFFFFFFFFFFFFFFFFFFFFFFFFFF AND PUSH1 0x2 PUSH1 0x3 PUSH1 0x4 PUSH1 0x1 PUSH1 0x6 PUSH1 0x0 SWAP1 SLOAD SWAP1 PUSH2 0x100 EXP SWAP1 DIV PUSH20 0xFFFFFFFFFFFFFFFFFFFFFFFFFFFFFFFFFFFFFFFF AND PUSH1 0x6 PUSH1 0x14 SWAP1 SLOAD SWAP1 PUSH2 0x100 EXP SWAP1 DIV PUSH1 0xFF AND PUSH1 0x8 DUP7 DUP1 SLOAD PUSH2 0x713 SWAP1 PUSH2 0x177C JUMP JUMPDEST DUP1 PUSH1 0x1F ADD PUSH1 0x20 DUP1 SWAP2 DIV MUL PUSH1 0x20 ADD PUSH1 0x40 MLOAD SWAP1 DUP2 ADD PUSH1 0x40 MSTORE DUP1 SWAP3 SWAP2 SWAP1 DUP2 DUP2 MSTORE PUSH1 0x20 ADD DUP3 DUP1 SLOAD PUSH2 0x73F SWAP1 PUSH2 0x177C JUMP JUMPDEST DUP1 ISZERO PUSH2 0x78C JUMPI DUP1 PUSH1 0x1F LT PUSH2 0x761 JUMPI PUSH2 0x100 DUP1 DUP4 SLOAD DIV MUL DUP4 MSTORE SWAP2 PUSH1 0x20 ADD SWAP2 PUSH2 0x78C JUMP JUMPDEST DUP3 ADD SWAP2 SWAP1 PUSH1 0x0 MSTORE PUSH1 0x20 PUSH1 0x0 KECCAK256 SWAP1 JUMPDEST DUP2 SLOAD DUP2 MSTORE SWAP1 PUSH1 0x1 ADD SWAP1 PUSH1 0x20 ADD DUP1 DUP4 GT PUSH2 0x76F JUMPI DUP3 SWAP1 SUB PUSH1 0x1F AND DUP3 ADD SWAP2 JUMPDEST POP POP POP POP POP SWAP7 POP DUP6 DUP1 SLOAD DUP1 PUSH1 0x20 MUL PUSH1 0x20 ADD PUSH1 0x40 MLOAD SWAP1 DUP2 ADD PUSH1 0x40 MSTORE DUP1 SWAP3 SWAP2 SWAP1 DUP2 DUP2 MSTORE PUSH1 0x20 ADD PUSH1 0x0 SWAP1 JUMPDEST DUP3 DUP3 LT ISZERO PUSH2 0x860 JUMPI DUP4 DUP3 SWAP1 PUSH1 0x0 MSTORE PUSH1 0x20 PUSH1 0x0 KECCAK256 ADD DUP1 SLOAD PUSH2 0x7D3 SWAP1 PUSH2 0x177C JUMP JUMPDEST DUP1 PUSH1 0x1F ADD PUSH1 0x20 DUP1 SWAP2 DIV MUL PUSH1 0x20 ADD PUSH1 0x40 MLOAD SWAP1 DUP2 ADD PUSH1 0x40 MSTORE DUP1 SWAP3 SWAP2 SWAP1 DUP2 DUP2 MSTORE PUSH1 0x20 ADD DUP3 DUP1 SLOAD PUSH2 0x7FF SWAP1 PUSH2 0x177C JUMP JUMPDEST DUP1 ISZERO PUSH2 0x84C JUMPI DUP1 PUSH1 0x1F LT PUSH2 0x821 JUMPI PUSH2 0x100 DUP1 DUP4 SLOAD DIV MUL DUP4 MSTORE SWAP2 PUSH1 0x20 ADD SWAP2 PUSH2 0x84C JUMP JUMPDEST DUP3 ADD SWAP2 SWAP1 PUSH1 0x0 MSTORE PUSH1 0x20 PUSH1 0x0 KECCAK256 SWAP1 JUMPDEST DUP2 SLOAD DUP2 MSTORE SWAP1 PUSH1 0x1 ADD SWAP1 PUSH1 0x20 ADD DUP1 DUP4 GT PUSH2 0x82F JUMPI DUP3 SWAP1 SUB PUSH1 0x1F AND DUP3 ADD SWAP2 JUMPDEST POP POP POP POP POP DUP2 MSTORE PUSH1 0x20 ADD SWAP1 PUSH1 0x1 ADD SWAP1 PUSH2 0x7B4 JUMP JUMPDEST POP POP POP POP SWAP6 POP DUP5 DUP1 SLOAD PUSH2 0x872 SWAP1 PUSH2 0x177C JUMP JUMPDEST DUP1 PUSH1 0x1F ADD PUSH1 0x20 DUP1 SWAP2 DIV MUL PUSH1 0x20 ADD PUSH1 0x40 MLOAD SWAP1 DUP2 ADD PUSH1 0x40 MSTORE DUP1 SWAP3 SWAP2 SWAP1 DUP2 DUP2 MSTORE PUSH1 0x20 ADD DUP3 DUP1 SLOAD PUSH2 0x89E SWAP1 PUSH2 0x177C JUMP JUMPDEST DUP1 ISZERO PUSH2 0x8EB JUMPI DUP1 PUSH1 0x1F LT PUSH2 0x8C0 JUMPI PUSH2 0x100 DUP1 DUP4 SLOAD DIV MUL DUP4 MSTORE SWAP2 PUSH1 0x20 ADD SWAP2 PUSH2 0x8EB JUMP JUMPDEST DUP3 ADD SWAP2 SWAP1 PUSH1 0x0 MSTORE PUSH1 0x20 PUSH1 0x0 KECCAK256 SWAP1 JUMPDEST DUP2 SLOAD DUP2 MSTORE SWAP1 PUSH1 0x1 ADD SWAP1 PUSH1 0x20 ADD DUP1 DUP4 GT PUSH2 0x8CE JUMPI DUP3 SWAP1 SUB PUSH1 0x1F AND DUP3 ADD SWAP2 JUMPDEST POP POP POP POP POP SWAP5 POP DUP4 DUP1 SLOAD PUSH2 0x8FE SWAP1 PUSH2 0x177C JUMP JUMPDEST DUP1 PUSH1 0x1F ADD PUSH1 0x20 DUP1 SWAP2 DIV MUL PUSH1 0x20 ADD PUSH1 0x40 MLOAD SWAP1 DUP2 ADD PUSH1 0x40 MSTORE DUP1 SWAP3 SWAP2 SWAP1 DUP2 DUP2 MSTORE PUSH1 0x20 ADD DUP3 DUP1 SLOAD PUSH2 0x92A SWAP1 PUSH2 0x177C JUMP JUMPDEST DUP1 ISZERO PUSH2 0x977 JUMPI DUP1 PUSH1 0x1F LT PUSH2 0x94C JUMPI PUSH2 0x100 DUP1 DUP4 SLOAD DIV MUL DUP4 MSTORE SWAP2 PUSH1 0x20 ADD SWAP2 PUSH2 0x977 JUMP JUMPDEST DUP3 ADD SWAP2 SWAP1 PUSH1 0x0 MSTORE PUSH1 0x20 PUSH1 0x0 KECCAK256 SWAP1 JUMPDEST DUP2 SLOAD DUP2 MSTORE SWAP1 PUSH1 0x1 ADD SWAP1 PUSH1 0x20 ADD DUP1 DUP4 GT PUSH2 0x95A JUMPI DUP3 SWAP1 SUB PUSH1 0x1F AND DUP3 ADD SWAP2 JUMPDEST POP POP POP POP POP SWAP4 POP DUP1 DUP1 SLOAD DUP1 PUSH1 0x20 MUL PUSH1 0x20 ADD PUSH1 0x40 MLOAD SWAP1 DUP2 ADD PUSH1 0x40 MSTORE DUP1 SWAP3 SWAP2 SWAP1 DUP2 DUP2 MSTORE PUSH1 0x20 ADD DUP3 DUP1 SLOAD DUP1 ISZERO PUSH2 0x9FF JUMPI PUSH1 0x20 MUL DUP3 ADD SWAP2 SWAP1 PUSH1 0x0 MSTORE PUSH1 0x20 PUSH1 0x0 KECCAK256 SWAP1 JUMPDEST DUP2 PUSH1 0x0 SWAP1 SLOAD SWAP1 PUSH2 0x100 EXP SWAP1 DIV PUSH20 0xFFFFFFFFFFFFFFFFFFFFFFFFFFFFFFFFFFFFFFFF AND PUSH20 0xFFFFFFFFFFFFFFFFFFFFFFFFFFFFFFFFFFFFFFFF AND DUP2 MSTORE PUSH1 0x20 ADD SWAP1 PUSH1 0x1 ADD SWAP1 DUP1 DUP4 GT PUSH2 0x9B5 JUMPI JUMPDEST POP POP POP POP POP SWAP1 POP SWAP8 POP SWAP8 POP SWAP8 POP SWAP8 POP SWAP8 POP SWAP8 POP SWAP8 POP SWAP8 POP SWAP1 SWAP2 SWAP3 SWAP4 SWAP5 SWAP6 SWAP7 SWAP8 JUMP JUMPDEST PUSH1 0x60 PUSH1 0x5 DUP1 SLOAD DUP1 PUSH1 0x20 MUL PUSH1 0x20 ADD PUSH1 0x40 MLOAD SWAP1 DUP2 ADD PUSH1 0x40 MSTORE DUP1 SWAP3 SWAP2 SWAP1 DUP2 DUP2 MSTORE PUSH1 0x20 ADD PUSH1 0x0 SWAP1 JUMPDEST DUP3 DUP3 LT ISZERO PUSH2 0xAF0 JUMPI DUP4 DUP3 SWAP1 PUSH1 0x0 MSTORE PUSH1 0x20 PUSH1 0x0 KECCAK256 ADD DUP1 SLOAD PUSH2 0xA63 SWAP1 PUSH2 0x177C JUMP JUMPDEST DUP1 PUSH1 0x1F ADD PUSH1 0x20 DUP1 SWAP2 DIV MUL PUSH1 0x20 ADD PUSH1 0x40 MLOAD SWAP1 DUP2 ADD PUSH1 0x40 MSTORE DUP1 SWAP3 SWAP2 SWAP1 DUP2 DUP2 MSTORE PUSH1 0x20 ADD DUP3 DUP1 SLOAD PUSH2 0xA8F SWAP1 PUSH2 0x177C JUMP JUMPDEST DUP1 ISZERO PUSH2 0xADC JUMPI DUP1 PUSH1 0x1F LT PUSH2 0xAB1 JUMPI PUSH2 0x100 DUP1 DUP4 SLOAD DIV MUL DUP4 MSTORE SWAP2 PUSH1 0x20 ADD SWAP2 PUSH2 0xADC JUMP JUMPDEST DUP3 ADD SWAP2 SWAP1 PUSH1 0x0 MSTORE PUSH1 0x20 PUSH1 0x0 KECCAK256 SWAP1 JUMPDEST DUP2 SLOAD DUP2 MSTORE SWAP1 PUSH1 0x1 ADD SWAP1 PUSH1 0x20 ADD DUP1 DUP4 GT PUSH2 0xABF JUMPI DUP3 SWAP1 SUB PUSH1 0x1F AND DUP3 ADD SWAP2 JUMPDEST POP POP POP POP POP DUP2 MSTORE PUSH1 0x20 ADD SWAP1 PUSH1 0x1 ADD SWAP1 PUSH2 0xA44 JUMP JUMPDEST POP POP POP POP SWAP1 POP SWAP1 JUMP JUMPDEST PUSH1 0x0 DUP1 SLOAD SWAP1 PUSH2 0x100 EXP SWAP1 DIV PUSH20 0xFFFFFFFFFFFFFFFFFFFFFFFFFFFFFFFFFFFFFFFF AND PUSH20 0xFFFFFFFFFFFFFFFFFFFFFFFFFFFFFFFFFFFFFFFF AND CALLER PUSH20 0xFFFFFFFFFFFFFFFFFFFFFFFFFFFFFFFFFFFFFFFF AND EQ PUSH2 0xB51 JUMPI PUSH1 0x0 DUP1 REVERT JUMPDEST PUSH1 0x7 PUSH1 0x0 DUP3 PUSH20 0xFFFFFFFFFFFFFFFFFFFFFFFFFFFFFFFFFFFFFFFF AND PUSH20 0xFFFFFFFFFFFFFFFFFFFFFFFFFFFFFFFFFFFFFFFF AND DUP2 MSTORE PUSH1 0x20 ADD SWAP1 DUP2 MSTORE PUSH1 0x20 ADD PUSH1 0x0 KECCAK256 PUSH1 0x1 ADD PUSH1 0x14 SWAP1 SLOAD SWAP1 PUSH2 0x100 EXP SWAP1 DIV PUSH1 0xFF AND PUSH2 0xBAA JUMPI PUSH1 0x0 DUP1 REVERT JUMPDEST DUP1 PUSH1 0x6 PUSH1 0x0 PUSH2 0x100 EXP DUP2 SLOAD DUP2 PUSH20 0xFFFFFFFFFFFFFFFFFFFFFFFFFFFFFFFFFFFFFFFF MUL NOT AND SWAP1 DUP4 PUSH20 0xFFFFFFFFFFFFFFFFFFFFFFFFFFFFFFFFFFFFFFFF AND MUL OR SWAP1 SSTORE POP POP JUMP JUMPDEST PUSH1 0x3 DUP2 DUP2 SLOAD DUP2 LT PUSH2 0xBFE JUMPI PUSH1 0x0 DUP1 REVERT JUMPDEST SWAP1 PUSH1 0x0 MSTORE PUSH1 0x20 PUSH1 0x0 KECCAK256 ADD PUSH1 0x0 SWAP2 POP SWAP1 POP DUP1 SLOAD PUSH2 0xC19 SWAP1 PUSH2 0x177C JUMP JUMPDEST DUP1 PUSH1 0x1F ADD PUSH1 0x20 DUP1 SWAP2 DIV MUL PUSH1 0x20 ADD PUSH1 0x40 MLOAD SWAP1 DUP2 ADD PUSH1 0x40 MSTORE DUP1 SWAP3 SWAP2 SWAP1 DUP2 DUP2 MSTORE PUSH1 0x20 ADD DUP3 DUP1 SLOAD PUSH2 0xC45 SWAP1 PUSH2 0x177C JUMP JUMPDEST DUP1 ISZERO PUSH2 0xC92 JUMPI DUP1 PUSH1 0x1F LT PUSH2 0xC67 JUMPI PUSH2 0x100 DUP1 DUP4 SLOAD DIV MUL DUP4 MSTORE SWAP2 PUSH1 0x20 ADD SWAP2 PUSH2 0xC92 JUMP JUMPDEST DUP3 ADD SWAP2 SWAP1 PUSH1 0x0 MSTORE PUSH1 0x20 PUSH1 0x0 KECCAK256 SWAP1 JUMPDEST DUP2 SLOAD DUP2 MSTORE SWAP1 PUSH1 0x1 ADD SWAP1 PUSH1 0x20 ADD DUP1 DUP4 GT PUSH2 0xC75 JUMPI DUP3 SWAP1 SUB PUSH1 0x1F AND DUP3 ADD SWAP2 JUMPDEST POP POP POP POP POP DUP2 JUMP JUMPDEST PUSH1 0x7 PUSH1 0x20 MSTORE DUP1 PUSH1 0x0 MSTORE PUSH1 0x40 PUSH1 0x0 KECCAK256 PUSH1 0x0 SWAP2 POP SWAP1 POP DUP1 PUSH1 0x0 ADD DUP1 SLOAD PUSH2 0xCBD SWAP1 PUSH2 0x177C JUMP JUMPDEST DUP1 PUSH1 0x1F ADD PUSH1 0x20 DUP1 SWAP2 DIV MUL PUSH1 0x20 ADD PUSH1 0x40 MLOAD SWAP1 DUP2 ADD PUSH1 0x40 MSTORE DUP1 SWAP3 SWAP2 SWAP1 DUP2 DUP2 MSTORE PUSH1 0x20 ADD DUP3 DUP1 SLOAD PUSH2 0xCE9 SWAP1 PUSH2 0x177C JUMP JUMPDEST DUP1 ISZERO PUSH2 0xD36 JUMPI DUP1 PUSH1 0x1F LT PUSH2 0xD0B JUMPI PUSH2 0x100 DUP1 DUP4 SLOAD DIV MUL DUP4 MSTORE SWAP2 PUSH1 0x20 ADD SWAP2 PUSH2 0xD36 JUMP JUMPDEST DUP3 ADD SWAP2 SWAP1 PUSH1 0x0 MSTORE PUSH1 0x20 PUSH1 0x0 KECCAK256 SWAP1 JUMPDEST DUP2 SLOAD DUP2 MSTORE SWAP1 PUSH1 0x1 ADD SWAP1 PUSH1 0x20 ADD DUP1 DUP4 GT PUSH2 0xD19 JUMPI DUP3 SWAP1 SUB PUSH1 0x1F AND DUP3 ADD SWAP2 JUMPDEST POP POP POP POP POP SWAP1 DUP1 PUSH1 0x1 ADD PUSH1 0x0 SWAP1 SLOAD SWAP1 PUSH2 0x100 EXP SWAP1 DIV PUSH20 0xFFFFFFFFFFFFFFFFFFFFFFFFFFFFFFFFFFFFFFFF AND SWAP1 DUP1 PUSH1 0x1 ADD PUSH1 0x14 SWAP1 SLOAD SWAP1 PUSH2 0x100 EXP SWAP1 DIV PUSH1 0xFF AND SWAP1 POP DUP4 JUMP JUMPDEST PUSH1 0x0 DUP1 SLOAD SWAP1 PUSH2 0x100 EXP SWAP1 DIV PUSH20 0xFFFFFFFFFFFFFFFFFFFFFFFFFFFFFFFFFFFFFFFF AND PUSH20 0xFFFFFFFFFFFFFFFFFFFFFFFFFFFFFFFFFFFFFFFF AND CALLER PUSH20 0xFFFFFFFFFFFFFFFFFFFFFFFFFFFFFFFFFFFFFFFF AND EQ PUSH2 0xDD1 JUMPI PUSH1 0x0 DUP1 REVERT JUMPDEST PUSH1 0x6 PUSH1 0x0 SWAP1 SLOAD SWAP1 PUSH2 0x100 EXP SWAP1 DIV PUSH20 0xFFFFFFFFFFFFFFFFFFFFFFFFFFFFFFFFFFFFFFFF AND PUSH20 0xFFFFFFFFFFFFFFFFFFFFFFFFFFFFFFFFFFFFFFFF AND PUSH2 0x8FC SELFBALANCE SWAP1 DUP2 ISZERO MUL SWAP1 PUSH1 0x40 MLOAD PUSH1 0x0 PUSH1 0x40 MLOAD DUP1 DUP4 SUB DUP2 DUP6 DUP9 DUP9 CALL SWAP4 POP POP POP POP ISZERO DUP1 ISZERO PUSH2 0xE39 JUMPI RETURNDATASIZE PUSH1 0x0 DUP1 RETURNDATACOPY RETURNDATASIZE PUSH1 0x0 REVERT JUMPDEST POP PUSH1 0x1 PUSH1 0x6 PUSH1 0x14 PUSH2 0x100 EXP DUP2 SLOAD DUP2 PUSH1 0xFF MUL NOT AND SWAP1 DUP4 ISZERO ISZERO MUL OR SWAP1 SSTORE POP JUMP JUMPDEST PUSH1 0x5 DUP2 DUP2 SLOAD DUP2 LT PUSH2 0xE67 JUMPI PUSH1 0x0 DUP1 REVERT JUMPDEST SWAP1 PUSH1 0x0 MSTORE PUSH1 0x20 PUSH1 0x0 KECCAK256 ADD PUSH1 0x0 SWAP2 POP SWAP1 POP DUP1 SLOAD PUSH2 0xE82 SWAP1 PUSH2 0x177C JUMP JUMPDEST DUP1 PUSH1 0x1F ADD PUSH1 0x20 DUP1 SWAP2 DIV MUL PUSH1 0x20 ADD PUSH1 0x40 MLOAD SWAP1 DUP2 ADD PUSH1 0x40 MSTORE DUP1 SWAP3 SWAP2 SWAP1 DUP2 DUP2 MSTORE PUSH1 0x20 ADD DUP3 DUP1 SLOAD PUSH2 0xEAE SWAP1 PUSH2 0x177C JUMP JUMPDEST DUP1 ISZERO PUSH2 0xEFB JUMPI DUP1 PUSH1 0x1F LT PUSH2 0xED0 JUMPI PUSH2 0x100 DUP1 DUP4 SLOAD DIV MUL DUP4 MSTORE SWAP2 PUSH1 0x20 ADD SWAP2 PUSH2 0xEFB JUMP JUMPDEST DUP3 ADD SWAP2 SWAP1 PUSH1 0x0 MSTORE PUSH1 0x20 PUSH1 0x0 KECCAK256 SWAP1 JUMPDEST DUP2 SLOAD DUP2 MSTORE SWAP1 PUSH1 0x1 ADD SWAP1 PUSH1 0x20 ADD DUP1 DUP4 GT PUSH2 0xEDE JUMPI DUP3 SWAP1 SUB PUSH1 0x1F AND DUP3 ADD SWAP2 JUMPDEST POP POP POP POP POP DUP2 JUMP JUMPDEST PUSH1 0x1 DUP1 SLOAD PUSH2 0xF10 SWAP1 PUSH2 0x177C JUMP JUMPDEST DUP1 PUSH1 0x1F ADD PUSH1 0x20 DUP1 SWAP2 DIV MUL PUSH1 0x20 ADD PUSH1 0x40 MLOAD SWAP1 DUP2 ADD PUSH1 0x40 MSTORE DUP1 SWAP3 SWAP2 SWAP1 DUP2 DUP2 MSTORE PUSH1 0x20 ADD DUP3 DUP1 SLOAD PUSH2 0xF3C SWAP1 PUSH2 0x177C JUMP JUMPDEST DUP1 ISZERO PUSH2 0xF89 JUMPI DUP1 PUSH1 0x1F LT PUSH2 0xF5E JUMPI PUSH2 0x100 DUP1 DUP4 SLOAD DIV MUL DUP4 MSTORE SWAP2 PUSH1 0x20 ADD SWAP2 PUSH2 0xF89 JUMP JUMPDEST DUP3 ADD SWAP2 SWAP1 PUSH1 0x0 MSTORE PUSH1 0x20 PUSH1 0x0 KECCAK256 SWAP1 JUMPDEST DUP2 SLOAD DUP2 MSTORE SWAP1 PUSH1 0x1 ADD SWAP1 PUSH1 0x20 ADD DUP1 DUP4 GT PUSH2 0xF6C JUMPI DUP3 SWAP1 SUB PUSH1 0x1F AND DUP3 ADD SWAP2 JUMPDEST POP POP POP POP POP DUP2 JUMP JUMPDEST PUSH1 0x6 PUSH1 0x14 SWAP1 SLOAD SWAP1 PUSH2 0x100 EXP SWAP1 DIV PUSH1 0xFF AND DUP2 JUMP JUMPDEST PUSH1 0x4 DUP1 SLOAD PUSH2 0xFB1 SWAP1 PUSH2 0x177C JUMP JUMPDEST DUP1 PUSH1 0x1F ADD PUSH1 0x20 DUP1 SWAP2 DIV MUL PUSH1 0x20 ADD PUSH1 0x40 MLOAD SWAP1 DUP2 ADD PUSH1 0x40 MSTORE DUP1 SWAP3 SWAP2 SWAP1 DUP2 DUP2 MSTORE PUSH1 0x20 ADD DUP3 DUP1 SLOAD PUSH2 0xFDD SWAP1 PUSH2 0x177C JUMP JUMPDEST DUP1 ISZERO PUSH2 0x102A JUMPI DUP1 PUSH1 0x1F LT PUSH2 0xFFF JUMPI PUSH2 0x100 DUP1 DUP4 SLOAD DIV MUL DUP4 MSTORE SWAP2 PUSH1 0x20 ADD SWAP2 PUSH2 0x102A JUMP JUMPDEST DUP3 ADD SWAP2 SWAP1 PUSH1 0x0 MSTORE PUSH1 0x20 PUSH1 0x0 KECCAK256 SWAP1 JUMPDEST DUP2 SLOAD DUP2 MSTORE SWAP1 PUSH1 0x1 ADD SWAP1 PUSH1 0x20 ADD DUP1 DUP4 GT PUSH2 0x100D JUMPI DUP3 SWAP1 SUB PUSH1 0x1F AND DUP3 ADD SWAP2 JUMPDEST POP POP POP POP POP DUP2 JUMP JUMPDEST DUP3 DUP1 SLOAD PUSH2 0x103E SWAP1 PUSH2 0x177C JUMP JUMPDEST SWAP1 PUSH1 0x0 MSTORE PUSH1 0x20 PUSH1 0x0 KECCAK256 SWAP1 PUSH1 0x1F ADD PUSH1 0x20 SWAP1 DIV DUP2 ADD SWAP3 DUP3 PUSH2 0x1060 JUMPI PUSH1 0x0 DUP6 SSTORE PUSH2 0x10A7 JUMP JUMPDEST DUP3 PUSH1 0x1F LT PUSH2 0x1079 JUMPI DUP1 MLOAD PUSH1 0xFF NOT AND DUP4 DUP1 ADD OR DUP6 SSTORE PUSH2 0x10A7 JUMP JUMPDEST DUP3 DUP1 ADD PUSH1 0x1 ADD DUP6 SSTORE DUP3 ISZERO PUSH2 0x10A7 JUMPI SWAP2 DUP3 ADD JUMPDEST DUP3 DUP2 GT ISZERO PUSH2 0x10A6 JUMPI DUP3 MLOAD DUP3 SSTORE SWAP2 PUSH1 0x20 ADD SWAP2 SWAP1 PUSH1 0x1 ADD SWAP1 PUSH2 0x108B JUMP JUMPDEST JUMPDEST POP SWAP1 POP PUSH2 0x10B4 SWAP2 SWAP1 PUSH2 0x10B8 JUMP JUMPDEST POP SWAP1 JUMP JUMPDEST JUMPDEST DUP1 DUP3 GT ISZERO PUSH2 0x10D1 JUMPI PUSH1 0x0 DUP2 PUSH1 0x0 SWAP1 SSTORE POP PUSH1 0x1 ADD PUSH2 0x10B9 JUMP JUMPDEST POP SWAP1 JUMP JUMPDEST PUSH1 0x0 DUP2 MLOAD SWAP1 POP SWAP2 SWAP1 POP JUMP JUMPDEST PUSH1 0x0 DUP3 DUP3 MSTORE PUSH1 0x20 DUP3 ADD SWAP1 POP SWAP3 SWAP2 POP POP JUMP JUMPDEST PUSH1 0x0 JUMPDEST DUP4 DUP2 LT ISZERO PUSH2 0x110F JUMPI DUP1 DUP3 ADD MLOAD DUP2 DUP5 ADD MSTORE PUSH1 0x20 DUP2 ADD SWAP1 POP PUSH2 0x10F4 JUMP JUMPDEST DUP4 DUP2 GT ISZERO PUSH2 0x111E JUMPI PUSH1 0x0 DUP5 DUP5 ADD MSTORE JUMPDEST POP POP POP POP JUMP JUMPDEST PUSH1 0x0 PUSH1 0x1F NOT PUSH1 0x1F DUP4 ADD AND SWAP1 POP SWAP2 SWAP1 POP JUMP JUMPDEST PUSH1 0x0 PUSH2 0x1140 DUP3 PUSH2 0x10D5 JUMP JUMPDEST PUSH2 0x114A DUP2 DUP6 PUSH2 0x10E0 JUMP JUMPDEST SWAP4 POP PUSH2 0x115A DUP2 DUP6 PUSH1 0x20 DUP7 ADD PUSH2 0x10F1 JUMP JUMPDEST PUSH2 0x1163 DUP2 PUSH2 0x1124 JUMP JUMPDEST DUP5 ADD SWAP2 POP POP SWAP3 SWAP2 POP POP JUMP JUMPDEST PUSH1 0x0 PUSH1 0x20 DUP3 ADD SWAP1 POP DUP2 DUP2 SUB PUSH1 0x0 DUP4 ADD MSTORE PUSH2 0x1188 DUP2 DUP5 PUSH2 0x1135 JUMP JUMPDEST SWAP1 POP SWAP3 SWAP2 POP POP JUMP JUMPDEST PUSH1 0x0 PUSH1 0x40 MLOAD SWAP1 POP SWAP1 JUMP JUMPDEST PUSH1 0x0 DUP1 REVERT JUMPDEST PUSH1 0x0 DUP1 REVERT JUMPDEST PUSH1 0x0 DUP1 REVERT JUMPDEST PUSH1 0x0 DUP1 REVERT JUMPDEST PUSH32 0x4E487B7100000000000000000000000000000000000000000000000000000000 PUSH1 0x0 MSTORE PUSH1 0x41 PUSH1 0x4 MSTORE PUSH1 0x24 PUSH1 0x0 REVERT JUMPDEST PUSH2 0x11E6 DUP3 PUSH2 0x1124 JUMP JUMPDEST DUP2 ADD DUP2 DUP2 LT PUSH8 0xFFFFFFFFFFFFFFFF DUP3 GT OR ISZERO PUSH2 0x1205 JUMPI PUSH2 0x1204 PUSH2 0x11AE JUMP JUMPDEST JUMPDEST DUP1 PUSH1 0x40 MSTORE POP POP POP JUMP JUMPDEST PUSH1 0x0 PUSH2 0x1218 PUSH2 0x1190 JUMP JUMPDEST SWAP1 POP PUSH2 0x1224 DUP3 DUP3 PUSH2 0x11DD JUMP JUMPDEST SWAP2 SWAP1 POP JUMP JUMPDEST PUSH1 0x0 PUSH8 0xFFFFFFFFFFFFFFFF DUP3 GT ISZERO PUSH2 0x1244 JUMPI PUSH2 0x1243 PUSH2 0x11AE JUMP JUMPDEST JUMPDEST PUSH2 0x124D DUP3 PUSH2 0x1124 JUMP JUMPDEST SWAP1 POP PUSH1 0x20 DUP2 ADD SWAP1 POP SWAP2 SWAP1 POP JUMP JUMPDEST DUP3 DUP2 DUP4 CALLDATACOPY PUSH1 0x0 DUP4 DUP4 ADD MSTORE POP POP POP JUMP JUMPDEST PUSH1 0x0 PUSH2 0x127C PUSH2 0x1277 DUP5 PUSH2 0x1229 JUMP JUMPDEST PUSH2 0x120E JUMP JUMPDEST SWAP1 POP DUP3 DUP2 MSTORE PUSH1 0x20 DUP2 ADD DUP5 DUP5 DUP5 ADD GT ISZERO PUSH2 0x1298 JUMPI PUSH2 0x1297 PUSH2 0x11A9 JUMP JUMPDEST JUMPDEST PUSH2 0x12A3 DUP5 DUP3 DUP6 PUSH2 0x125A JUMP JUMPDEST POP SWAP4 SWAP3 POP POP POP JUMP JUMPDEST PUSH1 0x0 DUP3 PUSH1 0x1F DUP4 ADD SLT PUSH2 0x12C0 JUMPI PUSH2 0x12BF PUSH2 0x11A4 JUMP JUMPDEST JUMPDEST DUP2 CALLDATALOAD PUSH2 0x12D0 DUP5 DUP3 PUSH1 0x20 DUP7 ADD PUSH2 0x1269 JUMP JUMPDEST SWAP2 POP POP SWAP3 SWAP2 POP POP JUMP JUMPDEST PUSH1 0x0 PUSH1 0x20 DUP3 DUP5 SUB SLT ISZERO PUSH2 0x12EF JUMPI PUSH2 0x12EE PUSH2 0x119A JUMP JUMPDEST JUMPDEST PUSH1 0x0 DUP3 ADD CALLDATALOAD PUSH8 0xFFFFFFFFFFFFFFFF DUP2 GT ISZERO PUSH2 0x130D JUMPI PUSH2 0x130C PUSH2 0x119F JUMP JUMPDEST JUMPDEST PUSH2 0x1319 DUP5 DUP3 DUP6 ADD PUSH2 0x12AB JUMP JUMPDEST SWAP2 POP POP SWAP3 SWAP2 POP POP JUMP JUMPDEST PUSH1 0x0 DUP2 SWAP1 POP SWAP2 SWAP1 POP JUMP JUMPDEST PUSH2 0x1335 DUP2 PUSH2 0x1322 JUMP JUMPDEST DUP2 EQ PUSH2 0x1340 JUMPI PUSH1 0x0 DUP1 REVERT JUMPDEST POP JUMP JUMPDEST PUSH1 0x0 DUP2 CALLDATALOAD SWAP1 POP PUSH2 0x1352 DUP2 PUSH2 0x132C JUMP JUMPDEST SWAP3 SWAP2 POP POP JUMP JUMPDEST PUSH1 0x0 PUSH1 0x20 DUP3 DUP5 SUB SLT ISZERO PUSH2 0x136E JUMPI PUSH2 0x136D PUSH2 0x119A JUMP JUMPDEST JUMPDEST PUSH1 0x0 PUSH2 0x137C DUP5 DUP3 DUP6 ADD PUSH2 0x1343 JUMP JUMPDEST SWAP2 POP POP SWAP3 SWAP2 POP POP JUMP JUMPDEST PUSH1 0x0 PUSH20 0xFFFFFFFFFFFFFFFFFFFFFFFFFFFFFFFFFFFFFFFF DUP3 AND SWAP1 POP SWAP2 SWAP1 POP JUMP JUMPDEST PUSH1 0x0 PUSH2 0x13B0 DUP3 PUSH2 0x1385 JUMP JUMPDEST SWAP1 POP SWAP2 SWAP1 POP JUMP JUMPDEST PUSH2 0x13C0 DUP2 PUSH2 0x13A5 JUMP JUMPDEST DUP3 MSTORE POP POP JUMP JUMPDEST PUSH1 0x0 PUSH1 0x20 DUP3 ADD SWAP1 POP PUSH2 0x13DB PUSH1 0x0 DUP4 ADD DUP5 PUSH2 0x13B7 JUMP JUMPDEST SWAP3 SWAP2 POP POP JUMP JUMPDEST PUSH1 0x0 DUP2 MLOAD SWAP1 POP SWAP2 SWAP1 POP JUMP JUMPDEST PUSH1 0x0 DUP3 DUP3 MSTORE PUSH1 0x20 DUP3 ADD SWAP1 POP SWAP3 SWAP2 POP POP JUMP JUMPDEST PUSH1 0x0 DUP2 SWAP1 POP PUSH1 0x20 DUP3 ADD SWAP1 POP SWAP2 SWAP1 POP JUMP JUMPDEST PUSH1 0x0 DUP3 DUP3 MSTORE PUSH1 0x20 DUP3 ADD SWAP1 POP SWAP3 SWAP2 POP POP JUMP JUMPDEST PUSH1 0x0 PUSH2 0x1429 DUP3 PUSH2 0x10D5 JUMP JUMPDEST PUSH2 0x1433 DUP2 DUP6 PUSH2 0x140D JUMP JUMPDEST SWAP4 POP PUSH2 0x1443 DUP2 DUP6 PUSH1 0x20 DUP7 ADD PUSH2 0x10F1 JUMP JUMPDEST PUSH2 0x144C DUP2 PUSH2 0x1124 JUMP JUMPDEST DUP5 ADD SWAP2 POP POP SWAP3 SWAP2 POP POP JUMP JUMPDEST PUSH1 0x0 PUSH2 0x1463 DUP4 DUP4 PUSH2 0x141E JUMP JUMPDEST SWAP1 POP SWAP3 SWAP2 POP POP JUMP JUMPDEST PUSH1 0x0 PUSH1 0x20 DUP3 ADD SWAP1 POP SWAP2 SWAP1 POP JUMP JUMPDEST PUSH1 0x0 PUSH2 0x1483 DUP3 PUSH2 0x13E1 JUMP JUMPDEST PUSH2 0x148D DUP2 DUP6 PUSH2 0x13EC JUMP JUMPDEST SWAP4 POP DUP4 PUSH1 0x20 DUP3 MUL DUP6 ADD PUSH2 0x149F DUP6 PUSH2 0x13FD JUMP JUMPDEST DUP1 PUSH1 0x0 JUMPDEST DUP6 DUP2 LT ISZERO PUSH2 0x14DB JUMPI DUP5 DUP5 SUB DUP10 MSTORE DUP2 MLOAD PUSH2 0x14BC DUP6 DUP3 PUSH2 0x1457 JUMP JUMPDEST SWAP5 POP PUSH2 0x14C7 DUP4 PUSH2 0x146B JUMP JUMPDEST SWAP3 POP PUSH1 0x20 DUP11 ADD SWAP10 POP POP PUSH1 0x1 DUP2 ADD SWAP1 POP PUSH2 0x14A3 JUMP JUMPDEST POP DUP3 SWAP8 POP DUP8 SWAP6 POP POP POP POP POP POP SWAP3 SWAP2 POP POP JUMP JUMPDEST PUSH1 0x0 DUP2 ISZERO ISZERO SWAP1 POP SWAP2 SWAP1 POP JUMP JUMPDEST PUSH2 0x1502 DUP2 PUSH2 0x14ED JUMP JUMPDEST DUP3 MSTORE POP POP JUMP JUMPDEST PUSH1 0x0 DUP2 MLOAD SWAP1 POP SWAP2 SWAP1 POP JUMP JUMPDEST PUSH1 0x0 DUP3 DUP3 MSTORE PUSH1 0x20 DUP3 ADD SWAP1 POP SWAP3 SWAP2 POP POP JUMP JUMPDEST PUSH1 0x0 DUP2 SWAP1 POP PUSH1 0x20 DUP3 ADD SWAP1 POP SWAP2 SWAP1 POP JUMP JUMPDEST PUSH2 0x153D DUP2 PUSH2 0x13A5 JUMP JUMPDEST DUP3 MSTORE POP POP JUMP JUMPDEST PUSH1 0x0 PUSH2 0x154F DUP4 DUP4 PUSH2 0x1534 JUMP JUMPDEST PUSH1 0x20 DUP4 ADD SWAP1 POP SWAP3 SWAP2 POP POP JUMP JUMPDEST PUSH1 0x0 PUSH1 0x20 DUP3 ADD SWAP1 POP SWAP2 SWAP1 POP JUMP JUMPDEST PUSH1 0x0 PUSH2 0x1573 DUP3 PUSH2 0x1508 JUMP JUMPDEST PUSH2 0x157D DUP2 DUP6 PUSH2 0x1513 JUMP JUMPDEST SWAP4 POP PUSH2 0x1588 DUP4 PUSH2 0x1524 JUMP JUMPDEST DUP1 PUSH1 0x0 JUMPDEST DUP4 DUP2 LT ISZERO PUSH2 0x15B9 JUMPI DUP2 MLOAD PUSH2 0x15A0 DUP9 DUP3 PUSH2 0x1543 JUMP JUMPDEST SWAP8 POP PUSH2 0x15AB DUP4 PUSH2 0x155B JUMP JUMPDEST SWAP3 POP POP PUSH1 0x1 DUP2 ADD SWAP1 POP PUSH2 0x158C JUMP JUMPDEST POP DUP6 SWAP4 POP POP POP POP SWAP3 SWAP2 POP POP JUMP JUMPDEST PUSH1 0x0 PUSH2 0x100 DUP3 ADD SWAP1 POP PUSH2 0x15DC PUSH1 0x0 DUP4 ADD DUP12 PUSH2 0x13B7 JUMP JUMPDEST DUP2 DUP2 SUB PUSH1 0x20 DUP4 ADD MSTORE PUSH2 0x15EE DUP2 DUP11 PUSH2 0x1135 JUMP JUMPDEST SWAP1 POP DUP2 DUP2 SUB PUSH1 0x40 DUP4 ADD MSTORE PUSH2 0x1602 DUP2 DUP10 PUSH2 0x1478 JUMP JUMPDEST SWAP1 POP DUP2 DUP2 SUB PUSH1 0x60 DUP4 ADD MSTORE PUSH2 0x1616 DUP2 DUP9 PUSH2 0x1135 JUMP JUMPDEST SWAP1 POP DUP2 DUP2 SUB PUSH1 0x80 DUP4 ADD MSTORE PUSH2 0x162A DUP2 DUP8 PUSH2 0x1135 JUMP JUMPDEST SWAP1 POP PUSH2 0x1639 PUSH1 0xA0 DUP4 ADD DUP7 PUSH2 0x13B7 JUMP JUMPDEST PUSH2 0x1646 PUSH1 0xC0 DUP4 ADD DUP6 PUSH2 0x14F9 JUMP JUMPDEST DUP2 DUP2 SUB PUSH1 0xE0 DUP4 ADD MSTORE PUSH2 0x1658 DUP2 DUP5 PUSH2 0x1568 JUMP JUMPDEST SWAP1 POP SWAP10 SWAP9 POP POP POP POP POP POP POP POP POP JUMP JUMPDEST PUSH1 0x0 PUSH1 0x20 DUP3 ADD SWAP1 POP DUP2 DUP2 SUB PUSH1 0x0 DUP4 ADD MSTORE PUSH2 0x1681 DUP2 DUP5 PUSH2 0x1478 JUMP JUMPDEST SWAP1 POP SWAP3 SWAP2 POP POP JUMP JUMPDEST PUSH1 0x0 PUSH2 0x1694 DUP3 PUSH2 0x1385 JUMP JUMPDEST SWAP1 POP SWAP2 SWAP1 POP JUMP JUMPDEST PUSH2 0x16A4 DUP2 PUSH2 0x1689 JUMP JUMPDEST DUP2 EQ PUSH2 0x16AF JUMPI PUSH1 0x0 DUP1 REVERT JUMPDEST POP JUMP JUMPDEST PUSH1 0x0 DUP2 CALLDATALOAD SWAP1 POP PUSH2 0x16C1 DUP2 PUSH2 0x169B JUMP JUMPDEST SWAP3 SWAP2 POP POP JUMP JUMPDEST PUSH1 0x0 PUSH1 0x20 DUP3 DUP5 SUB SLT ISZERO PUSH2 0x16DD JUMPI PUSH2 0x16DC PUSH2 0x119A JUMP JUMPDEST JUMPDEST PUSH1 0x0 PUSH2 0x16EB DUP5 DUP3 DUP6 ADD PUSH2 0x16B2 JUMP JUMPDEST SWAP2 POP POP SWAP3 SWAP2 POP POP JUMP JUMPDEST PUSH1 0x0 PUSH1 0x60 DUP3 ADD SWAP1 POP DUP2 DUP2 SUB PUSH1 0x0 DUP4 ADD MSTORE PUSH2 0x170E DUP2 DUP7 PUSH2 0x1135 JUMP JUMPDEST SWAP1 POP PUSH2 0x171D PUSH1 0x20 DUP4 ADD DUP6 PUSH2 0x13B7 JUMP JUMPDEST PUSH2 0x172A PUSH1 0x40 DUP4 ADD DUP5 PUSH2 0x14F9 JUMP JUMPDEST SWAP5 SWAP4 POP POP POP POP JUMP JUMPDEST PUSH1 0x0 PUSH1 0x20 DUP3 ADD SWAP1 POP PUSH2 0x1747 PUSH1 0x0 DUP4 ADD DUP5 PUSH2 0x14F9 JUMP JUMPDEST SWAP3 SWAP2 POP POP JUMP JUMPDEST PUSH32 0x4E487B7100000000000000000000000000000000000000000000000000000000 PUSH1 0x0 MSTORE PUSH1 0x22 PUSH1 0x4 MSTORE PUSH1 0x24 PUSH1 0x0 REVERT JUMPDEST PUSH1 0x0 PUSH1 0x2 DUP3 DIV SWAP1 POP PUSH1 0x1 DUP3 AND DUP1 PUSH2 0x1794 JUMPI PUSH1 0x7F DUP3 AND SWAP2 POP JUMPDEST PUSH1 0x20 DUP3 LT DUP2 SUB PUSH2 0x17A7 JUMPI PUSH2 0x17A6 PUSH2 0x174D JUMP JUMPDEST JUMPDEST POP SWAP2 SWAP1 POP JUMP INVALID LOG2 PUSH5 0x6970667358 0x22 SLT KECCAK256 SWAP2 OR 0xD0 0xCC 0xA9 0x23 0xD9 0x1F 0x27 0xCD 0xCB 0xAB SIGNEXTEND 0xA8 0xA7 CALLER ORIGIN 0xDA 0xCD MUL 0xEA PUSH7 0xCB0AC9D97F08F6 0xCB PUSH1 0xC2 PUSH5 0x736F6C6343 STOP ADDMOD 0xE STOP CALLER LOG2 PUSH5 0x6970667358 0x22 SLT KECCAK256 SWAP13 EQ 0x21 PUSH24 0x16E59867B69CBCEB4156A185FC16776ED5EDBDFF8B6EEF6C 0xB7 0xA5 DUP7 PUSH23 0x64736F6C634300080E0033000000000000000000000000 "},"gasEstimates":{"creation":{"codeDepositCost":"2122400","executionCost":"2258","totalCost":"2124658"},"external":{"allTasks(uint256)":"4934","createTask(string,string,string,string[],string[])":"infinite","getAllTasks()":"infinite"}},"methodIdentifiers":{"allTasks(uint256)":"3f90b454","createTask(string,string,string,string[],string[])":"d01d4764","getAllTasks()":"779900b4"}},"storageLayout":{"storage":[{"astId":13,"contract":"Task.sol:TaskFactory","label":"allTasks","offset":0,"slot":"0","type":"t_array(t_address)dyn_storage"}],"types":{"t_address":{"encoding":"inplace","label":"address","numberOfBytes":"20"},"t_array(t_address)dyn_storage":{"base":"t_address","encoding":"dynamic_array","label":"address[]","numberOfBytes":"32"}}},"userdoc":{"kind":"user","methods":{},"version":1}}