{"abi":[{"inputs":[{"internalType":"string","name":"header","type":"string"},{"internalType":"string","name":"description","type":"string"},{"internalType":"string","name":"sphere","type":"string"},{"internalType":"string[]","name":"files","type":"string[]"},{"internalType":"string[]","name":"hashtags","type":"string[]"},{"internalType":"address","name":"newManager","type":"address"},{"internalType":"uint256","name":"timestamp","type":"uint256"}],"stateMutability":"payable","type":"constructor"},{"inputs":[{"internalType":"string","name":"description","type":"string"}],"name":"creaetRequest","outputs":[],"stateMutability":"nonpayable","type":"function"},{"inputs":[],"name":"finalizeTask","outputs":[],"stateMutability":"nonpayable","type":"function"},{"inputs":[],"name":"getHashtags","outputs":[{"internalType":"string[]","name":"","type":"string[]"}],"stateMutability":"view","type":"function"},{"inputs":[],"name":"getInfo","outputs":[{"internalType":"address payable","name":"","type":"address"},{"internalType":"string","name":"","type":"string"},{"internalType":"string[]","name":"","type":"string[]"},{"internalType":"string","name":"","type":"string"},{"internalType":"string","name":"","type":"string"},{"internalType":"address payable","name":"","type":"address"},{"internalType":"bool","name":"","type":"bool"},{"internalType":"address payable[]","name":"","type":"address[]"}],"stateMutability":"view","type":"function"},{"inputs":[],"name":"isCompleted","outputs":[{"internalType":"bool","name":"","type":"bool"}],"stateMutability":"view","type":"function"},{"inputs":[],"name":"killTask","outputs":[],"stateMutability":"nonpayable","type":"function"},{"inputs":[],"name":"manager","outputs":[{"internalType":"address payable","name":"","type":"address"}],"stateMutability":"view","type":"function"},{"inputs":[{"internalType":"address","name":"","type":"address"}],"name":"requests","outputs":[{"internalType":"string","name":"description","type":"string"},{"internalType":"address payable","name":"author","type":"address"},{"internalType":"bool","name":"exist","type":"bool"}],"stateMutability":"view","type":"function"},{"inputs":[{"internalType":"uint256","name":"","type":"uint256"}],"name":"requestsKeys","outputs":[{"internalType":"address payable","name":"","type":"address"}],"stateMutability":"view","type":"function"},{"inputs":[{"internalType":"address","name":"newWorker","type":"address"}],"name":"startTask","outputs":[],"stateMutability":"nonpayable","type":"function"},{"inputs":[],"name":"taskDescription","outputs":[{"internalType":"string","name":"","type":"string"}],"stateMutability":"view","type":"function"},{"inputs":[{"internalType":"uint256","name":"","type":"uint256"}],"name":"taskFiles","outputs":[{"internalType":"string","name":"","type":"string"}],"stateMutability":"view","type":"function"},{"inputs":[{"internalType":"uint256","name":"","type":"uint256"}],"name":"taskHashtags","outputs":[{"internalType":"string","name":"","type":"string"}],"stateMutability":"view","type":"function"},{"inputs":[],"name":"taskName","outputs":[{"internalType":"string","name":"","type":"string"}],"stateMutability":"view","type":"function"},{"inputs":[],"name":"taskSphere","outputs":[{"internalType":"string","name":"","type":"string"}],"stateMutability":"view","type":"function"},{"inputs":[],"name":"taskTimestamp","outputs":[{"internalType":"uint256","name":"","type":"uint256"}],"stateMutability":"view","type":"function"},{"inputs":[],"name":"worker","outputs":[{"internalType":"address payable","name":"","type":"address"}],"stateMutability":"view","type":"function"}],"devdoc":{"kind":"dev","methods":{},"version":1},"evm":{"assembly":"    /* \"Task.sol\":810:3293  contract Task {... */\n  mstore(0x40, 0x80)\n    /* \"Task.sol\":1376:1896  constructor(... */\n  mload(0x40)\n  sub(codesize, bytecodeSize)\n  dup1\n  bytecodeSize\n  dup4\n  codecopy\n  dup2\n  dup2\n  add\n  0x40\n  mstore\n  dup2\n  add\n  swap1\n  tag_1\n  swap2\n  swap1\n  tag_2\n  jump\t// in\ntag_1:\n    /* \"Task.sol\":1651:1661  newManager */\n  dup2\n    /* \"Task.sol\":1633:1640  manager */\n  0x00\n  dup1\n    /* \"Task.sol\":1633:1662  manager = payable(newManager) */\n  0x0100\n  exp\n  dup2\n  sload\n  dup2\n  0xffffffffffffffffffffffffffffffffffffffff\n  mul\n  not\n  and\n  swap1\n  dup4\n  0xffffffffffffffffffffffffffffffffffffffff\n  and\n  mul\n  or\n  swap1\n  sstore\n  pop\n    /* \"Task.sol\":1686:1692  sphere */\n  dup5\n    /* \"Task.sol\":1673:1683  taskSphere */\n  0x01\n    /* \"Task.sol\":1673:1692  taskSphere = sphere */\n  swap1\n  dup1\n  mload\n  swap1\n  0x20\n  add\n  swap1\n  tag_5\n  swap3\n  swap2\n  swap1\n  tag_6\n  jump\t// in\ntag_5:\n  pop\n    /* \"Task.sol\":1714:1720  header */\n  dup7\n    /* \"Task.sol\":1703:1711  taskName */\n  0x02\n    /* \"Task.sol\":1703:1720  taskName = header */\n  swap1\n  dup1\n  mload\n  swap1\n  0x20\n  add\n  swap1\n  tag_7\n  swap3\n  swap2\n  swap1\n  tag_6\n  jump\t// in\ntag_7:\n  pop\n    /* \"Task.sol\":1743:1748  files */\n  dup4\n    /* \"Task.sol\":1731:1740  taskFiles */\n  0x03\n    /* \"Task.sol\":1731:1748  taskFiles = files */\n  swap1\n  dup1\n  mload\n  swap1\n  0x20\n  add\n  swap1\n  tag_8\n  swap3\n  swap2\n  swap1\n  tag_9\n  jump\t// in\ntag_8:\n  pop\n    /* \"Task.sol\":1777:1788  description */\n  dup6\n    /* \"Task.sol\":1759:1774  taskDescription */\n  0x04\n    /* \"Task.sol\":1759:1788  taskDescription = description */\n  swap1\n  dup1\n  mload\n  swap1\n  0x20\n  add\n  swap1\n  tag_10\n  swap3\n  swap2\n  swap1\n  tag_6\n  jump\t// in\ntag_10:\n  pop\n    /* \"Task.sol\":1814:1822  hashtags */\n  dup3\n    /* \"Task.sol\":1799:1811  taskHashtags */\n  0x05\n    /* \"Task.sol\":1799:1822  taskHashtags = hashtags */\n  swap1\n  dup1\n  mload\n  swap1\n  0x20\n  add\n  swap1\n  tag_11\n  swap3\n  swap2\n  swap1\n  tag_9\n  jump\t// in\ntag_11:\n  pop\n    /* \"Task.sol\":1847:1852  false */\n  0x00\n    /* \"Task.sol\":1833:1844  isCompleted */\n  0x06\n  0x14\n    /* \"Task.sol\":1833:1852  isCompleted = false */\n  0x0100\n  exp\n  dup2\n  sload\n  dup2\n  0xff\n  mul\n  not\n  and\n  swap1\n  dup4\n  iszero\n  iszero\n  mul\n  or\n  swap1\n  sstore\n  pop\n    /* \"Task.sol\":1879:1888  timestamp */\n  dup1\n    /* \"Task.sol\":1863:1876  taskTimestamp */\n  0x09\n    /* \"Task.sol\":1863:1888  taskTimestamp = timestamp */\n  dup2\n  swap1\n  sstore\n  pop\n    /* \"Task.sol\":1376:1896  constructor(... */\n  pop\n  pop\n  pop\n  pop\n  pop\n  pop\n  pop\n    /* \"Task.sol\":810:3293  contract Task {... */\n  jump(tag_12)\ntag_6:\n  dup3\n  dup1\n  sload\n  tag_13\n  swap1\n  tag_14\n  jump\t// in\ntag_13:\n  swap1\n  0x00\n  mstore\n  keccak256(0x00, 0x20)\n  swap1\n  0x1f\n  add\n  0x20\n  swap1\n  div\n  dup2\n  add\n  swap3\n  dup3\n  tag_16\n  jumpi\n  0x00\n  dup6\n  sstore\n  jump(tag_15)\ntag_16:\n  dup3\n  0x1f\n  lt\n  tag_17\n  jumpi\n  dup1\n  mload\n  not(0xff)\n  and\n  dup4\n  dup1\n  add\n  or\n  dup6\n  sstore\n  jump(tag_15)\ntag_17:\n  dup3\n  dup1\n  add\n  0x01\n  add\n  dup6\n  sstore\n  dup3\n  iszero\n  tag_15\n  jumpi\n  swap2\n  dup3\n  add\ntag_18:\n  dup3\n  dup2\n  gt\n  iszero\n  tag_19\n  jumpi\n  dup3\n  mload\n  dup3\n  sstore\n  swap2\n  0x20\n  add\n  swap2\n  swap1\n  0x01\n  add\n  swap1\n  jump(tag_18)\ntag_19:\ntag_15:\n  pop\n  swap1\n  pop\n  tag_20\n  swap2\n  swap1\n  tag_21\n  jump\t// in\ntag_20:\n  pop\n  swap1\n  jump\t// out\ntag_9:\n  dup3\n  dup1\n  sload\n  dup3\n  dup3\n  sstore\n  swap1\n  0x00\n  mstore\n  keccak256(0x00, 0x20)\n  swap1\n  dup2\n  add\n  swap3\n  dup3\n  iszero\n  tag_22\n  jumpi\n  swap2\n  0x20\n  mul\n  dup3\n  add\ntag_23:\n  dup3\n  dup2\n  gt\n  iszero\n  tag_24\n  jumpi\n  dup3\n  mload\n  dup3\n  swap1\n  dup1\n  mload\n  swap1\n  0x20\n  add\n  swap1\n  tag_25\n  swap3\n  swap2\n  swap1\n  tag_6\n  jump\t// in\ntag_25:\n  pop\n  swap2\n  0x20\n  add\n  swap2\n  swap1\n  0x01\n  add\n  swap1\n  jump(tag_23)\ntag_24:\ntag_22:\n  pop\n  swap1\n  pop\n  tag_26\n  swap2\n  swap1\n  tag_27\n  jump\t// in\ntag_26:\n  pop\n  swap1\n  jump\t// out\ntag_21:\ntag_28:\n  dup1\n  dup3\n  gt\n  iszero\n  tag_29\n  jumpi\n  0x00\n  dup2\n  0x00\n  swap1\n  sstore\n  pop\n  0x01\n  add\n  jump(tag_28)\ntag_29:\n  pop\n  swap1\n  jump\t// out\ntag_27:\ntag_30:\n  dup1\n  dup3\n  gt\n  iszero\n  tag_31\n  jumpi\n  0x00\n  dup2\n  dup2\n  tag_32\n  swap2\n  swap1\n  tag_33\n  jump\t// in\ntag_32:\n  pop\n  0x01\n  add\n  jump(tag_30)\ntag_31:\n  pop\n  swap1\n  jump\t// out\ntag_33:\n  pop\n  dup1\n  sload\n  tag_34\n  swap1\n  tag_14\n  jump\t// in\ntag_34:\n  0x00\n  dup3\n  sstore\n  dup1\n  0x1f\n  lt\n  tag_36\n  jumpi\n  pop\n  jump(tag_35)\ntag_36:\n  0x1f\n  add\n  0x20\n  swap1\n  div\n  swap1\n  0x00\n  mstore\n  keccak256(0x00, 0x20)\n  swap1\n  dup2\n  add\n  swap1\n  tag_37\n  swap2\n  swap1\n  tag_21\n  jump\t// in\ntag_37:\ntag_35:\n  pop\n  jump\t// out\n    /* \"#utility.yul\":7:82   */\ntag_38:\n    /* \"#utility.yul\":40:46   */\n  0x00\n    /* \"#utility.yul\":73:75   */\n  0x40\n    /* \"#utility.yul\":67:76   */\n  mload\n    /* \"#utility.yul\":57:76   */\n  swap1\n  pop\n    /* \"#utility.yul\":7:82   */\n  swap1\n  jump\t// out\n    /* \"#utility.yul\":88:205   */\ntag_39:\n    /* \"#utility.yul\":197:198   */\n  0x00\n    /* \"#utility.yul\":194:195   */\n  dup1\n    /* \"#utility.yul\":187:199   */\n  revert\n    /* \"#utility.yul\":211:328   */\ntag_40:\n    /* \"#utility.yul\":320:321   */\n  0x00\n    /* \"#utility.yul\":317:318   */\n  dup1\n    /* \"#utility.yul\":310:322   */\n  revert\n    /* \"#utility.yul\":334:451   */\ntag_41:\n    /* \"#utility.yul\":443:444   */\n  0x00\n    /* \"#utility.yul\":440:441   */\n  dup1\n    /* \"#utility.yul\":433:445   */\n  revert\n    /* \"#utility.yul\":457:574   */\ntag_42:\n    /* \"#utility.yul\":566:567   */\n  0x00\n    /* \"#utility.yul\":563:564   */\n  dup1\n    /* \"#utility.yul\":556:568   */\n  revert\n    /* \"#utility.yul\":580:682   */\ntag_43:\n    /* \"#utility.yul\":621:627   */\n  0x00\n    /* \"#utility.yul\":672:674   */\n  0x1f\n    /* \"#utility.yul\":668:675   */\n  not\n    /* \"#utility.yul\":663:665   */\n  0x1f\n    /* \"#utility.yul\":656:661   */\n  dup4\n    /* \"#utility.yul\":652:666   */\n  add\n    /* \"#utility.yul\":648:676   */\n  and\n    /* \"#utility.yul\":638:676   */\n  swap1\n  pop\n    /* \"#utility.yul\":580:682   */\n  swap2\n  swap1\n  pop\n  jump\t// out\n    /* \"#utility.yul\":688:868   */\ntag_44:\n    /* \"#utility.yul\":736:813   */\n  0x4e487b7100000000000000000000000000000000000000000000000000000000\n    /* \"#utility.yul\":733:734   */\n  0x00\n    /* \"#utility.yul\":726:814   */\n  mstore\n    /* \"#utility.yul\":833:837   */\n  0x41\n    /* \"#utility.yul\":830:831   */\n  0x04\n    /* \"#utility.yul\":823:838   */\n  mstore\n    /* \"#utility.yul\":857:861   */\n  0x24\n    /* \"#utility.yul\":854:855   */\n  0x00\n    /* \"#utility.yul\":847:862   */\n  revert\n    /* \"#utility.yul\":874:1155   */\ntag_45:\n    /* \"#utility.yul\":957:984   */\n  tag_72\n    /* \"#utility.yul\":979:983   */\n  dup3\n    /* \"#utility.yul\":957:984   */\n  tag_43\n  jump\t// in\ntag_72:\n    /* \"#utility.yul\":949:955   */\n  dup2\n    /* \"#utility.yul\":945:985   */\n  add\n    /* \"#utility.yul\":1087:1093   */\n  dup2\n    /* \"#utility.yul\":1075:1085   */\n  dup2\n    /* \"#utility.yul\":1072:1094   */\n  lt\n    /* \"#utility.yul\":1051:1069   */\n  0xffffffffffffffff\n    /* \"#utility.yul\":1039:1049   */\n  dup3\n    /* \"#utility.yul\":1036:1070   */\n  gt\n    /* \"#utility.yul\":1033:1095   */\n  or\n    /* \"#utility.yul\":1030:1118   */\n  iszero\n  tag_73\n  jumpi\n    /* \"#utility.yul\":1098:1116   */\n  tag_74\n  tag_44\n  jump\t// in\ntag_74:\n    /* \"#utility.yul\":1030:1118   */\ntag_73:\n    /* \"#utility.yul\":1138:1148   */\n  dup1\n    /* \"#utility.yul\":1134:1136   */\n  0x40\n    /* \"#utility.yul\":1127:1149   */\n  mstore\n    /* \"#utility.yul\":917:1155   */\n  pop\n    /* \"#utility.yul\":874:1155   */\n  pop\n  pop\n  jump\t// out\n    /* \"#utility.yul\":1161:1290   */\ntag_46:\n    /* \"#utility.yul\":1195:1201   */\n  0x00\n    /* \"#utility.yul\":1222:1242   */\n  tag_76\n  tag_38\n  jump\t// in\ntag_76:\n    /* \"#utility.yul\":1212:1242   */\n  swap1\n  pop\n    /* \"#utility.yul\":1251:1284   */\n  tag_77\n    /* \"#utility.yul\":1279:1283   */\n  dup3\n    /* \"#utility.yul\":1271:1277   */\n  dup3\n    /* \"#utility.yul\":1251:1284   */\n  tag_45\n  jump\t// in\ntag_77:\n    /* \"#utility.yul\":1161:1290   */\n  swap2\n  swap1\n  pop\n  jump\t// out\n    /* \"#utility.yul\":1296:1604   */\ntag_47:\n    /* \"#utility.yul\":1358:1362   */\n  0x00\n    /* \"#utility.yul\":1448:1466   */\n  0xffffffffffffffff\n    /* \"#utility.yul\":1440:1446   */\n  dup3\n    /* \"#utility.yul\":1437:1467   */\n  gt\n    /* \"#utility.yul\":1434:1490   */\n  iszero\n  tag_79\n  jumpi\n    /* \"#utility.yul\":1470:1488   */\n  tag_80\n  tag_44\n  jump\t// in\ntag_80:\n    /* \"#utility.yul\":1434:1490   */\ntag_79:\n    /* \"#utility.yul\":1508:1537   */\n  tag_81\n    /* \"#utility.yul\":1530:1536   */\n  dup3\n    /* \"#utility.yul\":1508:1537   */\n  tag_43\n  jump\t// in\ntag_81:\n    /* \"#utility.yul\":1500:1537   */\n  swap1\n  pop\n    /* \"#utility.yul\":1592:1596   */\n  0x20\n    /* \"#utility.yul\":1586:1590   */\n  dup2\n    /* \"#utility.yul\":1582:1597   */\n  add\n    /* \"#utility.yul\":1574:1597   */\n  swap1\n  pop\n    /* \"#utility.yul\":1296:1604   */\n  swap2\n  swap1\n  pop\n  jump\t// out\n    /* \"#utility.yul\":1610:1917   */\ntag_48:\n    /* \"#utility.yul\":1678:1679   */\n  0x00\n    /* \"#utility.yul\":1688:1801   */\ntag_83:\n    /* \"#utility.yul\":1702:1708   */\n  dup4\n    /* \"#utility.yul\":1699:1700   */\n  dup2\n    /* \"#utility.yul\":1696:1709   */\n  lt\n    /* \"#utility.yul\":1688:1801   */\n  iszero\n  tag_85\n  jumpi\n    /* \"#utility.yul\":1787:1788   */\n  dup1\n    /* \"#utility.yul\":1782:1785   */\n  dup3\n    /* \"#utility.yul\":1778:1789   */\n  add\n    /* \"#utility.yul\":1772:1790   */\n  mload\n    /* \"#utility.yul\":1768:1769   */\n  dup2\n    /* \"#utility.yul\":1763:1766   */\n  dup5\n    /* \"#utility.yul\":1759:1770   */\n  add\n    /* \"#utility.yul\":1752:1791   */\n  mstore\n    /* \"#utility.yul\":1724:1726   */\n  0x20\n    /* \"#utility.yul\":1721:1722   */\n  dup2\n    /* \"#utility.yul\":1717:1727   */\n  add\n    /* \"#utility.yul\":1712:1727   */\n  swap1\n  pop\n    /* \"#utility.yul\":1688:1801   */\n  jump(tag_83)\ntag_85:\n    /* \"#utility.yul\":1819:1825   */\n  dup4\n    /* \"#utility.yul\":1816:1817   */\n  dup2\n    /* \"#utility.yul\":1813:1826   */\n  gt\n    /* \"#utility.yul\":1810:1911   */\n  iszero\n  tag_86\n  jumpi\n    /* \"#utility.yul\":1899:1900   */\n  0x00\n    /* \"#utility.yul\":1890:1896   */\n  dup5\n    /* \"#utility.yul\":1885:1888   */\n  dup5\n    /* \"#utility.yul\":1881:1897   */\n  add\n    /* \"#utility.yul\":1874:1901   */\n  mstore\n    /* \"#utility.yul\":1810:1911   */\ntag_86:\n    /* \"#utility.yul\":1659:1917   */\n  pop\n    /* \"#utility.yul\":1610:1917   */\n  pop\n  pop\n  pop\n  jump\t// out\n    /* \"#utility.yul\":1923:2344   */\ntag_49:\n    /* \"#utility.yul\":2012:2017   */\n  0x00\n    /* \"#utility.yul\":2037:2103   */\n  tag_88\n    /* \"#utility.yul\":2053:2102   */\n  tag_89\n    /* \"#utility.yul\":2095:2101   */\n  dup5\n    /* \"#utility.yul\":2053:2102   */\n  tag_47\n  jump\t// in\ntag_89:\n    /* \"#utility.yul\":2037:2103   */\n  tag_46\n  jump\t// in\ntag_88:\n    /* \"#utility.yul\":2028:2103   */\n  swap1\n  pop\n    /* \"#utility.yul\":2126:2132   */\n  dup3\n    /* \"#utility.yul\":2119:2124   */\n  dup2\n    /* \"#utility.yul\":2112:2133   */\n  mstore\n    /* \"#utility.yul\":2164:2168   */\n  0x20\n    /* \"#utility.yul\":2157:2162   */\n  dup2\n    /* \"#utility.yul\":2153:2169   */\n  add\n    /* \"#utility.yul\":2202:2205   */\n  dup5\n    /* \"#utility.yul\":2193:2199   */\n  dup5\n    /* \"#utility.yul\":2188:2191   */\n  dup5\n    /* \"#utility.yul\":2184:2200   */\n  add\n    /* \"#utility.yul\":2181:2206   */\n  gt\n    /* \"#utility.yul\":2178:2290   */\n  iszero\n  tag_90\n  jumpi\n    /* \"#utility.yul\":2209:2288   */\n  tag_91\n  tag_42\n  jump\t// in\ntag_91:\n    /* \"#utility.yul\":2178:2290   */\ntag_90:\n    /* \"#utility.yul\":2299:2338   */\n  tag_92\n    /* \"#utility.yul\":2331:2337   */\n  dup5\n    /* \"#utility.yul\":2326:2329   */\n  dup3\n    /* \"#utility.yul\":2321:2324   */\n  dup6\n    /* \"#utility.yul\":2299:2338   */\n  tag_48\n  jump\t// in\ntag_92:\n    /* \"#utility.yul\":2018:2344   */\n  pop\n    /* \"#utility.yul\":1923:2344   */\n  swap4\n  swap3\n  pop\n  pop\n  pop\n  jump\t// out\n    /* \"#utility.yul\":2364:2719   */\ntag_50:\n    /* \"#utility.yul\":2431:2436   */\n  0x00\n    /* \"#utility.yul\":2480:2483   */\n  dup3\n    /* \"#utility.yul\":2473:2477   */\n  0x1f\n    /* \"#utility.yul\":2465:2471   */\n  dup4\n    /* \"#utility.yul\":2461:2478   */\n  add\n    /* \"#utility.yul\":2457:2484   */\n  slt\n    /* \"#utility.yul\":2447:2569   */\n  tag_94\n  jumpi\n    /* \"#utility.yul\":2488:2567   */\n  tag_95\n  tag_41\n  jump\t// in\ntag_95:\n    /* \"#utility.yul\":2447:2569   */\ntag_94:\n    /* \"#utility.yul\":2598:2604   */\n  dup2\n    /* \"#utility.yul\":2592:2605   */\n  mload\n    /* \"#utility.yul\":2623:2713   */\n  tag_96\n    /* \"#utility.yul\":2709:2712   */\n  dup5\n    /* \"#utility.yul\":2701:2707   */\n  dup3\n    /* \"#utility.yul\":2694:2698   */\n  0x20\n    /* \"#utility.yul\":2686:2692   */\n  dup7\n    /* \"#utility.yul\":2682:2699   */\n  add\n    /* \"#utility.yul\":2623:2713   */\n  tag_49\n  jump\t// in\ntag_96:\n    /* \"#utility.yul\":2614:2713   */\n  swap2\n  pop\n    /* \"#utility.yul\":2437:2719   */\n  pop\n    /* \"#utility.yul\":2364:2719   */\n  swap3\n  swap2\n  pop\n  pop\n  jump\t// out\n    /* \"#utility.yul\":2725:3046   */\ntag_51:\n    /* \"#utility.yul\":2812:2816   */\n  0x00\n    /* \"#utility.yul\":2902:2920   */\n  0xffffffffffffffff\n    /* \"#utility.yul\":2894:2900   */\n  dup3\n    /* \"#utility.yul\":2891:2921   */\n  gt\n    /* \"#utility.yul\":2888:2944   */\n  iszero\n  tag_98\n  jumpi\n    /* \"#utility.yul\":2924:2942   */\n  tag_99\n  tag_44\n  jump\t// in\ntag_99:\n    /* \"#utility.yul\":2888:2944   */\ntag_98:\n    /* \"#utility.yul\":2974:2978   */\n  0x20\n    /* \"#utility.yul\":2966:2972   */\n  dup3\n    /* \"#utility.yul\":2962:2979   */\n  mul\n    /* \"#utility.yul\":2954:2979   */\n  swap1\n  pop\n    /* \"#utility.yul\":3034:3038   */\n  0x20\n    /* \"#utility.yul\":3028:3032   */\n  dup2\n    /* \"#utility.yul\":3024:3039   */\n  add\n    /* \"#utility.yul\":3016:3039   */\n  swap1\n  pop\n    /* \"#utility.yul\":2725:3046   */\n  swap2\n  swap1\n  pop\n  jump\t// out\n    /* \"#utility.yul\":3052:3169   */\ntag_52:\n    /* \"#utility.yul\":3161:3162   */\n  0x00\n    /* \"#utility.yul\":3158:3159   */\n  dup1\n    /* \"#utility.yul\":3151:3163   */\n  revert\n    /* \"#utility.yul\":3191:4151   */\ntag_53:\n    /* \"#utility.yul\":3308:3313   */\n  0x00\n    /* \"#utility.yul\":3333:3424   */\n  tag_102\n    /* \"#utility.yul\":3349:3423   */\n  tag_103\n    /* \"#utility.yul\":3416:3422   */\n  dup5\n    /* \"#utility.yul\":3349:3423   */\n  tag_51\n  jump\t// in\ntag_103:\n    /* \"#utility.yul\":3333:3424   */\n  tag_46\n  jump\t// in\ntag_102:\n    /* \"#utility.yul\":3324:3424   */\n  swap1\n  pop\n    /* \"#utility.yul\":3444:3449   */\n  dup1\n    /* \"#utility.yul\":3473:3479   */\n  dup4\n    /* \"#utility.yul\":3466:3471   */\n  dup3\n    /* \"#utility.yul\":3459:3480   */\n  mstore\n    /* \"#utility.yul\":3507:3511   */\n  0x20\n    /* \"#utility.yul\":3500:3505   */\n  dup3\n    /* \"#utility.yul\":3496:3512   */\n  add\n    /* \"#utility.yul\":3489:3512   */\n  swap1\n  pop\n    /* \"#utility.yul\":3560:3564   */\n  0x20\n    /* \"#utility.yul\":3552:3558   */\n  dup5\n    /* \"#utility.yul\":3548:3565   */\n  mul\n    /* \"#utility.yul\":3540:3546   */\n  dup4\n    /* \"#utility.yul\":3536:3566   */\n  add\n    /* \"#utility.yul\":3589:3592   */\n  dup6\n    /* \"#utility.yul\":3581:3587   */\n  dup2\n    /* \"#utility.yul\":3578:3593   */\n  gt\n    /* \"#utility.yul\":3575:3697   */\n  iszero\n  tag_104\n  jumpi\n    /* \"#utility.yul\":3608:3687   */\n  tag_105\n  tag_52\n  jump\t// in\ntag_105:\n    /* \"#utility.yul\":3575:3697   */\ntag_104:\n    /* \"#utility.yul\":3723:3729   */\n  dup4\n    /* \"#utility.yul\":3706:4145   */\ntag_106:\n    /* \"#utility.yul\":3740:3746   */\n  dup2\n    /* \"#utility.yul\":3735:3738   */\n  dup2\n    /* \"#utility.yul\":3732:3747   */\n  lt\n    /* \"#utility.yul\":3706:4145   */\n  iszero\n  tag_108\n  jumpi\n    /* \"#utility.yul\":3822:3825   */\n  dup1\n    /* \"#utility.yul\":3816:3826   */\n  mload\n    /* \"#utility.yul\":3858:3876   */\n  0xffffffffffffffff\n    /* \"#utility.yul\":3845:3856   */\n  dup2\n    /* \"#utility.yul\":3842:3877   */\n  gt\n    /* \"#utility.yul\":3839:3961   */\n  iszero\n  tag_109\n  jumpi\n    /* \"#utility.yul\":3880:3959   */\n  tag_110\n  tag_41\n  jump\t// in\ntag_110:\n    /* \"#utility.yul\":3839:3961   */\ntag_109:\n    /* \"#utility.yul\":4004:4015   */\n  dup1\n    /* \"#utility.yul\":3996:4002   */\n  dup7\n    /* \"#utility.yul\":3992:4016   */\n  add\n    /* \"#utility.yul\":4042:4100   */\n  tag_111\n    /* \"#utility.yul\":4096:4099   */\n  dup10\n    /* \"#utility.yul\":4084:4094   */\n  dup3\n    /* \"#utility.yul\":4042:4100   */\n  tag_50\n  jump\t// in\ntag_111:\n    /* \"#utility.yul\":4037:4040   */\n  dup6\n    /* \"#utility.yul\":4030:4101   */\n  mstore\n    /* \"#utility.yul\":4130:4134   */\n  0x20\n    /* \"#utility.yul\":4125:4128   */\n  dup6\n    /* \"#utility.yul\":4121:4135   */\n  add\n    /* \"#utility.yul\":4114:4135   */\n  swap5\n  pop\n    /* \"#utility.yul\":3782:4145   */\n  pop\n  pop\n    /* \"#utility.yul\":3766:3770   */\n  0x20\n    /* \"#utility.yul\":3761:3764   */\n  dup2\n    /* \"#utility.yul\":3757:3771   */\n  add\n    /* \"#utility.yul\":3750:3771   */\n  swap1\n  pop\n    /* \"#utility.yul\":3706:4145   */\n  jump(tag_106)\ntag_108:\n    /* \"#utility.yul\":3710:3731   */\n  pop\n    /* \"#utility.yul\":3314:4151   */\n  pop\n  pop\n    /* \"#utility.yul\":3191:4151   */\n  swap4\n  swap3\n  pop\n  pop\n  pop\n  jump\t// out\n    /* \"#utility.yul\":4173:4578   */\ntag_54:\n    /* \"#utility.yul\":4265:4270   */\n  0x00\n    /* \"#utility.yul\":4314:4317   */\n  dup3\n    /* \"#utility.yul\":4307:4311   */\n  0x1f\n    /* \"#utility.yul\":4299:4305   */\n  dup4\n    /* \"#utility.yul\":4295:4312   */\n  add\n    /* \"#utility.yul\":4291:4318   */\n  slt\n    /* \"#utility.yul\":4281:4403   */\n  tag_113\n  jumpi\n    /* \"#utility.yul\":4322:4401   */\n  tag_114\n  tag_41\n  jump\t// in\ntag_114:\n    /* \"#utility.yul\":4281:4403   */\ntag_113:\n    /* \"#utility.yul\":4432:4438   */\n  dup2\n    /* \"#utility.yul\":4426:4439   */\n  mload\n    /* \"#utility.yul\":4457:4572   */\n  tag_115\n    /* \"#utility.yul\":4568:4571   */\n  dup5\n    /* \"#utility.yul\":4560:4566   */\n  dup3\n    /* \"#utility.yul\":4553:4557   */\n  0x20\n    /* \"#utility.yul\":4545:4551   */\n  dup7\n    /* \"#utility.yul\":4541:4558   */\n  add\n    /* \"#utility.yul\":4457:4572   */\n  tag_53\n  jump\t// in\ntag_115:\n    /* \"#utility.yul\":4448:4572   */\n  swap2\n  pop\n    /* \"#utility.yul\":4271:4578   */\n  pop\n    /* \"#utility.yul\":4173:4578   */\n  swap3\n  swap2\n  pop\n  pop\n  jump\t// out\n    /* \"#utility.yul\":4584:4710   */\ntag_55:\n    /* \"#utility.yul\":4621:4628   */\n  0x00\n    /* \"#utility.yul\":4661:4703   */\n  0xffffffffffffffffffffffffffffffffffffffff\n    /* \"#utility.yul\":4654:4659   */\n  dup3\n    /* \"#utility.yul\":4650:4704   */\n  and\n    /* \"#utility.yul\":4639:4704   */\n  swap1\n  pop\n    /* \"#utility.yul\":4584:4710   */\n  swap2\n  swap1\n  pop\n  jump\t// out\n    /* \"#utility.yul\":4716:4812   */\ntag_56:\n    /* \"#utility.yul\":4753:4760   */\n  0x00\n    /* \"#utility.yul\":4782:4806   */\n  tag_118\n    /* \"#utility.yul\":4800:4805   */\n  dup3\n    /* \"#utility.yul\":4782:4806   */\n  tag_55\n  jump\t// in\ntag_118:\n    /* \"#utility.yul\":4771:4806   */\n  swap1\n  pop\n    /* \"#utility.yul\":4716:4812   */\n  swap2\n  swap1\n  pop\n  jump\t// out\n    /* \"#utility.yul\":4818:4940   */\ntag_57:\n    /* \"#utility.yul\":4891:4915   */\n  tag_120\n    /* \"#utility.yul\":4909:4914   */\n  dup2\n    /* \"#utility.yul\":4891:4915   */\n  tag_56\n  jump\t// in\ntag_120:\n    /* \"#utility.yul\":4884:4889   */\n  dup2\n    /* \"#utility.yul\":4881:4916   */\n  eq\n    /* \"#utility.yul\":4871:4934   */\n  tag_121\n  jumpi\n    /* \"#utility.yul\":4930:4931   */\n  0x00\n    /* \"#utility.yul\":4927:4928   */\n  dup1\n    /* \"#utility.yul\":4920:4932   */\n  revert\n    /* \"#utility.yul\":4871:4934   */\ntag_121:\n    /* \"#utility.yul\":4818:4940   */\n  pop\n  jump\t// out\n    /* \"#utility.yul\":4946:5089   */\ntag_58:\n    /* \"#utility.yul\":5003:5008   */\n  0x00\n    /* \"#utility.yul\":5034:5040   */\n  dup2\n    /* \"#utility.yul\":5028:5041   */\n  mload\n    /* \"#utility.yul\":5019:5041   */\n  swap1\n  pop\n    /* \"#utility.yul\":5050:5083   */\n  tag_123\n    /* \"#utility.yul\":5077:5082   */\n  dup2\n    /* \"#utility.yul\":5050:5083   */\n  tag_57\n  jump\t// in\ntag_123:\n    /* \"#utility.yul\":4946:5089   */\n  swap3\n  swap2\n  pop\n  pop\n  jump\t// out\n    /* \"#utility.yul\":5095:5172   */\ntag_59:\n    /* \"#utility.yul\":5132:5139   */\n  0x00\n    /* \"#utility.yul\":5161:5166   */\n  dup2\n    /* \"#utility.yul\":5150:5166   */\n  swap1\n  pop\n    /* \"#utility.yul\":5095:5172   */\n  swap2\n  swap1\n  pop\n  jump\t// out\n    /* \"#utility.yul\":5178:5300   */\ntag_60:\n    /* \"#utility.yul\":5251:5275   */\n  tag_126\n    /* \"#utility.yul\":5269:5274   */\n  dup2\n    /* \"#utility.yul\":5251:5275   */\n  tag_59\n  jump\t// in\ntag_126:\n    /* \"#utility.yul\":5244:5249   */\n  dup2\n    /* \"#utility.yul\":5241:5276   */\n  eq\n    /* \"#utility.yul\":5231:5294   */\n  tag_127\n  jumpi\n    /* \"#utility.yul\":5290:5291   */\n  0x00\n    /* \"#utility.yul\":5287:5288   */\n  dup1\n    /* \"#utility.yul\":5280:5292   */\n  revert\n    /* \"#utility.yul\":5231:5294   */\ntag_127:\n    /* \"#utility.yul\":5178:5300   */\n  pop\n  jump\t// out\n    /* \"#utility.yul\":5306:5449   */\ntag_61:\n    /* \"#utility.yul\":5363:5368   */\n  0x00\n    /* \"#utility.yul\":5394:5400   */\n  dup2\n    /* \"#utility.yul\":5388:5401   */\n  mload\n    /* \"#utility.yul\":5379:5401   */\n  swap1\n  pop\n    /* \"#utility.yul\":5410:5443   */\n  tag_129\n    /* \"#utility.yul\":5437:5442   */\n  dup2\n    /* \"#utility.yul\":5410:5443   */\n  tag_60\n  jump\t// in\ntag_129:\n    /* \"#utility.yul\":5306:5449   */\n  swap3\n  swap2\n  pop\n  pop\n  jump\t// out\n    /* \"#utility.yul\":5455:7711   */\ntag_2:\n    /* \"#utility.yul\":5679:5685   */\n  0x00\n    /* \"#utility.yul\":5687:5693   */\n  dup1\n    /* \"#utility.yul\":5695:5701   */\n  0x00\n    /* \"#utility.yul\":5703:5709   */\n  dup1\n    /* \"#utility.yul\":5711:5717   */\n  0x00\n    /* \"#utility.yul\":5719:5725   */\n  dup1\n    /* \"#utility.yul\":5727:5733   */\n  0x00\n    /* \"#utility.yul\":5776:5779   */\n  0xe0\n    /* \"#utility.yul\":5764:5773   */\n  dup9\n    /* \"#utility.yul\":5755:5762   */\n  dup11\n    /* \"#utility.yul\":5751:5774   */\n  sub\n    /* \"#utility.yul\":5747:5780   */\n  slt\n    /* \"#utility.yul\":5744:5864   */\n  iszero\n  tag_131\n  jumpi\n    /* \"#utility.yul\":5783:5862   */\n  tag_132\n  tag_39\n  jump\t// in\ntag_132:\n    /* \"#utility.yul\":5744:5864   */\ntag_131:\n    /* \"#utility.yul\":5924:5925   */\n  0x00\n    /* \"#utility.yul\":5913:5922   */\n  dup9\n    /* \"#utility.yul\":5909:5926   */\n  add\n    /* \"#utility.yul\":5903:5927   */\n  mload\n    /* \"#utility.yul\":5954:5972   */\n  0xffffffffffffffff\n    /* \"#utility.yul\":5946:5952   */\n  dup2\n    /* \"#utility.yul\":5943:5973   */\n  gt\n    /* \"#utility.yul\":5940:6057   */\n  iszero\n  tag_133\n  jumpi\n    /* \"#utility.yul\":5976:6055   */\n  tag_134\n  tag_40\n  jump\t// in\ntag_134:\n    /* \"#utility.yul\":5940:6057   */\ntag_133:\n    /* \"#utility.yul\":6081:6155   */\n  tag_135\n    /* \"#utility.yul\":6147:6154   */\n  dup11\n    /* \"#utility.yul\":6138:6144   */\n  dup3\n    /* \"#utility.yul\":6127:6136   */\n  dup12\n    /* \"#utility.yul\":6123:6145   */\n  add\n    /* \"#utility.yul\":6081:6155   */\n  tag_50\n  jump\t// in\ntag_135:\n    /* \"#utility.yul\":6071:6155   */\n  swap8\n  pop\n    /* \"#utility.yul\":5874:6165   */\n  pop\n    /* \"#utility.yul\":6225:6227   */\n  0x20\n    /* \"#utility.yul\":6214:6223   */\n  dup9\n    /* \"#utility.yul\":6210:6228   */\n  add\n    /* \"#utility.yul\":6204:6229   */\n  mload\n    /* \"#utility.yul\":6256:6274   */\n  0xffffffffffffffff\n    /* \"#utility.yul\":6248:6254   */\n  dup2\n    /* \"#utility.yul\":6245:6275   */\n  gt\n    /* \"#utility.yul\":6242:6359   */\n  iszero\n  tag_136\n  jumpi\n    /* \"#utility.yul\":6278:6357   */\n  tag_137\n  tag_40\n  jump\t// in\ntag_137:\n    /* \"#utility.yul\":6242:6359   */\ntag_136:\n    /* \"#utility.yul\":6383:6457   */\n  tag_138\n    /* \"#utility.yul\":6449:6456   */\n  dup11\n    /* \"#utility.yul\":6440:6446   */\n  dup3\n    /* \"#utility.yul\":6429:6438   */\n  dup12\n    /* \"#utility.yul\":6425:6447   */\n  add\n    /* \"#utility.yul\":6383:6457   */\n  tag_50\n  jump\t// in\ntag_138:\n    /* \"#utility.yul\":6373:6457   */\n  swap7\n  pop\n    /* \"#utility.yul\":6175:6467   */\n  pop\n    /* \"#utility.yul\":6527:6529   */\n  0x40\n    /* \"#utility.yul\":6516:6525   */\n  dup9\n    /* \"#utility.yul\":6512:6530   */\n  add\n    /* \"#utility.yul\":6506:6531   */\n  mload\n    /* \"#utility.yul\":6558:6576   */\n  0xffffffffffffffff\n    /* \"#utility.yul\":6550:6556   */\n  dup2\n    /* \"#utility.yul\":6547:6577   */\n  gt\n    /* \"#utility.yul\":6544:6661   */\n  iszero\n  tag_139\n  jumpi\n    /* \"#utility.yul\":6580:6659   */\n  tag_140\n  tag_40\n  jump\t// in\ntag_140:\n    /* \"#utility.yul\":6544:6661   */\ntag_139:\n    /* \"#utility.yul\":6685:6759   */\n  tag_141\n    /* \"#utility.yul\":6751:6758   */\n  dup11\n    /* \"#utility.yul\":6742:6748   */\n  dup3\n    /* \"#utility.yul\":6731:6740   */\n  dup12\n    /* \"#utility.yul\":6727:6749   */\n  add\n    /* \"#utility.yul\":6685:6759   */\n  tag_50\n  jump\t// in\ntag_141:\n    /* \"#utility.yul\":6675:6759   */\n  swap6\n  pop\n    /* \"#utility.yul\":6477:6769   */\n  pop\n    /* \"#utility.yul\":6829:6831   */\n  0x60\n    /* \"#utility.yul\":6818:6827   */\n  dup9\n    /* \"#utility.yul\":6814:6832   */\n  add\n    /* \"#utility.yul\":6808:6833   */\n  mload\n    /* \"#utility.yul\":6860:6878   */\n  0xffffffffffffffff\n    /* \"#utility.yul\":6852:6858   */\n  dup2\n    /* \"#utility.yul\":6849:6879   */\n  gt\n    /* \"#utility.yul\":6846:6963   */\n  iszero\n  tag_142\n  jumpi\n    /* \"#utility.yul\":6882:6961   */\n  tag_143\n  tag_40\n  jump\t// in\ntag_143:\n    /* \"#utility.yul\":6846:6963   */\ntag_142:\n    /* \"#utility.yul\":6987:7086   */\n  tag_144\n    /* \"#utility.yul\":7078:7085   */\n  dup11\n    /* \"#utility.yul\":7069:7075   */\n  dup3\n    /* \"#utility.yul\":7058:7067   */\n  dup12\n    /* \"#utility.yul\":7054:7076   */\n  add\n    /* \"#utility.yul\":6987:7086   */\n  tag_54\n  jump\t// in\ntag_144:\n    /* \"#utility.yul\":6977:7086   */\n  swap5\n  pop\n    /* \"#utility.yul\":6779:7096   */\n  pop\n    /* \"#utility.yul\":7156:7159   */\n  0x80\n    /* \"#utility.yul\":7145:7154   */\n  dup9\n    /* \"#utility.yul\":7141:7160   */\n  add\n    /* \"#utility.yul\":7135:7161   */\n  mload\n    /* \"#utility.yul\":7188:7206   */\n  0xffffffffffffffff\n    /* \"#utility.yul\":7180:7186   */\n  dup2\n    /* \"#utility.yul\":7177:7207   */\n  gt\n    /* \"#utility.yul\":7174:7291   */\n  iszero\n  tag_145\n  jumpi\n    /* \"#utility.yul\":7210:7289   */\n  tag_146\n  tag_40\n  jump\t// in\ntag_146:\n    /* \"#utility.yul\":7174:7291   */\ntag_145:\n    /* \"#utility.yul\":7315:7414   */\n  tag_147\n    /* \"#utility.yul\":7406:7413   */\n  dup11\n    /* \"#utility.yul\":7397:7403   */\n  dup3\n    /* \"#utility.yul\":7386:7395   */\n  dup12\n    /* \"#utility.yul\":7382:7404   */\n  add\n    /* \"#utility.yul\":7315:7414   */\n  tag_54\n  jump\t// in\ntag_147:\n    /* \"#utility.yul\":7305:7414   */\n  swap4\n  pop\n    /* \"#utility.yul\":7106:7424   */\n  pop\n    /* \"#utility.yul\":7463:7466   */\n  0xa0\n    /* \"#utility.yul\":7490:7554   */\n  tag_148\n    /* \"#utility.yul\":7546:7553   */\n  dup11\n    /* \"#utility.yul\":7537:7543   */\n  dup3\n    /* \"#utility.yul\":7526:7535   */\n  dup12\n    /* \"#utility.yul\":7522:7544   */\n  add\n    /* \"#utility.yul\":7490:7554   */\n  tag_58\n  jump\t// in\ntag_148:\n    /* \"#utility.yul\":7480:7554   */\n  swap3\n  pop\n    /* \"#utility.yul\":7434:7564   */\n  pop\n    /* \"#utility.yul\":7603:7606   */\n  0xc0\n    /* \"#utility.yul\":7630:7694   */\n  tag_149\n    /* \"#utility.yul\":7686:7693   */\n  dup11\n    /* \"#utility.yul\":7677:7683   */\n  dup3\n    /* \"#utility.yul\":7666:7675   */\n  dup12\n    /* \"#utility.yul\":7662:7684   */\n  add\n    /* \"#utility.yul\":7630:7694   */\n  tag_61\n  jump\t// in\ntag_149:\n    /* \"#utility.yul\":7620:7694   */\n  swap2\n  pop\n    /* \"#utility.yul\":7574:7704   */\n  pop\n    /* \"#utility.yul\":5455:7711   */\n  swap3\n  swap6\n  swap9\n  swap2\n  swap5\n  swap8\n  pop\n  swap3\n  swap6\n  pop\n  jump\t// out\n    /* \"#utility.yul\":7717:7897   */\ntag_62:\n    /* \"#utility.yul\":7765:7842   */\n  0x4e487b7100000000000000000000000000000000000000000000000000000000\n    /* \"#utility.yul\":7762:7763   */\n  0x00\n    /* \"#utility.yul\":7755:7843   */\n  mstore\n    /* \"#utility.yul\":7862:7866   */\n  0x22\n    /* \"#utility.yul\":7859:7860   */\n  0x04\n    /* \"#utility.yul\":7852:7867   */\n  mstore\n    /* \"#utility.yul\":7886:7890   */\n  0x24\n    /* \"#utility.yul\":7883:7884   */\n  0x00\n    /* \"#utility.yul\":7876:7891   */\n  revert\n    /* \"#utility.yul\":7903:8223   */\ntag_14:\n    /* \"#utility.yul\":7947:7953   */\n  0x00\n    /* \"#utility.yul\":7984:7985   */\n  0x02\n    /* \"#utility.yul\":7978:7982   */\n  dup3\n    /* \"#utility.yul\":7974:7986   */\n  div\n    /* \"#utility.yul\":7964:7986   */\n  swap1\n  pop\n    /* \"#utility.yul\":8031:8032   */\n  0x01\n    /* \"#utility.yul\":8025:8029   */\n  dup3\n    /* \"#utility.yul\":8021:8033   */\n  and\n    /* \"#utility.yul\":8052:8070   */\n  dup1\n    /* \"#utility.yul\":8042:8123   */\n  tag_152\n  jumpi\n    /* \"#utility.yul\":8108:8112   */\n  0x7f\n    /* \"#utility.yul\":8100:8106   */\n  dup3\n    /* \"#utility.yul\":8096:8113   */\n  and\n    /* \"#utility.yul\":8086:8113   */\n  swap2\n  pop\n    /* \"#utility.yul\":8042:8123   */\ntag_152:\n    /* \"#utility.yul\":8170:8172   */\n  0x20\n    /* \"#utility.yul\":8162:8168   */\n  dup3\n    /* \"#utility.yul\":8159:8173   */\n  lt\n    /* \"#utility.yul\":8139:8157   */\n  dup2\n    /* \"#utility.yul\":8136:8174   */\n  sub\n    /* \"#utility.yul\":8133:8217   */\n  tag_153\n  jumpi\n    /* \"#utility.yul\":8189:8207   */\n  tag_154\n  tag_62\n  jump\t// in\ntag_154:\n    /* \"#utility.yul\":8133:8217   */\ntag_153:\n    /* \"#utility.yul\":7954:8223   */\n  pop\n    /* \"#utility.yul\":7903:8223   */\n  swap2\n  swap1\n  pop\n  jump\t// out\n    /* \"Task.sol\":810:3293  contract Task {... */\ntag_12:\n  dataSize(sub_0)\n  dup1\n  dataOffset(sub_0)\n  0x00\n  codecopy\n  0x00\n  return\nstop\n\nsub_0: assembly {\n        /* \"Task.sol\":810:3293  contract Task {... */\n      mstore(0x40, 0x80)\n      callvalue\n      dup1\n      iszero\n      tag_1\n      jumpi\n      0x00\n      dup1\n      revert\n    tag_1:\n      pop\n      jumpi(tag_2, lt(calldatasize, 0x04))\n      shr(0xe0, calldataload(0x00))\n      dup1\n      0x5f51c765\n      gt\n      tag_20\n      jumpi\n      dup1\n      0xa20fca5a\n      gt\n      tag_21\n      jumpi\n      dup1\n      0xa20fca5a\n      eq\n      tag_15\n      jumpi\n      dup1\n      0xaf84a013\n      eq\n      tag_16\n      jumpi\n      dup1\n      0xdea4e339\n      eq\n      tag_17\n      jumpi\n      dup1\n      0xfa391c64\n      eq\n      tag_18\n      jumpi\n      dup1\n      0xfbc03a1e\n      eq\n      tag_19\n      jumpi\n      jump(tag_2)\n    tag_21:\n      dup1\n      0x5f51c765\n      eq\n      tag_11\n      jumpi\n      dup1\n      0x71096387\n      eq\n      tag_12\n      jumpi\n      dup1\n      0x74adad1d\n      eq\n      tag_13\n      jumpi\n      dup1\n      0x9e98c6aa\n      eq\n      tag_14\n      jumpi\n      jump(tag_2)\n    tag_20:\n      dup1\n      0x481c6a75\n      gt\n      tag_22\n      jumpi\n      dup1\n      0x481c6a75\n      eq\n      tag_7\n      jumpi\n      dup1\n      0x4d547ada\n      eq\n      tag_8\n      jumpi\n      dup1\n      0x5a9b0b89\n      eq\n      tag_9\n      jumpi\n      dup1\n      0x5e1c7322\n      eq\n      tag_10\n      jumpi\n      jump(tag_2)\n    tag_22:\n      dup1\n      0x1aea77\n      eq\n      tag_3\n      jumpi\n      dup1\n      0x231e407a\n      eq\n      tag_4\n      jumpi\n      dup1\n      0x31c3a6f5\n      eq\n      tag_5\n      jumpi\n      dup1\n      0x43a7e9b9\n      eq\n      tag_6\n      jumpi\n    tag_2:\n      0x00\n      dup1\n      revert\n        /* \"Task.sol\":1013:1035  string public taskName */\n    tag_3:\n      tag_23\n      tag_24\n      jump\t// in\n    tag_23:\n      mload(0x40)\n      tag_25\n      swap2\n      swap1\n      tag_26\n      jump\t// in\n    tag_25:\n      mload(0x40)\n      dup1\n      swap2\n      sub\n      swap1\n      return\n        /* \"Task.sol\":2660:2796  function killTask() public restricted {... */\n    tag_4:\n      tag_27\n      tag_28\n      jump\t// in\n    tag_27:\n      stop\n        /* \"Task.sol\":2804:2999  function creaetRequest(string memory description) public {... */\n    tag_5:\n      tag_29\n      0x04\n      dup1\n      calldatasize\n      sub\n      dup2\n      add\n      swap1\n      tag_30\n      swap2\n      swap1\n      tag_31\n      jump\t// in\n    tag_30:\n      tag_32\n      jump\t// in\n    tag_29:\n      stop\n        /* \"Task.sol\":1261:1298  address payable[] public requestsKeys */\n    tag_6:\n      tag_33\n      0x04\n      dup1\n      calldatasize\n      sub\n      dup2\n      add\n      swap1\n      tag_34\n      swap2\n      swap1\n      tag_35\n      jump\t// in\n    tag_34:\n      tag_36\n      jump\t// in\n    tag_33:\n      mload(0x40)\n      tag_37\n      swap2\n      swap1\n      tag_38\n      jump\t// in\n    tag_37:\n      mload(0x40)\n      dup1\n      swap2\n      sub\n      swap1\n      return\n        /* \"Task.sol\":945:975  address payable public manager */\n    tag_7:\n      tag_39\n      tag_40\n      jump\t// in\n    tag_39:\n      mload(0x40)\n      tag_41\n      swap2\n      swap1\n      tag_38\n      jump\t// in\n    tag_41:\n      mload(0x40)\n      dup1\n      swap2\n      sub\n      swap1\n      return\n        /* \"Task.sol\":1145:1174  address payable public worker */\n    tag_8:\n      tag_42\n      tag_43\n      jump\t// in\n    tag_42:\n      mload(0x40)\n      tag_44\n      swap2\n      swap1\n      tag_38\n      jump\t// in\n    tag_44:\n      mload(0x40)\n      dup1\n      swap2\n      sub\n      swap1\n      return\n        /* \"Task.sol\":1904:2454  function getInfo()... */\n    tag_9:\n      tag_45\n      tag_46\n      jump\t// in\n    tag_45:\n      mload(0x40)\n      tag_47\n      swap9\n      swap8\n      swap7\n      swap6\n      swap5\n      swap4\n      swap3\n      swap2\n      swap1\n      tag_48\n      jump\t// in\n    tag_47:\n      mload(0x40)\n      dup1\n      swap2\n      sub\n      swap1\n      return\n        /* \"Task.sol\":2553:2652  function getHashtags() public view returns (string[] memory) {... */\n    tag_10:\n      tag_49\n      tag_50\n      jump\t// in\n    tag_49:\n      mload(0x40)\n      tag_51\n      swap2\n      swap1\n      tag_52\n      jump\t// in\n    tag_51:\n      mload(0x40)\n      dup1\n      swap2\n      sub\n      swap1\n      return\n        /* \"Task.sol\":3007:3154  function startTask(address newWorker) public restricted {... */\n    tag_11:\n      tag_53\n      0x04\n      dup1\n      calldatasize\n      sub\n      dup2\n      add\n      swap1\n      tag_54\n      swap2\n      swap1\n      tag_55\n      jump\t// in\n    tag_54:\n      tag_56\n      jump\t// in\n    tag_53:\n      stop\n        /* \"Task.sol\":1042:1067  string[] public taskFiles */\n    tag_12:\n      tag_57\n      0x04\n      dup1\n      calldatasize\n      sub\n      dup2\n      add\n      swap1\n      tag_58\n      swap2\n      swap1\n      tag_35\n      jump\t// in\n    tag_58:\n      tag_59\n      jump\t// in\n    tag_57:\n      mload(0x40)\n      tag_60\n      swap2\n      swap1\n      tag_26\n      jump\t// in\n    tag_60:\n      mload(0x40)\n      dup1\n      swap2\n      sub\n      swap1\n      return\n        /* \"Task.sol\":1211:1254  mapping(address => Request) public requests */\n    tag_13:\n      tag_61\n      0x04\n      dup1\n      calldatasize\n      sub\n      dup2\n      add\n      swap1\n      tag_62\n      swap2\n      swap1\n      tag_55\n      jump\t// in\n    tag_62:\n      tag_63\n      jump\t// in\n    tag_61:\n      mload(0x40)\n      tag_64\n      swap4\n      swap3\n      swap2\n      swap1\n      tag_65\n      jump\t// in\n    tag_64:\n      mload(0x40)\n      dup1\n      swap2\n      sub\n      swap1\n      return\n        /* \"Task.sol\":1305:1330  uint public taskTimestamp */\n    tag_14:\n      tag_66\n      tag_67\n      jump\t// in\n    tag_66:\n      mload(0x40)\n      tag_68\n      swap2\n      swap1\n      tag_69\n      jump\t// in\n    tag_68:\n      mload(0x40)\n      dup1\n      swap2\n      sub\n      swap1\n      return\n        /* \"Task.sol\":3162:3290  function finalizeTask() public restricted {... */\n    tag_15:\n      tag_70\n      tag_71\n      jump\t// in\n    tag_70:\n      stop\n        /* \"Task.sol\":1110:1138  string[] public taskHashtags */\n    tag_16:\n      tag_72\n      0x04\n      dup1\n      calldatasize\n      sub\n      dup2\n      add\n      swap1\n      tag_73\n      swap2\n      swap1\n      tag_35\n      jump\t// in\n    tag_73:\n      tag_74\n      jump\t// in\n    tag_72:\n      mload(0x40)\n      tag_75\n      swap2\n      swap1\n      tag_26\n      jump\t// in\n    tag_75:\n      mload(0x40)\n      dup1\n      swap2\n      sub\n      swap1\n      return\n        /* \"Task.sol\":982:1006  string public taskSphere */\n    tag_17:\n      tag_76\n      tag_77\n      jump\t// in\n    tag_76:\n      mload(0x40)\n      tag_78\n      swap2\n      swap1\n      tag_26\n      jump\t// in\n    tag_78:\n      mload(0x40)\n      dup1\n      swap2\n      sub\n      swap1\n      return\n        /* \"Task.sol\":1181:1204  bool public isCompleted */\n    tag_18:\n      tag_79\n      tag_80\n      jump\t// in\n    tag_79:\n      mload(0x40)\n      tag_81\n      swap2\n      swap1\n      tag_82\n      jump\t// in\n    tag_81:\n      mload(0x40)\n      dup1\n      swap2\n      sub\n      swap1\n      return\n        /* \"Task.sol\":1074:1103  string public taskDescription */\n    tag_19:\n      tag_83\n      tag_84\n      jump\t// in\n    tag_83:\n      mload(0x40)\n      tag_85\n      swap2\n      swap1\n      tag_26\n      jump\t// in\n    tag_85:\n      mload(0x40)\n      dup1\n      swap2\n      sub\n      swap1\n      return\n        /* \"Task.sol\":1013:1035  string public taskName */\n    tag_24:\n      0x02\n      dup1\n      sload\n      tag_86\n      swap1\n      tag_87\n      jump\t// in\n    tag_86:\n      dup1\n      0x1f\n      add\n      0x20\n      dup1\n      swap2\n      div\n      mul\n      0x20\n      add\n      mload(0x40)\n      swap1\n      dup2\n      add\n      0x40\n      mstore\n      dup1\n      swap3\n      swap2\n      swap1\n      dup2\n      dup2\n      mstore\n      0x20\n      add\n      dup3\n      dup1\n      sload\n      tag_88\n      swap1\n      tag_87\n      jump\t// in\n    tag_88:\n      dup1\n      iszero\n      tag_89\n      jumpi\n      dup1\n      0x1f\n      lt\n      tag_90\n      jumpi\n      0x0100\n      dup1\n      dup4\n      sload\n      div\n      mul\n      dup4\n      mstore\n      swap2\n      0x20\n      add\n      swap2\n      jump(tag_89)\n    tag_90:\n      dup3\n      add\n      swap2\n      swap1\n      0x00\n      mstore\n      keccak256(0x00, 0x20)\n      swap1\n    tag_91:\n      dup2\n      sload\n      dup2\n      mstore\n      swap1\n      0x01\n      add\n      swap1\n      0x20\n      add\n      dup1\n      dup4\n      gt\n      tag_91\n      jumpi\n      dup3\n      swap1\n      sub\n      0x1f\n      and\n      dup3\n      add\n      swap2\n    tag_89:\n      pop\n      pop\n      pop\n      pop\n      pop\n      dup2\n      jump\t// out\n        /* \"Task.sol\":2660:2796  function killTask() public restricted {... */\n    tag_28:\n        /* \"Task.sol\":2517:2524  manager */\n      0x00\n      dup1\n      sload\n      swap1\n      0x0100\n      exp\n      swap1\n      div\n      0xffffffffffffffffffffffffffffffffffffffff\n      and\n        /* \"Task.sol\":2503:2524  msg.sender == manager */\n      0xffffffffffffffffffffffffffffffffffffffff\n      and\n        /* \"Task.sol\":2503:2513  msg.sender */\n      caller\n        /* \"Task.sol\":2503:2524  msg.sender == manager */\n      0xffffffffffffffffffffffffffffffffffffffff\n      and\n      eq\n        /* \"Task.sol\":2495:2525  require(msg.sender == manager) */\n      tag_93\n      jumpi\n      0x00\n      dup1\n      revert\n    tag_93:\n        /* \"Task.sol\":2735:2736  0 */\n      0x00\n        /* \"Task.sol\":2717:2737  worker == address(0) */\n      0xffffffffffffffffffffffffffffffffffffffff\n      and\n        /* \"Task.sol\":2717:2723  worker */\n      0x06\n      0x00\n      swap1\n      sload\n      swap1\n      0x0100\n      exp\n      swap1\n      div\n      0xffffffffffffffffffffffffffffffffffffffff\n      and\n        /* \"Task.sol\":2717:2737  worker == address(0) */\n      0xffffffffffffffffffffffffffffffffffffffff\n      and\n      eq\n        /* \"Task.sol\":2709:2738  require(worker == address(0)) */\n      tag_95\n      jumpi\n      0x00\n      dup1\n      revert\n    tag_95:\n        /* \"Task.sol\":2749:2756  manager */\n      0x00\n      dup1\n      sload\n      swap1\n      0x0100\n      exp\n      swap1\n      div\n      0xffffffffffffffffffffffffffffffffffffffff\n      and\n        /* \"Task.sol\":2749:2765  manager.transfer */\n      0xffffffffffffffffffffffffffffffffffffffff\n      and\n        /* \"Task.sol\":2749:2788  manager.transfer(address(this).balance) */\n      0x08fc\n        /* \"Task.sol\":2766:2787  address(this).balance */\n      selfbalance\n        /* \"Task.sol\":2749:2788  manager.transfer(address(this).balance) */\n      swap1\n      dup2\n      iszero\n      mul\n      swap1\n      mload(0x40)\n      0x00\n      mload(0x40)\n      dup1\n      dup4\n      sub\n      dup2\n      dup6\n      dup9\n      dup9\n      call\n      swap4\n      pop\n      pop\n      pop\n      pop\n      iszero\n      dup1\n      iszero\n      tag_97\n      jumpi\n      returndatasize\n      0x00\n      dup1\n      returndatacopy\n      revert(0x00, returndatasize)\n    tag_97:\n      pop\n        /* \"Task.sol\":2660:2796  function killTask() public restricted {... */\n      jump\t// out\n        /* \"Task.sol\":2804:2999  function creaetRequest(string memory description) public {... */\n    tag_32:\n        /* \"Task.sol\":2895:2942  Request(description, payable(msg.sender), true) */\n      mload(0x40)\n      dup1\n      0x60\n      add\n      0x40\n      mstore\n      dup1\n        /* \"Task.sol\":2903:2914  description */\n      dup3\n        /* \"Task.sol\":2895:2942  Request(description, payable(msg.sender), true) */\n      dup2\n      mstore\n      0x20\n      add\n        /* \"Task.sol\":2924:2934  msg.sender */\n      caller\n        /* \"Task.sol\":2895:2942  Request(description, payable(msg.sender), true) */\n      0xffffffffffffffffffffffffffffffffffffffff\n      and\n      dup2\n      mstore\n      0x20\n      add\n        /* \"Task.sol\":2937:2941  true */\n      0x01\n        /* \"Task.sol\":2895:2942  Request(description, payable(msg.sender), true) */\n      iszero\n      iszero\n      dup2\n      mstore\n      pop\n        /* \"Task.sol\":2872:2880  requests */\n      0x07\n        /* \"Task.sol\":2872:2892  requests[msg.sender] */\n      0x00\n        /* \"Task.sol\":2881:2891  msg.sender */\n      caller\n        /* \"Task.sol\":2872:2892  requests[msg.sender] */\n      0xffffffffffffffffffffffffffffffffffffffff\n      and\n      0xffffffffffffffffffffffffffffffffffffffff\n      and\n      dup2\n      mstore\n      0x20\n      add\n      swap1\n      dup2\n      mstore\n      0x20\n      add\n      0x00\n      keccak256\n        /* \"Task.sol\":2872:2942  requests[msg.sender] = Request(description, payable(msg.sender), true) */\n      0x00\n      dup3\n      add\n      mload\n      dup2\n      0x00\n      add\n      swap1\n      dup1\n      mload\n      swap1\n      0x20\n      add\n      swap1\n      tag_99\n      swap3\n      swap2\n      swap1\n      tag_100\n      jump\t// in\n    tag_99:\n      pop\n      0x20\n      dup3\n      add\n      mload\n      dup2\n      0x01\n      add\n      exp(0x0100, 0x00)\n      dup2\n      sload\n      dup2\n      0xffffffffffffffffffffffffffffffffffffffff\n      mul\n      not\n      and\n      swap1\n      dup4\n      0xffffffffffffffffffffffffffffffffffffffff\n      and\n      mul\n      or\n      swap1\n      sstore\n      pop\n      0x40\n      dup3\n      add\n      mload\n      dup2\n      0x01\n      add\n      exp(0x0100, 0x14)\n      dup2\n      sload\n      dup2\n      0xff\n      mul\n      not\n      and\n      swap1\n      dup4\n      iszero\n      iszero\n      mul\n      or\n      swap1\n      sstore\n      pop\n      swap1\n      pop\n      pop\n        /* \"Task.sol\":2953:2965  requestsKeys */\n      0x08\n        /* \"Task.sol\":2979:2989  msg.sender */\n      caller\n        /* \"Task.sol\":2953:2991  requestsKeys.push(payable(msg.sender)) */\n      swap1\n      dup1\n      0x01\n      dup2\n      sload\n      add\n      dup1\n      dup3\n      sstore\n      dup1\n      swap2\n      pop\n      pop\n      0x01\n      swap1\n      sub\n      swap1\n      0x00\n      mstore\n      keccak256(0x00, 0x20)\n      add\n      0x00\n      swap1\n      swap2\n      swap1\n      swap2\n      swap1\n      swap2\n      0x0100\n      exp\n      dup2\n      sload\n      dup2\n      0xffffffffffffffffffffffffffffffffffffffff\n      mul\n      not\n      and\n      swap1\n      dup4\n      0xffffffffffffffffffffffffffffffffffffffff\n      and\n      mul\n      or\n      swap1\n      sstore\n      pop\n        /* \"Task.sol\":2804:2999  function creaetRequest(string memory description) public {... */\n      pop\n      jump\t// out\n        /* \"Task.sol\":1261:1298  address payable[] public requestsKeys */\n    tag_36:\n      0x08\n      dup2\n      dup2\n      sload\n      dup2\n      lt\n      tag_102\n      jumpi\n      0x00\n      dup1\n      revert\n    tag_102:\n      swap1\n      0x00\n      mstore\n      keccak256(0x00, 0x20)\n      add\n      0x00\n      swap2\n      pop\n      sload\n      swap1\n      0x0100\n      exp\n      swap1\n      div\n      0xffffffffffffffffffffffffffffffffffffffff\n      and\n      dup2\n      jump\t// out\n        /* \"Task.sol\":945:975  address payable public manager */\n    tag_40:\n      0x00\n      dup1\n      sload\n      swap1\n      0x0100\n      exp\n      swap1\n      div\n      0xffffffffffffffffffffffffffffffffffffffff\n      and\n      dup2\n      jump\t// out\n        /* \"Task.sol\":1145:1174  address payable public worker */\n    tag_43:\n      0x06\n      0x00\n      swap1\n      sload\n      swap1\n      0x0100\n      exp\n      swap1\n      div\n      0xffffffffffffffffffffffffffffffffffffffff\n      and\n      dup2\n      jump\t// out\n        /* \"Task.sol\":1904:2454  function getInfo()... */\n    tag_46:\n        /* \"Task.sol\":1985:2000  address payable */\n      0x00\n        /* \"Task.sol\":2015:2028  string memory */\n      0x60\n        /* \"Task.sol\":2043:2058  string[] memory */\n      dup1\n        /* \"Task.sol\":2073:2086  string memory */\n      0x60\n        /* \"Task.sol\":2101:2114  string memory */\n      dup1\n        /* \"Task.sol\":2129:2144  address payable */\n      0x00\n        /* \"Task.sol\":2159:2163  bool */\n      dup1\n        /* \"Task.sol\":2178:2202  address payable[] memory */\n      0x60\n        /* \"Task.sol\":2252:2259  manager */\n      0x00\n      dup1\n      sload\n      swap1\n      0x0100\n      exp\n      swap1\n      div\n      0xffffffffffffffffffffffffffffffffffffffff\n      and\n        /* \"Task.sol\":2274:2282  taskName */\n      0x02\n        /* \"Task.sol\":2297:2306  taskFiles */\n      0x03\n        /* \"Task.sol\":2321:2336  taskDescription */\n      0x04\n        /* \"Task.sol\":2351:2361  taskSphere */\n      0x01\n        /* \"Task.sol\":2376:2382  worker */\n      0x06\n      0x00\n      swap1\n      sload\n      swap1\n      0x0100\n      exp\n      swap1\n      div\n      0xffffffffffffffffffffffffffffffffffffffff\n      and\n        /* \"Task.sol\":2397:2408  isCompleted */\n      0x06\n      0x14\n      swap1\n      sload\n      swap1\n      0x0100\n      exp\n      swap1\n      div\n      0xff\n      and\n        /* \"Task.sol\":2423:2435  requestsKeys */\n      0x08\n        /* \"Task.sol\":2230:2446  return (... */\n      dup7\n      dup1\n      sload\n      tag_105\n      swap1\n      tag_87\n      jump\t// in\n    tag_105:\n      dup1\n      0x1f\n      add\n      0x20\n      dup1\n      swap2\n      div\n      mul\n      0x20\n      add\n      mload(0x40)\n      swap1\n      dup2\n      add\n      0x40\n      mstore\n      dup1\n      swap3\n      swap2\n      swap1\n      dup2\n      dup2\n      mstore\n      0x20\n      add\n      dup3\n      dup1\n      sload\n      tag_106\n      swap1\n      tag_87\n      jump\t// in\n    tag_106:\n      dup1\n      iszero\n      tag_107\n      jumpi\n      dup1\n      0x1f\n      lt\n      tag_108\n      jumpi\n      0x0100\n      dup1\n      dup4\n      sload\n      div\n      mul\n      dup4\n      mstore\n      swap2\n      0x20\n      add\n      swap2\n      jump(tag_107)\n    tag_108:\n      dup3\n      add\n      swap2\n      swap1\n      0x00\n      mstore\n      keccak256(0x00, 0x20)\n      swap1\n    tag_109:\n      dup2\n      sload\n      dup2\n      mstore\n      swap1\n      0x01\n      add\n      swap1\n      0x20\n      add\n      dup1\n      dup4\n      gt\n      tag_109\n      jumpi\n      dup3\n      swap1\n      sub\n      0x1f\n      and\n      dup3\n      add\n      swap2\n    tag_107:\n      pop\n      pop\n      pop\n      pop\n      pop\n      swap7\n      pop\n      dup6\n      dup1\n      sload\n      dup1\n      0x20\n      mul\n      0x20\n      add\n      mload(0x40)\n      swap1\n      dup2\n      add\n      0x40\n      mstore\n      dup1\n      swap3\n      swap2\n      swap1\n      dup2\n      dup2\n      mstore\n      0x20\n      add\n      0x00\n      swap1\n    tag_110:\n      dup3\n      dup3\n      lt\n      iszero\n      tag_111\n      jumpi\n      dup4\n      dup3\n      swap1\n      0x00\n      mstore\n      keccak256(0x00, 0x20)\n      add\n      dup1\n      sload\n      tag_113\n      swap1\n      tag_87\n      jump\t// in\n    tag_113:\n      dup1\n      0x1f\n      add\n      0x20\n      dup1\n      swap2\n      div\n      mul\n      0x20\n      add\n      mload(0x40)\n      swap1\n      dup2\n      add\n      0x40\n      mstore\n      dup1\n      swap3\n      swap2\n      swap1\n      dup2\n      dup2\n      mstore\n      0x20\n      add\n      dup3\n      dup1\n      sload\n      tag_114\n      swap1\n      tag_87\n      jump\t// in\n    tag_114:\n      dup1\n      iszero\n      tag_115\n      jumpi\n      dup1\n      0x1f\n      lt\n      tag_116\n      jumpi\n      0x0100\n      dup1\n      dup4\n      sload\n      div\n      mul\n      dup4\n      mstore\n      swap2\n      0x20\n      add\n      swap2\n      jump(tag_115)\n    tag_116:\n      dup3\n      add\n      swap2\n      swap1\n      0x00\n      mstore\n      keccak256(0x00, 0x20)\n      swap1\n    tag_117:\n      dup2\n      sload\n      dup2\n      mstore\n      swap1\n      0x01\n      add\n      swap1\n      0x20\n      add\n      dup1\n      dup4\n      gt\n      tag_117\n      jumpi\n      dup3\n      swap1\n      sub\n      0x1f\n      and\n      dup3\n      add\n      swap2\n    tag_115:\n      pop\n      pop\n      pop\n      pop\n      pop\n      dup2\n      mstore\n      0x20\n      add\n      swap1\n      0x01\n      add\n      swap1\n      jump(tag_110)\n    tag_111:\n      pop\n      pop\n      pop\n      pop\n      swap6\n      pop\n      dup5\n      dup1\n      sload\n      tag_118\n      swap1\n      tag_87\n      jump\t// in\n    tag_118:\n      dup1\n      0x1f\n      add\n      0x20\n      dup1\n      swap2\n      div\n      mul\n      0x20\n      add\n      mload(0x40)\n      swap1\n      dup2\n      add\n      0x40\n      mstore\n      dup1\n      swap3\n      swap2\n      swap1\n      dup2\n      dup2\n      mstore\n      0x20\n      add\n      dup3\n      dup1\n      sload\n      tag_119\n      swap1\n      tag_87\n      jump\t// in\n    tag_119:\n      dup1\n      iszero\n      tag_120\n      jumpi\n      dup1\n      0x1f\n      lt\n      tag_121\n      jumpi\n      0x0100\n      dup1\n      dup4\n      sload\n      div\n      mul\n      dup4\n      mstore\n      swap2\n      0x20\n      add\n      swap2\n      jump(tag_120)\n    tag_121:\n      dup3\n      add\n      swap2\n      swap1\n      0x00\n      mstore\n      keccak256(0x00, 0x20)\n      swap1\n    tag_122:\n      dup2\n      sload\n      dup2\n      mstore\n      swap1\n      0x01\n      add\n      swap1\n      0x20\n      add\n      dup1\n      dup4\n      gt\n      tag_122\n      jumpi\n      dup3\n      swap1\n      sub\n      0x1f\n      and\n      dup3\n      add\n      swap2\n    tag_120:\n      pop\n      pop\n      pop\n      pop\n      pop\n      swap5\n      pop\n      dup4\n      dup1\n      sload\n      tag_123\n      swap1\n      tag_87\n      jump\t// in\n    tag_123:\n      dup1\n      0x1f\n      add\n      0x20\n      dup1\n      swap2\n      div\n      mul\n      0x20\n      add\n      mload(0x40)\n      swap1\n      dup2\n      add\n      0x40\n      mstore\n      dup1\n      swap3\n      swap2\n      swap1\n      dup2\n      dup2\n      mstore\n      0x20\n      add\n      dup3\n      dup1\n      sload\n      tag_124\n      swap1\n      tag_87\n      jump\t// in\n    tag_124:\n      dup1\n      iszero\n      tag_125\n      jumpi\n      dup1\n      0x1f\n      lt\n      tag_126\n      jumpi\n      0x0100\n      dup1\n      dup4\n      sload\n      div\n      mul\n      dup4\n      mstore\n      swap2\n      0x20\n      add\n      swap2\n      jump(tag_125)\n    tag_126:\n      dup3\n      add\n      swap2\n      swap1\n      0x00\n      mstore\n      keccak256(0x00, 0x20)\n      swap1\n    tag_127:\n      dup2\n      sload\n      dup2\n      mstore\n      swap1\n      0x01\n      add\n      swap1\n      0x20\n      add\n      dup1\n      dup4\n      gt\n      tag_127\n      jumpi\n      dup3\n      swap1\n      sub\n      0x1f\n      and\n      dup3\n      add\n      swap2\n    tag_125:\n      pop\n      pop\n      pop\n      pop\n      pop\n      swap4\n      pop\n      dup1\n      dup1\n      sload\n      dup1\n      0x20\n      mul\n      0x20\n      add\n      mload(0x40)\n      swap1\n      dup2\n      add\n      0x40\n      mstore\n      dup1\n      swap3\n      swap2\n      swap1\n      dup2\n      dup2\n      mstore\n      0x20\n      add\n      dup3\n      dup1\n      sload\n      dup1\n      iszero\n      tag_128\n      jumpi\n      0x20\n      mul\n      dup3\n      add\n      swap2\n      swap1\n      0x00\n      mstore\n      keccak256(0x00, 0x20)\n      swap1\n    tag_129:\n      dup2\n      0x00\n      swap1\n      sload\n      swap1\n      0x0100\n      exp\n      swap1\n      div\n      0xffffffffffffffffffffffffffffffffffffffff\n      and\n      0xffffffffffffffffffffffffffffffffffffffff\n      and\n      dup2\n      mstore\n      0x20\n      add\n      swap1\n      0x01\n      add\n      swap1\n      dup1\n      dup4\n      gt\n      tag_129\n      jumpi\n    tag_128:\n      pop\n      pop\n      pop\n      pop\n      pop\n      swap1\n      pop\n      swap8\n      pop\n      swap8\n      pop\n      swap8\n      pop\n      swap8\n      pop\n      swap8\n      pop\n      swap8\n      pop\n      swap8\n      pop\n      swap8\n      pop\n        /* \"Task.sol\":1904:2454  function getInfo()... */\n      swap1\n      swap2\n      swap3\n      swap4\n      swap5\n      swap6\n      swap7\n      swap8\n      jump\t// out\n        /* \"Task.sol\":2553:2652  function getHashtags() public view returns (string[] memory) {... */\n    tag_50:\n        /* \"Task.sol\":2597:2612  string[] memory */\n      0x60\n        /* \"Task.sol\":2632:2644  taskHashtags */\n      0x05\n        /* \"Task.sol\":2625:2644  return taskHashtags */\n      dup1\n      sload\n      dup1\n      0x20\n      mul\n      0x20\n      add\n      mload(0x40)\n      swap1\n      dup2\n      add\n      0x40\n      mstore\n      dup1\n      swap3\n      swap2\n      swap1\n      dup2\n      dup2\n      mstore\n      0x20\n      add\n      0x00\n      swap1\n    tag_131:\n      dup3\n      dup3\n      lt\n      iszero\n      tag_132\n      jumpi\n      dup4\n      dup3\n      swap1\n      0x00\n      mstore\n      keccak256(0x00, 0x20)\n      add\n      dup1\n      sload\n      tag_134\n      swap1\n      tag_87\n      jump\t// in\n    tag_134:\n      dup1\n      0x1f\n      add\n      0x20\n      dup1\n      swap2\n      div\n      mul\n      0x20\n      add\n      mload(0x40)\n      swap1\n      dup2\n      add\n      0x40\n      mstore\n      dup1\n      swap3\n      swap2\n      swap1\n      dup2\n      dup2\n      mstore\n      0x20\n      add\n      dup3\n      dup1\n      sload\n      tag_135\n      swap1\n      tag_87\n      jump\t// in\n    tag_135:\n      dup1\n      iszero\n      tag_136\n      jumpi\n      dup1\n      0x1f\n      lt\n      tag_137\n      jumpi\n      0x0100\n      dup1\n      dup4\n      sload\n      div\n      mul\n      dup4\n      mstore\n      swap2\n      0x20\n      add\n      swap2\n      jump(tag_136)\n    tag_137:\n      dup3\n      add\n      swap2\n      swap1\n      0x00\n      mstore\n      keccak256(0x00, 0x20)\n      swap1\n    tag_138:\n      dup2\n      sload\n      dup2\n      mstore\n      swap1\n      0x01\n      add\n      swap1\n      0x20\n      add\n      dup1\n      dup4\n      gt\n      tag_138\n      jumpi\n      dup3\n      swap1\n      sub\n      0x1f\n      and\n      dup3\n      add\n      swap2\n    tag_136:\n      pop\n      pop\n      pop\n      pop\n      pop\n      dup2\n      mstore\n      0x20\n      add\n      swap1\n      0x01\n      add\n      swap1\n      jump(tag_131)\n    tag_132:\n      pop\n      pop\n      pop\n      pop\n      swap1\n      pop\n        /* \"Task.sol\":2553:2652  function getHashtags() public view returns (string[] memory) {... */\n      swap1\n      jump\t// out\n        /* \"Task.sol\":3007:3154  function startTask(address newWorker) public restricted {... */\n    tag_56:\n        /* \"Task.sol\":2517:2524  manager */\n      0x00\n      dup1\n      sload\n      swap1\n      0x0100\n      exp\n      swap1\n      div\n      0xffffffffffffffffffffffffffffffffffffffff\n      and\n        /* \"Task.sol\":2503:2524  msg.sender == manager */\n      0xffffffffffffffffffffffffffffffffffffffff\n      and\n        /* \"Task.sol\":2503:2513  msg.sender */\n      caller\n        /* \"Task.sol\":2503:2524  msg.sender == manager */\n      0xffffffffffffffffffffffffffffffffffffffff\n      and\n      eq\n        /* \"Task.sol\":2495:2525  require(msg.sender == manager) */\n      tag_140\n      jumpi\n      0x00\n      dup1\n      revert\n    tag_140:\n        /* \"Task.sol\":3082:3090  requests */\n      0x07\n        /* \"Task.sol\":3082:3101  requests[newWorker] */\n      0x00\n        /* \"Task.sol\":3091:3100  newWorker */\n      dup3\n        /* \"Task.sol\":3082:3101  requests[newWorker] */\n      0xffffffffffffffffffffffffffffffffffffffff\n      and\n      0xffffffffffffffffffffffffffffffffffffffff\n      and\n      dup2\n      mstore\n      0x20\n      add\n      swap1\n      dup2\n      mstore\n      0x20\n      add\n      0x00\n      keccak256\n        /* \"Task.sol\":3082:3107  requests[newWorker].exist */\n      0x01\n      add\n      0x14\n      swap1\n      sload\n      swap1\n      0x0100\n      exp\n      swap1\n      div\n      0xff\n      and\n        /* \"Task.sol\":3074:3108  require(requests[newWorker].exist) */\n      tag_142\n      jumpi\n      0x00\n      dup1\n      revert\n    tag_142:\n        /* \"Task.sol\":3136:3145  newWorker */\n      dup1\n        /* \"Task.sol\":3119:3125  worker */\n      0x06\n      0x00\n        /* \"Task.sol\":3119:3146  worker = payable(newWorker) */\n      0x0100\n      exp\n      dup2\n      sload\n      dup2\n      0xffffffffffffffffffffffffffffffffffffffff\n      mul\n      not\n      and\n      swap1\n      dup4\n      0xffffffffffffffffffffffffffffffffffffffff\n      and\n      mul\n      or\n      swap1\n      sstore\n      pop\n        /* \"Task.sol\":3007:3154  function startTask(address newWorker) public restricted {... */\n      pop\n      jump\t// out\n        /* \"Task.sol\":1042:1067  string[] public taskFiles */\n    tag_59:\n      0x03\n      dup2\n      dup2\n      sload\n      dup2\n      lt\n      tag_143\n      jumpi\n      0x00\n      dup1\n      revert\n    tag_143:\n      swap1\n      0x00\n      mstore\n      keccak256(0x00, 0x20)\n      add\n      0x00\n      swap2\n      pop\n      swap1\n      pop\n      dup1\n      sload\n      tag_145\n      swap1\n      tag_87\n      jump\t// in\n    tag_145:\n      dup1\n      0x1f\n      add\n      0x20\n      dup1\n      swap2\n      div\n      mul\n      0x20\n      add\n      mload(0x40)\n      swap1\n      dup2\n      add\n      0x40\n      mstore\n      dup1\n      swap3\n      swap2\n      swap1\n      dup2\n      dup2\n      mstore\n      0x20\n      add\n      dup3\n      dup1\n      sload\n      tag_146\n      swap1\n      tag_87\n      jump\t// in\n    tag_146:\n      dup1\n      iszero\n      tag_147\n      jumpi\n      dup1\n      0x1f\n      lt\n      tag_148\n      jumpi\n      0x0100\n      dup1\n      dup4\n      sload\n      div\n      mul\n      dup4\n      mstore\n      swap2\n      0x20\n      add\n      swap2\n      jump(tag_147)\n    tag_148:\n      dup3\n      add\n      swap2\n      swap1\n      0x00\n      mstore\n      keccak256(0x00, 0x20)\n      swap1\n    tag_149:\n      dup2\n      sload\n      dup2\n      mstore\n      swap1\n      0x01\n      add\n      swap1\n      0x20\n      add\n      dup1\n      dup4\n      gt\n      tag_149\n      jumpi\n      dup3\n      swap1\n      sub\n      0x1f\n      and\n      dup3\n      add\n      swap2\n    tag_147:\n      pop\n      pop\n      pop\n      pop\n      pop\n      dup2\n      jump\t// out\n        /* \"Task.sol\":1211:1254  mapping(address => Request) public requests */\n    tag_63:\n      mstore(0x20, 0x07)\n      dup1\n      0x00\n      mstore\n      keccak256(0x00, 0x40)\n      0x00\n      swap2\n      pop\n      swap1\n      pop\n      dup1\n      0x00\n      add\n      dup1\n      sload\n      tag_150\n      swap1\n      tag_87\n      jump\t// in\n    tag_150:\n      dup1\n      0x1f\n      add\n      0x20\n      dup1\n      swap2\n      div\n      mul\n      0x20\n      add\n      mload(0x40)\n      swap1\n      dup2\n      add\n      0x40\n      mstore\n      dup1\n      swap3\n      swap2\n      swap1\n      dup2\n      dup2\n      mstore\n      0x20\n      add\n      dup3\n      dup1\n      sload\n      tag_151\n      swap1\n      tag_87\n      jump\t// in\n    tag_151:\n      dup1\n      iszero\n      tag_152\n      jumpi\n      dup1\n      0x1f\n      lt\n      tag_153\n      jumpi\n      0x0100\n      dup1\n      dup4\n      sload\n      div\n      mul\n      dup4\n      mstore\n      swap2\n      0x20\n      add\n      swap2\n      jump(tag_152)\n    tag_153:\n      dup3\n      add\n      swap2\n      swap1\n      0x00\n      mstore\n      keccak256(0x00, 0x20)\n      swap1\n    tag_154:\n      dup2\n      sload\n      dup2\n      mstore\n      swap1\n      0x01\n      add\n      swap1\n      0x20\n      add\n      dup1\n      dup4\n      gt\n      tag_154\n      jumpi\n      dup3\n      swap1\n      sub\n      0x1f\n      and\n      dup3\n      add\n      swap2\n    tag_152:\n      pop\n      pop\n      pop\n      pop\n      pop\n      swap1\n      dup1\n      0x01\n      add\n      0x00\n      swap1\n      sload\n      swap1\n      0x0100\n      exp\n      swap1\n      div\n      0xffffffffffffffffffffffffffffffffffffffff\n      and\n      swap1\n      dup1\n      0x01\n      add\n      0x14\n      swap1\n      sload\n      swap1\n      0x0100\n      exp\n      swap1\n      div\n      0xff\n      and\n      swap1\n      pop\n      dup4\n      jump\t// out\n        /* \"Task.sol\":1305:1330  uint public taskTimestamp */\n    tag_67:\n      sload(0x09)\n      dup2\n      jump\t// out\n        /* \"Task.sol\":3162:3290  function finalizeTask() public restricted {... */\n    tag_71:\n        /* \"Task.sol\":2517:2524  manager */\n      0x00\n      dup1\n      sload\n      swap1\n      0x0100\n      exp\n      swap1\n      div\n      0xffffffffffffffffffffffffffffffffffffffff\n      and\n        /* \"Task.sol\":2503:2524  msg.sender == manager */\n      0xffffffffffffffffffffffffffffffffffffffff\n      and\n        /* \"Task.sol\":2503:2513  msg.sender */\n      caller\n        /* \"Task.sol\":2503:2524  msg.sender == manager */\n      0xffffffffffffffffffffffffffffffffffffffff\n      and\n      eq\n        /* \"Task.sol\":2495:2525  require(msg.sender == manager) */\n      tag_156\n      jumpi\n      0x00\n      dup1\n      revert\n    tag_156:\n        /* \"Task.sol\":3215:3221  worker */\n      0x06\n      0x00\n      swap1\n      sload\n      swap1\n      0x0100\n      exp\n      swap1\n      div\n      0xffffffffffffffffffffffffffffffffffffffff\n      and\n        /* \"Task.sol\":3215:3230  worker.transfer */\n      0xffffffffffffffffffffffffffffffffffffffff\n      and\n        /* \"Task.sol\":3215:3253  worker.transfer(address(this).balance) */\n      0x08fc\n        /* \"Task.sol\":3231:3252  address(this).balance */\n      selfbalance\n        /* \"Task.sol\":3215:3253  worker.transfer(address(this).balance) */\n      swap1\n      dup2\n      iszero\n      mul\n      swap1\n      mload(0x40)\n      0x00\n      mload(0x40)\n      dup1\n      dup4\n      sub\n      dup2\n      dup6\n      dup9\n      dup9\n      call\n      swap4\n      pop\n      pop\n      pop\n      pop\n      iszero\n      dup1\n      iszero\n      tag_159\n      jumpi\n      returndatasize\n      0x00\n      dup1\n      returndatacopy\n      revert(0x00, returndatasize)\n    tag_159:\n      pop\n        /* \"Task.sol\":3278:3282  true */\n      0x01\n        /* \"Task.sol\":3264:3275  isCompleted */\n      0x06\n      0x14\n        /* \"Task.sol\":3264:3282  isCompleted = true */\n      0x0100\n      exp\n      dup2\n      sload\n      dup2\n      0xff\n      mul\n      not\n      and\n      swap1\n      dup4\n      iszero\n      iszero\n      mul\n      or\n      swap1\n      sstore\n      pop\n        /* \"Task.sol\":3162:3290  function finalizeTask() public restricted {... */\n      jump\t// out\n        /* \"Task.sol\":1110:1138  string[] public taskHashtags */\n    tag_74:\n      0x05\n      dup2\n      dup2\n      sload\n      dup2\n      lt\n      tag_160\n      jumpi\n      0x00\n      dup1\n      revert\n    tag_160:\n      swap1\n      0x00\n      mstore\n      keccak256(0x00, 0x20)\n      add\n      0x00\n      swap2\n      pop\n      swap1\n      pop\n      dup1\n      sload\n      tag_162\n      swap1\n      tag_87\n      jump\t// in\n    tag_162:\n      dup1\n      0x1f\n      add\n      0x20\n      dup1\n      swap2\n      div\n      mul\n      0x20\n      add\n      mload(0x40)\n      swap1\n      dup2\n      add\n      0x40\n      mstore\n      dup1\n      swap3\n      swap2\n      swap1\n      dup2\n      dup2\n      mstore\n      0x20\n      add\n      dup3\n      dup1\n      sload\n      tag_163\n      swap1\n      tag_87\n      jump\t// in\n    tag_163:\n      dup1\n      iszero\n      tag_164\n      jumpi\n      dup1\n      0x1f\n      lt\n      tag_165\n      jumpi\n      0x0100\n      dup1\n      dup4\n      sload\n      div\n      mul\n      dup4\n      mstore\n      swap2\n      0x20\n      add\n      swap2\n      jump(tag_164)\n    tag_165:\n      dup3\n      add\n      swap2\n      swap1\n      0x00\n      mstore\n      keccak256(0x00, 0x20)\n      swap1\n    tag_166:\n      dup2\n      sload\n      dup2\n      mstore\n      swap1\n      0x01\n      add\n      swap1\n      0x20\n      add\n      dup1\n      dup4\n      gt\n      tag_166\n      jumpi\n      dup3\n      swap1\n      sub\n      0x1f\n      and\n      dup3\n      add\n      swap2\n    tag_164:\n      pop\n      pop\n      pop\n      pop\n      pop\n      dup2\n      jump\t// out\n        /* \"Task.sol\":982:1006  string public taskSphere */\n    tag_77:\n      0x01\n      dup1\n      sload\n      tag_167\n      swap1\n      tag_87\n      jump\t// in\n    tag_167:\n      dup1\n      0x1f\n      add\n      0x20\n      dup1\n      swap2\n      div\n      mul\n      0x20\n      add\n      mload(0x40)\n      swap1\n      dup2\n      add\n      0x40\n      mstore\n      dup1\n      swap3\n      swap2\n      swap1\n      dup2\n      dup2\n      mstore\n      0x20\n      add\n      dup3\n      dup1\n      sload\n      tag_168\n      swap1\n      tag_87\n      jump\t// in\n    tag_168:\n      dup1\n      iszero\n      tag_169\n      jumpi\n      dup1\n      0x1f\n      lt\n      tag_170\n      jumpi\n      0x0100\n      dup1\n      dup4\n      sload\n      div\n      mul\n      dup4\n      mstore\n      swap2\n      0x20\n      add\n      swap2\n      jump(tag_169)\n    tag_170:\n      dup3\n      add\n      swap2\n      swap1\n      0x00\n      mstore\n      keccak256(0x00, 0x20)\n      swap1\n    tag_171:\n      dup2\n      sload\n      dup2\n      mstore\n      swap1\n      0x01\n      add\n      swap1\n      0x20\n      add\n      dup1\n      dup4\n      gt\n      tag_171\n      jumpi\n      dup3\n      swap1\n      sub\n      0x1f\n      and\n      dup3\n      add\n      swap2\n    tag_169:\n      pop\n      pop\n      pop\n      pop\n      pop\n      dup2\n      jump\t// out\n        /* \"Task.sol\":1181:1204  bool public isCompleted */\n    tag_80:\n      0x06\n      0x14\n      swap1\n      sload\n      swap1\n      0x0100\n      exp\n      swap1\n      div\n      0xff\n      and\n      dup2\n      jump\t// out\n        /* \"Task.sol\":1074:1103  string public taskDescription */\n    tag_84:\n      0x04\n      dup1\n      sload\n      tag_172\n      swap1\n      tag_87\n      jump\t// in\n    tag_172:\n      dup1\n      0x1f\n      add\n      0x20\n      dup1\n      swap2\n      div\n      mul\n      0x20\n      add\n      mload(0x40)\n      swap1\n      dup2\n      add\n      0x40\n      mstore\n      dup1\n      swap3\n      swap2\n      swap1\n      dup2\n      dup2\n      mstore\n      0x20\n      add\n      dup3\n      dup1\n      sload\n      tag_173\n      swap1\n      tag_87\n      jump\t// in\n    tag_173:\n      dup1\n      iszero\n      tag_174\n      jumpi\n      dup1\n      0x1f\n      lt\n      tag_175\n      jumpi\n      0x0100\n      dup1\n      dup4\n      sload\n      div\n      mul\n      dup4\n      mstore\n      swap2\n      0x20\n      add\n      swap2\n      jump(tag_174)\n    tag_175:\n      dup3\n      add\n      swap2\n      swap1\n      0x00\n      mstore\n      keccak256(0x00, 0x20)\n      swap1\n    tag_176:\n      dup2\n      sload\n      dup2\n      mstore\n      swap1\n      0x01\n      add\n      swap1\n      0x20\n      add\n      dup1\n      dup4\n      gt\n      tag_176\n      jumpi\n      dup3\n      swap1\n      sub\n      0x1f\n      and\n      dup3\n      add\n      swap2\n    tag_174:\n      pop\n      pop\n      pop\n      pop\n      pop\n      dup2\n      jump\t// out\n    tag_100:\n      dup3\n      dup1\n      sload\n      tag_177\n      swap1\n      tag_87\n      jump\t// in\n    tag_177:\n      swap1\n      0x00\n      mstore\n      keccak256(0x00, 0x20)\n      swap1\n      0x1f\n      add\n      0x20\n      swap1\n      div\n      dup2\n      add\n      swap3\n      dup3\n      tag_179\n      jumpi\n      0x00\n      dup6\n      sstore\n      jump(tag_178)\n    tag_179:\n      dup3\n      0x1f\n      lt\n      tag_180\n      jumpi\n      dup1\n      mload\n      not(0xff)\n      and\n      dup4\n      dup1\n      add\n      or\n      dup6\n      sstore\n      jump(tag_178)\n    tag_180:\n      dup3\n      dup1\n      add\n      0x01\n      add\n      dup6\n      sstore\n      dup3\n      iszero\n      tag_178\n      jumpi\n      swap2\n      dup3\n      add\n    tag_181:\n      dup3\n      dup2\n      gt\n      iszero\n      tag_182\n      jumpi\n      dup3\n      mload\n      dup3\n      sstore\n      swap2\n      0x20\n      add\n      swap2\n      swap1\n      0x01\n      add\n      swap1\n      jump(tag_181)\n    tag_182:\n    tag_178:\n      pop\n      swap1\n      pop\n      tag_183\n      swap2\n      swap1\n      tag_184\n      jump\t// in\n    tag_183:\n      pop\n      swap1\n      jump\t// out\n    tag_184:\n    tag_185:\n      dup1\n      dup3\n      gt\n      iszero\n      tag_186\n      jumpi\n      0x00\n      dup2\n      0x00\n      swap1\n      sstore\n      pop\n      0x01\n      add\n      jump(tag_185)\n    tag_186:\n      pop\n      swap1\n      jump\t// out\n        /* \"#utility.yul\":7:106   */\n    tag_187:\n        /* \"#utility.yul\":59:65   */\n      0x00\n        /* \"#utility.yul\":93:98   */\n      dup2\n        /* \"#utility.yul\":87:99   */\n      mload\n        /* \"#utility.yul\":77:99   */\n      swap1\n      pop\n        /* \"#utility.yul\":7:106   */\n      swap2\n      swap1\n      pop\n      jump\t// out\n        /* \"#utility.yul\":112:281   */\n    tag_188:\n        /* \"#utility.yul\":196:207   */\n      0x00\n        /* \"#utility.yul\":230:236   */\n      dup3\n        /* \"#utility.yul\":225:228   */\n      dup3\n        /* \"#utility.yul\":218:237   */\n      mstore\n        /* \"#utility.yul\":270:274   */\n      0x20\n        /* \"#utility.yul\":265:268   */\n      dup3\n        /* \"#utility.yul\":261:275   */\n      add\n        /* \"#utility.yul\":246:275   */\n      swap1\n      pop\n        /* \"#utility.yul\":112:281   */\n      swap3\n      swap2\n      pop\n      pop\n      jump\t// out\n        /* \"#utility.yul\":287:594   */\n    tag_189:\n        /* \"#utility.yul\":355:356   */\n      0x00\n        /* \"#utility.yul\":365:478   */\n    tag_236:\n        /* \"#utility.yul\":379:385   */\n      dup4\n        /* \"#utility.yul\":376:377   */\n      dup2\n        /* \"#utility.yul\":373:386   */\n      lt\n        /* \"#utility.yul\":365:478   */\n      iszero\n      tag_238\n      jumpi\n        /* \"#utility.yul\":464:465   */\n      dup1\n        /* \"#utility.yul\":459:462   */\n      dup3\n        /* \"#utility.yul\":455:466   */\n      add\n        /* \"#utility.yul\":449:467   */\n      mload\n        /* \"#utility.yul\":445:446   */\n      dup2\n        /* \"#utility.yul\":440:443   */\n      dup5\n        /* \"#utility.yul\":436:447   */\n      add\n        /* \"#utility.yul\":429:468   */\n      mstore\n        /* \"#utility.yul\":401:403   */\n      0x20\n        /* \"#utility.yul\":398:399   */\n      dup2\n        /* \"#utility.yul\":394:404   */\n      add\n        /* \"#utility.yul\":389:404   */\n      swap1\n      pop\n        /* \"#utility.yul\":365:478   */\n      jump(tag_236)\n    tag_238:\n        /* \"#utility.yul\":496:502   */\n      dup4\n        /* \"#utility.yul\":493:494   */\n      dup2\n        /* \"#utility.yul\":490:503   */\n      gt\n        /* \"#utility.yul\":487:588   */\n      iszero\n      tag_239\n      jumpi\n        /* \"#utility.yul\":576:577   */\n      0x00\n        /* \"#utility.yul\":567:573   */\n      dup5\n        /* \"#utility.yul\":562:565   */\n      dup5\n        /* \"#utility.yul\":558:574   */\n      add\n        /* \"#utility.yul\":551:578   */\n      mstore\n        /* \"#utility.yul\":487:588   */\n    tag_239:\n        /* \"#utility.yul\":336:594   */\n      pop\n        /* \"#utility.yul\":287:594   */\n      pop\n      pop\n      pop\n      jump\t// out\n        /* \"#utility.yul\":600:702   */\n    tag_190:\n        /* \"#utility.yul\":641:647   */\n      0x00\n        /* \"#utility.yul\":692:694   */\n      0x1f\n        /* \"#utility.yul\":688:695   */\n      not\n        /* \"#utility.yul\":683:685   */\n      0x1f\n        /* \"#utility.yul\":676:681   */\n      dup4\n        /* \"#utility.yul\":672:686   */\n      add\n        /* \"#utility.yul\":668:696   */\n      and\n        /* \"#utility.yul\":658:696   */\n      swap1\n      pop\n        /* \"#utility.yul\":600:702   */\n      swap2\n      swap1\n      pop\n      jump\t// out\n        /* \"#utility.yul\":708:1072   */\n    tag_191:\n        /* \"#utility.yul\":796:799   */\n      0x00\n        /* \"#utility.yul\":824:863   */\n      tag_242\n        /* \"#utility.yul\":857:862   */\n      dup3\n        /* \"#utility.yul\":824:863   */\n      tag_187\n      jump\t// in\n    tag_242:\n        /* \"#utility.yul\":879:950   */\n      tag_243\n        /* \"#utility.yul\":943:949   */\n      dup2\n        /* \"#utility.yul\":938:941   */\n      dup6\n        /* \"#utility.yul\":879:950   */\n      tag_188\n      jump\t// in\n    tag_243:\n        /* \"#utility.yul\":872:950   */\n      swap4\n      pop\n        /* \"#utility.yul\":959:1011   */\n      tag_244\n        /* \"#utility.yul\":1004:1010   */\n      dup2\n        /* \"#utility.yul\":999:1002   */\n      dup6\n        /* \"#utility.yul\":992:996   */\n      0x20\n        /* \"#utility.yul\":985:990   */\n      dup7\n        /* \"#utility.yul\":981:997   */\n      add\n        /* \"#utility.yul\":959:1011   */\n      tag_189\n      jump\t// in\n    tag_244:\n        /* \"#utility.yul\":1036:1065   */\n      tag_245\n        /* \"#utility.yul\":1058:1064   */\n      dup2\n        /* \"#utility.yul\":1036:1065   */\n      tag_190\n      jump\t// in\n    tag_245:\n        /* \"#utility.yul\":1031:1034   */\n      dup5\n        /* \"#utility.yul\":1027:1066   */\n      add\n        /* \"#utility.yul\":1020:1066   */\n      swap2\n      pop\n        /* \"#utility.yul\":800:1072   */\n      pop\n        /* \"#utility.yul\":708:1072   */\n      swap3\n      swap2\n      pop\n      pop\n      jump\t// out\n        /* \"#utility.yul\":1078:1391   */\n    tag_26:\n        /* \"#utility.yul\":1191:1195   */\n      0x00\n        /* \"#utility.yul\":1229:1231   */\n      0x20\n        /* \"#utility.yul\":1218:1227   */\n      dup3\n        /* \"#utility.yul\":1214:1232   */\n      add\n        /* \"#utility.yul\":1206:1232   */\n      swap1\n      pop\n        /* \"#utility.yul\":1278:1287   */\n      dup2\n        /* \"#utility.yul\":1272:1276   */\n      dup2\n        /* \"#utility.yul\":1268:1288   */\n      sub\n        /* \"#utility.yul\":1264:1265   */\n      0x00\n        /* \"#utility.yul\":1253:1262   */\n      dup4\n        /* \"#utility.yul\":1249:1266   */\n      add\n        /* \"#utility.yul\":1242:1289   */\n      mstore\n        /* \"#utility.yul\":1306:1384   */\n      tag_247\n        /* \"#utility.yul\":1379:1383   */\n      dup2\n        /* \"#utility.yul\":1370:1376   */\n      dup5\n        /* \"#utility.yul\":1306:1384   */\n      tag_191\n      jump\t// in\n    tag_247:\n        /* \"#utility.yul\":1298:1384   */\n      swap1\n      pop\n        /* \"#utility.yul\":1078:1391   */\n      swap3\n      swap2\n      pop\n      pop\n      jump\t// out\n        /* \"#utility.yul\":1397:1472   */\n    tag_192:\n        /* \"#utility.yul\":1430:1436   */\n      0x00\n        /* \"#utility.yul\":1463:1465   */\n      0x40\n        /* \"#utility.yul\":1457:1466   */\n      mload\n        /* \"#utility.yul\":1447:1466   */\n      swap1\n      pop\n        /* \"#utility.yul\":1397:1472   */\n      swap1\n      jump\t// out\n        /* \"#utility.yul\":1478:1595   */\n    tag_193:\n        /* \"#utility.yul\":1587:1588   */\n      0x00\n        /* \"#utility.yul\":1584:1585   */\n      dup1\n        /* \"#utility.yul\":1577:1589   */\n      revert\n        /* \"#utility.yul\":1601:1718   */\n    tag_194:\n        /* \"#utility.yul\":1710:1711   */\n      0x00\n        /* \"#utility.yul\":1707:1708   */\n      dup1\n        /* \"#utility.yul\":1700:1712   */\n      revert\n        /* \"#utility.yul\":1724:1841   */\n    tag_195:\n        /* \"#utility.yul\":1833:1834   */\n      0x00\n        /* \"#utility.yul\":1830:1831   */\n      dup1\n        /* \"#utility.yul\":1823:1835   */\n      revert\n        /* \"#utility.yul\":1847:1964   */\n    tag_196:\n        /* \"#utility.yul\":1956:1957   */\n      0x00\n        /* \"#utility.yul\":1953:1954   */\n      dup1\n        /* \"#utility.yul\":1946:1958   */\n      revert\n        /* \"#utility.yul\":1970:2150   */\n    tag_197:\n        /* \"#utility.yul\":2018:2095   */\n      0x4e487b7100000000000000000000000000000000000000000000000000000000\n        /* \"#utility.yul\":2015:2016   */\n      0x00\n        /* \"#utility.yul\":2008:2096   */\n      mstore\n        /* \"#utility.yul\":2115:2119   */\n      0x41\n        /* \"#utility.yul\":2112:2113   */\n      0x04\n        /* \"#utility.yul\":2105:2120   */\n      mstore\n        /* \"#utility.yul\":2139:2143   */\n      0x24\n        /* \"#utility.yul\":2136:2137   */\n      0x00\n        /* \"#utility.yul\":2129:2144   */\n      revert\n        /* \"#utility.yul\":2156:2437   */\n    tag_198:\n        /* \"#utility.yul\":2239:2266   */\n      tag_255\n        /* \"#utility.yul\":2261:2265   */\n      dup3\n        /* \"#utility.yul\":2239:2266   */\n      tag_190\n      jump\t// in\n    tag_255:\n        /* \"#utility.yul\":2231:2237   */\n      dup2\n        /* \"#utility.yul\":2227:2267   */\n      add\n        /* \"#utility.yul\":2369:2375   */\n      dup2\n        /* \"#utility.yul\":2357:2367   */\n      dup2\n        /* \"#utility.yul\":2354:2376   */\n      lt\n        /* \"#utility.yul\":2333:2351   */\n      0xffffffffffffffff\n        /* \"#utility.yul\":2321:2331   */\n      dup3\n        /* \"#utility.yul\":2318:2352   */\n      gt\n        /* \"#utility.yul\":2315:2377   */\n      or\n        /* \"#utility.yul\":2312:2400   */\n      iszero\n      tag_256\n      jumpi\n        /* \"#utility.yul\":2380:2398   */\n      tag_257\n      tag_197\n      jump\t// in\n    tag_257:\n        /* \"#utility.yul\":2312:2400   */\n    tag_256:\n        /* \"#utility.yul\":2420:2430   */\n      dup1\n        /* \"#utility.yul\":2416:2418   */\n      0x40\n        /* \"#utility.yul\":2409:2431   */\n      mstore\n        /* \"#utility.yul\":2199:2437   */\n      pop\n        /* \"#utility.yul\":2156:2437   */\n      pop\n      pop\n      jump\t// out\n        /* \"#utility.yul\":2443:2572   */\n    tag_199:\n        /* \"#utility.yul\":2477:2483   */\n      0x00\n        /* \"#utility.yul\":2504:2524   */\n      tag_259\n      tag_192\n      jump\t// in\n    tag_259:\n        /* \"#utility.yul\":2494:2524   */\n      swap1\n      pop\n        /* \"#utility.yul\":2533:2566   */\n      tag_260\n        /* \"#utility.yul\":2561:2565   */\n      dup3\n        /* \"#utility.yul\":2553:2559   */\n      dup3\n        /* \"#utility.yul\":2533:2566   */\n      tag_198\n      jump\t// in\n    tag_260:\n        /* \"#utility.yul\":2443:2572   */\n      swap2\n      swap1\n      pop\n      jump\t// out\n        /* \"#utility.yul\":2578:2886   */\n    tag_200:\n        /* \"#utility.yul\":2640:2644   */\n      0x00\n        /* \"#utility.yul\":2730:2748   */\n      0xffffffffffffffff\n        /* \"#utility.yul\":2722:2728   */\n      dup3\n        /* \"#utility.yul\":2719:2749   */\n      gt\n        /* \"#utility.yul\":2716:2772   */\n      iszero\n      tag_262\n      jumpi\n        /* \"#utility.yul\":2752:2770   */\n      tag_263\n      tag_197\n      jump\t// in\n    tag_263:\n        /* \"#utility.yul\":2716:2772   */\n    tag_262:\n        /* \"#utility.yul\":2790:2819   */\n      tag_264\n        /* \"#utility.yul\":2812:2818   */\n      dup3\n        /* \"#utility.yul\":2790:2819   */\n      tag_190\n      jump\t// in\n    tag_264:\n        /* \"#utility.yul\":2782:2819   */\n      swap1\n      pop\n        /* \"#utility.yul\":2874:2878   */\n      0x20\n        /* \"#utility.yul\":2868:2872   */\n      dup2\n        /* \"#utility.yul\":2864:2879   */\n      add\n        /* \"#utility.yul\":2856:2879   */\n      swap1\n      pop\n        /* \"#utility.yul\":2578:2886   */\n      swap2\n      swap1\n      pop\n      jump\t// out\n        /* \"#utility.yul\":2892:3046   */\n    tag_201:\n        /* \"#utility.yul\":2976:2982   */\n      dup3\n        /* \"#utility.yul\":2971:2974   */\n      dup2\n        /* \"#utility.yul\":2966:2969   */\n      dup4\n        /* \"#utility.yul\":2953:2983   */\n      calldatacopy\n        /* \"#utility.yul\":3038:3039   */\n      0x00\n        /* \"#utility.yul\":3029:3035   */\n      dup4\n        /* \"#utility.yul\":3024:3027   */\n      dup4\n        /* \"#utility.yul\":3020:3036   */\n      add\n        /* \"#utility.yul\":3013:3040   */\n      mstore\n        /* \"#utility.yul\":2892:3046   */\n      pop\n      pop\n      pop\n      jump\t// out\n        /* \"#utility.yul\":3052:3464   */\n    tag_202:\n        /* \"#utility.yul\":3130:3135   */\n      0x00\n        /* \"#utility.yul\":3155:3221   */\n      tag_267\n        /* \"#utility.yul\":3171:3220   */\n      tag_268\n        /* \"#utility.yul\":3213:3219   */\n      dup5\n        /* \"#utility.yul\":3171:3220   */\n      tag_200\n      jump\t// in\n    tag_268:\n        /* \"#utility.yul\":3155:3221   */\n      tag_199\n      jump\t// in\n    tag_267:\n        /* \"#utility.yul\":3146:3221   */\n      swap1\n      pop\n        /* \"#utility.yul\":3244:3250   */\n      dup3\n        /* \"#utility.yul\":3237:3242   */\n      dup2\n        /* \"#utility.yul\":3230:3251   */\n      mstore\n        /* \"#utility.yul\":3282:3286   */\n      0x20\n        /* \"#utility.yul\":3275:3280   */\n      dup2\n        /* \"#utility.yul\":3271:3287   */\n      add\n        /* \"#utility.yul\":3320:3323   */\n      dup5\n        /* \"#utility.yul\":3311:3317   */\n      dup5\n        /* \"#utility.yul\":3306:3309   */\n      dup5\n        /* \"#utility.yul\":3302:3318   */\n      add\n        /* \"#utility.yul\":3299:3324   */\n      gt\n        /* \"#utility.yul\":3296:3408   */\n      iszero\n      tag_269\n      jumpi\n        /* \"#utility.yul\":3327:3406   */\n      tag_270\n      tag_196\n      jump\t// in\n    tag_270:\n        /* \"#utility.yul\":3296:3408   */\n    tag_269:\n        /* \"#utility.yul\":3417:3458   */\n      tag_271\n        /* \"#utility.yul\":3451:3457   */\n      dup5\n        /* \"#utility.yul\":3446:3449   */\n      dup3\n        /* \"#utility.yul\":3441:3444   */\n      dup6\n        /* \"#utility.yul\":3417:3458   */\n      tag_201\n      jump\t// in\n    tag_271:\n        /* \"#utility.yul\":3136:3464   */\n      pop\n        /* \"#utility.yul\":3052:3464   */\n      swap4\n      swap3\n      pop\n      pop\n      pop\n      jump\t// out\n        /* \"#utility.yul\":3484:3824   */\n    tag_203:\n        /* \"#utility.yul\":3540:3545   */\n      0x00\n        /* \"#utility.yul\":3589:3592   */\n      dup3\n        /* \"#utility.yul\":3582:3586   */\n      0x1f\n        /* \"#utility.yul\":3574:3580   */\n      dup4\n        /* \"#utility.yul\":3570:3587   */\n      add\n        /* \"#utility.yul\":3566:3593   */\n      slt\n        /* \"#utility.yul\":3556:3678   */\n      tag_273\n      jumpi\n        /* \"#utility.yul\":3597:3676   */\n      tag_274\n      tag_195\n      jump\t// in\n    tag_274:\n        /* \"#utility.yul\":3556:3678   */\n    tag_273:\n        /* \"#utility.yul\":3714:3720   */\n      dup2\n        /* \"#utility.yul\":3701:3721   */\n      calldataload\n        /* \"#utility.yul\":3739:3818   */\n      tag_275\n        /* \"#utility.yul\":3814:3817   */\n      dup5\n        /* \"#utility.yul\":3806:3812   */\n      dup3\n        /* \"#utility.yul\":3799:3803   */\n      0x20\n        /* \"#utility.yul\":3791:3797   */\n      dup7\n        /* \"#utility.yul\":3787:3804   */\n      add\n        /* \"#utility.yul\":3739:3818   */\n      tag_202\n      jump\t// in\n    tag_275:\n        /* \"#utility.yul\":3730:3818   */\n      swap2\n      pop\n        /* \"#utility.yul\":3546:3824   */\n      pop\n        /* \"#utility.yul\":3484:3824   */\n      swap3\n      swap2\n      pop\n      pop\n      jump\t// out\n        /* \"#utility.yul\":3830:4339   */\n    tag_31:\n        /* \"#utility.yul\":3899:3905   */\n      0x00\n        /* \"#utility.yul\":3948:3950   */\n      0x20\n        /* \"#utility.yul\":3936:3945   */\n      dup3\n        /* \"#utility.yul\":3927:3934   */\n      dup5\n        /* \"#utility.yul\":3923:3946   */\n      sub\n        /* \"#utility.yul\":3919:3951   */\n      slt\n        /* \"#utility.yul\":3916:4035   */\n      iszero\n      tag_277\n      jumpi\n        /* \"#utility.yul\":3954:4033   */\n      tag_278\n      tag_193\n      jump\t// in\n    tag_278:\n        /* \"#utility.yul\":3916:4035   */\n    tag_277:\n        /* \"#utility.yul\":4102:4103   */\n      0x00\n        /* \"#utility.yul\":4091:4100   */\n      dup3\n        /* \"#utility.yul\":4087:4104   */\n      add\n        /* \"#utility.yul\":4074:4105   */\n      calldataload\n        /* \"#utility.yul\":4132:4150   */\n      0xffffffffffffffff\n        /* \"#utility.yul\":4124:4130   */\n      dup2\n        /* \"#utility.yul\":4121:4151   */\n      gt\n        /* \"#utility.yul\":4118:4235   */\n      iszero\n      tag_279\n      jumpi\n        /* \"#utility.yul\":4154:4233   */\n      tag_280\n      tag_194\n      jump\t// in\n    tag_280:\n        /* \"#utility.yul\":4118:4235   */\n    tag_279:\n        /* \"#utility.yul\":4259:4322   */\n      tag_281\n        /* \"#utility.yul\":4314:4321   */\n      dup5\n        /* \"#utility.yul\":4305:4311   */\n      dup3\n        /* \"#utility.yul\":4294:4303   */\n      dup6\n        /* \"#utility.yul\":4290:4312   */\n      add\n        /* \"#utility.yul\":4259:4322   */\n      tag_203\n      jump\t// in\n    tag_281:\n        /* \"#utility.yul\":4249:4322   */\n      swap2\n      pop\n        /* \"#utility.yul\":4045:4332   */\n      pop\n        /* \"#utility.yul\":3830:4339   */\n      swap3\n      swap2\n      pop\n      pop\n      jump\t// out\n        /* \"#utility.yul\":4345:4422   */\n    tag_204:\n        /* \"#utility.yul\":4382:4389   */\n      0x00\n        /* \"#utility.yul\":4411:4416   */\n      dup2\n        /* \"#utility.yul\":4400:4416   */\n      swap1\n      pop\n        /* \"#utility.yul\":4345:4422   */\n      swap2\n      swap1\n      pop\n      jump\t// out\n        /* \"#utility.yul\":4428:4550   */\n    tag_205:\n        /* \"#utility.yul\":4501:4525   */\n      tag_284\n        /* \"#utility.yul\":4519:4524   */\n      dup2\n        /* \"#utility.yul\":4501:4525   */\n      tag_204\n      jump\t// in\n    tag_284:\n        /* \"#utility.yul\":4494:4499   */\n      dup2\n        /* \"#utility.yul\":4491:4526   */\n      eq\n        /* \"#utility.yul\":4481:4544   */\n      tag_285\n      jumpi\n        /* \"#utility.yul\":4540:4541   */\n      0x00\n        /* \"#utility.yul\":4537:4538   */\n      dup1\n        /* \"#utility.yul\":4530:4542   */\n      revert\n        /* \"#utility.yul\":4481:4544   */\n    tag_285:\n        /* \"#utility.yul\":4428:4550   */\n      pop\n      jump\t// out\n        /* \"#utility.yul\":4556:4695   */\n    tag_206:\n        /* \"#utility.yul\":4602:4607   */\n      0x00\n        /* \"#utility.yul\":4640:4646   */\n      dup2\n        /* \"#utility.yul\":4627:4647   */\n      calldataload\n        /* \"#utility.yul\":4618:4647   */\n      swap1\n      pop\n        /* \"#utility.yul\":4656:4689   */\n      tag_287\n        /* \"#utility.yul\":4683:4688   */\n      dup2\n        /* \"#utility.yul\":4656:4689   */\n      tag_205\n      jump\t// in\n    tag_287:\n        /* \"#utility.yul\":4556:4695   */\n      swap3\n      swap2\n      pop\n      pop\n      jump\t// out\n        /* \"#utility.yul\":4701:5030   */\n    tag_35:\n        /* \"#utility.yul\":4760:4766   */\n      0x00\n        /* \"#utility.yul\":4809:4811   */\n      0x20\n        /* \"#utility.yul\":4797:4806   */\n      dup3\n        /* \"#utility.yul\":4788:4795   */\n      dup5\n        /* \"#utility.yul\":4784:4807   */\n      sub\n        /* \"#utility.yul\":4780:4812   */\n      slt\n        /* \"#utility.yul\":4777:4896   */\n      iszero\n      tag_289\n      jumpi\n        /* \"#utility.yul\":4815:4894   */\n      tag_290\n      tag_193\n      jump\t// in\n    tag_290:\n        /* \"#utility.yul\":4777:4896   */\n    tag_289:\n        /* \"#utility.yul\":4935:4936   */\n      0x00\n        /* \"#utility.yul\":4960:5013   */\n      tag_291\n        /* \"#utility.yul\":5005:5012   */\n      dup5\n        /* \"#utility.yul\":4996:5002   */\n      dup3\n        /* \"#utility.yul\":4985:4994   */\n      dup6\n        /* \"#utility.yul\":4981:5003   */\n      add\n        /* \"#utility.yul\":4960:5013   */\n      tag_206\n      jump\t// in\n    tag_291:\n        /* \"#utility.yul\":4950:5013   */\n      swap2\n      pop\n        /* \"#utility.yul\":4906:5023   */\n      pop\n        /* \"#utility.yul\":4701:5030   */\n      swap3\n      swap2\n      pop\n      pop\n      jump\t// out\n        /* \"#utility.yul\":5036:5162   */\n    tag_207:\n        /* \"#utility.yul\":5073:5080   */\n      0x00\n        /* \"#utility.yul\":5113:5155   */\n      0xffffffffffffffffffffffffffffffffffffffff\n        /* \"#utility.yul\":5106:5111   */\n      dup3\n        /* \"#utility.yul\":5102:5156   */\n      and\n        /* \"#utility.yul\":5091:5156   */\n      swap1\n      pop\n        /* \"#utility.yul\":5036:5162   */\n      swap2\n      swap1\n      pop\n      jump\t// out\n        /* \"#utility.yul\":5168:5272   */\n    tag_208:\n        /* \"#utility.yul\":5213:5220   */\n      0x00\n        /* \"#utility.yul\":5242:5266   */\n      tag_294\n        /* \"#utility.yul\":5260:5265   */\n      dup3\n        /* \"#utility.yul\":5242:5266   */\n      tag_207\n      jump\t// in\n    tag_294:\n        /* \"#utility.yul\":5231:5266   */\n      swap1\n      pop\n        /* \"#utility.yul\":5168:5272   */\n      swap2\n      swap1\n      pop\n      jump\t// out\n        /* \"#utility.yul\":5278:5420   */\n    tag_209:\n        /* \"#utility.yul\":5381:5413   */\n      tag_296\n        /* \"#utility.yul\":5407:5412   */\n      dup2\n        /* \"#utility.yul\":5381:5413   */\n      tag_208\n      jump\t// in\n    tag_296:\n        /* \"#utility.yul\":5376:5379   */\n      dup3\n        /* \"#utility.yul\":5369:5414   */\n      mstore\n        /* \"#utility.yul\":5278:5420   */\n      pop\n      pop\n      jump\t// out\n        /* \"#utility.yul\":5426:5680   */\n    tag_38:\n        /* \"#utility.yul\":5535:5539   */\n      0x00\n        /* \"#utility.yul\":5573:5575   */\n      0x20\n        /* \"#utility.yul\":5562:5571   */\n      dup3\n        /* \"#utility.yul\":5558:5576   */\n      add\n        /* \"#utility.yul\":5550:5576   */\n      swap1\n      pop\n        /* \"#utility.yul\":5586:5673   */\n      tag_298\n        /* \"#utility.yul\":5670:5671   */\n      0x00\n        /* \"#utility.yul\":5659:5668   */\n      dup4\n        /* \"#utility.yul\":5655:5672   */\n      add\n        /* \"#utility.yul\":5646:5652   */\n      dup5\n        /* \"#utility.yul\":5586:5673   */\n      tag_209\n      jump\t// in\n    tag_298:\n        /* \"#utility.yul\":5426:5680   */\n      swap3\n      swap2\n      pop\n      pop\n      jump\t// out\n        /* \"#utility.yul\":5686:5810   */\n    tag_210:\n        /* \"#utility.yul\":5763:5769   */\n      0x00\n        /* \"#utility.yul\":5797:5802   */\n      dup2\n        /* \"#utility.yul\":5791:5803   */\n      mload\n        /* \"#utility.yul\":5781:5803   */\n      swap1\n      pop\n        /* \"#utility.yul\":5686:5810   */\n      swap2\n      swap1\n      pop\n      jump\t// out\n        /* \"#utility.yul\":5816:6010   */\n    tag_211:\n        /* \"#utility.yul\":5925:5936   */\n      0x00\n        /* \"#utility.yul\":5959:5965   */\n      dup3\n        /* \"#utility.yul\":5954:5957   */\n      dup3\n        /* \"#utility.yul\":5947:5966   */\n      mstore\n        /* \"#utility.yul\":5999:6003   */\n      0x20\n        /* \"#utility.yul\":5994:5997   */\n      dup3\n        /* \"#utility.yul\":5990:6004   */\n      add\n        /* \"#utility.yul\":5975:6004   */\n      swap1\n      pop\n        /* \"#utility.yul\":5816:6010   */\n      swap3\n      swap2\n      pop\n      pop\n      jump\t// out\n        /* \"#utility.yul\":6016:6158   */\n    tag_212:\n        /* \"#utility.yul\":6093:6097   */\n      0x00\n        /* \"#utility.yul\":6116:6119   */\n      dup2\n        /* \"#utility.yul\":6108:6119   */\n      swap1\n      pop\n        /* \"#utility.yul\":6146:6150   */\n      0x20\n        /* \"#utility.yul\":6141:6144   */\n      dup3\n        /* \"#utility.yul\":6137:6151   */\n      add\n        /* \"#utility.yul\":6129:6151   */\n      swap1\n      pop\n        /* \"#utility.yul\":6016:6158   */\n      swap2\n      swap1\n      pop\n      jump\t// out\n        /* \"#utility.yul\":6164:6323   */\n    tag_213:\n        /* \"#utility.yul\":6238:6249   */\n      0x00\n        /* \"#utility.yul\":6272:6278   */\n      dup3\n        /* \"#utility.yul\":6267:6270   */\n      dup3\n        /* \"#utility.yul\":6260:6279   */\n      mstore\n        /* \"#utility.yul\":6312:6316   */\n      0x20\n        /* \"#utility.yul\":6307:6310   */\n      dup3\n        /* \"#utility.yul\":6303:6317   */\n      add\n        /* \"#utility.yul\":6288:6317   */\n      swap1\n      pop\n        /* \"#utility.yul\":6164:6323   */\n      swap3\n      swap2\n      pop\n      pop\n      jump\t// out\n        /* \"#utility.yul\":6329:6673   */\n    tag_214:\n        /* \"#utility.yul\":6407:6410   */\n      0x00\n        /* \"#utility.yul\":6435:6474   */\n      tag_304\n        /* \"#utility.yul\":6468:6473   */\n      dup3\n        /* \"#utility.yul\":6435:6474   */\n      tag_187\n      jump\t// in\n    tag_304:\n        /* \"#utility.yul\":6490:6551   */\n      tag_305\n        /* \"#utility.yul\":6544:6550   */\n      dup2\n        /* \"#utility.yul\":6539:6542   */\n      dup6\n        /* \"#utility.yul\":6490:6551   */\n      tag_213\n      jump\t// in\n    tag_305:\n        /* \"#utility.yul\":6483:6551   */\n      swap4\n      pop\n        /* \"#utility.yul\":6560:6612   */\n      tag_306\n        /* \"#utility.yul\":6605:6611   */\n      dup2\n        /* \"#utility.yul\":6600:6603   */\n      dup6\n        /* \"#utility.yul\":6593:6597   */\n      0x20\n        /* \"#utility.yul\":6586:6591   */\n      dup7\n        /* \"#utility.yul\":6582:6598   */\n      add\n        /* \"#utility.yul\":6560:6612   */\n      tag_189\n      jump\t// in\n    tag_306:\n        /* \"#utility.yul\":6637:6666   */\n      tag_307\n        /* \"#utility.yul\":6659:6665   */\n      dup2\n        /* \"#utility.yul\":6637:6666   */\n      tag_190\n      jump\t// in\n    tag_307:\n        /* \"#utility.yul\":6632:6635   */\n      dup5\n        /* \"#utility.yul\":6628:6667   */\n      add\n        /* \"#utility.yul\":6621:6667   */\n      swap2\n      pop\n        /* \"#utility.yul\":6411:6673   */\n      pop\n        /* \"#utility.yul\":6329:6673   */\n      swap3\n      swap2\n      pop\n      pop\n      jump\t// out\n        /* \"#utility.yul\":6679:6875   */\n    tag_215:\n        /* \"#utility.yul\":6768:6778   */\n      0x00\n        /* \"#utility.yul\":6803:6869   */\n      tag_309\n        /* \"#utility.yul\":6865:6868   */\n      dup4\n        /* \"#utility.yul\":6857:6863   */\n      dup4\n        /* \"#utility.yul\":6803:6869   */\n      tag_214\n      jump\t// in\n    tag_309:\n        /* \"#utility.yul\":6789:6869   */\n      swap1\n      pop\n        /* \"#utility.yul\":6679:6875   */\n      swap3\n      swap2\n      pop\n      pop\n      jump\t// out\n        /* \"#utility.yul\":6881:7004   */\n    tag_216:\n        /* \"#utility.yul\":6961:6965   */\n      0x00\n        /* \"#utility.yul\":6993:6997   */\n      0x20\n        /* \"#utility.yul\":6988:6991   */\n      dup3\n        /* \"#utility.yul\":6984:6998   */\n      add\n        /* \"#utility.yul\":6976:6998   */\n      swap1\n      pop\n        /* \"#utility.yul\":6881:7004   */\n      swap2\n      swap1\n      pop\n      jump\t// out\n        /* \"#utility.yul\":7038:8029   */\n    tag_217:\n        /* \"#utility.yul\":7177:7180   */\n      0x00\n        /* \"#utility.yul\":7206:7270   */\n      tag_312\n        /* \"#utility.yul\":7264:7269   */\n      dup3\n        /* \"#utility.yul\":7206:7270   */\n      tag_210\n      jump\t// in\n    tag_312:\n        /* \"#utility.yul\":7286:7382   */\n      tag_313\n        /* \"#utility.yul\":7375:7381   */\n      dup2\n        /* \"#utility.yul\":7370:7373   */\n      dup6\n        /* \"#utility.yul\":7286:7382   */\n      tag_211\n      jump\t// in\n    tag_313:\n        /* \"#utility.yul\":7279:7382   */\n      swap4\n      pop\n        /* \"#utility.yul\":7408:7411   */\n      dup4\n        /* \"#utility.yul\":7453:7457   */\n      0x20\n        /* \"#utility.yul\":7445:7451   */\n      dup3\n        /* \"#utility.yul\":7441:7458   */\n      mul\n        /* \"#utility.yul\":7436:7439   */\n      dup6\n        /* \"#utility.yul\":7432:7459   */\n      add\n        /* \"#utility.yul\":7483:7549   */\n      tag_314\n        /* \"#utility.yul\":7543:7548   */\n      dup6\n        /* \"#utility.yul\":7483:7549   */\n      tag_212\n      jump\t// in\n    tag_314:\n        /* \"#utility.yul\":7572:7579   */\n      dup1\n        /* \"#utility.yul\":7603:7604   */\n      0x00\n        /* \"#utility.yul\":7588:7984   */\n    tag_315:\n        /* \"#utility.yul\":7613:7619   */\n      dup6\n        /* \"#utility.yul\":7610:7611   */\n      dup2\n        /* \"#utility.yul\":7607:7620   */\n      lt\n        /* \"#utility.yul\":7588:7984   */\n      iszero\n      tag_317\n      jumpi\n        /* \"#utility.yul\":7684:7693   */\n      dup5\n        /* \"#utility.yul\":7678:7682   */\n      dup5\n        /* \"#utility.yul\":7674:7694   */\n      sub\n        /* \"#utility.yul\":7669:7672   */\n      dup10\n        /* \"#utility.yul\":7662:7695   */\n      mstore\n        /* \"#utility.yul\":7735:7741   */\n      dup2\n        /* \"#utility.yul\":7729:7742   */\n      mload\n        /* \"#utility.yul\":7763:7847   */\n      tag_318\n        /* \"#utility.yul\":7842:7846   */\n      dup6\n        /* \"#utility.yul\":7827:7840   */\n      dup3\n        /* \"#utility.yul\":7763:7847   */\n      tag_215\n      jump\t// in\n    tag_318:\n        /* \"#utility.yul\":7755:7847   */\n      swap5\n      pop\n        /* \"#utility.yul\":7870:7940   */\n      tag_319\n        /* \"#utility.yul\":7933:7939   */\n      dup4\n        /* \"#utility.yul\":7870:7940   */\n      tag_216\n      jump\t// in\n    tag_319:\n        /* \"#utility.yul\":7860:7940   */\n      swap3\n      pop\n        /* \"#utility.yul\":7969:7973   */\n      0x20\n        /* \"#utility.yul\":7964:7967   */\n      dup11\n        /* \"#utility.yul\":7960:7974   */\n      add\n        /* \"#utility.yul\":7953:7974   */\n      swap10\n      pop\n        /* \"#utility.yul\":7648:7984   */\n      pop\n        /* \"#utility.yul\":7635:7636   */\n      0x01\n        /* \"#utility.yul\":7632:7633   */\n      dup2\n        /* \"#utility.yul\":7628:7637   */\n      add\n        /* \"#utility.yul\":7623:7637   */\n      swap1\n      pop\n        /* \"#utility.yul\":7588:7984   */\n      jump(tag_315)\n    tag_317:\n        /* \"#utility.yul\":7592:7606   */\n      pop\n        /* \"#utility.yul\":8000:8004   */\n      dup3\n        /* \"#utility.yul\":7993:8004   */\n      swap8\n      pop\n        /* \"#utility.yul\":8020:8023   */\n      dup8\n        /* \"#utility.yul\":8013:8023   */\n      swap6\n      pop\n        /* \"#utility.yul\":7182:8029   */\n      pop\n      pop\n      pop\n      pop\n      pop\n        /* \"#utility.yul\":7038:8029   */\n      swap3\n      swap2\n      pop\n      pop\n      jump\t// out\n        /* \"#utility.yul\":8035:8125   */\n    tag_218:\n        /* \"#utility.yul\":8069:8076   */\n      0x00\n        /* \"#utility.yul\":8112:8117   */\n      dup2\n        /* \"#utility.yul\":8105:8118   */\n      iszero\n        /* \"#utility.yul\":8098:8119   */\n      iszero\n        /* \"#utility.yul\":8087:8119   */\n      swap1\n      pop\n        /* \"#utility.yul\":8035:8125   */\n      swap2\n      swap1\n      pop\n      jump\t// out\n        /* \"#utility.yul\":8131:8240   */\n    tag_219:\n        /* \"#utility.yul\":8212:8233   */\n      tag_322\n        /* \"#utility.yul\":8227:8232   */\n      dup2\n        /* \"#utility.yul\":8212:8233   */\n      tag_218\n      jump\t// in\n    tag_322:\n        /* \"#utility.yul\":8207:8210   */\n      dup3\n        /* \"#utility.yul\":8200:8234   */\n      mstore\n        /* \"#utility.yul\":8131:8240   */\n      pop\n      pop\n      jump\t// out\n        /* \"#utility.yul\":8246:8368   */\n    tag_220:\n        /* \"#utility.yul\":8321:8327   */\n      0x00\n        /* \"#utility.yul\":8355:8360   */\n      dup2\n        /* \"#utility.yul\":8349:8361   */\n      mload\n        /* \"#utility.yul\":8339:8361   */\n      swap1\n      pop\n        /* \"#utility.yul\":8246:8368   */\n      swap2\n      swap1\n      pop\n      jump\t// out\n        /* \"#utility.yul\":8374:8566   */\n    tag_221:\n        /* \"#utility.yul\":8481:8492   */\n      0x00\n        /* \"#utility.yul\":8515:8521   */\n      dup3\n        /* \"#utility.yul\":8510:8513   */\n      dup3\n        /* \"#utility.yul\":8503:8522   */\n      mstore\n        /* \"#utility.yul\":8555:8559   */\n      0x20\n        /* \"#utility.yul\":8550:8553   */\n      dup3\n        /* \"#utility.yul\":8546:8560   */\n      add\n        /* \"#utility.yul\":8531:8560   */\n      swap1\n      pop\n        /* \"#utility.yul\":8374:8566   */\n      swap3\n      swap2\n      pop\n      pop\n      jump\t// out\n        /* \"#utility.yul\":8572:8712   */\n    tag_222:\n        /* \"#utility.yul\":8647:8651   */\n      0x00\n        /* \"#utility.yul\":8670:8673   */\n      dup2\n        /* \"#utility.yul\":8662:8673   */\n      swap1\n      pop\n        /* \"#utility.yul\":8700:8704   */\n      0x20\n        /* \"#utility.yul\":8695:8698   */\n      dup3\n        /* \"#utility.yul\":8691:8705   */\n      add\n        /* \"#utility.yul\":8683:8705   */\n      swap1\n      pop\n        /* \"#utility.yul\":8572:8712   */\n      swap2\n      swap1\n      pop\n      jump\t// out\n        /* \"#utility.yul\":8718:8850   */\n    tag_223:\n        /* \"#utility.yul\":8811:8843   */\n      tag_327\n        /* \"#utility.yul\":8837:8842   */\n      dup2\n        /* \"#utility.yul\":8811:8843   */\n      tag_208\n      jump\t// in\n    tag_327:\n        /* \"#utility.yul\":8806:8809   */\n      dup3\n        /* \"#utility.yul\":8799:8844   */\n      mstore\n        /* \"#utility.yul\":8718:8850   */\n      pop\n      pop\n      jump\t// out\n        /* \"#utility.yul\":8856:9067   */\n    tag_224:\n        /* \"#utility.yul\":8941:8951   */\n      0x00\n        /* \"#utility.yul\":8962:9024   */\n      tag_329\n        /* \"#utility.yul\":9020:9023   */\n      dup4\n        /* \"#utility.yul\":9012:9018   */\n      dup4\n        /* \"#utility.yul\":8962:9024   */\n      tag_223\n      jump\t// in\n    tag_329:\n        /* \"#utility.yul\":9056:9060   */\n      0x20\n        /* \"#utility.yul\":9051:9054   */\n      dup4\n        /* \"#utility.yul\":9047:9061   */\n      add\n        /* \"#utility.yul\":9033:9061   */\n      swap1\n      pop\n        /* \"#utility.yul\":8856:9067   */\n      swap3\n      swap2\n      pop\n      pop\n      jump\t// out\n        /* \"#utility.yul\":9073:9194   */\n    tag_225:\n        /* \"#utility.yul\":9151:9155   */\n      0x00\n        /* \"#utility.yul\":9183:9187   */\n      0x20\n        /* \"#utility.yul\":9178:9181   */\n      dup3\n        /* \"#utility.yul\":9174:9188   */\n      add\n        /* \"#utility.yul\":9166:9188   */\n      swap1\n      pop\n        /* \"#utility.yul\":9073:9194   */\n      swap2\n      swap1\n      pop\n      jump\t// out\n        /* \"#utility.yul\":9246:10042   */\n    tag_226:\n        /* \"#utility.yul\":9381:9384   */\n      0x00\n        /* \"#utility.yul\":9410:9472   */\n      tag_332\n        /* \"#utility.yul\":9466:9471   */\n      dup3\n        /* \"#utility.yul\":9410:9472   */\n      tag_220\n      jump\t// in\n    tag_332:\n        /* \"#utility.yul\":9488:9582   */\n      tag_333\n        /* \"#utility.yul\":9575:9581   */\n      dup2\n        /* \"#utility.yul\":9570:9573   */\n      dup6\n        /* \"#utility.yul\":9488:9582   */\n      tag_221\n      jump\t// in\n    tag_333:\n        /* \"#utility.yul\":9481:9582   */\n      swap4\n      pop\n        /* \"#utility.yul\":9606:9670   */\n      tag_334\n        /* \"#utility.yul\":9664:9669   */\n      dup4\n        /* \"#utility.yul\":9606:9670   */\n      tag_222\n      jump\t// in\n    tag_334:\n        /* \"#utility.yul\":9693:9700   */\n      dup1\n        /* \"#utility.yul\":9724:9725   */\n      0x00\n        /* \"#utility.yul\":9709:10017   */\n    tag_335:\n        /* \"#utility.yul\":9734:9740   */\n      dup4\n        /* \"#utility.yul\":9731:9732   */\n      dup2\n        /* \"#utility.yul\":9728:9741   */\n      lt\n        /* \"#utility.yul\":9709:10017   */\n      iszero\n      tag_337\n      jumpi\n        /* \"#utility.yul\":9810:9816   */\n      dup2\n        /* \"#utility.yul\":9804:9817   */\n      mload\n        /* \"#utility.yul\":9837:9916   */\n      tag_338\n        /* \"#utility.yul\":9912:9915   */\n      dup9\n        /* \"#utility.yul\":9897:9910   */\n      dup3\n        /* \"#utility.yul\":9837:9916   */\n      tag_224\n      jump\t// in\n    tag_338:\n        /* \"#utility.yul\":9830:9916   */\n      swap8\n      pop\n        /* \"#utility.yul\":9939:10007   */\n      tag_339\n        /* \"#utility.yul\":10000:10006   */\n      dup4\n        /* \"#utility.yul\":9939:10007   */\n      tag_225\n      jump\t// in\n    tag_339:\n        /* \"#utility.yul\":9929:10007   */\n      swap3\n      pop\n        /* \"#utility.yul\":9769:10017   */\n      pop\n        /* \"#utility.yul\":9756:9757   */\n      0x01\n        /* \"#utility.yul\":9753:9754   */\n      dup2\n        /* \"#utility.yul\":9749:9758   */\n      add\n        /* \"#utility.yul\":9744:9758   */\n      swap1\n      pop\n        /* \"#utility.yul\":9709:10017   */\n      jump(tag_335)\n    tag_337:\n        /* \"#utility.yul\":9713:9727   */\n      pop\n        /* \"#utility.yul\":10033:10036   */\n      dup6\n        /* \"#utility.yul\":10026:10036   */\n      swap4\n      pop\n        /* \"#utility.yul\":9386:10042   */\n      pop\n      pop\n      pop\n        /* \"#utility.yul\":9246:10042   */\n      swap3\n      swap2\n      pop\n      pop\n      jump\t// out\n        /* \"#utility.yul\":10048:11744   */\n    tag_48:\n        /* \"#utility.yul\":10559:10563   */\n      0x00\n        /* \"#utility.yul\":10597:10600   */\n      0x0100\n        /* \"#utility.yul\":10586:10595   */\n      dup3\n        /* \"#utility.yul\":10582:10601   */\n      add\n        /* \"#utility.yul\":10574:10601   */\n      swap1\n      pop\n        /* \"#utility.yul\":10611:10698   */\n      tag_341\n        /* \"#utility.yul\":10695:10696   */\n      0x00\n        /* \"#utility.yul\":10684:10693   */\n      dup4\n        /* \"#utility.yul\":10680:10697   */\n      add\n        /* \"#utility.yul\":10671:10677   */\n      dup12\n        /* \"#utility.yul\":10611:10698   */\n      tag_209\n      jump\t// in\n    tag_341:\n        /* \"#utility.yul\":10745:10754   */\n      dup2\n        /* \"#utility.yul\":10739:10743   */\n      dup2\n        /* \"#utility.yul\":10735:10755   */\n      sub\n        /* \"#utility.yul\":10730:10732   */\n      0x20\n        /* \"#utility.yul\":10719:10728   */\n      dup4\n        /* \"#utility.yul\":10715:10733   */\n      add\n        /* \"#utility.yul\":10708:10756   */\n      mstore\n        /* \"#utility.yul\":10773:10851   */\n      tag_342\n        /* \"#utility.yul\":10846:10850   */\n      dup2\n        /* \"#utility.yul\":10837:10843   */\n      dup11\n        /* \"#utility.yul\":10773:10851   */\n      tag_191\n      jump\t// in\n    tag_342:\n        /* \"#utility.yul\":10765:10851   */\n      swap1\n      pop\n        /* \"#utility.yul\":10898:10907   */\n      dup2\n        /* \"#utility.yul\":10892:10896   */\n      dup2\n        /* \"#utility.yul\":10888:10908   */\n      sub\n        /* \"#utility.yul\":10883:10885   */\n      0x40\n        /* \"#utility.yul\":10872:10881   */\n      dup4\n        /* \"#utility.yul\":10868:10886   */\n      add\n        /* \"#utility.yul\":10861:10909   */\n      mstore\n        /* \"#utility.yul\":10926:11054   */\n      tag_343\n        /* \"#utility.yul\":11049:11053   */\n      dup2\n        /* \"#utility.yul\":11040:11046   */\n      dup10\n        /* \"#utility.yul\":10926:11054   */\n      tag_217\n      jump\t// in\n    tag_343:\n        /* \"#utility.yul\":10918:11054   */\n      swap1\n      pop\n        /* \"#utility.yul\":11101:11110   */\n      dup2\n        /* \"#utility.yul\":11095:11099   */\n      dup2\n        /* \"#utility.yul\":11091:11111   */\n      sub\n        /* \"#utility.yul\":11086:11088   */\n      0x60\n        /* \"#utility.yul\":11075:11084   */\n      dup4\n        /* \"#utility.yul\":11071:11089   */\n      add\n        /* \"#utility.yul\":11064:11112   */\n      mstore\n        /* \"#utility.yul\":11129:11207   */\n      tag_344\n        /* \"#utility.yul\":11202:11206   */\n      dup2\n        /* \"#utility.yul\":11193:11199   */\n      dup9\n        /* \"#utility.yul\":11129:11207   */\n      tag_191\n      jump\t// in\n    tag_344:\n        /* \"#utility.yul\":11121:11207   */\n      swap1\n      pop\n        /* \"#utility.yul\":11255:11264   */\n      dup2\n        /* \"#utility.yul\":11249:11253   */\n      dup2\n        /* \"#utility.yul\":11245:11265   */\n      sub\n        /* \"#utility.yul\":11239:11242   */\n      0x80\n        /* \"#utility.yul\":11228:11237   */\n      dup4\n        /* \"#utility.yul\":11224:11243   */\n      add\n        /* \"#utility.yul\":11217:11266   */\n      mstore\n        /* \"#utility.yul\":11283:11361   */\n      tag_345\n        /* \"#utility.yul\":11356:11360   */\n      dup2\n        /* \"#utility.yul\":11347:11353   */\n      dup8\n        /* \"#utility.yul\":11283:11361   */\n      tag_191\n      jump\t// in\n    tag_345:\n        /* \"#utility.yul\":11275:11361   */\n      swap1\n      pop\n        /* \"#utility.yul\":11371:11460   */\n      tag_346\n        /* \"#utility.yul\":11455:11458   */\n      0xa0\n        /* \"#utility.yul\":11444:11453   */\n      dup4\n        /* \"#utility.yul\":11440:11459   */\n      add\n        /* \"#utility.yul\":11431:11437   */\n      dup7\n        /* \"#utility.yul\":11371:11460   */\n      tag_209\n      jump\t// in\n    tag_346:\n        /* \"#utility.yul\":11470:11537   */\n      tag_347\n        /* \"#utility.yul\":11532:11535   */\n      0xc0\n        /* \"#utility.yul\":11521:11530   */\n      dup4\n        /* \"#utility.yul\":11517:11536   */\n      add\n        /* \"#utility.yul\":11508:11514   */\n      dup6\n        /* \"#utility.yul\":11470:11537   */\n      tag_219\n      jump\t// in\n    tag_347:\n        /* \"#utility.yul\":11585:11594   */\n      dup2\n        /* \"#utility.yul\":11579:11583   */\n      dup2\n        /* \"#utility.yul\":11575:11595   */\n      sub\n        /* \"#utility.yul\":11569:11572   */\n      0xe0\n        /* \"#utility.yul\":11558:11567   */\n      dup4\n        /* \"#utility.yul\":11554:11573   */\n      add\n        /* \"#utility.yul\":11547:11596   */\n      mstore\n        /* \"#utility.yul\":11613:11737   */\n      tag_348\n        /* \"#utility.yul\":11732:11736   */\n      dup2\n        /* \"#utility.yul\":11723:11729   */\n      dup5\n        /* \"#utility.yul\":11613:11737   */\n      tag_226\n      jump\t// in\n    tag_348:\n        /* \"#utility.yul\":11605:11737   */\n      swap1\n      pop\n        /* \"#utility.yul\":10048:11744   */\n      swap10\n      swap9\n      pop\n      pop\n      pop\n      pop\n      pop\n      pop\n      pop\n      pop\n      pop\n      jump\t// out\n        /* \"#utility.yul\":11750:12163   */\n    tag_52:\n        /* \"#utility.yul\":11913:11917   */\n      0x00\n        /* \"#utility.yul\":11951:11953   */\n      0x20\n        /* \"#utility.yul\":11940:11949   */\n      dup3\n        /* \"#utility.yul\":11936:11954   */\n      add\n        /* \"#utility.yul\":11928:11954   */\n      swap1\n      pop\n        /* \"#utility.yul\":12000:12009   */\n      dup2\n        /* \"#utility.yul\":11994:11998   */\n      dup2\n        /* \"#utility.yul\":11990:12010   */\n      sub\n        /* \"#utility.yul\":11986:11987   */\n      0x00\n        /* \"#utility.yul\":11975:11984   */\n      dup4\n        /* \"#utility.yul\":11971:11988   */\n      add\n        /* \"#utility.yul\":11964:12011   */\n      mstore\n        /* \"#utility.yul\":12028:12156   */\n      tag_350\n        /* \"#utility.yul\":12151:12155   */\n      dup2\n        /* \"#utility.yul\":12142:12148   */\n      dup5\n        /* \"#utility.yul\":12028:12156   */\n      tag_217\n      jump\t// in\n    tag_350:\n        /* \"#utility.yul\":12020:12156   */\n      swap1\n      pop\n        /* \"#utility.yul\":11750:12163   */\n      swap3\n      swap2\n      pop\n      pop\n      jump\t// out\n        /* \"#utility.yul\":12169:12265   */\n    tag_227:\n        /* \"#utility.yul\":12206:12213   */\n      0x00\n        /* \"#utility.yul\":12235:12259   */\n      tag_352\n        /* \"#utility.yul\":12253:12258   */\n      dup3\n        /* \"#utility.yul\":12235:12259   */\n      tag_207\n      jump\t// in\n    tag_352:\n        /* \"#utility.yul\":12224:12259   */\n      swap1\n      pop\n        /* \"#utility.yul\":12169:12265   */\n      swap2\n      swap1\n      pop\n      jump\t// out\n        /* \"#utility.yul\":12271:12393   */\n    tag_228:\n        /* \"#utility.yul\":12344:12368   */\n      tag_354\n        /* \"#utility.yul\":12362:12367   */\n      dup2\n        /* \"#utility.yul\":12344:12368   */\n      tag_227\n      jump\t// in\n    tag_354:\n        /* \"#utility.yul\":12337:12342   */\n      dup2\n        /* \"#utility.yul\":12334:12369   */\n      eq\n        /* \"#utility.yul\":12324:12387   */\n      tag_355\n      jumpi\n        /* \"#utility.yul\":12383:12384   */\n      0x00\n        /* \"#utility.yul\":12380:12381   */\n      dup1\n        /* \"#utility.yul\":12373:12385   */\n      revert\n        /* \"#utility.yul\":12324:12387   */\n    tag_355:\n        /* \"#utility.yul\":12271:12393   */\n      pop\n      jump\t// out\n        /* \"#utility.yul\":12399:12538   */\n    tag_229:\n        /* \"#utility.yul\":12445:12450   */\n      0x00\n        /* \"#utility.yul\":12483:12489   */\n      dup2\n        /* \"#utility.yul\":12470:12490   */\n      calldataload\n        /* \"#utility.yul\":12461:12490   */\n      swap1\n      pop\n        /* \"#utility.yul\":12499:12532   */\n      tag_357\n        /* \"#utility.yul\":12526:12531   */\n      dup2\n        /* \"#utility.yul\":12499:12532   */\n      tag_228\n      jump\t// in\n    tag_357:\n        /* \"#utility.yul\":12399:12538   */\n      swap3\n      swap2\n      pop\n      pop\n      jump\t// out\n        /* \"#utility.yul\":12544:12873   */\n    tag_55:\n        /* \"#utility.yul\":12603:12609   */\n      0x00\n        /* \"#utility.yul\":12652:12654   */\n      0x20\n        /* \"#utility.yul\":12640:12649   */\n      dup3\n        /* \"#utility.yul\":12631:12638   */\n      dup5\n        /* \"#utility.yul\":12627:12650   */\n      sub\n        /* \"#utility.yul\":12623:12655   */\n      slt\n        /* \"#utility.yul\":12620:12739   */\n      iszero\n      tag_359\n      jumpi\n        /* \"#utility.yul\":12658:12737   */\n      tag_360\n      tag_193\n      jump\t// in\n    tag_360:\n        /* \"#utility.yul\":12620:12739   */\n    tag_359:\n        /* \"#utility.yul\":12778:12779   */\n      0x00\n        /* \"#utility.yul\":12803:12856   */\n      tag_361\n        /* \"#utility.yul\":12848:12855   */\n      dup5\n        /* \"#utility.yul\":12839:12845   */\n      dup3\n        /* \"#utility.yul\":12828:12837   */\n      dup6\n        /* \"#utility.yul\":12824:12846   */\n      add\n        /* \"#utility.yul\":12803:12856   */\n      tag_229\n      jump\t// in\n    tag_361:\n        /* \"#utility.yul\":12793:12856   */\n      swap2\n      pop\n        /* \"#utility.yul\":12749:12866   */\n      pop\n        /* \"#utility.yul\":12544:12873   */\n      swap3\n      swap2\n      pop\n      pop\n      jump\t// out\n        /* \"#utility.yul\":12879:13432   */\n    tag_65:\n        /* \"#utility.yul\":13058:13062   */\n      0x00\n        /* \"#utility.yul\":13096:13098   */\n      0x60\n        /* \"#utility.yul\":13085:13094   */\n      dup3\n        /* \"#utility.yul\":13081:13099   */\n      add\n        /* \"#utility.yul\":13073:13099   */\n      swap1\n      pop\n        /* \"#utility.yul\":13145:13154   */\n      dup2\n        /* \"#utility.yul\":13139:13143   */\n      dup2\n        /* \"#utility.yul\":13135:13155   */\n      sub\n        /* \"#utility.yul\":13131:13132   */\n      0x00\n        /* \"#utility.yul\":13120:13129   */\n      dup4\n        /* \"#utility.yul\":13116:13133   */\n      add\n        /* \"#utility.yul\":13109:13156   */\n      mstore\n        /* \"#utility.yul\":13173:13251   */\n      tag_363\n        /* \"#utility.yul\":13246:13250   */\n      dup2\n        /* \"#utility.yul\":13237:13243   */\n      dup7\n        /* \"#utility.yul\":13173:13251   */\n      tag_191\n      jump\t// in\n    tag_363:\n        /* \"#utility.yul\":13165:13251   */\n      swap1\n      pop\n        /* \"#utility.yul\":13261:13349   */\n      tag_364\n        /* \"#utility.yul\":13345:13347   */\n      0x20\n        /* \"#utility.yul\":13334:13343   */\n      dup4\n        /* \"#utility.yul\":13330:13348   */\n      add\n        /* \"#utility.yul\":13321:13327   */\n      dup6\n        /* \"#utility.yul\":13261:13349   */\n      tag_209\n      jump\t// in\n    tag_364:\n        /* \"#utility.yul\":13359:13425   */\n      tag_365\n        /* \"#utility.yul\":13421:13423   */\n      0x40\n        /* \"#utility.yul\":13410:13419   */\n      dup4\n        /* \"#utility.yul\":13406:13424   */\n      add\n        /* \"#utility.yul\":13397:13403   */\n      dup5\n        /* \"#utility.yul\":13359:13425   */\n      tag_219\n      jump\t// in\n    tag_365:\n        /* \"#utility.yul\":12879:13432   */\n      swap5\n      swap4\n      pop\n      pop\n      pop\n      pop\n      jump\t// out\n        /* \"#utility.yul\":13438:13556   */\n    tag_230:\n        /* \"#utility.yul\":13525:13549   */\n      tag_367\n        /* \"#utility.yul\":13543:13548   */\n      dup2\n        /* \"#utility.yul\":13525:13549   */\n      tag_204\n      jump\t// in\n    tag_367:\n        /* \"#utility.yul\":13520:13523   */\n      dup3\n        /* \"#utility.yul\":13513:13550   */\n      mstore\n        /* \"#utility.yul\":13438:13556   */\n      pop\n      pop\n      jump\t// out\n        /* \"#utility.yul\":13562:13784   */\n    tag_69:\n        /* \"#utility.yul\":13655:13659   */\n      0x00\n        /* \"#utility.yul\":13693:13695   */\n      0x20\n        /* \"#utility.yul\":13682:13691   */\n      dup3\n        /* \"#utility.yul\":13678:13696   */\n      add\n        /* \"#utility.yul\":13670:13696   */\n      swap1\n      pop\n        /* \"#utility.yul\":13706:13777   */\n      tag_369\n        /* \"#utility.yul\":13774:13775   */\n      0x00\n        /* \"#utility.yul\":13763:13772   */\n      dup4\n        /* \"#utility.yul\":13759:13776   */\n      add\n        /* \"#utility.yul\":13750:13756   */\n      dup5\n        /* \"#utility.yul\":13706:13777   */\n      tag_230\n      jump\t// in\n    tag_369:\n        /* \"#utility.yul\":13562:13784   */\n      swap3\n      swap2\n      pop\n      pop\n      jump\t// out\n        /* \"#utility.yul\":13790:14000   */\n    tag_82:\n        /* \"#utility.yul\":13877:13881   */\n      0x00\n        /* \"#utility.yul\":13915:13917   */\n      0x20\n        /* \"#utility.yul\":13904:13913   */\n      dup3\n        /* \"#utility.yul\":13900:13918   */\n      add\n        /* \"#utility.yul\":13892:13918   */\n      swap1\n      pop\n        /* \"#utility.yul\":13928:13993   */\n      tag_371\n        /* \"#utility.yul\":13990:13991   */\n      0x00\n        /* \"#utility.yul\":13979:13988   */\n      dup4\n        /* \"#utility.yul\":13975:13992   */\n      add\n        /* \"#utility.yul\":13966:13972   */\n      dup5\n        /* \"#utility.yul\":13928:13993   */\n      tag_219\n      jump\t// in\n    tag_371:\n        /* \"#utility.yul\":13790:14000   */\n      swap3\n      swap2\n      pop\n      pop\n      jump\t// out\n        /* \"#utility.yul\":14006:14186   */\n    tag_231:\n        /* \"#utility.yul\":14054:14131   */\n      0x4e487b7100000000000000000000000000000000000000000000000000000000\n        /* \"#utility.yul\":14051:14052   */\n      0x00\n        /* \"#utility.yul\":14044:14132   */\n      mstore\n        /* \"#utility.yul\":14151:14155   */\n      0x22\n        /* \"#utility.yul\":14148:14149   */\n      0x04\n        /* \"#utility.yul\":14141:14156   */\n      mstore\n        /* \"#utility.yul\":14175:14179   */\n      0x24\n        /* \"#utility.yul\":14172:14173   */\n      0x00\n        /* \"#utility.yul\":14165:14180   */\n      revert\n        /* \"#utility.yul\":14192:14512   */\n    tag_87:\n        /* \"#utility.yul\":14236:14242   */\n      0x00\n        /* \"#utility.yul\":14273:14274   */\n      0x02\n        /* \"#utility.yul\":14267:14271   */\n      dup3\n        /* \"#utility.yul\":14263:14275   */\n      div\n        /* \"#utility.yul\":14253:14275   */\n      swap1\n      pop\n        /* \"#utility.yul\":14320:14321   */\n      0x01\n        /* \"#utility.yul\":14314:14318   */\n      dup3\n        /* \"#utility.yul\":14310:14322   */\n      and\n        /* \"#utility.yul\":14341:14359   */\n      dup1\n        /* \"#utility.yul\":14331:14412   */\n      tag_374\n      jumpi\n        /* \"#utility.yul\":14397:14401   */\n      0x7f\n        /* \"#utility.yul\":14389:14395   */\n      dup3\n        /* \"#utility.yul\":14385:14402   */\n      and\n        /* \"#utility.yul\":14375:14402   */\n      swap2\n      pop\n        /* \"#utility.yul\":14331:14412   */\n    tag_374:\n        /* \"#utility.yul\":14459:14461   */\n      0x20\n        /* \"#utility.yul\":14451:14457   */\n      dup3\n        /* \"#utility.yul\":14448:14462   */\n      lt\n        /* \"#utility.yul\":14428:14446   */\n      dup2\n        /* \"#utility.yul\":14425:14463   */\n      sub\n        /* \"#utility.yul\":14422:14506   */\n      tag_375\n      jumpi\n        /* \"#utility.yul\":14478:14496   */\n      tag_376\n      tag_231\n      jump\t// in\n    tag_376:\n        /* \"#utility.yul\":14422:14506   */\n    tag_375:\n        /* \"#utility.yul\":14243:14512   */\n      pop\n        /* \"#utility.yul\":14192:14512   */\n      swap2\n      swap1\n      pop\n      jump\t// out\n\n    auxdata: 0xa26469706673582212202655f4249124ea8e1adfb36a088b3c69099ce63a6680199d653576cf9d6d07e964736f6c634300080e0033\n}\n","bytecode":{"linkReferences":{},"object":"608060405260405162001fd138038062001fd18339818101604052810190620000299190620005d3565b816000806101000a81548173ffffffffffffffffffffffffffffffffffffffff021916908373ffffffffffffffffffffffffffffffffffffffff16021790555084600190805190602001906200008192919062000115565b5086600290805190602001906200009a92919062000115565b508360039080519060200190620000b3929190620001a6565b508560049080519060200190620000cc92919062000115565b508260059080519060200190620000e5929190620001a6565b506000600660146101000a81548160ff021916908315150217905550806009819055505050505050505062000785565b828054620001239062000750565b90600052602060002090601f01602090048101928262000147576000855562000193565b82601f106200016257805160ff191683800117855562000193565b8280016001018555821562000193579182015b828111156200019257825182559160200191906001019062000175565b5b509050620001a291906200020d565b5090565b828054828255906000526020600020908101928215620001fa579160200282015b82811115620001f9578251829080519060200190620001e892919062000115565b5091602001919060010190620001c7565b5b5090506200020991906200022c565b5090565b5b80821115620002285760008160009055506001016200020e565b5090565b5b8082111562000250576000818162000246919062000254565b506001016200022d565b5090565b508054620002629062000750565b6000825580601f1062000276575062000297565b601f0160209004906000526020600020908101906200029691906200020d565b5b50565b6000604051905090565b600080fd5b600080fd5b600080fd5b600080fd5b6000601f19601f8301169050919050565b7f4e487b7100000000000000000000000000000000000000000000000000000000600052604160045260246000fd5b6200030382620002b8565b810181811067ffffffffffffffff82111715620003255762000324620002c9565b5b80604052505050565b60006200033a6200029a565b9050620003488282620002f8565b919050565b600067ffffffffffffffff8211156200036b576200036a620002c9565b5b6200037682620002b8565b9050602081019050919050565b60005b83811015620003a357808201518184015260208101905062000386565b83811115620003b3576000848401525b50505050565b6000620003d0620003ca846200034d565b6200032e565b905082815260208101848484011115620003ef57620003ee620002b3565b5b620003fc84828562000383565b509392505050565b600082601f8301126200041c576200041b620002ae565b5b81516200042e848260208601620003b9565b91505092915050565b600067ffffffffffffffff821115620004555762000454620002c9565b5b602082029050602081019050919050565b600080fd5b6000620004826200047c8462000437565b6200032e565b90508083825260208201905060208402830185811115620004a857620004a762000466565b5b835b81811015620004f657805167ffffffffffffffff811115620004d157620004d0620002ae565b5b808601620004e0898262000404565b85526020850194505050602081019050620004aa565b5050509392505050565b600082601f830112620005185762000517620002ae565b5b81516200052a8482602086016200046b565b91505092915050565b600073ffffffffffffffffffffffffffffffffffffffff82169050919050565b6000620005608262000533565b9050919050565b620005728162000553565b81146200057e57600080fd5b50565b600081519050620005928162000567565b92915050565b6000819050919050565b620005ad8162000598565b8114620005b957600080fd5b50565b600081519050620005cd81620005a2565b92915050565b600080600080600080600060e0888a031215620005f557620005f4620002a4565b5b600088015167ffffffffffffffff811115620006165762000615620002a9565b5b620006248a828b0162000404565b975050602088015167ffffffffffffffff811115620006485762000647620002a9565b5b620006568a828b0162000404565b965050604088015167ffffffffffffffff8111156200067a5762000679620002a9565b5b620006888a828b0162000404565b955050606088015167ffffffffffffffff811115620006ac57620006ab620002a9565b5b620006ba8a828b0162000500565b945050608088015167ffffffffffffffff811115620006de57620006dd620002a9565b5b620006ec8a828b0162000500565b93505060a0620006ff8a828b0162000581565b92505060c0620007128a828b01620005bc565b91505092959891949750929550565b7f4e487b7100000000000000000000000000000000000000000000000000000000600052602260045260246000fd5b600060028204905060018216806200076957607f821691505b6020821081036200077f576200077e62000721565b5b50919050565b61183c80620007956000396000f3fe608060405234801561001057600080fd5b506004361061010a5760003560e01c80635f51c765116100a2578063a20fca5a11610071578063a20fca5a1461029e578063af84a013146102a8578063dea4e339146102d8578063fa391c64146102f6578063fbc03a1e146103145761010a565b80635f51c76514610202578063710963871461021e57806374adad1d1461024e5780639e98c6aa146102805761010a565b8063481c6a75116100de578063481c6a75146101835780634d547ada146101a15780635a9b0b89146101bf5780635e1c7322146101e45761010a565b80621aea771461010f578063231e407a1461012d57806331c3a6f51461013757806343a7e9b914610153575b600080fd5b610117610332565b604051610124919061119d565b60405180910390f35b6101356103c0565b005b610151600480360381019061014c9190611308565b6104dc565b005b61016d60048036038101906101689190611387565b61063c565b60405161017a91906113f5565b60405180910390f35b61018b61067b565b60405161019891906113f5565b60405180910390f35b6101a961069f565b6040516101b691906113f5565b60405180910390f35b6101c76106c5565b6040516101db9897969594939291906115f5565b60405180910390f35b6101ec610a49565b6040516101f99190611696565b60405180910390f35b61021c600480360381019061021791906116f6565b610b22565b005b61023860048036038101906102339190611387565b610c17565b604051610245919061119d565b60405180910390f35b610268600480360381019061026391906116f6565b610cc3565b60405161027793929190611723565b60405180910390f35b610288610da2565b6040516102959190611770565b60405180910390f35b6102a6610da8565b005b6102c260048036038101906102bd9190611387565b610e86565b6040516102cf919061119d565b60405180910390f35b6102e0610f32565b6040516102ed919061119d565b60405180910390f35b6102fe610fc0565b60405161030b919061178b565b60405180910390f35b61031c610fd3565b604051610329919061119d565b60405180910390f35b6002805461033f906117d5565b80601f016020809104026020016040519081016040528092919081815260200182805461036b906117d5565b80156103b85780601f1061038d576101008083540402835291602001916103b8565b820191906000526020600020905b81548152906001019060200180831161039b57829003601f168201915b505050505081565b60008054906101000a900473ffffffffffffffffffffffffffffffffffffffff1673ffffffffffffffffffffffffffffffffffffffff163373ffffffffffffffffffffffffffffffffffffffff161461041857600080fd5b600073ffffffffffffffffffffffffffffffffffffffff16600660009054906101000a900473ffffffffffffffffffffffffffffffffffffffff1673ffffffffffffffffffffffffffffffffffffffff161461047357600080fd5b60008054906101000a900473ffffffffffffffffffffffffffffffffffffffff1673ffffffffffffffffffffffffffffffffffffffff166108fc479081150290604051600060405180830381858888f193505050501580156104d9573d6000803e3d6000fd5b50565b60405180606001604052808281526020013373ffffffffffffffffffffffffffffffffffffffff16815260200160011515815250600760003373ffffffffffffffffffffffffffffffffffffffff1673ffffffffffffffffffffffffffffffffffffffff168152602001908152602001600020600082015181600001908051906020019061056b929190611061565b5060208201518160010160006101000a81548173ffffffffffffffffffffffffffffffffffffffff021916908373ffffffffffffffffffffffffffffffffffffffff16021790555060408201518160010160146101000a81548160ff0219169083151502179055509050506008339080600181540180825580915050600190039060005260206000200160009091909190916101000a81548173ffffffffffffffffffffffffffffffffffffffff021916908373ffffffffffffffffffffffffffffffffffffffff16021790555050565b6008818154811061064c57600080fd5b906000526020600020016000915054906101000a900473ffffffffffffffffffffffffffffffffffffffff1681565b60008054906101000a900473ffffffffffffffffffffffffffffffffffffffff1681565b600660009054906101000a900473ffffffffffffffffffffffffffffffffffffffff1681565b6000606080606080600080606060008054906101000a900473ffffffffffffffffffffffffffffffffffffffff166002600360046001600660009054906101000a900473ffffffffffffffffffffffffffffffffffffffff16600660149054906101000a900460ff16600886805461073c906117d5565b80601f0160208091040260200160405190810160405280929190818152602001828054610768906117d5565b80156107b55780601f1061078a576101008083540402835291602001916107b5565b820191906000526020600020905b81548152906001019060200180831161079857829003601f168201915b5050505050965085805480602002602001604051908101604052809291908181526020016000905b828210156108895783829060005260206000200180546107fc906117d5565b80601f0160208091040260200160405190810160405280929190818152602001828054610828906117d5565b80156108755780601f1061084a57610100808354040283529160200191610875565b820191906000526020600020905b81548152906001019060200180831161085857829003601f168201915b5050505050815260200190600101906107dd565b50505050955084805461089b906117d5565b80601f01602080910402602001604051908101604052809291908181526020018280546108c7906117d5565b80156109145780601f106108e957610100808354040283529160200191610914565b820191906000526020600020905b8154815290600101906020018083116108f757829003601f168201915b50505050509450838054610927906117d5565b80601f0160208091040260200160405190810160405280929190818152602001828054610953906117d5565b80156109a05780601f10610975576101008083540402835291602001916109a0565b820191906000526020600020905b81548152906001019060200180831161098357829003601f168201915b5050505050935080805480602002602001604051908101604052809291908181526020018280548015610a2857602002820191906000526020600020905b8160009054906101000a900473ffffffffffffffffffffffffffffffffffffffff1673ffffffffffffffffffffffffffffffffffffffff16815260200190600101908083116109de575b50505050509050975097509750975097509750975097509091929394959697565b60606005805480602002602001604051908101604052809291908181526020016000905b82821015610b19578382906000526020600020018054610a8c906117d5565b80601f0160208091040260200160405190810160405280929190818152602001828054610ab8906117d5565b8015610b055780601f10610ada57610100808354040283529160200191610b05565b820191906000526020600020905b815481529060010190602001808311610ae857829003601f168201915b505050505081526020019060010190610a6d565b50505050905090565b60008054906101000a900473ffffffffffffffffffffffffffffffffffffffff1673ffffffffffffffffffffffffffffffffffffffff163373ffffffffffffffffffffffffffffffffffffffff1614610b7a57600080fd5b600760008273ffffffffffffffffffffffffffffffffffffffff1673ffffffffffffffffffffffffffffffffffffffff16815260200190815260200160002060010160149054906101000a900460ff16610bd357600080fd5b80600660006101000a81548173ffffffffffffffffffffffffffffffffffffffff021916908373ffffffffffffffffffffffffffffffffffffffff16021790555050565b60038181548110610c2757600080fd5b906000526020600020016000915090508054610c42906117d5565b80601f0160208091040260200160405190810160405280929190818152602001828054610c6e906117d5565b8015610cbb5780601f10610c9057610100808354040283529160200191610cbb565b820191906000526020600020905b815481529060010190602001808311610c9e57829003601f168201915b505050505081565b6007602052806000526040600020600091509050806000018054610ce6906117d5565b80601f0160208091040260200160405190810160405280929190818152602001828054610d12906117d5565b8015610d5f5780601f10610d3457610100808354040283529160200191610d5f565b820191906000526020600020905b815481529060010190602001808311610d4257829003601f168201915b5050505050908060010160009054906101000a900473ffffffffffffffffffffffffffffffffffffffff16908060010160149054906101000a900460ff16905083565b60095481565b60008054906101000a900473ffffffffffffffffffffffffffffffffffffffff1673ffffffffffffffffffffffffffffffffffffffff163373ffffffffffffffffffffffffffffffffffffffff1614610e0057600080fd5b600660009054906101000a900473ffffffffffffffffffffffffffffffffffffffff1673ffffffffffffffffffffffffffffffffffffffff166108fc479081150290604051600060405180830381858888f19350505050158015610e68573d6000803e3d6000fd5b506001600660146101000a81548160ff021916908315150217905550565b60058181548110610e9657600080fd5b906000526020600020016000915090508054610eb1906117d5565b80601f0160208091040260200160405190810160405280929190818152602001828054610edd906117d5565b8015610f2a5780601f10610eff57610100808354040283529160200191610f2a565b820191906000526020600020905b815481529060010190602001808311610f0d57829003601f168201915b505050505081565b60018054610f3f906117d5565b80601f0160208091040260200160405190810160405280929190818152602001828054610f6b906117d5565b8015610fb85780601f10610f8d57610100808354040283529160200191610fb8565b820191906000526020600020905b815481529060010190602001808311610f9b57829003601f168201915b505050505081565b600660149054906101000a900460ff1681565b60048054610fe0906117d5565b80601f016020809104026020016040519081016040528092919081815260200182805461100c906117d5565b80156110595780601f1061102e57610100808354040283529160200191611059565b820191906000526020600020905b81548152906001019060200180831161103c57829003601f168201915b505050505081565b82805461106d906117d5565b90600052602060002090601f01602090048101928261108f57600085556110d6565b82601f106110a857805160ff19168380011785556110d6565b828001600101855582156110d6579182015b828111156110d55782518255916020019190600101906110ba565b5b5090506110e391906110e7565b5090565b5b808211156111005760008160009055506001016110e8565b5090565b600081519050919050565b600082825260208201905092915050565b60005b8381101561113e578082015181840152602081019050611123565b8381111561114d576000848401525b50505050565b6000601f19601f8301169050919050565b600061116f82611104565b611179818561110f565b9350611189818560208601611120565b61119281611153565b840191505092915050565b600060208201905081810360008301526111b78184611164565b905092915050565b6000604051905090565b600080fd5b600080fd5b600080fd5b600080fd5b7f4e487b7100000000000000000000000000000000000000000000000000000000600052604160045260246000fd5b61121582611153565b810181811067ffffffffffffffff82111715611234576112336111dd565b5b80604052505050565b60006112476111bf565b9050611253828261120c565b919050565b600067ffffffffffffffff821115611273576112726111dd565b5b61127c82611153565b9050602081019050919050565b82818337600083830152505050565b60006112ab6112a684611258565b61123d565b9050828152602081018484840111156112c7576112c66111d8565b5b6112d2848285611289565b509392505050565b600082601f8301126112ef576112ee6111d3565b5b81356112ff848260208601611298565b91505092915050565b60006020828403121561131e5761131d6111c9565b5b600082013567ffffffffffffffff81111561133c5761133b6111ce565b5b611348848285016112da565b91505092915050565b6000819050919050565b61136481611351565b811461136f57600080fd5b50565b6000813590506113818161135b565b92915050565b60006020828403121561139d5761139c6111c9565b5b60006113ab84828501611372565b91505092915050565b600073ffffffffffffffffffffffffffffffffffffffff82169050919050565b60006113df826113b4565b9050919050565b6113ef816113d4565b82525050565b600060208201905061140a60008301846113e6565b92915050565b600081519050919050565b600082825260208201905092915050565b6000819050602082019050919050565b600082825260208201905092915050565b600061145882611104565b611462818561143c565b9350611472818560208601611120565b61147b81611153565b840191505092915050565b6000611492838361144d565b905092915050565b6000602082019050919050565b60006114b282611410565b6114bc818561141b565b9350836020820285016114ce8561142c565b8060005b8581101561150a57848403895281516114eb8582611486565b94506114f68361149a565b925060208a019950506001810190506114d2565b50829750879550505050505092915050565b60008115159050919050565b6115318161151c565b82525050565b600081519050919050565b600082825260208201905092915050565b6000819050602082019050919050565b61156c816113d4565b82525050565b600061157e8383611563565b60208301905092915050565b6000602082019050919050565b60006115a282611537565b6115ac8185611542565b93506115b783611553565b8060005b838110156115e85781516115cf8882611572565b97506115da8361158a565b9250506001810190506115bb565b5085935050505092915050565b60006101008201905061160b600083018b6113e6565b818103602083015261161d818a611164565b9050818103604083015261163181896114a7565b905081810360608301526116458188611164565b905081810360808301526116598187611164565b905061166860a08301866113e6565b61167560c0830185611528565b81810360e08301526116878184611597565b90509998505050505050505050565b600060208201905081810360008301526116b081846114a7565b905092915050565b60006116c3826113b4565b9050919050565b6116d3816116b8565b81146116de57600080fd5b50565b6000813590506116f0816116ca565b92915050565b60006020828403121561170c5761170b6111c9565b5b600061171a848285016116e1565b91505092915050565b6000606082019050818103600083015261173d8186611164565b905061174c60208301856113e6565b6117596040830184611528565b949350505050565b61176a81611351565b82525050565b60006020820190506117856000830184611761565b92915050565b60006020820190506117a06000830184611528565b92915050565b7f4e487b7100000000000000000000000000000000000000000000000000000000600052602260045260246000fd5b600060028204905060018216806117ed57607f821691505b602082108103611800576117ff6117a6565b5b5091905056fea26469706673582212202655f4249124ea8e1adfb36a088b3c69099ce63a6680199d653576cf9d6d07e964736f6c634300080e0033","opcodes":"PUSH1 0x80 PUSH1 0x40 MSTORE PUSH1 0x40 MLOAD PUSH3 0x1FD1 CODESIZE SUB DUP1 PUSH3 0x1FD1 DUP4 CODECOPY DUP2 DUP2 ADD PUSH1 0x40 MSTORE DUP2 ADD SWAP1 PUSH3 0x29 SWAP2 SWAP1 PUSH3 0x5D3 JUMP JUMPDEST DUP2 PUSH1 0x0 DUP1 PUSH2 0x100 EXP DUP2 SLOAD DUP2 PUSH20 0xFFFFFFFFFFFFFFFFFFFFFFFFFFFFFFFFFFFFFFFF MUL NOT AND SWAP1 DUP4 PUSH20 0xFFFFFFFFFFFFFFFFFFFFFFFFFFFFFFFFFFFFFFFF AND MUL OR SWAP1 SSTORE POP DUP5 PUSH1 0x1 SWAP1 DUP1 MLOAD SWAP1 PUSH1 0x20 ADD SWAP1 PUSH3 0x81 SWAP3 SWAP2 SWAP1 PUSH3 0x115 JUMP JUMPDEST POP DUP7 PUSH1 0x2 SWAP1 DUP1 MLOAD SWAP1 PUSH1 0x20 ADD SWAP1 PUSH3 0x9A SWAP3 SWAP2 SWAP1 PUSH3 0x115 JUMP JUMPDEST POP DUP4 PUSH1 0x3 SWAP1 DUP1 MLOAD SWAP1 PUSH1 0x20 ADD SWAP1 PUSH3 0xB3 SWAP3 SWAP2 SWAP1 PUSH3 0x1A6 JUMP JUMPDEST POP DUP6 PUSH1 0x4 SWAP1 DUP1 MLOAD SWAP1 PUSH1 0x20 ADD SWAP1 PUSH3 0xCC SWAP3 SWAP2 SWAP1 PUSH3 0x115 JUMP JUMPDEST POP DUP3 PUSH1 0x5 SWAP1 DUP1 MLOAD SWAP1 PUSH1 0x20 ADD SWAP1 PUSH3 0xE5 SWAP3 SWAP2 SWAP1 PUSH3 0x1A6 JUMP JUMPDEST POP PUSH1 0x0 PUSH1 0x6 PUSH1 0x14 PUSH2 0x100 EXP DUP2 SLOAD DUP2 PUSH1 0xFF MUL NOT AND SWAP1 DUP4 ISZERO ISZERO MUL OR SWAP1 SSTORE POP DUP1 PUSH1 0x9 DUP2 SWAP1 SSTORE POP POP POP POP POP POP POP POP PUSH3 0x785 JUMP JUMPDEST DUP3 DUP1 SLOAD PUSH3 0x123 SWAP1 PUSH3 0x750 JUMP JUMPDEST SWAP1 PUSH1 0x0 MSTORE PUSH1 0x20 PUSH1 0x0 KECCAK256 SWAP1 PUSH1 0x1F ADD PUSH1 0x20 SWAP1 DIV DUP2 ADD SWAP3 DUP3 PUSH3 0x147 JUMPI PUSH1 0x0 DUP6 SSTORE PUSH3 0x193 JUMP JUMPDEST DUP3 PUSH1 0x1F LT PUSH3 0x162 JUMPI DUP1 MLOAD PUSH1 0xFF NOT AND DUP4 DUP1 ADD OR DUP6 SSTORE PUSH3 0x193 JUMP JUMPDEST DUP3 DUP1 ADD PUSH1 0x1 ADD DUP6 SSTORE DUP3 ISZERO PUSH3 0x193 JUMPI SWAP2 DUP3 ADD JUMPDEST DUP3 DUP2 GT ISZERO PUSH3 0x192 JUMPI DUP3 MLOAD DUP3 SSTORE SWAP2 PUSH1 0x20 ADD SWAP2 SWAP1 PUSH1 0x1 ADD SWAP1 PUSH3 0x175 JUMP JUMPDEST JUMPDEST POP SWAP1 POP PUSH3 0x1A2 SWAP2 SWAP1 PUSH3 0x20D JUMP JUMPDEST POP SWAP1 JUMP JUMPDEST DUP3 DUP1 SLOAD DUP3 DUP3 SSTORE SWAP1 PUSH1 0x0 MSTORE PUSH1 0x20 PUSH1 0x0 KECCAK256 SWAP1 DUP2 ADD SWAP3 DUP3 ISZERO PUSH3 0x1FA JUMPI SWAP2 PUSH1 0x20 MUL DUP3 ADD JUMPDEST DUP3 DUP2 GT ISZERO PUSH3 0x1F9 JUMPI DUP3 MLOAD DUP3 SWAP1 DUP1 MLOAD SWAP1 PUSH1 0x20 ADD SWAP1 PUSH3 0x1E8 SWAP3 SWAP2 SWAP1 PUSH3 0x115 JUMP JUMPDEST POP SWAP2 PUSH1 0x20 ADD SWAP2 SWAP1 PUSH1 0x1 ADD SWAP1 PUSH3 0x1C7 JUMP JUMPDEST JUMPDEST POP SWAP1 POP PUSH3 0x209 SWAP2 SWAP1 PUSH3 0x22C JUMP JUMPDEST POP SWAP1 JUMP JUMPDEST JUMPDEST DUP1 DUP3 GT ISZERO PUSH3 0x228 JUMPI PUSH1 0x0 DUP2 PUSH1 0x0 SWAP1 SSTORE POP PUSH1 0x1 ADD PUSH3 0x20E JUMP JUMPDEST POP SWAP1 JUMP JUMPDEST JUMPDEST DUP1 DUP3 GT ISZERO PUSH3 0x250 JUMPI PUSH1 0x0 DUP2 DUP2 PUSH3 0x246 SWAP2 SWAP1 PUSH3 0x254 JUMP JUMPDEST POP PUSH1 0x1 ADD PUSH3 0x22D JUMP JUMPDEST POP SWAP1 JUMP JUMPDEST POP DUP1 SLOAD PUSH3 0x262 SWAP1 PUSH3 0x750 JUMP JUMPDEST PUSH1 0x0 DUP3 SSTORE DUP1 PUSH1 0x1F LT PUSH3 0x276 JUMPI POP PUSH3 0x297 JUMP JUMPDEST PUSH1 0x1F ADD PUSH1 0x20 SWAP1 DIV SWAP1 PUSH1 0x0 MSTORE PUSH1 0x20 PUSH1 0x0 KECCAK256 SWAP1 DUP2 ADD SWAP1 PUSH3 0x296 SWAP2 SWAP1 PUSH3 0x20D JUMP JUMPDEST JUMPDEST POP JUMP JUMPDEST PUSH1 0x0 PUSH1 0x40 MLOAD SWAP1 POP SWAP1 JUMP JUMPDEST PUSH1 0x0 DUP1 REVERT JUMPDEST PUSH1 0x0 DUP1 REVERT JUMPDEST PUSH1 0x0 DUP1 REVERT JUMPDEST PUSH1 0x0 DUP1 REVERT JUMPDEST PUSH1 0x0 PUSH1 0x1F NOT PUSH1 0x1F DUP4 ADD AND SWAP1 POP SWAP2 SWAP1 POP JUMP JUMPDEST PUSH32 0x4E487B7100000000000000000000000000000000000000000000000000000000 PUSH1 0x0 MSTORE PUSH1 0x41 PUSH1 0x4 MSTORE PUSH1 0x24 PUSH1 0x0 REVERT JUMPDEST PUSH3 0x303 DUP3 PUSH3 0x2B8 JUMP JUMPDEST DUP2 ADD DUP2 DUP2 LT PUSH8 0xFFFFFFFFFFFFFFFF DUP3 GT OR ISZERO PUSH3 0x325 JUMPI PUSH3 0x324 PUSH3 0x2C9 JUMP JUMPDEST JUMPDEST DUP1 PUSH1 0x40 MSTORE POP POP POP JUMP JUMPDEST PUSH1 0x0 PUSH3 0x33A PUSH3 0x29A JUMP JUMPDEST SWAP1 POP PUSH3 0x348 DUP3 DUP3 PUSH3 0x2F8 JUMP JUMPDEST SWAP2 SWAP1 POP JUMP JUMPDEST PUSH1 0x0 PUSH8 0xFFFFFFFFFFFFFFFF DUP3 GT ISZERO PUSH3 0x36B JUMPI PUSH3 0x36A PUSH3 0x2C9 JUMP JUMPDEST JUMPDEST PUSH3 0x376 DUP3 PUSH3 0x2B8 JUMP JUMPDEST SWAP1 POP PUSH1 0x20 DUP2 ADD SWAP1 POP SWAP2 SWAP1 POP JUMP JUMPDEST PUSH1 0x0 JUMPDEST DUP4 DUP2 LT ISZERO PUSH3 0x3A3 JUMPI DUP1 DUP3 ADD MLOAD DUP2 DUP5 ADD MSTORE PUSH1 0x20 DUP2 ADD SWAP1 POP PUSH3 0x386 JUMP JUMPDEST DUP4 DUP2 GT ISZERO PUSH3 0x3B3 JUMPI PUSH1 0x0 DUP5 DUP5 ADD MSTORE JUMPDEST POP POP POP POP JUMP JUMPDEST PUSH1 0x0 PUSH3 0x3D0 PUSH3 0x3CA DUP5 PUSH3 0x34D JUMP JUMPDEST PUSH3 0x32E JUMP JUMPDEST SWAP1 POP DUP3 DUP2 MSTORE PUSH1 0x20 DUP2 ADD DUP5 DUP5 DUP5 ADD GT ISZERO PUSH3 0x3EF JUMPI PUSH3 0x3EE PUSH3 0x2B3 JUMP JUMPDEST JUMPDEST PUSH3 0x3FC DUP5 DUP3 DUP6 PUSH3 0x383 JUMP JUMPDEST POP SWAP4 SWAP3 POP POP POP JUMP JUMPDEST PUSH1 0x0 DUP3 PUSH1 0x1F DUP4 ADD SLT PUSH3 0x41C JUMPI PUSH3 0x41B PUSH3 0x2AE JUMP JUMPDEST JUMPDEST DUP2 MLOAD PUSH3 0x42E DUP5 DUP3 PUSH1 0x20 DUP7 ADD PUSH3 0x3B9 JUMP JUMPDEST SWAP2 POP POP SWAP3 SWAP2 POP POP JUMP JUMPDEST PUSH1 0x0 PUSH8 0xFFFFFFFFFFFFFFFF DUP3 GT ISZERO PUSH3 0x455 JUMPI PUSH3 0x454 PUSH3 0x2C9 JUMP JUMPDEST JUMPDEST PUSH1 0x20 DUP3 MUL SWAP1 POP PUSH1 0x20 DUP2 ADD SWAP1 POP SWAP2 SWAP1 POP JUMP JUMPDEST PUSH1 0x0 DUP1 REVERT JUMPDEST PUSH1 0x0 PUSH3 0x482 PUSH3 0x47C DUP5 PUSH3 0x437 JUMP JUMPDEST PUSH3 0x32E JUMP JUMPDEST SWAP1 POP DUP1 DUP4 DUP3 MSTORE PUSH1 0x20 DUP3 ADD SWAP1 POP PUSH1 0x20 DUP5 MUL DUP4 ADD DUP6 DUP2 GT ISZERO PUSH3 0x4A8 JUMPI PUSH3 0x4A7 PUSH3 0x466 JUMP JUMPDEST JUMPDEST DUP4 JUMPDEST DUP2 DUP2 LT ISZERO PUSH3 0x4F6 JUMPI DUP1 MLOAD PUSH8 0xFFFFFFFFFFFFFFFF DUP2 GT ISZERO PUSH3 0x4D1 JUMPI PUSH3 0x4D0 PUSH3 0x2AE JUMP JUMPDEST JUMPDEST DUP1 DUP7 ADD PUSH3 0x4E0 DUP10 DUP3 PUSH3 0x404 JUMP JUMPDEST DUP6 MSTORE PUSH1 0x20 DUP6 ADD SWAP5 POP POP POP PUSH1 0x20 DUP2 ADD SWAP1 POP PUSH3 0x4AA JUMP JUMPDEST POP POP POP SWAP4 SWAP3 POP POP POP JUMP JUMPDEST PUSH1 0x0 DUP3 PUSH1 0x1F DUP4 ADD SLT PUSH3 0x518 JUMPI PUSH3 0x517 PUSH3 0x2AE JUMP JUMPDEST JUMPDEST DUP2 MLOAD PUSH3 0x52A DUP5 DUP3 PUSH1 0x20 DUP7 ADD PUSH3 0x46B JUMP JUMPDEST SWAP2 POP POP SWAP3 SWAP2 POP POP JUMP JUMPDEST PUSH1 0x0 PUSH20 0xFFFFFFFFFFFFFFFFFFFFFFFFFFFFFFFFFFFFFFFF DUP3 AND SWAP1 POP SWAP2 SWAP1 POP JUMP JUMPDEST PUSH1 0x0 PUSH3 0x560 DUP3 PUSH3 0x533 JUMP JUMPDEST SWAP1 POP SWAP2 SWAP1 POP JUMP JUMPDEST PUSH3 0x572 DUP2 PUSH3 0x553 JUMP JUMPDEST DUP2 EQ PUSH3 0x57E JUMPI PUSH1 0x0 DUP1 REVERT JUMPDEST POP JUMP JUMPDEST PUSH1 0x0 DUP2 MLOAD SWAP1 POP PUSH3 0x592 DUP2 PUSH3 0x567 JUMP JUMPDEST SWAP3 SWAP2 POP POP JUMP JUMPDEST PUSH1 0x0 DUP2 SWAP1 POP SWAP2 SWAP1 POP JUMP JUMPDEST PUSH3 0x5AD DUP2 PUSH3 0x598 JUMP JUMPDEST DUP2 EQ PUSH3 0x5B9 JUMPI PUSH1 0x0 DUP1 REVERT JUMPDEST POP JUMP JUMPDEST PUSH1 0x0 DUP2 MLOAD SWAP1 POP PUSH3 0x5CD DUP2 PUSH3 0x5A2 JUMP JUMPDEST SWAP3 SWAP2 POP POP JUMP JUMPDEST PUSH1 0x0 DUP1 PUSH1 0x0 DUP1 PUSH1 0x0 DUP1 PUSH1 0x0 PUSH1 0xE0 DUP9 DUP11 SUB SLT ISZERO PUSH3 0x5F5 JUMPI PUSH3 0x5F4 PUSH3 0x2A4 JUMP JUMPDEST JUMPDEST PUSH1 0x0 DUP9 ADD MLOAD PUSH8 0xFFFFFFFFFFFFFFFF DUP2 GT ISZERO PUSH3 0x616 JUMPI PUSH3 0x615 PUSH3 0x2A9 JUMP JUMPDEST JUMPDEST PUSH3 0x624 DUP11 DUP3 DUP12 ADD PUSH3 0x404 JUMP JUMPDEST SWAP8 POP POP PUSH1 0x20 DUP9 ADD MLOAD PUSH8 0xFFFFFFFFFFFFFFFF DUP2 GT ISZERO PUSH3 0x648 JUMPI PUSH3 0x647 PUSH3 0x2A9 JUMP JUMPDEST JUMPDEST PUSH3 0x656 DUP11 DUP3 DUP12 ADD PUSH3 0x404 JUMP JUMPDEST SWAP7 POP POP PUSH1 0x40 DUP9 ADD MLOAD PUSH8 0xFFFFFFFFFFFFFFFF DUP2 GT ISZERO PUSH3 0x67A JUMPI PUSH3 0x679 PUSH3 0x2A9 JUMP JUMPDEST JUMPDEST PUSH3 0x688 DUP11 DUP3 DUP12 ADD PUSH3 0x404 JUMP JUMPDEST SWAP6 POP POP PUSH1 0x60 DUP9 ADD MLOAD PUSH8 0xFFFFFFFFFFFFFFFF DUP2 GT ISZERO PUSH3 0x6AC JUMPI PUSH3 0x6AB PUSH3 0x2A9 JUMP JUMPDEST JUMPDEST PUSH3 0x6BA DUP11 DUP3 DUP12 ADD PUSH3 0x500 JUMP JUMPDEST SWAP5 POP POP PUSH1 0x80 DUP9 ADD MLOAD PUSH8 0xFFFFFFFFFFFFFFFF DUP2 GT ISZERO PUSH3 0x6DE JUMPI PUSH3 0x6DD PUSH3 0x2A9 JUMP JUMPDEST JUMPDEST PUSH3 0x6EC DUP11 DUP3 DUP12 ADD PUSH3 0x500 JUMP JUMPDEST SWAP4 POP POP PUSH1 0xA0 PUSH3 0x6FF DUP11 DUP3 DUP12 ADD PUSH3 0x581 JUMP JUMPDEST SWAP3 POP POP PUSH1 0xC0 PUSH3 0x712 DUP11 DUP3 DUP12 ADD PUSH3 0x5BC JUMP JUMPDEST SWAP2 POP POP SWAP3 SWAP6 SWAP9 SWAP2 SWAP5 SWAP8 POP SWAP3 SWAP6 POP JUMP JUMPDEST PUSH32 0x4E487B7100000000000000000000000000000000000000000000000000000000 PUSH1 0x0 MSTORE PUSH1 0x22 PUSH1 0x4 MSTORE PUSH1 0x24 PUSH1 0x0 REVERT JUMPDEST PUSH1 0x0 PUSH1 0x2 DUP3 DIV SWAP1 POP PUSH1 0x1 DUP3 AND DUP1 PUSH3 0x769 JUMPI PUSH1 0x7F DUP3 AND SWAP2 POP JUMPDEST PUSH1 0x20 DUP3 LT DUP2 SUB PUSH3 0x77F JUMPI PUSH3 0x77E PUSH3 0x721 JUMP JUMPDEST JUMPDEST POP SWAP2 SWAP1 POP JUMP JUMPDEST PUSH2 0x183C DUP1 PUSH3 0x795 PUSH1 0x0 CODECOPY PUSH1 0x0 RETURN INVALID PUSH1 0x80 PUSH1 0x40 MSTORE CALLVALUE DUP1 ISZERO PUSH2 0x10 JUMPI PUSH1 0x0 DUP1 REVERT JUMPDEST POP PUSH1 0x4 CALLDATASIZE LT PUSH2 0x10A JUMPI PUSH1 0x0 CALLDATALOAD PUSH1 0xE0 SHR DUP1 PUSH4 0x5F51C765 GT PUSH2 0xA2 JUMPI DUP1 PUSH4 0xA20FCA5A GT PUSH2 0x71 JUMPI DUP1 PUSH4 0xA20FCA5A EQ PUSH2 0x29E JUMPI DUP1 PUSH4 0xAF84A013 EQ PUSH2 0x2A8 JUMPI DUP1 PUSH4 0xDEA4E339 EQ PUSH2 0x2D8 JUMPI DUP1 PUSH4 0xFA391C64 EQ PUSH2 0x2F6 JUMPI DUP1 PUSH4 0xFBC03A1E EQ PUSH2 0x314 JUMPI PUSH2 0x10A JUMP JUMPDEST DUP1 PUSH4 0x5F51C765 EQ PUSH2 0x202 JUMPI DUP1 PUSH4 0x71096387 EQ PUSH2 0x21E JUMPI DUP1 PUSH4 0x74ADAD1D EQ PUSH2 0x24E JUMPI DUP1 PUSH4 0x9E98C6AA EQ PUSH2 0x280 JUMPI PUSH2 0x10A JUMP JUMPDEST DUP1 PUSH4 0x481C6A75 GT PUSH2 0xDE JUMPI DUP1 PUSH4 0x481C6A75 EQ PUSH2 0x183 JUMPI DUP1 PUSH4 0x4D547ADA EQ PUSH2 0x1A1 JUMPI DUP1 PUSH4 0x5A9B0B89 EQ PUSH2 0x1BF JUMPI DUP1 PUSH4 0x5E1C7322 EQ PUSH2 0x1E4 JUMPI PUSH2 0x10A JUMP JUMPDEST DUP1 PUSH3 0x1AEA77 EQ PUSH2 0x10F JUMPI DUP1 PUSH4 0x231E407A EQ PUSH2 0x12D JUMPI DUP1 PUSH4 0x31C3A6F5 EQ PUSH2 0x137 JUMPI DUP1 PUSH4 0x43A7E9B9 EQ PUSH2 0x153 JUMPI JUMPDEST PUSH1 0x0 DUP1 REVERT JUMPDEST PUSH2 0x117 PUSH2 0x332 JUMP JUMPDEST PUSH1 0x40 MLOAD PUSH2 0x124 SWAP2 SWAP1 PUSH2 0x119D JUMP JUMPDEST PUSH1 0x40 MLOAD DUP1 SWAP2 SUB SWAP1 RETURN JUMPDEST PUSH2 0x135 PUSH2 0x3C0 JUMP JUMPDEST STOP JUMPDEST PUSH2 0x151 PUSH1 0x4 DUP1 CALLDATASIZE SUB DUP2 ADD SWAP1 PUSH2 0x14C SWAP2 SWAP1 PUSH2 0x1308 JUMP JUMPDEST PUSH2 0x4DC JUMP JUMPDEST STOP JUMPDEST PUSH2 0x16D PUSH1 0x4 DUP1 CALLDATASIZE SUB DUP2 ADD SWAP1 PUSH2 0x168 SWAP2 SWAP1 PUSH2 0x1387 JUMP JUMPDEST PUSH2 0x63C JUMP JUMPDEST PUSH1 0x40 MLOAD PUSH2 0x17A SWAP2 SWAP1 PUSH2 0x13F5 JUMP JUMPDEST PUSH1 0x40 MLOAD DUP1 SWAP2 SUB SWAP1 RETURN JUMPDEST PUSH2 0x18B PUSH2 0x67B JUMP JUMPDEST PUSH1 0x40 MLOAD PUSH2 0x198 SWAP2 SWAP1 PUSH2 0x13F5 JUMP JUMPDEST PUSH1 0x40 MLOAD DUP1 SWAP2 SUB SWAP1 RETURN JUMPDEST PUSH2 0x1A9 PUSH2 0x69F JUMP JUMPDEST PUSH1 0x40 MLOAD PUSH2 0x1B6 SWAP2 SWAP1 PUSH2 0x13F5 JUMP JUMPDEST PUSH1 0x40 MLOAD DUP1 SWAP2 SUB SWAP1 RETURN JUMPDEST PUSH2 0x1C7 PUSH2 0x6C5 JUMP JUMPDEST PUSH1 0x40 MLOAD PUSH2 0x1DB SWAP9 SWAP8 SWAP7 SWAP6 SWAP5 SWAP4 SWAP3 SWAP2 SWAP1 PUSH2 0x15F5 JUMP JUMPDEST PUSH1 0x40 MLOAD DUP1 SWAP2 SUB SWAP1 RETURN JUMPDEST PUSH2 0x1EC PUSH2 0xA49 JUMP JUMPDEST PUSH1 0x40 MLOAD PUSH2 0x1F9 SWAP2 SWAP1 PUSH2 0x1696 JUMP JUMPDEST PUSH1 0x40 MLOAD DUP1 SWAP2 SUB SWAP1 RETURN JUMPDEST PUSH2 0x21C PUSH1 0x4 DUP1 CALLDATASIZE SUB DUP2 ADD SWAP1 PUSH2 0x217 SWAP2 SWAP1 PUSH2 0x16F6 JUMP JUMPDEST PUSH2 0xB22 JUMP JUMPDEST STOP JUMPDEST PUSH2 0x238 PUSH1 0x4 DUP1 CALLDATASIZE SUB DUP2 ADD SWAP1 PUSH2 0x233 SWAP2 SWAP1 PUSH2 0x1387 JUMP JUMPDEST PUSH2 0xC17 JUMP JUMPDEST PUSH1 0x40 MLOAD PUSH2 0x245 SWAP2 SWAP1 PUSH2 0x119D JUMP JUMPDEST PUSH1 0x40 MLOAD DUP1 SWAP2 SUB SWAP1 RETURN JUMPDEST PUSH2 0x268 PUSH1 0x4 DUP1 CALLDATASIZE SUB DUP2 ADD SWAP1 PUSH2 0x263 SWAP2 SWAP1 PUSH2 0x16F6 JUMP JUMPDEST PUSH2 0xCC3 JUMP JUMPDEST PUSH1 0x40 MLOAD PUSH2 0x277 SWAP4 SWAP3 SWAP2 SWAP1 PUSH2 0x1723 JUMP JUMPDEST PUSH1 0x40 MLOAD DUP1 SWAP2 SUB SWAP1 RETURN JUMPDEST PUSH2 0x288 PUSH2 0xDA2 JUMP JUMPDEST PUSH1 0x40 MLOAD PUSH2 0x295 SWAP2 SWAP1 PUSH2 0x1770 JUMP JUMPDEST PUSH1 0x40 MLOAD DUP1 SWAP2 SUB SWAP1 RETURN JUMPDEST PUSH2 0x2A6 PUSH2 0xDA8 JUMP JUMPDEST STOP JUMPDEST PUSH2 0x2C2 PUSH1 0x4 DUP1 CALLDATASIZE SUB DUP2 ADD SWAP1 PUSH2 0x2BD SWAP2 SWAP1 PUSH2 0x1387 JUMP JUMPDEST PUSH2 0xE86 JUMP JUMPDEST PUSH1 0x40 MLOAD PUSH2 0x2CF SWAP2 SWAP1 PUSH2 0x119D JUMP JUMPDEST PUSH1 0x40 MLOAD DUP1 SWAP2 SUB SWAP1 RETURN JUMPDEST PUSH2 0x2E0 PUSH2 0xF32 JUMP JUMPDEST PUSH1 0x40 MLOAD PUSH2 0x2ED SWAP2 SWAP1 PUSH2 0x119D JUMP JUMPDEST PUSH1 0x40 MLOAD DUP1 SWAP2 SUB SWAP1 RETURN JUMPDEST PUSH2 0x2FE PUSH2 0xFC0 JUMP JUMPDEST PUSH1 0x40 MLOAD PUSH2 0x30B SWAP2 SWAP1 PUSH2 0x178B JUMP JUMPDEST PUSH1 0x40 MLOAD DUP1 SWAP2 SUB SWAP1 RETURN JUMPDEST PUSH2 0x31C PUSH2 0xFD3 JUMP JUMPDEST PUSH1 0x40 MLOAD PUSH2 0x329 SWAP2 SWAP1 PUSH2 0x119D JUMP JUMPDEST PUSH1 0x40 MLOAD DUP1 SWAP2 SUB SWAP1 RETURN JUMPDEST PUSH1 0x2 DUP1 SLOAD PUSH2 0x33F SWAP1 PUSH2 0x17D5 JUMP JUMPDEST DUP1 PUSH1 0x1F ADD PUSH1 0x20 DUP1 SWAP2 DIV MUL PUSH1 0x20 ADD PUSH1 0x40 MLOAD SWAP1 DUP2 ADD PUSH1 0x40 MSTORE DUP1 SWAP3 SWAP2 SWAP1 DUP2 DUP2 MSTORE PUSH1 0x20 ADD DUP3 DUP1 SLOAD PUSH2 0x36B SWAP1 PUSH2 0x17D5 JUMP JUMPDEST DUP1 ISZERO PUSH2 0x3B8 JUMPI DUP1 PUSH1 0x1F LT PUSH2 0x38D JUMPI PUSH2 0x100 DUP1 DUP4 SLOAD DIV MUL DUP4 MSTORE SWAP2 PUSH1 0x20 ADD SWAP2 PUSH2 0x3B8 JUMP JUMPDEST DUP3 ADD SWAP2 SWAP1 PUSH1 0x0 MSTORE PUSH1 0x20 PUSH1 0x0 KECCAK256 SWAP1 JUMPDEST DUP2 SLOAD DUP2 MSTORE SWAP1 PUSH1 0x1 ADD SWAP1 PUSH1 0x20 ADD DUP1 DUP4 GT PUSH2 0x39B JUMPI DUP3 SWAP1 SUB PUSH1 0x1F AND DUP3 ADD SWAP2 JUMPDEST POP POP POP POP POP DUP2 JUMP JUMPDEST PUSH1 0x0 DUP1 SLOAD SWAP1 PUSH2 0x100 EXP SWAP1 DIV PUSH20 0xFFFFFFFFFFFFFFFFFFFFFFFFFFFFFFFFFFFFFFFF AND PUSH20 0xFFFFFFFFFFFFFFFFFFFFFFFFFFFFFFFFFFFFFFFF AND CALLER PUSH20 0xFFFFFFFFFFFFFFFFFFFFFFFFFFFFFFFFFFFFFFFF AND EQ PUSH2 0x418 JUMPI PUSH1 0x0 DUP1 REVERT JUMPDEST PUSH1 0x0 PUSH20 0xFFFFFFFFFFFFFFFFFFFFFFFFFFFFFFFFFFFFFFFF AND PUSH1 0x6 PUSH1 0x0 SWAP1 SLOAD SWAP1 PUSH2 0x100 EXP SWAP1 DIV PUSH20 0xFFFFFFFFFFFFFFFFFFFFFFFFFFFFFFFFFFFFFFFF AND PUSH20 0xFFFFFFFFFFFFFFFFFFFFFFFFFFFFFFFFFFFFFFFF AND EQ PUSH2 0x473 JUMPI PUSH1 0x0 DUP1 REVERT JUMPDEST PUSH1 0x0 DUP1 SLOAD SWAP1 PUSH2 0x100 EXP SWAP1 DIV PUSH20 0xFFFFFFFFFFFFFFFFFFFFFFFFFFFFFFFFFFFFFFFF AND PUSH20 0xFFFFFFFFFFFFFFFFFFFFFFFFFFFFFFFFFFFFFFFF AND PUSH2 0x8FC SELFBALANCE SWAP1 DUP2 ISZERO MUL SWAP1 PUSH1 0x40 MLOAD PUSH1 0x0 PUSH1 0x40 MLOAD DUP1 DUP4 SUB DUP2 DUP6 DUP9 DUP9 CALL SWAP4 POP POP POP POP ISZERO DUP1 ISZERO PUSH2 0x4D9 JUMPI RETURNDATASIZE PUSH1 0x0 DUP1 RETURNDATACOPY RETURNDATASIZE PUSH1 0x0 REVERT JUMPDEST POP JUMP JUMPDEST PUSH1 0x40 MLOAD DUP1 PUSH1 0x60 ADD PUSH1 0x40 MSTORE DUP1 DUP3 DUP2 MSTORE PUSH1 0x20 ADD CALLER PUSH20 0xFFFFFFFFFFFFFFFFFFFFFFFFFFFFFFFFFFFFFFFF AND DUP2 MSTORE PUSH1 0x20 ADD PUSH1 0x1 ISZERO ISZERO DUP2 MSTORE POP PUSH1 0x7 PUSH1 0x0 CALLER PUSH20 0xFFFFFFFFFFFFFFFFFFFFFFFFFFFFFFFFFFFFFFFF AND PUSH20 0xFFFFFFFFFFFFFFFFFFFFFFFFFFFFFFFFFFFFFFFF AND DUP2 MSTORE PUSH1 0x20 ADD SWAP1 DUP2 MSTORE PUSH1 0x20 ADD PUSH1 0x0 KECCAK256 PUSH1 0x0 DUP3 ADD MLOAD DUP2 PUSH1 0x0 ADD SWAP1 DUP1 MLOAD SWAP1 PUSH1 0x20 ADD SWAP1 PUSH2 0x56B SWAP3 SWAP2 SWAP1 PUSH2 0x1061 JUMP JUMPDEST POP PUSH1 0x20 DUP3 ADD MLOAD DUP2 PUSH1 0x1 ADD PUSH1 0x0 PUSH2 0x100 EXP DUP2 SLOAD DUP2 PUSH20 0xFFFFFFFFFFFFFFFFFFFFFFFFFFFFFFFFFFFFFFFF MUL NOT AND SWAP1 DUP4 PUSH20 0xFFFFFFFFFFFFFFFFFFFFFFFFFFFFFFFFFFFFFFFF AND MUL OR SWAP1 SSTORE POP PUSH1 0x40 DUP3 ADD MLOAD DUP2 PUSH1 0x1 ADD PUSH1 0x14 PUSH2 0x100 EXP DUP2 SLOAD DUP2 PUSH1 0xFF MUL NOT AND SWAP1 DUP4 ISZERO ISZERO MUL OR SWAP1 SSTORE POP SWAP1 POP POP PUSH1 0x8 CALLER SWAP1 DUP1 PUSH1 0x1 DUP2 SLOAD ADD DUP1 DUP3 SSTORE DUP1 SWAP2 POP POP PUSH1 0x1 SWAP1 SUB SWAP1 PUSH1 0x0 MSTORE PUSH1 0x20 PUSH1 0x0 KECCAK256 ADD PUSH1 0x0 SWAP1 SWAP2 SWAP1 SWAP2 SWAP1 SWAP2 PUSH2 0x100 EXP DUP2 SLOAD DUP2 PUSH20 0xFFFFFFFFFFFFFFFFFFFFFFFFFFFFFFFFFFFFFFFF MUL NOT AND SWAP1 DUP4 PUSH20 0xFFFFFFFFFFFFFFFFFFFFFFFFFFFFFFFFFFFFFFFF AND MUL OR SWAP1 SSTORE POP POP JUMP JUMPDEST PUSH1 0x8 DUP2 DUP2 SLOAD DUP2 LT PUSH2 0x64C JUMPI PUSH1 0x0 DUP1 REVERT JUMPDEST SWAP1 PUSH1 0x0 MSTORE PUSH1 0x20 PUSH1 0x0 KECCAK256 ADD PUSH1 0x0 SWAP2 POP SLOAD SWAP1 PUSH2 0x100 EXP SWAP1 DIV PUSH20 0xFFFFFFFFFFFFFFFFFFFFFFFFFFFFFFFFFFFFFFFF AND DUP2 JUMP JUMPDEST PUSH1 0x0 DUP1 SLOAD SWAP1 PUSH2 0x100 EXP SWAP1 DIV PUSH20 0xFFFFFFFFFFFFFFFFFFFFFFFFFFFFFFFFFFFFFFFF AND DUP2 JUMP JUMPDEST PUSH1 0x6 PUSH1 0x0 SWAP1 SLOAD SWAP1 PUSH2 0x100 EXP SWAP1 DIV PUSH20 0xFFFFFFFFFFFFFFFFFFFFFFFFFFFFFFFFFFFFFFFF AND DUP2 JUMP JUMPDEST PUSH1 0x0 PUSH1 0x60 DUP1 PUSH1 0x60 DUP1 PUSH1 0x0 DUP1 PUSH1 0x60 PUSH1 0x0 DUP1 SLOAD SWAP1 PUSH2 0x100 EXP SWAP1 DIV PUSH20 0xFFFFFFFFFFFFFFFFFFFFFFFFFFFFFFFFFFFFFFFF AND PUSH1 0x2 PUSH1 0x3 PUSH1 0x4 PUSH1 0x1 PUSH1 0x6 PUSH1 0x0 SWAP1 SLOAD SWAP1 PUSH2 0x100 EXP SWAP1 DIV PUSH20 0xFFFFFFFFFFFFFFFFFFFFFFFFFFFFFFFFFFFFFFFF AND PUSH1 0x6 PUSH1 0x14 SWAP1 SLOAD SWAP1 PUSH2 0x100 EXP SWAP1 DIV PUSH1 0xFF AND PUSH1 0x8 DUP7 DUP1 SLOAD PUSH2 0x73C SWAP1 PUSH2 0x17D5 JUMP JUMPDEST DUP1 PUSH1 0x1F ADD PUSH1 0x20 DUP1 SWAP2 DIV MUL PUSH1 0x20 ADD PUSH1 0x40 MLOAD SWAP1 DUP2 ADD PUSH1 0x40 MSTORE DUP1 SWAP3 SWAP2 SWAP1 DUP2 DUP2 MSTORE PUSH1 0x20 ADD DUP3 DUP1 SLOAD PUSH2 0x768 SWAP1 PUSH2 0x17D5 JUMP JUMPDEST DUP1 ISZERO PUSH2 0x7B5 JUMPI DUP1 PUSH1 0x1F LT PUSH2 0x78A JUMPI PUSH2 0x100 DUP1 DUP4 SLOAD DIV MUL DUP4 MSTORE SWAP2 PUSH1 0x20 ADD SWAP2 PUSH2 0x7B5 JUMP JUMPDEST DUP3 ADD SWAP2 SWAP1 PUSH1 0x0 MSTORE PUSH1 0x20 PUSH1 0x0 KECCAK256 SWAP1 JUMPDEST DUP2 SLOAD DUP2 MSTORE SWAP1 PUSH1 0x1 ADD SWAP1 PUSH1 0x20 ADD DUP1 DUP4 GT PUSH2 0x798 JUMPI DUP3 SWAP1 SUB PUSH1 0x1F AND DUP3 ADD SWAP2 JUMPDEST POP POP POP POP POP SWAP7 POP DUP6 DUP1 SLOAD DUP1 PUSH1 0x20 MUL PUSH1 0x20 ADD PUSH1 0x40 MLOAD SWAP1 DUP2 ADD PUSH1 0x40 MSTORE DUP1 SWAP3 SWAP2 SWAP1 DUP2 DUP2 MSTORE PUSH1 0x20 ADD PUSH1 0x0 SWAP1 JUMPDEST DUP3 DUP3 LT ISZERO PUSH2 0x889 JUMPI DUP4 DUP3 SWAP1 PUSH1 0x0 MSTORE PUSH1 0x20 PUSH1 0x0 KECCAK256 ADD DUP1 SLOAD PUSH2 0x7FC SWAP1 PUSH2 0x17D5 JUMP JUMPDEST DUP1 PUSH1 0x1F ADD PUSH1 0x20 DUP1 SWAP2 DIV MUL PUSH1 0x20 ADD PUSH1 0x40 MLOAD SWAP1 DUP2 ADD PUSH1 0x40 MSTORE DUP1 SWAP3 SWAP2 SWAP1 DUP2 DUP2 MSTORE PUSH1 0x20 ADD DUP3 DUP1 SLOAD PUSH2 0x828 SWAP1 PUSH2 0x17D5 JUMP JUMPDEST DUP1 ISZERO PUSH2 0x875 JUMPI DUP1 PUSH1 0x1F LT PUSH2 0x84A JUMPI PUSH2 0x100 DUP1 DUP4 SLOAD DIV MUL DUP4 MSTORE SWAP2 PUSH1 0x20 ADD SWAP2 PUSH2 0x875 JUMP JUMPDEST DUP3 ADD SWAP2 SWAP1 PUSH1 0x0 MSTORE PUSH1 0x20 PUSH1 0x0 KECCAK256 SWAP1 JUMPDEST DUP2 SLOAD DUP2 MSTORE SWAP1 PUSH1 0x1 ADD SWAP1 PUSH1 0x20 ADD DUP1 DUP4 GT PUSH2 0x858 JUMPI DUP3 SWAP1 SUB PUSH1 0x1F AND DUP3 ADD SWAP2 JUMPDEST POP POP POP POP POP DUP2 MSTORE PUSH1 0x20 ADD SWAP1 PUSH1 0x1 ADD SWAP1 PUSH2 0x7DD JUMP JUMPDEST POP POP POP POP SWAP6 POP DUP5 DUP1 SLOAD PUSH2 0x89B SWAP1 PUSH2 0x17D5 JUMP JUMPDEST DUP1 PUSH1 0x1F ADD PUSH1 0x20 DUP1 SWAP2 DIV MUL PUSH1 0x20 ADD PUSH1 0x40 MLOAD SWAP1 DUP2 ADD PUSH1 0x40 MSTORE DUP1 SWAP3 SWAP2 SWAP1 DUP2 DUP2 MSTORE PUSH1 0x20 ADD DUP3 DUP1 SLOAD PUSH2 0x8C7 SWAP1 PUSH2 0x17D5 JUMP JUMPDEST DUP1 ISZERO PUSH2 0x914 JUMPI DUP1 PUSH1 0x1F LT PUSH2 0x8E9 JUMPI PUSH2 0x100 DUP1 DUP4 SLOAD DIV MUL DUP4 MSTORE SWAP2 PUSH1 0x20 ADD SWAP2 PUSH2 0x914 JUMP JUMPDEST DUP3 ADD SWAP2 SWAP1 PUSH1 0x0 MSTORE PUSH1 0x20 PUSH1 0x0 KECCAK256 SWAP1 JUMPDEST DUP2 SLOAD DUP2 MSTORE SWAP1 PUSH1 0x1 ADD SWAP1 PUSH1 0x20 ADD DUP1 DUP4 GT PUSH2 0x8F7 JUMPI DUP3 SWAP1 SUB PUSH1 0x1F AND DUP3 ADD SWAP2 JUMPDEST POP POP POP POP POP SWAP5 POP DUP4 DUP1 SLOAD PUSH2 0x927 SWAP1 PUSH2 0x17D5 JUMP JUMPDEST DUP1 PUSH1 0x1F ADD PUSH1 0x20 DUP1 SWAP2 DIV MUL PUSH1 0x20 ADD PUSH1 0x40 MLOAD SWAP1 DUP2 ADD PUSH1 0x40 MSTORE DUP1 SWAP3 SWAP2 SWAP1 DUP2 DUP2 MSTORE PUSH1 0x20 ADD DUP3 DUP1 SLOAD PUSH2 0x953 SWAP1 PUSH2 0x17D5 JUMP JUMPDEST DUP1 ISZERO PUSH2 0x9A0 JUMPI DUP1 PUSH1 0x1F LT PUSH2 0x975 JUMPI PUSH2 0x100 DUP1 DUP4 SLOAD DIV MUL DUP4 MSTORE SWAP2 PUSH1 0x20 ADD SWAP2 PUSH2 0x9A0 JUMP JUMPDEST DUP3 ADD SWAP2 SWAP1 PUSH1 0x0 MSTORE PUSH1 0x20 PUSH1 0x0 KECCAK256 SWAP1 JUMPDEST DUP2 SLOAD DUP2 MSTORE SWAP1 PUSH1 0x1 ADD SWAP1 PUSH1 0x20 ADD DUP1 DUP4 GT PUSH2 0x983 JUMPI DUP3 SWAP1 SUB PUSH1 0x1F AND DUP3 ADD SWAP2 JUMPDEST POP POP POP POP POP SWAP4 POP DUP1 DUP1 SLOAD DUP1 PUSH1 0x20 MUL PUSH1 0x20 ADD PUSH1 0x40 MLOAD SWAP1 DUP2 ADD PUSH1 0x40 MSTORE DUP1 SWAP3 SWAP2 SWAP1 DUP2 DUP2 MSTORE PUSH1 0x20 ADD DUP3 DUP1 SLOAD DUP1 ISZERO PUSH2 0xA28 JUMPI PUSH1 0x20 MUL DUP3 ADD SWAP2 SWAP1 PUSH1 0x0 MSTORE PUSH1 0x20 PUSH1 0x0 KECCAK256 SWAP1 JUMPDEST DUP2 PUSH1 0x0 SWAP1 SLOAD SWAP1 PUSH2 0x100 EXP SWAP1 DIV PUSH20 0xFFFFFFFFFFFFFFFFFFFFFFFFFFFFFFFFFFFFFFFF AND PUSH20 0xFFFFFFFFFFFFFFFFFFFFFFFFFFFFFFFFFFFFFFFF AND DUP2 MSTORE PUSH1 0x20 ADD SWAP1 PUSH1 0x1 ADD SWAP1 DUP1 DUP4 GT PUSH2 0x9DE JUMPI JUMPDEST POP POP POP POP POP SWAP1 POP SWAP8 POP SWAP8 POP SWAP8 POP SWAP8 POP SWAP8 POP SWAP8 POP SWAP8 POP SWAP8 POP SWAP1 SWAP2 SWAP3 SWAP4 SWAP5 SWAP6 SWAP7 SWAP8 JUMP JUMPDEST PUSH1 0x60 PUSH1 0x5 DUP1 SLOAD DUP1 PUSH1 0x20 MUL PUSH1 0x20 ADD PUSH1 0x40 MLOAD SWAP1 DUP2 ADD PUSH1 0x40 MSTORE DUP1 SWAP3 SWAP2 SWAP1 DUP2 DUP2 MSTORE PUSH1 0x20 ADD PUSH1 0x0 SWAP1 JUMPDEST DUP3 DUP3 LT ISZERO PUSH2 0xB19 JUMPI DUP4 DUP3 SWAP1 PUSH1 0x0 MSTORE PUSH1 0x20 PUSH1 0x0 KECCAK256 ADD DUP1 SLOAD PUSH2 0xA8C SWAP1 PUSH2 0x17D5 JUMP JUMPDEST DUP1 PUSH1 0x1F ADD PUSH1 0x20 DUP1 SWAP2 DIV MUL PUSH1 0x20 ADD PUSH1 0x40 MLOAD SWAP1 DUP2 ADD PUSH1 0x40 MSTORE DUP1 SWAP3 SWAP2 SWAP1 DUP2 DUP2 MSTORE PUSH1 0x20 ADD DUP3 DUP1 SLOAD PUSH2 0xAB8 SWAP1 PUSH2 0x17D5 JUMP JUMPDEST DUP1 ISZERO PUSH2 0xB05 JUMPI DUP1 PUSH1 0x1F LT PUSH2 0xADA JUMPI PUSH2 0x100 DUP1 DUP4 SLOAD DIV MUL DUP4 MSTORE SWAP2 PUSH1 0x20 ADD SWAP2 PUSH2 0xB05 JUMP JUMPDEST DUP3 ADD SWAP2 SWAP1 PUSH1 0x0 MSTORE PUSH1 0x20 PUSH1 0x0 KECCAK256 SWAP1 JUMPDEST DUP2 SLOAD DUP2 MSTORE SWAP1 PUSH1 0x1 ADD SWAP1 PUSH1 0x20 ADD DUP1 DUP4 GT PUSH2 0xAE8 JUMPI DUP3 SWAP1 SUB PUSH1 0x1F AND DUP3 ADD SWAP2 JUMPDEST POP POP POP POP POP DUP2 MSTORE PUSH1 0x20 ADD SWAP1 PUSH1 0x1 ADD SWAP1 PUSH2 0xA6D JUMP JUMPDEST POP POP POP POP SWAP1 POP SWAP1 JUMP JUMPDEST PUSH1 0x0 DUP1 SLOAD SWAP1 PUSH2 0x100 EXP SWAP1 DIV PUSH20 0xFFFFFFFFFFFFFFFFFFFFFFFFFFFFFFFFFFFFFFFF AND PUSH20 0xFFFFFFFFFFFFFFFFFFFFFFFFFFFFFFFFFFFFFFFF AND CALLER PUSH20 0xFFFFFFFFFFFFFFFFFFFFFFFFFFFFFFFFFFFFFFFF AND EQ PUSH2 0xB7A JUMPI PUSH1 0x0 DUP1 REVERT JUMPDEST PUSH1 0x7 PUSH1 0x0 DUP3 PUSH20 0xFFFFFFFFFFFFFFFFFFFFFFFFFFFFFFFFFFFFFFFF AND PUSH20 0xFFFFFFFFFFFFFFFFFFFFFFFFFFFFFFFFFFFFFFFF AND DUP2 MSTORE PUSH1 0x20 ADD SWAP1 DUP2 MSTORE PUSH1 0x20 ADD PUSH1 0x0 KECCAK256 PUSH1 0x1 ADD PUSH1 0x14 SWAP1 SLOAD SWAP1 PUSH2 0x100 EXP SWAP1 DIV PUSH1 0xFF AND PUSH2 0xBD3 JUMPI PUSH1 0x0 DUP1 REVERT JUMPDEST DUP1 PUSH1 0x6 PUSH1 0x0 PUSH2 0x100 EXP DUP2 SLOAD DUP2 PUSH20 0xFFFFFFFFFFFFFFFFFFFFFFFFFFFFFFFFFFFFFFFF MUL NOT AND SWAP1 DUP4 PUSH20 0xFFFFFFFFFFFFFFFFFFFFFFFFFFFFFFFFFFFFFFFF AND MUL OR SWAP1 SSTORE POP POP JUMP JUMPDEST PUSH1 0x3 DUP2 DUP2 SLOAD DUP2 LT PUSH2 0xC27 JUMPI PUSH1 0x0 DUP1 REVERT JUMPDEST SWAP1 PUSH1 0x0 MSTORE PUSH1 0x20 PUSH1 0x0 KECCAK256 ADD PUSH1 0x0 SWAP2 POP SWAP1 POP DUP1 SLOAD PUSH2 0xC42 SWAP1 PUSH2 0x17D5 JUMP JUMPDEST DUP1 PUSH1 0x1F ADD PUSH1 0x20 DUP1 SWAP2 DIV MUL PUSH1 0x20 ADD PUSH1 0x40 MLOAD SWAP1 DUP2 ADD PUSH1 0x40 MSTORE DUP1 SWAP3 SWAP2 SWAP1 DUP2 DUP2 MSTORE PUSH1 0x20 ADD DUP3 DUP1 SLOAD PUSH2 0xC6E SWAP1 PUSH2 0x17D5 JUMP JUMPDEST DUP1 ISZERO PUSH2 0xCBB JUMPI DUP1 PUSH1 0x1F LT PUSH2 0xC90 JUMPI PUSH2 0x100 DUP1 DUP4 SLOAD DIV MUL DUP4 MSTORE SWAP2 PUSH1 0x20 ADD SWAP2 PUSH2 0xCBB JUMP JUMPDEST DUP3 ADD SWAP2 SWAP1 PUSH1 0x0 MSTORE PUSH1 0x20 PUSH1 0x0 KECCAK256 SWAP1 JUMPDEST DUP2 SLOAD DUP2 MSTORE SWAP1 PUSH1 0x1 ADD SWAP1 PUSH1 0x20 ADD DUP1 DUP4 GT PUSH2 0xC9E JUMPI DUP3 SWAP1 SUB PUSH1 0x1F AND DUP3 ADD SWAP2 JUMPDEST POP POP POP POP POP DUP2 JUMP JUMPDEST PUSH1 0x7 PUSH1 0x20 MSTORE DUP1 PUSH1 0x0 MSTORE PUSH1 0x40 PUSH1 0x0 KECCAK256 PUSH1 0x0 SWAP2 POP SWAP1 POP DUP1 PUSH1 0x0 ADD DUP1 SLOAD PUSH2 0xCE6 SWAP1 PUSH2 0x17D5 JUMP JUMPDEST DUP1 PUSH1 0x1F ADD PUSH1 0x20 DUP1 SWAP2 DIV MUL PUSH1 0x20 ADD PUSH1 0x40 MLOAD SWAP1 DUP2 ADD PUSH1 0x40 MSTORE DUP1 SWAP3 SWAP2 SWAP1 DUP2 DUP2 MSTORE PUSH1 0x20 ADD DUP3 DUP1 SLOAD PUSH2 0xD12 SWAP1 PUSH2 0x17D5 JUMP JUMPDEST DUP1 ISZERO PUSH2 0xD5F JUMPI DUP1 PUSH1 0x1F LT PUSH2 0xD34 JUMPI PUSH2 0x100 DUP1 DUP4 SLOAD DIV MUL DUP4 MSTORE SWAP2 PUSH1 0x20 ADD SWAP2 PUSH2 0xD5F JUMP JUMPDEST DUP3 ADD SWAP2 SWAP1 PUSH1 0x0 MSTORE PUSH1 0x20 PUSH1 0x0 KECCAK256 SWAP1 JUMPDEST DUP2 SLOAD DUP2 MSTORE SWAP1 PUSH1 0x1 ADD SWAP1 PUSH1 0x20 ADD DUP1 DUP4 GT PUSH2 0xD42 JUMPI DUP3 SWAP1 SUB PUSH1 0x1F AND DUP3 ADD SWAP2 JUMPDEST POP POP POP POP POP SWAP1 DUP1 PUSH1 0x1 ADD PUSH1 0x0 SWAP1 SLOAD SWAP1 PUSH2 0x100 EXP SWAP1 DIV PUSH20 0xFFFFFFFFFFFFFFFFFFFFFFFFFFFFFFFFFFFFFFFF AND SWAP1 DUP1 PUSH1 0x1 ADD PUSH1 0x14 SWAP1 SLOAD SWAP1 PUSH2 0x100 EXP SWAP1 DIV PUSH1 0xFF AND SWAP1 POP DUP4 JUMP JUMPDEST PUSH1 0x9 SLOAD DUP2 JUMP JUMPDEST PUSH1 0x0 DUP1 SLOAD SWAP1 PUSH2 0x100 EXP SWAP1 DIV PUSH20 0xFFFFFFFFFFFFFFFFFFFFFFFFFFFFFFFFFFFFFFFF AND PUSH20 0xFFFFFFFFFFFFFFFFFFFFFFFFFFFFFFFFFFFFFFFF AND CALLER PUSH20 0xFFFFFFFFFFFFFFFFFFFFFFFFFFFFFFFFFFFFFFFF AND EQ PUSH2 0xE00 JUMPI PUSH1 0x0 DUP1 REVERT JUMPDEST PUSH1 0x6 PUSH1 0x0 SWAP1 SLOAD SWAP1 PUSH2 0x100 EXP SWAP1 DIV PUSH20 0xFFFFFFFFFFFFFFFFFFFFFFFFFFFFFFFFFFFFFFFF AND PUSH20 0xFFFFFFFFFFFFFFFFFFFFFFFFFFFFFFFFFFFFFFFF AND PUSH2 0x8FC SELFBALANCE SWAP1 DUP2 ISZERO MUL SWAP1 PUSH1 0x40 MLOAD PUSH1 0x0 PUSH1 0x40 MLOAD DUP1 DUP4 SUB DUP2 DUP6 DUP9 DUP9 CALL SWAP4 POP POP POP POP ISZERO DUP1 ISZERO PUSH2 0xE68 JUMPI RETURNDATASIZE PUSH1 0x0 DUP1 RETURNDATACOPY RETURNDATASIZE PUSH1 0x0 REVERT JUMPDEST POP PUSH1 0x1 PUSH1 0x6 PUSH1 0x14 PUSH2 0x100 EXP DUP2 SLOAD DUP2 PUSH1 0xFF MUL NOT AND SWAP1 DUP4 ISZERO ISZERO MUL OR SWAP1 SSTORE POP JUMP JUMPDEST PUSH1 0x5 DUP2 DUP2 SLOAD DUP2 LT PUSH2 0xE96 JUMPI PUSH1 0x0 DUP1 REVERT JUMPDEST SWAP1 PUSH1 0x0 MSTORE PUSH1 0x20 PUSH1 0x0 KECCAK256 ADD PUSH1 0x0 SWAP2 POP SWAP1 POP DUP1 SLOAD PUSH2 0xEB1 SWAP1 PUSH2 0x17D5 JUMP JUMPDEST DUP1 PUSH1 0x1F ADD PUSH1 0x20 DUP1 SWAP2 DIV MUL PUSH1 0x20 ADD PUSH1 0x40 MLOAD SWAP1 DUP2 ADD PUSH1 0x40 MSTORE DUP1 SWAP3 SWAP2 SWAP1 DUP2 DUP2 MSTORE PUSH1 0x20 ADD DUP3 DUP1 SLOAD PUSH2 0xEDD SWAP1 PUSH2 0x17D5 JUMP JUMPDEST DUP1 ISZERO PUSH2 0xF2A JUMPI DUP1 PUSH1 0x1F LT PUSH2 0xEFF JUMPI PUSH2 0x100 DUP1 DUP4 SLOAD DIV MUL DUP4 MSTORE SWAP2 PUSH1 0x20 ADD SWAP2 PUSH2 0xF2A JUMP JUMPDEST DUP3 ADD SWAP2 SWAP1 PUSH1 0x0 MSTORE PUSH1 0x20 PUSH1 0x0 KECCAK256 SWAP1 JUMPDEST DUP2 SLOAD DUP2 MSTORE SWAP1 PUSH1 0x1 ADD SWAP1 PUSH1 0x20 ADD DUP1 DUP4 GT PUSH2 0xF0D JUMPI DUP3 SWAP1 SUB PUSH1 0x1F AND DUP3 ADD SWAP2 JUMPDEST POP POP POP POP POP DUP2 JUMP JUMPDEST PUSH1 0x1 DUP1 SLOAD PUSH2 0xF3F SWAP1 PUSH2 0x17D5 JUMP JUMPDEST DUP1 PUSH1 0x1F ADD PUSH1 0x20 DUP1 SWAP2 DIV MUL PUSH1 0x20 ADD PUSH1 0x40 MLOAD SWAP1 DUP2 ADD PUSH1 0x40 MSTORE DUP1 SWAP3 SWAP2 SWAP1 DUP2 DUP2 MSTORE PUSH1 0x20 ADD DUP3 DUP1 SLOAD PUSH2 0xF6B SWAP1 PUSH2 0x17D5 JUMP JUMPDEST DUP1 ISZERO PUSH2 0xFB8 JUMPI DUP1 PUSH1 0x1F LT PUSH2 0xF8D JUMPI PUSH2 0x100 DUP1 DUP4 SLOAD DIV MUL DUP4 MSTORE SWAP2 PUSH1 0x20 ADD SWAP2 PUSH2 0xFB8 JUMP JUMPDEST DUP3 ADD SWAP2 SWAP1 PUSH1 0x0 MSTORE PUSH1 0x20 PUSH1 0x0 KECCAK256 SWAP1 JUMPDEST DUP2 SLOAD DUP2 MSTORE SWAP1 PUSH1 0x1 ADD SWAP1 PUSH1 0x20 ADD DUP1 DUP4 GT PUSH2 0xF9B JUMPI DUP3 SWAP1 SUB PUSH1 0x1F AND DUP3 ADD SWAP2 JUMPDEST POP POP POP POP POP DUP2 JUMP JUMPDEST PUSH1 0x6 PUSH1 0x14 SWAP1 SLOAD SWAP1 PUSH2 0x100 EXP SWAP1 DIV PUSH1 0xFF AND DUP2 JUMP JUMPDEST PUSH1 0x4 DUP1 SLOAD PUSH2 0xFE0 SWAP1 PUSH2 0x17D5 JUMP JUMPDEST DUP1 PUSH1 0x1F ADD PUSH1 0x20 DUP1 SWAP2 DIV MUL PUSH1 0x20 ADD PUSH1 0x40 MLOAD SWAP1 DUP2 ADD PUSH1 0x40 MSTORE DUP1 SWAP3 SWAP2 SWAP1 DUP2 DUP2 MSTORE PUSH1 0x20 ADD DUP3 DUP1 SLOAD PUSH2 0x100C SWAP1 PUSH2 0x17D5 JUMP JUMPDEST DUP1 ISZERO PUSH2 0x1059 JUMPI DUP1 PUSH1 0x1F LT PUSH2 0x102E JUMPI PUSH2 0x100 DUP1 DUP4 SLOAD DIV MUL DUP4 MSTORE SWAP2 PUSH1 0x20 ADD SWAP2 PUSH2 0x1059 JUMP JUMPDEST DUP3 ADD SWAP2 SWAP1 PUSH1 0x0 MSTORE PUSH1 0x20 PUSH1 0x0 KECCAK256 SWAP1 JUMPDEST DUP2 SLOAD DUP2 MSTORE SWAP1 PUSH1 0x1 ADD SWAP1 PUSH1 0x20 ADD DUP1 DUP4 GT PUSH2 0x103C JUMPI DUP3 SWAP1 SUB PUSH1 0x1F AND DUP3 ADD SWAP2 JUMPDEST POP POP POP POP POP DUP2 JUMP JUMPDEST DUP3 DUP1 SLOAD PUSH2 0x106D SWAP1 PUSH2 0x17D5 JUMP JUMPDEST SWAP1 PUSH1 0x0 MSTORE PUSH1 0x20 PUSH1 0x0 KECCAK256 SWAP1 PUSH1 0x1F ADD PUSH1 0x20 SWAP1 DIV DUP2 ADD SWAP3 DUP3 PUSH2 0x108F JUMPI PUSH1 0x0 DUP6 SSTORE PUSH2 0x10D6 JUMP JUMPDEST DUP3 PUSH1 0x1F LT PUSH2 0x10A8 JUMPI DUP1 MLOAD PUSH1 0xFF NOT AND DUP4 DUP1 ADD OR DUP6 SSTORE PUSH2 0x10D6 JUMP JUMPDEST DUP3 DUP1 ADD PUSH1 0x1 ADD DUP6 SSTORE DUP3 ISZERO PUSH2 0x10D6 JUMPI SWAP2 DUP3 ADD JUMPDEST DUP3 DUP2 GT ISZERO PUSH2 0x10D5 JUMPI DUP3 MLOAD DUP3 SSTORE SWAP2 PUSH1 0x20 ADD SWAP2 SWAP1 PUSH1 0x1 ADD SWAP1 PUSH2 0x10BA JUMP JUMPDEST JUMPDEST POP SWAP1 POP PUSH2 0x10E3 SWAP2 SWAP1 PUSH2 0x10E7 JUMP JUMPDEST POP SWAP1 JUMP JUMPDEST JUMPDEST DUP1 DUP3 GT ISZERO PUSH2 0x1100 JUMPI PUSH1 0x0 DUP2 PUSH1 0x0 SWAP1 SSTORE POP PUSH1 0x1 ADD PUSH2 0x10E8 JUMP JUMPDEST POP SWAP1 JUMP JUMPDEST PUSH1 0x0 DUP2 MLOAD SWAP1 POP SWAP2 SWAP1 POP JUMP JUMPDEST PUSH1 0x0 DUP3 DUP3 MSTORE PUSH1 0x20 DUP3 ADD SWAP1 POP SWAP3 SWAP2 POP POP JUMP JUMPDEST PUSH1 0x0 JUMPDEST DUP4 DUP2 LT ISZERO PUSH2 0x113E JUMPI DUP1 DUP3 ADD MLOAD DUP2 DUP5 ADD MSTORE PUSH1 0x20 DUP2 ADD SWAP1 POP PUSH2 0x1123 JUMP JUMPDEST DUP4 DUP2 GT ISZERO PUSH2 0x114D JUMPI PUSH1 0x0 DUP5 DUP5 ADD MSTORE JUMPDEST POP POP POP POP JUMP JUMPDEST PUSH1 0x0 PUSH1 0x1F NOT PUSH1 0x1F DUP4 ADD AND SWAP1 POP SWAP2 SWAP1 POP JUMP JUMPDEST PUSH1 0x0 PUSH2 0x116F DUP3 PUSH2 0x1104 JUMP JUMPDEST PUSH2 0x1179 DUP2 DUP6 PUSH2 0x110F JUMP JUMPDEST SWAP4 POP PUSH2 0x1189 DUP2 DUP6 PUSH1 0x20 DUP7 ADD PUSH2 0x1120 JUMP JUMPDEST PUSH2 0x1192 DUP2 PUSH2 0x1153 JUMP JUMPDEST DUP5 ADD SWAP2 POP POP SWAP3 SWAP2 POP POP JUMP JUMPDEST PUSH1 0x0 PUSH1 0x20 DUP3 ADD SWAP1 POP DUP2 DUP2 SUB PUSH1 0x0 DUP4 ADD MSTORE PUSH2 0x11B7 DUP2 DUP5 PUSH2 0x1164 JUMP JUMPDEST SWAP1 POP SWAP3 SWAP2 POP POP JUMP JUMPDEST PUSH1 0x0 PUSH1 0x40 MLOAD SWAP1 POP SWAP1 JUMP JUMPDEST PUSH1 0x0 DUP1 REVERT JUMPDEST PUSH1 0x0 DUP1 REVERT JUMPDEST PUSH1 0x0 DUP1 REVERT JUMPDEST PUSH1 0x0 DUP1 REVERT JUMPDEST PUSH32 0x4E487B7100000000000000000000000000000000000000000000000000000000 PUSH1 0x0 MSTORE PUSH1 0x41 PUSH1 0x4 MSTORE PUSH1 0x24 PUSH1 0x0 REVERT JUMPDEST PUSH2 0x1215 DUP3 PUSH2 0x1153 JUMP JUMPDEST DUP2 ADD DUP2 DUP2 LT PUSH8 0xFFFFFFFFFFFFFFFF DUP3 GT OR ISZERO PUSH2 0x1234 JUMPI PUSH2 0x1233 PUSH2 0x11DD JUMP JUMPDEST JUMPDEST DUP1 PUSH1 0x40 MSTORE POP POP POP JUMP JUMPDEST PUSH1 0x0 PUSH2 0x1247 PUSH2 0x11BF JUMP JUMPDEST SWAP1 POP PUSH2 0x1253 DUP3 DUP3 PUSH2 0x120C JUMP JUMPDEST SWAP2 SWAP1 POP JUMP JUMPDEST PUSH1 0x0 PUSH8 0xFFFFFFFFFFFFFFFF DUP3 GT ISZERO PUSH2 0x1273 JUMPI PUSH2 0x1272 PUSH2 0x11DD JUMP JUMPDEST JUMPDEST PUSH2 0x127C DUP3 PUSH2 0x1153 JUMP JUMPDEST SWAP1 POP PUSH1 0x20 DUP2 ADD SWAP1 POP SWAP2 SWAP1 POP JUMP JUMPDEST DUP3 DUP2 DUP4 CALLDATACOPY PUSH1 0x0 DUP4 DUP4 ADD MSTORE POP POP POP JUMP JUMPDEST PUSH1 0x0 PUSH2 0x12AB PUSH2 0x12A6 DUP5 PUSH2 0x1258 JUMP JUMPDEST PUSH2 0x123D JUMP JUMPDEST SWAP1 POP DUP3 DUP2 MSTORE PUSH1 0x20 DUP2 ADD DUP5 DUP5 DUP5 ADD GT ISZERO PUSH2 0x12C7 JUMPI PUSH2 0x12C6 PUSH2 0x11D8 JUMP JUMPDEST JUMPDEST PUSH2 0x12D2 DUP5 DUP3 DUP6 PUSH2 0x1289 JUMP JUMPDEST POP SWAP4 SWAP3 POP POP POP JUMP JUMPDEST PUSH1 0x0 DUP3 PUSH1 0x1F DUP4 ADD SLT PUSH2 0x12EF JUMPI PUSH2 0x12EE PUSH2 0x11D3 JUMP JUMPDEST JUMPDEST DUP2 CALLDATALOAD PUSH2 0x12FF DUP5 DUP3 PUSH1 0x20 DUP7 ADD PUSH2 0x1298 JUMP JUMPDEST SWAP2 POP POP SWAP3 SWAP2 POP POP JUMP JUMPDEST PUSH1 0x0 PUSH1 0x20 DUP3 DUP5 SUB SLT ISZERO PUSH2 0x131E JUMPI PUSH2 0x131D PUSH2 0x11C9 JUMP JUMPDEST JUMPDEST PUSH1 0x0 DUP3 ADD CALLDATALOAD PUSH8 0xFFFFFFFFFFFFFFFF DUP2 GT ISZERO PUSH2 0x133C JUMPI PUSH2 0x133B PUSH2 0x11CE JUMP JUMPDEST JUMPDEST PUSH2 0x1348 DUP5 DUP3 DUP6 ADD PUSH2 0x12DA JUMP JUMPDEST SWAP2 POP POP SWAP3 SWAP2 POP POP JUMP JUMPDEST PUSH1 0x0 DUP2 SWAP1 POP SWAP2 SWAP1 POP JUMP JUMPDEST PUSH2 0x1364 DUP2 PUSH2 0x1351 JUMP JUMPDEST DUP2 EQ PUSH2 0x136F JUMPI PUSH1 0x0 DUP1 REVERT JUMPDEST POP JUMP JUMPDEST PUSH1 0x0 DUP2 CALLDATALOAD SWAP1 POP PUSH2 0x1381 DUP2 PUSH2 0x135B JUMP JUMPDEST SWAP3 SWAP2 POP POP JUMP JUMPDEST PUSH1 0x0 PUSH1 0x20 DUP3 DUP5 SUB SLT ISZERO PUSH2 0x139D JUMPI PUSH2 0x139C PUSH2 0x11C9 JUMP JUMPDEST JUMPDEST PUSH1 0x0 PUSH2 0x13AB DUP5 DUP3 DUP6 ADD PUSH2 0x1372 JUMP JUMPDEST SWAP2 POP POP SWAP3 SWAP2 POP POP JUMP JUMPDEST PUSH1 0x0 PUSH20 0xFFFFFFFFFFFFFFFFFFFFFFFFFFFFFFFFFFFFFFFF DUP3 AND SWAP1 POP SWAP2 SWAP1 POP JUMP JUMPDEST PUSH1 0x0 PUSH2 0x13DF DUP3 PUSH2 0x13B4 JUMP JUMPDEST SWAP1 POP SWAP2 SWAP1 POP JUMP JUMPDEST PUSH2 0x13EF DUP2 PUSH2 0x13D4 JUMP JUMPDEST DUP3 MSTORE POP POP JUMP JUMPDEST PUSH1 0x0 PUSH1 0x20 DUP3 ADD SWAP1 POP PUSH2 0x140A PUSH1 0x0 DUP4 ADD DUP5 PUSH2 0x13E6 JUMP JUMPDEST SWAP3 SWAP2 POP POP JUMP JUMPDEST PUSH1 0x0 DUP2 MLOAD SWAP1 POP SWAP2 SWAP1 POP JUMP JUMPDEST PUSH1 0x0 DUP3 DUP3 MSTORE PUSH1 0x20 DUP3 ADD SWAP1 POP SWAP3 SWAP2 POP POP JUMP JUMPDEST PUSH1 0x0 DUP2 SWAP1 POP PUSH1 0x20 DUP3 ADD SWAP1 POP SWAP2 SWAP1 POP JUMP JUMPDEST PUSH1 0x0 DUP3 DUP3 MSTORE PUSH1 0x20 DUP3 ADD SWAP1 POP SWAP3 SWAP2 POP POP JUMP JUMPDEST PUSH1 0x0 PUSH2 0x1458 DUP3 PUSH2 0x1104 JUMP JUMPDEST PUSH2 0x1462 DUP2 DUP6 PUSH2 0x143C JUMP JUMPDEST SWAP4 POP PUSH2 0x1472 DUP2 DUP6 PUSH1 0x20 DUP7 ADD PUSH2 0x1120 JUMP JUMPDEST PUSH2 0x147B DUP2 PUSH2 0x1153 JUMP JUMPDEST DUP5 ADD SWAP2 POP POP SWAP3 SWAP2 POP POP JUMP JUMPDEST PUSH1 0x0 PUSH2 0x1492 DUP4 DUP4 PUSH2 0x144D JUMP JUMPDEST SWAP1 POP SWAP3 SWAP2 POP POP JUMP JUMPDEST PUSH1 0x0 PUSH1 0x20 DUP3 ADD SWAP1 POP SWAP2 SWAP1 POP JUMP JUMPDEST PUSH1 0x0 PUSH2 0x14B2 DUP3 PUSH2 0x1410 JUMP JUMPDEST PUSH2 0x14BC DUP2 DUP6 PUSH2 0x141B JUMP JUMPDEST SWAP4 POP DUP4 PUSH1 0x20 DUP3 MUL DUP6 ADD PUSH2 0x14CE DUP6 PUSH2 0x142C JUMP JUMPDEST DUP1 PUSH1 0x0 JUMPDEST DUP6 DUP2 LT ISZERO PUSH2 0x150A JUMPI DUP5 DUP5 SUB DUP10 MSTORE DUP2 MLOAD PUSH2 0x14EB DUP6 DUP3 PUSH2 0x1486 JUMP JUMPDEST SWAP5 POP PUSH2 0x14F6 DUP4 PUSH2 0x149A JUMP JUMPDEST SWAP3 POP PUSH1 0x20 DUP11 ADD SWAP10 POP POP PUSH1 0x1 DUP2 ADD SWAP1 POP PUSH2 0x14D2 JUMP JUMPDEST POP DUP3 SWAP8 POP DUP8 SWAP6 POP POP POP POP POP POP SWAP3 SWAP2 POP POP JUMP JUMPDEST PUSH1 0x0 DUP2 ISZERO ISZERO SWAP1 POP SWAP2 SWAP1 POP JUMP JUMPDEST PUSH2 0x1531 DUP2 PUSH2 0x151C JUMP JUMPDEST DUP3 MSTORE POP POP JUMP JUMPDEST PUSH1 0x0 DUP2 MLOAD SWAP1 POP SWAP2 SWAP1 POP JUMP JUMPDEST PUSH1 0x0 DUP3 DUP3 MSTORE PUSH1 0x20 DUP3 ADD SWAP1 POP SWAP3 SWAP2 POP POP JUMP JUMPDEST PUSH1 0x0 DUP2 SWAP1 POP PUSH1 0x20 DUP3 ADD SWAP1 POP SWAP2 SWAP1 POP JUMP JUMPDEST PUSH2 0x156C DUP2 PUSH2 0x13D4 JUMP JUMPDEST DUP3 MSTORE POP POP JUMP JUMPDEST PUSH1 0x0 PUSH2 0x157E DUP4 DUP4 PUSH2 0x1563 JUMP JUMPDEST PUSH1 0x20 DUP4 ADD SWAP1 POP SWAP3 SWAP2 POP POP JUMP JUMPDEST PUSH1 0x0 PUSH1 0x20 DUP3 ADD SWAP1 POP SWAP2 SWAP1 POP JUMP JUMPDEST PUSH1 0x0 PUSH2 0x15A2 DUP3 PUSH2 0x1537 JUMP JUMPDEST PUSH2 0x15AC DUP2 DUP6 PUSH2 0x1542 JUMP JUMPDEST SWAP4 POP PUSH2 0x15B7 DUP4 PUSH2 0x1553 JUMP JUMPDEST DUP1 PUSH1 0x0 JUMPDEST DUP4 DUP2 LT ISZERO PUSH2 0x15E8 JUMPI DUP2 MLOAD PUSH2 0x15CF DUP9 DUP3 PUSH2 0x1572 JUMP JUMPDEST SWAP8 POP PUSH2 0x15DA DUP4 PUSH2 0x158A JUMP JUMPDEST SWAP3 POP POP PUSH1 0x1 DUP2 ADD SWAP1 POP PUSH2 0x15BB JUMP JUMPDEST POP DUP6 SWAP4 POP POP POP POP SWAP3 SWAP2 POP POP JUMP JUMPDEST PUSH1 0x0 PUSH2 0x100 DUP3 ADD SWAP1 POP PUSH2 0x160B PUSH1 0x0 DUP4 ADD DUP12 PUSH2 0x13E6 JUMP JUMPDEST DUP2 DUP2 SUB PUSH1 0x20 DUP4 ADD MSTORE PUSH2 0x161D DUP2 DUP11 PUSH2 0x1164 JUMP JUMPDEST SWAP1 POP DUP2 DUP2 SUB PUSH1 0x40 DUP4 ADD MSTORE PUSH2 0x1631 DUP2 DUP10 PUSH2 0x14A7 JUMP JUMPDEST SWAP1 POP DUP2 DUP2 SUB PUSH1 0x60 DUP4 ADD MSTORE PUSH2 0x1645 DUP2 DUP9 PUSH2 0x1164 JUMP JUMPDEST SWAP1 POP DUP2 DUP2 SUB PUSH1 0x80 DUP4 ADD MSTORE PUSH2 0x1659 DUP2 DUP8 PUSH2 0x1164 JUMP JUMPDEST SWAP1 POP PUSH2 0x1668 PUSH1 0xA0 DUP4 ADD DUP7 PUSH2 0x13E6 JUMP JUMPDEST PUSH2 0x1675 PUSH1 0xC0 DUP4 ADD DUP6 PUSH2 0x1528 JUMP JUMPDEST DUP2 DUP2 SUB PUSH1 0xE0 DUP4 ADD MSTORE PUSH2 0x1687 DUP2 DUP5 PUSH2 0x1597 JUMP JUMPDEST SWAP1 POP SWAP10 SWAP9 POP POP POP POP POP POP POP POP POP JUMP JUMPDEST PUSH1 0x0 PUSH1 0x20 DUP3 ADD SWAP1 POP DUP2 DUP2 SUB PUSH1 0x0 DUP4 ADD MSTORE PUSH2 0x16B0 DUP2 DUP5 PUSH2 0x14A7 JUMP JUMPDEST SWAP1 POP SWAP3 SWAP2 POP POP JUMP JUMPDEST PUSH1 0x0 PUSH2 0x16C3 DUP3 PUSH2 0x13B4 JUMP JUMPDEST SWAP1 POP SWAP2 SWAP1 POP JUMP JUMPDEST PUSH2 0x16D3 DUP2 PUSH2 0x16B8 JUMP JUMPDEST DUP2 EQ PUSH2 0x16DE JUMPI PUSH1 0x0 DUP1 REVERT JUMPDEST POP JUMP JUMPDEST PUSH1 0x0 DUP2 CALLDATALOAD SWAP1 POP PUSH2 0x16F0 DUP2 PUSH2 0x16CA JUMP JUMPDEST SWAP3 SWAP2 POP POP JUMP JUMPDEST PUSH1 0x0 PUSH1 0x20 DUP3 DUP5 SUB SLT ISZERO PUSH2 0x170C JUMPI PUSH2 0x170B PUSH2 0x11C9 JUMP JUMPDEST JUMPDEST PUSH1 0x0 PUSH2 0x171A DUP5 DUP3 DUP6 ADD PUSH2 0x16E1 JUMP JUMPDEST SWAP2 POP POP SWAP3 SWAP2 POP POP JUMP JUMPDEST PUSH1 0x0 PUSH1 0x60 DUP3 ADD SWAP1 POP DUP2 DUP2 SUB PUSH1 0x0 DUP4 ADD MSTORE PUSH2 0x173D DUP2 DUP7 PUSH2 0x1164 JUMP JUMPDEST SWAP1 POP PUSH2 0x174C PUSH1 0x20 DUP4 ADD DUP6 PUSH2 0x13E6 JUMP JUMPDEST PUSH2 0x1759 PUSH1 0x40 DUP4 ADD DUP5 PUSH2 0x1528 JUMP JUMPDEST SWAP5 SWAP4 POP POP POP POP JUMP JUMPDEST PUSH2 0x176A DUP2 PUSH2 0x1351 JUMP JUMPDEST DUP3 MSTORE POP POP JUMP JUMPDEST PUSH1 0x0 PUSH1 0x20 DUP3 ADD SWAP1 POP PUSH2 0x1785 PUSH1 0x0 DUP4 ADD DUP5 PUSH2 0x1761 JUMP JUMPDEST SWAP3 SWAP2 POP POP JUMP JUMPDEST PUSH1 0x0 PUSH1 0x20 DUP3 ADD SWAP1 POP PUSH2 0x17A0 PUSH1 0x0 DUP4 ADD DUP5 PUSH2 0x1528 JUMP JUMPDEST SWAP3 SWAP2 POP POP JUMP JUMPDEST PUSH32 0x4E487B7100000000000000000000000000000000000000000000000000000000 PUSH1 0x0 MSTORE PUSH1 0x22 PUSH1 0x4 MSTORE PUSH1 0x24 PUSH1 0x0 REVERT JUMPDEST PUSH1 0x0 PUSH1 0x2 DUP3 DIV SWAP1 POP PUSH1 0x1 DUP3 AND DUP1 PUSH2 0x17ED JUMPI PUSH1 0x7F DUP3 AND SWAP2 POP JUMPDEST PUSH1 0x20 DUP3 LT DUP2 SUB PUSH2 0x1800 JUMPI PUSH2 0x17FF PUSH2 0x17A6 JUMP JUMPDEST JUMPDEST POP SWAP2 SWAP1 POP JUMP INVALID LOG2 PUSH5 0x6970667358 0x22 SLT KECCAK256 0x26 SSTORE DELEGATECALL 0x24 SWAP2 0x24 0xEA DUP15 BYTE 0xDF 0xB3 PUSH11 0x88B3C69099CE63A668019 SWAP14 PUSH6 0x3576CF9D6D07 0xE9 PUSH5 0x736F6C6343 STOP ADDMOD 0xE STOP CALLER "},"gasEstimates":{"creation":{"codeDepositCost":"1240800","executionCost":"infinite","totalCost":"infinite"},"external":{"creaetRequest(string)":"infinite","finalizeTask()":"infinite","getHashtags()":"infinite","getInfo()":"infinite","isCompleted()":"2609","killTask()":"infinite","manager()":"2534","requests(address)":"infinite","requestsKeys(uint256)":"5046","startTask(address)":"29211","taskDescription()":"infinite","taskFiles(uint256)":"infinite","taskHashtags(uint256)":"infinite","taskName()":"infinite","taskSphere()":"infinite","taskTimestamp()":"2518","worker()":"2559"}},"methodIdentifiers":{"creaetRequest(string)":"31c3a6f5","finalizeTask()":"a20fca5a","getHashtags()":"5e1c7322","getInfo()":"5a9b0b89","isCompleted()":"fa391c64","killTask()":"231e407a","manager()":"481c6a75","requests(address)":"74adad1d","requestsKeys(uint256)":"43a7e9b9","startTask(address)":"5f51c765","taskDescription()":"fbc03a1e","taskFiles(uint256)":"71096387","taskHashtags(uint256)":"af84a013","taskName()":"001aea77","taskSphere()":"dea4e339","taskTimestamp()":"9e98c6aa","worker()":"4d547ada"}},"storageLayout":{"storage":[{"astId":85,"contract":"Task.sol:Task","label":"manager","offset":0,"slot":"0","type":"t_address_payable"},{"astId":87,"contract":"Task.sol:Task","label":"taskSphere","offset":0,"slot":"1","type":"t_string_storage"},{"astId":89,"contract":"Task.sol:Task","label":"taskName","offset":0,"slot":"2","type":"t_string_storage"},{"astId":92,"contract":"Task.sol:Task","label":"taskFiles","offset":0,"slot":"3","type":"t_array(t_string_storage)dyn_storage"},{"astId":94,"contract":"Task.sol:Task","label":"taskDescription","offset":0,"slot":"4","type":"t_string_storage"},{"astId":97,"contract":"Task.sol:Task","label":"taskHashtags","offset":0,"slot":"5","type":"t_array(t_string_storage)dyn_storage"},{"astId":99,"contract":"Task.sol:Task","label":"worker","offset":0,"slot":"6","type":"t_address_payable"},{"astId":101,"contract":"Task.sol:Task","label":"isCompleted","offset":20,"slot":"6","type":"t_bool"},{"astId":106,"contract":"Task.sol:Task","label":"requests","offset":0,"slot":"7","type":"t_mapping(t_address,t_struct(Request)83_storage)"},{"astId":109,"contract":"Task.sol:Task","label":"requestsKeys","offset":0,"slot":"8","type":"t_array(t_address_payable)dyn_storage"},{"astId":111,"contract":"Task.sol:Task","label":"taskTimestamp","offset":0,"slot":"9","type":"t_uint256"}],"types":{"t_address":{"encoding":"inplace","label":"address","numberOfBytes":"20"},"t_address_payable":{"encoding":"inplace","label":"address payable","numberOfBytes":"20"},"t_array(t_address_payable)dyn_storage":{"base":"t_address_payable","encoding":"dynamic_array","label":"address payable[]","numberOfBytes":"32"},"t_array(t_string_storage)dyn_storage":{"base":"t_string_storage","encoding":"dynamic_array","label":"string[]","numberOfBytes":"32"},"t_bool":{"encoding":"inplace","label":"bool","numberOfBytes":"1"},"t_mapping(t_address,t_struct(Request)83_storage)":{"encoding":"mapping","key":"t_address","label":"mapping(address => struct Task.Request)","numberOfBytes":"32","value":"t_struct(Request)83_storage"},"t_string_storage":{"encoding":"bytes","label":"string","numberOfBytes":"32"},"t_struct(Request)83_storage":{"encoding":"inplace","label":"struct Task.Request","members":[{"astId":78,"contract":"Task.sol:Task","label":"description","offset":0,"slot":"0","type":"t_string_storage"},{"astId":80,"contract":"Task.sol:Task","label":"author","offset":0,"slot":"1","type":"t_address_payable"},{"astId":82,"contract":"Task.sol:Task","label":"exist","offset":20,"slot":"1","type":"t_bool"}],"numberOfBytes":"64"},"t_uint256":{"encoding":"inplace","label":"uint256","numberOfBytes":"32"}}},"userdoc":{"kind":"user","methods":{},"version":1}}