{"abi":[{"inputs":[{"internalType":"string","name":"header","type":"string"},{"internalType":"string","name":"description","type":"string"},{"internalType":"string","name":"sphere","type":"string"},{"internalType":"string[]","name":"files","type":"string[]"},{"internalType":"string[]","name":"hashtags","type":"string[]"},{"internalType":"address","name":"newManager","type":"address"}],"stateMutability":"payable","type":"constructor"},{"inputs":[{"internalType":"string","name":"description","type":"string"}],"name":"creaetRequest","outputs":[],"stateMutability":"nonpayable","type":"function"},{"inputs":[],"name":"finalizeTask","outputs":[],"stateMutability":"nonpayable","type":"function"},{"inputs":[],"name":"getHashtags","outputs":[{"internalType":"string[]","name":"","type":"string[]"}],"stateMutability":"view","type":"function"},{"inputs":[],"name":"getInfo","outputs":[{"internalType":"address payable","name":"","type":"address"},{"internalType":"string","name":"","type":"string"},{"internalType":"string[]","name":"","type":"string[]"},{"internalType":"string","name":"","type":"string"},{"internalType":"string","name":"","type":"string"},{"internalType":"address payable","name":"","type":"address"},{"internalType":"bool","name":"","type":"bool"}],"stateMutability":"view","type":"function"},{"inputs":[],"name":"isCompleted","outputs":[{"internalType":"bool","name":"","type":"bool"}],"stateMutability":"view","type":"function"},{"inputs":[],"name":"killTask","outputs":[],"stateMutability":"nonpayable","type":"function"},{"inputs":[],"name":"manager","outputs":[{"internalType":"address payable","name":"","type":"address"}],"stateMutability":"view","type":"function"},{"inputs":[{"internalType":"address","name":"","type":"address"}],"name":"requests","outputs":[{"internalType":"string","name":"description","type":"string"},{"internalType":"bool","name":"exist","type":"bool"}],"stateMutability":"view","type":"function"},{"inputs":[{"internalType":"address","name":"newWorker","type":"address"}],"name":"startTask","outputs":[],"stateMutability":"nonpayable","type":"function"},{"inputs":[],"name":"taskDescription","outputs":[{"internalType":"string","name":"","type":"string"}],"stateMutability":"view","type":"function"},{"inputs":[{"internalType":"uint256","name":"","type":"uint256"}],"name":"taskFiles","outputs":[{"internalType":"string","name":"","type":"string"}],"stateMutability":"view","type":"function"},{"inputs":[{"internalType":"uint256","name":"","type":"uint256"}],"name":"taskHashtags","outputs":[{"internalType":"string","name":"","type":"string"}],"stateMutability":"view","type":"function"},{"inputs":[],"name":"taskName","outputs":[{"internalType":"string","name":"","type":"string"}],"stateMutability":"view","type":"function"},{"inputs":[],"name":"taskSphere","outputs":[{"internalType":"string","name":"","type":"string"}],"stateMutability":"view","type":"function"},{"inputs":[],"name":"worker","outputs":[{"internalType":"address payable","name":"","type":"address"}],"stateMutability":"view","type":"function"}],"devdoc":{"kind":"dev","methods":{},"version":1},"evm":{"assembly":"    /* \"Task.sol\":639:2514  contract Task {... */\n  mstore(0x40, 0x80)\n    /* \"Task.sol\":1063:1462  constructor(string memory header, string memory description, string memory sphere, string[] memory files, string[] memory hashtags, address newManager) payable {... */\n  mload(0x40)\n  sub(codesize, bytecodeSize)\n  dup1\n  bytecodeSize\n  dup4\n  codecopy\n  dup2\n  dup2\n  add\n  0x40\n  mstore\n  dup2\n  add\n  swap1\n  tag_1\n  swap2\n  swap1\n  tag_2\n  jump\t// in\ntag_1:\n    /* \"Task.sol\":1252:1262  newManager */\n  dup1\n    /* \"Task.sol\":1234:1241  manager */\n  0x00\n  dup1\n    /* \"Task.sol\":1234:1263  manager = payable(newManager) */\n  0x0100\n  exp\n  dup2\n  sload\n  dup2\n  0xffffffffffffffffffffffffffffffffffffffff\n  mul\n  not\n  and\n  swap1\n  dup4\n  0xffffffffffffffffffffffffffffffffffffffff\n  and\n  mul\n  or\n  swap1\n  sstore\n  pop\n    /* \"Task.sol\":1287:1293  sphere */\n  dup4\n    /* \"Task.sol\":1274:1284  taskSphere */\n  0x01\n    /* \"Task.sol\":1274:1293  taskSphere = sphere */\n  swap1\n  dup1\n  mload\n  swap1\n  0x20\n  add\n  swap1\n  tag_5\n  swap3\n  swap2\n  swap1\n  tag_6\n  jump\t// in\ntag_5:\n  pop\n    /* \"Task.sol\":1315:1321  header */\n  dup6\n    /* \"Task.sol\":1304:1312  taskName */\n  0x02\n    /* \"Task.sol\":1304:1321  taskName = header */\n  swap1\n  dup1\n  mload\n  swap1\n  0x20\n  add\n  swap1\n  tag_7\n  swap3\n  swap2\n  swap1\n  tag_6\n  jump\t// in\ntag_7:\n  pop\n    /* \"Task.sol\":1344:1349  files */\n  dup3\n    /* \"Task.sol\":1332:1341  taskFiles */\n  0x03\n    /* \"Task.sol\":1332:1349  taskFiles = files */\n  swap1\n  dup1\n  mload\n  swap1\n  0x20\n  add\n  swap1\n  tag_8\n  swap3\n  swap2\n  swap1\n  tag_9\n  jump\t// in\ntag_8:\n  pop\n    /* \"Task.sol\":1378:1389  description */\n  dup5\n    /* \"Task.sol\":1360:1375  taskDescription */\n  0x04\n    /* \"Task.sol\":1360:1389  taskDescription = description */\n  swap1\n  dup1\n  mload\n  swap1\n  0x20\n  add\n  swap1\n  tag_10\n  swap3\n  swap2\n  swap1\n  tag_6\n  jump\t// in\ntag_10:\n  pop\n    /* \"Task.sol\":1416:1424  hashtags */\n  dup2\n    /* \"Task.sol\":1401:1413  taskHashtags */\n  0x05\n    /* \"Task.sol\":1401:1424  taskHashtags = hashtags */\n  swap1\n  dup1\n  mload\n  swap1\n  0x20\n  add\n  swap1\n  tag_11\n  swap3\n  swap2\n  swap1\n  tag_9\n  jump\t// in\ntag_11:\n  pop\n    /* \"Task.sol\":1449:1454  false */\n  0x00\n    /* \"Task.sol\":1435:1446  isCompleted */\n  0x06\n  0x14\n    /* \"Task.sol\":1435:1454  isCompleted = false */\n  0x0100\n  exp\n  dup2\n  sload\n  dup2\n  0xff\n  mul\n  not\n  and\n  swap1\n  dup4\n  iszero\n  iszero\n  mul\n  or\n  swap1\n  sstore\n  pop\n    /* \"Task.sol\":1063:1462  constructor(string memory header, string memory description, string memory sphere, string[] memory files, string[] memory hashtags, address newManager) payable {... */\n  pop\n  pop\n  pop\n  pop\n  pop\n  pop\n    /* \"Task.sol\":639:2514  contract Task {... */\n  jump(tag_12)\ntag_6:\n  dup3\n  dup1\n  sload\n  tag_13\n  swap1\n  tag_14\n  jump\t// in\ntag_13:\n  swap1\n  0x00\n  mstore\n  keccak256(0x00, 0x20)\n  swap1\n  0x1f\n  add\n  0x20\n  swap1\n  div\n  dup2\n  add\n  swap3\n  dup3\n  tag_16\n  jumpi\n  0x00\n  dup6\n  sstore\n  jump(tag_15)\ntag_16:\n  dup3\n  0x1f\n  lt\n  tag_17\n  jumpi\n  dup1\n  mload\n  not(0xff)\n  and\n  dup4\n  dup1\n  add\n  or\n  dup6\n  sstore\n  jump(tag_15)\ntag_17:\n  dup3\n  dup1\n  add\n  0x01\n  add\n  dup6\n  sstore\n  dup3\n  iszero\n  tag_15\n  jumpi\n  swap2\n  dup3\n  add\ntag_18:\n  dup3\n  dup2\n  gt\n  iszero\n  tag_19\n  jumpi\n  dup3\n  mload\n  dup3\n  sstore\n  swap2\n  0x20\n  add\n  swap2\n  swap1\n  0x01\n  add\n  swap1\n  jump(tag_18)\ntag_19:\ntag_15:\n  pop\n  swap1\n  pop\n  tag_20\n  swap2\n  swap1\n  tag_21\n  jump\t// in\ntag_20:\n  pop\n  swap1\n  jump\t// out\ntag_9:\n  dup3\n  dup1\n  sload\n  dup3\n  dup3\n  sstore\n  swap1\n  0x00\n  mstore\n  keccak256(0x00, 0x20)\n  swap1\n  dup2\n  add\n  swap3\n  dup3\n  iszero\n  tag_22\n  jumpi\n  swap2\n  0x20\n  mul\n  dup3\n  add\ntag_23:\n  dup3\n  dup2\n  gt\n  iszero\n  tag_24\n  jumpi\n  dup3\n  mload\n  dup3\n  swap1\n  dup1\n  mload\n  swap1\n  0x20\n  add\n  swap1\n  tag_25\n  swap3\n  swap2\n  swap1\n  tag_6\n  jump\t// in\ntag_25:\n  pop\n  swap2\n  0x20\n  add\n  swap2\n  swap1\n  0x01\n  add\n  swap1\n  jump(tag_23)\ntag_24:\ntag_22:\n  pop\n  swap1\n  pop\n  tag_26\n  swap2\n  swap1\n  tag_27\n  jump\t// in\ntag_26:\n  pop\n  swap1\n  jump\t// out\ntag_21:\ntag_28:\n  dup1\n  dup3\n  gt\n  iszero\n  tag_29\n  jumpi\n  0x00\n  dup2\n  0x00\n  swap1\n  sstore\n  pop\n  0x01\n  add\n  jump(tag_28)\ntag_29:\n  pop\n  swap1\n  jump\t// out\ntag_27:\ntag_30:\n  dup1\n  dup3\n  gt\n  iszero\n  tag_31\n  jumpi\n  0x00\n  dup2\n  dup2\n  tag_32\n  swap2\n  swap1\n  tag_33\n  jump\t// in\ntag_32:\n  pop\n  0x01\n  add\n  jump(tag_30)\ntag_31:\n  pop\n  swap1\n  jump\t// out\ntag_33:\n  pop\n  dup1\n  sload\n  tag_34\n  swap1\n  tag_14\n  jump\t// in\ntag_34:\n  0x00\n  dup3\n  sstore\n  dup1\n  0x1f\n  lt\n  tag_36\n  jumpi\n  pop\n  jump(tag_35)\ntag_36:\n  0x1f\n  add\n  0x20\n  swap1\n  div\n  swap1\n  0x00\n  mstore\n  keccak256(0x00, 0x20)\n  swap1\n  dup2\n  add\n  swap1\n  tag_37\n  swap2\n  swap1\n  tag_21\n  jump\t// in\ntag_37:\ntag_35:\n  pop\n  jump\t// out\n    /* \"#utility.yul\":7:82   */\ntag_38:\n    /* \"#utility.yul\":40:46   */\n  0x00\n    /* \"#utility.yul\":73:75   */\n  0x40\n    /* \"#utility.yul\":67:76   */\n  mload\n    /* \"#utility.yul\":57:76   */\n  swap1\n  pop\n    /* \"#utility.yul\":7:82   */\n  swap1\n  jump\t// out\n    /* \"#utility.yul\":88:205   */\ntag_39:\n    /* \"#utility.yul\":197:198   */\n  0x00\n    /* \"#utility.yul\":194:195   */\n  dup1\n    /* \"#utility.yul\":187:199   */\n  revert\n    /* \"#utility.yul\":211:328   */\ntag_40:\n    /* \"#utility.yul\":320:321   */\n  0x00\n    /* \"#utility.yul\":317:318   */\n  dup1\n    /* \"#utility.yul\":310:322   */\n  revert\n    /* \"#utility.yul\":334:451   */\ntag_41:\n    /* \"#utility.yul\":443:444   */\n  0x00\n    /* \"#utility.yul\":440:441   */\n  dup1\n    /* \"#utility.yul\":433:445   */\n  revert\n    /* \"#utility.yul\":457:574   */\ntag_42:\n    /* \"#utility.yul\":566:567   */\n  0x00\n    /* \"#utility.yul\":563:564   */\n  dup1\n    /* \"#utility.yul\":556:568   */\n  revert\n    /* \"#utility.yul\":580:682   */\ntag_43:\n    /* \"#utility.yul\":621:627   */\n  0x00\n    /* \"#utility.yul\":672:674   */\n  0x1f\n    /* \"#utility.yul\":668:675   */\n  not\n    /* \"#utility.yul\":663:665   */\n  0x1f\n    /* \"#utility.yul\":656:661   */\n  dup4\n    /* \"#utility.yul\":652:666   */\n  add\n    /* \"#utility.yul\":648:676   */\n  and\n    /* \"#utility.yul\":638:676   */\n  swap1\n  pop\n    /* \"#utility.yul\":580:682   */\n  swap2\n  swap1\n  pop\n  jump\t// out\n    /* \"#utility.yul\":688:868   */\ntag_44:\n    /* \"#utility.yul\":736:813   */\n  0x4e487b7100000000000000000000000000000000000000000000000000000000\n    /* \"#utility.yul\":733:734   */\n  0x00\n    /* \"#utility.yul\":726:814   */\n  mstore\n    /* \"#utility.yul\":833:837   */\n  0x41\n    /* \"#utility.yul\":830:831   */\n  0x04\n    /* \"#utility.yul\":823:838   */\n  mstore\n    /* \"#utility.yul\":857:861   */\n  0x24\n    /* \"#utility.yul\":854:855   */\n  0x00\n    /* \"#utility.yul\":847:862   */\n  revert\n    /* \"#utility.yul\":874:1155   */\ntag_45:\n    /* \"#utility.yul\":957:984   */\n  tag_69\n    /* \"#utility.yul\":979:983   */\n  dup3\n    /* \"#utility.yul\":957:984   */\n  tag_43\n  jump\t// in\ntag_69:\n    /* \"#utility.yul\":949:955   */\n  dup2\n    /* \"#utility.yul\":945:985   */\n  add\n    /* \"#utility.yul\":1087:1093   */\n  dup2\n    /* \"#utility.yul\":1075:1085   */\n  dup2\n    /* \"#utility.yul\":1072:1094   */\n  lt\n    /* \"#utility.yul\":1051:1069   */\n  0xffffffffffffffff\n    /* \"#utility.yul\":1039:1049   */\n  dup3\n    /* \"#utility.yul\":1036:1070   */\n  gt\n    /* \"#utility.yul\":1033:1095   */\n  or\n    /* \"#utility.yul\":1030:1118   */\n  iszero\n  tag_70\n  jumpi\n    /* \"#utility.yul\":1098:1116   */\n  tag_71\n  tag_44\n  jump\t// in\ntag_71:\n    /* \"#utility.yul\":1030:1118   */\ntag_70:\n    /* \"#utility.yul\":1138:1148   */\n  dup1\n    /* \"#utility.yul\":1134:1136   */\n  0x40\n    /* \"#utility.yul\":1127:1149   */\n  mstore\n    /* \"#utility.yul\":917:1155   */\n  pop\n    /* \"#utility.yul\":874:1155   */\n  pop\n  pop\n  jump\t// out\n    /* \"#utility.yul\":1161:1290   */\ntag_46:\n    /* \"#utility.yul\":1195:1201   */\n  0x00\n    /* \"#utility.yul\":1222:1242   */\n  tag_73\n  tag_38\n  jump\t// in\ntag_73:\n    /* \"#utility.yul\":1212:1242   */\n  swap1\n  pop\n    /* \"#utility.yul\":1251:1284   */\n  tag_74\n    /* \"#utility.yul\":1279:1283   */\n  dup3\n    /* \"#utility.yul\":1271:1277   */\n  dup3\n    /* \"#utility.yul\":1251:1284   */\n  tag_45\n  jump\t// in\ntag_74:\n    /* \"#utility.yul\":1161:1290   */\n  swap2\n  swap1\n  pop\n  jump\t// out\n    /* \"#utility.yul\":1296:1604   */\ntag_47:\n    /* \"#utility.yul\":1358:1362   */\n  0x00\n    /* \"#utility.yul\":1448:1466   */\n  0xffffffffffffffff\n    /* \"#utility.yul\":1440:1446   */\n  dup3\n    /* \"#utility.yul\":1437:1467   */\n  gt\n    /* \"#utility.yul\":1434:1490   */\n  iszero\n  tag_76\n  jumpi\n    /* \"#utility.yul\":1470:1488   */\n  tag_77\n  tag_44\n  jump\t// in\ntag_77:\n    /* \"#utility.yul\":1434:1490   */\ntag_76:\n    /* \"#utility.yul\":1508:1537   */\n  tag_78\n    /* \"#utility.yul\":1530:1536   */\n  dup3\n    /* \"#utility.yul\":1508:1537   */\n  tag_43\n  jump\t// in\ntag_78:\n    /* \"#utility.yul\":1500:1537   */\n  swap1\n  pop\n    /* \"#utility.yul\":1592:1596   */\n  0x20\n    /* \"#utility.yul\":1586:1590   */\n  dup2\n    /* \"#utility.yul\":1582:1597   */\n  add\n    /* \"#utility.yul\":1574:1597   */\n  swap1\n  pop\n    /* \"#utility.yul\":1296:1604   */\n  swap2\n  swap1\n  pop\n  jump\t// out\n    /* \"#utility.yul\":1610:1917   */\ntag_48:\n    /* \"#utility.yul\":1678:1679   */\n  0x00\n    /* \"#utility.yul\":1688:1801   */\ntag_80:\n    /* \"#utility.yul\":1702:1708   */\n  dup4\n    /* \"#utility.yul\":1699:1700   */\n  dup2\n    /* \"#utility.yul\":1696:1709   */\n  lt\n    /* \"#utility.yul\":1688:1801   */\n  iszero\n  tag_82\n  jumpi\n    /* \"#utility.yul\":1787:1788   */\n  dup1\n    /* \"#utility.yul\":1782:1785   */\n  dup3\n    /* \"#utility.yul\":1778:1789   */\n  add\n    /* \"#utility.yul\":1772:1790   */\n  mload\n    /* \"#utility.yul\":1768:1769   */\n  dup2\n    /* \"#utility.yul\":1763:1766   */\n  dup5\n    /* \"#utility.yul\":1759:1770   */\n  add\n    /* \"#utility.yul\":1752:1791   */\n  mstore\n    /* \"#utility.yul\":1724:1726   */\n  0x20\n    /* \"#utility.yul\":1721:1722   */\n  dup2\n    /* \"#utility.yul\":1717:1727   */\n  add\n    /* \"#utility.yul\":1712:1727   */\n  swap1\n  pop\n    /* \"#utility.yul\":1688:1801   */\n  jump(tag_80)\ntag_82:\n    /* \"#utility.yul\":1819:1825   */\n  dup4\n    /* \"#utility.yul\":1816:1817   */\n  dup2\n    /* \"#utility.yul\":1813:1826   */\n  gt\n    /* \"#utility.yul\":1810:1911   */\n  iszero\n  tag_83\n  jumpi\n    /* \"#utility.yul\":1899:1900   */\n  0x00\n    /* \"#utility.yul\":1890:1896   */\n  dup5\n    /* \"#utility.yul\":1885:1888   */\n  dup5\n    /* \"#utility.yul\":1881:1897   */\n  add\n    /* \"#utility.yul\":1874:1901   */\n  mstore\n    /* \"#utility.yul\":1810:1911   */\ntag_83:\n    /* \"#utility.yul\":1659:1917   */\n  pop\n    /* \"#utility.yul\":1610:1917   */\n  pop\n  pop\n  pop\n  jump\t// out\n    /* \"#utility.yul\":1923:2344   */\ntag_49:\n    /* \"#utility.yul\":2012:2017   */\n  0x00\n    /* \"#utility.yul\":2037:2103   */\n  tag_85\n    /* \"#utility.yul\":2053:2102   */\n  tag_86\n    /* \"#utility.yul\":2095:2101   */\n  dup5\n    /* \"#utility.yul\":2053:2102   */\n  tag_47\n  jump\t// in\ntag_86:\n    /* \"#utility.yul\":2037:2103   */\n  tag_46\n  jump\t// in\ntag_85:\n    /* \"#utility.yul\":2028:2103   */\n  swap1\n  pop\n    /* \"#utility.yul\":2126:2132   */\n  dup3\n    /* \"#utility.yul\":2119:2124   */\n  dup2\n    /* \"#utility.yul\":2112:2133   */\n  mstore\n    /* \"#utility.yul\":2164:2168   */\n  0x20\n    /* \"#utility.yul\":2157:2162   */\n  dup2\n    /* \"#utility.yul\":2153:2169   */\n  add\n    /* \"#utility.yul\":2202:2205   */\n  dup5\n    /* \"#utility.yul\":2193:2199   */\n  dup5\n    /* \"#utility.yul\":2188:2191   */\n  dup5\n    /* \"#utility.yul\":2184:2200   */\n  add\n    /* \"#utility.yul\":2181:2206   */\n  gt\n    /* \"#utility.yul\":2178:2290   */\n  iszero\n  tag_87\n  jumpi\n    /* \"#utility.yul\":2209:2288   */\n  tag_88\n  tag_42\n  jump\t// in\ntag_88:\n    /* \"#utility.yul\":2178:2290   */\ntag_87:\n    /* \"#utility.yul\":2299:2338   */\n  tag_89\n    /* \"#utility.yul\":2331:2337   */\n  dup5\n    /* \"#utility.yul\":2326:2329   */\n  dup3\n    /* \"#utility.yul\":2321:2324   */\n  dup6\n    /* \"#utility.yul\":2299:2338   */\n  tag_48\n  jump\t// in\ntag_89:\n    /* \"#utility.yul\":2018:2344   */\n  pop\n    /* \"#utility.yul\":1923:2344   */\n  swap4\n  swap3\n  pop\n  pop\n  pop\n  jump\t// out\n    /* \"#utility.yul\":2364:2719   */\ntag_50:\n    /* \"#utility.yul\":2431:2436   */\n  0x00\n    /* \"#utility.yul\":2480:2483   */\n  dup3\n    /* \"#utility.yul\":2473:2477   */\n  0x1f\n    /* \"#utility.yul\":2465:2471   */\n  dup4\n    /* \"#utility.yul\":2461:2478   */\n  add\n    /* \"#utility.yul\":2457:2484   */\n  slt\n    /* \"#utility.yul\":2447:2569   */\n  tag_91\n  jumpi\n    /* \"#utility.yul\":2488:2567   */\n  tag_92\n  tag_41\n  jump\t// in\ntag_92:\n    /* \"#utility.yul\":2447:2569   */\ntag_91:\n    /* \"#utility.yul\":2598:2604   */\n  dup2\n    /* \"#utility.yul\":2592:2605   */\n  mload\n    /* \"#utility.yul\":2623:2713   */\n  tag_93\n    /* \"#utility.yul\":2709:2712   */\n  dup5\n    /* \"#utility.yul\":2701:2707   */\n  dup3\n    /* \"#utility.yul\":2694:2698   */\n  0x20\n    /* \"#utility.yul\":2686:2692   */\n  dup7\n    /* \"#utility.yul\":2682:2699   */\n  add\n    /* \"#utility.yul\":2623:2713   */\n  tag_49\n  jump\t// in\ntag_93:\n    /* \"#utility.yul\":2614:2713   */\n  swap2\n  pop\n    /* \"#utility.yul\":2437:2719   */\n  pop\n    /* \"#utility.yul\":2364:2719   */\n  swap3\n  swap2\n  pop\n  pop\n  jump\t// out\n    /* \"#utility.yul\":2725:3046   */\ntag_51:\n    /* \"#utility.yul\":2812:2816   */\n  0x00\n    /* \"#utility.yul\":2902:2920   */\n  0xffffffffffffffff\n    /* \"#utility.yul\":2894:2900   */\n  dup3\n    /* \"#utility.yul\":2891:2921   */\n  gt\n    /* \"#utility.yul\":2888:2944   */\n  iszero\n  tag_95\n  jumpi\n    /* \"#utility.yul\":2924:2942   */\n  tag_96\n  tag_44\n  jump\t// in\ntag_96:\n    /* \"#utility.yul\":2888:2944   */\ntag_95:\n    /* \"#utility.yul\":2974:2978   */\n  0x20\n    /* \"#utility.yul\":2966:2972   */\n  dup3\n    /* \"#utility.yul\":2962:2979   */\n  mul\n    /* \"#utility.yul\":2954:2979   */\n  swap1\n  pop\n    /* \"#utility.yul\":3034:3038   */\n  0x20\n    /* \"#utility.yul\":3028:3032   */\n  dup2\n    /* \"#utility.yul\":3024:3039   */\n  add\n    /* \"#utility.yul\":3016:3039   */\n  swap1\n  pop\n    /* \"#utility.yul\":2725:3046   */\n  swap2\n  swap1\n  pop\n  jump\t// out\n    /* \"#utility.yul\":3052:3169   */\ntag_52:\n    /* \"#utility.yul\":3161:3162   */\n  0x00\n    /* \"#utility.yul\":3158:3159   */\n  dup1\n    /* \"#utility.yul\":3151:3163   */\n  revert\n    /* \"#utility.yul\":3191:4151   */\ntag_53:\n    /* \"#utility.yul\":3308:3313   */\n  0x00\n    /* \"#utility.yul\":3333:3424   */\n  tag_99\n    /* \"#utility.yul\":3349:3423   */\n  tag_100\n    /* \"#utility.yul\":3416:3422   */\n  dup5\n    /* \"#utility.yul\":3349:3423   */\n  tag_51\n  jump\t// in\ntag_100:\n    /* \"#utility.yul\":3333:3424   */\n  tag_46\n  jump\t// in\ntag_99:\n    /* \"#utility.yul\":3324:3424   */\n  swap1\n  pop\n    /* \"#utility.yul\":3444:3449   */\n  dup1\n    /* \"#utility.yul\":3473:3479   */\n  dup4\n    /* \"#utility.yul\":3466:3471   */\n  dup3\n    /* \"#utility.yul\":3459:3480   */\n  mstore\n    /* \"#utility.yul\":3507:3511   */\n  0x20\n    /* \"#utility.yul\":3500:3505   */\n  dup3\n    /* \"#utility.yul\":3496:3512   */\n  add\n    /* \"#utility.yul\":3489:3512   */\n  swap1\n  pop\n    /* \"#utility.yul\":3560:3564   */\n  0x20\n    /* \"#utility.yul\":3552:3558   */\n  dup5\n    /* \"#utility.yul\":3548:3565   */\n  mul\n    /* \"#utility.yul\":3540:3546   */\n  dup4\n    /* \"#utility.yul\":3536:3566   */\n  add\n    /* \"#utility.yul\":3589:3592   */\n  dup6\n    /* \"#utility.yul\":3581:3587   */\n  dup2\n    /* \"#utility.yul\":3578:3593   */\n  gt\n    /* \"#utility.yul\":3575:3697   */\n  iszero\n  tag_101\n  jumpi\n    /* \"#utility.yul\":3608:3687   */\n  tag_102\n  tag_52\n  jump\t// in\ntag_102:\n    /* \"#utility.yul\":3575:3697   */\ntag_101:\n    /* \"#utility.yul\":3723:3729   */\n  dup4\n    /* \"#utility.yul\":3706:4145   */\ntag_103:\n    /* \"#utility.yul\":3740:3746   */\n  dup2\n    /* \"#utility.yul\":3735:3738   */\n  dup2\n    /* \"#utility.yul\":3732:3747   */\n  lt\n    /* \"#utility.yul\":3706:4145   */\n  iszero\n  tag_105\n  jumpi\n    /* \"#utility.yul\":3822:3825   */\n  dup1\n    /* \"#utility.yul\":3816:3826   */\n  mload\n    /* \"#utility.yul\":3858:3876   */\n  0xffffffffffffffff\n    /* \"#utility.yul\":3845:3856   */\n  dup2\n    /* \"#utility.yul\":3842:3877   */\n  gt\n    /* \"#utility.yul\":3839:3961   */\n  iszero\n  tag_106\n  jumpi\n    /* \"#utility.yul\":3880:3959   */\n  tag_107\n  tag_41\n  jump\t// in\ntag_107:\n    /* \"#utility.yul\":3839:3961   */\ntag_106:\n    /* \"#utility.yul\":4004:4015   */\n  dup1\n    /* \"#utility.yul\":3996:4002   */\n  dup7\n    /* \"#utility.yul\":3992:4016   */\n  add\n    /* \"#utility.yul\":4042:4100   */\n  tag_108\n    /* \"#utility.yul\":4096:4099   */\n  dup10\n    /* \"#utility.yul\":4084:4094   */\n  dup3\n    /* \"#utility.yul\":4042:4100   */\n  tag_50\n  jump\t// in\ntag_108:\n    /* \"#utility.yul\":4037:4040   */\n  dup6\n    /* \"#utility.yul\":4030:4101   */\n  mstore\n    /* \"#utility.yul\":4130:4134   */\n  0x20\n    /* \"#utility.yul\":4125:4128   */\n  dup6\n    /* \"#utility.yul\":4121:4135   */\n  add\n    /* \"#utility.yul\":4114:4135   */\n  swap5\n  pop\n    /* \"#utility.yul\":3782:4145   */\n  pop\n  pop\n    /* \"#utility.yul\":3766:3770   */\n  0x20\n    /* \"#utility.yul\":3761:3764   */\n  dup2\n    /* \"#utility.yul\":3757:3771   */\n  add\n    /* \"#utility.yul\":3750:3771   */\n  swap1\n  pop\n    /* \"#utility.yul\":3706:4145   */\n  jump(tag_103)\ntag_105:\n    /* \"#utility.yul\":3710:3731   */\n  pop\n    /* \"#utility.yul\":3314:4151   */\n  pop\n  pop\n    /* \"#utility.yul\":3191:4151   */\n  swap4\n  swap3\n  pop\n  pop\n  pop\n  jump\t// out\n    /* \"#utility.yul\":4173:4578   */\ntag_54:\n    /* \"#utility.yul\":4265:4270   */\n  0x00\n    /* \"#utility.yul\":4314:4317   */\n  dup3\n    /* \"#utility.yul\":4307:4311   */\n  0x1f\n    /* \"#utility.yul\":4299:4305   */\n  dup4\n    /* \"#utility.yul\":4295:4312   */\n  add\n    /* \"#utility.yul\":4291:4318   */\n  slt\n    /* \"#utility.yul\":4281:4403   */\n  tag_110\n  jumpi\n    /* \"#utility.yul\":4322:4401   */\n  tag_111\n  tag_41\n  jump\t// in\ntag_111:\n    /* \"#utility.yul\":4281:4403   */\ntag_110:\n    /* \"#utility.yul\":4432:4438   */\n  dup2\n    /* \"#utility.yul\":4426:4439   */\n  mload\n    /* \"#utility.yul\":4457:4572   */\n  tag_112\n    /* \"#utility.yul\":4568:4571   */\n  dup5\n    /* \"#utility.yul\":4560:4566   */\n  dup3\n    /* \"#utility.yul\":4553:4557   */\n  0x20\n    /* \"#utility.yul\":4545:4551   */\n  dup7\n    /* \"#utility.yul\":4541:4558   */\n  add\n    /* \"#utility.yul\":4457:4572   */\n  tag_53\n  jump\t// in\ntag_112:\n    /* \"#utility.yul\":4448:4572   */\n  swap2\n  pop\n    /* \"#utility.yul\":4271:4578   */\n  pop\n    /* \"#utility.yul\":4173:4578   */\n  swap3\n  swap2\n  pop\n  pop\n  jump\t// out\n    /* \"#utility.yul\":4584:4710   */\ntag_55:\n    /* \"#utility.yul\":4621:4628   */\n  0x00\n    /* \"#utility.yul\":4661:4703   */\n  0xffffffffffffffffffffffffffffffffffffffff\n    /* \"#utility.yul\":4654:4659   */\n  dup3\n    /* \"#utility.yul\":4650:4704   */\n  and\n    /* \"#utility.yul\":4639:4704   */\n  swap1\n  pop\n    /* \"#utility.yul\":4584:4710   */\n  swap2\n  swap1\n  pop\n  jump\t// out\n    /* \"#utility.yul\":4716:4812   */\ntag_56:\n    /* \"#utility.yul\":4753:4760   */\n  0x00\n    /* \"#utility.yul\":4782:4806   */\n  tag_115\n    /* \"#utility.yul\":4800:4805   */\n  dup3\n    /* \"#utility.yul\":4782:4806   */\n  tag_55\n  jump\t// in\ntag_115:\n    /* \"#utility.yul\":4771:4806   */\n  swap1\n  pop\n    /* \"#utility.yul\":4716:4812   */\n  swap2\n  swap1\n  pop\n  jump\t// out\n    /* \"#utility.yul\":4818:4940   */\ntag_57:\n    /* \"#utility.yul\":4891:4915   */\n  tag_117\n    /* \"#utility.yul\":4909:4914   */\n  dup2\n    /* \"#utility.yul\":4891:4915   */\n  tag_56\n  jump\t// in\ntag_117:\n    /* \"#utility.yul\":4884:4889   */\n  dup2\n    /* \"#utility.yul\":4881:4916   */\n  eq\n    /* \"#utility.yul\":4871:4934   */\n  tag_118\n  jumpi\n    /* \"#utility.yul\":4930:4931   */\n  0x00\n    /* \"#utility.yul\":4927:4928   */\n  dup1\n    /* \"#utility.yul\":4920:4932   */\n  revert\n    /* \"#utility.yul\":4871:4934   */\ntag_118:\n    /* \"#utility.yul\":4818:4940   */\n  pop\n  jump\t// out\n    /* \"#utility.yul\":4946:5089   */\ntag_58:\n    /* \"#utility.yul\":5003:5008   */\n  0x00\n    /* \"#utility.yul\":5034:5040   */\n  dup2\n    /* \"#utility.yul\":5028:5041   */\n  mload\n    /* \"#utility.yul\":5019:5041   */\n  swap1\n  pop\n    /* \"#utility.yul\":5050:5083   */\n  tag_120\n    /* \"#utility.yul\":5077:5082   */\n  dup2\n    /* \"#utility.yul\":5050:5083   */\n  tag_57\n  jump\t// in\ntag_120:\n    /* \"#utility.yul\":4946:5089   */\n  swap3\n  swap2\n  pop\n  pop\n  jump\t// out\n    /* \"#utility.yul\":5095:7194   */\ntag_2:\n    /* \"#utility.yul\":5310:5316   */\n  0x00\n    /* \"#utility.yul\":5318:5324   */\n  dup1\n    /* \"#utility.yul\":5326:5332   */\n  0x00\n    /* \"#utility.yul\":5334:5340   */\n  dup1\n    /* \"#utility.yul\":5342:5348   */\n  0x00\n    /* \"#utility.yul\":5350:5356   */\n  dup1\n    /* \"#utility.yul\":5399:5402   */\n  0xc0\n    /* \"#utility.yul\":5387:5396   */\n  dup8\n    /* \"#utility.yul\":5378:5385   */\n  dup10\n    /* \"#utility.yul\":5374:5397   */\n  sub\n    /* \"#utility.yul\":5370:5403   */\n  slt\n    /* \"#utility.yul\":5367:5487   */\n  iszero\n  tag_122\n  jumpi\n    /* \"#utility.yul\":5406:5485   */\n  tag_123\n  tag_39\n  jump\t// in\ntag_123:\n    /* \"#utility.yul\":5367:5487   */\ntag_122:\n    /* \"#utility.yul\":5547:5548   */\n  0x00\n    /* \"#utility.yul\":5536:5545   */\n  dup8\n    /* \"#utility.yul\":5532:5549   */\n  add\n    /* \"#utility.yul\":5526:5550   */\n  mload\n    /* \"#utility.yul\":5577:5595   */\n  0xffffffffffffffff\n    /* \"#utility.yul\":5569:5575   */\n  dup2\n    /* \"#utility.yul\":5566:5596   */\n  gt\n    /* \"#utility.yul\":5563:5680   */\n  iszero\n  tag_124\n  jumpi\n    /* \"#utility.yul\":5599:5678   */\n  tag_125\n  tag_40\n  jump\t// in\ntag_125:\n    /* \"#utility.yul\":5563:5680   */\ntag_124:\n    /* \"#utility.yul\":5704:5778   */\n  tag_126\n    /* \"#utility.yul\":5770:5777   */\n  dup10\n    /* \"#utility.yul\":5761:5767   */\n  dup3\n    /* \"#utility.yul\":5750:5759   */\n  dup11\n    /* \"#utility.yul\":5746:5768   */\n  add\n    /* \"#utility.yul\":5704:5778   */\n  tag_50\n  jump\t// in\ntag_126:\n    /* \"#utility.yul\":5694:5778   */\n  swap7\n  pop\n    /* \"#utility.yul\":5497:5788   */\n  pop\n    /* \"#utility.yul\":5848:5850   */\n  0x20\n    /* \"#utility.yul\":5837:5846   */\n  dup8\n    /* \"#utility.yul\":5833:5851   */\n  add\n    /* \"#utility.yul\":5827:5852   */\n  mload\n    /* \"#utility.yul\":5879:5897   */\n  0xffffffffffffffff\n    /* \"#utility.yul\":5871:5877   */\n  dup2\n    /* \"#utility.yul\":5868:5898   */\n  gt\n    /* \"#utility.yul\":5865:5982   */\n  iszero\n  tag_127\n  jumpi\n    /* \"#utility.yul\":5901:5980   */\n  tag_128\n  tag_40\n  jump\t// in\ntag_128:\n    /* \"#utility.yul\":5865:5982   */\ntag_127:\n    /* \"#utility.yul\":6006:6080   */\n  tag_129\n    /* \"#utility.yul\":6072:6079   */\n  dup10\n    /* \"#utility.yul\":6063:6069   */\n  dup3\n    /* \"#utility.yul\":6052:6061   */\n  dup11\n    /* \"#utility.yul\":6048:6070   */\n  add\n    /* \"#utility.yul\":6006:6080   */\n  tag_50\n  jump\t// in\ntag_129:\n    /* \"#utility.yul\":5996:6080   */\n  swap6\n  pop\n    /* \"#utility.yul\":5798:6090   */\n  pop\n    /* \"#utility.yul\":6150:6152   */\n  0x40\n    /* \"#utility.yul\":6139:6148   */\n  dup8\n    /* \"#utility.yul\":6135:6153   */\n  add\n    /* \"#utility.yul\":6129:6154   */\n  mload\n    /* \"#utility.yul\":6181:6199   */\n  0xffffffffffffffff\n    /* \"#utility.yul\":6173:6179   */\n  dup2\n    /* \"#utility.yul\":6170:6200   */\n  gt\n    /* \"#utility.yul\":6167:6284   */\n  iszero\n  tag_130\n  jumpi\n    /* \"#utility.yul\":6203:6282   */\n  tag_131\n  tag_40\n  jump\t// in\ntag_131:\n    /* \"#utility.yul\":6167:6284   */\ntag_130:\n    /* \"#utility.yul\":6308:6382   */\n  tag_132\n    /* \"#utility.yul\":6374:6381   */\n  dup10\n    /* \"#utility.yul\":6365:6371   */\n  dup3\n    /* \"#utility.yul\":6354:6363   */\n  dup11\n    /* \"#utility.yul\":6350:6372   */\n  add\n    /* \"#utility.yul\":6308:6382   */\n  tag_50\n  jump\t// in\ntag_132:\n    /* \"#utility.yul\":6298:6382   */\n  swap5\n  pop\n    /* \"#utility.yul\":6100:6392   */\n  pop\n    /* \"#utility.yul\":6452:6454   */\n  0x60\n    /* \"#utility.yul\":6441:6450   */\n  dup8\n    /* \"#utility.yul\":6437:6455   */\n  add\n    /* \"#utility.yul\":6431:6456   */\n  mload\n    /* \"#utility.yul\":6483:6501   */\n  0xffffffffffffffff\n    /* \"#utility.yul\":6475:6481   */\n  dup2\n    /* \"#utility.yul\":6472:6502   */\n  gt\n    /* \"#utility.yul\":6469:6586   */\n  iszero\n  tag_133\n  jumpi\n    /* \"#utility.yul\":6505:6584   */\n  tag_134\n  tag_40\n  jump\t// in\ntag_134:\n    /* \"#utility.yul\":6469:6586   */\ntag_133:\n    /* \"#utility.yul\":6610:6709   */\n  tag_135\n    /* \"#utility.yul\":6701:6708   */\n  dup10\n    /* \"#utility.yul\":6692:6698   */\n  dup3\n    /* \"#utility.yul\":6681:6690   */\n  dup11\n    /* \"#utility.yul\":6677:6699   */\n  add\n    /* \"#utility.yul\":6610:6709   */\n  tag_54\n  jump\t// in\ntag_135:\n    /* \"#utility.yul\":6600:6709   */\n  swap4\n  pop\n    /* \"#utility.yul\":6402:6719   */\n  pop\n    /* \"#utility.yul\":6779:6782   */\n  0x80\n    /* \"#utility.yul\":6768:6777   */\n  dup8\n    /* \"#utility.yul\":6764:6783   */\n  add\n    /* \"#utility.yul\":6758:6784   */\n  mload\n    /* \"#utility.yul\":6811:6829   */\n  0xffffffffffffffff\n    /* \"#utility.yul\":6803:6809   */\n  dup2\n    /* \"#utility.yul\":6800:6830   */\n  gt\n    /* \"#utility.yul\":6797:6914   */\n  iszero\n  tag_136\n  jumpi\n    /* \"#utility.yul\":6833:6912   */\n  tag_137\n  tag_40\n  jump\t// in\ntag_137:\n    /* \"#utility.yul\":6797:6914   */\ntag_136:\n    /* \"#utility.yul\":6938:7037   */\n  tag_138\n    /* \"#utility.yul\":7029:7036   */\n  dup10\n    /* \"#utility.yul\":7020:7026   */\n  dup3\n    /* \"#utility.yul\":7009:7018   */\n  dup11\n    /* \"#utility.yul\":7005:7027   */\n  add\n    /* \"#utility.yul\":6938:7037   */\n  tag_54\n  jump\t// in\ntag_138:\n    /* \"#utility.yul\":6928:7037   */\n  swap3\n  pop\n    /* \"#utility.yul\":6729:7047   */\n  pop\n    /* \"#utility.yul\":7086:7089   */\n  0xa0\n    /* \"#utility.yul\":7113:7177   */\n  tag_139\n    /* \"#utility.yul\":7169:7176   */\n  dup10\n    /* \"#utility.yul\":7160:7166   */\n  dup3\n    /* \"#utility.yul\":7149:7158   */\n  dup11\n    /* \"#utility.yul\":7145:7167   */\n  add\n    /* \"#utility.yul\":7113:7177   */\n  tag_58\n  jump\t// in\ntag_139:\n    /* \"#utility.yul\":7103:7177   */\n  swap2\n  pop\n    /* \"#utility.yul\":7057:7187   */\n  pop\n    /* \"#utility.yul\":5095:7194   */\n  swap3\n  swap6\n  pop\n  swap3\n  swap6\n  pop\n  swap3\n  swap6\n  jump\t// out\n    /* \"#utility.yul\":7200:7380   */\ntag_59:\n    /* \"#utility.yul\":7248:7325   */\n  0x4e487b7100000000000000000000000000000000000000000000000000000000\n    /* \"#utility.yul\":7245:7246   */\n  0x00\n    /* \"#utility.yul\":7238:7326   */\n  mstore\n    /* \"#utility.yul\":7345:7349   */\n  0x22\n    /* \"#utility.yul\":7342:7343   */\n  0x04\n    /* \"#utility.yul\":7335:7350   */\n  mstore\n    /* \"#utility.yul\":7369:7373   */\n  0x24\n    /* \"#utility.yul\":7366:7367   */\n  0x00\n    /* \"#utility.yul\":7359:7374   */\n  revert\n    /* \"#utility.yul\":7386:7706   */\ntag_14:\n    /* \"#utility.yul\":7430:7436   */\n  0x00\n    /* \"#utility.yul\":7467:7468   */\n  0x02\n    /* \"#utility.yul\":7461:7465   */\n  dup3\n    /* \"#utility.yul\":7457:7469   */\n  div\n    /* \"#utility.yul\":7447:7469   */\n  swap1\n  pop\n    /* \"#utility.yul\":7514:7515   */\n  0x01\n    /* \"#utility.yul\":7508:7512   */\n  dup3\n    /* \"#utility.yul\":7504:7516   */\n  and\n    /* \"#utility.yul\":7535:7553   */\n  dup1\n    /* \"#utility.yul\":7525:7606   */\n  tag_142\n  jumpi\n    /* \"#utility.yul\":7591:7595   */\n  0x7f\n    /* \"#utility.yul\":7583:7589   */\n  dup3\n    /* \"#utility.yul\":7579:7596   */\n  and\n    /* \"#utility.yul\":7569:7596   */\n  swap2\n  pop\n    /* \"#utility.yul\":7525:7606   */\ntag_142:\n    /* \"#utility.yul\":7653:7655   */\n  0x20\n    /* \"#utility.yul\":7645:7651   */\n  dup3\n    /* \"#utility.yul\":7642:7656   */\n  lt\n    /* \"#utility.yul\":7622:7640   */\n  dup2\n    /* \"#utility.yul\":7619:7657   */\n  sub\n    /* \"#utility.yul\":7616:7700   */\n  tag_143\n  jumpi\n    /* \"#utility.yul\":7672:7690   */\n  tag_144\n  tag_59\n  jump\t// in\ntag_144:\n    /* \"#utility.yul\":7616:7700   */\ntag_143:\n    /* \"#utility.yul\":7437:7706   */\n  pop\n    /* \"#utility.yul\":7386:7706   */\n  swap2\n  swap1\n  pop\n  jump\t// out\n    /* \"Task.sol\":639:2514  contract Task {... */\ntag_12:\n  dataSize(sub_0)\n  dup1\n  dataOffset(sub_0)\n  0x00\n  codecopy\n  0x00\n  return\nstop\n\nsub_0: assembly {\n        /* \"Task.sol\":639:2514  contract Task {... */\n      mstore(0x40, 0x80)\n      callvalue\n      dup1\n      iszero\n      tag_1\n      jumpi\n      0x00\n      dup1\n      revert\n    tag_1:\n      pop\n      jumpi(tag_2, lt(calldatasize, 0x04))\n      shr(0xe0, calldataload(0x00))\n      dup1\n      0x5f51c765\n      gt\n      tag_18\n      jumpi\n      dup1\n      0xaf84a013\n      gt\n      tag_19\n      jumpi\n      dup1\n      0xaf84a013\n      eq\n      tag_14\n      jumpi\n      dup1\n      0xdea4e339\n      eq\n      tag_15\n      jumpi\n      dup1\n      0xfa391c64\n      eq\n      tag_16\n      jumpi\n      dup1\n      0xfbc03a1e\n      eq\n      tag_17\n      jumpi\n      jump(tag_2)\n    tag_19:\n      dup1\n      0x5f51c765\n      eq\n      tag_10\n      jumpi\n      dup1\n      0x71096387\n      eq\n      tag_11\n      jumpi\n      dup1\n      0x74adad1d\n      eq\n      tag_12\n      jumpi\n      dup1\n      0xa20fca5a\n      eq\n      tag_13\n      jumpi\n      jump(tag_2)\n    tag_18:\n      dup1\n      0x481c6a75\n      gt\n      tag_20\n      jumpi\n      dup1\n      0x481c6a75\n      eq\n      tag_6\n      jumpi\n      dup1\n      0x4d547ada\n      eq\n      tag_7\n      jumpi\n      dup1\n      0x5a9b0b89\n      eq\n      tag_8\n      jumpi\n      dup1\n      0x5e1c7322\n      eq\n      tag_9\n      jumpi\n      jump(tag_2)\n    tag_20:\n      dup1\n      0x1aea77\n      eq\n      tag_3\n      jumpi\n      dup1\n      0x231e407a\n      eq\n      tag_4\n      jumpi\n      dup1\n      0x31c3a6f5\n      eq\n      tag_5\n      jumpi\n    tag_2:\n      0x00\n      dup1\n      revert\n        /* \"Task.sol\":811:833  string public taskName */\n    tag_3:\n      tag_21\n      tag_22\n      jump\t// in\n    tag_21:\n      mload(0x40)\n      tag_23\n      swap2\n      swap1\n      tag_24\n      jump\t// in\n    tag_23:\n      mload(0x40)\n      dup1\n      swap2\n      sub\n      swap1\n      return\n        /* \"Task.sol\":1924:2061  function killTask() public restricted {... */\n    tag_4:\n      tag_25\n      tag_26\n      jump\t// in\n    tag_25:\n      stop\n        /* \"Task.sol\":2069:2219  function creaetRequest(string memory description) public  {... */\n    tag_5:\n      tag_27\n      0x04\n      dup1\n      calldatasize\n      sub\n      dup2\n      add\n      swap1\n      tag_28\n      swap2\n      swap1\n      tag_29\n      jump\t// in\n    tag_28:\n      tag_30\n      jump\t// in\n    tag_27:\n      stop\n        /* \"Task.sol\":743:773  address payable public manager */\n    tag_6:\n      tag_31\n      tag_32\n      jump\t// in\n    tag_31:\n      mload(0x40)\n      tag_33\n      swap2\n      swap1\n      tag_34\n      jump\t// in\n    tag_33:\n      mload(0x40)\n      dup1\n      swap2\n      sub\n      swap1\n      return\n        /* \"Task.sol\":943:972  address payable public worker */\n    tag_7:\n      tag_35\n      tag_36\n      jump\t// in\n    tag_35:\n      mload(0x40)\n      tag_37\n      swap2\n      swap1\n      tag_34\n      jump\t// in\n    tag_37:\n      mload(0x40)\n      dup1\n      swap2\n      sub\n      swap1\n      return\n        /* \"Task.sol\":1470:1719  function getInfo() public view returns(address payable, string memory, string[] memory, string memory, string memory, address payable, bool) {... */\n    tag_8:\n      tag_38\n      tag_39\n      jump\t// in\n    tag_38:\n      mload(0x40)\n      tag_40\n      swap8\n      swap7\n      swap6\n      swap5\n      swap4\n      swap3\n      swap2\n      swap1\n      tag_41\n      jump\t// in\n    tag_40:\n      mload(0x40)\n      dup1\n      swap2\n      sub\n      swap1\n      return\n        /* \"Task.sol\":1818:1916  function getHashtags() public view returns(string[] memory) {... */\n    tag_9:\n      tag_42\n      tag_43\n      jump\t// in\n    tag_42:\n      mload(0x40)\n      tag_44\n      swap2\n      swap1\n      tag_45\n      jump\t// in\n    tag_44:\n      mload(0x40)\n      dup1\n      swap2\n      sub\n      swap1\n      return\n        /* \"Task.sol\":2227:2374  function startTask(address newWorker) public restricted {... */\n    tag_10:\n      tag_46\n      0x04\n      dup1\n      calldatasize\n      sub\n      dup2\n      add\n      swap1\n      tag_47\n      swap2\n      swap1\n      tag_48\n      jump\t// in\n    tag_47:\n      tag_49\n      jump\t// in\n    tag_46:\n      stop\n        /* \"Task.sol\":840:865  string[] public taskFiles */\n    tag_11:\n      tag_50\n      0x04\n      dup1\n      calldatasize\n      sub\n      dup2\n      add\n      swap1\n      tag_51\n      swap2\n      swap1\n      tag_52\n      jump\t// in\n    tag_51:\n      tag_53\n      jump\t// in\n    tag_50:\n      mload(0x40)\n      tag_54\n      swap2\n      swap1\n      tag_24\n      jump\t// in\n    tag_54:\n      mload(0x40)\n      dup1\n      swap2\n      sub\n      swap1\n      return\n        /* \"Task.sol\":1009:1052  mapping(address => Request) public requests */\n    tag_12:\n      tag_55\n      0x04\n      dup1\n      calldatasize\n      sub\n      dup2\n      add\n      swap1\n      tag_56\n      swap2\n      swap1\n      tag_48\n      jump\t// in\n    tag_56:\n      tag_57\n      jump\t// in\n    tag_55:\n      mload(0x40)\n      tag_58\n      swap3\n      swap2\n      swap1\n      tag_59\n      jump\t// in\n    tag_58:\n      mload(0x40)\n      dup1\n      swap2\n      sub\n      swap1\n      return\n        /* \"Task.sol\":2382:2511  function finalizeTask () public restricted {... */\n    tag_13:\n      tag_60\n      tag_61\n      jump\t// in\n    tag_60:\n      stop\n        /* \"Task.sol\":908:936  string[] public taskHashtags */\n    tag_14:\n      tag_62\n      0x04\n      dup1\n      calldatasize\n      sub\n      dup2\n      add\n      swap1\n      tag_63\n      swap2\n      swap1\n      tag_52\n      jump\t// in\n    tag_63:\n      tag_64\n      jump\t// in\n    tag_62:\n      mload(0x40)\n      tag_65\n      swap2\n      swap1\n      tag_24\n      jump\t// in\n    tag_65:\n      mload(0x40)\n      dup1\n      swap2\n      sub\n      swap1\n      return\n        /* \"Task.sol\":780:804  string public taskSphere */\n    tag_15:\n      tag_66\n      tag_67\n      jump\t// in\n    tag_66:\n      mload(0x40)\n      tag_68\n      swap2\n      swap1\n      tag_24\n      jump\t// in\n    tag_68:\n      mload(0x40)\n      dup1\n      swap2\n      sub\n      swap1\n      return\n        /* \"Task.sol\":979:1002  bool public isCompleted */\n    tag_16:\n      tag_69\n      tag_70\n      jump\t// in\n    tag_69:\n      mload(0x40)\n      tag_71\n      swap2\n      swap1\n      tag_72\n      jump\t// in\n    tag_71:\n      mload(0x40)\n      dup1\n      swap2\n      sub\n      swap1\n      return\n        /* \"Task.sol\":872:901  string public taskDescription */\n    tag_17:\n      tag_73\n      tag_74\n      jump\t// in\n    tag_73:\n      mload(0x40)\n      tag_75\n      swap2\n      swap1\n      tag_24\n      jump\t// in\n    tag_75:\n      mload(0x40)\n      dup1\n      swap2\n      sub\n      swap1\n      return\n        /* \"Task.sol\":811:833  string public taskName */\n    tag_22:\n      0x02\n      dup1\n      sload\n      tag_76\n      swap1\n      tag_77\n      jump\t// in\n    tag_76:\n      dup1\n      0x1f\n      add\n      0x20\n      dup1\n      swap2\n      div\n      mul\n      0x20\n      add\n      mload(0x40)\n      swap1\n      dup2\n      add\n      0x40\n      mstore\n      dup1\n      swap3\n      swap2\n      swap1\n      dup2\n      dup2\n      mstore\n      0x20\n      add\n      dup3\n      dup1\n      sload\n      tag_78\n      swap1\n      tag_77\n      jump\t// in\n    tag_78:\n      dup1\n      iszero\n      tag_79\n      jumpi\n      dup1\n      0x1f\n      lt\n      tag_80\n      jumpi\n      0x0100\n      dup1\n      dup4\n      sload\n      div\n      mul\n      dup4\n      mstore\n      swap2\n      0x20\n      add\n      swap2\n      jump(tag_79)\n    tag_80:\n      dup3\n      add\n      swap2\n      swap1\n      0x00\n      mstore\n      keccak256(0x00, 0x20)\n      swap1\n    tag_81:\n      dup2\n      sload\n      dup2\n      mstore\n      swap1\n      0x01\n      add\n      swap1\n      0x20\n      add\n      dup1\n      dup4\n      gt\n      tag_81\n      jumpi\n      dup3\n      swap1\n      sub\n      0x1f\n      and\n      dup3\n      add\n      swap2\n    tag_79:\n      pop\n      pop\n      pop\n      pop\n      pop\n      dup2\n      jump\t// out\n        /* \"Task.sol\":1924:2061  function killTask() public restricted {... */\n    tag_26:\n        /* \"Task.sol\":1782:1789  manager */\n      0x00\n      dup1\n      sload\n      swap1\n      0x0100\n      exp\n      swap1\n      div\n      0xffffffffffffffffffffffffffffffffffffffff\n      and\n        /* \"Task.sol\":1768:1789  msg.sender == manager */\n      0xffffffffffffffffffffffffffffffffffffffff\n      and\n        /* \"Task.sol\":1768:1778  msg.sender */\n      caller\n        /* \"Task.sol\":1768:1789  msg.sender == manager */\n      0xffffffffffffffffffffffffffffffffffffffff\n      and\n      eq\n        /* \"Task.sol\":1760:1790  require(msg.sender == manager) */\n      tag_83\n      jumpi\n      0x00\n      dup1\n      revert\n    tag_83:\n        /* \"Task.sol\":1999:2000  0 */\n      0x00\n        /* \"Task.sol\":1981:2001  worker == address(0) */\n      0xffffffffffffffffffffffffffffffffffffffff\n      and\n        /* \"Task.sol\":1981:1987  worker */\n      0x06\n      0x00\n      swap1\n      sload\n      swap1\n      0x0100\n      exp\n      swap1\n      div\n      0xffffffffffffffffffffffffffffffffffffffff\n      and\n        /* \"Task.sol\":1981:2001  worker == address(0) */\n      0xffffffffffffffffffffffffffffffffffffffff\n      and\n      eq\n        /* \"Task.sol\":1973:2002  require(worker == address(0)) */\n      tag_85\n      jumpi\n      0x00\n      dup1\n      revert\n    tag_85:\n        /* \"Task.sol\":2014:2021  manager */\n      0x00\n      dup1\n      sload\n      swap1\n      0x0100\n      exp\n      swap1\n      div\n      0xffffffffffffffffffffffffffffffffffffffff\n      and\n        /* \"Task.sol\":2014:2030  manager.transfer */\n      0xffffffffffffffffffffffffffffffffffffffff\n      and\n        /* \"Task.sol\":2014:2053  manager.transfer(address(this).balance) */\n      0x08fc\n        /* \"Task.sol\":2031:2052  address(this).balance */\n      selfbalance\n        /* \"Task.sol\":2014:2053  manager.transfer(address(this).balance) */\n      swap1\n      dup2\n      iszero\n      mul\n      swap1\n      mload(0x40)\n      0x00\n      mload(0x40)\n      dup1\n      dup4\n      sub\n      dup2\n      dup6\n      dup9\n      dup9\n      call\n      swap4\n      pop\n      pop\n      pop\n      pop\n      iszero\n      dup1\n      iszero\n      tag_87\n      jumpi\n      returndatasize\n      0x00\n      dup1\n      returndatacopy\n      revert(0x00, returndatasize)\n    tag_87:\n      pop\n        /* \"Task.sol\":1924:2061  function killTask() public restricted {... */\n      jump\t// out\n        /* \"Task.sol\":2069:2219  function creaetRequest(string memory description) public  {... */\n    tag_30:\n        /* \"Task.sol\":2161:2211  Request(... */\n      mload(0x40)\n      dup1\n      0x40\n      add\n      0x40\n      mstore\n      dup1\n        /* \"Task.sol\":2183:2194  description */\n      dup3\n        /* \"Task.sol\":2161:2211  Request(... */\n      dup2\n      mstore\n      0x20\n      add\n        /* \"Task.sol\":2196:2200  true */\n      0x01\n        /* \"Task.sol\":2161:2211  Request(... */\n      iszero\n      iszero\n      dup2\n      mstore\n      pop\n        /* \"Task.sol\":2138:2146  requests */\n      0x07\n        /* \"Task.sol\":2138:2158  requests[msg.sender] */\n      0x00\n        /* \"Task.sol\":2147:2157  msg.sender */\n      caller\n        /* \"Task.sol\":2138:2158  requests[msg.sender] */\n      0xffffffffffffffffffffffffffffffffffffffff\n      and\n      0xffffffffffffffffffffffffffffffffffffffff\n      and\n      dup2\n      mstore\n      0x20\n      add\n      swap1\n      dup2\n      mstore\n      0x20\n      add\n      0x00\n      keccak256\n        /* \"Task.sol\":2138:2211  requests[msg.sender] = Request(... */\n      0x00\n      dup3\n      add\n      mload\n      dup2\n      0x00\n      add\n      swap1\n      dup1\n      mload\n      swap1\n      0x20\n      add\n      swap1\n      tag_89\n      swap3\n      swap2\n      swap1\n      tag_90\n      jump\t// in\n    tag_89:\n      pop\n      0x20\n      dup3\n      add\n      mload\n      dup2\n      0x01\n      add\n      exp(0x0100, 0x00)\n      dup2\n      sload\n      dup2\n      0xff\n      mul\n      not\n      and\n      swap1\n      dup4\n      iszero\n      iszero\n      mul\n      or\n      swap1\n      sstore\n      pop\n      swap1\n      pop\n      pop\n        /* \"Task.sol\":2069:2219  function creaetRequest(string memory description) public  {... */\n      pop\n      jump\t// out\n        /* \"Task.sol\":743:773  address payable public manager */\n    tag_32:\n      0x00\n      dup1\n      sload\n      swap1\n      0x0100\n      exp\n      swap1\n      div\n      0xffffffffffffffffffffffffffffffffffffffff\n      and\n      dup2\n      jump\t// out\n        /* \"Task.sol\":943:972  address payable public worker */\n    tag_36:\n      0x06\n      0x00\n      swap1\n      sload\n      swap1\n      0x0100\n      exp\n      swap1\n      div\n      0xffffffffffffffffffffffffffffffffffffffff\n      and\n      dup2\n      jump\t// out\n        /* \"Task.sol\":1470:1719  function getInfo() public view returns(address payable, string memory, string[] memory, string memory, string memory, address payable, bool) {... */\n    tag_39:\n        /* \"Task.sol\":1509:1524  address payable */\n      0x00\n        /* \"Task.sol\":1526:1539  string memory */\n      0x60\n        /* \"Task.sol\":1541:1556  string[] memory */\n      dup1\n        /* \"Task.sol\":1558:1571  string memory */\n      0x60\n        /* \"Task.sol\":1573:1586  string memory */\n      dup1\n        /* \"Task.sol\":1588:1603  address payable */\n      0x00\n        /* \"Task.sol\":1605:1609  bool */\n      dup1\n        /* \"Task.sol\":1630:1637  manager */\n      0x00\n      dup1\n      sload\n      swap1\n      0x0100\n      exp\n      swap1\n      div\n      0xffffffffffffffffffffffffffffffffffffffff\n      and\n        /* \"Task.sol\":1639:1647  taskName */\n      0x02\n        /* \"Task.sol\":1649:1658  taskFiles */\n      0x03\n        /* \"Task.sol\":1660:1675  taskDescription */\n      0x04\n        /* \"Task.sol\":1677:1687  taskSphere */\n      0x01\n        /* \"Task.sol\":1689:1695  worker */\n      0x06\n      0x00\n      swap1\n      sload\n      swap1\n      0x0100\n      exp\n      swap1\n      div\n      0xffffffffffffffffffffffffffffffffffffffff\n      and\n        /* \"Task.sol\":1697:1708  isCompleted */\n      0x06\n      0x14\n      swap1\n      sload\n      swap1\n      0x0100\n      exp\n      swap1\n      div\n      0xff\n      and\n        /* \"Task.sol\":1622:1709  return (manager, taskName, taskFiles, taskDescription, taskSphere, worker, isCompleted) */\n      dup6\n      dup1\n      sload\n      tag_92\n      swap1\n      tag_77\n      jump\t// in\n    tag_92:\n      dup1\n      0x1f\n      add\n      0x20\n      dup1\n      swap2\n      div\n      mul\n      0x20\n      add\n      mload(0x40)\n      swap1\n      dup2\n      add\n      0x40\n      mstore\n      dup1\n      swap3\n      swap2\n      swap1\n      dup2\n      dup2\n      mstore\n      0x20\n      add\n      dup3\n      dup1\n      sload\n      tag_93\n      swap1\n      tag_77\n      jump\t// in\n    tag_93:\n      dup1\n      iszero\n      tag_94\n      jumpi\n      dup1\n      0x1f\n      lt\n      tag_95\n      jumpi\n      0x0100\n      dup1\n      dup4\n      sload\n      div\n      mul\n      dup4\n      mstore\n      swap2\n      0x20\n      add\n      swap2\n      jump(tag_94)\n    tag_95:\n      dup3\n      add\n      swap2\n      swap1\n      0x00\n      mstore\n      keccak256(0x00, 0x20)\n      swap1\n    tag_96:\n      dup2\n      sload\n      dup2\n      mstore\n      swap1\n      0x01\n      add\n      swap1\n      0x20\n      add\n      dup1\n      dup4\n      gt\n      tag_96\n      jumpi\n      dup3\n      swap1\n      sub\n      0x1f\n      and\n      dup3\n      add\n      swap2\n    tag_94:\n      pop\n      pop\n      pop\n      pop\n      pop\n      swap6\n      pop\n      dup5\n      dup1\n      sload\n      dup1\n      0x20\n      mul\n      0x20\n      add\n      mload(0x40)\n      swap1\n      dup2\n      add\n      0x40\n      mstore\n      dup1\n      swap3\n      swap2\n      swap1\n      dup2\n      dup2\n      mstore\n      0x20\n      add\n      0x00\n      swap1\n    tag_97:\n      dup3\n      dup3\n      lt\n      iszero\n      tag_98\n      jumpi\n      dup4\n      dup3\n      swap1\n      0x00\n      mstore\n      keccak256(0x00, 0x20)\n      add\n      dup1\n      sload\n      tag_100\n      swap1\n      tag_77\n      jump\t// in\n    tag_100:\n      dup1\n      0x1f\n      add\n      0x20\n      dup1\n      swap2\n      div\n      mul\n      0x20\n      add\n      mload(0x40)\n      swap1\n      dup2\n      add\n      0x40\n      mstore\n      dup1\n      swap3\n      swap2\n      swap1\n      dup2\n      dup2\n      mstore\n      0x20\n      add\n      dup3\n      dup1\n      sload\n      tag_101\n      swap1\n      tag_77\n      jump\t// in\n    tag_101:\n      dup1\n      iszero\n      tag_102\n      jumpi\n      dup1\n      0x1f\n      lt\n      tag_103\n      jumpi\n      0x0100\n      dup1\n      dup4\n      sload\n      div\n      mul\n      dup4\n      mstore\n      swap2\n      0x20\n      add\n      swap2\n      jump(tag_102)\n    tag_103:\n      dup3\n      add\n      swap2\n      swap1\n      0x00\n      mstore\n      keccak256(0x00, 0x20)\n      swap1\n    tag_104:\n      dup2\n      sload\n      dup2\n      mstore\n      swap1\n      0x01\n      add\n      swap1\n      0x20\n      add\n      dup1\n      dup4\n      gt\n      tag_104\n      jumpi\n      dup3\n      swap1\n      sub\n      0x1f\n      and\n      dup3\n      add\n      swap2\n    tag_102:\n      pop\n      pop\n      pop\n      pop\n      pop\n      dup2\n      mstore\n      0x20\n      add\n      swap1\n      0x01\n      add\n      swap1\n      jump(tag_97)\n    tag_98:\n      pop\n      pop\n      pop\n      pop\n      swap5\n      pop\n      dup4\n      dup1\n      sload\n      tag_105\n      swap1\n      tag_77\n      jump\t// in\n    tag_105:\n      dup1\n      0x1f\n      add\n      0x20\n      dup1\n      swap2\n      div\n      mul\n      0x20\n      add\n      mload(0x40)\n      swap1\n      dup2\n      add\n      0x40\n      mstore\n      dup1\n      swap3\n      swap2\n      swap1\n      dup2\n      dup2\n      mstore\n      0x20\n      add\n      dup3\n      dup1\n      sload\n      tag_106\n      swap1\n      tag_77\n      jump\t// in\n    tag_106:\n      dup1\n      iszero\n      tag_107\n      jumpi\n      dup1\n      0x1f\n      lt\n      tag_108\n      jumpi\n      0x0100\n      dup1\n      dup4\n      sload\n      div\n      mul\n      dup4\n      mstore\n      swap2\n      0x20\n      add\n      swap2\n      jump(tag_107)\n    tag_108:\n      dup3\n      add\n      swap2\n      swap1\n      0x00\n      mstore\n      keccak256(0x00, 0x20)\n      swap1\n    tag_109:\n      dup2\n      sload\n      dup2\n      mstore\n      swap1\n      0x01\n      add\n      swap1\n      0x20\n      add\n      dup1\n      dup4\n      gt\n      tag_109\n      jumpi\n      dup3\n      swap1\n      sub\n      0x1f\n      and\n      dup3\n      add\n      swap2\n    tag_107:\n      pop\n      pop\n      pop\n      pop\n      pop\n      swap4\n      pop\n      dup3\n      dup1\n      sload\n      tag_110\n      swap1\n      tag_77\n      jump\t// in\n    tag_110:\n      dup1\n      0x1f\n      add\n      0x20\n      dup1\n      swap2\n      div\n      mul\n      0x20\n      add\n      mload(0x40)\n      swap1\n      dup2\n      add\n      0x40\n      mstore\n      dup1\n      swap3\n      swap2\n      swap1\n      dup2\n      dup2\n      mstore\n      0x20\n      add\n      dup3\n      dup1\n      sload\n      tag_111\n      swap1\n      tag_77\n      jump\t// in\n    tag_111:\n      dup1\n      iszero\n      tag_112\n      jumpi\n      dup1\n      0x1f\n      lt\n      tag_113\n      jumpi\n      0x0100\n      dup1\n      dup4\n      sload\n      div\n      mul\n      dup4\n      mstore\n      swap2\n      0x20\n      add\n      swap2\n      jump(tag_112)\n    tag_113:\n      dup3\n      add\n      swap2\n      swap1\n      0x00\n      mstore\n      keccak256(0x00, 0x20)\n      swap1\n    tag_114:\n      dup2\n      sload\n      dup2\n      mstore\n      swap1\n      0x01\n      add\n      swap1\n      0x20\n      add\n      dup1\n      dup4\n      gt\n      tag_114\n      jumpi\n      dup3\n      swap1\n      sub\n      0x1f\n      and\n      dup3\n      add\n      swap2\n    tag_112:\n      pop\n      pop\n      pop\n      pop\n      pop\n      swap3\n      pop\n      swap7\n      pop\n      swap7\n      pop\n      swap7\n      pop\n      swap7\n      pop\n      swap7\n      pop\n      swap7\n      pop\n      swap7\n      pop\n        /* \"Task.sol\":1470:1719  function getInfo() public view returns(address payable, string memory, string[] memory, string memory, string memory, address payable, bool) {... */\n      swap1\n      swap2\n      swap3\n      swap4\n      swap5\n      swap6\n      swap7\n      jump\t// out\n        /* \"Task.sol\":1818:1916  function getHashtags() public view returns(string[] memory) {... */\n    tag_43:\n        /* \"Task.sol\":1861:1876  string[] memory */\n      0x60\n        /* \"Task.sol\":1896:1908  taskHashtags */\n      0x05\n        /* \"Task.sol\":1889:1908  return taskHashtags */\n      dup1\n      sload\n      dup1\n      0x20\n      mul\n      0x20\n      add\n      mload(0x40)\n      swap1\n      dup2\n      add\n      0x40\n      mstore\n      dup1\n      swap3\n      swap2\n      swap1\n      dup2\n      dup2\n      mstore\n      0x20\n      add\n      0x00\n      swap1\n    tag_116:\n      dup3\n      dup3\n      lt\n      iszero\n      tag_117\n      jumpi\n      dup4\n      dup3\n      swap1\n      0x00\n      mstore\n      keccak256(0x00, 0x20)\n      add\n      dup1\n      sload\n      tag_119\n      swap1\n      tag_77\n      jump\t// in\n    tag_119:\n      dup1\n      0x1f\n      add\n      0x20\n      dup1\n      swap2\n      div\n      mul\n      0x20\n      add\n      mload(0x40)\n      swap1\n      dup2\n      add\n      0x40\n      mstore\n      dup1\n      swap3\n      swap2\n      swap1\n      dup2\n      dup2\n      mstore\n      0x20\n      add\n      dup3\n      dup1\n      sload\n      tag_120\n      swap1\n      tag_77\n      jump\t// in\n    tag_120:\n      dup1\n      iszero\n      tag_121\n      jumpi\n      dup1\n      0x1f\n      lt\n      tag_122\n      jumpi\n      0x0100\n      dup1\n      dup4\n      sload\n      div\n      mul\n      dup4\n      mstore\n      swap2\n      0x20\n      add\n      swap2\n      jump(tag_121)\n    tag_122:\n      dup3\n      add\n      swap2\n      swap1\n      0x00\n      mstore\n      keccak256(0x00, 0x20)\n      swap1\n    tag_123:\n      dup2\n      sload\n      dup2\n      mstore\n      swap1\n      0x01\n      add\n      swap1\n      0x20\n      add\n      dup1\n      dup4\n      gt\n      tag_123\n      jumpi\n      dup3\n      swap1\n      sub\n      0x1f\n      and\n      dup3\n      add\n      swap2\n    tag_121:\n      pop\n      pop\n      pop\n      pop\n      pop\n      dup2\n      mstore\n      0x20\n      add\n      swap1\n      0x01\n      add\n      swap1\n      jump(tag_116)\n    tag_117:\n      pop\n      pop\n      pop\n      pop\n      swap1\n      pop\n        /* \"Task.sol\":1818:1916  function getHashtags() public view returns(string[] memory) {... */\n      swap1\n      jump\t// out\n        /* \"Task.sol\":2227:2374  function startTask(address newWorker) public restricted {... */\n    tag_49:\n        /* \"Task.sol\":1782:1789  manager */\n      0x00\n      dup1\n      sload\n      swap1\n      0x0100\n      exp\n      swap1\n      div\n      0xffffffffffffffffffffffffffffffffffffffff\n      and\n        /* \"Task.sol\":1768:1789  msg.sender == manager */\n      0xffffffffffffffffffffffffffffffffffffffff\n      and\n        /* \"Task.sol\":1768:1778  msg.sender */\n      caller\n        /* \"Task.sol\":1768:1789  msg.sender == manager */\n      0xffffffffffffffffffffffffffffffffffffffff\n      and\n      eq\n        /* \"Task.sol\":1760:1790  require(msg.sender == manager) */\n      tag_125\n      jumpi\n      0x00\n      dup1\n      revert\n    tag_125:\n        /* \"Task.sol\":2302:2310  requests */\n      0x07\n        /* \"Task.sol\":2302:2321  requests[newWorker] */\n      0x00\n        /* \"Task.sol\":2311:2320  newWorker */\n      dup3\n        /* \"Task.sol\":2302:2321  requests[newWorker] */\n      0xffffffffffffffffffffffffffffffffffffffff\n      and\n      0xffffffffffffffffffffffffffffffffffffffff\n      and\n      dup2\n      mstore\n      0x20\n      add\n      swap1\n      dup2\n      mstore\n      0x20\n      add\n      0x00\n      keccak256\n        /* \"Task.sol\":2302:2327  requests[newWorker].exist */\n      0x01\n      add\n      0x00\n      swap1\n      sload\n      swap1\n      0x0100\n      exp\n      swap1\n      div\n      0xff\n      and\n        /* \"Task.sol\":2294:2328  require(requests[newWorker].exist) */\n      tag_127\n      jumpi\n      0x00\n      dup1\n      revert\n    tag_127:\n        /* \"Task.sol\":2356:2365  newWorker */\n      dup1\n        /* \"Task.sol\":2339:2345  worker */\n      0x06\n      0x00\n        /* \"Task.sol\":2339:2366  worker = payable(newWorker) */\n      0x0100\n      exp\n      dup2\n      sload\n      dup2\n      0xffffffffffffffffffffffffffffffffffffffff\n      mul\n      not\n      and\n      swap1\n      dup4\n      0xffffffffffffffffffffffffffffffffffffffff\n      and\n      mul\n      or\n      swap1\n      sstore\n      pop\n        /* \"Task.sol\":2227:2374  function startTask(address newWorker) public restricted {... */\n      pop\n      jump\t// out\n        /* \"Task.sol\":840:865  string[] public taskFiles */\n    tag_53:\n      0x03\n      dup2\n      dup2\n      sload\n      dup2\n      lt\n      tag_128\n      jumpi\n      0x00\n      dup1\n      revert\n    tag_128:\n      swap1\n      0x00\n      mstore\n      keccak256(0x00, 0x20)\n      add\n      0x00\n      swap2\n      pop\n      swap1\n      pop\n      dup1\n      sload\n      tag_130\n      swap1\n      tag_77\n      jump\t// in\n    tag_130:\n      dup1\n      0x1f\n      add\n      0x20\n      dup1\n      swap2\n      div\n      mul\n      0x20\n      add\n      mload(0x40)\n      swap1\n      dup2\n      add\n      0x40\n      mstore\n      dup1\n      swap3\n      swap2\n      swap1\n      dup2\n      dup2\n      mstore\n      0x20\n      add\n      dup3\n      dup1\n      sload\n      tag_131\n      swap1\n      tag_77\n      jump\t// in\n    tag_131:\n      dup1\n      iszero\n      tag_132\n      jumpi\n      dup1\n      0x1f\n      lt\n      tag_133\n      jumpi\n      0x0100\n      dup1\n      dup4\n      sload\n      div\n      mul\n      dup4\n      mstore\n      swap2\n      0x20\n      add\n      swap2\n      jump(tag_132)\n    tag_133:\n      dup3\n      add\n      swap2\n      swap1\n      0x00\n      mstore\n      keccak256(0x00, 0x20)\n      swap1\n    tag_134:\n      dup2\n      sload\n      dup2\n      mstore\n      swap1\n      0x01\n      add\n      swap1\n      0x20\n      add\n      dup1\n      dup4\n      gt\n      tag_134\n      jumpi\n      dup3\n      swap1\n      sub\n      0x1f\n      and\n      dup3\n      add\n      swap2\n    tag_132:\n      pop\n      pop\n      pop\n      pop\n      pop\n      dup2\n      jump\t// out\n        /* \"Task.sol\":1009:1052  mapping(address => Request) public requests */\n    tag_57:\n      mstore(0x20, 0x07)\n      dup1\n      0x00\n      mstore\n      keccak256(0x00, 0x40)\n      0x00\n      swap2\n      pop\n      swap1\n      pop\n      dup1\n      0x00\n      add\n      dup1\n      sload\n      tag_135\n      swap1\n      tag_77\n      jump\t// in\n    tag_135:\n      dup1\n      0x1f\n      add\n      0x20\n      dup1\n      swap2\n      div\n      mul\n      0x20\n      add\n      mload(0x40)\n      swap1\n      dup2\n      add\n      0x40\n      mstore\n      dup1\n      swap3\n      swap2\n      swap1\n      dup2\n      dup2\n      mstore\n      0x20\n      add\n      dup3\n      dup1\n      sload\n      tag_136\n      swap1\n      tag_77\n      jump\t// in\n    tag_136:\n      dup1\n      iszero\n      tag_137\n      jumpi\n      dup1\n      0x1f\n      lt\n      tag_138\n      jumpi\n      0x0100\n      dup1\n      dup4\n      sload\n      div\n      mul\n      dup4\n      mstore\n      swap2\n      0x20\n      add\n      swap2\n      jump(tag_137)\n    tag_138:\n      dup3\n      add\n      swap2\n      swap1\n      0x00\n      mstore\n      keccak256(0x00, 0x20)\n      swap1\n    tag_139:\n      dup2\n      sload\n      dup2\n      mstore\n      swap1\n      0x01\n      add\n      swap1\n      0x20\n      add\n      dup1\n      dup4\n      gt\n      tag_139\n      jumpi\n      dup3\n      swap1\n      sub\n      0x1f\n      and\n      dup3\n      add\n      swap2\n    tag_137:\n      pop\n      pop\n      pop\n      pop\n      pop\n      swap1\n      dup1\n      0x01\n      add\n      0x00\n      swap1\n      sload\n      swap1\n      0x0100\n      exp\n      swap1\n      div\n      0xff\n      and\n      swap1\n      pop\n      dup3\n      jump\t// out\n        /* \"Task.sol\":2382:2511  function finalizeTask () public restricted {... */\n    tag_61:\n        /* \"Task.sol\":1782:1789  manager */\n      0x00\n      dup1\n      sload\n      swap1\n      0x0100\n      exp\n      swap1\n      div\n      0xffffffffffffffffffffffffffffffffffffffff\n      and\n        /* \"Task.sol\":1768:1789  msg.sender == manager */\n      0xffffffffffffffffffffffffffffffffffffffff\n      and\n        /* \"Task.sol\":1768:1778  msg.sender */\n      caller\n        /* \"Task.sol\":1768:1789  msg.sender == manager */\n      0xffffffffffffffffffffffffffffffffffffffff\n      and\n      eq\n        /* \"Task.sol\":1760:1790  require(msg.sender == manager) */\n      tag_141\n      jumpi\n      0x00\n      dup1\n      revert\n    tag_141:\n        /* \"Task.sol\":2436:2442  worker */\n      0x06\n      0x00\n      swap1\n      sload\n      swap1\n      0x0100\n      exp\n      swap1\n      div\n      0xffffffffffffffffffffffffffffffffffffffff\n      and\n        /* \"Task.sol\":2436:2451  worker.transfer */\n      0xffffffffffffffffffffffffffffffffffffffff\n      and\n        /* \"Task.sol\":2436:2474  worker.transfer(address(this).balance) */\n      0x08fc\n        /* \"Task.sol\":2452:2473  address(this).balance */\n      selfbalance\n        /* \"Task.sol\":2436:2474  worker.transfer(address(this).balance) */\n      swap1\n      dup2\n      iszero\n      mul\n      swap1\n      mload(0x40)\n      0x00\n      mload(0x40)\n      dup1\n      dup4\n      sub\n      dup2\n      dup6\n      dup9\n      dup9\n      call\n      swap4\n      pop\n      pop\n      pop\n      pop\n      iszero\n      dup1\n      iszero\n      tag_144\n      jumpi\n      returndatasize\n      0x00\n      dup1\n      returndatacopy\n      revert(0x00, returndatasize)\n    tag_144:\n      pop\n        /* \"Task.sol\":2499:2503  true */\n      0x01\n        /* \"Task.sol\":2485:2496  isCompleted */\n      0x06\n      0x14\n        /* \"Task.sol\":2485:2503  isCompleted = true */\n      0x0100\n      exp\n      dup2\n      sload\n      dup2\n      0xff\n      mul\n      not\n      and\n      swap1\n      dup4\n      iszero\n      iszero\n      mul\n      or\n      swap1\n      sstore\n      pop\n        /* \"Task.sol\":2382:2511  function finalizeTask () public restricted {... */\n      jump\t// out\n        /* \"Task.sol\":908:936  string[] public taskHashtags */\n    tag_64:\n      0x05\n      dup2\n      dup2\n      sload\n      dup2\n      lt\n      tag_145\n      jumpi\n      0x00\n      dup1\n      revert\n    tag_145:\n      swap1\n      0x00\n      mstore\n      keccak256(0x00, 0x20)\n      add\n      0x00\n      swap2\n      pop\n      swap1\n      pop\n      dup1\n      sload\n      tag_147\n      swap1\n      tag_77\n      jump\t// in\n    tag_147:\n      dup1\n      0x1f\n      add\n      0x20\n      dup1\n      swap2\n      div\n      mul\n      0x20\n      add\n      mload(0x40)\n      swap1\n      dup2\n      add\n      0x40\n      mstore\n      dup1\n      swap3\n      swap2\n      swap1\n      dup2\n      dup2\n      mstore\n      0x20\n      add\n      dup3\n      dup1\n      sload\n      tag_148\n      swap1\n      tag_77\n      jump\t// in\n    tag_148:\n      dup1\n      iszero\n      tag_149\n      jumpi\n      dup1\n      0x1f\n      lt\n      tag_150\n      jumpi\n      0x0100\n      dup1\n      dup4\n      sload\n      div\n      mul\n      dup4\n      mstore\n      swap2\n      0x20\n      add\n      swap2\n      jump(tag_149)\n    tag_150:\n      dup3\n      add\n      swap2\n      swap1\n      0x00\n      mstore\n      keccak256(0x00, 0x20)\n      swap1\n    tag_151:\n      dup2\n      sload\n      dup2\n      mstore\n      swap1\n      0x01\n      add\n      swap1\n      0x20\n      add\n      dup1\n      dup4\n      gt\n      tag_151\n      jumpi\n      dup3\n      swap1\n      sub\n      0x1f\n      and\n      dup3\n      add\n      swap2\n    tag_149:\n      pop\n      pop\n      pop\n      pop\n      pop\n      dup2\n      jump\t// out\n        /* \"Task.sol\":780:804  string public taskSphere */\n    tag_67:\n      0x01\n      dup1\n      sload\n      tag_152\n      swap1\n      tag_77\n      jump\t// in\n    tag_152:\n      dup1\n      0x1f\n      add\n      0x20\n      dup1\n      swap2\n      div\n      mul\n      0x20\n      add\n      mload(0x40)\n      swap1\n      dup2\n      add\n      0x40\n      mstore\n      dup1\n      swap3\n      swap2\n      swap1\n      dup2\n      dup2\n      mstore\n      0x20\n      add\n      dup3\n      dup1\n      sload\n      tag_153\n      swap1\n      tag_77\n      jump\t// in\n    tag_153:\n      dup1\n      iszero\n      tag_154\n      jumpi\n      dup1\n      0x1f\n      lt\n      tag_155\n      jumpi\n      0x0100\n      dup1\n      dup4\n      sload\n      div\n      mul\n      dup4\n      mstore\n      swap2\n      0x20\n      add\n      swap2\n      jump(tag_154)\n    tag_155:\n      dup3\n      add\n      swap2\n      swap1\n      0x00\n      mstore\n      keccak256(0x00, 0x20)\n      swap1\n    tag_156:\n      dup2\n      sload\n      dup2\n      mstore\n      swap1\n      0x01\n      add\n      swap1\n      0x20\n      add\n      dup1\n      dup4\n      gt\n      tag_156\n      jumpi\n      dup3\n      swap1\n      sub\n      0x1f\n      and\n      dup3\n      add\n      swap2\n    tag_154:\n      pop\n      pop\n      pop\n      pop\n      pop\n      dup2\n      jump\t// out\n        /* \"Task.sol\":979:1002  bool public isCompleted */\n    tag_70:\n      0x06\n      0x14\n      swap1\n      sload\n      swap1\n      0x0100\n      exp\n      swap1\n      div\n      0xff\n      and\n      dup2\n      jump\t// out\n        /* \"Task.sol\":872:901  string public taskDescription */\n    tag_74:\n      0x04\n      dup1\n      sload\n      tag_157\n      swap1\n      tag_77\n      jump\t// in\n    tag_157:\n      dup1\n      0x1f\n      add\n      0x20\n      dup1\n      swap2\n      div\n      mul\n      0x20\n      add\n      mload(0x40)\n      swap1\n      dup2\n      add\n      0x40\n      mstore\n      dup1\n      swap3\n      swap2\n      swap1\n      dup2\n      dup2\n      mstore\n      0x20\n      add\n      dup3\n      dup1\n      sload\n      tag_158\n      swap1\n      tag_77\n      jump\t// in\n    tag_158:\n      dup1\n      iszero\n      tag_159\n      jumpi\n      dup1\n      0x1f\n      lt\n      tag_160\n      jumpi\n      0x0100\n      dup1\n      dup4\n      sload\n      div\n      mul\n      dup4\n      mstore\n      swap2\n      0x20\n      add\n      swap2\n      jump(tag_159)\n    tag_160:\n      dup3\n      add\n      swap2\n      swap1\n      0x00\n      mstore\n      keccak256(0x00, 0x20)\n      swap1\n    tag_161:\n      dup2\n      sload\n      dup2\n      mstore\n      swap1\n      0x01\n      add\n      swap1\n      0x20\n      add\n      dup1\n      dup4\n      gt\n      tag_161\n      jumpi\n      dup3\n      swap1\n      sub\n      0x1f\n      and\n      dup3\n      add\n      swap2\n    tag_159:\n      pop\n      pop\n      pop\n      pop\n      pop\n      dup2\n      jump\t// out\n    tag_90:\n      dup3\n      dup1\n      sload\n      tag_162\n      swap1\n      tag_77\n      jump\t// in\n    tag_162:\n      swap1\n      0x00\n      mstore\n      keccak256(0x00, 0x20)\n      swap1\n      0x1f\n      add\n      0x20\n      swap1\n      div\n      dup2\n      add\n      swap3\n      dup3\n      tag_164\n      jumpi\n      0x00\n      dup6\n      sstore\n      jump(tag_163)\n    tag_164:\n      dup3\n      0x1f\n      lt\n      tag_165\n      jumpi\n      dup1\n      mload\n      not(0xff)\n      and\n      dup4\n      dup1\n      add\n      or\n      dup6\n      sstore\n      jump(tag_163)\n    tag_165:\n      dup3\n      dup1\n      add\n      0x01\n      add\n      dup6\n      sstore\n      dup3\n      iszero\n      tag_163\n      jumpi\n      swap2\n      dup3\n      add\n    tag_166:\n      dup3\n      dup2\n      gt\n      iszero\n      tag_167\n      jumpi\n      dup3\n      mload\n      dup3\n      sstore\n      swap2\n      0x20\n      add\n      swap2\n      swap1\n      0x01\n      add\n      swap1\n      jump(tag_166)\n    tag_167:\n    tag_163:\n      pop\n      swap1\n      pop\n      tag_168\n      swap2\n      swap1\n      tag_169\n      jump\t// in\n    tag_168:\n      pop\n      swap1\n      jump\t// out\n    tag_169:\n    tag_170:\n      dup1\n      dup3\n      gt\n      iszero\n      tag_171\n      jumpi\n      0x00\n      dup2\n      0x00\n      swap1\n      sstore\n      pop\n      0x01\n      add\n      jump(tag_170)\n    tag_171:\n      pop\n      swap1\n      jump\t// out\n        /* \"#utility.yul\":7:106   */\n    tag_172:\n        /* \"#utility.yul\":59:65   */\n      0x00\n        /* \"#utility.yul\":93:98   */\n      dup2\n        /* \"#utility.yul\":87:99   */\n      mload\n        /* \"#utility.yul\":77:99   */\n      swap1\n      pop\n        /* \"#utility.yul\":7:106   */\n      swap2\n      swap1\n      pop\n      jump\t// out\n        /* \"#utility.yul\":112:281   */\n    tag_173:\n        /* \"#utility.yul\":196:207   */\n      0x00\n        /* \"#utility.yul\":230:236   */\n      dup3\n        /* \"#utility.yul\":225:228   */\n      dup3\n        /* \"#utility.yul\":218:237   */\n      mstore\n        /* \"#utility.yul\":270:274   */\n      0x20\n        /* \"#utility.yul\":265:268   */\n      dup3\n        /* \"#utility.yul\":261:275   */\n      add\n        /* \"#utility.yul\":246:275   */\n      swap1\n      pop\n        /* \"#utility.yul\":112:281   */\n      swap3\n      swap2\n      pop\n      pop\n      jump\t// out\n        /* \"#utility.yul\":287:594   */\n    tag_174:\n        /* \"#utility.yul\":355:356   */\n      0x00\n        /* \"#utility.yul\":365:478   */\n    tag_213:\n        /* \"#utility.yul\":379:385   */\n      dup4\n        /* \"#utility.yul\":376:377   */\n      dup2\n        /* \"#utility.yul\":373:386   */\n      lt\n        /* \"#utility.yul\":365:478   */\n      iszero\n      tag_215\n      jumpi\n        /* \"#utility.yul\":464:465   */\n      dup1\n        /* \"#utility.yul\":459:462   */\n      dup3\n        /* \"#utility.yul\":455:466   */\n      add\n        /* \"#utility.yul\":449:467   */\n      mload\n        /* \"#utility.yul\":445:446   */\n      dup2\n        /* \"#utility.yul\":440:443   */\n      dup5\n        /* \"#utility.yul\":436:447   */\n      add\n        /* \"#utility.yul\":429:468   */\n      mstore\n        /* \"#utility.yul\":401:403   */\n      0x20\n        /* \"#utility.yul\":398:399   */\n      dup2\n        /* \"#utility.yul\":394:404   */\n      add\n        /* \"#utility.yul\":389:404   */\n      swap1\n      pop\n        /* \"#utility.yul\":365:478   */\n      jump(tag_213)\n    tag_215:\n        /* \"#utility.yul\":496:502   */\n      dup4\n        /* \"#utility.yul\":493:494   */\n      dup2\n        /* \"#utility.yul\":490:503   */\n      gt\n        /* \"#utility.yul\":487:588   */\n      iszero\n      tag_216\n      jumpi\n        /* \"#utility.yul\":576:577   */\n      0x00\n        /* \"#utility.yul\":567:573   */\n      dup5\n        /* \"#utility.yul\":562:565   */\n      dup5\n        /* \"#utility.yul\":558:574   */\n      add\n        /* \"#utility.yul\":551:578   */\n      mstore\n        /* \"#utility.yul\":487:588   */\n    tag_216:\n        /* \"#utility.yul\":336:594   */\n      pop\n        /* \"#utility.yul\":287:594   */\n      pop\n      pop\n      pop\n      jump\t// out\n        /* \"#utility.yul\":600:702   */\n    tag_175:\n        /* \"#utility.yul\":641:647   */\n      0x00\n        /* \"#utility.yul\":692:694   */\n      0x1f\n        /* \"#utility.yul\":688:695   */\n      not\n        /* \"#utility.yul\":683:685   */\n      0x1f\n        /* \"#utility.yul\":676:681   */\n      dup4\n        /* \"#utility.yul\":672:686   */\n      add\n        /* \"#utility.yul\":668:696   */\n      and\n        /* \"#utility.yul\":658:696   */\n      swap1\n      pop\n        /* \"#utility.yul\":600:702   */\n      swap2\n      swap1\n      pop\n      jump\t// out\n        /* \"#utility.yul\":708:1072   */\n    tag_176:\n        /* \"#utility.yul\":796:799   */\n      0x00\n        /* \"#utility.yul\":824:863   */\n      tag_219\n        /* \"#utility.yul\":857:862   */\n      dup3\n        /* \"#utility.yul\":824:863   */\n      tag_172\n      jump\t// in\n    tag_219:\n        /* \"#utility.yul\":879:950   */\n      tag_220\n        /* \"#utility.yul\":943:949   */\n      dup2\n        /* \"#utility.yul\":938:941   */\n      dup6\n        /* \"#utility.yul\":879:950   */\n      tag_173\n      jump\t// in\n    tag_220:\n        /* \"#utility.yul\":872:950   */\n      swap4\n      pop\n        /* \"#utility.yul\":959:1011   */\n      tag_221\n        /* \"#utility.yul\":1004:1010   */\n      dup2\n        /* \"#utility.yul\":999:1002   */\n      dup6\n        /* \"#utility.yul\":992:996   */\n      0x20\n        /* \"#utility.yul\":985:990   */\n      dup7\n        /* \"#utility.yul\":981:997   */\n      add\n        /* \"#utility.yul\":959:1011   */\n      tag_174\n      jump\t// in\n    tag_221:\n        /* \"#utility.yul\":1036:1065   */\n      tag_222\n        /* \"#utility.yul\":1058:1064   */\n      dup2\n        /* \"#utility.yul\":1036:1065   */\n      tag_175\n      jump\t// in\n    tag_222:\n        /* \"#utility.yul\":1031:1034   */\n      dup5\n        /* \"#utility.yul\":1027:1066   */\n      add\n        /* \"#utility.yul\":1020:1066   */\n      swap2\n      pop\n        /* \"#utility.yul\":800:1072   */\n      pop\n        /* \"#utility.yul\":708:1072   */\n      swap3\n      swap2\n      pop\n      pop\n      jump\t// out\n        /* \"#utility.yul\":1078:1391   */\n    tag_24:\n        /* \"#utility.yul\":1191:1195   */\n      0x00\n        /* \"#utility.yul\":1229:1231   */\n      0x20\n        /* \"#utility.yul\":1218:1227   */\n      dup3\n        /* \"#utility.yul\":1214:1232   */\n      add\n        /* \"#utility.yul\":1206:1232   */\n      swap1\n      pop\n        /* \"#utility.yul\":1278:1287   */\n      dup2\n        /* \"#utility.yul\":1272:1276   */\n      dup2\n        /* \"#utility.yul\":1268:1288   */\n      sub\n        /* \"#utility.yul\":1264:1265   */\n      0x00\n        /* \"#utility.yul\":1253:1262   */\n      dup4\n        /* \"#utility.yul\":1249:1266   */\n      add\n        /* \"#utility.yul\":1242:1289   */\n      mstore\n        /* \"#utility.yul\":1306:1384   */\n      tag_224\n        /* \"#utility.yul\":1379:1383   */\n      dup2\n        /* \"#utility.yul\":1370:1376   */\n      dup5\n        /* \"#utility.yul\":1306:1384   */\n      tag_176\n      jump\t// in\n    tag_224:\n        /* \"#utility.yul\":1298:1384   */\n      swap1\n      pop\n        /* \"#utility.yul\":1078:1391   */\n      swap3\n      swap2\n      pop\n      pop\n      jump\t// out\n        /* \"#utility.yul\":1397:1472   */\n    tag_177:\n        /* \"#utility.yul\":1430:1436   */\n      0x00\n        /* \"#utility.yul\":1463:1465   */\n      0x40\n        /* \"#utility.yul\":1457:1466   */\n      mload\n        /* \"#utility.yul\":1447:1466   */\n      swap1\n      pop\n        /* \"#utility.yul\":1397:1472   */\n      swap1\n      jump\t// out\n        /* \"#utility.yul\":1478:1595   */\n    tag_178:\n        /* \"#utility.yul\":1587:1588   */\n      0x00\n        /* \"#utility.yul\":1584:1585   */\n      dup1\n        /* \"#utility.yul\":1577:1589   */\n      revert\n        /* \"#utility.yul\":1601:1718   */\n    tag_179:\n        /* \"#utility.yul\":1710:1711   */\n      0x00\n        /* \"#utility.yul\":1707:1708   */\n      dup1\n        /* \"#utility.yul\":1700:1712   */\n      revert\n        /* \"#utility.yul\":1724:1841   */\n    tag_180:\n        /* \"#utility.yul\":1833:1834   */\n      0x00\n        /* \"#utility.yul\":1830:1831   */\n      dup1\n        /* \"#utility.yul\":1823:1835   */\n      revert\n        /* \"#utility.yul\":1847:1964   */\n    tag_181:\n        /* \"#utility.yul\":1956:1957   */\n      0x00\n        /* \"#utility.yul\":1953:1954   */\n      dup1\n        /* \"#utility.yul\":1946:1958   */\n      revert\n        /* \"#utility.yul\":1970:2150   */\n    tag_182:\n        /* \"#utility.yul\":2018:2095   */\n      0x4e487b7100000000000000000000000000000000000000000000000000000000\n        /* \"#utility.yul\":2015:2016   */\n      0x00\n        /* \"#utility.yul\":2008:2096   */\n      mstore\n        /* \"#utility.yul\":2115:2119   */\n      0x41\n        /* \"#utility.yul\":2112:2113   */\n      0x04\n        /* \"#utility.yul\":2105:2120   */\n      mstore\n        /* \"#utility.yul\":2139:2143   */\n      0x24\n        /* \"#utility.yul\":2136:2137   */\n      0x00\n        /* \"#utility.yul\":2129:2144   */\n      revert\n        /* \"#utility.yul\":2156:2437   */\n    tag_183:\n        /* \"#utility.yul\":2239:2266   */\n      tag_232\n        /* \"#utility.yul\":2261:2265   */\n      dup3\n        /* \"#utility.yul\":2239:2266   */\n      tag_175\n      jump\t// in\n    tag_232:\n        /* \"#utility.yul\":2231:2237   */\n      dup2\n        /* \"#utility.yul\":2227:2267   */\n      add\n        /* \"#utility.yul\":2369:2375   */\n      dup2\n        /* \"#utility.yul\":2357:2367   */\n      dup2\n        /* \"#utility.yul\":2354:2376   */\n      lt\n        /* \"#utility.yul\":2333:2351   */\n      0xffffffffffffffff\n        /* \"#utility.yul\":2321:2331   */\n      dup3\n        /* \"#utility.yul\":2318:2352   */\n      gt\n        /* \"#utility.yul\":2315:2377   */\n      or\n        /* \"#utility.yul\":2312:2400   */\n      iszero\n      tag_233\n      jumpi\n        /* \"#utility.yul\":2380:2398   */\n      tag_234\n      tag_182\n      jump\t// in\n    tag_234:\n        /* \"#utility.yul\":2312:2400   */\n    tag_233:\n        /* \"#utility.yul\":2420:2430   */\n      dup1\n        /* \"#utility.yul\":2416:2418   */\n      0x40\n        /* \"#utility.yul\":2409:2431   */\n      mstore\n        /* \"#utility.yul\":2199:2437   */\n      pop\n        /* \"#utility.yul\":2156:2437   */\n      pop\n      pop\n      jump\t// out\n        /* \"#utility.yul\":2443:2572   */\n    tag_184:\n        /* \"#utility.yul\":2477:2483   */\n      0x00\n        /* \"#utility.yul\":2504:2524   */\n      tag_236\n      tag_177\n      jump\t// in\n    tag_236:\n        /* \"#utility.yul\":2494:2524   */\n      swap1\n      pop\n        /* \"#utility.yul\":2533:2566   */\n      tag_237\n        /* \"#utility.yul\":2561:2565   */\n      dup3\n        /* \"#utility.yul\":2553:2559   */\n      dup3\n        /* \"#utility.yul\":2533:2566   */\n      tag_183\n      jump\t// in\n    tag_237:\n        /* \"#utility.yul\":2443:2572   */\n      swap2\n      swap1\n      pop\n      jump\t// out\n        /* \"#utility.yul\":2578:2886   */\n    tag_185:\n        /* \"#utility.yul\":2640:2644   */\n      0x00\n        /* \"#utility.yul\":2730:2748   */\n      0xffffffffffffffff\n        /* \"#utility.yul\":2722:2728   */\n      dup3\n        /* \"#utility.yul\":2719:2749   */\n      gt\n        /* \"#utility.yul\":2716:2772   */\n      iszero\n      tag_239\n      jumpi\n        /* \"#utility.yul\":2752:2770   */\n      tag_240\n      tag_182\n      jump\t// in\n    tag_240:\n        /* \"#utility.yul\":2716:2772   */\n    tag_239:\n        /* \"#utility.yul\":2790:2819   */\n      tag_241\n        /* \"#utility.yul\":2812:2818   */\n      dup3\n        /* \"#utility.yul\":2790:2819   */\n      tag_175\n      jump\t// in\n    tag_241:\n        /* \"#utility.yul\":2782:2819   */\n      swap1\n      pop\n        /* \"#utility.yul\":2874:2878   */\n      0x20\n        /* \"#utility.yul\":2868:2872   */\n      dup2\n        /* \"#utility.yul\":2864:2879   */\n      add\n        /* \"#utility.yul\":2856:2879   */\n      swap1\n      pop\n        /* \"#utility.yul\":2578:2886   */\n      swap2\n      swap1\n      pop\n      jump\t// out\n        /* \"#utility.yul\":2892:3046   */\n    tag_186:\n        /* \"#utility.yul\":2976:2982   */\n      dup3\n        /* \"#utility.yul\":2971:2974   */\n      dup2\n        /* \"#utility.yul\":2966:2969   */\n      dup4\n        /* \"#utility.yul\":2953:2983   */\n      calldatacopy\n        /* \"#utility.yul\":3038:3039   */\n      0x00\n        /* \"#utility.yul\":3029:3035   */\n      dup4\n        /* \"#utility.yul\":3024:3027   */\n      dup4\n        /* \"#utility.yul\":3020:3036   */\n      add\n        /* \"#utility.yul\":3013:3040   */\n      mstore\n        /* \"#utility.yul\":2892:3046   */\n      pop\n      pop\n      pop\n      jump\t// out\n        /* \"#utility.yul\":3052:3464   */\n    tag_187:\n        /* \"#utility.yul\":3130:3135   */\n      0x00\n        /* \"#utility.yul\":3155:3221   */\n      tag_244\n        /* \"#utility.yul\":3171:3220   */\n      tag_245\n        /* \"#utility.yul\":3213:3219   */\n      dup5\n        /* \"#utility.yul\":3171:3220   */\n      tag_185\n      jump\t// in\n    tag_245:\n        /* \"#utility.yul\":3155:3221   */\n      tag_184\n      jump\t// in\n    tag_244:\n        /* \"#utility.yul\":3146:3221   */\n      swap1\n      pop\n        /* \"#utility.yul\":3244:3250   */\n      dup3\n        /* \"#utility.yul\":3237:3242   */\n      dup2\n        /* \"#utility.yul\":3230:3251   */\n      mstore\n        /* \"#utility.yul\":3282:3286   */\n      0x20\n        /* \"#utility.yul\":3275:3280   */\n      dup2\n        /* \"#utility.yul\":3271:3287   */\n      add\n        /* \"#utility.yul\":3320:3323   */\n      dup5\n        /* \"#utility.yul\":3311:3317   */\n      dup5\n        /* \"#utility.yul\":3306:3309   */\n      dup5\n        /* \"#utility.yul\":3302:3318   */\n      add\n        /* \"#utility.yul\":3299:3324   */\n      gt\n        /* \"#utility.yul\":3296:3408   */\n      iszero\n      tag_246\n      jumpi\n        /* \"#utility.yul\":3327:3406   */\n      tag_247\n      tag_181\n      jump\t// in\n    tag_247:\n        /* \"#utility.yul\":3296:3408   */\n    tag_246:\n        /* \"#utility.yul\":3417:3458   */\n      tag_248\n        /* \"#utility.yul\":3451:3457   */\n      dup5\n        /* \"#utility.yul\":3446:3449   */\n      dup3\n        /* \"#utility.yul\":3441:3444   */\n      dup6\n        /* \"#utility.yul\":3417:3458   */\n      tag_186\n      jump\t// in\n    tag_248:\n        /* \"#utility.yul\":3136:3464   */\n      pop\n        /* \"#utility.yul\":3052:3464   */\n      swap4\n      swap3\n      pop\n      pop\n      pop\n      jump\t// out\n        /* \"#utility.yul\":3484:3824   */\n    tag_188:\n        /* \"#utility.yul\":3540:3545   */\n      0x00\n        /* \"#utility.yul\":3589:3592   */\n      dup3\n        /* \"#utility.yul\":3582:3586   */\n      0x1f\n        /* \"#utility.yul\":3574:3580   */\n      dup4\n        /* \"#utility.yul\":3570:3587   */\n      add\n        /* \"#utility.yul\":3566:3593   */\n      slt\n        /* \"#utility.yul\":3556:3678   */\n      tag_250\n      jumpi\n        /* \"#utility.yul\":3597:3676   */\n      tag_251\n      tag_180\n      jump\t// in\n    tag_251:\n        /* \"#utility.yul\":3556:3678   */\n    tag_250:\n        /* \"#utility.yul\":3714:3720   */\n      dup2\n        /* \"#utility.yul\":3701:3721   */\n      calldataload\n        /* \"#utility.yul\":3739:3818   */\n      tag_252\n        /* \"#utility.yul\":3814:3817   */\n      dup5\n        /* \"#utility.yul\":3806:3812   */\n      dup3\n        /* \"#utility.yul\":3799:3803   */\n      0x20\n        /* \"#utility.yul\":3791:3797   */\n      dup7\n        /* \"#utility.yul\":3787:3804   */\n      add\n        /* \"#utility.yul\":3739:3818   */\n      tag_187\n      jump\t// in\n    tag_252:\n        /* \"#utility.yul\":3730:3818   */\n      swap2\n      pop\n        /* \"#utility.yul\":3546:3824   */\n      pop\n        /* \"#utility.yul\":3484:3824   */\n      swap3\n      swap2\n      pop\n      pop\n      jump\t// out\n        /* \"#utility.yul\":3830:4339   */\n    tag_29:\n        /* \"#utility.yul\":3899:3905   */\n      0x00\n        /* \"#utility.yul\":3948:3950   */\n      0x20\n        /* \"#utility.yul\":3936:3945   */\n      dup3\n        /* \"#utility.yul\":3927:3934   */\n      dup5\n        /* \"#utility.yul\":3923:3946   */\n      sub\n        /* \"#utility.yul\":3919:3951   */\n      slt\n        /* \"#utility.yul\":3916:4035   */\n      iszero\n      tag_254\n      jumpi\n        /* \"#utility.yul\":3954:4033   */\n      tag_255\n      tag_178\n      jump\t// in\n    tag_255:\n        /* \"#utility.yul\":3916:4035   */\n    tag_254:\n        /* \"#utility.yul\":4102:4103   */\n      0x00\n        /* \"#utility.yul\":4091:4100   */\n      dup3\n        /* \"#utility.yul\":4087:4104   */\n      add\n        /* \"#utility.yul\":4074:4105   */\n      calldataload\n        /* \"#utility.yul\":4132:4150   */\n      0xffffffffffffffff\n        /* \"#utility.yul\":4124:4130   */\n      dup2\n        /* \"#utility.yul\":4121:4151   */\n      gt\n        /* \"#utility.yul\":4118:4235   */\n      iszero\n      tag_256\n      jumpi\n        /* \"#utility.yul\":4154:4233   */\n      tag_257\n      tag_179\n      jump\t// in\n    tag_257:\n        /* \"#utility.yul\":4118:4235   */\n    tag_256:\n        /* \"#utility.yul\":4259:4322   */\n      tag_258\n        /* \"#utility.yul\":4314:4321   */\n      dup5\n        /* \"#utility.yul\":4305:4311   */\n      dup3\n        /* \"#utility.yul\":4294:4303   */\n      dup6\n        /* \"#utility.yul\":4290:4312   */\n      add\n        /* \"#utility.yul\":4259:4322   */\n      tag_188\n      jump\t// in\n    tag_258:\n        /* \"#utility.yul\":4249:4322   */\n      swap2\n      pop\n        /* \"#utility.yul\":4045:4332   */\n      pop\n        /* \"#utility.yul\":3830:4339   */\n      swap3\n      swap2\n      pop\n      pop\n      jump\t// out\n        /* \"#utility.yul\":4345:4471   */\n    tag_189:\n        /* \"#utility.yul\":4382:4389   */\n      0x00\n        /* \"#utility.yul\":4422:4464   */\n      0xffffffffffffffffffffffffffffffffffffffff\n        /* \"#utility.yul\":4415:4420   */\n      dup3\n        /* \"#utility.yul\":4411:4465   */\n      and\n        /* \"#utility.yul\":4400:4465   */\n      swap1\n      pop\n        /* \"#utility.yul\":4345:4471   */\n      swap2\n      swap1\n      pop\n      jump\t// out\n        /* \"#utility.yul\":4477:4581   */\n    tag_190:\n        /* \"#utility.yul\":4522:4529   */\n      0x00\n        /* \"#utility.yul\":4551:4575   */\n      tag_261\n        /* \"#utility.yul\":4569:4574   */\n      dup3\n        /* \"#utility.yul\":4551:4575   */\n      tag_189\n      jump\t// in\n    tag_261:\n        /* \"#utility.yul\":4540:4575   */\n      swap1\n      pop\n        /* \"#utility.yul\":4477:4581   */\n      swap2\n      swap1\n      pop\n      jump\t// out\n        /* \"#utility.yul\":4587:4729   */\n    tag_191:\n        /* \"#utility.yul\":4690:4722   */\n      tag_263\n        /* \"#utility.yul\":4716:4721   */\n      dup2\n        /* \"#utility.yul\":4690:4722   */\n      tag_190\n      jump\t// in\n    tag_263:\n        /* \"#utility.yul\":4685:4688   */\n      dup3\n        /* \"#utility.yul\":4678:4723   */\n      mstore\n        /* \"#utility.yul\":4587:4729   */\n      pop\n      pop\n      jump\t// out\n        /* \"#utility.yul\":4735:4989   */\n    tag_34:\n        /* \"#utility.yul\":4844:4848   */\n      0x00\n        /* \"#utility.yul\":4882:4884   */\n      0x20\n        /* \"#utility.yul\":4871:4880   */\n      dup3\n        /* \"#utility.yul\":4867:4885   */\n      add\n        /* \"#utility.yul\":4859:4885   */\n      swap1\n      pop\n        /* \"#utility.yul\":4895:4982   */\n      tag_265\n        /* \"#utility.yul\":4979:4980   */\n      0x00\n        /* \"#utility.yul\":4968:4977   */\n      dup4\n        /* \"#utility.yul\":4964:4981   */\n      add\n        /* \"#utility.yul\":4955:4961   */\n      dup5\n        /* \"#utility.yul\":4895:4982   */\n      tag_191\n      jump\t// in\n    tag_265:\n        /* \"#utility.yul\":4735:4989   */\n      swap3\n      swap2\n      pop\n      pop\n      jump\t// out\n        /* \"#utility.yul\":4995:5119   */\n    tag_192:\n        /* \"#utility.yul\":5072:5078   */\n      0x00\n        /* \"#utility.yul\":5106:5111   */\n      dup2\n        /* \"#utility.yul\":5100:5112   */\n      mload\n        /* \"#utility.yul\":5090:5112   */\n      swap1\n      pop\n        /* \"#utility.yul\":4995:5119   */\n      swap2\n      swap1\n      pop\n      jump\t// out\n        /* \"#utility.yul\":5125:5319   */\n    tag_193:\n        /* \"#utility.yul\":5234:5245   */\n      0x00\n        /* \"#utility.yul\":5268:5274   */\n      dup3\n        /* \"#utility.yul\":5263:5266   */\n      dup3\n        /* \"#utility.yul\":5256:5275   */\n      mstore\n        /* \"#utility.yul\":5308:5312   */\n      0x20\n        /* \"#utility.yul\":5303:5306   */\n      dup3\n        /* \"#utility.yul\":5299:5313   */\n      add\n        /* \"#utility.yul\":5284:5313   */\n      swap1\n      pop\n        /* \"#utility.yul\":5125:5319   */\n      swap3\n      swap2\n      pop\n      pop\n      jump\t// out\n        /* \"#utility.yul\":5325:5467   */\n    tag_194:\n        /* \"#utility.yul\":5402:5406   */\n      0x00\n        /* \"#utility.yul\":5425:5428   */\n      dup2\n        /* \"#utility.yul\":5417:5428   */\n      swap1\n      pop\n        /* \"#utility.yul\":5455:5459   */\n      0x20\n        /* \"#utility.yul\":5450:5453   */\n      dup3\n        /* \"#utility.yul\":5446:5460   */\n      add\n        /* \"#utility.yul\":5438:5460   */\n      swap1\n      pop\n        /* \"#utility.yul\":5325:5467   */\n      swap2\n      swap1\n      pop\n      jump\t// out\n        /* \"#utility.yul\":5473:5632   */\n    tag_195:\n        /* \"#utility.yul\":5547:5558   */\n      0x00\n        /* \"#utility.yul\":5581:5587   */\n      dup3\n        /* \"#utility.yul\":5576:5579   */\n      dup3\n        /* \"#utility.yul\":5569:5588   */\n      mstore\n        /* \"#utility.yul\":5621:5625   */\n      0x20\n        /* \"#utility.yul\":5616:5619   */\n      dup3\n        /* \"#utility.yul\":5612:5626   */\n      add\n        /* \"#utility.yul\":5597:5626   */\n      swap1\n      pop\n        /* \"#utility.yul\":5473:5632   */\n      swap3\n      swap2\n      pop\n      pop\n      jump\t// out\n        /* \"#utility.yul\":5638:5982   */\n    tag_196:\n        /* \"#utility.yul\":5716:5719   */\n      0x00\n        /* \"#utility.yul\":5744:5783   */\n      tag_271\n        /* \"#utility.yul\":5777:5782   */\n      dup3\n        /* \"#utility.yul\":5744:5783   */\n      tag_172\n      jump\t// in\n    tag_271:\n        /* \"#utility.yul\":5799:5860   */\n      tag_272\n        /* \"#utility.yul\":5853:5859   */\n      dup2\n        /* \"#utility.yul\":5848:5851   */\n      dup6\n        /* \"#utility.yul\":5799:5860   */\n      tag_195\n      jump\t// in\n    tag_272:\n        /* \"#utility.yul\":5792:5860   */\n      swap4\n      pop\n        /* \"#utility.yul\":5869:5921   */\n      tag_273\n        /* \"#utility.yul\":5914:5920   */\n      dup2\n        /* \"#utility.yul\":5909:5912   */\n      dup6\n        /* \"#utility.yul\":5902:5906   */\n      0x20\n        /* \"#utility.yul\":5895:5900   */\n      dup7\n        /* \"#utility.yul\":5891:5907   */\n      add\n        /* \"#utility.yul\":5869:5921   */\n      tag_174\n      jump\t// in\n    tag_273:\n        /* \"#utility.yul\":5946:5975   */\n      tag_274\n        /* \"#utility.yul\":5968:5974   */\n      dup2\n        /* \"#utility.yul\":5946:5975   */\n      tag_175\n      jump\t// in\n    tag_274:\n        /* \"#utility.yul\":5941:5944   */\n      dup5\n        /* \"#utility.yul\":5937:5976   */\n      add\n        /* \"#utility.yul\":5930:5976   */\n      swap2\n      pop\n        /* \"#utility.yul\":5720:5982   */\n      pop\n        /* \"#utility.yul\":5638:5982   */\n      swap3\n      swap2\n      pop\n      pop\n      jump\t// out\n        /* \"#utility.yul\":5988:6184   */\n    tag_197:\n        /* \"#utility.yul\":6077:6087   */\n      0x00\n        /* \"#utility.yul\":6112:6178   */\n      tag_276\n        /* \"#utility.yul\":6174:6177   */\n      dup4\n        /* \"#utility.yul\":6166:6172   */\n      dup4\n        /* \"#utility.yul\":6112:6178   */\n      tag_196\n      jump\t// in\n    tag_276:\n        /* \"#utility.yul\":6098:6178   */\n      swap1\n      pop\n        /* \"#utility.yul\":5988:6184   */\n      swap3\n      swap2\n      pop\n      pop\n      jump\t// out\n        /* \"#utility.yul\":6190:6313   */\n    tag_198:\n        /* \"#utility.yul\":6270:6274   */\n      0x00\n        /* \"#utility.yul\":6302:6306   */\n      0x20\n        /* \"#utility.yul\":6297:6300   */\n      dup3\n        /* \"#utility.yul\":6293:6307   */\n      add\n        /* \"#utility.yul\":6285:6307   */\n      swap1\n      pop\n        /* \"#utility.yul\":6190:6313   */\n      swap2\n      swap1\n      pop\n      jump\t// out\n        /* \"#utility.yul\":6347:7338   */\n    tag_199:\n        /* \"#utility.yul\":6486:6489   */\n      0x00\n        /* \"#utility.yul\":6515:6579   */\n      tag_279\n        /* \"#utility.yul\":6573:6578   */\n      dup3\n        /* \"#utility.yul\":6515:6579   */\n      tag_192\n      jump\t// in\n    tag_279:\n        /* \"#utility.yul\":6595:6691   */\n      tag_280\n        /* \"#utility.yul\":6684:6690   */\n      dup2\n        /* \"#utility.yul\":6679:6682   */\n      dup6\n        /* \"#utility.yul\":6595:6691   */\n      tag_193\n      jump\t// in\n    tag_280:\n        /* \"#utility.yul\":6588:6691   */\n      swap4\n      pop\n        /* \"#utility.yul\":6717:6720   */\n      dup4\n        /* \"#utility.yul\":6762:6766   */\n      0x20\n        /* \"#utility.yul\":6754:6760   */\n      dup3\n        /* \"#utility.yul\":6750:6767   */\n      mul\n        /* \"#utility.yul\":6745:6748   */\n      dup6\n        /* \"#utility.yul\":6741:6768   */\n      add\n        /* \"#utility.yul\":6792:6858   */\n      tag_281\n        /* \"#utility.yul\":6852:6857   */\n      dup6\n        /* \"#utility.yul\":6792:6858   */\n      tag_194\n      jump\t// in\n    tag_281:\n        /* \"#utility.yul\":6881:6888   */\n      dup1\n        /* \"#utility.yul\":6912:6913   */\n      0x00\n        /* \"#utility.yul\":6897:7293   */\n    tag_282:\n        /* \"#utility.yul\":6922:6928   */\n      dup6\n        /* \"#utility.yul\":6919:6920   */\n      dup2\n        /* \"#utility.yul\":6916:6929   */\n      lt\n        /* \"#utility.yul\":6897:7293   */\n      iszero\n      tag_284\n      jumpi\n        /* \"#utility.yul\":6993:7002   */\n      dup5\n        /* \"#utility.yul\":6987:6991   */\n      dup5\n        /* \"#utility.yul\":6983:7003   */\n      sub\n        /* \"#utility.yul\":6978:6981   */\n      dup10\n        /* \"#utility.yul\":6971:7004   */\n      mstore\n        /* \"#utility.yul\":7044:7050   */\n      dup2\n        /* \"#utility.yul\":7038:7051   */\n      mload\n        /* \"#utility.yul\":7072:7156   */\n      tag_285\n        /* \"#utility.yul\":7151:7155   */\n      dup6\n        /* \"#utility.yul\":7136:7149   */\n      dup3\n        /* \"#utility.yul\":7072:7156   */\n      tag_197\n      jump\t// in\n    tag_285:\n        /* \"#utility.yul\":7064:7156   */\n      swap5\n      pop\n        /* \"#utility.yul\":7179:7249   */\n      tag_286\n        /* \"#utility.yul\":7242:7248   */\n      dup4\n        /* \"#utility.yul\":7179:7249   */\n      tag_198\n      jump\t// in\n    tag_286:\n        /* \"#utility.yul\":7169:7249   */\n      swap3\n      pop\n        /* \"#utility.yul\":7278:7282   */\n      0x20\n        /* \"#utility.yul\":7273:7276   */\n      dup11\n        /* \"#utility.yul\":7269:7283   */\n      add\n        /* \"#utility.yul\":7262:7283   */\n      swap10\n      pop\n        /* \"#utility.yul\":6957:7293   */\n      pop\n        /* \"#utility.yul\":6944:6945   */\n      0x01\n        /* \"#utility.yul\":6941:6942   */\n      dup2\n        /* \"#utility.yul\":6937:6946   */\n      add\n        /* \"#utility.yul\":6932:6946   */\n      swap1\n      pop\n        /* \"#utility.yul\":6897:7293   */\n      jump(tag_282)\n    tag_284:\n        /* \"#utility.yul\":6901:6915   */\n      pop\n        /* \"#utility.yul\":7309:7313   */\n      dup3\n        /* \"#utility.yul\":7302:7313   */\n      swap8\n      pop\n        /* \"#utility.yul\":7329:7332   */\n      dup8\n        /* \"#utility.yul\":7322:7332   */\n      swap6\n      pop\n        /* \"#utility.yul\":6491:7338   */\n      pop\n      pop\n      pop\n      pop\n      pop\n        /* \"#utility.yul\":6347:7338   */\n      swap3\n      swap2\n      pop\n      pop\n      jump\t// out\n        /* \"#utility.yul\":7344:7434   */\n    tag_200:\n        /* \"#utility.yul\":7378:7385   */\n      0x00\n        /* \"#utility.yul\":7421:7426   */\n      dup2\n        /* \"#utility.yul\":7414:7427   */\n      iszero\n        /* \"#utility.yul\":7407:7428   */\n      iszero\n        /* \"#utility.yul\":7396:7428   */\n      swap1\n      pop\n        /* \"#utility.yul\":7344:7434   */\n      swap2\n      swap1\n      pop\n      jump\t// out\n        /* \"#utility.yul\":7440:7549   */\n    tag_201:\n        /* \"#utility.yul\":7521:7542   */\n      tag_289\n        /* \"#utility.yul\":7536:7541   */\n      dup2\n        /* \"#utility.yul\":7521:7542   */\n      tag_200\n      jump\t// in\n    tag_289:\n        /* \"#utility.yul\":7516:7519   */\n      dup3\n        /* \"#utility.yul\":7509:7543   */\n      mstore\n        /* \"#utility.yul\":7440:7549   */\n      pop\n      pop\n      jump\t// out\n        /* \"#utility.yul\":7555:8957   */\n    tag_41:\n        /* \"#utility.yul\":7972:7976   */\n      0x00\n        /* \"#utility.yul\":8010:8013   */\n      0xe0\n        /* \"#utility.yul\":7999:8008   */\n      dup3\n        /* \"#utility.yul\":7995:8014   */\n      add\n        /* \"#utility.yul\":7987:8014   */\n      swap1\n      pop\n        /* \"#utility.yul\":8024:8111   */\n      tag_291\n        /* \"#utility.yul\":8108:8109   */\n      0x00\n        /* \"#utility.yul\":8097:8106   */\n      dup4\n        /* \"#utility.yul\":8093:8110   */\n      add\n        /* \"#utility.yul\":8084:8090   */\n      dup11\n        /* \"#utility.yul\":8024:8111   */\n      tag_191\n      jump\t// in\n    tag_291:\n        /* \"#utility.yul\":8158:8167   */\n      dup2\n        /* \"#utility.yul\":8152:8156   */\n      dup2\n        /* \"#utility.yul\":8148:8168   */\n      sub\n        /* \"#utility.yul\":8143:8145   */\n      0x20\n        /* \"#utility.yul\":8132:8141   */\n      dup4\n        /* \"#utility.yul\":8128:8146   */\n      add\n        /* \"#utility.yul\":8121:8169   */\n      mstore\n        /* \"#utility.yul\":8186:8264   */\n      tag_292\n        /* \"#utility.yul\":8259:8263   */\n      dup2\n        /* \"#utility.yul\":8250:8256   */\n      dup10\n        /* \"#utility.yul\":8186:8264   */\n      tag_176\n      jump\t// in\n    tag_292:\n        /* \"#utility.yul\":8178:8264   */\n      swap1\n      pop\n        /* \"#utility.yul\":8311:8320   */\n      dup2\n        /* \"#utility.yul\":8305:8309   */\n      dup2\n        /* \"#utility.yul\":8301:8321   */\n      sub\n        /* \"#utility.yul\":8296:8298   */\n      0x40\n        /* \"#utility.yul\":8285:8294   */\n      dup4\n        /* \"#utility.yul\":8281:8299   */\n      add\n        /* \"#utility.yul\":8274:8322   */\n      mstore\n        /* \"#utility.yul\":8339:8467   */\n      tag_293\n        /* \"#utility.yul\":8462:8466   */\n      dup2\n        /* \"#utility.yul\":8453:8459   */\n      dup9\n        /* \"#utility.yul\":8339:8467   */\n      tag_199\n      jump\t// in\n    tag_293:\n        /* \"#utility.yul\":8331:8467   */\n      swap1\n      pop\n        /* \"#utility.yul\":8514:8523   */\n      dup2\n        /* \"#utility.yul\":8508:8512   */\n      dup2\n        /* \"#utility.yul\":8504:8524   */\n      sub\n        /* \"#utility.yul\":8499:8501   */\n      0x60\n        /* \"#utility.yul\":8488:8497   */\n      dup4\n        /* \"#utility.yul\":8484:8502   */\n      add\n        /* \"#utility.yul\":8477:8525   */\n      mstore\n        /* \"#utility.yul\":8542:8620   */\n      tag_294\n        /* \"#utility.yul\":8615:8619   */\n      dup2\n        /* \"#utility.yul\":8606:8612   */\n      dup8\n        /* \"#utility.yul\":8542:8620   */\n      tag_176\n      jump\t// in\n    tag_294:\n        /* \"#utility.yul\":8534:8620   */\n      swap1\n      pop\n        /* \"#utility.yul\":8668:8677   */\n      dup2\n        /* \"#utility.yul\":8662:8666   */\n      dup2\n        /* \"#utility.yul\":8658:8678   */\n      sub\n        /* \"#utility.yul\":8652:8655   */\n      0x80\n        /* \"#utility.yul\":8641:8650   */\n      dup4\n        /* \"#utility.yul\":8637:8656   */\n      add\n        /* \"#utility.yul\":8630:8679   */\n      mstore\n        /* \"#utility.yul\":8696:8774   */\n      tag_295\n        /* \"#utility.yul\":8769:8773   */\n      dup2\n        /* \"#utility.yul\":8760:8766   */\n      dup7\n        /* \"#utility.yul\":8696:8774   */\n      tag_176\n      jump\t// in\n    tag_295:\n        /* \"#utility.yul\":8688:8774   */\n      swap1\n      pop\n        /* \"#utility.yul\":8784:8873   */\n      tag_296\n        /* \"#utility.yul\":8868:8871   */\n      0xa0\n        /* \"#utility.yul\":8857:8866   */\n      dup4\n        /* \"#utility.yul\":8853:8872   */\n      add\n        /* \"#utility.yul\":8844:8850   */\n      dup6\n        /* \"#utility.yul\":8784:8873   */\n      tag_191\n      jump\t// in\n    tag_296:\n        /* \"#utility.yul\":8883:8950   */\n      tag_297\n        /* \"#utility.yul\":8945:8948   */\n      0xc0\n        /* \"#utility.yul\":8934:8943   */\n      dup4\n        /* \"#utility.yul\":8930:8949   */\n      add\n        /* \"#utility.yul\":8921:8927   */\n      dup5\n        /* \"#utility.yul\":8883:8950   */\n      tag_201\n      jump\t// in\n    tag_297:\n        /* \"#utility.yul\":7555:8957   */\n      swap9\n      swap8\n      pop\n      pop\n      pop\n      pop\n      pop\n      pop\n      pop\n      pop\n      jump\t// out\n        /* \"#utility.yul\":8963:9376   */\n    tag_45:\n        /* \"#utility.yul\":9126:9130   */\n      0x00\n        /* \"#utility.yul\":9164:9166   */\n      0x20\n        /* \"#utility.yul\":9153:9162   */\n      dup3\n        /* \"#utility.yul\":9149:9167   */\n      add\n        /* \"#utility.yul\":9141:9167   */\n      swap1\n      pop\n        /* \"#utility.yul\":9213:9222   */\n      dup2\n        /* \"#utility.yul\":9207:9211   */\n      dup2\n        /* \"#utility.yul\":9203:9223   */\n      sub\n        /* \"#utility.yul\":9199:9200   */\n      0x00\n        /* \"#utility.yul\":9188:9197   */\n      dup4\n        /* \"#utility.yul\":9184:9201   */\n      add\n        /* \"#utility.yul\":9177:9224   */\n      mstore\n        /* \"#utility.yul\":9241:9369   */\n      tag_299\n        /* \"#utility.yul\":9364:9368   */\n      dup2\n        /* \"#utility.yul\":9355:9361   */\n      dup5\n        /* \"#utility.yul\":9241:9369   */\n      tag_199\n      jump\t// in\n    tag_299:\n        /* \"#utility.yul\":9233:9369   */\n      swap1\n      pop\n        /* \"#utility.yul\":8963:9376   */\n      swap3\n      swap2\n      pop\n      pop\n      jump\t// out\n        /* \"#utility.yul\":9382:9478   */\n    tag_202:\n        /* \"#utility.yul\":9419:9426   */\n      0x00\n        /* \"#utility.yul\":9448:9472   */\n      tag_301\n        /* \"#utility.yul\":9466:9471   */\n      dup3\n        /* \"#utility.yul\":9448:9472   */\n      tag_189\n      jump\t// in\n    tag_301:\n        /* \"#utility.yul\":9437:9472   */\n      swap1\n      pop\n        /* \"#utility.yul\":9382:9478   */\n      swap2\n      swap1\n      pop\n      jump\t// out\n        /* \"#utility.yul\":9484:9606   */\n    tag_203:\n        /* \"#utility.yul\":9557:9581   */\n      tag_303\n        /* \"#utility.yul\":9575:9580   */\n      dup2\n        /* \"#utility.yul\":9557:9581   */\n      tag_202\n      jump\t// in\n    tag_303:\n        /* \"#utility.yul\":9550:9555   */\n      dup2\n        /* \"#utility.yul\":9547:9582   */\n      eq\n        /* \"#utility.yul\":9537:9600   */\n      tag_304\n      jumpi\n        /* \"#utility.yul\":9596:9597   */\n      0x00\n        /* \"#utility.yul\":9593:9594   */\n      dup1\n        /* \"#utility.yul\":9586:9598   */\n      revert\n        /* \"#utility.yul\":9537:9600   */\n    tag_304:\n        /* \"#utility.yul\":9484:9606   */\n      pop\n      jump\t// out\n        /* \"#utility.yul\":9612:9751   */\n    tag_204:\n        /* \"#utility.yul\":9658:9663   */\n      0x00\n        /* \"#utility.yul\":9696:9702   */\n      dup2\n        /* \"#utility.yul\":9683:9703   */\n      calldataload\n        /* \"#utility.yul\":9674:9703   */\n      swap1\n      pop\n        /* \"#utility.yul\":9712:9745   */\n      tag_306\n        /* \"#utility.yul\":9739:9744   */\n      dup2\n        /* \"#utility.yul\":9712:9745   */\n      tag_203\n      jump\t// in\n    tag_306:\n        /* \"#utility.yul\":9612:9751   */\n      swap3\n      swap2\n      pop\n      pop\n      jump\t// out\n        /* \"#utility.yul\":9757:10086   */\n    tag_48:\n        /* \"#utility.yul\":9816:9822   */\n      0x00\n        /* \"#utility.yul\":9865:9867   */\n      0x20\n        /* \"#utility.yul\":9853:9862   */\n      dup3\n        /* \"#utility.yul\":9844:9851   */\n      dup5\n        /* \"#utility.yul\":9840:9863   */\n      sub\n        /* \"#utility.yul\":9836:9868   */\n      slt\n        /* \"#utility.yul\":9833:9952   */\n      iszero\n      tag_308\n      jumpi\n        /* \"#utility.yul\":9871:9950   */\n      tag_309\n      tag_178\n      jump\t// in\n    tag_309:\n        /* \"#utility.yul\":9833:9952   */\n    tag_308:\n        /* \"#utility.yul\":9991:9992   */\n      0x00\n        /* \"#utility.yul\":10016:10069   */\n      tag_310\n        /* \"#utility.yul\":10061:10068   */\n      dup5\n        /* \"#utility.yul\":10052:10058   */\n      dup3\n        /* \"#utility.yul\":10041:10050   */\n      dup6\n        /* \"#utility.yul\":10037:10059   */\n      add\n        /* \"#utility.yul\":10016:10069   */\n      tag_204\n      jump\t// in\n    tag_310:\n        /* \"#utility.yul\":10006:10069   */\n      swap2\n      pop\n        /* \"#utility.yul\":9962:10079   */\n      pop\n        /* \"#utility.yul\":9757:10086   */\n      swap3\n      swap2\n      pop\n      pop\n      jump\t// out\n        /* \"#utility.yul\":10092:10169   */\n    tag_205:\n        /* \"#utility.yul\":10129:10136   */\n      0x00\n        /* \"#utility.yul\":10158:10163   */\n      dup2\n        /* \"#utility.yul\":10147:10163   */\n      swap1\n      pop\n        /* \"#utility.yul\":10092:10169   */\n      swap2\n      swap1\n      pop\n      jump\t// out\n        /* \"#utility.yul\":10175:10297   */\n    tag_206:\n        /* \"#utility.yul\":10248:10272   */\n      tag_313\n        /* \"#utility.yul\":10266:10271   */\n      dup2\n        /* \"#utility.yul\":10248:10272   */\n      tag_205\n      jump\t// in\n    tag_313:\n        /* \"#utility.yul\":10241:10246   */\n      dup2\n        /* \"#utility.yul\":10238:10273   */\n      eq\n        /* \"#utility.yul\":10228:10291   */\n      tag_314\n      jumpi\n        /* \"#utility.yul\":10287:10288   */\n      0x00\n        /* \"#utility.yul\":10284:10285   */\n      dup1\n        /* \"#utility.yul\":10277:10289   */\n      revert\n        /* \"#utility.yul\":10228:10291   */\n    tag_314:\n        /* \"#utility.yul\":10175:10297   */\n      pop\n      jump\t// out\n        /* \"#utility.yul\":10303:10442   */\n    tag_207:\n        /* \"#utility.yul\":10349:10354   */\n      0x00\n        /* \"#utility.yul\":10387:10393   */\n      dup2\n        /* \"#utility.yul\":10374:10394   */\n      calldataload\n        /* \"#utility.yul\":10365:10394   */\n      swap1\n      pop\n        /* \"#utility.yul\":10403:10436   */\n      tag_316\n        /* \"#utility.yul\":10430:10435   */\n      dup2\n        /* \"#utility.yul\":10403:10436   */\n      tag_206\n      jump\t// in\n    tag_316:\n        /* \"#utility.yul\":10303:10442   */\n      swap3\n      swap2\n      pop\n      pop\n      jump\t// out\n        /* \"#utility.yul\":10448:10777   */\n    tag_52:\n        /* \"#utility.yul\":10507:10513   */\n      0x00\n        /* \"#utility.yul\":10556:10558   */\n      0x20\n        /* \"#utility.yul\":10544:10553   */\n      dup3\n        /* \"#utility.yul\":10535:10542   */\n      dup5\n        /* \"#utility.yul\":10531:10554   */\n      sub\n        /* \"#utility.yul\":10527:10559   */\n      slt\n        /* \"#utility.yul\":10524:10643   */\n      iszero\n      tag_318\n      jumpi\n        /* \"#utility.yul\":10562:10641   */\n      tag_319\n      tag_178\n      jump\t// in\n    tag_319:\n        /* \"#utility.yul\":10524:10643   */\n    tag_318:\n        /* \"#utility.yul\":10682:10683   */\n      0x00\n        /* \"#utility.yul\":10707:10760   */\n      tag_320\n        /* \"#utility.yul\":10752:10759   */\n      dup5\n        /* \"#utility.yul\":10743:10749   */\n      dup3\n        /* \"#utility.yul\":10732:10741   */\n      dup6\n        /* \"#utility.yul\":10728:10750   */\n      add\n        /* \"#utility.yul\":10707:10760   */\n      tag_207\n      jump\t// in\n    tag_320:\n        /* \"#utility.yul\":10697:10760   */\n      swap2\n      pop\n        /* \"#utility.yul\":10653:10770   */\n      pop\n        /* \"#utility.yul\":10448:10777   */\n      swap3\n      swap2\n      pop\n      pop\n      jump\t// out\n        /* \"#utility.yul\":10783:11194   */\n    tag_59:\n        /* \"#utility.yul\":10918:10922   */\n      0x00\n        /* \"#utility.yul\":10956:10958   */\n      0x40\n        /* \"#utility.yul\":10945:10954   */\n      dup3\n        /* \"#utility.yul\":10941:10959   */\n      add\n        /* \"#utility.yul\":10933:10959   */\n      swap1\n      pop\n        /* \"#utility.yul\":11005:11014   */\n      dup2\n        /* \"#utility.yul\":10999:11003   */\n      dup2\n        /* \"#utility.yul\":10995:11015   */\n      sub\n        /* \"#utility.yul\":10991:10992   */\n      0x00\n        /* \"#utility.yul\":10980:10989   */\n      dup4\n        /* \"#utility.yul\":10976:10993   */\n      add\n        /* \"#utility.yul\":10969:11016   */\n      mstore\n        /* \"#utility.yul\":11033:11111   */\n      tag_322\n        /* \"#utility.yul\":11106:11110   */\n      dup2\n        /* \"#utility.yul\":11097:11103   */\n      dup6\n        /* \"#utility.yul\":11033:11111   */\n      tag_176\n      jump\t// in\n    tag_322:\n        /* \"#utility.yul\":11025:11111   */\n      swap1\n      pop\n        /* \"#utility.yul\":11121:11187   */\n      tag_323\n        /* \"#utility.yul\":11183:11185   */\n      0x20\n        /* \"#utility.yul\":11172:11181   */\n      dup4\n        /* \"#utility.yul\":11168:11186   */\n      add\n        /* \"#utility.yul\":11159:11165   */\n      dup5\n        /* \"#utility.yul\":11121:11187   */\n      tag_201\n      jump\t// in\n    tag_323:\n        /* \"#utility.yul\":10783:11194   */\n      swap4\n      swap3\n      pop\n      pop\n      pop\n      jump\t// out\n        /* \"#utility.yul\":11200:11410   */\n    tag_72:\n        /* \"#utility.yul\":11287:11291   */\n      0x00\n        /* \"#utility.yul\":11325:11327   */\n      0x20\n        /* \"#utility.yul\":11314:11323   */\n      dup3\n        /* \"#utility.yul\":11310:11328   */\n      add\n        /* \"#utility.yul\":11302:11328   */\n      swap1\n      pop\n        /* \"#utility.yul\":11338:11403   */\n      tag_325\n        /* \"#utility.yul\":11400:11401   */\n      0x00\n        /* \"#utility.yul\":11389:11398   */\n      dup4\n        /* \"#utility.yul\":11385:11402   */\n      add\n        /* \"#utility.yul\":11376:11382   */\n      dup5\n        /* \"#utility.yul\":11338:11403   */\n      tag_201\n      jump\t// in\n    tag_325:\n        /* \"#utility.yul\":11200:11410   */\n      swap3\n      swap2\n      pop\n      pop\n      jump\t// out\n        /* \"#utility.yul\":11416:11596   */\n    tag_208:\n        /* \"#utility.yul\":11464:11541   */\n      0x4e487b7100000000000000000000000000000000000000000000000000000000\n        /* \"#utility.yul\":11461:11462   */\n      0x00\n        /* \"#utility.yul\":11454:11542   */\n      mstore\n        /* \"#utility.yul\":11561:11565   */\n      0x22\n        /* \"#utility.yul\":11558:11559   */\n      0x04\n        /* \"#utility.yul\":11551:11566   */\n      mstore\n        /* \"#utility.yul\":11585:11589   */\n      0x24\n        /* \"#utility.yul\":11582:11583   */\n      0x00\n        /* \"#utility.yul\":11575:11590   */\n      revert\n        /* \"#utility.yul\":11602:11922   */\n    tag_77:\n        /* \"#utility.yul\":11646:11652   */\n      0x00\n        /* \"#utility.yul\":11683:11684   */\n      0x02\n        /* \"#utility.yul\":11677:11681   */\n      dup3\n        /* \"#utility.yul\":11673:11685   */\n      div\n        /* \"#utility.yul\":11663:11685   */\n      swap1\n      pop\n        /* \"#utility.yul\":11730:11731   */\n      0x01\n        /* \"#utility.yul\":11724:11728   */\n      dup3\n        /* \"#utility.yul\":11720:11732   */\n      and\n        /* \"#utility.yul\":11751:11769   */\n      dup1\n        /* \"#utility.yul\":11741:11822   */\n      tag_328\n      jumpi\n        /* \"#utility.yul\":11807:11811   */\n      0x7f\n        /* \"#utility.yul\":11799:11805   */\n      dup3\n        /* \"#utility.yul\":11795:11812   */\n      and\n        /* \"#utility.yul\":11785:11812   */\n      swap2\n      pop\n        /* \"#utility.yul\":11741:11822   */\n    tag_328:\n        /* \"#utility.yul\":11869:11871   */\n      0x20\n        /* \"#utility.yul\":11861:11867   */\n      dup3\n        /* \"#utility.yul\":11858:11872   */\n      lt\n        /* \"#utility.yul\":11838:11856   */\n      dup2\n        /* \"#utility.yul\":11835:11873   */\n      sub\n        /* \"#utility.yul\":11832:11916   */\n      tag_329\n      jumpi\n        /* \"#utility.yul\":11888:11906   */\n      tag_330\n      tag_208\n      jump\t// in\n    tag_330:\n        /* \"#utility.yul\":11832:11916   */\n    tag_329:\n        /* \"#utility.yul\":11653:11922   */\n      pop\n        /* \"#utility.yul\":11602:11922   */\n      swap2\n      swap1\n      pop\n      jump\t// out\n\n    auxdata: 0xa264697066735822122052547426c5f80d42f18ad038598e0871db7c17213d8e0615db79156bbe553e6f64736f6c634300080e0033\n}\n","bytecode":{"linkReferences":{},"object":"608060405260405162001c4538038062001c45833981810160405281019062000029919062000590565b806000806101000a81548173ffffffffffffffffffffffffffffffffffffffff021916908373ffffffffffffffffffffffffffffffffffffffff1602179055508360019080519060200190620000819291906200010d565b5085600290805190602001906200009a9291906200010d565b508260039080519060200190620000b39291906200019e565b508460049080519060200190620000cc9291906200010d565b508160059080519060200190620000e59291906200019e565b506000600660146101000a81548160ff0219169083151502179055505050505050506200072b565b8280546200011b90620006f6565b90600052602060002090601f0160209004810192826200013f57600085556200018b565b82601f106200015a57805160ff19168380011785556200018b565b828001600101855582156200018b579182015b828111156200018a5782518255916020019190600101906200016d565b5b5090506200019a919062000205565b5090565b828054828255906000526020600020908101928215620001f2579160200282015b82811115620001f1578251829080519060200190620001e09291906200010d565b5091602001919060010190620001bf565b5b50905062000201919062000224565b5090565b5b808211156200022057600081600090555060010162000206565b5090565b5b808211156200024857600081816200023e91906200024c565b5060010162000225565b5090565b5080546200025a90620006f6565b6000825580601f106200026e57506200028f565b601f0160209004906000526020600020908101906200028e919062000205565b5b50565b6000604051905090565b600080fd5b600080fd5b600080fd5b600080fd5b6000601f19601f8301169050919050565b7f4e487b7100000000000000000000000000000000000000000000000000000000600052604160045260246000fd5b620002fb82620002b0565b810181811067ffffffffffffffff821117156200031d576200031c620002c1565b5b80604052505050565b60006200033262000292565b9050620003408282620002f0565b919050565b600067ffffffffffffffff821115620003635762000362620002c1565b5b6200036e82620002b0565b9050602081019050919050565b60005b838110156200039b5780820151818401526020810190506200037e565b83811115620003ab576000848401525b50505050565b6000620003c8620003c28462000345565b62000326565b905082815260208101848484011115620003e757620003e6620002ab565b5b620003f48482856200037b565b509392505050565b600082601f830112620004145762000413620002a6565b5b815162000426848260208601620003b1565b91505092915050565b600067ffffffffffffffff8211156200044d576200044c620002c1565b5b602082029050602081019050919050565b600080fd5b60006200047a62000474846200042f565b62000326565b90508083825260208201905060208402830185811115620004a0576200049f6200045e565b5b835b81811015620004ee57805167ffffffffffffffff811115620004c957620004c8620002a6565b5b808601620004d88982620003fc565b85526020850194505050602081019050620004a2565b5050509392505050565b600082601f83011262000510576200050f620002a6565b5b81516200052284826020860162000463565b91505092915050565b600073ffffffffffffffffffffffffffffffffffffffff82169050919050565b600062000558826200052b565b9050919050565b6200056a816200054b565b81146200057657600080fd5b50565b6000815190506200058a816200055f565b92915050565b60008060008060008060c08789031215620005b057620005af6200029c565b5b600087015167ffffffffffffffff811115620005d157620005d0620002a1565b5b620005df89828a01620003fc565b965050602087015167ffffffffffffffff811115620006035762000602620002a1565b5b6200061189828a01620003fc565b955050604087015167ffffffffffffffff811115620006355762000634620002a1565b5b6200064389828a01620003fc565b945050606087015167ffffffffffffffff811115620006675762000666620002a1565b5b6200067589828a01620004f8565b935050608087015167ffffffffffffffff811115620006995762000698620002a1565b5b620006a789828a01620004f8565b92505060a0620006ba89828a0162000579565b9150509295509295509295565b7f4e487b7100000000000000000000000000000000000000000000000000000000600052602260045260246000fd5b600060028204905060018216806200070f57607f821691505b602082108103620007255762000724620006c7565b5b50919050565b61150a806200073b6000396000f3fe608060405234801561001057600080fd5b50600436106100f45760003560e01c80635f51c76511610097578063af84a01311610066578063af84a01314610242578063dea4e33914610272578063fa391c6414610290578063fbc03a1e146102ae576100f4565b80635f51c765146101bb57806371096387146101d757806374adad1d14610207578063a20fca5a14610238576100f4565b8063481c6a75116100d3578063481c6a751461013d5780634d547ada1461015b5780635a9b0b89146101795780635e1c73221461019d576100f4565b80621aea77146100f9578063231e407a1461011757806331c3a6f514610121575b600080fd5b6101016102cc565b60405161010e9190610f77565b60405180910390f35b61011f61035a565b005b61013b600480360381019061013691906110e2565b610476565b005b610145610510565b604051610152919061116c565b60405180910390f35b610163610534565b604051610170919061116c565b60405180910390f35b61018161055a565b60405161019497969594939291906112ae565b60405180910390f35b6101a561084f565b6040516101b29190611339565b60405180910390f35b6101d560048036038101906101d09190611399565b610928565b005b6101f160048036038101906101ec91906113fc565b610a1d565b6040516101fe9190610f77565b60405180910390f35b610221600480360381019061021c9190611399565b610ac9565b60405161022f929190611429565b60405180910390f35b610240610b82565b005b61025c600480360381019061025791906113fc565b610c60565b6040516102699190610f77565b60405180910390f35b61027a610d0c565b6040516102879190610f77565b60405180910390f35b610298610d9a565b6040516102a59190611459565b60405180910390f35b6102b6610dad565b6040516102c39190610f77565b60405180910390f35b600280546102d9906114a3565b80601f0160208091040260200160405190810160405280929190818152602001828054610305906114a3565b80156103525780601f1061032757610100808354040283529160200191610352565b820191906000526020600020905b81548152906001019060200180831161033557829003601f168201915b505050505081565b60008054906101000a900473ffffffffffffffffffffffffffffffffffffffff1673ffffffffffffffffffffffffffffffffffffffff163373ffffffffffffffffffffffffffffffffffffffff16146103b257600080fd5b600073ffffffffffffffffffffffffffffffffffffffff16600660009054906101000a900473ffffffffffffffffffffffffffffffffffffffff1673ffffffffffffffffffffffffffffffffffffffff161461040d57600080fd5b60008054906101000a900473ffffffffffffffffffffffffffffffffffffffff1673ffffffffffffffffffffffffffffffffffffffff166108fc479081150290604051600060405180830381858888f19350505050158015610473573d6000803e3d6000fd5b50565b604051806040016040528082815260200160011515815250600760003373ffffffffffffffffffffffffffffffffffffffff1673ffffffffffffffffffffffffffffffffffffffff16815260200190815260200160002060008201518160000190805190602001906104e9929190610e3b565b5060208201518160010160006101000a81548160ff02191690831515021790555090505050565b60008054906101000a900473ffffffffffffffffffffffffffffffffffffffff1681565b600660009054906101000a900473ffffffffffffffffffffffffffffffffffffffff1681565b600060608060608060008060008054906101000a900473ffffffffffffffffffffffffffffffffffffffff166002600360046001600660009054906101000a900473ffffffffffffffffffffffffffffffffffffffff16600660149054906101000a900460ff168580546105cd906114a3565b80601f01602080910402602001604051908101604052809291908181526020018280546105f9906114a3565b80156106465780601f1061061b57610100808354040283529160200191610646565b820191906000526020600020905b81548152906001019060200180831161062957829003601f168201915b5050505050955084805480602002602001604051908101604052809291908181526020016000905b8282101561071a57838290600052602060002001805461068d906114a3565b80601f01602080910402602001604051908101604052809291908181526020018280546106b9906114a3565b80156107065780601f106106db57610100808354040283529160200191610706565b820191906000526020600020905b8154815290600101906020018083116106e957829003601f168201915b50505050508152602001906001019061066e565b50505050945083805461072c906114a3565b80601f0160208091040260200160405190810160405280929190818152602001828054610758906114a3565b80156107a55780601f1061077a576101008083540402835291602001916107a5565b820191906000526020600020905b81548152906001019060200180831161078857829003601f168201915b505050505093508280546107b8906114a3565b80601f01602080910402602001604051908101604052809291908181526020018280546107e4906114a3565b80156108315780601f1061080657610100808354040283529160200191610831565b820191906000526020600020905b81548152906001019060200180831161081457829003601f168201915b50505050509250965096509650965096509650965090919293949596565b60606005805480602002602001604051908101604052809291908181526020016000905b8282101561091f578382906000526020600020018054610892906114a3565b80601f01602080910402602001604051908101604052809291908181526020018280546108be906114a3565b801561090b5780601f106108e05761010080835404028352916020019161090b565b820191906000526020600020905b8154815290600101906020018083116108ee57829003601f168201915b505050505081526020019060010190610873565b50505050905090565b60008054906101000a900473ffffffffffffffffffffffffffffffffffffffff1673ffffffffffffffffffffffffffffffffffffffff163373ffffffffffffffffffffffffffffffffffffffff161461098057600080fd5b600760008273ffffffffffffffffffffffffffffffffffffffff1673ffffffffffffffffffffffffffffffffffffffff16815260200190815260200160002060010160009054906101000a900460ff166109d957600080fd5b80600660006101000a81548173ffffffffffffffffffffffffffffffffffffffff021916908373ffffffffffffffffffffffffffffffffffffffff16021790555050565b60038181548110610a2d57600080fd5b906000526020600020016000915090508054610a48906114a3565b80601f0160208091040260200160405190810160405280929190818152602001828054610a74906114a3565b8015610ac15780601f10610a9657610100808354040283529160200191610ac1565b820191906000526020600020905b815481529060010190602001808311610aa457829003601f168201915b505050505081565b6007602052806000526040600020600091509050806000018054610aec906114a3565b80601f0160208091040260200160405190810160405280929190818152602001828054610b18906114a3565b8015610b655780601f10610b3a57610100808354040283529160200191610b65565b820191906000526020600020905b815481529060010190602001808311610b4857829003601f168201915b5050505050908060010160009054906101000a900460ff16905082565b60008054906101000a900473ffffffffffffffffffffffffffffffffffffffff1673ffffffffffffffffffffffffffffffffffffffff163373ffffffffffffffffffffffffffffffffffffffff1614610bda57600080fd5b600660009054906101000a900473ffffffffffffffffffffffffffffffffffffffff1673ffffffffffffffffffffffffffffffffffffffff166108fc479081150290604051600060405180830381858888f19350505050158015610c42573d6000803e3d6000fd5b506001600660146101000a81548160ff021916908315150217905550565b60058181548110610c7057600080fd5b906000526020600020016000915090508054610c8b906114a3565b80601f0160208091040260200160405190810160405280929190818152602001828054610cb7906114a3565b8015610d045780601f10610cd957610100808354040283529160200191610d04565b820191906000526020600020905b815481529060010190602001808311610ce757829003601f168201915b505050505081565b60018054610d19906114a3565b80601f0160208091040260200160405190810160405280929190818152602001828054610d45906114a3565b8015610d925780601f10610d6757610100808354040283529160200191610d92565b820191906000526020600020905b815481529060010190602001808311610d7557829003601f168201915b505050505081565b600660149054906101000a900460ff1681565b60048054610dba906114a3565b80601f0160208091040260200160405190810160405280929190818152602001828054610de6906114a3565b8015610e335780601f10610e0857610100808354040283529160200191610e33565b820191906000526020600020905b815481529060010190602001808311610e1657829003601f168201915b505050505081565b828054610e47906114a3565b90600052602060002090601f016020900481019282610e695760008555610eb0565b82601f10610e8257805160ff1916838001178555610eb0565b82800160010185558215610eb0579182015b82811115610eaf578251825591602001919060010190610e94565b5b509050610ebd9190610ec1565b5090565b5b80821115610eda576000816000905550600101610ec2565b5090565b600081519050919050565b600082825260208201905092915050565b60005b83811015610f18578082015181840152602081019050610efd565b83811115610f27576000848401525b50505050565b6000601f19601f8301169050919050565b6000610f4982610ede565b610f538185610ee9565b9350610f63818560208601610efa565b610f6c81610f2d565b840191505092915050565b60006020820190508181036000830152610f918184610f3e565b905092915050565b6000604051905090565b600080fd5b600080fd5b600080fd5b600080fd5b7f4e487b7100000000000000000000000000000000000000000000000000000000600052604160045260246000fd5b610fef82610f2d565b810181811067ffffffffffffffff8211171561100e5761100d610fb7565b5b80604052505050565b6000611021610f99565b905061102d8282610fe6565b919050565b600067ffffffffffffffff82111561104d5761104c610fb7565b5b61105682610f2d565b9050602081019050919050565b82818337600083830152505050565b600061108561108084611032565b611017565b9050828152602081018484840111156110a1576110a0610fb2565b5b6110ac848285611063565b509392505050565b600082601f8301126110c9576110c8610fad565b5b81356110d9848260208601611072565b91505092915050565b6000602082840312156110f8576110f7610fa3565b5b600082013567ffffffffffffffff81111561111657611115610fa8565b5b611122848285016110b4565b91505092915050565b600073ffffffffffffffffffffffffffffffffffffffff82169050919050565b60006111568261112b565b9050919050565b6111668161114b565b82525050565b6000602082019050611181600083018461115d565b92915050565b600081519050919050565b600082825260208201905092915050565b6000819050602082019050919050565b600082825260208201905092915050565b60006111cf82610ede565b6111d981856111b3565b93506111e9818560208601610efa565b6111f281610f2d565b840191505092915050565b600061120983836111c4565b905092915050565b6000602082019050919050565b600061122982611187565b6112338185611192565b935083602082028501611245856111a3565b8060005b85811015611281578484038952815161126285826111fd565b945061126d83611211565b925060208a01995050600181019050611249565b50829750879550505050505092915050565b60008115159050919050565b6112a881611293565b82525050565b600060e0820190506112c3600083018a61115d565b81810360208301526112d58189610f3e565b905081810360408301526112e9818861121e565b905081810360608301526112fd8187610f3e565b905081810360808301526113118186610f3e565b905061132060a083018561115d565b61132d60c083018461129f565b98975050505050505050565b60006020820190508181036000830152611353818461121e565b905092915050565b60006113668261112b565b9050919050565b6113768161135b565b811461138157600080fd5b50565b6000813590506113938161136d565b92915050565b6000602082840312156113af576113ae610fa3565b5b60006113bd84828501611384565b91505092915050565b6000819050919050565b6113d9816113c6565b81146113e457600080fd5b50565b6000813590506113f6816113d0565b92915050565b60006020828403121561141257611411610fa3565b5b6000611420848285016113e7565b91505092915050565b600060408201905081810360008301526114438185610f3e565b9050611452602083018461129f565b9392505050565b600060208201905061146e600083018461129f565b92915050565b7f4e487b7100000000000000000000000000000000000000000000000000000000600052602260045260246000fd5b600060028204905060018216806114bb57607f821691505b6020821081036114ce576114cd611474565b5b5091905056fea264697066735822122052547426c5f80d42f18ad038598e0871db7c17213d8e0615db79156bbe553e6f64736f6c634300080e0033","opcodes":"PUSH1 0x80 PUSH1 0x40 MSTORE PUSH1 0x40 MLOAD PUSH3 0x1C45 CODESIZE SUB DUP1 PUSH3 0x1C45 DUP4 CODECOPY DUP2 DUP2 ADD PUSH1 0x40 MSTORE DUP2 ADD SWAP1 PUSH3 0x29 SWAP2 SWAP1 PUSH3 0x590 JUMP JUMPDEST DUP1 PUSH1 0x0 DUP1 PUSH2 0x100 EXP DUP2 SLOAD DUP2 PUSH20 0xFFFFFFFFFFFFFFFFFFFFFFFFFFFFFFFFFFFFFFFF MUL NOT AND SWAP1 DUP4 PUSH20 0xFFFFFFFFFFFFFFFFFFFFFFFFFFFFFFFFFFFFFFFF AND MUL OR SWAP1 SSTORE POP DUP4 PUSH1 0x1 SWAP1 DUP1 MLOAD SWAP1 PUSH1 0x20 ADD SWAP1 PUSH3 0x81 SWAP3 SWAP2 SWAP1 PUSH3 0x10D JUMP JUMPDEST POP DUP6 PUSH1 0x2 SWAP1 DUP1 MLOAD SWAP1 PUSH1 0x20 ADD SWAP1 PUSH3 0x9A SWAP3 SWAP2 SWAP1 PUSH3 0x10D JUMP JUMPDEST POP DUP3 PUSH1 0x3 SWAP1 DUP1 MLOAD SWAP1 PUSH1 0x20 ADD SWAP1 PUSH3 0xB3 SWAP3 SWAP2 SWAP1 PUSH3 0x19E JUMP JUMPDEST POP DUP5 PUSH1 0x4 SWAP1 DUP1 MLOAD SWAP1 PUSH1 0x20 ADD SWAP1 PUSH3 0xCC SWAP3 SWAP2 SWAP1 PUSH3 0x10D JUMP JUMPDEST POP DUP2 PUSH1 0x5 SWAP1 DUP1 MLOAD SWAP1 PUSH1 0x20 ADD SWAP1 PUSH3 0xE5 SWAP3 SWAP2 SWAP1 PUSH3 0x19E JUMP JUMPDEST POP PUSH1 0x0 PUSH1 0x6 PUSH1 0x14 PUSH2 0x100 EXP DUP2 SLOAD DUP2 PUSH1 0xFF MUL NOT AND SWAP1 DUP4 ISZERO ISZERO MUL OR SWAP1 SSTORE POP POP POP POP POP POP POP PUSH3 0x72B JUMP JUMPDEST DUP3 DUP1 SLOAD PUSH3 0x11B SWAP1 PUSH3 0x6F6 JUMP JUMPDEST SWAP1 PUSH1 0x0 MSTORE PUSH1 0x20 PUSH1 0x0 KECCAK256 SWAP1 PUSH1 0x1F ADD PUSH1 0x20 SWAP1 DIV DUP2 ADD SWAP3 DUP3 PUSH3 0x13F JUMPI PUSH1 0x0 DUP6 SSTORE PUSH3 0x18B JUMP JUMPDEST DUP3 PUSH1 0x1F LT PUSH3 0x15A JUMPI DUP1 MLOAD PUSH1 0xFF NOT AND DUP4 DUP1 ADD OR DUP6 SSTORE PUSH3 0x18B JUMP JUMPDEST DUP3 DUP1 ADD PUSH1 0x1 ADD DUP6 SSTORE DUP3 ISZERO PUSH3 0x18B JUMPI SWAP2 DUP3 ADD JUMPDEST DUP3 DUP2 GT ISZERO PUSH3 0x18A JUMPI DUP3 MLOAD DUP3 SSTORE SWAP2 PUSH1 0x20 ADD SWAP2 SWAP1 PUSH1 0x1 ADD SWAP1 PUSH3 0x16D JUMP JUMPDEST JUMPDEST POP SWAP1 POP PUSH3 0x19A SWAP2 SWAP1 PUSH3 0x205 JUMP JUMPDEST POP SWAP1 JUMP JUMPDEST DUP3 DUP1 SLOAD DUP3 DUP3 SSTORE SWAP1 PUSH1 0x0 MSTORE PUSH1 0x20 PUSH1 0x0 KECCAK256 SWAP1 DUP2 ADD SWAP3 DUP3 ISZERO PUSH3 0x1F2 JUMPI SWAP2 PUSH1 0x20 MUL DUP3 ADD JUMPDEST DUP3 DUP2 GT ISZERO PUSH3 0x1F1 JUMPI DUP3 MLOAD DUP3 SWAP1 DUP1 MLOAD SWAP1 PUSH1 0x20 ADD SWAP1 PUSH3 0x1E0 SWAP3 SWAP2 SWAP1 PUSH3 0x10D JUMP JUMPDEST POP SWAP2 PUSH1 0x20 ADD SWAP2 SWAP1 PUSH1 0x1 ADD SWAP1 PUSH3 0x1BF JUMP JUMPDEST JUMPDEST POP SWAP1 POP PUSH3 0x201 SWAP2 SWAP1 PUSH3 0x224 JUMP JUMPDEST POP SWAP1 JUMP JUMPDEST JUMPDEST DUP1 DUP3 GT ISZERO PUSH3 0x220 JUMPI PUSH1 0x0 DUP2 PUSH1 0x0 SWAP1 SSTORE POP PUSH1 0x1 ADD PUSH3 0x206 JUMP JUMPDEST POP SWAP1 JUMP JUMPDEST JUMPDEST DUP1 DUP3 GT ISZERO PUSH3 0x248 JUMPI PUSH1 0x0 DUP2 DUP2 PUSH3 0x23E SWAP2 SWAP1 PUSH3 0x24C JUMP JUMPDEST POP PUSH1 0x1 ADD PUSH3 0x225 JUMP JUMPDEST POP SWAP1 JUMP JUMPDEST POP DUP1 SLOAD PUSH3 0x25A SWAP1 PUSH3 0x6F6 JUMP JUMPDEST PUSH1 0x0 DUP3 SSTORE DUP1 PUSH1 0x1F LT PUSH3 0x26E JUMPI POP PUSH3 0x28F JUMP JUMPDEST PUSH1 0x1F ADD PUSH1 0x20 SWAP1 DIV SWAP1 PUSH1 0x0 MSTORE PUSH1 0x20 PUSH1 0x0 KECCAK256 SWAP1 DUP2 ADD SWAP1 PUSH3 0x28E SWAP2 SWAP1 PUSH3 0x205 JUMP JUMPDEST JUMPDEST POP JUMP JUMPDEST PUSH1 0x0 PUSH1 0x40 MLOAD SWAP1 POP SWAP1 JUMP JUMPDEST PUSH1 0x0 DUP1 REVERT JUMPDEST PUSH1 0x0 DUP1 REVERT JUMPDEST PUSH1 0x0 DUP1 REVERT JUMPDEST PUSH1 0x0 DUP1 REVERT JUMPDEST PUSH1 0x0 PUSH1 0x1F NOT PUSH1 0x1F DUP4 ADD AND SWAP1 POP SWAP2 SWAP1 POP JUMP JUMPDEST PUSH32 0x4E487B7100000000000000000000000000000000000000000000000000000000 PUSH1 0x0 MSTORE PUSH1 0x41 PUSH1 0x4 MSTORE PUSH1 0x24 PUSH1 0x0 REVERT JUMPDEST PUSH3 0x2FB DUP3 PUSH3 0x2B0 JUMP JUMPDEST DUP2 ADD DUP2 DUP2 LT PUSH8 0xFFFFFFFFFFFFFFFF DUP3 GT OR ISZERO PUSH3 0x31D JUMPI PUSH3 0x31C PUSH3 0x2C1 JUMP JUMPDEST JUMPDEST DUP1 PUSH1 0x40 MSTORE POP POP POP JUMP JUMPDEST PUSH1 0x0 PUSH3 0x332 PUSH3 0x292 JUMP JUMPDEST SWAP1 POP PUSH3 0x340 DUP3 DUP3 PUSH3 0x2F0 JUMP JUMPDEST SWAP2 SWAP1 POP JUMP JUMPDEST PUSH1 0x0 PUSH8 0xFFFFFFFFFFFFFFFF DUP3 GT ISZERO PUSH3 0x363 JUMPI PUSH3 0x362 PUSH3 0x2C1 JUMP JUMPDEST JUMPDEST PUSH3 0x36E DUP3 PUSH3 0x2B0 JUMP JUMPDEST SWAP1 POP PUSH1 0x20 DUP2 ADD SWAP1 POP SWAP2 SWAP1 POP JUMP JUMPDEST PUSH1 0x0 JUMPDEST DUP4 DUP2 LT ISZERO PUSH3 0x39B JUMPI DUP1 DUP3 ADD MLOAD DUP2 DUP5 ADD MSTORE PUSH1 0x20 DUP2 ADD SWAP1 POP PUSH3 0x37E JUMP JUMPDEST DUP4 DUP2 GT ISZERO PUSH3 0x3AB JUMPI PUSH1 0x0 DUP5 DUP5 ADD MSTORE JUMPDEST POP POP POP POP JUMP JUMPDEST PUSH1 0x0 PUSH3 0x3C8 PUSH3 0x3C2 DUP5 PUSH3 0x345 JUMP JUMPDEST PUSH3 0x326 JUMP JUMPDEST SWAP1 POP DUP3 DUP2 MSTORE PUSH1 0x20 DUP2 ADD DUP5 DUP5 DUP5 ADD GT ISZERO PUSH3 0x3E7 JUMPI PUSH3 0x3E6 PUSH3 0x2AB JUMP JUMPDEST JUMPDEST PUSH3 0x3F4 DUP5 DUP3 DUP6 PUSH3 0x37B JUMP JUMPDEST POP SWAP4 SWAP3 POP POP POP JUMP JUMPDEST PUSH1 0x0 DUP3 PUSH1 0x1F DUP4 ADD SLT PUSH3 0x414 JUMPI PUSH3 0x413 PUSH3 0x2A6 JUMP JUMPDEST JUMPDEST DUP2 MLOAD PUSH3 0x426 DUP5 DUP3 PUSH1 0x20 DUP7 ADD PUSH3 0x3B1 JUMP JUMPDEST SWAP2 POP POP SWAP3 SWAP2 POP POP JUMP JUMPDEST PUSH1 0x0 PUSH8 0xFFFFFFFFFFFFFFFF DUP3 GT ISZERO PUSH3 0x44D JUMPI PUSH3 0x44C PUSH3 0x2C1 JUMP JUMPDEST JUMPDEST PUSH1 0x20 DUP3 MUL SWAP1 POP PUSH1 0x20 DUP2 ADD SWAP1 POP SWAP2 SWAP1 POP JUMP JUMPDEST PUSH1 0x0 DUP1 REVERT JUMPDEST PUSH1 0x0 PUSH3 0x47A PUSH3 0x474 DUP5 PUSH3 0x42F JUMP JUMPDEST PUSH3 0x326 JUMP JUMPDEST SWAP1 POP DUP1 DUP4 DUP3 MSTORE PUSH1 0x20 DUP3 ADD SWAP1 POP PUSH1 0x20 DUP5 MUL DUP4 ADD DUP6 DUP2 GT ISZERO PUSH3 0x4A0 JUMPI PUSH3 0x49F PUSH3 0x45E JUMP JUMPDEST JUMPDEST DUP4 JUMPDEST DUP2 DUP2 LT ISZERO PUSH3 0x4EE JUMPI DUP1 MLOAD PUSH8 0xFFFFFFFFFFFFFFFF DUP2 GT ISZERO PUSH3 0x4C9 JUMPI PUSH3 0x4C8 PUSH3 0x2A6 JUMP JUMPDEST JUMPDEST DUP1 DUP7 ADD PUSH3 0x4D8 DUP10 DUP3 PUSH3 0x3FC JUMP JUMPDEST DUP6 MSTORE PUSH1 0x20 DUP6 ADD SWAP5 POP POP POP PUSH1 0x20 DUP2 ADD SWAP1 POP PUSH3 0x4A2 JUMP JUMPDEST POP POP POP SWAP4 SWAP3 POP POP POP JUMP JUMPDEST PUSH1 0x0 DUP3 PUSH1 0x1F DUP4 ADD SLT PUSH3 0x510 JUMPI PUSH3 0x50F PUSH3 0x2A6 JUMP JUMPDEST JUMPDEST DUP2 MLOAD PUSH3 0x522 DUP5 DUP3 PUSH1 0x20 DUP7 ADD PUSH3 0x463 JUMP JUMPDEST SWAP2 POP POP SWAP3 SWAP2 POP POP JUMP JUMPDEST PUSH1 0x0 PUSH20 0xFFFFFFFFFFFFFFFFFFFFFFFFFFFFFFFFFFFFFFFF DUP3 AND SWAP1 POP SWAP2 SWAP1 POP JUMP JUMPDEST PUSH1 0x0 PUSH3 0x558 DUP3 PUSH3 0x52B JUMP JUMPDEST SWAP1 POP SWAP2 SWAP1 POP JUMP JUMPDEST PUSH3 0x56A DUP2 PUSH3 0x54B JUMP JUMPDEST DUP2 EQ PUSH3 0x576 JUMPI PUSH1 0x0 DUP1 REVERT JUMPDEST POP JUMP JUMPDEST PUSH1 0x0 DUP2 MLOAD SWAP1 POP PUSH3 0x58A DUP2 PUSH3 0x55F JUMP JUMPDEST SWAP3 SWAP2 POP POP JUMP JUMPDEST PUSH1 0x0 DUP1 PUSH1 0x0 DUP1 PUSH1 0x0 DUP1 PUSH1 0xC0 DUP8 DUP10 SUB SLT ISZERO PUSH3 0x5B0 JUMPI PUSH3 0x5AF PUSH3 0x29C JUMP JUMPDEST JUMPDEST PUSH1 0x0 DUP8 ADD MLOAD PUSH8 0xFFFFFFFFFFFFFFFF DUP2 GT ISZERO PUSH3 0x5D1 JUMPI PUSH3 0x5D0 PUSH3 0x2A1 JUMP JUMPDEST JUMPDEST PUSH3 0x5DF DUP10 DUP3 DUP11 ADD PUSH3 0x3FC JUMP JUMPDEST SWAP7 POP POP PUSH1 0x20 DUP8 ADD MLOAD PUSH8 0xFFFFFFFFFFFFFFFF DUP2 GT ISZERO PUSH3 0x603 JUMPI PUSH3 0x602 PUSH3 0x2A1 JUMP JUMPDEST JUMPDEST PUSH3 0x611 DUP10 DUP3 DUP11 ADD PUSH3 0x3FC JUMP JUMPDEST SWAP6 POP POP PUSH1 0x40 DUP8 ADD MLOAD PUSH8 0xFFFFFFFFFFFFFFFF DUP2 GT ISZERO PUSH3 0x635 JUMPI PUSH3 0x634 PUSH3 0x2A1 JUMP JUMPDEST JUMPDEST PUSH3 0x643 DUP10 DUP3 DUP11 ADD PUSH3 0x3FC JUMP JUMPDEST SWAP5 POP POP PUSH1 0x60 DUP8 ADD MLOAD PUSH8 0xFFFFFFFFFFFFFFFF DUP2 GT ISZERO PUSH3 0x667 JUMPI PUSH3 0x666 PUSH3 0x2A1 JUMP JUMPDEST JUMPDEST PUSH3 0x675 DUP10 DUP3 DUP11 ADD PUSH3 0x4F8 JUMP JUMPDEST SWAP4 POP POP PUSH1 0x80 DUP8 ADD MLOAD PUSH8 0xFFFFFFFFFFFFFFFF DUP2 GT ISZERO PUSH3 0x699 JUMPI PUSH3 0x698 PUSH3 0x2A1 JUMP JUMPDEST JUMPDEST PUSH3 0x6A7 DUP10 DUP3 DUP11 ADD PUSH3 0x4F8 JUMP JUMPDEST SWAP3 POP POP PUSH1 0xA0 PUSH3 0x6BA DUP10 DUP3 DUP11 ADD PUSH3 0x579 JUMP JUMPDEST SWAP2 POP POP SWAP3 SWAP6 POP SWAP3 SWAP6 POP SWAP3 SWAP6 JUMP JUMPDEST PUSH32 0x4E487B7100000000000000000000000000000000000000000000000000000000 PUSH1 0x0 MSTORE PUSH1 0x22 PUSH1 0x4 MSTORE PUSH1 0x24 PUSH1 0x0 REVERT JUMPDEST PUSH1 0x0 PUSH1 0x2 DUP3 DIV SWAP1 POP PUSH1 0x1 DUP3 AND DUP1 PUSH3 0x70F JUMPI PUSH1 0x7F DUP3 AND SWAP2 POP JUMPDEST PUSH1 0x20 DUP3 LT DUP2 SUB PUSH3 0x725 JUMPI PUSH3 0x724 PUSH3 0x6C7 JUMP JUMPDEST JUMPDEST POP SWAP2 SWAP1 POP JUMP JUMPDEST PUSH2 0x150A DUP1 PUSH3 0x73B PUSH1 0x0 CODECOPY PUSH1 0x0 RETURN INVALID PUSH1 0x80 PUSH1 0x40 MSTORE CALLVALUE DUP1 ISZERO PUSH2 0x10 JUMPI PUSH1 0x0 DUP1 REVERT JUMPDEST POP PUSH1 0x4 CALLDATASIZE LT PUSH2 0xF4 JUMPI PUSH1 0x0 CALLDATALOAD PUSH1 0xE0 SHR DUP1 PUSH4 0x5F51C765 GT PUSH2 0x97 JUMPI DUP1 PUSH4 0xAF84A013 GT PUSH2 0x66 JUMPI DUP1 PUSH4 0xAF84A013 EQ PUSH2 0x242 JUMPI DUP1 PUSH4 0xDEA4E339 EQ PUSH2 0x272 JUMPI DUP1 PUSH4 0xFA391C64 EQ PUSH2 0x290 JUMPI DUP1 PUSH4 0xFBC03A1E EQ PUSH2 0x2AE JUMPI PUSH2 0xF4 JUMP JUMPDEST DUP1 PUSH4 0x5F51C765 EQ PUSH2 0x1BB JUMPI DUP1 PUSH4 0x71096387 EQ PUSH2 0x1D7 JUMPI DUP1 PUSH4 0x74ADAD1D EQ PUSH2 0x207 JUMPI DUP1 PUSH4 0xA20FCA5A EQ PUSH2 0x238 JUMPI PUSH2 0xF4 JUMP JUMPDEST DUP1 PUSH4 0x481C6A75 GT PUSH2 0xD3 JUMPI DUP1 PUSH4 0x481C6A75 EQ PUSH2 0x13D JUMPI DUP1 PUSH4 0x4D547ADA EQ PUSH2 0x15B JUMPI DUP1 PUSH4 0x5A9B0B89 EQ PUSH2 0x179 JUMPI DUP1 PUSH4 0x5E1C7322 EQ PUSH2 0x19D JUMPI PUSH2 0xF4 JUMP JUMPDEST DUP1 PUSH3 0x1AEA77 EQ PUSH2 0xF9 JUMPI DUP1 PUSH4 0x231E407A EQ PUSH2 0x117 JUMPI DUP1 PUSH4 0x31C3A6F5 EQ PUSH2 0x121 JUMPI JUMPDEST PUSH1 0x0 DUP1 REVERT JUMPDEST PUSH2 0x101 PUSH2 0x2CC JUMP JUMPDEST PUSH1 0x40 MLOAD PUSH2 0x10E SWAP2 SWAP1 PUSH2 0xF77 JUMP JUMPDEST PUSH1 0x40 MLOAD DUP1 SWAP2 SUB SWAP1 RETURN JUMPDEST PUSH2 0x11F PUSH2 0x35A JUMP JUMPDEST STOP JUMPDEST PUSH2 0x13B PUSH1 0x4 DUP1 CALLDATASIZE SUB DUP2 ADD SWAP1 PUSH2 0x136 SWAP2 SWAP1 PUSH2 0x10E2 JUMP JUMPDEST PUSH2 0x476 JUMP JUMPDEST STOP JUMPDEST PUSH2 0x145 PUSH2 0x510 JUMP JUMPDEST PUSH1 0x40 MLOAD PUSH2 0x152 SWAP2 SWAP1 PUSH2 0x116C JUMP JUMPDEST PUSH1 0x40 MLOAD DUP1 SWAP2 SUB SWAP1 RETURN JUMPDEST PUSH2 0x163 PUSH2 0x534 JUMP JUMPDEST PUSH1 0x40 MLOAD PUSH2 0x170 SWAP2 SWAP1 PUSH2 0x116C JUMP JUMPDEST PUSH1 0x40 MLOAD DUP1 SWAP2 SUB SWAP1 RETURN JUMPDEST PUSH2 0x181 PUSH2 0x55A JUMP JUMPDEST PUSH1 0x40 MLOAD PUSH2 0x194 SWAP8 SWAP7 SWAP6 SWAP5 SWAP4 SWAP3 SWAP2 SWAP1 PUSH2 0x12AE JUMP JUMPDEST PUSH1 0x40 MLOAD DUP1 SWAP2 SUB SWAP1 RETURN JUMPDEST PUSH2 0x1A5 PUSH2 0x84F JUMP JUMPDEST PUSH1 0x40 MLOAD PUSH2 0x1B2 SWAP2 SWAP1 PUSH2 0x1339 JUMP JUMPDEST PUSH1 0x40 MLOAD DUP1 SWAP2 SUB SWAP1 RETURN JUMPDEST PUSH2 0x1D5 PUSH1 0x4 DUP1 CALLDATASIZE SUB DUP2 ADD SWAP1 PUSH2 0x1D0 SWAP2 SWAP1 PUSH2 0x1399 JUMP JUMPDEST PUSH2 0x928 JUMP JUMPDEST STOP JUMPDEST PUSH2 0x1F1 PUSH1 0x4 DUP1 CALLDATASIZE SUB DUP2 ADD SWAP1 PUSH2 0x1EC SWAP2 SWAP1 PUSH2 0x13FC JUMP JUMPDEST PUSH2 0xA1D JUMP JUMPDEST PUSH1 0x40 MLOAD PUSH2 0x1FE SWAP2 SWAP1 PUSH2 0xF77 JUMP JUMPDEST PUSH1 0x40 MLOAD DUP1 SWAP2 SUB SWAP1 RETURN JUMPDEST PUSH2 0x221 PUSH1 0x4 DUP1 CALLDATASIZE SUB DUP2 ADD SWAP1 PUSH2 0x21C SWAP2 SWAP1 PUSH2 0x1399 JUMP JUMPDEST PUSH2 0xAC9 JUMP JUMPDEST PUSH1 0x40 MLOAD PUSH2 0x22F SWAP3 SWAP2 SWAP1 PUSH2 0x1429 JUMP JUMPDEST PUSH1 0x40 MLOAD DUP1 SWAP2 SUB SWAP1 RETURN JUMPDEST PUSH2 0x240 PUSH2 0xB82 JUMP JUMPDEST STOP JUMPDEST PUSH2 0x25C PUSH1 0x4 DUP1 CALLDATASIZE SUB DUP2 ADD SWAP1 PUSH2 0x257 SWAP2 SWAP1 PUSH2 0x13FC JUMP JUMPDEST PUSH2 0xC60 JUMP JUMPDEST PUSH1 0x40 MLOAD PUSH2 0x269 SWAP2 SWAP1 PUSH2 0xF77 JUMP JUMPDEST PUSH1 0x40 MLOAD DUP1 SWAP2 SUB SWAP1 RETURN JUMPDEST PUSH2 0x27A PUSH2 0xD0C JUMP JUMPDEST PUSH1 0x40 MLOAD PUSH2 0x287 SWAP2 SWAP1 PUSH2 0xF77 JUMP JUMPDEST PUSH1 0x40 MLOAD DUP1 SWAP2 SUB SWAP1 RETURN JUMPDEST PUSH2 0x298 PUSH2 0xD9A JUMP JUMPDEST PUSH1 0x40 MLOAD PUSH2 0x2A5 SWAP2 SWAP1 PUSH2 0x1459 JUMP JUMPDEST PUSH1 0x40 MLOAD DUP1 SWAP2 SUB SWAP1 RETURN JUMPDEST PUSH2 0x2B6 PUSH2 0xDAD JUMP JUMPDEST PUSH1 0x40 MLOAD PUSH2 0x2C3 SWAP2 SWAP1 PUSH2 0xF77 JUMP JUMPDEST PUSH1 0x40 MLOAD DUP1 SWAP2 SUB SWAP1 RETURN JUMPDEST PUSH1 0x2 DUP1 SLOAD PUSH2 0x2D9 SWAP1 PUSH2 0x14A3 JUMP JUMPDEST DUP1 PUSH1 0x1F ADD PUSH1 0x20 DUP1 SWAP2 DIV MUL PUSH1 0x20 ADD PUSH1 0x40 MLOAD SWAP1 DUP2 ADD PUSH1 0x40 MSTORE DUP1 SWAP3 SWAP2 SWAP1 DUP2 DUP2 MSTORE PUSH1 0x20 ADD DUP3 DUP1 SLOAD PUSH2 0x305 SWAP1 PUSH2 0x14A3 JUMP JUMPDEST DUP1 ISZERO PUSH2 0x352 JUMPI DUP1 PUSH1 0x1F LT PUSH2 0x327 JUMPI PUSH2 0x100 DUP1 DUP4 SLOAD DIV MUL DUP4 MSTORE SWAP2 PUSH1 0x20 ADD SWAP2 PUSH2 0x352 JUMP JUMPDEST DUP3 ADD SWAP2 SWAP1 PUSH1 0x0 MSTORE PUSH1 0x20 PUSH1 0x0 KECCAK256 SWAP1 JUMPDEST DUP2 SLOAD DUP2 MSTORE SWAP1 PUSH1 0x1 ADD SWAP1 PUSH1 0x20 ADD DUP1 DUP4 GT PUSH2 0x335 JUMPI DUP3 SWAP1 SUB PUSH1 0x1F AND DUP3 ADD SWAP2 JUMPDEST POP POP POP POP POP DUP2 JUMP JUMPDEST PUSH1 0x0 DUP1 SLOAD SWAP1 PUSH2 0x100 EXP SWAP1 DIV PUSH20 0xFFFFFFFFFFFFFFFFFFFFFFFFFFFFFFFFFFFFFFFF AND PUSH20 0xFFFFFFFFFFFFFFFFFFFFFFFFFFFFFFFFFFFFFFFF AND CALLER PUSH20 0xFFFFFFFFFFFFFFFFFFFFFFFFFFFFFFFFFFFFFFFF AND EQ PUSH2 0x3B2 JUMPI PUSH1 0x0 DUP1 REVERT JUMPDEST PUSH1 0x0 PUSH20 0xFFFFFFFFFFFFFFFFFFFFFFFFFFFFFFFFFFFFFFFF AND PUSH1 0x6 PUSH1 0x0 SWAP1 SLOAD SWAP1 PUSH2 0x100 EXP SWAP1 DIV PUSH20 0xFFFFFFFFFFFFFFFFFFFFFFFFFFFFFFFFFFFFFFFF AND PUSH20 0xFFFFFFFFFFFFFFFFFFFFFFFFFFFFFFFFFFFFFFFF AND EQ PUSH2 0x40D JUMPI PUSH1 0x0 DUP1 REVERT JUMPDEST PUSH1 0x0 DUP1 SLOAD SWAP1 PUSH2 0x100 EXP SWAP1 DIV PUSH20 0xFFFFFFFFFFFFFFFFFFFFFFFFFFFFFFFFFFFFFFFF AND PUSH20 0xFFFFFFFFFFFFFFFFFFFFFFFFFFFFFFFFFFFFFFFF AND PUSH2 0x8FC SELFBALANCE SWAP1 DUP2 ISZERO MUL SWAP1 PUSH1 0x40 MLOAD PUSH1 0x0 PUSH1 0x40 MLOAD DUP1 DUP4 SUB DUP2 DUP6 DUP9 DUP9 CALL SWAP4 POP POP POP POP ISZERO DUP1 ISZERO PUSH2 0x473 JUMPI RETURNDATASIZE PUSH1 0x0 DUP1 RETURNDATACOPY RETURNDATASIZE PUSH1 0x0 REVERT JUMPDEST POP JUMP JUMPDEST PUSH1 0x40 MLOAD DUP1 PUSH1 0x40 ADD PUSH1 0x40 MSTORE DUP1 DUP3 DUP2 MSTORE PUSH1 0x20 ADD PUSH1 0x1 ISZERO ISZERO DUP2 MSTORE POP PUSH1 0x7 PUSH1 0x0 CALLER PUSH20 0xFFFFFFFFFFFFFFFFFFFFFFFFFFFFFFFFFFFFFFFF AND PUSH20 0xFFFFFFFFFFFFFFFFFFFFFFFFFFFFFFFFFFFFFFFF AND DUP2 MSTORE PUSH1 0x20 ADD SWAP1 DUP2 MSTORE PUSH1 0x20 ADD PUSH1 0x0 KECCAK256 PUSH1 0x0 DUP3 ADD MLOAD DUP2 PUSH1 0x0 ADD SWAP1 DUP1 MLOAD SWAP1 PUSH1 0x20 ADD SWAP1 PUSH2 0x4E9 SWAP3 SWAP2 SWAP1 PUSH2 0xE3B JUMP JUMPDEST POP PUSH1 0x20 DUP3 ADD MLOAD DUP2 PUSH1 0x1 ADD PUSH1 0x0 PUSH2 0x100 EXP DUP2 SLOAD DUP2 PUSH1 0xFF MUL NOT AND SWAP1 DUP4 ISZERO ISZERO MUL OR SWAP1 SSTORE POP SWAP1 POP POP POP JUMP JUMPDEST PUSH1 0x0 DUP1 SLOAD SWAP1 PUSH2 0x100 EXP SWAP1 DIV PUSH20 0xFFFFFFFFFFFFFFFFFFFFFFFFFFFFFFFFFFFFFFFF AND DUP2 JUMP JUMPDEST PUSH1 0x6 PUSH1 0x0 SWAP1 SLOAD SWAP1 PUSH2 0x100 EXP SWAP1 DIV PUSH20 0xFFFFFFFFFFFFFFFFFFFFFFFFFFFFFFFFFFFFFFFF AND DUP2 JUMP JUMPDEST PUSH1 0x0 PUSH1 0x60 DUP1 PUSH1 0x60 DUP1 PUSH1 0x0 DUP1 PUSH1 0x0 DUP1 SLOAD SWAP1 PUSH2 0x100 EXP SWAP1 DIV PUSH20 0xFFFFFFFFFFFFFFFFFFFFFFFFFFFFFFFFFFFFFFFF AND PUSH1 0x2 PUSH1 0x3 PUSH1 0x4 PUSH1 0x1 PUSH1 0x6 PUSH1 0x0 SWAP1 SLOAD SWAP1 PUSH2 0x100 EXP SWAP1 DIV PUSH20 0xFFFFFFFFFFFFFFFFFFFFFFFFFFFFFFFFFFFFFFFF AND PUSH1 0x6 PUSH1 0x14 SWAP1 SLOAD SWAP1 PUSH2 0x100 EXP SWAP1 DIV PUSH1 0xFF AND DUP6 DUP1 SLOAD PUSH2 0x5CD SWAP1 PUSH2 0x14A3 JUMP JUMPDEST DUP1 PUSH1 0x1F ADD PUSH1 0x20 DUP1 SWAP2 DIV MUL PUSH1 0x20 ADD PUSH1 0x40 MLOAD SWAP1 DUP2 ADD PUSH1 0x40 MSTORE DUP1 SWAP3 SWAP2 SWAP1 DUP2 DUP2 MSTORE PUSH1 0x20 ADD DUP3 DUP1 SLOAD PUSH2 0x5F9 SWAP1 PUSH2 0x14A3 JUMP JUMPDEST DUP1 ISZERO PUSH2 0x646 JUMPI DUP1 PUSH1 0x1F LT PUSH2 0x61B JUMPI PUSH2 0x100 DUP1 DUP4 SLOAD DIV MUL DUP4 MSTORE SWAP2 PUSH1 0x20 ADD SWAP2 PUSH2 0x646 JUMP JUMPDEST DUP3 ADD SWAP2 SWAP1 PUSH1 0x0 MSTORE PUSH1 0x20 PUSH1 0x0 KECCAK256 SWAP1 JUMPDEST DUP2 SLOAD DUP2 MSTORE SWAP1 PUSH1 0x1 ADD SWAP1 PUSH1 0x20 ADD DUP1 DUP4 GT PUSH2 0x629 JUMPI DUP3 SWAP1 SUB PUSH1 0x1F AND DUP3 ADD SWAP2 JUMPDEST POP POP POP POP POP SWAP6 POP DUP5 DUP1 SLOAD DUP1 PUSH1 0x20 MUL PUSH1 0x20 ADD PUSH1 0x40 MLOAD SWAP1 DUP2 ADD PUSH1 0x40 MSTORE DUP1 SWAP3 SWAP2 SWAP1 DUP2 DUP2 MSTORE PUSH1 0x20 ADD PUSH1 0x0 SWAP1 JUMPDEST DUP3 DUP3 LT ISZERO PUSH2 0x71A JUMPI DUP4 DUP3 SWAP1 PUSH1 0x0 MSTORE PUSH1 0x20 PUSH1 0x0 KECCAK256 ADD DUP1 SLOAD PUSH2 0x68D SWAP1 PUSH2 0x14A3 JUMP JUMPDEST DUP1 PUSH1 0x1F ADD PUSH1 0x20 DUP1 SWAP2 DIV MUL PUSH1 0x20 ADD PUSH1 0x40 MLOAD SWAP1 DUP2 ADD PUSH1 0x40 MSTORE DUP1 SWAP3 SWAP2 SWAP1 DUP2 DUP2 MSTORE PUSH1 0x20 ADD DUP3 DUP1 SLOAD PUSH2 0x6B9 SWAP1 PUSH2 0x14A3 JUMP JUMPDEST DUP1 ISZERO PUSH2 0x706 JUMPI DUP1 PUSH1 0x1F LT PUSH2 0x6DB JUMPI PUSH2 0x100 DUP1 DUP4 SLOAD DIV MUL DUP4 MSTORE SWAP2 PUSH1 0x20 ADD SWAP2 PUSH2 0x706 JUMP JUMPDEST DUP3 ADD SWAP2 SWAP1 PUSH1 0x0 MSTORE PUSH1 0x20 PUSH1 0x0 KECCAK256 SWAP1 JUMPDEST DUP2 SLOAD DUP2 MSTORE SWAP1 PUSH1 0x1 ADD SWAP1 PUSH1 0x20 ADD DUP1 DUP4 GT PUSH2 0x6E9 JUMPI DUP3 SWAP1 SUB PUSH1 0x1F AND DUP3 ADD SWAP2 JUMPDEST POP POP POP POP POP DUP2 MSTORE PUSH1 0x20 ADD SWAP1 PUSH1 0x1 ADD SWAP1 PUSH2 0x66E JUMP JUMPDEST POP POP POP POP SWAP5 POP DUP4 DUP1 SLOAD PUSH2 0x72C SWAP1 PUSH2 0x14A3 JUMP JUMPDEST DUP1 PUSH1 0x1F ADD PUSH1 0x20 DUP1 SWAP2 DIV MUL PUSH1 0x20 ADD PUSH1 0x40 MLOAD SWAP1 DUP2 ADD PUSH1 0x40 MSTORE DUP1 SWAP3 SWAP2 SWAP1 DUP2 DUP2 MSTORE PUSH1 0x20 ADD DUP3 DUP1 SLOAD PUSH2 0x758 SWAP1 PUSH2 0x14A3 JUMP JUMPDEST DUP1 ISZERO PUSH2 0x7A5 JUMPI DUP1 PUSH1 0x1F LT PUSH2 0x77A JUMPI PUSH2 0x100 DUP1 DUP4 SLOAD DIV MUL DUP4 MSTORE SWAP2 PUSH1 0x20 ADD SWAP2 PUSH2 0x7A5 JUMP JUMPDEST DUP3 ADD SWAP2 SWAP1 PUSH1 0x0 MSTORE PUSH1 0x20 PUSH1 0x0 KECCAK256 SWAP1 JUMPDEST DUP2 SLOAD DUP2 MSTORE SWAP1 PUSH1 0x1 ADD SWAP1 PUSH1 0x20 ADD DUP1 DUP4 GT PUSH2 0x788 JUMPI DUP3 SWAP1 SUB PUSH1 0x1F AND DUP3 ADD SWAP2 JUMPDEST POP POP POP POP POP SWAP4 POP DUP3 DUP1 SLOAD PUSH2 0x7B8 SWAP1 PUSH2 0x14A3 JUMP JUMPDEST DUP1 PUSH1 0x1F ADD PUSH1 0x20 DUP1 SWAP2 DIV MUL PUSH1 0x20 ADD PUSH1 0x40 MLOAD SWAP1 DUP2 ADD PUSH1 0x40 MSTORE DUP1 SWAP3 SWAP2 SWAP1 DUP2 DUP2 MSTORE PUSH1 0x20 ADD DUP3 DUP1 SLOAD PUSH2 0x7E4 SWAP1 PUSH2 0x14A3 JUMP JUMPDEST DUP1 ISZERO PUSH2 0x831 JUMPI DUP1 PUSH1 0x1F LT PUSH2 0x806 JUMPI PUSH2 0x100 DUP1 DUP4 SLOAD DIV MUL DUP4 MSTORE SWAP2 PUSH1 0x20 ADD SWAP2 PUSH2 0x831 JUMP JUMPDEST DUP3 ADD SWAP2 SWAP1 PUSH1 0x0 MSTORE PUSH1 0x20 PUSH1 0x0 KECCAK256 SWAP1 JUMPDEST DUP2 SLOAD DUP2 MSTORE SWAP1 PUSH1 0x1 ADD SWAP1 PUSH1 0x20 ADD DUP1 DUP4 GT PUSH2 0x814 JUMPI DUP3 SWAP1 SUB PUSH1 0x1F AND DUP3 ADD SWAP2 JUMPDEST POP POP POP POP POP SWAP3 POP SWAP7 POP SWAP7 POP SWAP7 POP SWAP7 POP SWAP7 POP SWAP7 POP SWAP7 POP SWAP1 SWAP2 SWAP3 SWAP4 SWAP5 SWAP6 SWAP7 JUMP JUMPDEST PUSH1 0x60 PUSH1 0x5 DUP1 SLOAD DUP1 PUSH1 0x20 MUL PUSH1 0x20 ADD PUSH1 0x40 MLOAD SWAP1 DUP2 ADD PUSH1 0x40 MSTORE DUP1 SWAP3 SWAP2 SWAP1 DUP2 DUP2 MSTORE PUSH1 0x20 ADD PUSH1 0x0 SWAP1 JUMPDEST DUP3 DUP3 LT ISZERO PUSH2 0x91F JUMPI DUP4 DUP3 SWAP1 PUSH1 0x0 MSTORE PUSH1 0x20 PUSH1 0x0 KECCAK256 ADD DUP1 SLOAD PUSH2 0x892 SWAP1 PUSH2 0x14A3 JUMP JUMPDEST DUP1 PUSH1 0x1F ADD PUSH1 0x20 DUP1 SWAP2 DIV MUL PUSH1 0x20 ADD PUSH1 0x40 MLOAD SWAP1 DUP2 ADD PUSH1 0x40 MSTORE DUP1 SWAP3 SWAP2 SWAP1 DUP2 DUP2 MSTORE PUSH1 0x20 ADD DUP3 DUP1 SLOAD PUSH2 0x8BE SWAP1 PUSH2 0x14A3 JUMP JUMPDEST DUP1 ISZERO PUSH2 0x90B JUMPI DUP1 PUSH1 0x1F LT PUSH2 0x8E0 JUMPI PUSH2 0x100 DUP1 DUP4 SLOAD DIV MUL DUP4 MSTORE SWAP2 PUSH1 0x20 ADD SWAP2 PUSH2 0x90B JUMP JUMPDEST DUP3 ADD SWAP2 SWAP1 PUSH1 0x0 MSTORE PUSH1 0x20 PUSH1 0x0 KECCAK256 SWAP1 JUMPDEST DUP2 SLOAD DUP2 MSTORE SWAP1 PUSH1 0x1 ADD SWAP1 PUSH1 0x20 ADD DUP1 DUP4 GT PUSH2 0x8EE JUMPI DUP3 SWAP1 SUB PUSH1 0x1F AND DUP3 ADD SWAP2 JUMPDEST POP POP POP POP POP DUP2 MSTORE PUSH1 0x20 ADD SWAP1 PUSH1 0x1 ADD SWAP1 PUSH2 0x873 JUMP JUMPDEST POP POP POP POP SWAP1 POP SWAP1 JUMP JUMPDEST PUSH1 0x0 DUP1 SLOAD SWAP1 PUSH2 0x100 EXP SWAP1 DIV PUSH20 0xFFFFFFFFFFFFFFFFFFFFFFFFFFFFFFFFFFFFFFFF AND PUSH20 0xFFFFFFFFFFFFFFFFFFFFFFFFFFFFFFFFFFFFFFFF AND CALLER PUSH20 0xFFFFFFFFFFFFFFFFFFFFFFFFFFFFFFFFFFFFFFFF AND EQ PUSH2 0x980 JUMPI PUSH1 0x0 DUP1 REVERT JUMPDEST PUSH1 0x7 PUSH1 0x0 DUP3 PUSH20 0xFFFFFFFFFFFFFFFFFFFFFFFFFFFFFFFFFFFFFFFF AND PUSH20 0xFFFFFFFFFFFFFFFFFFFFFFFFFFFFFFFFFFFFFFFF AND DUP2 MSTORE PUSH1 0x20 ADD SWAP1 DUP2 MSTORE PUSH1 0x20 ADD PUSH1 0x0 KECCAK256 PUSH1 0x1 ADD PUSH1 0x0 SWAP1 SLOAD SWAP1 PUSH2 0x100 EXP SWAP1 DIV PUSH1 0xFF AND PUSH2 0x9D9 JUMPI PUSH1 0x0 DUP1 REVERT JUMPDEST DUP1 PUSH1 0x6 PUSH1 0x0 PUSH2 0x100 EXP DUP2 SLOAD DUP2 PUSH20 0xFFFFFFFFFFFFFFFFFFFFFFFFFFFFFFFFFFFFFFFF MUL NOT AND SWAP1 DUP4 PUSH20 0xFFFFFFFFFFFFFFFFFFFFFFFFFFFFFFFFFFFFFFFF AND MUL OR SWAP1 SSTORE POP POP JUMP JUMPDEST PUSH1 0x3 DUP2 DUP2 SLOAD DUP2 LT PUSH2 0xA2D JUMPI PUSH1 0x0 DUP1 REVERT JUMPDEST SWAP1 PUSH1 0x0 MSTORE PUSH1 0x20 PUSH1 0x0 KECCAK256 ADD PUSH1 0x0 SWAP2 POP SWAP1 POP DUP1 SLOAD PUSH2 0xA48 SWAP1 PUSH2 0x14A3 JUMP JUMPDEST DUP1 PUSH1 0x1F ADD PUSH1 0x20 DUP1 SWAP2 DIV MUL PUSH1 0x20 ADD PUSH1 0x40 MLOAD SWAP1 DUP2 ADD PUSH1 0x40 MSTORE DUP1 SWAP3 SWAP2 SWAP1 DUP2 DUP2 MSTORE PUSH1 0x20 ADD DUP3 DUP1 SLOAD PUSH2 0xA74 SWAP1 PUSH2 0x14A3 JUMP JUMPDEST DUP1 ISZERO PUSH2 0xAC1 JUMPI DUP1 PUSH1 0x1F LT PUSH2 0xA96 JUMPI PUSH2 0x100 DUP1 DUP4 SLOAD DIV MUL DUP4 MSTORE SWAP2 PUSH1 0x20 ADD SWAP2 PUSH2 0xAC1 JUMP JUMPDEST DUP3 ADD SWAP2 SWAP1 PUSH1 0x0 MSTORE PUSH1 0x20 PUSH1 0x0 KECCAK256 SWAP1 JUMPDEST DUP2 SLOAD DUP2 MSTORE SWAP1 PUSH1 0x1 ADD SWAP1 PUSH1 0x20 ADD DUP1 DUP4 GT PUSH2 0xAA4 JUMPI DUP3 SWAP1 SUB PUSH1 0x1F AND DUP3 ADD SWAP2 JUMPDEST POP POP POP POP POP DUP2 JUMP JUMPDEST PUSH1 0x7 PUSH1 0x20 MSTORE DUP1 PUSH1 0x0 MSTORE PUSH1 0x40 PUSH1 0x0 KECCAK256 PUSH1 0x0 SWAP2 POP SWAP1 POP DUP1 PUSH1 0x0 ADD DUP1 SLOAD PUSH2 0xAEC SWAP1 PUSH2 0x14A3 JUMP JUMPDEST DUP1 PUSH1 0x1F ADD PUSH1 0x20 DUP1 SWAP2 DIV MUL PUSH1 0x20 ADD PUSH1 0x40 MLOAD SWAP1 DUP2 ADD PUSH1 0x40 MSTORE DUP1 SWAP3 SWAP2 SWAP1 DUP2 DUP2 MSTORE PUSH1 0x20 ADD DUP3 DUP1 SLOAD PUSH2 0xB18 SWAP1 PUSH2 0x14A3 JUMP JUMPDEST DUP1 ISZERO PUSH2 0xB65 JUMPI DUP1 PUSH1 0x1F LT PUSH2 0xB3A JUMPI PUSH2 0x100 DUP1 DUP4 SLOAD DIV MUL DUP4 MSTORE SWAP2 PUSH1 0x20 ADD SWAP2 PUSH2 0xB65 JUMP JUMPDEST DUP3 ADD SWAP2 SWAP1 PUSH1 0x0 MSTORE PUSH1 0x20 PUSH1 0x0 KECCAK256 SWAP1 JUMPDEST DUP2 SLOAD DUP2 MSTORE SWAP1 PUSH1 0x1 ADD SWAP1 PUSH1 0x20 ADD DUP1 DUP4 GT PUSH2 0xB48 JUMPI DUP3 SWAP1 SUB PUSH1 0x1F AND DUP3 ADD SWAP2 JUMPDEST POP POP POP POP POP SWAP1 DUP1 PUSH1 0x1 ADD PUSH1 0x0 SWAP1 SLOAD SWAP1 PUSH2 0x100 EXP SWAP1 DIV PUSH1 0xFF AND SWAP1 POP DUP3 JUMP JUMPDEST PUSH1 0x0 DUP1 SLOAD SWAP1 PUSH2 0x100 EXP SWAP1 DIV PUSH20 0xFFFFFFFFFFFFFFFFFFFFFFFFFFFFFFFFFFFFFFFF AND PUSH20 0xFFFFFFFFFFFFFFFFFFFFFFFFFFFFFFFFFFFFFFFF AND CALLER PUSH20 0xFFFFFFFFFFFFFFFFFFFFFFFFFFFFFFFFFFFFFFFF AND EQ PUSH2 0xBDA JUMPI PUSH1 0x0 DUP1 REVERT JUMPDEST PUSH1 0x6 PUSH1 0x0 SWAP1 SLOAD SWAP1 PUSH2 0x100 EXP SWAP1 DIV PUSH20 0xFFFFFFFFFFFFFFFFFFFFFFFFFFFFFFFFFFFFFFFF AND PUSH20 0xFFFFFFFFFFFFFFFFFFFFFFFFFFFFFFFFFFFFFFFF AND PUSH2 0x8FC SELFBALANCE SWAP1 DUP2 ISZERO MUL SWAP1 PUSH1 0x40 MLOAD PUSH1 0x0 PUSH1 0x40 MLOAD DUP1 DUP4 SUB DUP2 DUP6 DUP9 DUP9 CALL SWAP4 POP POP POP POP ISZERO DUP1 ISZERO PUSH2 0xC42 JUMPI RETURNDATASIZE PUSH1 0x0 DUP1 RETURNDATACOPY RETURNDATASIZE PUSH1 0x0 REVERT JUMPDEST POP PUSH1 0x1 PUSH1 0x6 PUSH1 0x14 PUSH2 0x100 EXP DUP2 SLOAD DUP2 PUSH1 0xFF MUL NOT AND SWAP1 DUP4 ISZERO ISZERO MUL OR SWAP1 SSTORE POP JUMP JUMPDEST PUSH1 0x5 DUP2 DUP2 SLOAD DUP2 LT PUSH2 0xC70 JUMPI PUSH1 0x0 DUP1 REVERT JUMPDEST SWAP1 PUSH1 0x0 MSTORE PUSH1 0x20 PUSH1 0x0 KECCAK256 ADD PUSH1 0x0 SWAP2 POP SWAP1 POP DUP1 SLOAD PUSH2 0xC8B SWAP1 PUSH2 0x14A3 JUMP JUMPDEST DUP1 PUSH1 0x1F ADD PUSH1 0x20 DUP1 SWAP2 DIV MUL PUSH1 0x20 ADD PUSH1 0x40 MLOAD SWAP1 DUP2 ADD PUSH1 0x40 MSTORE DUP1 SWAP3 SWAP2 SWAP1 DUP2 DUP2 MSTORE PUSH1 0x20 ADD DUP3 DUP1 SLOAD PUSH2 0xCB7 SWAP1 PUSH2 0x14A3 JUMP JUMPDEST DUP1 ISZERO PUSH2 0xD04 JUMPI DUP1 PUSH1 0x1F LT PUSH2 0xCD9 JUMPI PUSH2 0x100 DUP1 DUP4 SLOAD DIV MUL DUP4 MSTORE SWAP2 PUSH1 0x20 ADD SWAP2 PUSH2 0xD04 JUMP JUMPDEST DUP3 ADD SWAP2 SWAP1 PUSH1 0x0 MSTORE PUSH1 0x20 PUSH1 0x0 KECCAK256 SWAP1 JUMPDEST DUP2 SLOAD DUP2 MSTORE SWAP1 PUSH1 0x1 ADD SWAP1 PUSH1 0x20 ADD DUP1 DUP4 GT PUSH2 0xCE7 JUMPI DUP3 SWAP1 SUB PUSH1 0x1F AND DUP3 ADD SWAP2 JUMPDEST POP POP POP POP POP DUP2 JUMP JUMPDEST PUSH1 0x1 DUP1 SLOAD PUSH2 0xD19 SWAP1 PUSH2 0x14A3 JUMP JUMPDEST DUP1 PUSH1 0x1F ADD PUSH1 0x20 DUP1 SWAP2 DIV MUL PUSH1 0x20 ADD PUSH1 0x40 MLOAD SWAP1 DUP2 ADD PUSH1 0x40 MSTORE DUP1 SWAP3 SWAP2 SWAP1 DUP2 DUP2 MSTORE PUSH1 0x20 ADD DUP3 DUP1 SLOAD PUSH2 0xD45 SWAP1 PUSH2 0x14A3 JUMP JUMPDEST DUP1 ISZERO PUSH2 0xD92 JUMPI DUP1 PUSH1 0x1F LT PUSH2 0xD67 JUMPI PUSH2 0x100 DUP1 DUP4 SLOAD DIV MUL DUP4 MSTORE SWAP2 PUSH1 0x20 ADD SWAP2 PUSH2 0xD92 JUMP JUMPDEST DUP3 ADD SWAP2 SWAP1 PUSH1 0x0 MSTORE PUSH1 0x20 PUSH1 0x0 KECCAK256 SWAP1 JUMPDEST DUP2 SLOAD DUP2 MSTORE SWAP1 PUSH1 0x1 ADD SWAP1 PUSH1 0x20 ADD DUP1 DUP4 GT PUSH2 0xD75 JUMPI DUP3 SWAP1 SUB PUSH1 0x1F AND DUP3 ADD SWAP2 JUMPDEST POP POP POP POP POP DUP2 JUMP JUMPDEST PUSH1 0x6 PUSH1 0x14 SWAP1 SLOAD SWAP1 PUSH2 0x100 EXP SWAP1 DIV PUSH1 0xFF AND DUP2 JUMP JUMPDEST PUSH1 0x4 DUP1 SLOAD PUSH2 0xDBA SWAP1 PUSH2 0x14A3 JUMP JUMPDEST DUP1 PUSH1 0x1F ADD PUSH1 0x20 DUP1 SWAP2 DIV MUL PUSH1 0x20 ADD PUSH1 0x40 MLOAD SWAP1 DUP2 ADD PUSH1 0x40 MSTORE DUP1 SWAP3 SWAP2 SWAP1 DUP2 DUP2 MSTORE PUSH1 0x20 ADD DUP3 DUP1 SLOAD PUSH2 0xDE6 SWAP1 PUSH2 0x14A3 JUMP JUMPDEST DUP1 ISZERO PUSH2 0xE33 JUMPI DUP1 PUSH1 0x1F LT PUSH2 0xE08 JUMPI PUSH2 0x100 DUP1 DUP4 SLOAD DIV MUL DUP4 MSTORE SWAP2 PUSH1 0x20 ADD SWAP2 PUSH2 0xE33 JUMP JUMPDEST DUP3 ADD SWAP2 SWAP1 PUSH1 0x0 MSTORE PUSH1 0x20 PUSH1 0x0 KECCAK256 SWAP1 JUMPDEST DUP2 SLOAD DUP2 MSTORE SWAP1 PUSH1 0x1 ADD SWAP1 PUSH1 0x20 ADD DUP1 DUP4 GT PUSH2 0xE16 JUMPI DUP3 SWAP1 SUB PUSH1 0x1F AND DUP3 ADD SWAP2 JUMPDEST POP POP POP POP POP DUP2 JUMP JUMPDEST DUP3 DUP1 SLOAD PUSH2 0xE47 SWAP1 PUSH2 0x14A3 JUMP JUMPDEST SWAP1 PUSH1 0x0 MSTORE PUSH1 0x20 PUSH1 0x0 KECCAK256 SWAP1 PUSH1 0x1F ADD PUSH1 0x20 SWAP1 DIV DUP2 ADD SWAP3 DUP3 PUSH2 0xE69 JUMPI PUSH1 0x0 DUP6 SSTORE PUSH2 0xEB0 JUMP JUMPDEST DUP3 PUSH1 0x1F LT PUSH2 0xE82 JUMPI DUP1 MLOAD PUSH1 0xFF NOT AND DUP4 DUP1 ADD OR DUP6 SSTORE PUSH2 0xEB0 JUMP JUMPDEST DUP3 DUP1 ADD PUSH1 0x1 ADD DUP6 SSTORE DUP3 ISZERO PUSH2 0xEB0 JUMPI SWAP2 DUP3 ADD JUMPDEST DUP3 DUP2 GT ISZERO PUSH2 0xEAF JUMPI DUP3 MLOAD DUP3 SSTORE SWAP2 PUSH1 0x20 ADD SWAP2 SWAP1 PUSH1 0x1 ADD SWAP1 PUSH2 0xE94 JUMP JUMPDEST JUMPDEST POP SWAP1 POP PUSH2 0xEBD SWAP2 SWAP1 PUSH2 0xEC1 JUMP JUMPDEST POP SWAP1 JUMP JUMPDEST JUMPDEST DUP1 DUP3 GT ISZERO PUSH2 0xEDA JUMPI PUSH1 0x0 DUP2 PUSH1 0x0 SWAP1 SSTORE POP PUSH1 0x1 ADD PUSH2 0xEC2 JUMP JUMPDEST POP SWAP1 JUMP JUMPDEST PUSH1 0x0 DUP2 MLOAD SWAP1 POP SWAP2 SWAP1 POP JUMP JUMPDEST PUSH1 0x0 DUP3 DUP3 MSTORE PUSH1 0x20 DUP3 ADD SWAP1 POP SWAP3 SWAP2 POP POP JUMP JUMPDEST PUSH1 0x0 JUMPDEST DUP4 DUP2 LT ISZERO PUSH2 0xF18 JUMPI DUP1 DUP3 ADD MLOAD DUP2 DUP5 ADD MSTORE PUSH1 0x20 DUP2 ADD SWAP1 POP PUSH2 0xEFD JUMP JUMPDEST DUP4 DUP2 GT ISZERO PUSH2 0xF27 JUMPI PUSH1 0x0 DUP5 DUP5 ADD MSTORE JUMPDEST POP POP POP POP JUMP JUMPDEST PUSH1 0x0 PUSH1 0x1F NOT PUSH1 0x1F DUP4 ADD AND SWAP1 POP SWAP2 SWAP1 POP JUMP JUMPDEST PUSH1 0x0 PUSH2 0xF49 DUP3 PUSH2 0xEDE JUMP JUMPDEST PUSH2 0xF53 DUP2 DUP6 PUSH2 0xEE9 JUMP JUMPDEST SWAP4 POP PUSH2 0xF63 DUP2 DUP6 PUSH1 0x20 DUP7 ADD PUSH2 0xEFA JUMP JUMPDEST PUSH2 0xF6C DUP2 PUSH2 0xF2D JUMP JUMPDEST DUP5 ADD SWAP2 POP POP SWAP3 SWAP2 POP POP JUMP JUMPDEST PUSH1 0x0 PUSH1 0x20 DUP3 ADD SWAP1 POP DUP2 DUP2 SUB PUSH1 0x0 DUP4 ADD MSTORE PUSH2 0xF91 DUP2 DUP5 PUSH2 0xF3E JUMP JUMPDEST SWAP1 POP SWAP3 SWAP2 POP POP JUMP JUMPDEST PUSH1 0x0 PUSH1 0x40 MLOAD SWAP1 POP SWAP1 JUMP JUMPDEST PUSH1 0x0 DUP1 REVERT JUMPDEST PUSH1 0x0 DUP1 REVERT JUMPDEST PUSH1 0x0 DUP1 REVERT JUMPDEST PUSH1 0x0 DUP1 REVERT JUMPDEST PUSH32 0x4E487B7100000000000000000000000000000000000000000000000000000000 PUSH1 0x0 MSTORE PUSH1 0x41 PUSH1 0x4 MSTORE PUSH1 0x24 PUSH1 0x0 REVERT JUMPDEST PUSH2 0xFEF DUP3 PUSH2 0xF2D JUMP JUMPDEST DUP2 ADD DUP2 DUP2 LT PUSH8 0xFFFFFFFFFFFFFFFF DUP3 GT OR ISZERO PUSH2 0x100E JUMPI PUSH2 0x100D PUSH2 0xFB7 JUMP JUMPDEST JUMPDEST DUP1 PUSH1 0x40 MSTORE POP POP POP JUMP JUMPDEST PUSH1 0x0 PUSH2 0x1021 PUSH2 0xF99 JUMP JUMPDEST SWAP1 POP PUSH2 0x102D DUP3 DUP3 PUSH2 0xFE6 JUMP JUMPDEST SWAP2 SWAP1 POP JUMP JUMPDEST PUSH1 0x0 PUSH8 0xFFFFFFFFFFFFFFFF DUP3 GT ISZERO PUSH2 0x104D JUMPI PUSH2 0x104C PUSH2 0xFB7 JUMP JUMPDEST JUMPDEST PUSH2 0x1056 DUP3 PUSH2 0xF2D JUMP JUMPDEST SWAP1 POP PUSH1 0x20 DUP2 ADD SWAP1 POP SWAP2 SWAP1 POP JUMP JUMPDEST DUP3 DUP2 DUP4 CALLDATACOPY PUSH1 0x0 DUP4 DUP4 ADD MSTORE POP POP POP JUMP JUMPDEST PUSH1 0x0 PUSH2 0x1085 PUSH2 0x1080 DUP5 PUSH2 0x1032 JUMP JUMPDEST PUSH2 0x1017 JUMP JUMPDEST SWAP1 POP DUP3 DUP2 MSTORE PUSH1 0x20 DUP2 ADD DUP5 DUP5 DUP5 ADD GT ISZERO PUSH2 0x10A1 JUMPI PUSH2 0x10A0 PUSH2 0xFB2 JUMP JUMPDEST JUMPDEST PUSH2 0x10AC DUP5 DUP3 DUP6 PUSH2 0x1063 JUMP JUMPDEST POP SWAP4 SWAP3 POP POP POP JUMP JUMPDEST PUSH1 0x0 DUP3 PUSH1 0x1F DUP4 ADD SLT PUSH2 0x10C9 JUMPI PUSH2 0x10C8 PUSH2 0xFAD JUMP JUMPDEST JUMPDEST DUP2 CALLDATALOAD PUSH2 0x10D9 DUP5 DUP3 PUSH1 0x20 DUP7 ADD PUSH2 0x1072 JUMP JUMPDEST SWAP2 POP POP SWAP3 SWAP2 POP POP JUMP JUMPDEST PUSH1 0x0 PUSH1 0x20 DUP3 DUP5 SUB SLT ISZERO PUSH2 0x10F8 JUMPI PUSH2 0x10F7 PUSH2 0xFA3 JUMP JUMPDEST JUMPDEST PUSH1 0x0 DUP3 ADD CALLDATALOAD PUSH8 0xFFFFFFFFFFFFFFFF DUP2 GT ISZERO PUSH2 0x1116 JUMPI PUSH2 0x1115 PUSH2 0xFA8 JUMP JUMPDEST JUMPDEST PUSH2 0x1122 DUP5 DUP3 DUP6 ADD PUSH2 0x10B4 JUMP JUMPDEST SWAP2 POP POP SWAP3 SWAP2 POP POP JUMP JUMPDEST PUSH1 0x0 PUSH20 0xFFFFFFFFFFFFFFFFFFFFFFFFFFFFFFFFFFFFFFFF DUP3 AND SWAP1 POP SWAP2 SWAP1 POP JUMP JUMPDEST PUSH1 0x0 PUSH2 0x1156 DUP3 PUSH2 0x112B JUMP JUMPDEST SWAP1 POP SWAP2 SWAP1 POP JUMP JUMPDEST PUSH2 0x1166 DUP2 PUSH2 0x114B JUMP JUMPDEST DUP3 MSTORE POP POP JUMP JUMPDEST PUSH1 0x0 PUSH1 0x20 DUP3 ADD SWAP1 POP PUSH2 0x1181 PUSH1 0x0 DUP4 ADD DUP5 PUSH2 0x115D JUMP JUMPDEST SWAP3 SWAP2 POP POP JUMP JUMPDEST PUSH1 0x0 DUP2 MLOAD SWAP1 POP SWAP2 SWAP1 POP JUMP JUMPDEST PUSH1 0x0 DUP3 DUP3 MSTORE PUSH1 0x20 DUP3 ADD SWAP1 POP SWAP3 SWAP2 POP POP JUMP JUMPDEST PUSH1 0x0 DUP2 SWAP1 POP PUSH1 0x20 DUP3 ADD SWAP1 POP SWAP2 SWAP1 POP JUMP JUMPDEST PUSH1 0x0 DUP3 DUP3 MSTORE PUSH1 0x20 DUP3 ADD SWAP1 POP SWAP3 SWAP2 POP POP JUMP JUMPDEST PUSH1 0x0 PUSH2 0x11CF DUP3 PUSH2 0xEDE JUMP JUMPDEST PUSH2 0x11D9 DUP2 DUP6 PUSH2 0x11B3 JUMP JUMPDEST SWAP4 POP PUSH2 0x11E9 DUP2 DUP6 PUSH1 0x20 DUP7 ADD PUSH2 0xEFA JUMP JUMPDEST PUSH2 0x11F2 DUP2 PUSH2 0xF2D JUMP JUMPDEST DUP5 ADD SWAP2 POP POP SWAP3 SWAP2 POP POP JUMP JUMPDEST PUSH1 0x0 PUSH2 0x1209 DUP4 DUP4 PUSH2 0x11C4 JUMP JUMPDEST SWAP1 POP SWAP3 SWAP2 POP POP JUMP JUMPDEST PUSH1 0x0 PUSH1 0x20 DUP3 ADD SWAP1 POP SWAP2 SWAP1 POP JUMP JUMPDEST PUSH1 0x0 PUSH2 0x1229 DUP3 PUSH2 0x1187 JUMP JUMPDEST PUSH2 0x1233 DUP2 DUP6 PUSH2 0x1192 JUMP JUMPDEST SWAP4 POP DUP4 PUSH1 0x20 DUP3 MUL DUP6 ADD PUSH2 0x1245 DUP6 PUSH2 0x11A3 JUMP JUMPDEST DUP1 PUSH1 0x0 JUMPDEST DUP6 DUP2 LT ISZERO PUSH2 0x1281 JUMPI DUP5 DUP5 SUB DUP10 MSTORE DUP2 MLOAD PUSH2 0x1262 DUP6 DUP3 PUSH2 0x11FD JUMP JUMPDEST SWAP5 POP PUSH2 0x126D DUP4 PUSH2 0x1211 JUMP JUMPDEST SWAP3 POP PUSH1 0x20 DUP11 ADD SWAP10 POP POP PUSH1 0x1 DUP2 ADD SWAP1 POP PUSH2 0x1249 JUMP JUMPDEST POP DUP3 SWAP8 POP DUP8 SWAP6 POP POP POP POP POP POP SWAP3 SWAP2 POP POP JUMP JUMPDEST PUSH1 0x0 DUP2 ISZERO ISZERO SWAP1 POP SWAP2 SWAP1 POP JUMP JUMPDEST PUSH2 0x12A8 DUP2 PUSH2 0x1293 JUMP JUMPDEST DUP3 MSTORE POP POP JUMP JUMPDEST PUSH1 0x0 PUSH1 0xE0 DUP3 ADD SWAP1 POP PUSH2 0x12C3 PUSH1 0x0 DUP4 ADD DUP11 PUSH2 0x115D JUMP JUMPDEST DUP2 DUP2 SUB PUSH1 0x20 DUP4 ADD MSTORE PUSH2 0x12D5 DUP2 DUP10 PUSH2 0xF3E JUMP JUMPDEST SWAP1 POP DUP2 DUP2 SUB PUSH1 0x40 DUP4 ADD MSTORE PUSH2 0x12E9 DUP2 DUP9 PUSH2 0x121E JUMP JUMPDEST SWAP1 POP DUP2 DUP2 SUB PUSH1 0x60 DUP4 ADD MSTORE PUSH2 0x12FD DUP2 DUP8 PUSH2 0xF3E JUMP JUMPDEST SWAP1 POP DUP2 DUP2 SUB PUSH1 0x80 DUP4 ADD MSTORE PUSH2 0x1311 DUP2 DUP7 PUSH2 0xF3E JUMP JUMPDEST SWAP1 POP PUSH2 0x1320 PUSH1 0xA0 DUP4 ADD DUP6 PUSH2 0x115D JUMP JUMPDEST PUSH2 0x132D PUSH1 0xC0 DUP4 ADD DUP5 PUSH2 0x129F JUMP JUMPDEST SWAP9 SWAP8 POP POP POP POP POP POP POP POP JUMP JUMPDEST PUSH1 0x0 PUSH1 0x20 DUP3 ADD SWAP1 POP DUP2 DUP2 SUB PUSH1 0x0 DUP4 ADD MSTORE PUSH2 0x1353 DUP2 DUP5 PUSH2 0x121E JUMP JUMPDEST SWAP1 POP SWAP3 SWAP2 POP POP JUMP JUMPDEST PUSH1 0x0 PUSH2 0x1366 DUP3 PUSH2 0x112B JUMP JUMPDEST SWAP1 POP SWAP2 SWAP1 POP JUMP JUMPDEST PUSH2 0x1376 DUP2 PUSH2 0x135B JUMP JUMPDEST DUP2 EQ PUSH2 0x1381 JUMPI PUSH1 0x0 DUP1 REVERT JUMPDEST POP JUMP JUMPDEST PUSH1 0x0 DUP2 CALLDATALOAD SWAP1 POP PUSH2 0x1393 DUP2 PUSH2 0x136D JUMP JUMPDEST SWAP3 SWAP2 POP POP JUMP JUMPDEST PUSH1 0x0 PUSH1 0x20 DUP3 DUP5 SUB SLT ISZERO PUSH2 0x13AF JUMPI PUSH2 0x13AE PUSH2 0xFA3 JUMP JUMPDEST JUMPDEST PUSH1 0x0 PUSH2 0x13BD DUP5 DUP3 DUP6 ADD PUSH2 0x1384 JUMP JUMPDEST SWAP2 POP POP SWAP3 SWAP2 POP POP JUMP JUMPDEST PUSH1 0x0 DUP2 SWAP1 POP SWAP2 SWAP1 POP JUMP JUMPDEST PUSH2 0x13D9 DUP2 PUSH2 0x13C6 JUMP JUMPDEST DUP2 EQ PUSH2 0x13E4 JUMPI PUSH1 0x0 DUP1 REVERT JUMPDEST POP JUMP JUMPDEST PUSH1 0x0 DUP2 CALLDATALOAD SWAP1 POP PUSH2 0x13F6 DUP2 PUSH2 0x13D0 JUMP JUMPDEST SWAP3 SWAP2 POP POP JUMP JUMPDEST PUSH1 0x0 PUSH1 0x20 DUP3 DUP5 SUB SLT ISZERO PUSH2 0x1412 JUMPI PUSH2 0x1411 PUSH2 0xFA3 JUMP JUMPDEST JUMPDEST PUSH1 0x0 PUSH2 0x1420 DUP5 DUP3 DUP6 ADD PUSH2 0x13E7 JUMP JUMPDEST SWAP2 POP POP SWAP3 SWAP2 POP POP JUMP JUMPDEST PUSH1 0x0 PUSH1 0x40 DUP3 ADD SWAP1 POP DUP2 DUP2 SUB PUSH1 0x0 DUP4 ADD MSTORE PUSH2 0x1443 DUP2 DUP6 PUSH2 0xF3E JUMP JUMPDEST SWAP1 POP PUSH2 0x1452 PUSH1 0x20 DUP4 ADD DUP5 PUSH2 0x129F JUMP JUMPDEST SWAP4 SWAP3 POP POP POP JUMP JUMPDEST PUSH1 0x0 PUSH1 0x20 DUP3 ADD SWAP1 POP PUSH2 0x146E PUSH1 0x0 DUP4 ADD DUP5 PUSH2 0x129F JUMP JUMPDEST SWAP3 SWAP2 POP POP JUMP JUMPDEST PUSH32 0x4E487B7100000000000000000000000000000000000000000000000000000000 PUSH1 0x0 MSTORE PUSH1 0x22 PUSH1 0x4 MSTORE PUSH1 0x24 PUSH1 0x0 REVERT JUMPDEST PUSH1 0x0 PUSH1 0x2 DUP3 DIV SWAP1 POP PUSH1 0x1 DUP3 AND DUP1 PUSH2 0x14BB JUMPI PUSH1 0x7F DUP3 AND SWAP2 POP JUMPDEST PUSH1 0x20 DUP3 LT DUP2 SUB PUSH2 0x14CE JUMPI PUSH2 0x14CD PUSH2 0x1474 JUMP JUMPDEST JUMPDEST POP SWAP2 SWAP1 POP JUMP INVALID LOG2 PUSH5 0x6970667358 0x22 SLT KECCAK256 MSTORE SLOAD PUSH21 0x26C5F80D42F18AD038598E0871DB7C17213D8E0615 0xDB PUSH26 0x156BBE553E6F64736F6C634300080E0033000000000000000000 "},"gasEstimates":{"creation":{"codeDepositCost":"1077200","executionCost":"infinite","totalCost":"infinite"},"external":{"creaetRequest(string)":"infinite","finalizeTask()":"infinite","getHashtags()":"infinite","getInfo()":"infinite","isCompleted()":"2587","killTask()":"infinite","manager()":"2534","requests(address)":"infinite","startTask(address)":"29161","taskDescription()":"infinite","taskFiles(uint256)":"infinite","taskHashtags(uint256)":"infinite","taskName()":"infinite","taskSphere()":"infinite","worker()":"2559"}},"methodIdentifiers":{"creaetRequest(string)":"31c3a6f5","finalizeTask()":"a20fca5a","getHashtags()":"5e1c7322","getInfo()":"5a9b0b89","isCompleted()":"fa391c64","killTask()":"231e407a","manager()":"481c6a75","requests(address)":"74adad1d","startTask(address)":"5f51c765","taskDescription()":"fbc03a1e","taskFiles(uint256)":"71096387","taskHashtags(uint256)":"af84a013","taskName()":"001aea77","taskSphere()":"dea4e339","worker()":"4d547ada"}},"storageLayout":{"storage":[{"astId":81,"contract":"Task.sol:Task","label":"manager","offset":0,"slot":"0","type":"t_address_payable"},{"astId":83,"contract":"Task.sol:Task","label":"taskSphere","offset":0,"slot":"1","type":"t_string_storage"},{"astId":85,"contract":"Task.sol:Task","label":"taskName","offset":0,"slot":"2","type":"t_string_storage"},{"astId":88,"contract":"Task.sol:Task","label":"taskFiles","offset":0,"slot":"3","type":"t_array(t_string_storage)dyn_storage"},{"astId":90,"contract":"Task.sol:Task","label":"taskDescription","offset":0,"slot":"4","type":"t_string_storage"},{"astId":93,"contract":"Task.sol:Task","label":"taskHashtags","offset":0,"slot":"5","type":"t_array(t_string_storage)dyn_storage"},{"astId":95,"contract":"Task.sol:Task","label":"worker","offset":0,"slot":"6","type":"t_address_payable"},{"astId":97,"contract":"Task.sol:Task","label":"isCompleted","offset":20,"slot":"6","type":"t_bool"},{"astId":102,"contract":"Task.sol:Task","label":"requests","offset":0,"slot":"7","type":"t_mapping(t_address,t_struct(Request)79_storage)"}],"types":{"t_address":{"encoding":"inplace","label":"address","numberOfBytes":"20"},"t_address_payable":{"encoding":"inplace","label":"address payable","numberOfBytes":"20"},"t_array(t_string_storage)dyn_storage":{"base":"t_string_storage","encoding":"dynamic_array","label":"string[]","numberOfBytes":"32"},"t_bool":{"encoding":"inplace","label":"bool","numberOfBytes":"1"},"t_mapping(t_address,t_struct(Request)79_storage)":{"encoding":"mapping","key":"t_address","label":"mapping(address => struct Task.Request)","numberOfBytes":"32","value":"t_struct(Request)79_storage"},"t_string_storage":{"encoding":"bytes","label":"string","numberOfBytes":"32"},"t_struct(Request)79_storage":{"encoding":"inplace","label":"struct Task.Request","members":[{"astId":76,"contract":"Task.sol:Task","label":"description","offset":0,"slot":"0","type":"t_string_storage"},{"astId":78,"contract":"Task.sol:Task","label":"exist","offset":0,"slot":"1","type":"t_bool"}],"numberOfBytes":"64"}}},"userdoc":{"kind":"user","methods":{},"version":1}}