{"abi":[{"inputs":[{"internalType":"uint256","name":"","type":"uint256"}],"name":"allTasks","outputs":[{"internalType":"address","name":"","type":"address"}],"stateMutability":"view","type":"function"},{"inputs":[{"internalType":"string","name":"header","type":"string"},{"internalType":"string","name":"description","type":"string"},{"internalType":"string","name":"sphere","type":"string"},{"internalType":"string[]","name":"files","type":"string[]"},{"internalType":"string[]","name":"skills","type":"string[]"}],"name":"createTask","outputs":[{"internalType":"address","name":"","type":"address"}],"stateMutability":"payable","type":"function"},{"inputs":[],"name":"getAllTasks","outputs":[{"internalType":"address[]","name":"","type":"address[]"}],"stateMutability":"view","type":"function"}],"devdoc":{"kind":"dev","methods":{},"version":1},"evm":{"assembly":"    /* \"Task.sol\":60:802  contract TaskFactory {... */\n  mstore(0x40, 0x80)\n  callvalue\n  dup1\n  iszero\n  tag_1\n  jumpi\n  0x00\n  dup1\n  revert\ntag_1:\n  pop\n  dataSize(sub_0)\n  dup1\n  dataOffset(sub_0)\n  0x00\n  codecopy\n  0x00\n  return\nstop\n\nsub_0: assembly {\n        /* \"Task.sol\":60:802  contract TaskFactory {... */\n      mstore(0x40, 0x80)\n      jumpi(tag_1, lt(calldatasize, 0x04))\n      shr(0xe0, calldataload(0x00))\n      dup1\n      0x3f90b454\n      eq\n      tag_2\n      jumpi\n      dup1\n      0x779900b4\n      eq\n      tag_3\n      jumpi\n      dup1\n      0xd01d4764\n      eq\n      tag_4\n      jumpi\n    tag_1:\n      0x00\n      dup1\n      revert\n        /* \"Task.sol\":88:113  address[] public allTasks */\n    tag_2:\n      callvalue\n      dup1\n      iszero\n      tag_5\n      jumpi\n      0x00\n      dup1\n      revert\n    tag_5:\n      pop\n      tag_6\n      0x04\n      dup1\n      calldatasize\n      sub\n      dup2\n      add\n      swap1\n      tag_7\n      swap2\n      swap1\n      tag_8\n      jump\t// in\n    tag_7:\n      tag_9\n      jump\t// in\n    tag_6:\n      mload(0x40)\n      tag_10\n      swap2\n      swap1\n      tag_11\n      jump\t// in\n    tag_10:\n      mload(0x40)\n      dup1\n      swap2\n      sub\n      swap1\n      return\n        /* \"Task.sol\":703:799  function getAllTasks() public view returns (address[] memory) {... */\n    tag_3:\n      callvalue\n      dup1\n      iszero\n      tag_12\n      jumpi\n      0x00\n      dup1\n      revert\n    tag_12:\n      pop\n      tag_13\n      tag_14\n      jump\t// in\n    tag_13:\n      mload(0x40)\n      tag_15\n      swap2\n      swap1\n      tag_16\n      jump\t// in\n    tag_15:\n      mload(0x40)\n      dup1\n      swap2\n      sub\n      swap1\n      return\n        /* \"Task.sol\":122:695  function createTask(... */\n    tag_4:\n      tag_17\n      0x04\n      dup1\n      calldatasize\n      sub\n      dup2\n      add\n      swap1\n      tag_18\n      swap2\n      swap1\n      tag_19\n      jump\t// in\n    tag_18:\n      tag_20\n      jump\t// in\n    tag_17:\n      mload(0x40)\n      tag_21\n      swap2\n      swap1\n      tag_11\n      jump\t// in\n    tag_21:\n      mload(0x40)\n      dup1\n      swap2\n      sub\n      swap1\n      return\n        /* \"Task.sol\":88:113  address[] public allTasks */\n    tag_9:\n      0x00\n      dup2\n      dup2\n      sload\n      dup2\n      lt\n      tag_22\n      jumpi\n      0x00\n      dup1\n      revert\n    tag_22:\n      swap1\n      0x00\n      mstore\n      keccak256(0x00, 0x20)\n      add\n      0x00\n      swap2\n      pop\n      sload\n      swap1\n      0x0100\n      exp\n      swap1\n      div\n      0xffffffffffffffffffffffffffffffffffffffff\n      and\n      dup2\n      jump\t// out\n        /* \"Task.sol\":703:799  function getAllTasks() public view returns (address[] memory) {... */\n    tag_14:\n        /* \"Task.sol\":747:763  address[] memory */\n      0x60\n        /* \"Task.sol\":783:791  allTasks */\n      0x00\n        /* \"Task.sol\":776:791  return allTasks */\n      dup1\n      sload\n      dup1\n      0x20\n      mul\n      0x20\n      add\n      mload(0x40)\n      swap1\n      dup2\n      add\n      0x40\n      mstore\n      dup1\n      swap3\n      swap2\n      swap1\n      dup2\n      dup2\n      mstore\n      0x20\n      add\n      dup3\n      dup1\n      sload\n      dup1\n      iszero\n      tag_25\n      jumpi\n      0x20\n      mul\n      dup3\n      add\n      swap2\n      swap1\n      0x00\n      mstore\n      keccak256(0x00, 0x20)\n      swap1\n    tag_26:\n      dup2\n      0x00\n      swap1\n      sload\n      swap1\n      0x0100\n      exp\n      swap1\n      div\n      0xffffffffffffffffffffffffffffffffffffffff\n      and\n      0xffffffffffffffffffffffffffffffffffffffff\n      and\n      dup2\n      mstore\n      0x20\n      add\n      swap1\n      0x01\n      add\n      swap1\n      dup1\n      dup4\n      gt\n      tag_26\n      jumpi\n    tag_25:\n      pop\n      pop\n      pop\n      pop\n      pop\n      swap1\n      pop\n        /* \"Task.sol\":703:799  function getAllTasks() public view returns (address[] memory) {... */\n      swap1\n      jump\t// out\n        /* \"Task.sol\":122:695  function createTask(... */\n    tag_20:\n        /* \"Task.sol\":336:343  address */\n      0x00\n        /* \"Task.sol\":356:368  Task newTask */\n      dup1\n        /* \"Task.sol\":387:396  msg.value */\n      callvalue\n        /* \"Task.sol\":412:418  header */\n      dup8\n        /* \"Task.sol\":433:444  description */\n      dup8\n        /* \"Task.sol\":459:465  sphere */\n      dup8\n        /* \"Task.sol\":480:485  files */\n      dup8\n        /* \"Task.sol\":500:506  skills */\n      dup8\n        /* \"Task.sol\":521:531  msg.sender */\n      caller\n        /* \"Task.sol\":546:561  block.timestamp */\n      timestamp\n        /* \"Task.sol\":371:572  new Task{value: msg.value}(... */\n      mload(0x40)\n      tag_28\n      swap1\n      tag_29\n      jump\t// in\n    tag_28:\n      tag_30\n      swap8\n      swap7\n      swap6\n      swap5\n      swap4\n      swap3\n      swap2\n      swap1\n      tag_31\n      jump\t// in\n    tag_30:\n      mload(0x40)\n      dup1\n      swap2\n      sub\n      swap1\n      dup3\n      create\n      swap1\n      pop\n      dup1\n      iszero\n      dup1\n      iszero\n      tag_32\n      jumpi\n      returndatasize\n      0x00\n      dup1\n      returndatacopy\n      revert(0x00, returndatasize)\n    tag_32:\n      pop\n        /* \"Task.sol\":356:572  Task newTask = new Task{value: msg.value}(... */\n      swap1\n      pop\n        /* \"Task.sol\":583:602  address taskAddress */\n      0x00\n        /* \"Task.sol\":613:620  newTask */\n      dup2\n        /* \"Task.sol\":583:621  address taskAddress = address(newTask) */\n      swap1\n      pop\n        /* \"Task.sol\":632:640  allTasks */\n      0x00\n        /* \"Task.sol\":646:657  taskAddress */\n      dup2\n        /* \"Task.sol\":632:658  allTasks.push(taskAddress) */\n      swap1\n      dup1\n      0x01\n      dup2\n      sload\n      add\n      dup1\n      dup3\n      sstore\n      dup1\n      swap2\n      pop\n      pop\n      0x01\n      swap1\n      sub\n      swap1\n      0x00\n      mstore\n      keccak256(0x00, 0x20)\n      add\n      0x00\n      swap1\n      swap2\n      swap1\n      swap2\n      swap1\n      swap2\n      0x0100\n      exp\n      dup2\n      sload\n      dup2\n      0xffffffffffffffffffffffffffffffffffffffff\n      mul\n      not\n      and\n      swap1\n      dup4\n      0xffffffffffffffffffffffffffffffffffffffff\n      and\n      mul\n      or\n      swap1\n      sstore\n      pop\n        /* \"Task.sol\":676:687  taskAddress */\n      dup1\n        /* \"Task.sol\":669:687  return taskAddress */\n      swap3\n      pop\n      pop\n      pop\n        /* \"Task.sol\":122:695  function createTask(... */\n      swap6\n      swap5\n      pop\n      pop\n      pop\n      pop\n      pop\n      jump\t// out\n    tag_29:\n      dataSize(sub_0)\n      dup1\n      dataOffset(sub_0)\n      dup4\n      codecopy\n      add\n      swap1\n      jump\t// out\n        /* \"#utility.yul\":7:82   */\n    tag_34:\n        /* \"#utility.yul\":40:46   */\n      0x00\n        /* \"#utility.yul\":73:75   */\n      0x40\n        /* \"#utility.yul\":67:76   */\n      mload\n        /* \"#utility.yul\":57:76   */\n      swap1\n      pop\n        /* \"#utility.yul\":7:82   */\n      swap1\n      jump\t// out\n        /* \"#utility.yul\":88:205   */\n    tag_35:\n        /* \"#utility.yul\":197:198   */\n      0x00\n        /* \"#utility.yul\":194:195   */\n      dup1\n        /* \"#utility.yul\":187:199   */\n      revert\n        /* \"#utility.yul\":211:328   */\n    tag_36:\n        /* \"#utility.yul\":320:321   */\n      0x00\n        /* \"#utility.yul\":317:318   */\n      dup1\n        /* \"#utility.yul\":310:322   */\n      revert\n        /* \"#utility.yul\":334:411   */\n    tag_37:\n        /* \"#utility.yul\":371:378   */\n      0x00\n        /* \"#utility.yul\":400:405   */\n      dup2\n        /* \"#utility.yul\":389:405   */\n      swap1\n      pop\n        /* \"#utility.yul\":334:411   */\n      swap2\n      swap1\n      pop\n      jump\t// out\n        /* \"#utility.yul\":417:539   */\n    tag_38:\n        /* \"#utility.yul\":490:514   */\n      tag_83\n        /* \"#utility.yul\":508:513   */\n      dup2\n        /* \"#utility.yul\":490:514   */\n      tag_37\n      jump\t// in\n    tag_83:\n        /* \"#utility.yul\":483:488   */\n      dup2\n        /* \"#utility.yul\":480:515   */\n      eq\n        /* \"#utility.yul\":470:533   */\n      tag_84\n      jumpi\n        /* \"#utility.yul\":529:530   */\n      0x00\n        /* \"#utility.yul\":526:527   */\n      dup1\n        /* \"#utility.yul\":519:531   */\n      revert\n        /* \"#utility.yul\":470:533   */\n    tag_84:\n        /* \"#utility.yul\":417:539   */\n      pop\n      jump\t// out\n        /* \"#utility.yul\":545:684   */\n    tag_39:\n        /* \"#utility.yul\":591:596   */\n      0x00\n        /* \"#utility.yul\":629:635   */\n      dup2\n        /* \"#utility.yul\":616:636   */\n      calldataload\n        /* \"#utility.yul\":607:636   */\n      swap1\n      pop\n        /* \"#utility.yul\":645:678   */\n      tag_86\n        /* \"#utility.yul\":672:677   */\n      dup2\n        /* \"#utility.yul\":645:678   */\n      tag_38\n      jump\t// in\n    tag_86:\n        /* \"#utility.yul\":545:684   */\n      swap3\n      swap2\n      pop\n      pop\n      jump\t// out\n        /* \"#utility.yul\":690:1019   */\n    tag_8:\n        /* \"#utility.yul\":749:755   */\n      0x00\n        /* \"#utility.yul\":798:800   */\n      0x20\n        /* \"#utility.yul\":786:795   */\n      dup3\n        /* \"#utility.yul\":777:784   */\n      dup5\n        /* \"#utility.yul\":773:796   */\n      sub\n        /* \"#utility.yul\":769:801   */\n      slt\n        /* \"#utility.yul\":766:885   */\n      iszero\n      tag_88\n      jumpi\n        /* \"#utility.yul\":804:883   */\n      tag_89\n      tag_35\n      jump\t// in\n    tag_89:\n        /* \"#utility.yul\":766:885   */\n    tag_88:\n        /* \"#utility.yul\":924:925   */\n      0x00\n        /* \"#utility.yul\":949:1002   */\n      tag_90\n        /* \"#utility.yul\":994:1001   */\n      dup5\n        /* \"#utility.yul\":985:991   */\n      dup3\n        /* \"#utility.yul\":974:983   */\n      dup6\n        /* \"#utility.yul\":970:992   */\n      add\n        /* \"#utility.yul\":949:1002   */\n      tag_39\n      jump\t// in\n    tag_90:\n        /* \"#utility.yul\":939:1002   */\n      swap2\n      pop\n        /* \"#utility.yul\":895:1012   */\n      pop\n        /* \"#utility.yul\":690:1019   */\n      swap3\n      swap2\n      pop\n      pop\n      jump\t// out\n        /* \"#utility.yul\":1025:1151   */\n    tag_40:\n        /* \"#utility.yul\":1062:1069   */\n      0x00\n        /* \"#utility.yul\":1102:1144   */\n      0xffffffffffffffffffffffffffffffffffffffff\n        /* \"#utility.yul\":1095:1100   */\n      dup3\n        /* \"#utility.yul\":1091:1145   */\n      and\n        /* \"#utility.yul\":1080:1145   */\n      swap1\n      pop\n        /* \"#utility.yul\":1025:1151   */\n      swap2\n      swap1\n      pop\n      jump\t// out\n        /* \"#utility.yul\":1157:1253   */\n    tag_41:\n        /* \"#utility.yul\":1194:1201   */\n      0x00\n        /* \"#utility.yul\":1223:1247   */\n      tag_93\n        /* \"#utility.yul\":1241:1246   */\n      dup3\n        /* \"#utility.yul\":1223:1247   */\n      tag_40\n      jump\t// in\n    tag_93:\n        /* \"#utility.yul\":1212:1247   */\n      swap1\n      pop\n        /* \"#utility.yul\":1157:1253   */\n      swap2\n      swap1\n      pop\n      jump\t// out\n        /* \"#utility.yul\":1259:1377   */\n    tag_42:\n        /* \"#utility.yul\":1346:1370   */\n      tag_95\n        /* \"#utility.yul\":1364:1369   */\n      dup2\n        /* \"#utility.yul\":1346:1370   */\n      tag_41\n      jump\t// in\n    tag_95:\n        /* \"#utility.yul\":1341:1344   */\n      dup3\n        /* \"#utility.yul\":1334:1371   */\n      mstore\n        /* \"#utility.yul\":1259:1377   */\n      pop\n      pop\n      jump\t// out\n        /* \"#utility.yul\":1383:1605   */\n    tag_11:\n        /* \"#utility.yul\":1476:1480   */\n      0x00\n        /* \"#utility.yul\":1514:1516   */\n      0x20\n        /* \"#utility.yul\":1503:1512   */\n      dup3\n        /* \"#utility.yul\":1499:1517   */\n      add\n        /* \"#utility.yul\":1491:1517   */\n      swap1\n      pop\n        /* \"#utility.yul\":1527:1598   */\n      tag_97\n        /* \"#utility.yul\":1595:1596   */\n      0x00\n        /* \"#utility.yul\":1584:1593   */\n      dup4\n        /* \"#utility.yul\":1580:1597   */\n      add\n        /* \"#utility.yul\":1571:1577   */\n      dup5\n        /* \"#utility.yul\":1527:1598   */\n      tag_42\n      jump\t// in\n    tag_97:\n        /* \"#utility.yul\":1383:1605   */\n      swap3\n      swap2\n      pop\n      pop\n      jump\t// out\n        /* \"#utility.yul\":1611:1725   */\n    tag_43:\n        /* \"#utility.yul\":1678:1684   */\n      0x00\n        /* \"#utility.yul\":1712:1717   */\n      dup2\n        /* \"#utility.yul\":1706:1718   */\n      mload\n        /* \"#utility.yul\":1696:1718   */\n      swap1\n      pop\n        /* \"#utility.yul\":1611:1725   */\n      swap2\n      swap1\n      pop\n      jump\t// out\n        /* \"#utility.yul\":1731:1915   */\n    tag_44:\n        /* \"#utility.yul\":1830:1841   */\n      0x00\n        /* \"#utility.yul\":1864:1870   */\n      dup3\n        /* \"#utility.yul\":1859:1862   */\n      dup3\n        /* \"#utility.yul\":1852:1871   */\n      mstore\n        /* \"#utility.yul\":1904:1908   */\n      0x20\n        /* \"#utility.yul\":1899:1902   */\n      dup3\n        /* \"#utility.yul\":1895:1909   */\n      add\n        /* \"#utility.yul\":1880:1909   */\n      swap1\n      pop\n        /* \"#utility.yul\":1731:1915   */\n      swap3\n      swap2\n      pop\n      pop\n      jump\t// out\n        /* \"#utility.yul\":1921:2053   */\n    tag_45:\n        /* \"#utility.yul\":1988:1992   */\n      0x00\n        /* \"#utility.yul\":2011:2014   */\n      dup2\n        /* \"#utility.yul\":2003:2014   */\n      swap1\n      pop\n        /* \"#utility.yul\":2041:2045   */\n      0x20\n        /* \"#utility.yul\":2036:2039   */\n      dup3\n        /* \"#utility.yul\":2032:2046   */\n      add\n        /* \"#utility.yul\":2024:2046   */\n      swap1\n      pop\n        /* \"#utility.yul\":1921:2053   */\n      swap2\n      swap1\n      pop\n      jump\t// out\n        /* \"#utility.yul\":2059:2167   */\n    tag_46:\n        /* \"#utility.yul\":2136:2160   */\n      tag_102\n        /* \"#utility.yul\":2154:2159   */\n      dup2\n        /* \"#utility.yul\":2136:2160   */\n      tag_41\n      jump\t// in\n    tag_102:\n        /* \"#utility.yul\":2131:2134   */\n      dup3\n        /* \"#utility.yul\":2124:2161   */\n      mstore\n        /* \"#utility.yul\":2059:2167   */\n      pop\n      pop\n      jump\t// out\n        /* \"#utility.yul\":2173:2352   */\n    tag_47:\n        /* \"#utility.yul\":2242:2252   */\n      0x00\n        /* \"#utility.yul\":2263:2309   */\n      tag_104\n        /* \"#utility.yul\":2305:2308   */\n      dup4\n        /* \"#utility.yul\":2297:2303   */\n      dup4\n        /* \"#utility.yul\":2263:2309   */\n      tag_46\n      jump\t// in\n    tag_104:\n        /* \"#utility.yul\":2341:2345   */\n      0x20\n        /* \"#utility.yul\":2336:2339   */\n      dup4\n        /* \"#utility.yul\":2332:2346   */\n      add\n        /* \"#utility.yul\":2318:2346   */\n      swap1\n      pop\n        /* \"#utility.yul\":2173:2352   */\n      swap3\n      swap2\n      pop\n      pop\n      jump\t// out\n        /* \"#utility.yul\":2358:2471   */\n    tag_48:\n        /* \"#utility.yul\":2428:2432   */\n      0x00\n        /* \"#utility.yul\":2460:2464   */\n      0x20\n        /* \"#utility.yul\":2455:2458   */\n      dup3\n        /* \"#utility.yul\":2451:2465   */\n      add\n        /* \"#utility.yul\":2443:2465   */\n      swap1\n      pop\n        /* \"#utility.yul\":2358:2471   */\n      swap2\n      swap1\n      pop\n      jump\t// out\n        /* \"#utility.yul\":2507:3239   */\n    tag_49:\n        /* \"#utility.yul\":2626:2629   */\n      0x00\n        /* \"#utility.yul\":2655:2709   */\n      tag_107\n        /* \"#utility.yul\":2703:2708   */\n      dup3\n        /* \"#utility.yul\":2655:2709   */\n      tag_43\n      jump\t// in\n    tag_107:\n        /* \"#utility.yul\":2725:2811   */\n      tag_108\n        /* \"#utility.yul\":2804:2810   */\n      dup2\n        /* \"#utility.yul\":2799:2802   */\n      dup6\n        /* \"#utility.yul\":2725:2811   */\n      tag_44\n      jump\t// in\n    tag_108:\n        /* \"#utility.yul\":2718:2811   */\n      swap4\n      pop\n        /* \"#utility.yul\":2835:2891   */\n      tag_109\n        /* \"#utility.yul\":2885:2890   */\n      dup4\n        /* \"#utility.yul\":2835:2891   */\n      tag_45\n      jump\t// in\n    tag_109:\n        /* \"#utility.yul\":2914:2921   */\n      dup1\n        /* \"#utility.yul\":2945:2946   */\n      0x00\n        /* \"#utility.yul\":2930:3214   */\n    tag_110:\n        /* \"#utility.yul\":2955:2961   */\n      dup4\n        /* \"#utility.yul\":2952:2953   */\n      dup2\n        /* \"#utility.yul\":2949:2962   */\n      lt\n        /* \"#utility.yul\":2930:3214   */\n      iszero\n      tag_112\n      jumpi\n        /* \"#utility.yul\":3031:3037   */\n      dup2\n        /* \"#utility.yul\":3025:3038   */\n      mload\n        /* \"#utility.yul\":3058:3121   */\n      tag_113\n        /* \"#utility.yul\":3117:3120   */\n      dup9\n        /* \"#utility.yul\":3102:3115   */\n      dup3\n        /* \"#utility.yul\":3058:3121   */\n      tag_47\n      jump\t// in\n    tag_113:\n        /* \"#utility.yul\":3051:3121   */\n      swap8\n      pop\n        /* \"#utility.yul\":3144:3204   */\n      tag_114\n        /* \"#utility.yul\":3197:3203   */\n      dup4\n        /* \"#utility.yul\":3144:3204   */\n      tag_48\n      jump\t// in\n    tag_114:\n        /* \"#utility.yul\":3134:3204   */\n      swap3\n      pop\n        /* \"#utility.yul\":2990:3214   */\n      pop\n        /* \"#utility.yul\":2977:2978   */\n      0x01\n        /* \"#utility.yul\":2974:2975   */\n      dup2\n        /* \"#utility.yul\":2970:2979   */\n      add\n        /* \"#utility.yul\":2965:2979   */\n      swap1\n      pop\n        /* \"#utility.yul\":2930:3214   */\n      jump(tag_110)\n    tag_112:\n        /* \"#utility.yul\":2934:2948   */\n      pop\n        /* \"#utility.yul\":3230:3233   */\n      dup6\n        /* \"#utility.yul\":3223:3233   */\n      swap4\n      pop\n        /* \"#utility.yul\":2631:3239   */\n      pop\n      pop\n      pop\n        /* \"#utility.yul\":2507:3239   */\n      swap3\n      swap2\n      pop\n      pop\n      jump\t// out\n        /* \"#utility.yul\":3245:3618   */\n    tag_16:\n        /* \"#utility.yul\":3388:3392   */\n      0x00\n        /* \"#utility.yul\":3426:3428   */\n      0x20\n        /* \"#utility.yul\":3415:3424   */\n      dup3\n        /* \"#utility.yul\":3411:3429   */\n      add\n        /* \"#utility.yul\":3403:3429   */\n      swap1\n      pop\n        /* \"#utility.yul\":3475:3484   */\n      dup2\n        /* \"#utility.yul\":3469:3473   */\n      dup2\n        /* \"#utility.yul\":3465:3485   */\n      sub\n        /* \"#utility.yul\":3461:3462   */\n      0x00\n        /* \"#utility.yul\":3450:3459   */\n      dup4\n        /* \"#utility.yul\":3446:3463   */\n      add\n        /* \"#utility.yul\":3439:3486   */\n      mstore\n        /* \"#utility.yul\":3503:3611   */\n      tag_116\n        /* \"#utility.yul\":3606:3610   */\n      dup2\n        /* \"#utility.yul\":3597:3603   */\n      dup5\n        /* \"#utility.yul\":3503:3611   */\n      tag_49\n      jump\t// in\n    tag_116:\n        /* \"#utility.yul\":3495:3611   */\n      swap1\n      pop\n        /* \"#utility.yul\":3245:3618   */\n      swap3\n      swap2\n      pop\n      pop\n      jump\t// out\n        /* \"#utility.yul\":3624:3741   */\n    tag_50:\n        /* \"#utility.yul\":3733:3734   */\n      0x00\n        /* \"#utility.yul\":3730:3731   */\n      dup1\n        /* \"#utility.yul\":3723:3735   */\n      revert\n        /* \"#utility.yul\":3747:3864   */\n    tag_51:\n        /* \"#utility.yul\":3856:3857   */\n      0x00\n        /* \"#utility.yul\":3853:3854   */\n      dup1\n        /* \"#utility.yul\":3846:3858   */\n      revert\n        /* \"#utility.yul\":3870:3972   */\n    tag_52:\n        /* \"#utility.yul\":3911:3917   */\n      0x00\n        /* \"#utility.yul\":3962:3964   */\n      0x1f\n        /* \"#utility.yul\":3958:3965   */\n      not\n        /* \"#utility.yul\":3953:3955   */\n      0x1f\n        /* \"#utility.yul\":3946:3951   */\n      dup4\n        /* \"#utility.yul\":3942:3956   */\n      add\n        /* \"#utility.yul\":3938:3966   */\n      and\n        /* \"#utility.yul\":3928:3966   */\n      swap1\n      pop\n        /* \"#utility.yul\":3870:3972   */\n      swap2\n      swap1\n      pop\n      jump\t// out\n        /* \"#utility.yul\":3978:4158   */\n    tag_53:\n        /* \"#utility.yul\":4026:4103   */\n      0x4e487b7100000000000000000000000000000000000000000000000000000000\n        /* \"#utility.yul\":4023:4024   */\n      0x00\n        /* \"#utility.yul\":4016:4104   */\n      mstore\n        /* \"#utility.yul\":4123:4127   */\n      0x41\n        /* \"#utility.yul\":4120:4121   */\n      0x04\n        /* \"#utility.yul\":4113:4128   */\n      mstore\n        /* \"#utility.yul\":4147:4151   */\n      0x24\n        /* \"#utility.yul\":4144:4145   */\n      0x00\n        /* \"#utility.yul\":4137:4152   */\n      revert\n        /* \"#utility.yul\":4164:4445   */\n    tag_54:\n        /* \"#utility.yul\":4247:4274   */\n      tag_122\n        /* \"#utility.yul\":4269:4273   */\n      dup3\n        /* \"#utility.yul\":4247:4274   */\n      tag_52\n      jump\t// in\n    tag_122:\n        /* \"#utility.yul\":4239:4245   */\n      dup2\n        /* \"#utility.yul\":4235:4275   */\n      add\n        /* \"#utility.yul\":4377:4383   */\n      dup2\n        /* \"#utility.yul\":4365:4375   */\n      dup2\n        /* \"#utility.yul\":4362:4384   */\n      lt\n        /* \"#utility.yul\":4341:4359   */\n      0xffffffffffffffff\n        /* \"#utility.yul\":4329:4339   */\n      dup3\n        /* \"#utility.yul\":4326:4360   */\n      gt\n        /* \"#utility.yul\":4323:4385   */\n      or\n        /* \"#utility.yul\":4320:4408   */\n      iszero\n      tag_123\n      jumpi\n        /* \"#utility.yul\":4388:4406   */\n      tag_124\n      tag_53\n      jump\t// in\n    tag_124:\n        /* \"#utility.yul\":4320:4408   */\n    tag_123:\n        /* \"#utility.yul\":4428:4438   */\n      dup1\n        /* \"#utility.yul\":4424:4426   */\n      0x40\n        /* \"#utility.yul\":4417:4439   */\n      mstore\n        /* \"#utility.yul\":4207:4445   */\n      pop\n        /* \"#utility.yul\":4164:4445   */\n      pop\n      pop\n      jump\t// out\n        /* \"#utility.yul\":4451:4580   */\n    tag_55:\n        /* \"#utility.yul\":4485:4491   */\n      0x00\n        /* \"#utility.yul\":4512:4532   */\n      tag_126\n      tag_34\n      jump\t// in\n    tag_126:\n        /* \"#utility.yul\":4502:4532   */\n      swap1\n      pop\n        /* \"#utility.yul\":4541:4574   */\n      tag_127\n        /* \"#utility.yul\":4569:4573   */\n      dup3\n        /* \"#utility.yul\":4561:4567   */\n      dup3\n        /* \"#utility.yul\":4541:4574   */\n      tag_54\n      jump\t// in\n    tag_127:\n        /* \"#utility.yul\":4451:4580   */\n      swap2\n      swap1\n      pop\n      jump\t// out\n        /* \"#utility.yul\":4586:4894   */\n    tag_56:\n        /* \"#utility.yul\":4648:4652   */\n      0x00\n        /* \"#utility.yul\":4738:4756   */\n      0xffffffffffffffff\n        /* \"#utility.yul\":4730:4736   */\n      dup3\n        /* \"#utility.yul\":4727:4757   */\n      gt\n        /* \"#utility.yul\":4724:4780   */\n      iszero\n      tag_129\n      jumpi\n        /* \"#utility.yul\":4760:4778   */\n      tag_130\n      tag_53\n      jump\t// in\n    tag_130:\n        /* \"#utility.yul\":4724:4780   */\n    tag_129:\n        /* \"#utility.yul\":4798:4827   */\n      tag_131\n        /* \"#utility.yul\":4820:4826   */\n      dup3\n        /* \"#utility.yul\":4798:4827   */\n      tag_52\n      jump\t// in\n    tag_131:\n        /* \"#utility.yul\":4790:4827   */\n      swap1\n      pop\n        /* \"#utility.yul\":4882:4886   */\n      0x20\n        /* \"#utility.yul\":4876:4880   */\n      dup2\n        /* \"#utility.yul\":4872:4887   */\n      add\n        /* \"#utility.yul\":4864:4887   */\n      swap1\n      pop\n        /* \"#utility.yul\":4586:4894   */\n      swap2\n      swap1\n      pop\n      jump\t// out\n        /* \"#utility.yul\":4900:5054   */\n    tag_57:\n        /* \"#utility.yul\":4984:4990   */\n      dup3\n        /* \"#utility.yul\":4979:4982   */\n      dup2\n        /* \"#utility.yul\":4974:4977   */\n      dup4\n        /* \"#utility.yul\":4961:4991   */\n      calldatacopy\n        /* \"#utility.yul\":5046:5047   */\n      0x00\n        /* \"#utility.yul\":5037:5043   */\n      dup4\n        /* \"#utility.yul\":5032:5035   */\n      dup4\n        /* \"#utility.yul\":5028:5044   */\n      add\n        /* \"#utility.yul\":5021:5048   */\n      mstore\n        /* \"#utility.yul\":4900:5054   */\n      pop\n      pop\n      pop\n      jump\t// out\n        /* \"#utility.yul\":5060:5472   */\n    tag_58:\n        /* \"#utility.yul\":5138:5143   */\n      0x00\n        /* \"#utility.yul\":5163:5229   */\n      tag_134\n        /* \"#utility.yul\":5179:5228   */\n      tag_135\n        /* \"#utility.yul\":5221:5227   */\n      dup5\n        /* \"#utility.yul\":5179:5228   */\n      tag_56\n      jump\t// in\n    tag_135:\n        /* \"#utility.yul\":5163:5229   */\n      tag_55\n      jump\t// in\n    tag_134:\n        /* \"#utility.yul\":5154:5229   */\n      swap1\n      pop\n        /* \"#utility.yul\":5252:5258   */\n      dup3\n        /* \"#utility.yul\":5245:5250   */\n      dup2\n        /* \"#utility.yul\":5238:5259   */\n      mstore\n        /* \"#utility.yul\":5290:5294   */\n      0x20\n        /* \"#utility.yul\":5283:5288   */\n      dup2\n        /* \"#utility.yul\":5279:5295   */\n      add\n        /* \"#utility.yul\":5328:5331   */\n      dup5\n        /* \"#utility.yul\":5319:5325   */\n      dup5\n        /* \"#utility.yul\":5314:5317   */\n      dup5\n        /* \"#utility.yul\":5310:5326   */\n      add\n        /* \"#utility.yul\":5307:5332   */\n      gt\n        /* \"#utility.yul\":5304:5416   */\n      iszero\n      tag_136\n      jumpi\n        /* \"#utility.yul\":5335:5414   */\n      tag_137\n      tag_51\n      jump\t// in\n    tag_137:\n        /* \"#utility.yul\":5304:5416   */\n    tag_136:\n        /* \"#utility.yul\":5425:5466   */\n      tag_138\n        /* \"#utility.yul\":5459:5465   */\n      dup5\n        /* \"#utility.yul\":5454:5457   */\n      dup3\n        /* \"#utility.yul\":5449:5452   */\n      dup6\n        /* \"#utility.yul\":5425:5466   */\n      tag_57\n      jump\t// in\n    tag_138:\n        /* \"#utility.yul\":5144:5472   */\n      pop\n        /* \"#utility.yul\":5060:5472   */\n      swap4\n      swap3\n      pop\n      pop\n      pop\n      jump\t// out\n        /* \"#utility.yul\":5492:5832   */\n    tag_59:\n        /* \"#utility.yul\":5548:5553   */\n      0x00\n        /* \"#utility.yul\":5597:5600   */\n      dup3\n        /* \"#utility.yul\":5590:5594   */\n      0x1f\n        /* \"#utility.yul\":5582:5588   */\n      dup4\n        /* \"#utility.yul\":5578:5595   */\n      add\n        /* \"#utility.yul\":5574:5601   */\n      slt\n        /* \"#utility.yul\":5564:5686   */\n      tag_140\n      jumpi\n        /* \"#utility.yul\":5605:5684   */\n      tag_141\n      tag_50\n      jump\t// in\n    tag_141:\n        /* \"#utility.yul\":5564:5686   */\n    tag_140:\n        /* \"#utility.yul\":5722:5728   */\n      dup2\n        /* \"#utility.yul\":5709:5729   */\n      calldataload\n        /* \"#utility.yul\":5747:5826   */\n      tag_142\n        /* \"#utility.yul\":5822:5825   */\n      dup5\n        /* \"#utility.yul\":5814:5820   */\n      dup3\n        /* \"#utility.yul\":5807:5811   */\n      0x20\n        /* \"#utility.yul\":5799:5805   */\n      dup7\n        /* \"#utility.yul\":5795:5812   */\n      add\n        /* \"#utility.yul\":5747:5826   */\n      tag_58\n      jump\t// in\n    tag_142:\n        /* \"#utility.yul\":5738:5826   */\n      swap2\n      pop\n        /* \"#utility.yul\":5554:5832   */\n      pop\n        /* \"#utility.yul\":5492:5832   */\n      swap3\n      swap2\n      pop\n      pop\n      jump\t// out\n        /* \"#utility.yul\":5838:6159   */\n    tag_60:\n        /* \"#utility.yul\":5925:5929   */\n      0x00\n        /* \"#utility.yul\":6015:6033   */\n      0xffffffffffffffff\n        /* \"#utility.yul\":6007:6013   */\n      dup3\n        /* \"#utility.yul\":6004:6034   */\n      gt\n        /* \"#utility.yul\":6001:6057   */\n      iszero\n      tag_144\n      jumpi\n        /* \"#utility.yul\":6037:6055   */\n      tag_145\n      tag_53\n      jump\t// in\n    tag_145:\n        /* \"#utility.yul\":6001:6057   */\n    tag_144:\n        /* \"#utility.yul\":6087:6091   */\n      0x20\n        /* \"#utility.yul\":6079:6085   */\n      dup3\n        /* \"#utility.yul\":6075:6092   */\n      mul\n        /* \"#utility.yul\":6067:6092   */\n      swap1\n      pop\n        /* \"#utility.yul\":6147:6151   */\n      0x20\n        /* \"#utility.yul\":6141:6145   */\n      dup2\n        /* \"#utility.yul\":6137:6152   */\n      add\n        /* \"#utility.yul\":6129:6152   */\n      swap1\n      pop\n        /* \"#utility.yul\":5838:6159   */\n      swap2\n      swap1\n      pop\n      jump\t// out\n        /* \"#utility.yul\":6165:6282   */\n    tag_61:\n        /* \"#utility.yul\":6274:6275   */\n      0x00\n        /* \"#utility.yul\":6271:6272   */\n      dup1\n        /* \"#utility.yul\":6264:6276   */\n      revert\n        /* \"#utility.yul\":6304:7249   */\n    tag_62:\n        /* \"#utility.yul\":6410:6415   */\n      0x00\n        /* \"#utility.yul\":6435:6526   */\n      tag_148\n        /* \"#utility.yul\":6451:6525   */\n      tag_149\n        /* \"#utility.yul\":6518:6524   */\n      dup5\n        /* \"#utility.yul\":6451:6525   */\n      tag_60\n      jump\t// in\n    tag_149:\n        /* \"#utility.yul\":6435:6526   */\n      tag_55\n      jump\t// in\n    tag_148:\n        /* \"#utility.yul\":6426:6526   */\n      swap1\n      pop\n        /* \"#utility.yul\":6546:6551   */\n      dup1\n        /* \"#utility.yul\":6575:6581   */\n      dup4\n        /* \"#utility.yul\":6568:6573   */\n      dup3\n        /* \"#utility.yul\":6561:6582   */\n      mstore\n        /* \"#utility.yul\":6609:6613   */\n      0x20\n        /* \"#utility.yul\":6602:6607   */\n      dup3\n        /* \"#utility.yul\":6598:6614   */\n      add\n        /* \"#utility.yul\":6591:6614   */\n      swap1\n      pop\n        /* \"#utility.yul\":6662:6666   */\n      0x20\n        /* \"#utility.yul\":6654:6660   */\n      dup5\n        /* \"#utility.yul\":6650:6667   */\n      mul\n        /* \"#utility.yul\":6642:6648   */\n      dup4\n        /* \"#utility.yul\":6638:6668   */\n      add\n        /* \"#utility.yul\":6691:6694   */\n      dup6\n        /* \"#utility.yul\":6683:6689   */\n      dup2\n        /* \"#utility.yul\":6680:6695   */\n      gt\n        /* \"#utility.yul\":6677:6799   */\n      iszero\n      tag_150\n      jumpi\n        /* \"#utility.yul\":6710:6789   */\n      tag_151\n      tag_61\n      jump\t// in\n    tag_151:\n        /* \"#utility.yul\":6677:6799   */\n    tag_150:\n        /* \"#utility.yul\":6825:6831   */\n      dup4\n        /* \"#utility.yul\":6808:7243   */\n    tag_152:\n        /* \"#utility.yul\":6842:6848   */\n      dup2\n        /* \"#utility.yul\":6837:6840   */\n      dup2\n        /* \"#utility.yul\":6834:6849   */\n      lt\n        /* \"#utility.yul\":6808:7243   */\n      iszero\n      tag_154\n      jumpi\n        /* \"#utility.yul\":6931:6934   */\n      dup1\n        /* \"#utility.yul\":6918:6935   */\n      calldataload\n        /* \"#utility.yul\":6967:6985   */\n      0xffffffffffffffff\n        /* \"#utility.yul\":6954:6965   */\n      dup2\n        /* \"#utility.yul\":6951:6986   */\n      gt\n        /* \"#utility.yul\":6948:7070   */\n      iszero\n      tag_155\n      jumpi\n        /* \"#utility.yul\":6989:7068   */\n      tag_156\n      tag_50\n      jump\t// in\n    tag_156:\n        /* \"#utility.yul\":6948:7070   */\n    tag_155:\n        /* \"#utility.yul\":7113:7124   */\n      dup1\n        /* \"#utility.yul\":7105:7111   */\n      dup7\n        /* \"#utility.yul\":7101:7125   */\n      add\n        /* \"#utility.yul\":7151:7198   */\n      tag_157\n        /* \"#utility.yul\":7194:7197   */\n      dup10\n        /* \"#utility.yul\":7182:7192   */\n      dup3\n        /* \"#utility.yul\":7151:7198   */\n      tag_59\n      jump\t// in\n    tag_157:\n        /* \"#utility.yul\":7146:7149   */\n      dup6\n        /* \"#utility.yul\":7139:7199   */\n      mstore\n        /* \"#utility.yul\":7228:7232   */\n      0x20\n        /* \"#utility.yul\":7223:7226   */\n      dup6\n        /* \"#utility.yul\":7219:7233   */\n      add\n        /* \"#utility.yul\":7212:7233   */\n      swap5\n      pop\n        /* \"#utility.yul\":6884:7243   */\n      pop\n      pop\n        /* \"#utility.yul\":6868:6872   */\n      0x20\n        /* \"#utility.yul\":6863:6866   */\n      dup2\n        /* \"#utility.yul\":6859:6873   */\n      add\n        /* \"#utility.yul\":6852:6873   */\n      swap1\n      pop\n        /* \"#utility.yul\":6808:7243   */\n      jump(tag_152)\n    tag_154:\n        /* \"#utility.yul\":6812:6833   */\n      pop\n        /* \"#utility.yul\":6416:7249   */\n      pop\n      pop\n        /* \"#utility.yul\":6304:7249   */\n      swap4\n      swap3\n      pop\n      pop\n      pop\n      jump\t// out\n        /* \"#utility.yul\":7271:7661   */\n    tag_63:\n        /* \"#utility.yul\":7352:7357   */\n      0x00\n        /* \"#utility.yul\":7401:7404   */\n      dup3\n        /* \"#utility.yul\":7394:7398   */\n      0x1f\n        /* \"#utility.yul\":7386:7392   */\n      dup4\n        /* \"#utility.yul\":7382:7399   */\n      add\n        /* \"#utility.yul\":7378:7405   */\n      slt\n        /* \"#utility.yul\":7368:7490   */\n      tag_159\n      jumpi\n        /* \"#utility.yul\":7409:7488   */\n      tag_160\n      tag_50\n      jump\t// in\n    tag_160:\n        /* \"#utility.yul\":7368:7490   */\n    tag_159:\n        /* \"#utility.yul\":7526:7532   */\n      dup2\n        /* \"#utility.yul\":7513:7533   */\n      calldataload\n        /* \"#utility.yul\":7551:7655   */\n      tag_161\n        /* \"#utility.yul\":7651:7654   */\n      dup5\n        /* \"#utility.yul\":7643:7649   */\n      dup3\n        /* \"#utility.yul\":7636:7640   */\n      0x20\n        /* \"#utility.yul\":7628:7634   */\n      dup7\n        /* \"#utility.yul\":7624:7641   */\n      add\n        /* \"#utility.yul\":7551:7655   */\n      tag_62\n      jump\t// in\n    tag_161:\n        /* \"#utility.yul\":7542:7655   */\n      swap2\n      pop\n        /* \"#utility.yul\":7358:7661   */\n      pop\n        /* \"#utility.yul\":7271:7661   */\n      swap3\n      swap2\n      pop\n      pop\n      jump\t// out\n        /* \"#utility.yul\":7667:9578   */\n    tag_19:\n        /* \"#utility.yul\":7862:7868   */\n      0x00\n        /* \"#utility.yul\":7870:7876   */\n      dup1\n        /* \"#utility.yul\":7878:7884   */\n      0x00\n        /* \"#utility.yul\":7886:7892   */\n      dup1\n        /* \"#utility.yul\":7894:7900   */\n      0x00\n        /* \"#utility.yul\":7943:7946   */\n      0xa0\n        /* \"#utility.yul\":7931:7940   */\n      dup7\n        /* \"#utility.yul\":7922:7929   */\n      dup9\n        /* \"#utility.yul\":7918:7941   */\n      sub\n        /* \"#utility.yul\":7914:7947   */\n      slt\n        /* \"#utility.yul\":7911:8031   */\n      iszero\n      tag_163\n      jumpi\n        /* \"#utility.yul\":7950:8029   */\n      tag_164\n      tag_35\n      jump\t// in\n    tag_164:\n        /* \"#utility.yul\":7911:8031   */\n    tag_163:\n        /* \"#utility.yul\":8098:8099   */\n      0x00\n        /* \"#utility.yul\":8087:8096   */\n      dup7\n        /* \"#utility.yul\":8083:8100   */\n      add\n        /* \"#utility.yul\":8070:8101   */\n      calldataload\n        /* \"#utility.yul\":8128:8146   */\n      0xffffffffffffffff\n        /* \"#utility.yul\":8120:8126   */\n      dup2\n        /* \"#utility.yul\":8117:8147   */\n      gt\n        /* \"#utility.yul\":8114:8231   */\n      iszero\n      tag_165\n      jumpi\n        /* \"#utility.yul\":8150:8229   */\n      tag_166\n      tag_36\n      jump\t// in\n    tag_166:\n        /* \"#utility.yul\":8114:8231   */\n    tag_165:\n        /* \"#utility.yul\":8255:8318   */\n      tag_167\n        /* \"#utility.yul\":8310:8317   */\n      dup9\n        /* \"#utility.yul\":8301:8307   */\n      dup3\n        /* \"#utility.yul\":8290:8299   */\n      dup10\n        /* \"#utility.yul\":8286:8308   */\n      add\n        /* \"#utility.yul\":8255:8318   */\n      tag_59\n      jump\t// in\n    tag_167:\n        /* \"#utility.yul\":8245:8318   */\n      swap6\n      pop\n        /* \"#utility.yul\":8041:8328   */\n      pop\n        /* \"#utility.yul\":8395:8397   */\n      0x20\n        /* \"#utility.yul\":8384:8393   */\n      dup7\n        /* \"#utility.yul\":8380:8398   */\n      add\n        /* \"#utility.yul\":8367:8399   */\n      calldataload\n        /* \"#utility.yul\":8426:8444   */\n      0xffffffffffffffff\n        /* \"#utility.yul\":8418:8424   */\n      dup2\n        /* \"#utility.yul\":8415:8445   */\n      gt\n        /* \"#utility.yul\":8412:8529   */\n      iszero\n      tag_168\n      jumpi\n        /* \"#utility.yul\":8448:8527   */\n      tag_169\n      tag_36\n      jump\t// in\n    tag_169:\n        /* \"#utility.yul\":8412:8529   */\n    tag_168:\n        /* \"#utility.yul\":8553:8616   */\n      tag_170\n        /* \"#utility.yul\":8608:8615   */\n      dup9\n        /* \"#utility.yul\":8599:8605   */\n      dup3\n        /* \"#utility.yul\":8588:8597   */\n      dup10\n        /* \"#utility.yul\":8584:8606   */\n      add\n        /* \"#utility.yul\":8553:8616   */\n      tag_59\n      jump\t// in\n    tag_170:\n        /* \"#utility.yul\":8543:8616   */\n      swap5\n      pop\n        /* \"#utility.yul\":8338:8626   */\n      pop\n        /* \"#utility.yul\":8693:8695   */\n      0x40\n        /* \"#utility.yul\":8682:8691   */\n      dup7\n        /* \"#utility.yul\":8678:8696   */\n      add\n        /* \"#utility.yul\":8665:8697   */\n      calldataload\n        /* \"#utility.yul\":8724:8742   */\n      0xffffffffffffffff\n        /* \"#utility.yul\":8716:8722   */\n      dup2\n        /* \"#utility.yul\":8713:8743   */\n      gt\n        /* \"#utility.yul\":8710:8827   */\n      iszero\n      tag_171\n      jumpi\n        /* \"#utility.yul\":8746:8825   */\n      tag_172\n      tag_36\n      jump\t// in\n    tag_172:\n        /* \"#utility.yul\":8710:8827   */\n    tag_171:\n        /* \"#utility.yul\":8851:8914   */\n      tag_173\n        /* \"#utility.yul\":8906:8913   */\n      dup9\n        /* \"#utility.yul\":8897:8903   */\n      dup3\n        /* \"#utility.yul\":8886:8895   */\n      dup10\n        /* \"#utility.yul\":8882:8904   */\n      add\n        /* \"#utility.yul\":8851:8914   */\n      tag_59\n      jump\t// in\n    tag_173:\n        /* \"#utility.yul\":8841:8914   */\n      swap4\n      pop\n        /* \"#utility.yul\":8636:8924   */\n      pop\n        /* \"#utility.yul\":8991:8993   */\n      0x60\n        /* \"#utility.yul\":8980:8989   */\n      dup7\n        /* \"#utility.yul\":8976:8994   */\n      add\n        /* \"#utility.yul\":8963:8995   */\n      calldataload\n        /* \"#utility.yul\":9022:9040   */\n      0xffffffffffffffff\n        /* \"#utility.yul\":9014:9020   */\n      dup2\n        /* \"#utility.yul\":9011:9041   */\n      gt\n        /* \"#utility.yul\":9008:9125   */\n      iszero\n      tag_174\n      jumpi\n        /* \"#utility.yul\":9044:9123   */\n      tag_175\n      tag_36\n      jump\t// in\n    tag_175:\n        /* \"#utility.yul\":9008:9125   */\n    tag_174:\n        /* \"#utility.yul\":9149:9237   */\n      tag_176\n        /* \"#utility.yul\":9229:9236   */\n      dup9\n        /* \"#utility.yul\":9220:9226   */\n      dup3\n        /* \"#utility.yul\":9209:9218   */\n      dup10\n        /* \"#utility.yul\":9205:9227   */\n      add\n        /* \"#utility.yul\":9149:9237   */\n      tag_63\n      jump\t// in\n    tag_176:\n        /* \"#utility.yul\":9139:9237   */\n      swap3\n      pop\n        /* \"#utility.yul\":8934:9247   */\n      pop\n        /* \"#utility.yul\":9314:9317   */\n      0x80\n        /* \"#utility.yul\":9303:9312   */\n      dup7\n        /* \"#utility.yul\":9299:9318   */\n      add\n        /* \"#utility.yul\":9286:9319   */\n      calldataload\n        /* \"#utility.yul\":9346:9364   */\n      0xffffffffffffffff\n        /* \"#utility.yul\":9338:9344   */\n      dup2\n        /* \"#utility.yul\":9335:9365   */\n      gt\n        /* \"#utility.yul\":9332:9449   */\n      iszero\n      tag_177\n      jumpi\n        /* \"#utility.yul\":9368:9447   */\n      tag_178\n      tag_36\n      jump\t// in\n    tag_178:\n        /* \"#utility.yul\":9332:9449   */\n    tag_177:\n        /* \"#utility.yul\":9473:9561   */\n      tag_179\n        /* \"#utility.yul\":9553:9560   */\n      dup9\n        /* \"#utility.yul\":9544:9550   */\n      dup3\n        /* \"#utility.yul\":9533:9542   */\n      dup10\n        /* \"#utility.yul\":9529:9551   */\n      add\n        /* \"#utility.yul\":9473:9561   */\n      tag_63\n      jump\t// in\n    tag_179:\n        /* \"#utility.yul\":9463:9561   */\n      swap2\n      pop\n        /* \"#utility.yul\":9257:9571   */\n      pop\n        /* \"#utility.yul\":7667:9578   */\n      swap3\n      swap6\n      pop\n      swap3\n      swap6\n      swap1\n      swap4\n      pop\n      jump\t// out\n        /* \"#utility.yul\":9584:9683   */\n    tag_64:\n        /* \"#utility.yul\":9636:9642   */\n      0x00\n        /* \"#utility.yul\":9670:9675   */\n      dup2\n        /* \"#utility.yul\":9664:9676   */\n      mload\n        /* \"#utility.yul\":9654:9676   */\n      swap1\n      pop\n        /* \"#utility.yul\":9584:9683   */\n      swap2\n      swap1\n      pop\n      jump\t// out\n        /* \"#utility.yul\":9689:9858   */\n    tag_65:\n        /* \"#utility.yul\":9773:9784   */\n      0x00\n        /* \"#utility.yul\":9807:9813   */\n      dup3\n        /* \"#utility.yul\":9802:9805   */\n      dup3\n        /* \"#utility.yul\":9795:9814   */\n      mstore\n        /* \"#utility.yul\":9847:9851   */\n      0x20\n        /* \"#utility.yul\":9842:9845   */\n      dup3\n        /* \"#utility.yul\":9838:9852   */\n      add\n        /* \"#utility.yul\":9823:9852   */\n      swap1\n      pop\n        /* \"#utility.yul\":9689:9858   */\n      swap3\n      swap2\n      pop\n      pop\n      jump\t// out\n        /* \"#utility.yul\":9864:10171   */\n    tag_66:\n        /* \"#utility.yul\":9932:9933   */\n      0x00\n        /* \"#utility.yul\":9942:10055   */\n    tag_183:\n        /* \"#utility.yul\":9956:9962   */\n      dup4\n        /* \"#utility.yul\":9953:9954   */\n      dup2\n        /* \"#utility.yul\":9950:9963   */\n      lt\n        /* \"#utility.yul\":9942:10055   */\n      iszero\n      tag_185\n      jumpi\n        /* \"#utility.yul\":10041:10042   */\n      dup1\n        /* \"#utility.yul\":10036:10039   */\n      dup3\n        /* \"#utility.yul\":10032:10043   */\n      add\n        /* \"#utility.yul\":10026:10044   */\n      mload\n        /* \"#utility.yul\":10022:10023   */\n      dup2\n        /* \"#utility.yul\":10017:10020   */\n      dup5\n        /* \"#utility.yul\":10013:10024   */\n      add\n        /* \"#utility.yul\":10006:10045   */\n      mstore\n        /* \"#utility.yul\":9978:9980   */\n      0x20\n        /* \"#utility.yul\":9975:9976   */\n      dup2\n        /* \"#utility.yul\":9971:9981   */\n      add\n        /* \"#utility.yul\":9966:9981   */\n      swap1\n      pop\n        /* \"#utility.yul\":9942:10055   */\n      jump(tag_183)\n    tag_185:\n        /* \"#utility.yul\":10073:10079   */\n      dup4\n        /* \"#utility.yul\":10070:10071   */\n      dup2\n        /* \"#utility.yul\":10067:10080   */\n      gt\n        /* \"#utility.yul\":10064:10165   */\n      iszero\n      tag_186\n      jumpi\n        /* \"#utility.yul\":10153:10154   */\n      0x00\n        /* \"#utility.yul\":10144:10150   */\n      dup5\n        /* \"#utility.yul\":10139:10142   */\n      dup5\n        /* \"#utility.yul\":10135:10151   */\n      add\n        /* \"#utility.yul\":10128:10155   */\n      mstore\n        /* \"#utility.yul\":10064:10165   */\n    tag_186:\n        /* \"#utility.yul\":9913:10171   */\n      pop\n        /* \"#utility.yul\":9864:10171   */\n      pop\n      pop\n      pop\n      jump\t// out\n        /* \"#utility.yul\":10177:10541   */\n    tag_67:\n        /* \"#utility.yul\":10265:10268   */\n      0x00\n        /* \"#utility.yul\":10293:10332   */\n      tag_188\n        /* \"#utility.yul\":10326:10331   */\n      dup3\n        /* \"#utility.yul\":10293:10332   */\n      tag_64\n      jump\t// in\n    tag_188:\n        /* \"#utility.yul\":10348:10419   */\n      tag_189\n        /* \"#utility.yul\":10412:10418   */\n      dup2\n        /* \"#utility.yul\":10407:10410   */\n      dup6\n        /* \"#utility.yul\":10348:10419   */\n      tag_65\n      jump\t// in\n    tag_189:\n        /* \"#utility.yul\":10341:10419   */\n      swap4\n      pop\n        /* \"#utility.yul\":10428:10480   */\n      tag_190\n        /* \"#utility.yul\":10473:10479   */\n      dup2\n        /* \"#utility.yul\":10468:10471   */\n      dup6\n        /* \"#utility.yul\":10461:10465   */\n      0x20\n        /* \"#utility.yul\":10454:10459   */\n      dup7\n        /* \"#utility.yul\":10450:10466   */\n      add\n        /* \"#utility.yul\":10428:10480   */\n      tag_66\n      jump\t// in\n    tag_190:\n        /* \"#utility.yul\":10505:10534   */\n      tag_191\n        /* \"#utility.yul\":10527:10533   */\n      dup2\n        /* \"#utility.yul\":10505:10534   */\n      tag_52\n      jump\t// in\n    tag_191:\n        /* \"#utility.yul\":10500:10503   */\n      dup5\n        /* \"#utility.yul\":10496:10535   */\n      add\n        /* \"#utility.yul\":10489:10535   */\n      swap2\n      pop\n        /* \"#utility.yul\":10269:10541   */\n      pop\n        /* \"#utility.yul\":10177:10541   */\n      swap3\n      swap2\n      pop\n      pop\n      jump\t// out\n        /* \"#utility.yul\":10547:10671   */\n    tag_68:\n        /* \"#utility.yul\":10624:10630   */\n      0x00\n        /* \"#utility.yul\":10658:10663   */\n      dup2\n        /* \"#utility.yul\":10652:10664   */\n      mload\n        /* \"#utility.yul\":10642:10664   */\n      swap1\n      pop\n        /* \"#utility.yul\":10547:10671   */\n      swap2\n      swap1\n      pop\n      jump\t// out\n        /* \"#utility.yul\":10677:10871   */\n    tag_69:\n        /* \"#utility.yul\":10786:10797   */\n      0x00\n        /* \"#utility.yul\":10820:10826   */\n      dup3\n        /* \"#utility.yul\":10815:10818   */\n      dup3\n        /* \"#utility.yul\":10808:10827   */\n      mstore\n        /* \"#utility.yul\":10860:10864   */\n      0x20\n        /* \"#utility.yul\":10855:10858   */\n      dup3\n        /* \"#utility.yul\":10851:10865   */\n      add\n        /* \"#utility.yul\":10836:10865   */\n      swap1\n      pop\n        /* \"#utility.yul\":10677:10871   */\n      swap3\n      swap2\n      pop\n      pop\n      jump\t// out\n        /* \"#utility.yul\":10877:11019   */\n    tag_70:\n        /* \"#utility.yul\":10954:10958   */\n      0x00\n        /* \"#utility.yul\":10977:10980   */\n      dup2\n        /* \"#utility.yul\":10969:10980   */\n      swap1\n      pop\n        /* \"#utility.yul\":11007:11011   */\n      0x20\n        /* \"#utility.yul\":11002:11005   */\n      dup3\n        /* \"#utility.yul\":10998:11012   */\n      add\n        /* \"#utility.yul\":10990:11012   */\n      swap1\n      pop\n        /* \"#utility.yul\":10877:11019   */\n      swap2\n      swap1\n      pop\n      jump\t// out\n        /* \"#utility.yul\":11025:11184   */\n    tag_71:\n        /* \"#utility.yul\":11099:11110   */\n      0x00\n        /* \"#utility.yul\":11133:11139   */\n      dup3\n        /* \"#utility.yul\":11128:11131   */\n      dup3\n        /* \"#utility.yul\":11121:11140   */\n      mstore\n        /* \"#utility.yul\":11173:11177   */\n      0x20\n        /* \"#utility.yul\":11168:11171   */\n      dup3\n        /* \"#utility.yul\":11164:11178   */\n      add\n        /* \"#utility.yul\":11149:11178   */\n      swap1\n      pop\n        /* \"#utility.yul\":11025:11184   */\n      swap3\n      swap2\n      pop\n      pop\n      jump\t// out\n        /* \"#utility.yul\":11190:11534   */\n    tag_72:\n        /* \"#utility.yul\":11268:11271   */\n      0x00\n        /* \"#utility.yul\":11296:11335   */\n      tag_197\n        /* \"#utility.yul\":11329:11334   */\n      dup3\n        /* \"#utility.yul\":11296:11335   */\n      tag_64\n      jump\t// in\n    tag_197:\n        /* \"#utility.yul\":11351:11412   */\n      tag_198\n        /* \"#utility.yul\":11405:11411   */\n      dup2\n        /* \"#utility.yul\":11400:11403   */\n      dup6\n        /* \"#utility.yul\":11351:11412   */\n      tag_71\n      jump\t// in\n    tag_198:\n        /* \"#utility.yul\":11344:11412   */\n      swap4\n      pop\n        /* \"#utility.yul\":11421:11473   */\n      tag_199\n        /* \"#utility.yul\":11466:11472   */\n      dup2\n        /* \"#utility.yul\":11461:11464   */\n      dup6\n        /* \"#utility.yul\":11454:11458   */\n      0x20\n        /* \"#utility.yul\":11447:11452   */\n      dup7\n        /* \"#utility.yul\":11443:11459   */\n      add\n        /* \"#utility.yul\":11421:11473   */\n      tag_66\n      jump\t// in\n    tag_199:\n        /* \"#utility.yul\":11498:11527   */\n      tag_200\n        /* \"#utility.yul\":11520:11526   */\n      dup2\n        /* \"#utility.yul\":11498:11527   */\n      tag_52\n      jump\t// in\n    tag_200:\n        /* \"#utility.yul\":11493:11496   */\n      dup5\n        /* \"#utility.yul\":11489:11528   */\n      add\n        /* \"#utility.yul\":11482:11528   */\n      swap2\n      pop\n        /* \"#utility.yul\":11272:11534   */\n      pop\n        /* \"#utility.yul\":11190:11534   */\n      swap3\n      swap2\n      pop\n      pop\n      jump\t// out\n        /* \"#utility.yul\":11540:11736   */\n    tag_73:\n        /* \"#utility.yul\":11629:11639   */\n      0x00\n        /* \"#utility.yul\":11664:11730   */\n      tag_202\n        /* \"#utility.yul\":11726:11729   */\n      dup4\n        /* \"#utility.yul\":11718:11724   */\n      dup4\n        /* \"#utility.yul\":11664:11730   */\n      tag_72\n      jump\t// in\n    tag_202:\n        /* \"#utility.yul\":11650:11730   */\n      swap1\n      pop\n        /* \"#utility.yul\":11540:11736   */\n      swap3\n      swap2\n      pop\n      pop\n      jump\t// out\n        /* \"#utility.yul\":11742:11865   */\n    tag_74:\n        /* \"#utility.yul\":11822:11826   */\n      0x00\n        /* \"#utility.yul\":11854:11858   */\n      0x20\n        /* \"#utility.yul\":11849:11852   */\n      dup3\n        /* \"#utility.yul\":11845:11859   */\n      add\n        /* \"#utility.yul\":11837:11859   */\n      swap1\n      pop\n        /* \"#utility.yul\":11742:11865   */\n      swap2\n      swap1\n      pop\n      jump\t// out\n        /* \"#utility.yul\":11899:12890   */\n    tag_75:\n        /* \"#utility.yul\":12038:12041   */\n      0x00\n        /* \"#utility.yul\":12067:12131   */\n      tag_205\n        /* \"#utility.yul\":12125:12130   */\n      dup3\n        /* \"#utility.yul\":12067:12131   */\n      tag_68\n      jump\t// in\n    tag_205:\n        /* \"#utility.yul\":12147:12243   */\n      tag_206\n        /* \"#utility.yul\":12236:12242   */\n      dup2\n        /* \"#utility.yul\":12231:12234   */\n      dup6\n        /* \"#utility.yul\":12147:12243   */\n      tag_69\n      jump\t// in\n    tag_206:\n        /* \"#utility.yul\":12140:12243   */\n      swap4\n      pop\n        /* \"#utility.yul\":12269:12272   */\n      dup4\n        /* \"#utility.yul\":12314:12318   */\n      0x20\n        /* \"#utility.yul\":12306:12312   */\n      dup3\n        /* \"#utility.yul\":12302:12319   */\n      mul\n        /* \"#utility.yul\":12297:12300   */\n      dup6\n        /* \"#utility.yul\":12293:12320   */\n      add\n        /* \"#utility.yul\":12344:12410   */\n      tag_207\n        /* \"#utility.yul\":12404:12409   */\n      dup6\n        /* \"#utility.yul\":12344:12410   */\n      tag_70\n      jump\t// in\n    tag_207:\n        /* \"#utility.yul\":12433:12440   */\n      dup1\n        /* \"#utility.yul\":12464:12465   */\n      0x00\n        /* \"#utility.yul\":12449:12845   */\n    tag_208:\n        /* \"#utility.yul\":12474:12480   */\n      dup6\n        /* \"#utility.yul\":12471:12472   */\n      dup2\n        /* \"#utility.yul\":12468:12481   */\n      lt\n        /* \"#utility.yul\":12449:12845   */\n      iszero\n      tag_210\n      jumpi\n        /* \"#utility.yul\":12545:12554   */\n      dup5\n        /* \"#utility.yul\":12539:12543   */\n      dup5\n        /* \"#utility.yul\":12535:12555   */\n      sub\n        /* \"#utility.yul\":12530:12533   */\n      dup10\n        /* \"#utility.yul\":12523:12556   */\n      mstore\n        /* \"#utility.yul\":12596:12602   */\n      dup2\n        /* \"#utility.yul\":12590:12603   */\n      mload\n        /* \"#utility.yul\":12624:12708   */\n      tag_211\n        /* \"#utility.yul\":12703:12707   */\n      dup6\n        /* \"#utility.yul\":12688:12701   */\n      dup3\n        /* \"#utility.yul\":12624:12708   */\n      tag_73\n      jump\t// in\n    tag_211:\n        /* \"#utility.yul\":12616:12708   */\n      swap5\n      pop\n        /* \"#utility.yul\":12731:12801   */\n      tag_212\n        /* \"#utility.yul\":12794:12800   */\n      dup4\n        /* \"#utility.yul\":12731:12801   */\n      tag_74\n      jump\t// in\n    tag_212:\n        /* \"#utility.yul\":12721:12801   */\n      swap3\n      pop\n        /* \"#utility.yul\":12830:12834   */\n      0x20\n        /* \"#utility.yul\":12825:12828   */\n      dup11\n        /* \"#utility.yul\":12821:12835   */\n      add\n        /* \"#utility.yul\":12814:12835   */\n      swap10\n      pop\n        /* \"#utility.yul\":12509:12845   */\n      pop\n        /* \"#utility.yul\":12496:12497   */\n      0x01\n        /* \"#utility.yul\":12493:12494   */\n      dup2\n        /* \"#utility.yul\":12489:12498   */\n      add\n        /* \"#utility.yul\":12484:12498   */\n      swap1\n      pop\n        /* \"#utility.yul\":12449:12845   */\n      jump(tag_208)\n    tag_210:\n        /* \"#utility.yul\":12453:12467   */\n      pop\n        /* \"#utility.yul\":12861:12865   */\n      dup3\n        /* \"#utility.yul\":12854:12865   */\n      swap8\n      pop\n        /* \"#utility.yul\":12881:12884   */\n      dup8\n        /* \"#utility.yul\":12874:12884   */\n      swap6\n      pop\n        /* \"#utility.yul\":12043:12890   */\n      pop\n      pop\n      pop\n      pop\n      pop\n        /* \"#utility.yul\":11899:12890   */\n      swap3\n      swap2\n      pop\n      pop\n      jump\t// out\n        /* \"#utility.yul\":12896:13014   */\n    tag_76:\n        /* \"#utility.yul\":12983:13007   */\n      tag_214\n        /* \"#utility.yul\":13001:13006   */\n      dup2\n        /* \"#utility.yul\":12983:13007   */\n      tag_37\n      jump\t// in\n    tag_214:\n        /* \"#utility.yul\":12978:12981   */\n      dup3\n        /* \"#utility.yul\":12971:13008   */\n      mstore\n        /* \"#utility.yul\":12896:13014   */\n      pop\n      pop\n      jump\t// out\n        /* \"#utility.yul\":13020:14561   */\n    tag_31:\n        /* \"#utility.yul\":13481:13485   */\n      0x00\n        /* \"#utility.yul\":13519:13522   */\n      0xe0\n        /* \"#utility.yul\":13508:13517   */\n      dup3\n        /* \"#utility.yul\":13504:13523   */\n      add\n        /* \"#utility.yul\":13496:13523   */\n      swap1\n      pop\n        /* \"#utility.yul\":13569:13578   */\n      dup2\n        /* \"#utility.yul\":13563:13567   */\n      dup2\n        /* \"#utility.yul\":13559:13579   */\n      sub\n        /* \"#utility.yul\":13555:13556   */\n      0x00\n        /* \"#utility.yul\":13544:13553   */\n      dup4\n        /* \"#utility.yul\":13540:13557   */\n      add\n        /* \"#utility.yul\":13533:13580   */\n      mstore\n        /* \"#utility.yul\":13597:13675   */\n      tag_216\n        /* \"#utility.yul\":13670:13674   */\n      dup2\n        /* \"#utility.yul\":13661:13667   */\n      dup11\n        /* \"#utility.yul\":13597:13675   */\n      tag_67\n      jump\t// in\n    tag_216:\n        /* \"#utility.yul\":13589:13675   */\n      swap1\n      pop\n        /* \"#utility.yul\":13722:13731   */\n      dup2\n        /* \"#utility.yul\":13716:13720   */\n      dup2\n        /* \"#utility.yul\":13712:13732   */\n      sub\n        /* \"#utility.yul\":13707:13709   */\n      0x20\n        /* \"#utility.yul\":13696:13705   */\n      dup4\n        /* \"#utility.yul\":13692:13710   */\n      add\n        /* \"#utility.yul\":13685:13733   */\n      mstore\n        /* \"#utility.yul\":13750:13828   */\n      tag_217\n        /* \"#utility.yul\":13823:13827   */\n      dup2\n        /* \"#utility.yul\":13814:13820   */\n      dup10\n        /* \"#utility.yul\":13750:13828   */\n      tag_67\n      jump\t// in\n    tag_217:\n        /* \"#utility.yul\":13742:13828   */\n      swap1\n      pop\n        /* \"#utility.yul\":13875:13884   */\n      dup2\n        /* \"#utility.yul\":13869:13873   */\n      dup2\n        /* \"#utility.yul\":13865:13885   */\n      sub\n        /* \"#utility.yul\":13860:13862   */\n      0x40\n        /* \"#utility.yul\":13849:13858   */\n      dup4\n        /* \"#utility.yul\":13845:13863   */\n      add\n        /* \"#utility.yul\":13838:13886   */\n      mstore\n        /* \"#utility.yul\":13903:13981   */\n      tag_218\n        /* \"#utility.yul\":13976:13980   */\n      dup2\n        /* \"#utility.yul\":13967:13973   */\n      dup9\n        /* \"#utility.yul\":13903:13981   */\n      tag_67\n      jump\t// in\n    tag_218:\n        /* \"#utility.yul\":13895:13981   */\n      swap1\n      pop\n        /* \"#utility.yul\":14028:14037   */\n      dup2\n        /* \"#utility.yul\":14022:14026   */\n      dup2\n        /* \"#utility.yul\":14018:14038   */\n      sub\n        /* \"#utility.yul\":14013:14015   */\n      0x60\n        /* \"#utility.yul\":14002:14011   */\n      dup4\n        /* \"#utility.yul\":13998:14016   */\n      add\n        /* \"#utility.yul\":13991:14039   */\n      mstore\n        /* \"#utility.yul\":14056:14184   */\n      tag_219\n        /* \"#utility.yul\":14179:14183   */\n      dup2\n        /* \"#utility.yul\":14170:14176   */\n      dup8\n        /* \"#utility.yul\":14056:14184   */\n      tag_75\n      jump\t// in\n    tag_219:\n        /* \"#utility.yul\":14048:14184   */\n      swap1\n      pop\n        /* \"#utility.yul\":14232:14241   */\n      dup2\n        /* \"#utility.yul\":14226:14230   */\n      dup2\n        /* \"#utility.yul\":14222:14242   */\n      sub\n        /* \"#utility.yul\":14216:14219   */\n      0x80\n        /* \"#utility.yul\":14205:14214   */\n      dup4\n        /* \"#utility.yul\":14201:14220   */\n      add\n        /* \"#utility.yul\":14194:14243   */\n      mstore\n        /* \"#utility.yul\":14260:14388   */\n      tag_220\n        /* \"#utility.yul\":14383:14387   */\n      dup2\n        /* \"#utility.yul\":14374:14380   */\n      dup7\n        /* \"#utility.yul\":14260:14388   */\n      tag_75\n      jump\t// in\n    tag_220:\n        /* \"#utility.yul\":14252:14388   */\n      swap1\n      pop\n        /* \"#utility.yul\":14398:14471   */\n      tag_221\n        /* \"#utility.yul\":14466:14469   */\n      0xa0\n        /* \"#utility.yul\":14455:14464   */\n      dup4\n        /* \"#utility.yul\":14451:14470   */\n      add\n        /* \"#utility.yul\":14442:14448   */\n      dup6\n        /* \"#utility.yul\":14398:14471   */\n      tag_42\n      jump\t// in\n    tag_221:\n        /* \"#utility.yul\":14481:14554   */\n      tag_222\n        /* \"#utility.yul\":14549:14552   */\n      0xc0\n        /* \"#utility.yul\":14538:14547   */\n      dup4\n        /* \"#utility.yul\":14534:14553   */\n      add\n        /* \"#utility.yul\":14525:14531   */\n      dup5\n        /* \"#utility.yul\":14481:14554   */\n      tag_76\n      jump\t// in\n    tag_222:\n        /* \"#utility.yul\":13020:14561   */\n      swap9\n      swap8\n      pop\n      pop\n      pop\n      pop\n      pop\n      pop\n      pop\n      pop\n      jump\t// out\n    stop\n\n    sub_0: assembly {\n            /* \"Task.sol\":806:3389  contract Task {... */\n          mstore(0x40, 0x80)\n            /* \"Task.sol\":1370:1884  constructor(... */\n          mload(0x40)\n          sub(codesize, bytecodeSize)\n          dup1\n          bytecodeSize\n          dup4\n          codecopy\n          dup2\n          dup2\n          add\n          0x40\n          mstore\n          dup2\n          add\n          swap1\n          tag_1\n          swap2\n          swap1\n          tag_2\n          jump\t// in\n        tag_1:\n            /* \"Task.sol\":1643:1653  newManager */\n          dup2\n            /* \"Task.sol\":1625:1632  manager */\n          0x00\n          dup1\n            /* \"Task.sol\":1625:1654  manager = payable(newManager) */\n          0x0100\n          exp\n          dup2\n          sload\n          dup2\n          0xffffffffffffffffffffffffffffffffffffffff\n          mul\n          not\n          and\n          swap1\n          dup4\n          0xffffffffffffffffffffffffffffffffffffffff\n          and\n          mul\n          or\n          swap1\n          sstore\n          pop\n            /* \"Task.sol\":1678:1684  sphere */\n          dup5\n            /* \"Task.sol\":1665:1675  taskSphere */\n          0x01\n            /* \"Task.sol\":1665:1684  taskSphere = sphere */\n          swap1\n          dup2\n          tag_5\n          swap2\n          swap1\n          tag_6\n          jump\t// in\n        tag_5:\n          pop\n            /* \"Task.sol\":1706:1712  header */\n          dup7\n            /* \"Task.sol\":1695:1703  taskName */\n          0x02\n            /* \"Task.sol\":1695:1712  taskName = header */\n          swap1\n          dup2\n          tag_7\n          swap2\n          swap1\n          tag_6\n          jump\t// in\n        tag_7:\n          pop\n            /* \"Task.sol\":1735:1740  files */\n          dup4\n            /* \"Task.sol\":1723:1732  taskFiles */\n          0x03\n            /* \"Task.sol\":1723:1740  taskFiles = files */\n          swap1\n          dup1\n          mload\n          swap1\n          0x20\n          add\n          swap1\n          tag_8\n          swap3\n          swap2\n          swap1\n          tag_9\n          jump\t// in\n        tag_8:\n          pop\n            /* \"Task.sol\":1769:1780  description */\n          dup6\n            /* \"Task.sol\":1751:1766  taskDescription */\n          0x04\n            /* \"Task.sol\":1751:1780  taskDescription = description */\n          swap1\n          dup2\n          tag_10\n          swap2\n          swap1\n          tag_6\n          jump\t// in\n        tag_10:\n          pop\n            /* \"Task.sol\":1804:1810  skills */\n          dup3\n            /* \"Task.sol\":1791:1801  taskSkills */\n          0x05\n            /* \"Task.sol\":1791:1810  taskSkills = skills */\n          swap1\n          dup1\n          mload\n          swap1\n          0x20\n          add\n          swap1\n          tag_11\n          swap3\n          swap2\n          swap1\n          tag_9\n          jump\t// in\n        tag_11:\n          pop\n            /* \"Task.sol\":1835:1840  false */\n          0x00\n            /* \"Task.sol\":1821:1832  isCompleted */\n          0x06\n          0x14\n            /* \"Task.sol\":1821:1840  isCompleted = false */\n          0x0100\n          exp\n          dup2\n          sload\n          dup2\n          0xff\n          mul\n          not\n          and\n          swap1\n          dup4\n          iszero\n          iszero\n          mul\n          or\n          swap1\n          sstore\n          pop\n            /* \"Task.sol\":1867:1876  timestamp */\n          dup1\n            /* \"Task.sol\":1851:1864  taskTimestamp */\n          0x09\n            /* \"Task.sol\":1851:1876  taskTimestamp = timestamp */\n          dup2\n          swap1\n          sstore\n          pop\n            /* \"Task.sol\":1370:1884  constructor(... */\n          pop\n          pop\n          pop\n          pop\n          pop\n          pop\n          pop\n            /* \"Task.sol\":806:3389  contract Task {... */\n          jump(tag_12)\n        tag_9:\n          dup3\n          dup1\n          sload\n          dup3\n          dup3\n          sstore\n          swap1\n          0x00\n          mstore\n          keccak256(0x00, 0x20)\n          swap1\n          dup2\n          add\n          swap3\n          dup3\n          iszero\n          tag_13\n          jumpi\n          swap2\n          0x20\n          mul\n          dup3\n          add\n        tag_14:\n          dup3\n          dup2\n          gt\n          iszero\n          tag_15\n          jumpi\n          dup3\n          mload\n          dup3\n          swap1\n          dup2\n          tag_16\n          swap2\n          swap1\n          tag_6\n          jump\t// in\n        tag_16:\n          pop\n          swap2\n          0x20\n          add\n          swap2\n          swap1\n          0x01\n          add\n          swap1\n          jump(tag_14)\n        tag_15:\n        tag_13:\n          pop\n          swap1\n          pop\n          tag_17\n          swap2\n          swap1\n          tag_18\n          jump\t// in\n        tag_17:\n          pop\n          swap1\n          jump\t// out\n        tag_18:\n        tag_19:\n          dup1\n          dup3\n          gt\n          iszero\n          tag_20\n          jumpi\n          0x00\n          dup2\n          dup2\n          tag_21\n          swap2\n          swap1\n          tag_22\n          jump\t// in\n        tag_21:\n          pop\n          0x01\n          add\n          jump(tag_19)\n        tag_20:\n          pop\n          swap1\n          jump\t// out\n        tag_22:\n          pop\n          dup1\n          sload\n          tag_23\n          swap1\n          tag_24\n          jump\t// in\n        tag_23:\n          0x00\n          dup3\n          sstore\n          dup1\n          0x1f\n          lt\n          tag_26\n          jumpi\n          pop\n          jump(tag_25)\n        tag_26:\n          0x1f\n          add\n          0x20\n          swap1\n          div\n          swap1\n          0x00\n          mstore\n          keccak256(0x00, 0x20)\n          swap1\n          dup2\n          add\n          swap1\n          tag_27\n          swap2\n          swap1\n          tag_28\n          jump\t// in\n        tag_27:\n        tag_25:\n          pop\n          jump\t// out\n        tag_28:\n        tag_29:\n          dup1\n          dup3\n          gt\n          iszero\n          tag_30\n          jumpi\n          0x00\n          dup2\n          0x00\n          swap1\n          sstore\n          pop\n          0x01\n          add\n          jump(tag_29)\n        tag_30:\n          pop\n          swap1\n          jump\t// out\n            /* \"#utility.yul\":7:82   */\n        tag_31:\n            /* \"#utility.yul\":40:46   */\n          0x00\n            /* \"#utility.yul\":73:75   */\n          0x40\n            /* \"#utility.yul\":67:76   */\n          mload\n            /* \"#utility.yul\":57:76   */\n          swap1\n          pop\n            /* \"#utility.yul\":7:82   */\n          swap1\n          jump\t// out\n            /* \"#utility.yul\":88:205   */\n        tag_32:\n            /* \"#utility.yul\":197:198   */\n          0x00\n            /* \"#utility.yul\":194:195   */\n          dup1\n            /* \"#utility.yul\":187:199   */\n          revert\n            /* \"#utility.yul\":211:328   */\n        tag_33:\n            /* \"#utility.yul\":320:321   */\n          0x00\n            /* \"#utility.yul\":317:318   */\n          dup1\n            /* \"#utility.yul\":310:322   */\n          revert\n            /* \"#utility.yul\":334:451   */\n        tag_34:\n            /* \"#utility.yul\":443:444   */\n          0x00\n            /* \"#utility.yul\":440:441   */\n          dup1\n            /* \"#utility.yul\":433:445   */\n          revert\n            /* \"#utility.yul\":457:574   */\n        tag_35:\n            /* \"#utility.yul\":566:567   */\n          0x00\n            /* \"#utility.yul\":563:564   */\n          dup1\n            /* \"#utility.yul\":556:568   */\n          revert\n            /* \"#utility.yul\":580:682   */\n        tag_36:\n            /* \"#utility.yul\":621:627   */\n          0x00\n            /* \"#utility.yul\":672:674   */\n          0x1f\n            /* \"#utility.yul\":668:675   */\n          not\n            /* \"#utility.yul\":663:665   */\n          0x1f\n            /* \"#utility.yul\":656:661   */\n          dup4\n            /* \"#utility.yul\":652:666   */\n          add\n            /* \"#utility.yul\":648:676   */\n          and\n            /* \"#utility.yul\":638:676   */\n          swap1\n          pop\n            /* \"#utility.yul\":580:682   */\n          swap2\n          swap1\n          pop\n          jump\t// out\n            /* \"#utility.yul\":688:868   */\n        tag_37:\n            /* \"#utility.yul\":736:813   */\n          0x4e487b7100000000000000000000000000000000000000000000000000000000\n            /* \"#utility.yul\":733:734   */\n          0x00\n            /* \"#utility.yul\":726:814   */\n          mstore\n            /* \"#utility.yul\":833:837   */\n          0x41\n            /* \"#utility.yul\":830:831   */\n          0x04\n            /* \"#utility.yul\":823:838   */\n          mstore\n            /* \"#utility.yul\":857:861   */\n          0x24\n            /* \"#utility.yul\":854:855   */\n          0x00\n            /* \"#utility.yul\":847:862   */\n          revert\n            /* \"#utility.yul\":874:1155   */\n        tag_38:\n            /* \"#utility.yul\":957:984   */\n          tag_81\n            /* \"#utility.yul\":979:983   */\n          dup3\n            /* \"#utility.yul\":957:984   */\n          tag_36\n          jump\t// in\n        tag_81:\n            /* \"#utility.yul\":949:955   */\n          dup2\n            /* \"#utility.yul\":945:985   */\n          add\n            /* \"#utility.yul\":1087:1093   */\n          dup2\n            /* \"#utility.yul\":1075:1085   */\n          dup2\n            /* \"#utility.yul\":1072:1094   */\n          lt\n            /* \"#utility.yul\":1051:1069   */\n          0xffffffffffffffff\n            /* \"#utility.yul\":1039:1049   */\n          dup3\n            /* \"#utility.yul\":1036:1070   */\n          gt\n            /* \"#utility.yul\":1033:1095   */\n          or\n            /* \"#utility.yul\":1030:1118   */\n          iszero\n          tag_82\n          jumpi\n            /* \"#utility.yul\":1098:1116   */\n          tag_83\n          tag_37\n          jump\t// in\n        tag_83:\n            /* \"#utility.yul\":1030:1118   */\n        tag_82:\n            /* \"#utility.yul\":1138:1148   */\n          dup1\n            /* \"#utility.yul\":1134:1136   */\n          0x40\n            /* \"#utility.yul\":1127:1149   */\n          mstore\n            /* \"#utility.yul\":917:1155   */\n          pop\n            /* \"#utility.yul\":874:1155   */\n          pop\n          pop\n          jump\t// out\n            /* \"#utility.yul\":1161:1290   */\n        tag_39:\n            /* \"#utility.yul\":1195:1201   */\n          0x00\n            /* \"#utility.yul\":1222:1242   */\n          tag_85\n          tag_31\n          jump\t// in\n        tag_85:\n            /* \"#utility.yul\":1212:1242   */\n          swap1\n          pop\n            /* \"#utility.yul\":1251:1284   */\n          tag_86\n            /* \"#utility.yul\":1279:1283   */\n          dup3\n            /* \"#utility.yul\":1271:1277   */\n          dup3\n            /* \"#utility.yul\":1251:1284   */\n          tag_38\n          jump\t// in\n        tag_86:\n            /* \"#utility.yul\":1161:1290   */\n          swap2\n          swap1\n          pop\n          jump\t// out\n            /* \"#utility.yul\":1296:1604   */\n        tag_40:\n            /* \"#utility.yul\":1358:1362   */\n          0x00\n            /* \"#utility.yul\":1448:1466   */\n          0xffffffffffffffff\n            /* \"#utility.yul\":1440:1446   */\n          dup3\n            /* \"#utility.yul\":1437:1467   */\n          gt\n            /* \"#utility.yul\":1434:1490   */\n          iszero\n          tag_88\n          jumpi\n            /* \"#utility.yul\":1470:1488   */\n          tag_89\n          tag_37\n          jump\t// in\n        tag_89:\n            /* \"#utility.yul\":1434:1490   */\n        tag_88:\n            /* \"#utility.yul\":1508:1537   */\n          tag_90\n            /* \"#utility.yul\":1530:1536   */\n          dup3\n            /* \"#utility.yul\":1508:1537   */\n          tag_36\n          jump\t// in\n        tag_90:\n            /* \"#utility.yul\":1500:1537   */\n          swap1\n          pop\n            /* \"#utility.yul\":1592:1596   */\n          0x20\n            /* \"#utility.yul\":1586:1590   */\n          dup2\n            /* \"#utility.yul\":1582:1597   */\n          add\n            /* \"#utility.yul\":1574:1597   */\n          swap1\n          pop\n            /* \"#utility.yul\":1296:1604   */\n          swap2\n          swap1\n          pop\n          jump\t// out\n            /* \"#utility.yul\":1610:1917   */\n        tag_41:\n            /* \"#utility.yul\":1678:1679   */\n          0x00\n            /* \"#utility.yul\":1688:1801   */\n        tag_92:\n            /* \"#utility.yul\":1702:1708   */\n          dup4\n            /* \"#utility.yul\":1699:1700   */\n          dup2\n            /* \"#utility.yul\":1696:1709   */\n          lt\n            /* \"#utility.yul\":1688:1801   */\n          iszero\n          tag_94\n          jumpi\n            /* \"#utility.yul\":1787:1788   */\n          dup1\n            /* \"#utility.yul\":1782:1785   */\n          dup3\n            /* \"#utility.yul\":1778:1789   */\n          add\n            /* \"#utility.yul\":1772:1790   */\n          mload\n            /* \"#utility.yul\":1768:1769   */\n          dup2\n            /* \"#utility.yul\":1763:1766   */\n          dup5\n            /* \"#utility.yul\":1759:1770   */\n          add\n            /* \"#utility.yul\":1752:1791   */\n          mstore\n            /* \"#utility.yul\":1724:1726   */\n          0x20\n            /* \"#utility.yul\":1721:1722   */\n          dup2\n            /* \"#utility.yul\":1717:1727   */\n          add\n            /* \"#utility.yul\":1712:1727   */\n          swap1\n          pop\n            /* \"#utility.yul\":1688:1801   */\n          jump(tag_92)\n        tag_94:\n            /* \"#utility.yul\":1819:1825   */\n          dup4\n            /* \"#utility.yul\":1816:1817   */\n          dup2\n            /* \"#utility.yul\":1813:1826   */\n          gt\n            /* \"#utility.yul\":1810:1911   */\n          iszero\n          tag_95\n          jumpi\n            /* \"#utility.yul\":1899:1900   */\n          0x00\n            /* \"#utility.yul\":1890:1896   */\n          dup5\n            /* \"#utility.yul\":1885:1888   */\n          dup5\n            /* \"#utility.yul\":1881:1897   */\n          add\n            /* \"#utility.yul\":1874:1901   */\n          mstore\n            /* \"#utility.yul\":1810:1911   */\n        tag_95:\n            /* \"#utility.yul\":1659:1917   */\n          pop\n            /* \"#utility.yul\":1610:1917   */\n          pop\n          pop\n          pop\n          jump\t// out\n            /* \"#utility.yul\":1923:2344   */\n        tag_42:\n            /* \"#utility.yul\":2012:2017   */\n          0x00\n            /* \"#utility.yul\":2037:2103   */\n          tag_97\n            /* \"#utility.yul\":2053:2102   */\n          tag_98\n            /* \"#utility.yul\":2095:2101   */\n          dup5\n            /* \"#utility.yul\":2053:2102   */\n          tag_40\n          jump\t// in\n        tag_98:\n            /* \"#utility.yul\":2037:2103   */\n          tag_39\n          jump\t// in\n        tag_97:\n            /* \"#utility.yul\":2028:2103   */\n          swap1\n          pop\n            /* \"#utility.yul\":2126:2132   */\n          dup3\n            /* \"#utility.yul\":2119:2124   */\n          dup2\n            /* \"#utility.yul\":2112:2133   */\n          mstore\n            /* \"#utility.yul\":2164:2168   */\n          0x20\n            /* \"#utility.yul\":2157:2162   */\n          dup2\n            /* \"#utility.yul\":2153:2169   */\n          add\n            /* \"#utility.yul\":2202:2205   */\n          dup5\n            /* \"#utility.yul\":2193:2199   */\n          dup5\n            /* \"#utility.yul\":2188:2191   */\n          dup5\n            /* \"#utility.yul\":2184:2200   */\n          add\n            /* \"#utility.yul\":2181:2206   */\n          gt\n            /* \"#utility.yul\":2178:2290   */\n          iszero\n          tag_99\n          jumpi\n            /* \"#utility.yul\":2209:2288   */\n          tag_100\n          tag_35\n          jump\t// in\n        tag_100:\n            /* \"#utility.yul\":2178:2290   */\n        tag_99:\n            /* \"#utility.yul\":2299:2338   */\n          tag_101\n            /* \"#utility.yul\":2331:2337   */\n          dup5\n            /* \"#utility.yul\":2326:2329   */\n          dup3\n            /* \"#utility.yul\":2321:2324   */\n          dup6\n            /* \"#utility.yul\":2299:2338   */\n          tag_41\n          jump\t// in\n        tag_101:\n            /* \"#utility.yul\":2018:2344   */\n          pop\n            /* \"#utility.yul\":1923:2344   */\n          swap4\n          swap3\n          pop\n          pop\n          pop\n          jump\t// out\n            /* \"#utility.yul\":2364:2719   */\n        tag_43:\n            /* \"#utility.yul\":2431:2436   */\n          0x00\n            /* \"#utility.yul\":2480:2483   */\n          dup3\n            /* \"#utility.yul\":2473:2477   */\n          0x1f\n            /* \"#utility.yul\":2465:2471   */\n          dup4\n            /* \"#utility.yul\":2461:2478   */\n          add\n            /* \"#utility.yul\":2457:2484   */\n          slt\n            /* \"#utility.yul\":2447:2569   */\n          tag_103\n          jumpi\n            /* \"#utility.yul\":2488:2567   */\n          tag_104\n          tag_34\n          jump\t// in\n        tag_104:\n            /* \"#utility.yul\":2447:2569   */\n        tag_103:\n            /* \"#utility.yul\":2598:2604   */\n          dup2\n            /* \"#utility.yul\":2592:2605   */\n          mload\n            /* \"#utility.yul\":2623:2713   */\n          tag_105\n            /* \"#utility.yul\":2709:2712   */\n          dup5\n            /* \"#utility.yul\":2701:2707   */\n          dup3\n            /* \"#utility.yul\":2694:2698   */\n          0x20\n            /* \"#utility.yul\":2686:2692   */\n          dup7\n            /* \"#utility.yul\":2682:2699   */\n          add\n            /* \"#utility.yul\":2623:2713   */\n          tag_42\n          jump\t// in\n        tag_105:\n            /* \"#utility.yul\":2614:2713   */\n          swap2\n          pop\n            /* \"#utility.yul\":2437:2719   */\n          pop\n            /* \"#utility.yul\":2364:2719   */\n          swap3\n          swap2\n          pop\n          pop\n          jump\t// out\n            /* \"#utility.yul\":2725:3046   */\n        tag_44:\n            /* \"#utility.yul\":2812:2816   */\n          0x00\n            /* \"#utility.yul\":2902:2920   */\n          0xffffffffffffffff\n            /* \"#utility.yul\":2894:2900   */\n          dup3\n            /* \"#utility.yul\":2891:2921   */\n          gt\n            /* \"#utility.yul\":2888:2944   */\n          iszero\n          tag_107\n          jumpi\n            /* \"#utility.yul\":2924:2942   */\n          tag_108\n          tag_37\n          jump\t// in\n        tag_108:\n            /* \"#utility.yul\":2888:2944   */\n        tag_107:\n            /* \"#utility.yul\":2974:2978   */\n          0x20\n            /* \"#utility.yul\":2966:2972   */\n          dup3\n            /* \"#utility.yul\":2962:2979   */\n          mul\n            /* \"#utility.yul\":2954:2979   */\n          swap1\n          pop\n            /* \"#utility.yul\":3034:3038   */\n          0x20\n            /* \"#utility.yul\":3028:3032   */\n          dup2\n            /* \"#utility.yul\":3024:3039   */\n          add\n            /* \"#utility.yul\":3016:3039   */\n          swap1\n          pop\n            /* \"#utility.yul\":2725:3046   */\n          swap2\n          swap1\n          pop\n          jump\t// out\n            /* \"#utility.yul\":3052:3169   */\n        tag_45:\n            /* \"#utility.yul\":3161:3162   */\n          0x00\n            /* \"#utility.yul\":3158:3159   */\n          dup1\n            /* \"#utility.yul\":3151:3163   */\n          revert\n            /* \"#utility.yul\":3191:4151   */\n        tag_46:\n            /* \"#utility.yul\":3308:3313   */\n          0x00\n            /* \"#utility.yul\":3333:3424   */\n          tag_111\n            /* \"#utility.yul\":3349:3423   */\n          tag_112\n            /* \"#utility.yul\":3416:3422   */\n          dup5\n            /* \"#utility.yul\":3349:3423   */\n          tag_44\n          jump\t// in\n        tag_112:\n            /* \"#utility.yul\":3333:3424   */\n          tag_39\n          jump\t// in\n        tag_111:\n            /* \"#utility.yul\":3324:3424   */\n          swap1\n          pop\n            /* \"#utility.yul\":3444:3449   */\n          dup1\n            /* \"#utility.yul\":3473:3479   */\n          dup4\n            /* \"#utility.yul\":3466:3471   */\n          dup3\n            /* \"#utility.yul\":3459:3480   */\n          mstore\n            /* \"#utility.yul\":3507:3511   */\n          0x20\n            /* \"#utility.yul\":3500:3505   */\n          dup3\n            /* \"#utility.yul\":3496:3512   */\n          add\n            /* \"#utility.yul\":3489:3512   */\n          swap1\n          pop\n            /* \"#utility.yul\":3560:3564   */\n          0x20\n            /* \"#utility.yul\":3552:3558   */\n          dup5\n            /* \"#utility.yul\":3548:3565   */\n          mul\n            /* \"#utility.yul\":3540:3546   */\n          dup4\n            /* \"#utility.yul\":3536:3566   */\n          add\n            /* \"#utility.yul\":3589:3592   */\n          dup6\n            /* \"#utility.yul\":3581:3587   */\n          dup2\n            /* \"#utility.yul\":3578:3593   */\n          gt\n            /* \"#utility.yul\":3575:3697   */\n          iszero\n          tag_113\n          jumpi\n            /* \"#utility.yul\":3608:3687   */\n          tag_114\n          tag_45\n          jump\t// in\n        tag_114:\n            /* \"#utility.yul\":3575:3697   */\n        tag_113:\n            /* \"#utility.yul\":3723:3729   */\n          dup4\n            /* \"#utility.yul\":3706:4145   */\n        tag_115:\n            /* \"#utility.yul\":3740:3746   */\n          dup2\n            /* \"#utility.yul\":3735:3738   */\n          dup2\n            /* \"#utility.yul\":3732:3747   */\n          lt\n            /* \"#utility.yul\":3706:4145   */\n          iszero\n          tag_117\n          jumpi\n            /* \"#utility.yul\":3822:3825   */\n          dup1\n            /* \"#utility.yul\":3816:3826   */\n          mload\n            /* \"#utility.yul\":3858:3876   */\n          0xffffffffffffffff\n            /* \"#utility.yul\":3845:3856   */\n          dup2\n            /* \"#utility.yul\":3842:3877   */\n          gt\n            /* \"#utility.yul\":3839:3961   */\n          iszero\n          tag_118\n          jumpi\n            /* \"#utility.yul\":3880:3959   */\n          tag_119\n          tag_34\n          jump\t// in\n        tag_119:\n            /* \"#utility.yul\":3839:3961   */\n        tag_118:\n            /* \"#utility.yul\":4004:4015   */\n          dup1\n            /* \"#utility.yul\":3996:4002   */\n          dup7\n            /* \"#utility.yul\":3992:4016   */\n          add\n            /* \"#utility.yul\":4042:4100   */\n          tag_120\n            /* \"#utility.yul\":4096:4099   */\n          dup10\n            /* \"#utility.yul\":4084:4094   */\n          dup3\n            /* \"#utility.yul\":4042:4100   */\n          tag_43\n          jump\t// in\n        tag_120:\n            /* \"#utility.yul\":4037:4040   */\n          dup6\n            /* \"#utility.yul\":4030:4101   */\n          mstore\n            /* \"#utility.yul\":4130:4134   */\n          0x20\n            /* \"#utility.yul\":4125:4128   */\n          dup6\n            /* \"#utility.yul\":4121:4135   */\n          add\n            /* \"#utility.yul\":4114:4135   */\n          swap5\n          pop\n            /* \"#utility.yul\":3782:4145   */\n          pop\n          pop\n            /* \"#utility.yul\":3766:3770   */\n          0x20\n            /* \"#utility.yul\":3761:3764   */\n          dup2\n            /* \"#utility.yul\":3757:3771   */\n          add\n            /* \"#utility.yul\":3750:3771   */\n          swap1\n          pop\n            /* \"#utility.yul\":3706:4145   */\n          jump(tag_115)\n        tag_117:\n            /* \"#utility.yul\":3710:3731   */\n          pop\n            /* \"#utility.yul\":3314:4151   */\n          pop\n          pop\n            /* \"#utility.yul\":3191:4151   */\n          swap4\n          swap3\n          pop\n          pop\n          pop\n          jump\t// out\n            /* \"#utility.yul\":4173:4578   */\n        tag_47:\n            /* \"#utility.yul\":4265:4270   */\n          0x00\n            /* \"#utility.yul\":4314:4317   */\n          dup3\n            /* \"#utility.yul\":4307:4311   */\n          0x1f\n            /* \"#utility.yul\":4299:4305   */\n          dup4\n            /* \"#utility.yul\":4295:4312   */\n          add\n            /* \"#utility.yul\":4291:4318   */\n          slt\n            /* \"#utility.yul\":4281:4403   */\n          tag_122\n          jumpi\n            /* \"#utility.yul\":4322:4401   */\n          tag_123\n          tag_34\n          jump\t// in\n        tag_123:\n            /* \"#utility.yul\":4281:4403   */\n        tag_122:\n            /* \"#utility.yul\":4432:4438   */\n          dup2\n            /* \"#utility.yul\":4426:4439   */\n          mload\n            /* \"#utility.yul\":4457:4572   */\n          tag_124\n            /* \"#utility.yul\":4568:4571   */\n          dup5\n            /* \"#utility.yul\":4560:4566   */\n          dup3\n            /* \"#utility.yul\":4553:4557   */\n          0x20\n            /* \"#utility.yul\":4545:4551   */\n          dup7\n            /* \"#utility.yul\":4541:4558   */\n          add\n            /* \"#utility.yul\":4457:4572   */\n          tag_46\n          jump\t// in\n        tag_124:\n            /* \"#utility.yul\":4448:4572   */\n          swap2\n          pop\n            /* \"#utility.yul\":4271:4578   */\n          pop\n            /* \"#utility.yul\":4173:4578   */\n          swap3\n          swap2\n          pop\n          pop\n          jump\t// out\n            /* \"#utility.yul\":4584:4710   */\n        tag_48:\n            /* \"#utility.yul\":4621:4628   */\n          0x00\n            /* \"#utility.yul\":4661:4703   */\n          0xffffffffffffffffffffffffffffffffffffffff\n            /* \"#utility.yul\":4654:4659   */\n          dup3\n            /* \"#utility.yul\":4650:4704   */\n          and\n            /* \"#utility.yul\":4639:4704   */\n          swap1\n          pop\n            /* \"#utility.yul\":4584:4710   */\n          swap2\n          swap1\n          pop\n          jump\t// out\n            /* \"#utility.yul\":4716:4812   */\n        tag_49:\n            /* \"#utility.yul\":4753:4760   */\n          0x00\n            /* \"#utility.yul\":4782:4806   */\n          tag_127\n            /* \"#utility.yul\":4800:4805   */\n          dup3\n            /* \"#utility.yul\":4782:4806   */\n          tag_48\n          jump\t// in\n        tag_127:\n            /* \"#utility.yul\":4771:4806   */\n          swap1\n          pop\n            /* \"#utility.yul\":4716:4812   */\n          swap2\n          swap1\n          pop\n          jump\t// out\n            /* \"#utility.yul\":4818:4940   */\n        tag_50:\n            /* \"#utility.yul\":4891:4915   */\n          tag_129\n            /* \"#utility.yul\":4909:4914   */\n          dup2\n            /* \"#utility.yul\":4891:4915   */\n          tag_49\n          jump\t// in\n        tag_129:\n            /* \"#utility.yul\":4884:4889   */\n          dup2\n            /* \"#utility.yul\":4881:4916   */\n          eq\n            /* \"#utility.yul\":4871:4934   */\n          tag_130\n          jumpi\n            /* \"#utility.yul\":4930:4931   */\n          0x00\n            /* \"#utility.yul\":4927:4928   */\n          dup1\n            /* \"#utility.yul\":4920:4932   */\n          revert\n            /* \"#utility.yul\":4871:4934   */\n        tag_130:\n            /* \"#utility.yul\":4818:4940   */\n          pop\n          jump\t// out\n            /* \"#utility.yul\":4946:5089   */\n        tag_51:\n            /* \"#utility.yul\":5003:5008   */\n          0x00\n            /* \"#utility.yul\":5034:5040   */\n          dup2\n            /* \"#utility.yul\":5028:5041   */\n          mload\n            /* \"#utility.yul\":5019:5041   */\n          swap1\n          pop\n            /* \"#utility.yul\":5050:5083   */\n          tag_132\n            /* \"#utility.yul\":5077:5082   */\n          dup2\n            /* \"#utility.yul\":5050:5083   */\n          tag_50\n          jump\t// in\n        tag_132:\n            /* \"#utility.yul\":4946:5089   */\n          swap3\n          swap2\n          pop\n          pop\n          jump\t// out\n            /* \"#utility.yul\":5095:5172   */\n        tag_52:\n            /* \"#utility.yul\":5132:5139   */\n          0x00\n            /* \"#utility.yul\":5161:5166   */\n          dup2\n            /* \"#utility.yul\":5150:5166   */\n          swap1\n          pop\n            /* \"#utility.yul\":5095:5172   */\n          swap2\n          swap1\n          pop\n          jump\t// out\n            /* \"#utility.yul\":5178:5300   */\n        tag_53:\n            /* \"#utility.yul\":5251:5275   */\n          tag_135\n            /* \"#utility.yul\":5269:5274   */\n          dup2\n            /* \"#utility.yul\":5251:5275   */\n          tag_52\n          jump\t// in\n        tag_135:\n            /* \"#utility.yul\":5244:5249   */\n          dup2\n            /* \"#utility.yul\":5241:5276   */\n          eq\n            /* \"#utility.yul\":5231:5294   */\n          tag_136\n          jumpi\n            /* \"#utility.yul\":5290:5291   */\n          0x00\n            /* \"#utility.yul\":5287:5288   */\n          dup1\n            /* \"#utility.yul\":5280:5292   */\n          revert\n            /* \"#utility.yul\":5231:5294   */\n        tag_136:\n            /* \"#utility.yul\":5178:5300   */\n          pop\n          jump\t// out\n            /* \"#utility.yul\":5306:5449   */\n        tag_54:\n            /* \"#utility.yul\":5363:5368   */\n          0x00\n            /* \"#utility.yul\":5394:5400   */\n          dup2\n            /* \"#utility.yul\":5388:5401   */\n          mload\n            /* \"#utility.yul\":5379:5401   */\n          swap1\n          pop\n            /* \"#utility.yul\":5410:5443   */\n          tag_138\n            /* \"#utility.yul\":5437:5442   */\n          dup2\n            /* \"#utility.yul\":5410:5443   */\n          tag_53\n          jump\t// in\n        tag_138:\n            /* \"#utility.yul\":5306:5449   */\n          swap3\n          swap2\n          pop\n          pop\n          jump\t// out\n            /* \"#utility.yul\":5455:7711   */\n        tag_2:\n            /* \"#utility.yul\":5679:5685   */\n          0x00\n            /* \"#utility.yul\":5687:5693   */\n          dup1\n            /* \"#utility.yul\":5695:5701   */\n          0x00\n            /* \"#utility.yul\":5703:5709   */\n          dup1\n            /* \"#utility.yul\":5711:5717   */\n          0x00\n            /* \"#utility.yul\":5719:5725   */\n          dup1\n            /* \"#utility.yul\":5727:5733   */\n          0x00\n            /* \"#utility.yul\":5776:5779   */\n          0xe0\n            /* \"#utility.yul\":5764:5773   */\n          dup9\n            /* \"#utility.yul\":5755:5762   */\n          dup11\n            /* \"#utility.yul\":5751:5774   */\n          sub\n            /* \"#utility.yul\":5747:5780   */\n          slt\n            /* \"#utility.yul\":5744:5864   */\n          iszero\n          tag_140\n          jumpi\n            /* \"#utility.yul\":5783:5862   */\n          tag_141\n          tag_32\n          jump\t// in\n        tag_141:\n            /* \"#utility.yul\":5744:5864   */\n        tag_140:\n            /* \"#utility.yul\":5924:5925   */\n          0x00\n            /* \"#utility.yul\":5913:5922   */\n          dup9\n            /* \"#utility.yul\":5909:5926   */\n          add\n            /* \"#utility.yul\":5903:5927   */\n          mload\n            /* \"#utility.yul\":5954:5972   */\n          0xffffffffffffffff\n            /* \"#utility.yul\":5946:5952   */\n          dup2\n            /* \"#utility.yul\":5943:5973   */\n          gt\n            /* \"#utility.yul\":5940:6057   */\n          iszero\n          tag_142\n          jumpi\n            /* \"#utility.yul\":5976:6055   */\n          tag_143\n          tag_33\n          jump\t// in\n        tag_143:\n            /* \"#utility.yul\":5940:6057   */\n        tag_142:\n            /* \"#utility.yul\":6081:6155   */\n          tag_144\n            /* \"#utility.yul\":6147:6154   */\n          dup11\n            /* \"#utility.yul\":6138:6144   */\n          dup3\n            /* \"#utility.yul\":6127:6136   */\n          dup12\n            /* \"#utility.yul\":6123:6145   */\n          add\n            /* \"#utility.yul\":6081:6155   */\n          tag_43\n          jump\t// in\n        tag_144:\n            /* \"#utility.yul\":6071:6155   */\n          swap8\n          pop\n            /* \"#utility.yul\":5874:6165   */\n          pop\n            /* \"#utility.yul\":6225:6227   */\n          0x20\n            /* \"#utility.yul\":6214:6223   */\n          dup9\n            /* \"#utility.yul\":6210:6228   */\n          add\n            /* \"#utility.yul\":6204:6229   */\n          mload\n            /* \"#utility.yul\":6256:6274   */\n          0xffffffffffffffff\n            /* \"#utility.yul\":6248:6254   */\n          dup2\n            /* \"#utility.yul\":6245:6275   */\n          gt\n            /* \"#utility.yul\":6242:6359   */\n          iszero\n          tag_145\n          jumpi\n            /* \"#utility.yul\":6278:6357   */\n          tag_146\n          tag_33\n          jump\t// in\n        tag_146:\n            /* \"#utility.yul\":6242:6359   */\n        tag_145:\n            /* \"#utility.yul\":6383:6457   */\n          tag_147\n            /* \"#utility.yul\":6449:6456   */\n          dup11\n            /* \"#utility.yul\":6440:6446   */\n          dup3\n            /* \"#utility.yul\":6429:6438   */\n          dup12\n            /* \"#utility.yul\":6425:6447   */\n          add\n            /* \"#utility.yul\":6383:6457   */\n          tag_43\n          jump\t// in\n        tag_147:\n            /* \"#utility.yul\":6373:6457   */\n          swap7\n          pop\n            /* \"#utility.yul\":6175:6467   */\n          pop\n            /* \"#utility.yul\":6527:6529   */\n          0x40\n            /* \"#utility.yul\":6516:6525   */\n          dup9\n            /* \"#utility.yul\":6512:6530   */\n          add\n            /* \"#utility.yul\":6506:6531   */\n          mload\n            /* \"#utility.yul\":6558:6576   */\n          0xffffffffffffffff\n            /* \"#utility.yul\":6550:6556   */\n          dup2\n            /* \"#utility.yul\":6547:6577   */\n          gt\n            /* \"#utility.yul\":6544:6661   */\n          iszero\n          tag_148\n          jumpi\n            /* \"#utility.yul\":6580:6659   */\n          tag_149\n          tag_33\n          jump\t// in\n        tag_149:\n            /* \"#utility.yul\":6544:6661   */\n        tag_148:\n            /* \"#utility.yul\":6685:6759   */\n          tag_150\n            /* \"#utility.yul\":6751:6758   */\n          dup11\n            /* \"#utility.yul\":6742:6748   */\n          dup3\n            /* \"#utility.yul\":6731:6740   */\n          dup12\n            /* \"#utility.yul\":6727:6749   */\n          add\n            /* \"#utility.yul\":6685:6759   */\n          tag_43\n          jump\t// in\n        tag_150:\n            /* \"#utility.yul\":6675:6759   */\n          swap6\n          pop\n            /* \"#utility.yul\":6477:6769   */\n          pop\n            /* \"#utility.yul\":6829:6831   */\n          0x60\n            /* \"#utility.yul\":6818:6827   */\n          dup9\n            /* \"#utility.yul\":6814:6832   */\n          add\n            /* \"#utility.yul\":6808:6833   */\n          mload\n            /* \"#utility.yul\":6860:6878   */\n          0xffffffffffffffff\n            /* \"#utility.yul\":6852:6858   */\n          dup2\n            /* \"#utility.yul\":6849:6879   */\n          gt\n            /* \"#utility.yul\":6846:6963   */\n          iszero\n          tag_151\n          jumpi\n            /* \"#utility.yul\":6882:6961   */\n          tag_152\n          tag_33\n          jump\t// in\n        tag_152:\n            /* \"#utility.yul\":6846:6963   */\n        tag_151:\n            /* \"#utility.yul\":6987:7086   */\n          tag_153\n            /* \"#utility.yul\":7078:7085   */\n          dup11\n            /* \"#utility.yul\":7069:7075   */\n          dup3\n            /* \"#utility.yul\":7058:7067   */\n          dup12\n            /* \"#utility.yul\":7054:7076   */\n          add\n            /* \"#utility.yul\":6987:7086   */\n          tag_47\n          jump\t// in\n        tag_153:\n            /* \"#utility.yul\":6977:7086   */\n          swap5\n          pop\n            /* \"#utility.yul\":6779:7096   */\n          pop\n            /* \"#utility.yul\":7156:7159   */\n          0x80\n            /* \"#utility.yul\":7145:7154   */\n          dup9\n            /* \"#utility.yul\":7141:7160   */\n          add\n            /* \"#utility.yul\":7135:7161   */\n          mload\n            /* \"#utility.yul\":7188:7206   */\n          0xffffffffffffffff\n            /* \"#utility.yul\":7180:7186   */\n          dup2\n            /* \"#utility.yul\":7177:7207   */\n          gt\n            /* \"#utility.yul\":7174:7291   */\n          iszero\n          tag_154\n          jumpi\n            /* \"#utility.yul\":7210:7289   */\n          tag_155\n          tag_33\n          jump\t// in\n        tag_155:\n            /* \"#utility.yul\":7174:7291   */\n        tag_154:\n            /* \"#utility.yul\":7315:7414   */\n          tag_156\n            /* \"#utility.yul\":7406:7413   */\n          dup11\n            /* \"#utility.yul\":7397:7403   */\n          dup3\n            /* \"#utility.yul\":7386:7395   */\n          dup12\n            /* \"#utility.yul\":7382:7404   */\n          add\n            /* \"#utility.yul\":7315:7414   */\n          tag_47\n          jump\t// in\n        tag_156:\n            /* \"#utility.yul\":7305:7414   */\n          swap4\n          pop\n            /* \"#utility.yul\":7106:7424   */\n          pop\n            /* \"#utility.yul\":7463:7466   */\n          0xa0\n            /* \"#utility.yul\":7490:7554   */\n          tag_157\n            /* \"#utility.yul\":7546:7553   */\n          dup11\n            /* \"#utility.yul\":7537:7543   */\n          dup3\n            /* \"#utility.yul\":7526:7535   */\n          dup12\n            /* \"#utility.yul\":7522:7544   */\n          add\n            /* \"#utility.yul\":7490:7554   */\n          tag_51\n          jump\t// in\n        tag_157:\n            /* \"#utility.yul\":7480:7554   */\n          swap3\n          pop\n            /* \"#utility.yul\":7434:7564   */\n          pop\n            /* \"#utility.yul\":7603:7606   */\n          0xc0\n            /* \"#utility.yul\":7630:7694   */\n          tag_158\n            /* \"#utility.yul\":7686:7693   */\n          dup11\n            /* \"#utility.yul\":7677:7683   */\n          dup3\n            /* \"#utility.yul\":7666:7675   */\n          dup12\n            /* \"#utility.yul\":7662:7684   */\n          add\n            /* \"#utility.yul\":7630:7694   */\n          tag_54\n          jump\t// in\n        tag_158:\n            /* \"#utility.yul\":7620:7694   */\n          swap2\n          pop\n            /* \"#utility.yul\":7574:7704   */\n          pop\n            /* \"#utility.yul\":5455:7711   */\n          swap3\n          swap6\n          swap9\n          swap2\n          swap5\n          swap8\n          pop\n          swap3\n          swap6\n          pop\n          jump\t// out\n            /* \"#utility.yul\":7717:7816   */\n        tag_55:\n            /* \"#utility.yul\":7769:7775   */\n          0x00\n            /* \"#utility.yul\":7803:7808   */\n          dup2\n            /* \"#utility.yul\":7797:7809   */\n          mload\n            /* \"#utility.yul\":7787:7809   */\n          swap1\n          pop\n            /* \"#utility.yul\":7717:7816   */\n          swap2\n          swap1\n          pop\n          jump\t// out\n            /* \"#utility.yul\":7822:8002   */\n        tag_56:\n            /* \"#utility.yul\":7870:7947   */\n          0x4e487b7100000000000000000000000000000000000000000000000000000000\n            /* \"#utility.yul\":7867:7868   */\n          0x00\n            /* \"#utility.yul\":7860:7948   */\n          mstore\n            /* \"#utility.yul\":7967:7971   */\n          0x22\n            /* \"#utility.yul\":7964:7965   */\n          0x04\n            /* \"#utility.yul\":7957:7972   */\n          mstore\n            /* \"#utility.yul\":7991:7995   */\n          0x24\n            /* \"#utility.yul\":7988:7989   */\n          0x00\n            /* \"#utility.yul\":7981:7996   */\n          revert\n            /* \"#utility.yul\":8008:8328   */\n        tag_24:\n            /* \"#utility.yul\":8052:8058   */\n          0x00\n            /* \"#utility.yul\":8089:8090   */\n          0x02\n            /* \"#utility.yul\":8083:8087   */\n          dup3\n            /* \"#utility.yul\":8079:8091   */\n          div\n            /* \"#utility.yul\":8069:8091   */\n          swap1\n          pop\n            /* \"#utility.yul\":8136:8137   */\n          0x01\n            /* \"#utility.yul\":8130:8134   */\n          dup3\n            /* \"#utility.yul\":8126:8138   */\n          and\n            /* \"#utility.yul\":8157:8175   */\n          dup1\n            /* \"#utility.yul\":8147:8228   */\n          tag_162\n          jumpi\n            /* \"#utility.yul\":8213:8217   */\n          0x7f\n            /* \"#utility.yul\":8205:8211   */\n          dup3\n            /* \"#utility.yul\":8201:8218   */\n          and\n            /* \"#utility.yul\":8191:8218   */\n          swap2\n          pop\n            /* \"#utility.yul\":8147:8228   */\n        tag_162:\n            /* \"#utility.yul\":8275:8277   */\n          0x20\n            /* \"#utility.yul\":8267:8273   */\n          dup3\n            /* \"#utility.yul\":8264:8278   */\n          lt\n            /* \"#utility.yul\":8244:8262   */\n          dup2\n            /* \"#utility.yul\":8241:8279   */\n          sub\n            /* \"#utility.yul\":8238:8322   */\n          tag_163\n          jumpi\n            /* \"#utility.yul\":8294:8312   */\n          tag_164\n          tag_56\n          jump\t// in\n        tag_164:\n            /* \"#utility.yul\":8238:8322   */\n        tag_163:\n            /* \"#utility.yul\":8059:8328   */\n          pop\n            /* \"#utility.yul\":8008:8328   */\n          swap2\n          swap1\n          pop\n          jump\t// out\n            /* \"#utility.yul\":8334:8475   */\n        tag_57:\n            /* \"#utility.yul\":8383:8387   */\n          0x00\n            /* \"#utility.yul\":8406:8409   */\n          dup2\n            /* \"#utility.yul\":8398:8409   */\n          swap1\n          pop\n            /* \"#utility.yul\":8429:8432   */\n          dup2\n            /* \"#utility.yul\":8426:8427   */\n          0x00\n            /* \"#utility.yul\":8419:8433   */\n          mstore\n            /* \"#utility.yul\":8463:8467   */\n          0x20\n            /* \"#utility.yul\":8460:8461   */\n          0x00\n            /* \"#utility.yul\":8450:8468   */\n          keccak256\n            /* \"#utility.yul\":8442:8468   */\n          swap1\n          pop\n            /* \"#utility.yul\":8334:8475   */\n          swap2\n          swap1\n          pop\n          jump\t// out\n            /* \"#utility.yul\":8481:8574   */\n        tag_58:\n            /* \"#utility.yul\":8518:8524   */\n          0x00\n            /* \"#utility.yul\":8565:8567   */\n          0x20\n            /* \"#utility.yul\":8560:8562   */\n          0x1f\n            /* \"#utility.yul\":8553:8558   */\n          dup4\n            /* \"#utility.yul\":8549:8563   */\n          add\n            /* \"#utility.yul\":8545:8568   */\n          div\n            /* \"#utility.yul\":8535:8568   */\n          swap1\n          pop\n            /* \"#utility.yul\":8481:8574   */\n          swap2\n          swap1\n          pop\n          jump\t// out\n            /* \"#utility.yul\":8580:8687   */\n        tag_59:\n            /* \"#utility.yul\":8624:8632   */\n          0x00\n            /* \"#utility.yul\":8674:8679   */\n          dup3\n            /* \"#utility.yul\":8668:8672   */\n          dup3\n            /* \"#utility.yul\":8664:8680   */\n          shl\n            /* \"#utility.yul\":8643:8680   */\n          swap1\n          pop\n            /* \"#utility.yul\":8580:8687   */\n          swap3\n          swap2\n          pop\n          pop\n          jump\t// out\n            /* \"#utility.yul\":8693:9086   */\n        tag_60:\n            /* \"#utility.yul\":8762:8768   */\n          0x00\n            /* \"#utility.yul\":8812:8813   */\n          0x08\n            /* \"#utility.yul\":8800:8810   */\n          dup4\n            /* \"#utility.yul\":8796:8814   */\n          mul\n            /* \"#utility.yul\":8835:8932   */\n          tag_169\n            /* \"#utility.yul\":8865:8931   */\n          0xffffffffffffffffffffffffffffffffffffffffffffffffffffffffffffffff\n            /* \"#utility.yul\":8854:8863   */\n          dup3\n            /* \"#utility.yul\":8835:8932   */\n          tag_59\n          jump\t// in\n        tag_169:\n            /* \"#utility.yul\":8953:8992   */\n          tag_170\n            /* \"#utility.yul\":8983:8991   */\n          dup7\n            /* \"#utility.yul\":8972:8981   */\n          dup4\n            /* \"#utility.yul\":8953:8992   */\n          tag_59\n          jump\t// in\n        tag_170:\n            /* \"#utility.yul\":8941:8992   */\n          swap6\n          pop\n            /* \"#utility.yul\":9025:9029   */\n          dup1\n            /* \"#utility.yul\":9021:9030   */\n          not\n            /* \"#utility.yul\":9014:9019   */\n          dup5\n            /* \"#utility.yul\":9010:9031   */\n          and\n            /* \"#utility.yul\":9001:9031   */\n          swap4\n          pop\n            /* \"#utility.yul\":9074:9078   */\n          dup1\n            /* \"#utility.yul\":9064:9072   */\n          dup7\n            /* \"#utility.yul\":9060:9079   */\n          and\n            /* \"#utility.yul\":9053:9058   */\n          dup5\n            /* \"#utility.yul\":9050:9080   */\n          or\n            /* \"#utility.yul\":9040:9080   */\n          swap3\n          pop\n            /* \"#utility.yul\":8769:9086   */\n          pop\n          pop\n            /* \"#utility.yul\":8693:9086   */\n          swap4\n          swap3\n          pop\n          pop\n          pop\n          jump\t// out\n            /* \"#utility.yul\":9092:9152   */\n        tag_61:\n            /* \"#utility.yul\":9120:9123   */\n          0x00\n            /* \"#utility.yul\":9141:9146   */\n          dup2\n            /* \"#utility.yul\":9134:9146   */\n          swap1\n          pop\n            /* \"#utility.yul\":9092:9152   */\n          swap2\n          swap1\n          pop\n          jump\t// out\n            /* \"#utility.yul\":9158:9300   */\n        tag_62:\n            /* \"#utility.yul\":9208:9217   */\n          0x00\n            /* \"#utility.yul\":9241:9294   */\n          tag_173\n            /* \"#utility.yul\":9259:9293   */\n          tag_174\n            /* \"#utility.yul\":9268:9292   */\n          tag_175\n            /* \"#utility.yul\":9286:9291   */\n          dup5\n            /* \"#utility.yul\":9268:9292   */\n          tag_52\n          jump\t// in\n        tag_175:\n            /* \"#utility.yul\":9259:9293   */\n          tag_61\n          jump\t// in\n        tag_174:\n            /* \"#utility.yul\":9241:9294   */\n          tag_52\n          jump\t// in\n        tag_173:\n            /* \"#utility.yul\":9228:9294   */\n          swap1\n          pop\n            /* \"#utility.yul\":9158:9300   */\n          swap2\n          swap1\n          pop\n          jump\t// out\n            /* \"#utility.yul\":9306:9381   */\n        tag_63:\n            /* \"#utility.yul\":9349:9352   */\n          0x00\n            /* \"#utility.yul\":9370:9375   */\n          dup2\n            /* \"#utility.yul\":9363:9375   */\n          swap1\n          pop\n            /* \"#utility.yul\":9306:9381   */\n          swap2\n          swap1\n          pop\n          jump\t// out\n            /* \"#utility.yul\":9387:9656   */\n        tag_64:\n            /* \"#utility.yul\":9497:9536   */\n          tag_178\n            /* \"#utility.yul\":9528:9535   */\n          dup4\n            /* \"#utility.yul\":9497:9536   */\n          tag_62\n          jump\t// in\n        tag_178:\n            /* \"#utility.yul\":9558:9649   */\n          tag_179\n            /* \"#utility.yul\":9607:9648   */\n          tag_180\n            /* \"#utility.yul\":9631:9647   */\n          dup3\n            /* \"#utility.yul\":9607:9648   */\n          tag_63\n          jump\t// in\n        tag_180:\n            /* \"#utility.yul\":9599:9605   */\n          dup5\n            /* \"#utility.yul\":9592:9596   */\n          dup5\n            /* \"#utility.yul\":9586:9597   */\n          sload\n            /* \"#utility.yul\":9558:9649   */\n          tag_60\n          jump\t// in\n        tag_179:\n            /* \"#utility.yul\":9552:9556   */\n          dup3\n            /* \"#utility.yul\":9545:9650   */\n          sstore\n            /* \"#utility.yul\":9463:9656   */\n          pop\n            /* \"#utility.yul\":9387:9656   */\n          pop\n          pop\n          pop\n          jump\t// out\n            /* \"#utility.yul\":9662:9735   */\n        tag_65:\n            /* \"#utility.yul\":9707:9710   */\n          0x00\n            /* \"#utility.yul\":9662:9735   */\n          swap1\n          jump\t// out\n            /* \"#utility.yul\":9741:9930   */\n        tag_66:\n            /* \"#utility.yul\":9818:9850   */\n          tag_183\n          tag_65\n          jump\t// in\n        tag_183:\n            /* \"#utility.yul\":9859:9924   */\n          tag_184\n            /* \"#utility.yul\":9917:9923   */\n          dup2\n            /* \"#utility.yul\":9909:9915   */\n          dup5\n            /* \"#utility.yul\":9903:9907   */\n          dup5\n            /* \"#utility.yul\":9859:9924   */\n          tag_64\n          jump\t// in\n        tag_184:\n            /* \"#utility.yul\":9794:9930   */\n          pop\n            /* \"#utility.yul\":9741:9930   */\n          pop\n          pop\n          jump\t// out\n            /* \"#utility.yul\":9936:10122   */\n        tag_67:\n            /* \"#utility.yul\":9996:10116   */\n        tag_186:\n            /* \"#utility.yul\":10013:10016   */\n          dup2\n            /* \"#utility.yul\":10006:10011   */\n          dup2\n            /* \"#utility.yul\":10003:10017   */\n          lt\n            /* \"#utility.yul\":9996:10116   */\n          iszero\n          tag_188\n          jumpi\n            /* \"#utility.yul\":10067:10106   */\n          tag_189\n            /* \"#utility.yul\":10104:10105   */\n          0x00\n            /* \"#utility.yul\":10097:10102   */\n          dup3\n            /* \"#utility.yul\":10067:10106   */\n          tag_66\n          jump\t// in\n        tag_189:\n            /* \"#utility.yul\":10040:10041   */\n          0x01\n            /* \"#utility.yul\":10033:10038   */\n          dup2\n            /* \"#utility.yul\":10029:10042   */\n          add\n            /* \"#utility.yul\":10020:10042   */\n          swap1\n          pop\n            /* \"#utility.yul\":9996:10116   */\n          jump(tag_186)\n        tag_188:\n            /* \"#utility.yul\":9936:10122   */\n          pop\n          pop\n          jump\t// out\n            /* \"#utility.yul\":10128:10671   */\n        tag_68:\n            /* \"#utility.yul\":10229:10231   */\n          0x1f\n            /* \"#utility.yul\":10224:10227   */\n          dup3\n            /* \"#utility.yul\":10221:10232   */\n          gt\n            /* \"#utility.yul\":10218:10664   */\n          iszero\n          tag_191\n          jumpi\n            /* \"#utility.yul\":10263:10301   */\n          tag_192\n            /* \"#utility.yul\":10295:10300   */\n          dup2\n            /* \"#utility.yul\":10263:10301   */\n          tag_57\n          jump\t// in\n        tag_192:\n            /* \"#utility.yul\":10347:10376   */\n          tag_193\n            /* \"#utility.yul\":10365:10375   */\n          dup5\n            /* \"#utility.yul\":10347:10376   */\n          tag_58\n          jump\t// in\n        tag_193:\n            /* \"#utility.yul\":10337:10345   */\n          dup2\n            /* \"#utility.yul\":10333:10377   */\n          add\n            /* \"#utility.yul\":10530:10532   */\n          0x20\n            /* \"#utility.yul\":10518:10528   */\n          dup6\n            /* \"#utility.yul\":10515:10533   */\n          lt\n            /* \"#utility.yul\":10512:10561   */\n          iszero\n          tag_194\n          jumpi\n            /* \"#utility.yul\":10551:10559   */\n          dup2\n            /* \"#utility.yul\":10536:10559   */\n          swap1\n          pop\n            /* \"#utility.yul\":10512:10561   */\n        tag_194:\n            /* \"#utility.yul\":10574:10654   */\n          tag_195\n            /* \"#utility.yul\":10630:10652   */\n          tag_196\n            /* \"#utility.yul\":10648:10651   */\n          dup6\n            /* \"#utility.yul\":10630:10652   */\n          tag_58\n          jump\t// in\n        tag_196:\n            /* \"#utility.yul\":10620:10628   */\n          dup4\n            /* \"#utility.yul\":10616:10653   */\n          add\n            /* \"#utility.yul\":10603:10614   */\n          dup3\n            /* \"#utility.yul\":10574:10654   */\n          tag_67\n          jump\t// in\n        tag_195:\n            /* \"#utility.yul\":10233:10664   */\n          pop\n          pop\n            /* \"#utility.yul\":10218:10664   */\n        tag_191:\n            /* \"#utility.yul\":10128:10671   */\n          pop\n          pop\n          pop\n          jump\t// out\n            /* \"#utility.yul\":10677:10794   */\n        tag_69:\n            /* \"#utility.yul\":10731:10739   */\n          0x00\n            /* \"#utility.yul\":10781:10786   */\n          dup3\n            /* \"#utility.yul\":10775:10779   */\n          dup3\n            /* \"#utility.yul\":10771:10787   */\n          shr\n            /* \"#utility.yul\":10750:10787   */\n          swap1\n          pop\n            /* \"#utility.yul\":10677:10794   */\n          swap3\n          swap2\n          pop\n          pop\n          jump\t// out\n            /* \"#utility.yul\":10800:10969   */\n        tag_70:\n            /* \"#utility.yul\":10844:10850   */\n          0x00\n            /* \"#utility.yul\":10877:10928   */\n          tag_199\n            /* \"#utility.yul\":10925:10926   */\n          0x00\n            /* \"#utility.yul\":10921:10927   */\n          not\n            /* \"#utility.yul\":10913:10918   */\n          dup5\n            /* \"#utility.yul\":10910:10911   */\n          0x08\n            /* \"#utility.yul\":10906:10919   */\n          mul\n            /* \"#utility.yul\":10877:10928   */\n          tag_69\n          jump\t// in\n        tag_199:\n            /* \"#utility.yul\":10873:10929   */\n          not\n            /* \"#utility.yul\":10958:10962   */\n          dup1\n            /* \"#utility.yul\":10952:10956   */\n          dup4\n            /* \"#utility.yul\":10948:10963   */\n          and\n            /* \"#utility.yul\":10938:10963   */\n          swap2\n          pop\n            /* \"#utility.yul\":10851:10969   */\n          pop\n            /* \"#utility.yul\":10800:10969   */\n          swap3\n          swap2\n          pop\n          pop\n          jump\t// out\n            /* \"#utility.yul\":10974:11269   */\n        tag_71:\n            /* \"#utility.yul\":11050:11054   */\n          0x00\n            /* \"#utility.yul\":11196:11225   */\n          tag_201\n            /* \"#utility.yul\":11221:11224   */\n          dup4\n            /* \"#utility.yul\":11215:11219   */\n          dup4\n            /* \"#utility.yul\":11196:11225   */\n          tag_70\n          jump\t// in\n        tag_201:\n            /* \"#utility.yul\":11188:11225   */\n          swap2\n          pop\n            /* \"#utility.yul\":11258:11261   */\n          dup3\n            /* \"#utility.yul\":11255:11256   */\n          0x02\n            /* \"#utility.yul\":11251:11262   */\n          mul\n            /* \"#utility.yul\":11245:11249   */\n          dup3\n            /* \"#utility.yul\":11242:11263   */\n          or\n            /* \"#utility.yul\":11234:11263   */\n          swap1\n          pop\n            /* \"#utility.yul\":10974:11269   */\n          swap3\n          swap2\n          pop\n          pop\n          jump\t// out\n            /* \"#utility.yul\":11274:12669   */\n        tag_6:\n            /* \"#utility.yul\":11391:11428   */\n          tag_203\n            /* \"#utility.yul\":11424:11427   */\n          dup3\n            /* \"#utility.yul\":11391:11428   */\n          tag_55\n          jump\t// in\n        tag_203:\n            /* \"#utility.yul\":11493:11511   */\n          0xffffffffffffffff\n            /* \"#utility.yul\":11485:11491   */\n          dup2\n            /* \"#utility.yul\":11482:11512   */\n          gt\n            /* \"#utility.yul\":11479:11535   */\n          iszero\n          tag_204\n          jumpi\n            /* \"#utility.yul\":11515:11533   */\n          tag_205\n          tag_37\n          jump\t// in\n        tag_205:\n            /* \"#utility.yul\":11479:11535   */\n        tag_204:\n            /* \"#utility.yul\":11559:11597   */\n          tag_206\n            /* \"#utility.yul\":11591:11595   */\n          dup3\n            /* \"#utility.yul\":11585:11596   */\n          sload\n            /* \"#utility.yul\":11559:11597   */\n          tag_24\n          jump\t// in\n        tag_206:\n            /* \"#utility.yul\":11644:11711   */\n          tag_207\n            /* \"#utility.yul\":11704:11710   */\n          dup3\n            /* \"#utility.yul\":11696:11702   */\n          dup3\n            /* \"#utility.yul\":11690:11694   */\n          dup6\n            /* \"#utility.yul\":11644:11711   */\n          tag_68\n          jump\t// in\n        tag_207:\n            /* \"#utility.yul\":11738:11739   */\n          0x00\n            /* \"#utility.yul\":11762:11766   */\n          0x20\n            /* \"#utility.yul\":11749:11766   */\n          swap1\n          pop\n            /* \"#utility.yul\":11794:11796   */\n          0x1f\n            /* \"#utility.yul\":11786:11792   */\n          dup4\n            /* \"#utility.yul\":11783:11797   */\n          gt\n            /* \"#utility.yul\":11811:11812   */\n          0x01\n            /* \"#utility.yul\":11806:12424   */\n          dup2\n          eq\n          tag_209\n          jumpi\n            /* \"#utility.yul\":12468:12469   */\n          0x00\n            /* \"#utility.yul\":12485:12491   */\n          dup5\n            /* \"#utility.yul\":12482:12559   */\n          iszero\n          tag_210\n          jumpi\n            /* \"#utility.yul\":12534:12543   */\n          dup3\n            /* \"#utility.yul\":12529:12532   */\n          dup8\n            /* \"#utility.yul\":12525:12544   */\n          add\n            /* \"#utility.yul\":12519:12545   */\n          mload\n            /* \"#utility.yul\":12510:12545   */\n          swap1\n          pop\n            /* \"#utility.yul\":12482:12559   */\n        tag_210:\n            /* \"#utility.yul\":12585:12652   */\n          tag_211\n            /* \"#utility.yul\":12645:12651   */\n          dup6\n            /* \"#utility.yul\":12638:12643   */\n          dup3\n            /* \"#utility.yul\":12585:12652   */\n          tag_71\n          jump\t// in\n        tag_211:\n            /* \"#utility.yul\":12579:12583   */\n          dup7\n            /* \"#utility.yul\":12572:12653   */\n          sstore\n            /* \"#utility.yul\":12441:12663   */\n          pop\n            /* \"#utility.yul\":11776:12663   */\n          jump(tag_208)\n            /* \"#utility.yul\":11806:12424   */\n        tag_209:\n            /* \"#utility.yul\":11858:11862   */\n          0x1f\n            /* \"#utility.yul\":11854:11863   */\n          not\n            /* \"#utility.yul\":11846:11852   */\n          dup5\n            /* \"#utility.yul\":11842:11864   */\n          and\n            /* \"#utility.yul\":11892:11929   */\n          tag_212\n            /* \"#utility.yul\":11924:11928   */\n          dup7\n            /* \"#utility.yul\":11892:11929   */\n          tag_57\n          jump\t// in\n        tag_212:\n            /* \"#utility.yul\":11951:11952   */\n          0x00\n            /* \"#utility.yul\":11965:12173   */\n        tag_213:\n            /* \"#utility.yul\":11979:11986   */\n          dup3\n            /* \"#utility.yul\":11976:11977   */\n          dup2\n            /* \"#utility.yul\":11973:11987   */\n          lt\n            /* \"#utility.yul\":11965:12173   */\n          iszero\n          tag_215\n          jumpi\n            /* \"#utility.yul\":12058:12067   */\n          dup5\n            /* \"#utility.yul\":12053:12056   */\n          dup10\n            /* \"#utility.yul\":12049:12068   */\n          add\n            /* \"#utility.yul\":12043:12069   */\n          mload\n            /* \"#utility.yul\":12035:12041   */\n          dup3\n            /* \"#utility.yul\":12028:12070   */\n          sstore\n            /* \"#utility.yul\":12109:12110   */\n          0x01\n            /* \"#utility.yul\":12101:12107   */\n          dup3\n            /* \"#utility.yul\":12097:12111   */\n          add\n            /* \"#utility.yul\":12087:12111   */\n          swap2\n          pop\n            /* \"#utility.yul\":12156:12158   */\n          0x20\n            /* \"#utility.yul\":12145:12154   */\n          dup6\n            /* \"#utility.yul\":12141:12159   */\n          add\n            /* \"#utility.yul\":12128:12159   */\n          swap5\n          pop\n            /* \"#utility.yul\":12002:12006   */\n          0x20\n            /* \"#utility.yul\":11999:12000   */\n          dup2\n            /* \"#utility.yul\":11995:12007   */\n          add\n            /* \"#utility.yul\":11990:12007   */\n          swap1\n          pop\n            /* \"#utility.yul\":11965:12173   */\n          jump(tag_213)\n        tag_215:\n            /* \"#utility.yul\":12201:12207   */\n          dup7\n            /* \"#utility.yul\":12192:12199   */\n          dup4\n            /* \"#utility.yul\":12189:12208   */\n          lt\n            /* \"#utility.yul\":12186:12365   */\n          iszero\n          tag_216\n          jumpi\n            /* \"#utility.yul\":12259:12268   */\n          dup5\n            /* \"#utility.yul\":12254:12257   */\n          dup10\n            /* \"#utility.yul\":12250:12269   */\n          add\n            /* \"#utility.yul\":12244:12270   */\n          mload\n            /* \"#utility.yul\":12302:12350   */\n          tag_217\n            /* \"#utility.yul\":12344:12348   */\n          0x1f\n            /* \"#utility.yul\":12336:12342   */\n          dup10\n            /* \"#utility.yul\":12332:12349   */\n          and\n            /* \"#utility.yul\":12321:12330   */\n          dup3\n            /* \"#utility.yul\":12302:12350   */\n          tag_70\n          jump\t// in\n        tag_217:\n            /* \"#utility.yul\":12294:12300   */\n          dup4\n            /* \"#utility.yul\":12287:12351   */\n          sstore\n            /* \"#utility.yul\":12209:12365   */\n          pop\n            /* \"#utility.yul\":12186:12365   */\n        tag_216:\n            /* \"#utility.yul\":12411:12412   */\n          0x01\n            /* \"#utility.yul\":12407:12408   */\n          0x02\n            /* \"#utility.yul\":12399:12405   */\n          dup9\n            /* \"#utility.yul\":12395:12409   */\n          mul\n            /* \"#utility.yul\":12391:12413   */\n          add\n            /* \"#utility.yul\":12385:12389   */\n          dup9\n            /* \"#utility.yul\":12378:12414   */\n          sstore\n            /* \"#utility.yul\":11813:12424   */\n          pop\n          pop\n          pop\n            /* \"#utility.yul\":11776:12663   */\n        tag_208:\n          pop\n            /* \"#utility.yul\":11366:12669   */\n          pop\n          pop\n          pop\n            /* \"#utility.yul\":11274:12669   */\n          pop\n          pop\n          jump\t// out\n            /* \"Task.sol\":806:3389  contract Task {... */\n        tag_12:\n          dataSize(sub_0)\n          dup1\n          dataOffset(sub_0)\n          0x00\n          codecopy\n          0x00\n          return\n        stop\n\n        sub_0: assembly {\n                /* \"Task.sol\":806:3389  contract Task {... */\n              mstore(0x40, 0x80)\n              callvalue\n              dup1\n              iszero\n              tag_1\n              jumpi\n              0x00\n              dup1\n              revert\n            tag_1:\n              pop\n              jumpi(tag_2, lt(calldatasize, 0x04))\n              shr(0xe0, calldataload(0x00))\n              dup1\n              0x5f51c765\n              gt\n              tag_20\n              jumpi\n              dup1\n              0x9e98c6aa\n              gt\n              tag_21\n              jumpi\n              dup1\n              0x9e98c6aa\n              eq\n              tag_15\n              jumpi\n              dup1\n              0xa20fca5a\n              eq\n              tag_16\n              jumpi\n              dup1\n              0xdea4e339\n              eq\n              tag_17\n              jumpi\n              dup1\n              0xfa391c64\n              eq\n              tag_18\n              jumpi\n              dup1\n              0xfbc03a1e\n              eq\n              tag_19\n              jumpi\n              jump(tag_2)\n            tag_21:\n              dup1\n              0x5f51c765\n              eq\n              tag_11\n              jumpi\n              dup1\n              0x71096387\n              eq\n              tag_12\n              jumpi\n              dup1\n              0x74adad1d\n              eq\n              tag_13\n              jumpi\n              dup1\n              0x7b8d558b\n              eq\n              tag_14\n              jumpi\n              jump(tag_2)\n            tag_20:\n              dup1\n              0x481c6a75\n              gt\n              tag_22\n              jumpi\n              dup1\n              0x481c6a75\n              eq\n              tag_7\n              jumpi\n              dup1\n              0x4d547ada\n              eq\n              tag_8\n              jumpi\n              dup1\n              0x5a9b0b89\n              eq\n              tag_9\n              jumpi\n              dup1\n              0x5e1c7322\n              eq\n              tag_10\n              jumpi\n              jump(tag_2)\n            tag_22:\n              dup1\n              0x1aea77\n              eq\n              tag_3\n              jumpi\n              dup1\n              0x231e407a\n              eq\n              tag_4\n              jumpi\n              dup1\n              0x31c3a6f5\n              eq\n              tag_5\n              jumpi\n              dup1\n              0x43a7e9b9\n              eq\n              tag_6\n              jumpi\n            tag_2:\n              0x00\n              dup1\n              revert\n                /* \"Task.sol\":1009:1031  string public taskName */\n            tag_3:\n              tag_23\n              tag_24\n              jump\t// in\n            tag_23:\n              mload(0x40)\n              tag_25\n              swap2\n              swap1\n              tag_26\n              jump\t// in\n            tag_25:\n              mload(0x40)\n              dup1\n              swap2\n              sub\n              swap1\n              return\n                /* \"Task.sol\":2756:2892  function killTask() public restricted {... */\n            tag_4:\n              tag_27\n              tag_28\n              jump\t// in\n            tag_27:\n              stop\n                /* \"Task.sol\":2900:3095  function creaetRequest(string memory description) public {... */\n            tag_5:\n              tag_29\n              0x04\n              dup1\n              calldatasize\n              sub\n              dup2\n              add\n              swap1\n              tag_30\n              swap2\n              swap1\n              tag_31\n              jump\t// in\n            tag_30:\n              tag_32\n              jump\t// in\n            tag_29:\n              stop\n                /* \"Task.sol\":1255:1292  address payable[] public requestsKeys */\n            tag_6:\n              tag_33\n              0x04\n              dup1\n              calldatasize\n              sub\n              dup2\n              add\n              swap1\n              tag_34\n              swap2\n              swap1\n              tag_35\n              jump\t// in\n            tag_34:\n              tag_36\n              jump\t// in\n            tag_33:\n              mload(0x40)\n              tag_37\n              swap2\n              swap1\n              tag_38\n              jump\t// in\n            tag_37:\n              mload(0x40)\n              dup1\n              swap2\n              sub\n              swap1\n              return\n                /* \"Task.sol\":941:971  address payable public manager */\n            tag_7:\n              tag_39\n              tag_40\n              jump\t// in\n            tag_39:\n              mload(0x40)\n              tag_41\n              swap2\n              swap1\n              tag_38\n              jump\t// in\n            tag_41:\n              mload(0x40)\n              dup1\n              swap2\n              sub\n              swap1\n              return\n                /* \"Task.sol\":1139:1168  address payable public worker */\n            tag_8:\n              tag_42\n              tag_43\n              jump\t// in\n            tag_42:\n              mload(0x40)\n              tag_44\n              swap2\n              swap1\n              tag_38\n              jump\t// in\n            tag_44:\n              mload(0x40)\n              dup1\n              swap2\n              sub\n              swap1\n              return\n                /* \"Task.sol\":1892:2552  function getInfo()... */\n            tag_9:\n              tag_45\n              tag_46\n              jump\t// in\n            tag_45:\n              mload(0x40)\n              tag_47\n              swap11\n              swap10\n              swap9\n              swap8\n              swap7\n              swap6\n              swap5\n              swap4\n              swap3\n              swap2\n              swap1\n              tag_48\n              jump\t// in\n            tag_47:\n              mload(0x40)\n              dup1\n              swap2\n              sub\n              swap1\n              return\n                /* \"Task.sol\":2651:2748  function getHashtags() public view returns (string[] memory) {... */\n            tag_10:\n              tag_49\n              tag_50\n              jump\t// in\n            tag_49:\n              mload(0x40)\n              tag_51\n              swap2\n              swap1\n              tag_52\n              jump\t// in\n            tag_51:\n              mload(0x40)\n              dup1\n              swap2\n              sub\n              swap1\n              return\n                /* \"Task.sol\":3103:3250  function startTask(address newWorker) public restricted {... */\n            tag_11:\n              tag_53\n              0x04\n              dup1\n              calldatasize\n              sub\n              dup2\n              add\n              swap1\n              tag_54\n              swap2\n              swap1\n              tag_55\n              jump\t// in\n            tag_54:\n              tag_56\n              jump\t// in\n            tag_53:\n              stop\n                /* \"Task.sol\":1038:1063  string[] public taskFiles */\n            tag_12:\n              tag_57\n              0x04\n              dup1\n              calldatasize\n              sub\n              dup2\n              add\n              swap1\n              tag_58\n              swap2\n              swap1\n              tag_35\n              jump\t// in\n            tag_58:\n              tag_59\n              jump\t// in\n            tag_57:\n              mload(0x40)\n              tag_60\n              swap2\n              swap1\n              tag_26\n              jump\t// in\n            tag_60:\n              mload(0x40)\n              dup1\n              swap2\n              sub\n              swap1\n              return\n                /* \"Task.sol\":1205:1248  mapping(address => Request) public requests */\n            tag_13:\n              tag_61\n              0x04\n              dup1\n              calldatasize\n              sub\n              dup2\n              add\n              swap1\n              tag_62\n              swap2\n              swap1\n              tag_55\n              jump\t// in\n            tag_62:\n              tag_63\n              jump\t// in\n            tag_61:\n              mload(0x40)\n              tag_64\n              swap4\n              swap3\n              swap2\n              swap1\n              tag_65\n              jump\t// in\n            tag_64:\n              mload(0x40)\n              dup1\n              swap2\n              sub\n              swap1\n              return\n                /* \"Task.sol\":1106:1132  string[] public taskSkills */\n            tag_14:\n              tag_66\n              0x04\n              dup1\n              calldatasize\n              sub\n              dup2\n              add\n              swap1\n              tag_67\n              swap2\n              swap1\n              tag_35\n              jump\t// in\n            tag_67:\n              tag_68\n              jump\t// in\n            tag_66:\n              mload(0x40)\n              tag_69\n              swap2\n              swap1\n              tag_26\n              jump\t// in\n            tag_69:\n              mload(0x40)\n              dup1\n              swap2\n              sub\n              swap1\n              return\n                /* \"Task.sol\":1299:1324  uint public taskTimestamp */\n            tag_15:\n              tag_70\n              tag_71\n              jump\t// in\n            tag_70:\n              mload(0x40)\n              tag_72\n              swap2\n              swap1\n              tag_73\n              jump\t// in\n            tag_72:\n              mload(0x40)\n              dup1\n              swap2\n              sub\n              swap1\n              return\n                /* \"Task.sol\":3258:3386  function finalizeTask() public restricted {... */\n            tag_16:\n              tag_74\n              tag_75\n              jump\t// in\n            tag_74:\n              stop\n                /* \"Task.sol\":978:1002  string public taskSphere */\n            tag_17:\n              tag_76\n              tag_77\n              jump\t// in\n            tag_76:\n              mload(0x40)\n              tag_78\n              swap2\n              swap1\n              tag_26\n              jump\t// in\n            tag_78:\n              mload(0x40)\n              dup1\n              swap2\n              sub\n              swap1\n              return\n                /* \"Task.sol\":1175:1198  bool public isCompleted */\n            tag_18:\n              tag_79\n              tag_80\n              jump\t// in\n            tag_79:\n              mload(0x40)\n              tag_81\n              swap2\n              swap1\n              tag_82\n              jump\t// in\n            tag_81:\n              mload(0x40)\n              dup1\n              swap2\n              sub\n              swap1\n              return\n                /* \"Task.sol\":1070:1099  string public taskDescription */\n            tag_19:\n              tag_83\n              tag_84\n              jump\t// in\n            tag_83:\n              mload(0x40)\n              tag_85\n              swap2\n              swap1\n              tag_26\n              jump\t// in\n            tag_85:\n              mload(0x40)\n              dup1\n              swap2\n              sub\n              swap1\n              return\n                /* \"Task.sol\":1009:1031  string public taskName */\n            tag_24:\n              0x02\n              dup1\n              sload\n              tag_86\n              swap1\n              tag_87\n              jump\t// in\n            tag_86:\n              dup1\n              0x1f\n              add\n              0x20\n              dup1\n              swap2\n              div\n              mul\n              0x20\n              add\n              mload(0x40)\n              swap1\n              dup2\n              add\n              0x40\n              mstore\n              dup1\n              swap3\n              swap2\n              swap1\n              dup2\n              dup2\n              mstore\n              0x20\n              add\n              dup3\n              dup1\n              sload\n              tag_88\n              swap1\n              tag_87\n              jump\t// in\n            tag_88:\n              dup1\n              iszero\n              tag_89\n              jumpi\n              dup1\n              0x1f\n              lt\n              tag_90\n              jumpi\n              0x0100\n              dup1\n              dup4\n              sload\n              div\n              mul\n              dup4\n              mstore\n              swap2\n              0x20\n              add\n              swap2\n              jump(tag_89)\n            tag_90:\n              dup3\n              add\n              swap2\n              swap1\n              0x00\n              mstore\n              keccak256(0x00, 0x20)\n              swap1\n            tag_91:\n              dup2\n              sload\n              dup2\n              mstore\n              swap1\n              0x01\n              add\n              swap1\n              0x20\n              add\n              dup1\n              dup4\n              gt\n              tag_91\n              jumpi\n              dup3\n              swap1\n              sub\n              0x1f\n              and\n              dup3\n              add\n              swap2\n            tag_89:\n              pop\n              pop\n              pop\n              pop\n              pop\n              dup2\n              jump\t// out\n                /* \"Task.sol\":2756:2892  function killTask() public restricted {... */\n            tag_28:\n                /* \"Task.sol\":2615:2622  manager */\n              0x00\n              dup1\n              sload\n              swap1\n              0x0100\n              exp\n              swap1\n              div\n              0xffffffffffffffffffffffffffffffffffffffff\n              and\n                /* \"Task.sol\":2601:2622  msg.sender == manager */\n              0xffffffffffffffffffffffffffffffffffffffff\n              and\n                /* \"Task.sol\":2601:2611  msg.sender */\n              caller\n                /* \"Task.sol\":2601:2622  msg.sender == manager */\n              0xffffffffffffffffffffffffffffffffffffffff\n              and\n              eq\n                /* \"Task.sol\":2593:2623  require(msg.sender == manager) */\n              tag_93\n              jumpi\n              0x00\n              dup1\n              revert\n            tag_93:\n                /* \"Task.sol\":2831:2832  0 */\n              0x00\n                /* \"Task.sol\":2813:2833  worker == address(0) */\n              0xffffffffffffffffffffffffffffffffffffffff\n              and\n                /* \"Task.sol\":2813:2819  worker */\n              0x06\n              0x00\n              swap1\n              sload\n              swap1\n              0x0100\n              exp\n              swap1\n              div\n              0xffffffffffffffffffffffffffffffffffffffff\n              and\n                /* \"Task.sol\":2813:2833  worker == address(0) */\n              0xffffffffffffffffffffffffffffffffffffffff\n              and\n              eq\n                /* \"Task.sol\":2805:2834  require(worker == address(0)) */\n              tag_95\n              jumpi\n              0x00\n              dup1\n              revert\n            tag_95:\n                /* \"Task.sol\":2845:2852  manager */\n              0x00\n              dup1\n              sload\n              swap1\n              0x0100\n              exp\n              swap1\n              div\n              0xffffffffffffffffffffffffffffffffffffffff\n              and\n                /* \"Task.sol\":2845:2861  manager.transfer */\n              0xffffffffffffffffffffffffffffffffffffffff\n              and\n                /* \"Task.sol\":2845:2884  manager.transfer(address(this).balance) */\n              0x08fc\n                /* \"Task.sol\":2862:2883  address(this).balance */\n              selfbalance\n                /* \"Task.sol\":2845:2884  manager.transfer(address(this).balance) */\n              swap1\n              dup2\n              iszero\n              mul\n              swap1\n              mload(0x40)\n              0x00\n              mload(0x40)\n              dup1\n              dup4\n              sub\n              dup2\n              dup6\n              dup9\n              dup9\n              call\n              swap4\n              pop\n              pop\n              pop\n              pop\n              iszero\n              dup1\n              iszero\n              tag_97\n              jumpi\n              returndatasize\n              0x00\n              dup1\n              returndatacopy\n              revert(0x00, returndatasize)\n            tag_97:\n              pop\n                /* \"Task.sol\":2756:2892  function killTask() public restricted {... */\n              jump\t// out\n                /* \"Task.sol\":2900:3095  function creaetRequest(string memory description) public {... */\n            tag_32:\n                /* \"Task.sol\":2991:3038  Request(description, payable(msg.sender), true) */\n              mload(0x40)\n              dup1\n              0x60\n              add\n              0x40\n              mstore\n              dup1\n                /* \"Task.sol\":2999:3010  description */\n              dup3\n                /* \"Task.sol\":2991:3038  Request(description, payable(msg.sender), true) */\n              dup2\n              mstore\n              0x20\n              add\n                /* \"Task.sol\":3020:3030  msg.sender */\n              caller\n                /* \"Task.sol\":2991:3038  Request(description, payable(msg.sender), true) */\n              0xffffffffffffffffffffffffffffffffffffffff\n              and\n              dup2\n              mstore\n              0x20\n              add\n                /* \"Task.sol\":3033:3037  true */\n              0x01\n                /* \"Task.sol\":2991:3038  Request(description, payable(msg.sender), true) */\n              iszero\n              iszero\n              dup2\n              mstore\n              pop\n                /* \"Task.sol\":2968:2976  requests */\n              0x07\n                /* \"Task.sol\":2968:2988  requests[msg.sender] */\n              0x00\n                /* \"Task.sol\":2977:2987  msg.sender */\n              caller\n                /* \"Task.sol\":2968:2988  requests[msg.sender] */\n              0xffffffffffffffffffffffffffffffffffffffff\n              and\n              0xffffffffffffffffffffffffffffffffffffffff\n              and\n              dup2\n              mstore\n              0x20\n              add\n              swap1\n              dup2\n              mstore\n              0x20\n              add\n              0x00\n              keccak256\n                /* \"Task.sol\":2968:3038  requests[msg.sender] = Request(description, payable(msg.sender), true) */\n              0x00\n              dup3\n              add\n              mload\n              dup2\n              0x00\n              add\n              swap1\n              dup2\n              tag_99\n              swap2\n              swap1\n              tag_100\n              jump\t// in\n            tag_99:\n              pop\n              0x20\n              dup3\n              add\n              mload\n              dup2\n              0x01\n              add\n              exp(0x0100, 0x00)\n              dup2\n              sload\n              dup2\n              0xffffffffffffffffffffffffffffffffffffffff\n              mul\n              not\n              and\n              swap1\n              dup4\n              0xffffffffffffffffffffffffffffffffffffffff\n              and\n              mul\n              or\n              swap1\n              sstore\n              pop\n              0x40\n              dup3\n              add\n              mload\n              dup2\n              0x01\n              add\n              exp(0x0100, 0x14)\n              dup2\n              sload\n              dup2\n              0xff\n              mul\n              not\n              and\n              swap1\n              dup4\n              iszero\n              iszero\n              mul\n              or\n              swap1\n              sstore\n              pop\n              swap1\n              pop\n              pop\n                /* \"Task.sol\":3049:3061  requestsKeys */\n              0x08\n                /* \"Task.sol\":3075:3085  msg.sender */\n              caller\n                /* \"Task.sol\":3049:3087  requestsKeys.push(payable(msg.sender)) */\n              swap1\n              dup1\n              0x01\n              dup2\n              sload\n              add\n              dup1\n              dup3\n              sstore\n              dup1\n              swap2\n              pop\n              pop\n              0x01\n              swap1\n              sub\n              swap1\n              0x00\n              mstore\n              keccak256(0x00, 0x20)\n              add\n              0x00\n              swap1\n              swap2\n              swap1\n              swap2\n              swap1\n              swap2\n              0x0100\n              exp\n              dup2\n              sload\n              dup2\n              0xffffffffffffffffffffffffffffffffffffffff\n              mul\n              not\n              and\n              swap1\n              dup4\n              0xffffffffffffffffffffffffffffffffffffffff\n              and\n              mul\n              or\n              swap1\n              sstore\n              pop\n                /* \"Task.sol\":2900:3095  function creaetRequest(string memory description) public {... */\n              pop\n              jump\t// out\n                /* \"Task.sol\":1255:1292  address payable[] public requestsKeys */\n            tag_36:\n              0x08\n              dup2\n              dup2\n              sload\n              dup2\n              lt\n              tag_102\n              jumpi\n              0x00\n              dup1\n              revert\n            tag_102:\n              swap1\n              0x00\n              mstore\n              keccak256(0x00, 0x20)\n              add\n              0x00\n              swap2\n              pop\n              sload\n              swap1\n              0x0100\n              exp\n              swap1\n              div\n              0xffffffffffffffffffffffffffffffffffffffff\n              and\n              dup2\n              jump\t// out\n                /* \"Task.sol\":941:971  address payable public manager */\n            tag_40:\n              0x00\n              dup1\n              sload\n              swap1\n              0x0100\n              exp\n              swap1\n              div\n              0xffffffffffffffffffffffffffffffffffffffff\n              and\n              dup2\n              jump\t// out\n                /* \"Task.sol\":1139:1168  address payable public worker */\n            tag_43:\n              0x06\n              0x00\n              swap1\n              sload\n              swap1\n              0x0100\n              exp\n              swap1\n              div\n              0xffffffffffffffffffffffffffffffffffffffff\n              and\n              dup2\n              jump\t// out\n                /* \"Task.sol\":1892:2552  function getInfo()... */\n            tag_46:\n                /* \"Task.sol\":1973:1988  address payable */\n              0x00\n                /* \"Task.sol\":2003:2016  string memory */\n              0x60\n                /* \"Task.sol\":2031:2046  string[] memory */\n              dup1\n                /* \"Task.sol\":2061:2074  string memory */\n              0x60\n                /* \"Task.sol\":2089:2102  string memory */\n              dup1\n                /* \"Task.sol\":2117:2132  address payable */\n              0x00\n                /* \"Task.sol\":2147:2151  bool */\n              dup1\n                /* \"Task.sol\":2166:2190  address payable[] memory */\n              0x60\n                /* \"Task.sol\":2205:2209  uint */\n              0x00\n                /* \"Task.sol\":2224:2239  string[] memory */\n              0x60\n                /* \"Task.sol\":2289:2296  manager */\n              0x00\n              dup1\n              sload\n              swap1\n              0x0100\n              exp\n              swap1\n              div\n              0xffffffffffffffffffffffffffffffffffffffff\n              and\n                /* \"Task.sol\":2311:2319  taskName */\n              0x02\n                /* \"Task.sol\":2334:2343  taskFiles */\n              0x03\n                /* \"Task.sol\":2358:2373  taskDescription */\n              0x04\n                /* \"Task.sol\":2388:2398  taskSphere */\n              0x01\n                /* \"Task.sol\":2413:2419  worker */\n              0x06\n              0x00\n              swap1\n              sload\n              swap1\n              0x0100\n              exp\n              swap1\n              div\n              0xffffffffffffffffffffffffffffffffffffffff\n              and\n                /* \"Task.sol\":2434:2445  isCompleted */\n              0x06\n              0x14\n              swap1\n              sload\n              swap1\n              0x0100\n              exp\n              swap1\n              div\n              0xff\n              and\n                /* \"Task.sol\":2460:2472  requestsKeys */\n              0x08\n                /* \"Task.sol\":2487:2508  address(this).balance */\n              selfbalance\n                /* \"Task.sol\":2523:2533  taskSkills */\n              0x05\n                /* \"Task.sol\":2267:2544  return (... */\n              dup9\n              dup1\n              sload\n              tag_105\n              swap1\n              tag_87\n              jump\t// in\n            tag_105:\n              dup1\n              0x1f\n              add\n              0x20\n              dup1\n              swap2\n              div\n              mul\n              0x20\n              add\n              mload(0x40)\n              swap1\n              dup2\n              add\n              0x40\n              mstore\n              dup1\n              swap3\n              swap2\n              swap1\n              dup2\n              dup2\n              mstore\n              0x20\n              add\n              dup3\n              dup1\n              sload\n              tag_106\n              swap1\n              tag_87\n              jump\t// in\n            tag_106:\n              dup1\n              iszero\n              tag_107\n              jumpi\n              dup1\n              0x1f\n              lt\n              tag_108\n              jumpi\n              0x0100\n              dup1\n              dup4\n              sload\n              div\n              mul\n              dup4\n              mstore\n              swap2\n              0x20\n              add\n              swap2\n              jump(tag_107)\n            tag_108:\n              dup3\n              add\n              swap2\n              swap1\n              0x00\n              mstore\n              keccak256(0x00, 0x20)\n              swap1\n            tag_109:\n              dup2\n              sload\n              dup2\n              mstore\n              swap1\n              0x01\n              add\n              swap1\n              0x20\n              add\n              dup1\n              dup4\n              gt\n              tag_109\n              jumpi\n              dup3\n              swap1\n              sub\n              0x1f\n              and\n              dup3\n              add\n              swap2\n            tag_107:\n              pop\n              pop\n              pop\n              pop\n              pop\n              swap9\n              pop\n              dup8\n              dup1\n              sload\n              dup1\n              0x20\n              mul\n              0x20\n              add\n              mload(0x40)\n              swap1\n              dup2\n              add\n              0x40\n              mstore\n              dup1\n              swap3\n              swap2\n              swap1\n              dup2\n              dup2\n              mstore\n              0x20\n              add\n              0x00\n              swap1\n            tag_110:\n              dup3\n              dup3\n              lt\n              iszero\n              tag_111\n              jumpi\n              dup4\n              dup3\n              swap1\n              0x00\n              mstore\n              keccak256(0x00, 0x20)\n              add\n              dup1\n              sload\n              tag_113\n              swap1\n              tag_87\n              jump\t// in\n            tag_113:\n              dup1\n              0x1f\n              add\n              0x20\n              dup1\n              swap2\n              div\n              mul\n              0x20\n              add\n              mload(0x40)\n              swap1\n              dup2\n              add\n              0x40\n              mstore\n              dup1\n              swap3\n              swap2\n              swap1\n              dup2\n              dup2\n              mstore\n              0x20\n              add\n              dup3\n              dup1\n              sload\n              tag_114\n              swap1\n              tag_87\n              jump\t// in\n            tag_114:\n              dup1\n              iszero\n              tag_115\n              jumpi\n              dup1\n              0x1f\n              lt\n              tag_116\n              jumpi\n              0x0100\n              dup1\n              dup4\n              sload\n              div\n              mul\n              dup4\n              mstore\n              swap2\n              0x20\n              add\n              swap2\n              jump(tag_115)\n            tag_116:\n              dup3\n              add\n              swap2\n              swap1\n              0x00\n              mstore\n              keccak256(0x00, 0x20)\n              swap1\n            tag_117:\n              dup2\n              sload\n              dup2\n              mstore\n              swap1\n              0x01\n              add\n              swap1\n              0x20\n              add\n              dup1\n              dup4\n              gt\n              tag_117\n              jumpi\n              dup3\n              swap1\n              sub\n              0x1f\n              and\n              dup3\n              add\n              swap2\n            tag_115:\n              pop\n              pop\n              pop\n              pop\n              pop\n              dup2\n              mstore\n              0x20\n              add\n              swap1\n              0x01\n              add\n              swap1\n              jump(tag_110)\n            tag_111:\n              pop\n              pop\n              pop\n              pop\n              swap8\n              pop\n              dup7\n              dup1\n              sload\n              tag_118\n              swap1\n              tag_87\n              jump\t// in\n            tag_118:\n              dup1\n              0x1f\n              add\n              0x20\n              dup1\n              swap2\n              div\n              mul\n              0x20\n              add\n              mload(0x40)\n              swap1\n              dup2\n              add\n              0x40\n              mstore\n              dup1\n              swap3\n              swap2\n              swap1\n              dup2\n              dup2\n              mstore\n              0x20\n              add\n              dup3\n              dup1\n              sload\n              tag_119\n              swap1\n              tag_87\n              jump\t// in\n            tag_119:\n              dup1\n              iszero\n              tag_120\n              jumpi\n              dup1\n              0x1f\n              lt\n              tag_121\n              jumpi\n              0x0100\n              dup1\n              dup4\n              sload\n              div\n              mul\n              dup4\n              mstore\n              swap2\n              0x20\n              add\n              swap2\n              jump(tag_120)\n            tag_121:\n              dup3\n              add\n              swap2\n              swap1\n              0x00\n              mstore\n              keccak256(0x00, 0x20)\n              swap1\n            tag_122:\n              dup2\n              sload\n              dup2\n              mstore\n              swap1\n              0x01\n              add\n              swap1\n              0x20\n              add\n              dup1\n              dup4\n              gt\n              tag_122\n              jumpi\n              dup3\n              swap1\n              sub\n              0x1f\n              and\n              dup3\n              add\n              swap2\n            tag_120:\n              pop\n              pop\n              pop\n              pop\n              pop\n              swap7\n              pop\n              dup6\n              dup1\n              sload\n              tag_123\n              swap1\n              tag_87\n              jump\t// in\n            tag_123:\n              dup1\n              0x1f\n              add\n              0x20\n              dup1\n              swap2\n              div\n              mul\n              0x20\n              add\n              mload(0x40)\n              swap1\n              dup2\n              add\n              0x40\n              mstore\n              dup1\n              swap3\n              swap2\n              swap1\n              dup2\n              dup2\n              mstore\n              0x20\n              add\n              dup3\n              dup1\n              sload\n              tag_124\n              swap1\n              tag_87\n              jump\t// in\n            tag_124:\n              dup1\n              iszero\n              tag_125\n              jumpi\n              dup1\n              0x1f\n              lt\n              tag_126\n              jumpi\n              0x0100\n              dup1\n              dup4\n              sload\n              div\n              mul\n              dup4\n              mstore\n              swap2\n              0x20\n              add\n              swap2\n              jump(tag_125)\n            tag_126:\n              dup3\n              add\n              swap2\n              swap1\n              0x00\n              mstore\n              keccak256(0x00, 0x20)\n              swap1\n            tag_127:\n              dup2\n              sload\n              dup2\n              mstore\n              swap1\n              0x01\n              add\n              swap1\n              0x20\n              add\n              dup1\n              dup4\n              gt\n              tag_127\n              jumpi\n              dup3\n              swap1\n              sub\n              0x1f\n              and\n              dup3\n              add\n              swap2\n            tag_125:\n              pop\n              pop\n              pop\n              pop\n              pop\n              swap6\n              pop\n              dup3\n              dup1\n              sload\n              dup1\n              0x20\n              mul\n              0x20\n              add\n              mload(0x40)\n              swap1\n              dup2\n              add\n              0x40\n              mstore\n              dup1\n              swap3\n              swap2\n              swap1\n              dup2\n              dup2\n              mstore\n              0x20\n              add\n              dup3\n              dup1\n              sload\n              dup1\n              iszero\n              tag_128\n              jumpi\n              0x20\n              mul\n              dup3\n              add\n              swap2\n              swap1\n              0x00\n              mstore\n              keccak256(0x00, 0x20)\n              swap1\n            tag_129:\n              dup2\n              0x00\n              swap1\n              sload\n              swap1\n              0x0100\n              exp\n              swap1\n              div\n              0xffffffffffffffffffffffffffffffffffffffff\n              and\n              0xffffffffffffffffffffffffffffffffffffffff\n              and\n              dup2\n              mstore\n              0x20\n              add\n              swap1\n              0x01\n              add\n              swap1\n              dup1\n              dup4\n              gt\n              tag_129\n              jumpi\n            tag_128:\n              pop\n              pop\n              pop\n              pop\n              pop\n              swap3\n              pop\n              dup1\n              dup1\n              sload\n              dup1\n              0x20\n              mul\n              0x20\n              add\n              mload(0x40)\n              swap1\n              dup2\n              add\n              0x40\n              mstore\n              dup1\n              swap3\n              swap2\n              swap1\n              dup2\n              dup2\n              mstore\n              0x20\n              add\n              0x00\n              swap1\n            tag_130:\n              dup3\n              dup3\n              lt\n              iszero\n              tag_131\n              jumpi\n              dup4\n              dup3\n              swap1\n              0x00\n              mstore\n              keccak256(0x00, 0x20)\n              add\n              dup1\n              sload\n              tag_133\n              swap1\n              tag_87\n              jump\t// in\n            tag_133:\n              dup1\n              0x1f\n              add\n              0x20\n              dup1\n              swap2\n              div\n              mul\n              0x20\n              add\n              mload(0x40)\n              swap1\n              dup2\n              add\n              0x40\n              mstore\n              dup1\n              swap3\n              swap2\n              swap1\n              dup2\n              dup2\n              mstore\n              0x20\n              add\n              dup3\n              dup1\n              sload\n              tag_134\n              swap1\n              tag_87\n              jump\t// in\n            tag_134:\n              dup1\n              iszero\n              tag_135\n              jumpi\n              dup1\n              0x1f\n              lt\n              tag_136\n              jumpi\n              0x0100\n              dup1\n              dup4\n              sload\n              div\n              mul\n              dup4\n              mstore\n              swap2\n              0x20\n              add\n              swap2\n              jump(tag_135)\n            tag_136:\n              dup3\n              add\n              swap2\n              swap1\n              0x00\n              mstore\n              keccak256(0x00, 0x20)\n              swap1\n            tag_137:\n              dup2\n              sload\n              dup2\n              mstore\n              swap1\n              0x01\n              add\n              swap1\n              0x20\n              add\n              dup1\n              dup4\n              gt\n              tag_137\n              jumpi\n              dup3\n              swap1\n              sub\n              0x1f\n              and\n              dup3\n              add\n              swap2\n            tag_135:\n              pop\n              pop\n              pop\n              pop\n              pop\n              dup2\n              mstore\n              0x20\n              add\n              swap1\n              0x01\n              add\n              swap1\n              jump(tag_130)\n            tag_131:\n              pop\n              pop\n              pop\n              pop\n              swap1\n              pop\n              swap10\n              pop\n              swap10\n              pop\n              swap10\n              pop\n              swap10\n              pop\n              swap10\n              pop\n              swap10\n              pop\n              swap10\n              pop\n              swap10\n              pop\n              swap10\n              pop\n              swap10\n              pop\n                /* \"Task.sol\":1892:2552  function getInfo()... */\n              swap1\n              swap2\n              swap3\n              swap4\n              swap5\n              swap6\n              swap7\n              swap8\n              swap9\n              swap10\n              jump\t// out\n                /* \"Task.sol\":2651:2748  function getHashtags() public view returns (string[] memory) {... */\n            tag_50:\n                /* \"Task.sol\":2695:2710  string[] memory */\n              0x60\n                /* \"Task.sol\":2730:2740  taskSkills */\n              0x05\n                /* \"Task.sol\":2723:2740  return taskSkills */\n              dup1\n              sload\n              dup1\n              0x20\n              mul\n              0x20\n              add\n              mload(0x40)\n              swap1\n              dup2\n              add\n              0x40\n              mstore\n              dup1\n              swap3\n              swap2\n              swap1\n              dup2\n              dup2\n              mstore\n              0x20\n              add\n              0x00\n              swap1\n            tag_139:\n              dup3\n              dup3\n              lt\n              iszero\n              tag_140\n              jumpi\n              dup4\n              dup3\n              swap1\n              0x00\n              mstore\n              keccak256(0x00, 0x20)\n              add\n              dup1\n              sload\n              tag_142\n              swap1\n              tag_87\n              jump\t// in\n            tag_142:\n              dup1\n              0x1f\n              add\n              0x20\n              dup1\n              swap2\n              div\n              mul\n              0x20\n              add\n              mload(0x40)\n              swap1\n              dup2\n              add\n              0x40\n              mstore\n              dup1\n              swap3\n              swap2\n              swap1\n              dup2\n              dup2\n              mstore\n              0x20\n              add\n              dup3\n              dup1\n              sload\n              tag_143\n              swap1\n              tag_87\n              jump\t// in\n            tag_143:\n              dup1\n              iszero\n              tag_144\n              jumpi\n              dup1\n              0x1f\n              lt\n              tag_145\n              jumpi\n              0x0100\n              dup1\n              dup4\n              sload\n              div\n              mul\n              dup4\n              mstore\n              swap2\n              0x20\n              add\n              swap2\n              jump(tag_144)\n            tag_145:\n              dup3\n              add\n              swap2\n              swap1\n              0x00\n              mstore\n              keccak256(0x00, 0x20)\n              swap1\n            tag_146:\n              dup2\n              sload\n              dup2\n              mstore\n              swap1\n              0x01\n              add\n              swap1\n              0x20\n              add\n              dup1\n              dup4\n              gt\n              tag_146\n              jumpi\n              dup3\n              swap1\n              sub\n              0x1f\n              and\n              dup3\n              add\n              swap2\n            tag_144:\n              pop\n              pop\n              pop\n              pop\n              pop\n              dup2\n              mstore\n              0x20\n              add\n              swap1\n              0x01\n              add\n              swap1\n              jump(tag_139)\n            tag_140:\n              pop\n              pop\n              pop\n              pop\n              swap1\n              pop\n                /* \"Task.sol\":2651:2748  function getHashtags() public view returns (string[] memory) {... */\n              swap1\n              jump\t// out\n                /* \"Task.sol\":3103:3250  function startTask(address newWorker) public restricted {... */\n            tag_56:\n                /* \"Task.sol\":2615:2622  manager */\n              0x00\n              dup1\n              sload\n              swap1\n              0x0100\n              exp\n              swap1\n              div\n              0xffffffffffffffffffffffffffffffffffffffff\n              and\n                /* \"Task.sol\":2601:2622  msg.sender == manager */\n              0xffffffffffffffffffffffffffffffffffffffff\n              and\n                /* \"Task.sol\":2601:2611  msg.sender */\n              caller\n                /* \"Task.sol\":2601:2622  msg.sender == manager */\n              0xffffffffffffffffffffffffffffffffffffffff\n              and\n              eq\n                /* \"Task.sol\":2593:2623  require(msg.sender == manager) */\n              tag_148\n              jumpi\n              0x00\n              dup1\n              revert\n            tag_148:\n                /* \"Task.sol\":3178:3186  requests */\n              0x07\n                /* \"Task.sol\":3178:3197  requests[newWorker] */\n              0x00\n                /* \"Task.sol\":3187:3196  newWorker */\n              dup3\n                /* \"Task.sol\":3178:3197  requests[newWorker] */\n              0xffffffffffffffffffffffffffffffffffffffff\n              and\n              0xffffffffffffffffffffffffffffffffffffffff\n              and\n              dup2\n              mstore\n              0x20\n              add\n              swap1\n              dup2\n              mstore\n              0x20\n              add\n              0x00\n              keccak256\n                /* \"Task.sol\":3178:3203  requests[newWorker].exist */\n              0x01\n              add\n              0x14\n              swap1\n              sload\n              swap1\n              0x0100\n              exp\n              swap1\n              div\n              0xff\n              and\n                /* \"Task.sol\":3170:3204  require(requests[newWorker].exist) */\n              tag_150\n              jumpi\n              0x00\n              dup1\n              revert\n            tag_150:\n                /* \"Task.sol\":3232:3241  newWorker */\n              dup1\n                /* \"Task.sol\":3215:3221  worker */\n              0x06\n              0x00\n                /* \"Task.sol\":3215:3242  worker = payable(newWorker) */\n              0x0100\n              exp\n              dup2\n              sload\n              dup2\n              0xffffffffffffffffffffffffffffffffffffffff\n              mul\n              not\n              and\n              swap1\n              dup4\n              0xffffffffffffffffffffffffffffffffffffffff\n              and\n              mul\n              or\n              swap1\n              sstore\n              pop\n                /* \"Task.sol\":3103:3250  function startTask(address newWorker) public restricted {... */\n              pop\n              jump\t// out\n                /* \"Task.sol\":1038:1063  string[] public taskFiles */\n            tag_59:\n              0x03\n              dup2\n              dup2\n              sload\n              dup2\n              lt\n              tag_151\n              jumpi\n              0x00\n              dup1\n              revert\n            tag_151:\n              swap1\n              0x00\n              mstore\n              keccak256(0x00, 0x20)\n              add\n              0x00\n              swap2\n              pop\n              swap1\n              pop\n              dup1\n              sload\n              tag_153\n              swap1\n              tag_87\n              jump\t// in\n            tag_153:\n              dup1\n              0x1f\n              add\n              0x20\n              dup1\n              swap2\n              div\n              mul\n              0x20\n              add\n              mload(0x40)\n              swap1\n              dup2\n              add\n              0x40\n              mstore\n              dup1\n              swap3\n              swap2\n              swap1\n              dup2\n              dup2\n              mstore\n              0x20\n              add\n              dup3\n              dup1\n              sload\n              tag_154\n              swap1\n              tag_87\n              jump\t// in\n            tag_154:\n              dup1\n              iszero\n              tag_155\n              jumpi\n              dup1\n              0x1f\n              lt\n              tag_156\n              jumpi\n              0x0100\n              dup1\n              dup4\n              sload\n              div\n              mul\n              dup4\n              mstore\n              swap2\n              0x20\n              add\n              swap2\n              jump(tag_155)\n            tag_156:\n              dup3\n              add\n              swap2\n              swap1\n              0x00\n              mstore\n              keccak256(0x00, 0x20)\n              swap1\n            tag_157:\n              dup2\n              sload\n              dup2\n              mstore\n              swap1\n              0x01\n              add\n              swap1\n              0x20\n              add\n              dup1\n              dup4\n              gt\n              tag_157\n              jumpi\n              dup3\n              swap1\n              sub\n              0x1f\n              and\n              dup3\n              add\n              swap2\n            tag_155:\n              pop\n              pop\n              pop\n              pop\n              pop\n              dup2\n              jump\t// out\n                /* \"Task.sol\":1205:1248  mapping(address => Request) public requests */\n            tag_63:\n              mstore(0x20, 0x07)\n              dup1\n              0x00\n              mstore\n              keccak256(0x00, 0x40)\n              0x00\n              swap2\n              pop\n              swap1\n              pop\n              dup1\n              0x00\n              add\n              dup1\n              sload\n              tag_158\n              swap1\n              tag_87\n              jump\t// in\n            tag_158:\n              dup1\n              0x1f\n              add\n              0x20\n              dup1\n              swap2\n              div\n              mul\n              0x20\n              add\n              mload(0x40)\n              swap1\n              dup2\n              add\n              0x40\n              mstore\n              dup1\n              swap3\n              swap2\n              swap1\n              dup2\n              dup2\n              mstore\n              0x20\n              add\n              dup3\n              dup1\n              sload\n              tag_159\n              swap1\n              tag_87\n              jump\t// in\n            tag_159:\n              dup1\n              iszero\n              tag_160\n              jumpi\n              dup1\n              0x1f\n              lt\n              tag_161\n              jumpi\n              0x0100\n              dup1\n              dup4\n              sload\n              div\n              mul\n              dup4\n              mstore\n              swap2\n              0x20\n              add\n              swap2\n              jump(tag_160)\n            tag_161:\n              dup3\n              add\n              swap2\n              swap1\n              0x00\n              mstore\n              keccak256(0x00, 0x20)\n              swap1\n            tag_162:\n              dup2\n              sload\n              dup2\n              mstore\n              swap1\n              0x01\n              add\n              swap1\n              0x20\n              add\n              dup1\n              dup4\n              gt\n              tag_162\n              jumpi\n              dup3\n              swap1\n              sub\n              0x1f\n              and\n              dup3\n              add\n              swap2\n            tag_160:\n              pop\n              pop\n              pop\n              pop\n              pop\n              swap1\n              dup1\n              0x01\n              add\n              0x00\n              swap1\n              sload\n              swap1\n              0x0100\n              exp\n              swap1\n              div\n              0xffffffffffffffffffffffffffffffffffffffff\n              and\n              swap1\n              dup1\n              0x01\n              add\n              0x14\n              swap1\n              sload\n              swap1\n              0x0100\n              exp\n              swap1\n              div\n              0xff\n              and\n              swap1\n              pop\n              dup4\n              jump\t// out\n                /* \"Task.sol\":1106:1132  string[] public taskSkills */\n            tag_68:\n              0x05\n              dup2\n              dup2\n              sload\n              dup2\n              lt\n              tag_163\n              jumpi\n              0x00\n              dup1\n              revert\n            tag_163:\n              swap1\n              0x00\n              mstore\n              keccak256(0x00, 0x20)\n              add\n              0x00\n              swap2\n              pop\n              swap1\n              pop\n              dup1\n              sload\n              tag_165\n              swap1\n              tag_87\n              jump\t// in\n            tag_165:\n              dup1\n              0x1f\n              add\n              0x20\n              dup1\n              swap2\n              div\n              mul\n              0x20\n              add\n              mload(0x40)\n              swap1\n              dup2\n              add\n              0x40\n              mstore\n              dup1\n              swap3\n              swap2\n              swap1\n              dup2\n              dup2\n              mstore\n              0x20\n              add\n              dup3\n              dup1\n              sload\n              tag_166\n              swap1\n              tag_87\n              jump\t// in\n            tag_166:\n              dup1\n              iszero\n              tag_167\n              jumpi\n              dup1\n              0x1f\n              lt\n              tag_168\n              jumpi\n              0x0100\n              dup1\n              dup4\n              sload\n              div\n              mul\n              dup4\n              mstore\n              swap2\n              0x20\n              add\n              swap2\n              jump(tag_167)\n            tag_168:\n              dup3\n              add\n              swap2\n              swap1\n              0x00\n              mstore\n              keccak256(0x00, 0x20)\n              swap1\n            tag_169:\n              dup2\n              sload\n              dup2\n              mstore\n              swap1\n              0x01\n              add\n              swap1\n              0x20\n              add\n              dup1\n              dup4\n              gt\n              tag_169\n              jumpi\n              dup3\n              swap1\n              sub\n              0x1f\n              and\n              dup3\n              add\n              swap2\n            tag_167:\n              pop\n              pop\n              pop\n              pop\n              pop\n              dup2\n              jump\t// out\n                /* \"Task.sol\":1299:1324  uint public taskTimestamp */\n            tag_71:\n              sload(0x09)\n              dup2\n              jump\t// out\n                /* \"Task.sol\":3258:3386  function finalizeTask() public restricted {... */\n            tag_75:\n                /* \"Task.sol\":2615:2622  manager */\n              0x00\n              dup1\n              sload\n              swap1\n              0x0100\n              exp\n              swap1\n              div\n              0xffffffffffffffffffffffffffffffffffffffff\n              and\n                /* \"Task.sol\":2601:2622  msg.sender == manager */\n              0xffffffffffffffffffffffffffffffffffffffff\n              and\n                /* \"Task.sol\":2601:2611  msg.sender */\n              caller\n                /* \"Task.sol\":2601:2622  msg.sender == manager */\n              0xffffffffffffffffffffffffffffffffffffffff\n              and\n              eq\n                /* \"Task.sol\":2593:2623  require(msg.sender == manager) */\n              tag_171\n              jumpi\n              0x00\n              dup1\n              revert\n            tag_171:\n                /* \"Task.sol\":3311:3317  worker */\n              0x06\n              0x00\n              swap1\n              sload\n              swap1\n              0x0100\n              exp\n              swap1\n              div\n              0xffffffffffffffffffffffffffffffffffffffff\n              and\n                /* \"Task.sol\":3311:3326  worker.transfer */\n              0xffffffffffffffffffffffffffffffffffffffff\n              and\n                /* \"Task.sol\":3311:3349  worker.transfer(address(this).balance) */\n              0x08fc\n                /* \"Task.sol\":3327:3348  address(this).balance */\n              selfbalance\n                /* \"Task.sol\":3311:3349  worker.transfer(address(this).balance) */\n              swap1\n              dup2\n              iszero\n              mul\n              swap1\n              mload(0x40)\n              0x00\n              mload(0x40)\n              dup1\n              dup4\n              sub\n              dup2\n              dup6\n              dup9\n              dup9\n              call\n              swap4\n              pop\n              pop\n              pop\n              pop\n              iszero\n              dup1\n              iszero\n              tag_174\n              jumpi\n              returndatasize\n              0x00\n              dup1\n              returndatacopy\n              revert(0x00, returndatasize)\n            tag_174:\n              pop\n                /* \"Task.sol\":3374:3378  true */\n              0x01\n                /* \"Task.sol\":3360:3371  isCompleted */\n              0x06\n              0x14\n                /* \"Task.sol\":3360:3378  isCompleted = true */\n              0x0100\n              exp\n              dup2\n              sload\n              dup2\n              0xff\n              mul\n              not\n              and\n              swap1\n              dup4\n              iszero\n              iszero\n              mul\n              or\n              swap1\n              sstore\n              pop\n                /* \"Task.sol\":3258:3386  function finalizeTask() public restricted {... */\n              jump\t// out\n                /* \"Task.sol\":978:1002  string public taskSphere */\n            tag_77:\n              0x01\n              dup1\n              sload\n              tag_175\n              swap1\n              tag_87\n              jump\t// in\n            tag_175:\n              dup1\n              0x1f\n              add\n              0x20\n              dup1\n              swap2\n              div\n              mul\n              0x20\n              add\n              mload(0x40)\n              swap1\n              dup2\n              add\n              0x40\n              mstore\n              dup1\n              swap3\n              swap2\n              swap1\n              dup2\n              dup2\n              mstore\n              0x20\n              add\n              dup3\n              dup1\n              sload\n              tag_176\n              swap1\n              tag_87\n              jump\t// in\n            tag_176:\n              dup1\n              iszero\n              tag_177\n              jumpi\n              dup1\n              0x1f\n              lt\n              tag_178\n              jumpi\n              0x0100\n              dup1\n              dup4\n              sload\n              div\n              mul\n              dup4\n              mstore\n              swap2\n              0x20\n              add\n              swap2\n              jump(tag_177)\n            tag_178:\n              dup3\n              add\n              swap2\n              swap1\n              0x00\n              mstore\n              keccak256(0x00, 0x20)\n              swap1\n            tag_179:\n              dup2\n              sload\n              dup2\n              mstore\n              swap1\n              0x01\n              add\n              swap1\n              0x20\n              add\n              dup1\n              dup4\n              gt\n              tag_179\n              jumpi\n              dup3\n              swap1\n              sub\n              0x1f\n              and\n              dup3\n              add\n              swap2\n            tag_177:\n              pop\n              pop\n              pop\n              pop\n              pop\n              dup2\n              jump\t// out\n                /* \"Task.sol\":1175:1198  bool public isCompleted */\n            tag_80:\n              0x06\n              0x14\n              swap1\n              sload\n              swap1\n              0x0100\n              exp\n              swap1\n              div\n              0xff\n              and\n              dup2\n              jump\t// out\n                /* \"Task.sol\":1070:1099  string public taskDescription */\n            tag_84:\n              0x04\n              dup1\n              sload\n              tag_180\n              swap1\n              tag_87\n              jump\t// in\n            tag_180:\n              dup1\n              0x1f\n              add\n              0x20\n              dup1\n              swap2\n              div\n              mul\n              0x20\n              add\n              mload(0x40)\n              swap1\n              dup2\n              add\n              0x40\n              mstore\n              dup1\n              swap3\n              swap2\n              swap1\n              dup2\n              dup2\n              mstore\n              0x20\n              add\n              dup3\n              dup1\n              sload\n              tag_181\n              swap1\n              tag_87\n              jump\t// in\n            tag_181:\n              dup1\n              iszero\n              tag_182\n              jumpi\n              dup1\n              0x1f\n              lt\n              tag_183\n              jumpi\n              0x0100\n              dup1\n              dup4\n              sload\n              div\n              mul\n              dup4\n              mstore\n              swap2\n              0x20\n              add\n              swap2\n              jump(tag_182)\n            tag_183:\n              dup3\n              add\n              swap2\n              swap1\n              0x00\n              mstore\n              keccak256(0x00, 0x20)\n              swap1\n            tag_184:\n              dup2\n              sload\n              dup2\n              mstore\n              swap1\n              0x01\n              add\n              swap1\n              0x20\n              add\n              dup1\n              dup4\n              gt\n              tag_184\n              jumpi\n              dup3\n              swap1\n              sub\n              0x1f\n              and\n              dup3\n              add\n              swap2\n            tag_182:\n              pop\n              pop\n              pop\n              pop\n              pop\n              dup2\n              jump\t// out\n                /* \"#utility.yul\":7:106   */\n            tag_185:\n                /* \"#utility.yul\":59:65   */\n              0x00\n                /* \"#utility.yul\":93:98   */\n              dup2\n                /* \"#utility.yul\":87:99   */\n              mload\n                /* \"#utility.yul\":77:99   */\n              swap1\n              pop\n                /* \"#utility.yul\":7:106   */\n              swap2\n              swap1\n              pop\n              jump\t// out\n                /* \"#utility.yul\":112:281   */\n            tag_186:\n                /* \"#utility.yul\":196:207   */\n              0x00\n                /* \"#utility.yul\":230:236   */\n              dup3\n                /* \"#utility.yul\":225:228   */\n              dup3\n                /* \"#utility.yul\":218:237   */\n              mstore\n                /* \"#utility.yul\":270:274   */\n              0x20\n                /* \"#utility.yul\":265:268   */\n              dup3\n                /* \"#utility.yul\":261:275   */\n              add\n                /* \"#utility.yul\":246:275   */\n              swap1\n              pop\n                /* \"#utility.yul\":112:281   */\n              swap3\n              swap2\n              pop\n              pop\n              jump\t// out\n                /* \"#utility.yul\":287:594   */\n            tag_187:\n                /* \"#utility.yul\":355:356   */\n              0x00\n                /* \"#utility.yul\":365:478   */\n            tag_249:\n                /* \"#utility.yul\":379:385   */\n              dup4\n                /* \"#utility.yul\":376:377   */\n              dup2\n                /* \"#utility.yul\":373:386   */\n              lt\n                /* \"#utility.yul\":365:478   */\n              iszero\n              tag_251\n              jumpi\n                /* \"#utility.yul\":464:465   */\n              dup1\n                /* \"#utility.yul\":459:462   */\n              dup3\n                /* \"#utility.yul\":455:466   */\n              add\n                /* \"#utility.yul\":449:467   */\n              mload\n                /* \"#utility.yul\":445:446   */\n              dup2\n                /* \"#utility.yul\":440:443   */\n              dup5\n                /* \"#utility.yul\":436:447   */\n              add\n                /* \"#utility.yul\":429:468   */\n              mstore\n                /* \"#utility.yul\":401:403   */\n              0x20\n                /* \"#utility.yul\":398:399   */\n              dup2\n                /* \"#utility.yul\":394:404   */\n              add\n                /* \"#utility.yul\":389:404   */\n              swap1\n              pop\n                /* \"#utility.yul\":365:478   */\n              jump(tag_249)\n            tag_251:\n                /* \"#utility.yul\":496:502   */\n              dup4\n                /* \"#utility.yul\":493:494   */\n              dup2\n                /* \"#utility.yul\":490:503   */\n              gt\n                /* \"#utility.yul\":487:588   */\n              iszero\n              tag_252\n              jumpi\n                /* \"#utility.yul\":576:577   */\n              0x00\n                /* \"#utility.yul\":567:573   */\n              dup5\n                /* \"#utility.yul\":562:565   */\n              dup5\n                /* \"#utility.yul\":558:574   */\n              add\n                /* \"#utility.yul\":551:578   */\n              mstore\n                /* \"#utility.yul\":487:588   */\n            tag_252:\n                /* \"#utility.yul\":336:594   */\n              pop\n                /* \"#utility.yul\":287:594   */\n              pop\n              pop\n              pop\n              jump\t// out\n                /* \"#utility.yul\":600:702   */\n            tag_188:\n                /* \"#utility.yul\":641:647   */\n              0x00\n                /* \"#utility.yul\":692:694   */\n              0x1f\n                /* \"#utility.yul\":688:695   */\n              not\n                /* \"#utility.yul\":683:685   */\n              0x1f\n                /* \"#utility.yul\":676:681   */\n              dup4\n                /* \"#utility.yul\":672:686   */\n              add\n                /* \"#utility.yul\":668:696   */\n              and\n                /* \"#utility.yul\":658:696   */\n              swap1\n              pop\n                /* \"#utility.yul\":600:702   */\n              swap2\n              swap1\n              pop\n              jump\t// out\n                /* \"#utility.yul\":708:1072   */\n            tag_189:\n                /* \"#utility.yul\":796:799   */\n              0x00\n                /* \"#utility.yul\":824:863   */\n              tag_255\n                /* \"#utility.yul\":857:862   */\n              dup3\n                /* \"#utility.yul\":824:863   */\n              tag_185\n              jump\t// in\n            tag_255:\n                /* \"#utility.yul\":879:950   */\n              tag_256\n                /* \"#utility.yul\":943:949   */\n              dup2\n                /* \"#utility.yul\":938:941   */\n              dup6\n                /* \"#utility.yul\":879:950   */\n              tag_186\n              jump\t// in\n            tag_256:\n                /* \"#utility.yul\":872:950   */\n              swap4\n              pop\n                /* \"#utility.yul\":959:1011   */\n              tag_257\n                /* \"#utility.yul\":1004:1010   */\n              dup2\n                /* \"#utility.yul\":999:1002   */\n              dup6\n                /* \"#utility.yul\":992:996   */\n              0x20\n                /* \"#utility.yul\":985:990   */\n              dup7\n                /* \"#utility.yul\":981:997   */\n              add\n                /* \"#utility.yul\":959:1011   */\n              tag_187\n              jump\t// in\n            tag_257:\n                /* \"#utility.yul\":1036:1065   */\n              tag_258\n                /* \"#utility.yul\":1058:1064   */\n              dup2\n                /* \"#utility.yul\":1036:1065   */\n              tag_188\n              jump\t// in\n            tag_258:\n                /* \"#utility.yul\":1031:1034   */\n              dup5\n                /* \"#utility.yul\":1027:1066   */\n              add\n                /* \"#utility.yul\":1020:1066   */\n              swap2\n              pop\n                /* \"#utility.yul\":800:1072   */\n              pop\n                /* \"#utility.yul\":708:1072   */\n              swap3\n              swap2\n              pop\n              pop\n              jump\t// out\n                /* \"#utility.yul\":1078:1391   */\n            tag_26:\n                /* \"#utility.yul\":1191:1195   */\n              0x00\n                /* \"#utility.yul\":1229:1231   */\n              0x20\n                /* \"#utility.yul\":1218:1227   */\n              dup3\n                /* \"#utility.yul\":1214:1232   */\n              add\n                /* \"#utility.yul\":1206:1232   */\n              swap1\n              pop\n                /* \"#utility.yul\":1278:1287   */\n              dup2\n                /* \"#utility.yul\":1272:1276   */\n              dup2\n                /* \"#utility.yul\":1268:1288   */\n              sub\n                /* \"#utility.yul\":1264:1265   */\n              0x00\n                /* \"#utility.yul\":1253:1262   */\n              dup4\n                /* \"#utility.yul\":1249:1266   */\n              add\n                /* \"#utility.yul\":1242:1289   */\n              mstore\n                /* \"#utility.yul\":1306:1384   */\n              tag_260\n                /* \"#utility.yul\":1379:1383   */\n              dup2\n                /* \"#utility.yul\":1370:1376   */\n              dup5\n                /* \"#utility.yul\":1306:1384   */\n              tag_189\n              jump\t// in\n            tag_260:\n                /* \"#utility.yul\":1298:1384   */\n              swap1\n              pop\n                /* \"#utility.yul\":1078:1391   */\n              swap3\n              swap2\n              pop\n              pop\n              jump\t// out\n                /* \"#utility.yul\":1397:1472   */\n            tag_190:\n                /* \"#utility.yul\":1430:1436   */\n              0x00\n                /* \"#utility.yul\":1463:1465   */\n              0x40\n                /* \"#utility.yul\":1457:1466   */\n              mload\n                /* \"#utility.yul\":1447:1466   */\n              swap1\n              pop\n                /* \"#utility.yul\":1397:1472   */\n              swap1\n              jump\t// out\n                /* \"#utility.yul\":1478:1595   */\n            tag_191:\n                /* \"#utility.yul\":1587:1588   */\n              0x00\n                /* \"#utility.yul\":1584:1585   */\n              dup1\n                /* \"#utility.yul\":1577:1589   */\n              revert\n                /* \"#utility.yul\":1601:1718   */\n            tag_192:\n                /* \"#utility.yul\":1710:1711   */\n              0x00\n                /* \"#utility.yul\":1707:1708   */\n              dup1\n                /* \"#utility.yul\":1700:1712   */\n              revert\n                /* \"#utility.yul\":1724:1841   */\n            tag_193:\n                /* \"#utility.yul\":1833:1834   */\n              0x00\n                /* \"#utility.yul\":1830:1831   */\n              dup1\n                /* \"#utility.yul\":1823:1835   */\n              revert\n                /* \"#utility.yul\":1847:1964   */\n            tag_194:\n                /* \"#utility.yul\":1956:1957   */\n              0x00\n                /* \"#utility.yul\":1953:1954   */\n              dup1\n                /* \"#utility.yul\":1946:1958   */\n              revert\n                /* \"#utility.yul\":1970:2150   */\n            tag_195:\n                /* \"#utility.yul\":2018:2095   */\n              0x4e487b7100000000000000000000000000000000000000000000000000000000\n                /* \"#utility.yul\":2015:2016   */\n              0x00\n                /* \"#utility.yul\":2008:2096   */\n              mstore\n                /* \"#utility.yul\":2115:2119   */\n              0x41\n                /* \"#utility.yul\":2112:2113   */\n              0x04\n                /* \"#utility.yul\":2105:2120   */\n              mstore\n                /* \"#utility.yul\":2139:2143   */\n              0x24\n                /* \"#utility.yul\":2136:2137   */\n              0x00\n                /* \"#utility.yul\":2129:2144   */\n              revert\n                /* \"#utility.yul\":2156:2437   */\n            tag_196:\n                /* \"#utility.yul\":2239:2266   */\n              tag_268\n                /* \"#utility.yul\":2261:2265   */\n              dup3\n                /* \"#utility.yul\":2239:2266   */\n              tag_188\n              jump\t// in\n            tag_268:\n                /* \"#utility.yul\":2231:2237   */\n              dup2\n                /* \"#utility.yul\":2227:2267   */\n              add\n                /* \"#utility.yul\":2369:2375   */\n              dup2\n                /* \"#utility.yul\":2357:2367   */\n              dup2\n                /* \"#utility.yul\":2354:2376   */\n              lt\n                /* \"#utility.yul\":2333:2351   */\n              0xffffffffffffffff\n                /* \"#utility.yul\":2321:2331   */\n              dup3\n                /* \"#utility.yul\":2318:2352   */\n              gt\n                /* \"#utility.yul\":2315:2377   */\n              or\n                /* \"#utility.yul\":2312:2400   */\n              iszero\n              tag_269\n              jumpi\n                /* \"#utility.yul\":2380:2398   */\n              tag_270\n              tag_195\n              jump\t// in\n            tag_270:\n                /* \"#utility.yul\":2312:2400   */\n            tag_269:\n                /* \"#utility.yul\":2420:2430   */\n              dup1\n                /* \"#utility.yul\":2416:2418   */\n              0x40\n                /* \"#utility.yul\":2409:2431   */\n              mstore\n                /* \"#utility.yul\":2199:2437   */\n              pop\n                /* \"#utility.yul\":2156:2437   */\n              pop\n              pop\n              jump\t// out\n                /* \"#utility.yul\":2443:2572   */\n            tag_197:\n                /* \"#utility.yul\":2477:2483   */\n              0x00\n                /* \"#utility.yul\":2504:2524   */\n              tag_272\n              tag_190\n              jump\t// in\n            tag_272:\n                /* \"#utility.yul\":2494:2524   */\n              swap1\n              pop\n                /* \"#utility.yul\":2533:2566   */\n              tag_273\n                /* \"#utility.yul\":2561:2565   */\n              dup3\n                /* \"#utility.yul\":2553:2559   */\n              dup3\n                /* \"#utility.yul\":2533:2566   */\n              tag_196\n              jump\t// in\n            tag_273:\n                /* \"#utility.yul\":2443:2572   */\n              swap2\n              swap1\n              pop\n              jump\t// out\n                /* \"#utility.yul\":2578:2886   */\n            tag_198:\n                /* \"#utility.yul\":2640:2644   */\n              0x00\n                /* \"#utility.yul\":2730:2748   */\n              0xffffffffffffffff\n                /* \"#utility.yul\":2722:2728   */\n              dup3\n                /* \"#utility.yul\":2719:2749   */\n              gt\n                /* \"#utility.yul\":2716:2772   */\n              iszero\n              tag_275\n              jumpi\n                /* \"#utility.yul\":2752:2770   */\n              tag_276\n              tag_195\n              jump\t// in\n            tag_276:\n                /* \"#utility.yul\":2716:2772   */\n            tag_275:\n                /* \"#utility.yul\":2790:2819   */\n              tag_277\n                /* \"#utility.yul\":2812:2818   */\n              dup3\n                /* \"#utility.yul\":2790:2819   */\n              tag_188\n              jump\t// in\n            tag_277:\n                /* \"#utility.yul\":2782:2819   */\n              swap1\n              pop\n                /* \"#utility.yul\":2874:2878   */\n              0x20\n                /* \"#utility.yul\":2868:2872   */\n              dup2\n                /* \"#utility.yul\":2864:2879   */\n              add\n                /* \"#utility.yul\":2856:2879   */\n              swap1\n              pop\n                /* \"#utility.yul\":2578:2886   */\n              swap2\n              swap1\n              pop\n              jump\t// out\n                /* \"#utility.yul\":2892:3046   */\n            tag_199:\n                /* \"#utility.yul\":2976:2982   */\n              dup3\n                /* \"#utility.yul\":2971:2974   */\n              dup2\n                /* \"#utility.yul\":2966:2969   */\n              dup4\n                /* \"#utility.yul\":2953:2983   */\n              calldatacopy\n                /* \"#utility.yul\":3038:3039   */\n              0x00\n                /* \"#utility.yul\":3029:3035   */\n              dup4\n                /* \"#utility.yul\":3024:3027   */\n              dup4\n                /* \"#utility.yul\":3020:3036   */\n              add\n                /* \"#utility.yul\":3013:3040   */\n              mstore\n                /* \"#utility.yul\":2892:3046   */\n              pop\n              pop\n              pop\n              jump\t// out\n                /* \"#utility.yul\":3052:3464   */\n            tag_200:\n                /* \"#utility.yul\":3130:3135   */\n              0x00\n                /* \"#utility.yul\":3155:3221   */\n              tag_280\n                /* \"#utility.yul\":3171:3220   */\n              tag_281\n                /* \"#utility.yul\":3213:3219   */\n              dup5\n                /* \"#utility.yul\":3171:3220   */\n              tag_198\n              jump\t// in\n            tag_281:\n                /* \"#utility.yul\":3155:3221   */\n              tag_197\n              jump\t// in\n            tag_280:\n                /* \"#utility.yul\":3146:3221   */\n              swap1\n              pop\n                /* \"#utility.yul\":3244:3250   */\n              dup3\n                /* \"#utility.yul\":3237:3242   */\n              dup2\n                /* \"#utility.yul\":3230:3251   */\n              mstore\n                /* \"#utility.yul\":3282:3286   */\n              0x20\n                /* \"#utility.yul\":3275:3280   */\n              dup2\n                /* \"#utility.yul\":3271:3287   */\n              add\n                /* \"#utility.yul\":3320:3323   */\n              dup5\n                /* \"#utility.yul\":3311:3317   */\n              dup5\n                /* \"#utility.yul\":3306:3309   */\n              dup5\n                /* \"#utility.yul\":3302:3318   */\n              add\n                /* \"#utility.yul\":3299:3324   */\n              gt\n                /* \"#utility.yul\":3296:3408   */\n              iszero\n              tag_282\n              jumpi\n                /* \"#utility.yul\":3327:3406   */\n              tag_283\n              tag_194\n              jump\t// in\n            tag_283:\n                /* \"#utility.yul\":3296:3408   */\n            tag_282:\n                /* \"#utility.yul\":3417:3458   */\n              tag_284\n                /* \"#utility.yul\":3451:3457   */\n              dup5\n                /* \"#utility.yul\":3446:3449   */\n              dup3\n                /* \"#utility.yul\":3441:3444   */\n              dup6\n                /* \"#utility.yul\":3417:3458   */\n              tag_199\n              jump\t// in\n            tag_284:\n                /* \"#utility.yul\":3136:3464   */\n              pop\n                /* \"#utility.yul\":3052:3464   */\n              swap4\n              swap3\n              pop\n              pop\n              pop\n              jump\t// out\n                /* \"#utility.yul\":3484:3824   */\n            tag_201:\n                /* \"#utility.yul\":3540:3545   */\n              0x00\n                /* \"#utility.yul\":3589:3592   */\n              dup3\n                /* \"#utility.yul\":3582:3586   */\n              0x1f\n                /* \"#utility.yul\":3574:3580   */\n              dup4\n                /* \"#utility.yul\":3570:3587   */\n              add\n                /* \"#utility.yul\":3566:3593   */\n              slt\n                /* \"#utility.yul\":3556:3678   */\n              tag_286\n              jumpi\n                /* \"#utility.yul\":3597:3676   */\n              tag_287\n              tag_193\n              jump\t// in\n            tag_287:\n                /* \"#utility.yul\":3556:3678   */\n            tag_286:\n                /* \"#utility.yul\":3714:3720   */\n              dup2\n                /* \"#utility.yul\":3701:3721   */\n              calldataload\n                /* \"#utility.yul\":3739:3818   */\n              tag_288\n                /* \"#utility.yul\":3814:3817   */\n              dup5\n                /* \"#utility.yul\":3806:3812   */\n              dup3\n                /* \"#utility.yul\":3799:3803   */\n              0x20\n                /* \"#utility.yul\":3791:3797   */\n              dup7\n                /* \"#utility.yul\":3787:3804   */\n              add\n                /* \"#utility.yul\":3739:3818   */\n              tag_200\n              jump\t// in\n            tag_288:\n                /* \"#utility.yul\":3730:3818   */\n              swap2\n              pop\n                /* \"#utility.yul\":3546:3824   */\n              pop\n                /* \"#utility.yul\":3484:3824   */\n              swap3\n              swap2\n              pop\n              pop\n              jump\t// out\n                /* \"#utility.yul\":3830:4339   */\n            tag_31:\n                /* \"#utility.yul\":3899:3905   */\n              0x00\n                /* \"#utility.yul\":3948:3950   */\n              0x20\n                /* \"#utility.yul\":3936:3945   */\n              dup3\n                /* \"#utility.yul\":3927:3934   */\n              dup5\n                /* \"#utility.yul\":3923:3946   */\n              sub\n                /* \"#utility.yul\":3919:3951   */\n              slt\n                /* \"#utility.yul\":3916:4035   */\n              iszero\n              tag_290\n              jumpi\n                /* \"#utility.yul\":3954:4033   */\n              tag_291\n              tag_191\n              jump\t// in\n            tag_291:\n                /* \"#utility.yul\":3916:4035   */\n            tag_290:\n                /* \"#utility.yul\":4102:4103   */\n              0x00\n                /* \"#utility.yul\":4091:4100   */\n              dup3\n                /* \"#utility.yul\":4087:4104   */\n              add\n                /* \"#utility.yul\":4074:4105   */\n              calldataload\n                /* \"#utility.yul\":4132:4150   */\n              0xffffffffffffffff\n                /* \"#utility.yul\":4124:4130   */\n              dup2\n                /* \"#utility.yul\":4121:4151   */\n              gt\n                /* \"#utility.yul\":4118:4235   */\n              iszero\n              tag_292\n              jumpi\n                /* \"#utility.yul\":4154:4233   */\n              tag_293\n              tag_192\n              jump\t// in\n            tag_293:\n                /* \"#utility.yul\":4118:4235   */\n            tag_292:\n                /* \"#utility.yul\":4259:4322   */\n              tag_294\n                /* \"#utility.yul\":4314:4321   */\n              dup5\n                /* \"#utility.yul\":4305:4311   */\n              dup3\n                /* \"#utility.yul\":4294:4303   */\n              dup6\n                /* \"#utility.yul\":4290:4312   */\n              add\n                /* \"#utility.yul\":4259:4322   */\n              tag_201\n              jump\t// in\n            tag_294:\n                /* \"#utility.yul\":4249:4322   */\n              swap2\n              pop\n                /* \"#utility.yul\":4045:4332   */\n              pop\n                /* \"#utility.yul\":3830:4339   */\n              swap3\n              swap2\n              pop\n              pop\n              jump\t// out\n                /* \"#utility.yul\":4345:4422   */\n            tag_202:\n                /* \"#utility.yul\":4382:4389   */\n              0x00\n                /* \"#utility.yul\":4411:4416   */\n              dup2\n                /* \"#utility.yul\":4400:4416   */\n              swap1\n              pop\n                /* \"#utility.yul\":4345:4422   */\n              swap2\n              swap1\n              pop\n              jump\t// out\n                /* \"#utility.yul\":4428:4550   */\n            tag_203:\n                /* \"#utility.yul\":4501:4525   */\n              tag_297\n                /* \"#utility.yul\":4519:4524   */\n              dup2\n                /* \"#utility.yul\":4501:4525   */\n              tag_202\n              jump\t// in\n            tag_297:\n                /* \"#utility.yul\":4494:4499   */\n              dup2\n                /* \"#utility.yul\":4491:4526   */\n              eq\n                /* \"#utility.yul\":4481:4544   */\n              tag_298\n              jumpi\n                /* \"#utility.yul\":4540:4541   */\n              0x00\n                /* \"#utility.yul\":4537:4538   */\n              dup1\n                /* \"#utility.yul\":4530:4542   */\n              revert\n                /* \"#utility.yul\":4481:4544   */\n            tag_298:\n                /* \"#utility.yul\":4428:4550   */\n              pop\n              jump\t// out\n                /* \"#utility.yul\":4556:4695   */\n            tag_204:\n                /* \"#utility.yul\":4602:4607   */\n              0x00\n                /* \"#utility.yul\":4640:4646   */\n              dup2\n                /* \"#utility.yul\":4627:4647   */\n              calldataload\n                /* \"#utility.yul\":4618:4647   */\n              swap1\n              pop\n                /* \"#utility.yul\":4656:4689   */\n              tag_300\n                /* \"#utility.yul\":4683:4688   */\n              dup2\n                /* \"#utility.yul\":4656:4689   */\n              tag_203\n              jump\t// in\n            tag_300:\n                /* \"#utility.yul\":4556:4695   */\n              swap3\n              swap2\n              pop\n              pop\n              jump\t// out\n                /* \"#utility.yul\":4701:5030   */\n            tag_35:\n                /* \"#utility.yul\":4760:4766   */\n              0x00\n                /* \"#utility.yul\":4809:4811   */\n              0x20\n                /* \"#utility.yul\":4797:4806   */\n              dup3\n                /* \"#utility.yul\":4788:4795   */\n              dup5\n                /* \"#utility.yul\":4784:4807   */\n              sub\n                /* \"#utility.yul\":4780:4812   */\n              slt\n                /* \"#utility.yul\":4777:4896   */\n              iszero\n              tag_302\n              jumpi\n                /* \"#utility.yul\":4815:4894   */\n              tag_303\n              tag_191\n              jump\t// in\n            tag_303:\n                /* \"#utility.yul\":4777:4896   */\n            tag_302:\n                /* \"#utility.yul\":4935:4936   */\n              0x00\n                /* \"#utility.yul\":4960:5013   */\n              tag_304\n                /* \"#utility.yul\":5005:5012   */\n              dup5\n                /* \"#utility.yul\":4996:5002   */\n              dup3\n                /* \"#utility.yul\":4985:4994   */\n              dup6\n                /* \"#utility.yul\":4981:5003   */\n              add\n                /* \"#utility.yul\":4960:5013   */\n              tag_204\n              jump\t// in\n            tag_304:\n                /* \"#utility.yul\":4950:5013   */\n              swap2\n              pop\n                /* \"#utility.yul\":4906:5023   */\n              pop\n                /* \"#utility.yul\":4701:5030   */\n              swap3\n              swap2\n              pop\n              pop\n              jump\t// out\n                /* \"#utility.yul\":5036:5162   */\n            tag_205:\n                /* \"#utility.yul\":5073:5080   */\n              0x00\n                /* \"#utility.yul\":5113:5155   */\n              0xffffffffffffffffffffffffffffffffffffffff\n                /* \"#utility.yul\":5106:5111   */\n              dup3\n                /* \"#utility.yul\":5102:5156   */\n              and\n                /* \"#utility.yul\":5091:5156   */\n              swap1\n              pop\n                /* \"#utility.yul\":5036:5162   */\n              swap2\n              swap1\n              pop\n              jump\t// out\n                /* \"#utility.yul\":5168:5272   */\n            tag_206:\n                /* \"#utility.yul\":5213:5220   */\n              0x00\n                /* \"#utility.yul\":5242:5266   */\n              tag_307\n                /* \"#utility.yul\":5260:5265   */\n              dup3\n                /* \"#utility.yul\":5242:5266   */\n              tag_205\n              jump\t// in\n            tag_307:\n                /* \"#utility.yul\":5231:5266   */\n              swap1\n              pop\n                /* \"#utility.yul\":5168:5272   */\n              swap2\n              swap1\n              pop\n              jump\t// out\n                /* \"#utility.yul\":5278:5420   */\n            tag_207:\n                /* \"#utility.yul\":5381:5413   */\n              tag_309\n                /* \"#utility.yul\":5407:5412   */\n              dup2\n                /* \"#utility.yul\":5381:5413   */\n              tag_206\n              jump\t// in\n            tag_309:\n                /* \"#utility.yul\":5376:5379   */\n              dup3\n                /* \"#utility.yul\":5369:5414   */\n              mstore\n                /* \"#utility.yul\":5278:5420   */\n              pop\n              pop\n              jump\t// out\n                /* \"#utility.yul\":5426:5680   */\n            tag_38:\n                /* \"#utility.yul\":5535:5539   */\n              0x00\n                /* \"#utility.yul\":5573:5575   */\n              0x20\n                /* \"#utility.yul\":5562:5571   */\n              dup3\n                /* \"#utility.yul\":5558:5576   */\n              add\n                /* \"#utility.yul\":5550:5576   */\n              swap1\n              pop\n                /* \"#utility.yul\":5586:5673   */\n              tag_311\n                /* \"#utility.yul\":5670:5671   */\n              0x00\n                /* \"#utility.yul\":5659:5668   */\n              dup4\n                /* \"#utility.yul\":5655:5672   */\n              add\n                /* \"#utility.yul\":5646:5652   */\n              dup5\n                /* \"#utility.yul\":5586:5673   */\n              tag_207\n              jump\t// in\n            tag_311:\n                /* \"#utility.yul\":5426:5680   */\n              swap3\n              swap2\n              pop\n              pop\n              jump\t// out\n                /* \"#utility.yul\":5686:5810   */\n            tag_208:\n                /* \"#utility.yul\":5763:5769   */\n              0x00\n                /* \"#utility.yul\":5797:5802   */\n              dup2\n                /* \"#utility.yul\":5791:5803   */\n              mload\n                /* \"#utility.yul\":5781:5803   */\n              swap1\n              pop\n                /* \"#utility.yul\":5686:5810   */\n              swap2\n              swap1\n              pop\n              jump\t// out\n                /* \"#utility.yul\":5816:6010   */\n            tag_209:\n                /* \"#utility.yul\":5925:5936   */\n              0x00\n                /* \"#utility.yul\":5959:5965   */\n              dup3\n                /* \"#utility.yul\":5954:5957   */\n              dup3\n                /* \"#utility.yul\":5947:5966   */\n              mstore\n                /* \"#utility.yul\":5999:6003   */\n              0x20\n                /* \"#utility.yul\":5994:5997   */\n              dup3\n                /* \"#utility.yul\":5990:6004   */\n              add\n                /* \"#utility.yul\":5975:6004   */\n              swap1\n              pop\n                /* \"#utility.yul\":5816:6010   */\n              swap3\n              swap2\n              pop\n              pop\n              jump\t// out\n                /* \"#utility.yul\":6016:6158   */\n            tag_210:\n                /* \"#utility.yul\":6093:6097   */\n              0x00\n                /* \"#utility.yul\":6116:6119   */\n              dup2\n                /* \"#utility.yul\":6108:6119   */\n              swap1\n              pop\n                /* \"#utility.yul\":6146:6150   */\n              0x20\n                /* \"#utility.yul\":6141:6144   */\n              dup3\n                /* \"#utility.yul\":6137:6151   */\n              add\n                /* \"#utility.yul\":6129:6151   */\n              swap1\n              pop\n                /* \"#utility.yul\":6016:6158   */\n              swap2\n              swap1\n              pop\n              jump\t// out\n                /* \"#utility.yul\":6164:6323   */\n            tag_211:\n                /* \"#utility.yul\":6238:6249   */\n              0x00\n                /* \"#utility.yul\":6272:6278   */\n              dup3\n                /* \"#utility.yul\":6267:6270   */\n              dup3\n                /* \"#utility.yul\":6260:6279   */\n              mstore\n                /* \"#utility.yul\":6312:6316   */\n              0x20\n                /* \"#utility.yul\":6307:6310   */\n              dup3\n                /* \"#utility.yul\":6303:6317   */\n              add\n                /* \"#utility.yul\":6288:6317   */\n              swap1\n              pop\n                /* \"#utility.yul\":6164:6323   */\n              swap3\n              swap2\n              pop\n              pop\n              jump\t// out\n                /* \"#utility.yul\":6329:6673   */\n            tag_212:\n                /* \"#utility.yul\":6407:6410   */\n              0x00\n                /* \"#utility.yul\":6435:6474   */\n              tag_317\n                /* \"#utility.yul\":6468:6473   */\n              dup3\n                /* \"#utility.yul\":6435:6474   */\n              tag_185\n              jump\t// in\n            tag_317:\n                /* \"#utility.yul\":6490:6551   */\n              tag_318\n                /* \"#utility.yul\":6544:6550   */\n              dup2\n                /* \"#utility.yul\":6539:6542   */\n              dup6\n                /* \"#utility.yul\":6490:6551   */\n              tag_211\n              jump\t// in\n            tag_318:\n                /* \"#utility.yul\":6483:6551   */\n              swap4\n              pop\n                /* \"#utility.yul\":6560:6612   */\n              tag_319\n                /* \"#utility.yul\":6605:6611   */\n              dup2\n                /* \"#utility.yul\":6600:6603   */\n              dup6\n                /* \"#utility.yul\":6593:6597   */\n              0x20\n                /* \"#utility.yul\":6586:6591   */\n              dup7\n                /* \"#utility.yul\":6582:6598   */\n              add\n                /* \"#utility.yul\":6560:6612   */\n              tag_187\n              jump\t// in\n            tag_319:\n                /* \"#utility.yul\":6637:6666   */\n              tag_320\n                /* \"#utility.yul\":6659:6665   */\n              dup2\n                /* \"#utility.yul\":6637:6666   */\n              tag_188\n              jump\t// in\n            tag_320:\n                /* \"#utility.yul\":6632:6635   */\n              dup5\n                /* \"#utility.yul\":6628:6667   */\n              add\n                /* \"#utility.yul\":6621:6667   */\n              swap2\n              pop\n                /* \"#utility.yul\":6411:6673   */\n              pop\n                /* \"#utility.yul\":6329:6673   */\n              swap3\n              swap2\n              pop\n              pop\n              jump\t// out\n                /* \"#utility.yul\":6679:6875   */\n            tag_213:\n                /* \"#utility.yul\":6768:6778   */\n              0x00\n                /* \"#utility.yul\":6803:6869   */\n              tag_322\n                /* \"#utility.yul\":6865:6868   */\n              dup4\n                /* \"#utility.yul\":6857:6863   */\n              dup4\n                /* \"#utility.yul\":6803:6869   */\n              tag_212\n              jump\t// in\n            tag_322:\n                /* \"#utility.yul\":6789:6869   */\n              swap1\n              pop\n                /* \"#utility.yul\":6679:6875   */\n              swap3\n              swap2\n              pop\n              pop\n              jump\t// out\n                /* \"#utility.yul\":6881:7004   */\n            tag_214:\n                /* \"#utility.yul\":6961:6965   */\n              0x00\n                /* \"#utility.yul\":6993:6997   */\n              0x20\n                /* \"#utility.yul\":6988:6991   */\n              dup3\n                /* \"#utility.yul\":6984:6998   */\n              add\n                /* \"#utility.yul\":6976:6998   */\n              swap1\n              pop\n                /* \"#utility.yul\":6881:7004   */\n              swap2\n              swap1\n              pop\n              jump\t// out\n                /* \"#utility.yul\":7038:8029   */\n            tag_215:\n                /* \"#utility.yul\":7177:7180   */\n              0x00\n                /* \"#utility.yul\":7206:7270   */\n              tag_325\n                /* \"#utility.yul\":7264:7269   */\n              dup3\n                /* \"#utility.yul\":7206:7270   */\n              tag_208\n              jump\t// in\n            tag_325:\n                /* \"#utility.yul\":7286:7382   */\n              tag_326\n                /* \"#utility.yul\":7375:7381   */\n              dup2\n                /* \"#utility.yul\":7370:7373   */\n              dup6\n                /* \"#utility.yul\":7286:7382   */\n              tag_209\n              jump\t// in\n            tag_326:\n                /* \"#utility.yul\":7279:7382   */\n              swap4\n              pop\n                /* \"#utility.yul\":7408:7411   */\n              dup4\n                /* \"#utility.yul\":7453:7457   */\n              0x20\n                /* \"#utility.yul\":7445:7451   */\n              dup3\n                /* \"#utility.yul\":7441:7458   */\n              mul\n                /* \"#utility.yul\":7436:7439   */\n              dup6\n                /* \"#utility.yul\":7432:7459   */\n              add\n                /* \"#utility.yul\":7483:7549   */\n              tag_327\n                /* \"#utility.yul\":7543:7548   */\n              dup6\n                /* \"#utility.yul\":7483:7549   */\n              tag_210\n              jump\t// in\n            tag_327:\n                /* \"#utility.yul\":7572:7579   */\n              dup1\n                /* \"#utility.yul\":7603:7604   */\n              0x00\n                /* \"#utility.yul\":7588:7984   */\n            tag_328:\n                /* \"#utility.yul\":7613:7619   */\n              dup6\n                /* \"#utility.yul\":7610:7611   */\n              dup2\n                /* \"#utility.yul\":7607:7620   */\n              lt\n                /* \"#utility.yul\":7588:7984   */\n              iszero\n              tag_330\n              jumpi\n                /* \"#utility.yul\":7684:7693   */\n              dup5\n                /* \"#utility.yul\":7678:7682   */\n              dup5\n                /* \"#utility.yul\":7674:7694   */\n              sub\n                /* \"#utility.yul\":7669:7672   */\n              dup10\n                /* \"#utility.yul\":7662:7695   */\n              mstore\n                /* \"#utility.yul\":7735:7741   */\n              dup2\n                /* \"#utility.yul\":7729:7742   */\n              mload\n                /* \"#utility.yul\":7763:7847   */\n              tag_331\n                /* \"#utility.yul\":7842:7846   */\n              dup6\n                /* \"#utility.yul\":7827:7840   */\n              dup3\n                /* \"#utility.yul\":7763:7847   */\n              tag_213\n              jump\t// in\n            tag_331:\n                /* \"#utility.yul\":7755:7847   */\n              swap5\n              pop\n                /* \"#utility.yul\":7870:7940   */\n              tag_332\n                /* \"#utility.yul\":7933:7939   */\n              dup4\n                /* \"#utility.yul\":7870:7940   */\n              tag_214\n              jump\t// in\n            tag_332:\n                /* \"#utility.yul\":7860:7940   */\n              swap3\n              pop\n                /* \"#utility.yul\":7969:7973   */\n              0x20\n                /* \"#utility.yul\":7964:7967   */\n              dup11\n                /* \"#utility.yul\":7960:7974   */\n              add\n                /* \"#utility.yul\":7953:7974   */\n              swap10\n              pop\n                /* \"#utility.yul\":7648:7984   */\n              pop\n                /* \"#utility.yul\":7635:7636   */\n              0x01\n                /* \"#utility.yul\":7632:7633   */\n              dup2\n                /* \"#utility.yul\":7628:7637   */\n              add\n                /* \"#utility.yul\":7623:7637   */\n              swap1\n              pop\n                /* \"#utility.yul\":7588:7984   */\n              jump(tag_328)\n            tag_330:\n                /* \"#utility.yul\":7592:7606   */\n              pop\n                /* \"#utility.yul\":8000:8004   */\n              dup3\n                /* \"#utility.yul\":7993:8004   */\n              swap8\n              pop\n                /* \"#utility.yul\":8020:8023   */\n              dup8\n                /* \"#utility.yul\":8013:8023   */\n              swap6\n              pop\n                /* \"#utility.yul\":7182:8029   */\n              pop\n              pop\n              pop\n              pop\n              pop\n                /* \"#utility.yul\":7038:8029   */\n              swap3\n              swap2\n              pop\n              pop\n              jump\t// out\n                /* \"#utility.yul\":8035:8125   */\n            tag_216:\n                /* \"#utility.yul\":8069:8076   */\n              0x00\n                /* \"#utility.yul\":8112:8117   */\n              dup2\n                /* \"#utility.yul\":8105:8118   */\n              iszero\n                /* \"#utility.yul\":8098:8119   */\n              iszero\n                /* \"#utility.yul\":8087:8119   */\n              swap1\n              pop\n                /* \"#utility.yul\":8035:8125   */\n              swap2\n              swap1\n              pop\n              jump\t// out\n                /* \"#utility.yul\":8131:8240   */\n            tag_217:\n                /* \"#utility.yul\":8212:8233   */\n              tag_335\n                /* \"#utility.yul\":8227:8232   */\n              dup2\n                /* \"#utility.yul\":8212:8233   */\n              tag_216\n              jump\t// in\n            tag_335:\n                /* \"#utility.yul\":8207:8210   */\n              dup3\n                /* \"#utility.yul\":8200:8234   */\n              mstore\n                /* \"#utility.yul\":8131:8240   */\n              pop\n              pop\n              jump\t// out\n                /* \"#utility.yul\":8246:8368   */\n            tag_218:\n                /* \"#utility.yul\":8321:8327   */\n              0x00\n                /* \"#utility.yul\":8355:8360   */\n              dup2\n                /* \"#utility.yul\":8349:8361   */\n              mload\n                /* \"#utility.yul\":8339:8361   */\n              swap1\n              pop\n                /* \"#utility.yul\":8246:8368   */\n              swap2\n              swap1\n              pop\n              jump\t// out\n                /* \"#utility.yul\":8374:8566   */\n            tag_219:\n                /* \"#utility.yul\":8481:8492   */\n              0x00\n                /* \"#utility.yul\":8515:8521   */\n              dup3\n                /* \"#utility.yul\":8510:8513   */\n              dup3\n                /* \"#utility.yul\":8503:8522   */\n              mstore\n                /* \"#utility.yul\":8555:8559   */\n              0x20\n                /* \"#utility.yul\":8550:8553   */\n              dup3\n                /* \"#utility.yul\":8546:8560   */\n              add\n                /* \"#utility.yul\":8531:8560   */\n              swap1\n              pop\n                /* \"#utility.yul\":8374:8566   */\n              swap3\n              swap2\n              pop\n              pop\n              jump\t// out\n                /* \"#utility.yul\":8572:8712   */\n            tag_220:\n                /* \"#utility.yul\":8647:8651   */\n              0x00\n                /* \"#utility.yul\":8670:8673   */\n              dup2\n                /* \"#utility.yul\":8662:8673   */\n              swap1\n              pop\n                /* \"#utility.yul\":8700:8704   */\n              0x20\n                /* \"#utility.yul\":8695:8698   */\n              dup3\n                /* \"#utility.yul\":8691:8705   */\n              add\n                /* \"#utility.yul\":8683:8705   */\n              swap1\n              pop\n                /* \"#utility.yul\":8572:8712   */\n              swap2\n              swap1\n              pop\n              jump\t// out\n                /* \"#utility.yul\":8718:8850   */\n            tag_221:\n                /* \"#utility.yul\":8811:8843   */\n              tag_340\n                /* \"#utility.yul\":8837:8842   */\n              dup2\n                /* \"#utility.yul\":8811:8843   */\n              tag_206\n              jump\t// in\n            tag_340:\n                /* \"#utility.yul\":8806:8809   */\n              dup3\n                /* \"#utility.yul\":8799:8844   */\n              mstore\n                /* \"#utility.yul\":8718:8850   */\n              pop\n              pop\n              jump\t// out\n                /* \"#utility.yul\":8856:9067   */\n            tag_222:\n                /* \"#utility.yul\":8941:8951   */\n              0x00\n                /* \"#utility.yul\":8962:9024   */\n              tag_342\n                /* \"#utility.yul\":9020:9023   */\n              dup4\n                /* \"#utility.yul\":9012:9018   */\n              dup4\n                /* \"#utility.yul\":8962:9024   */\n              tag_221\n              jump\t// in\n            tag_342:\n                /* \"#utility.yul\":9056:9060   */\n              0x20\n                /* \"#utility.yul\":9051:9054   */\n              dup4\n                /* \"#utility.yul\":9047:9061   */\n              add\n                /* \"#utility.yul\":9033:9061   */\n              swap1\n              pop\n                /* \"#utility.yul\":8856:9067   */\n              swap3\n              swap2\n              pop\n              pop\n              jump\t// out\n                /* \"#utility.yul\":9073:9194   */\n            tag_223:\n                /* \"#utility.yul\":9151:9155   */\n              0x00\n                /* \"#utility.yul\":9183:9187   */\n              0x20\n                /* \"#utility.yul\":9178:9181   */\n              dup3\n                /* \"#utility.yul\":9174:9188   */\n              add\n                /* \"#utility.yul\":9166:9188   */\n              swap1\n              pop\n                /* \"#utility.yul\":9073:9194   */\n              swap2\n              swap1\n              pop\n              jump\t// out\n                /* \"#utility.yul\":9246:10042   */\n            tag_224:\n                /* \"#utility.yul\":9381:9384   */\n              0x00\n                /* \"#utility.yul\":9410:9472   */\n              tag_345\n                /* \"#utility.yul\":9466:9471   */\n              dup3\n                /* \"#utility.yul\":9410:9472   */\n              tag_218\n              jump\t// in\n            tag_345:\n                /* \"#utility.yul\":9488:9582   */\n              tag_346\n                /* \"#utility.yul\":9575:9581   */\n              dup2\n                /* \"#utility.yul\":9570:9573   */\n              dup6\n                /* \"#utility.yul\":9488:9582   */\n              tag_219\n              jump\t// in\n            tag_346:\n                /* \"#utility.yul\":9481:9582   */\n              swap4\n              pop\n                /* \"#utility.yul\":9606:9670   */\n              tag_347\n                /* \"#utility.yul\":9664:9669   */\n              dup4\n                /* \"#utility.yul\":9606:9670   */\n              tag_220\n              jump\t// in\n            tag_347:\n                /* \"#utility.yul\":9693:9700   */\n              dup1\n                /* \"#utility.yul\":9724:9725   */\n              0x00\n                /* \"#utility.yul\":9709:10017   */\n            tag_348:\n                /* \"#utility.yul\":9734:9740   */\n              dup4\n                /* \"#utility.yul\":9731:9732   */\n              dup2\n                /* \"#utility.yul\":9728:9741   */\n              lt\n                /* \"#utility.yul\":9709:10017   */\n              iszero\n              tag_350\n              jumpi\n                /* \"#utility.yul\":9810:9816   */\n              dup2\n                /* \"#utility.yul\":9804:9817   */\n              mload\n                /* \"#utility.yul\":9837:9916   */\n              tag_351\n                /* \"#utility.yul\":9912:9915   */\n              dup9\n                /* \"#utility.yul\":9897:9910   */\n              dup3\n                /* \"#utility.yul\":9837:9916   */\n              tag_222\n              jump\t// in\n            tag_351:\n                /* \"#utility.yul\":9830:9916   */\n              swap8\n              pop\n                /* \"#utility.yul\":9939:10007   */\n              tag_352\n                /* \"#utility.yul\":10000:10006   */\n              dup4\n                /* \"#utility.yul\":9939:10007   */\n              tag_223\n              jump\t// in\n            tag_352:\n                /* \"#utility.yul\":9929:10007   */\n              swap3\n              pop\n                /* \"#utility.yul\":9769:10017   */\n              pop\n                /* \"#utility.yul\":9756:9757   */\n              0x01\n                /* \"#utility.yul\":9753:9754   */\n              dup2\n                /* \"#utility.yul\":9749:9758   */\n              add\n                /* \"#utility.yul\":9744:9758   */\n              swap1\n              pop\n                /* \"#utility.yul\":9709:10017   */\n              jump(tag_348)\n            tag_350:\n                /* \"#utility.yul\":9713:9727   */\n              pop\n                /* \"#utility.yul\":10033:10036   */\n              dup6\n                /* \"#utility.yul\":10026:10036   */\n              swap4\n              pop\n                /* \"#utility.yul\":9386:10042   */\n              pop\n              pop\n              pop\n                /* \"#utility.yul\":9246:10042   */\n              swap3\n              swap2\n              pop\n              pop\n              jump\t// out\n                /* \"#utility.yul\":10048:10166   */\n            tag_225:\n                /* \"#utility.yul\":10135:10159   */\n              tag_354\n                /* \"#utility.yul\":10153:10158   */\n              dup2\n                /* \"#utility.yul\":10135:10159   */\n              tag_202\n              jump\t// in\n            tag_354:\n                /* \"#utility.yul\":10130:10133   */\n              dup3\n                /* \"#utility.yul\":10123:10160   */\n              mstore\n                /* \"#utility.yul\":10048:10166   */\n              pop\n              pop\n              jump\t// out\n                /* \"#utility.yul\":10172:12281   */\n            tag_48:\n                /* \"#utility.yul\":10809:10813   */\n              0x00\n                /* \"#utility.yul\":10847:10850   */\n              0x0140\n                /* \"#utility.yul\":10836:10845   */\n              dup3\n                /* \"#utility.yul\":10832:10851   */\n              add\n                /* \"#utility.yul\":10824:10851   */\n              swap1\n              pop\n                /* \"#utility.yul\":10861:10948   */\n              tag_356\n                /* \"#utility.yul\":10945:10946   */\n              0x00\n                /* \"#utility.yul\":10934:10943   */\n              dup4\n                /* \"#utility.yul\":10930:10947   */\n              add\n                /* \"#utility.yul\":10921:10927   */\n              dup14\n                /* \"#utility.yul\":10861:10948   */\n              tag_207\n              jump\t// in\n            tag_356:\n                /* \"#utility.yul\":10995:11004   */\n              dup2\n                /* \"#utility.yul\":10989:10993   */\n              dup2\n                /* \"#utility.yul\":10985:11005   */\n              sub\n                /* \"#utility.yul\":10980:10982   */\n              0x20\n                /* \"#utility.yul\":10969:10978   */\n              dup4\n                /* \"#utility.yul\":10965:10983   */\n              add\n                /* \"#utility.yul\":10958:11006   */\n              mstore\n                /* \"#utility.yul\":11023:11101   */\n              tag_357\n                /* \"#utility.yul\":11096:11100   */\n              dup2\n                /* \"#utility.yul\":11087:11093   */\n              dup13\n                /* \"#utility.yul\":11023:11101   */\n              tag_189\n              jump\t// in\n            tag_357:\n                /* \"#utility.yul\":11015:11101   */\n              swap1\n              pop\n                /* \"#utility.yul\":11148:11157   */\n              dup2\n                /* \"#utility.yul\":11142:11146   */\n              dup2\n                /* \"#utility.yul\":11138:11158   */\n              sub\n                /* \"#utility.yul\":11133:11135   */\n              0x40\n                /* \"#utility.yul\":11122:11131   */\n              dup4\n                /* \"#utility.yul\":11118:11136   */\n              add\n                /* \"#utility.yul\":11111:11159   */\n              mstore\n                /* \"#utility.yul\":11176:11304   */\n              tag_358\n                /* \"#utility.yul\":11299:11303   */\n              dup2\n                /* \"#utility.yul\":11290:11296   */\n              dup12\n                /* \"#utility.yul\":11176:11304   */\n              tag_215\n              jump\t// in\n            tag_358:\n                /* \"#utility.yul\":11168:11304   */\n              swap1\n              pop\n                /* \"#utility.yul\":11351:11360   */\n              dup2\n                /* \"#utility.yul\":11345:11349   */\n              dup2\n                /* \"#utility.yul\":11341:11361   */\n              sub\n                /* \"#utility.yul\":11336:11338   */\n              0x60\n                /* \"#utility.yul\":11325:11334   */\n              dup4\n                /* \"#utility.yul\":11321:11339   */\n              add\n                /* \"#utility.yul\":11314:11362   */\n              mstore\n                /* \"#utility.yul\":11379:11457   */\n              tag_359\n                /* \"#utility.yul\":11452:11456   */\n              dup2\n                /* \"#utility.yul\":11443:11449   */\n              dup11\n                /* \"#utility.yul\":11379:11457   */\n              tag_189\n              jump\t// in\n            tag_359:\n                /* \"#utility.yul\":11371:11457   */\n              swap1\n              pop\n                /* \"#utility.yul\":11505:11514   */\n              dup2\n                /* \"#utility.yul\":11499:11503   */\n              dup2\n                /* \"#utility.yul\":11495:11515   */\n              sub\n                /* \"#utility.yul\":11489:11492   */\n              0x80\n                /* \"#utility.yul\":11478:11487   */\n              dup4\n                /* \"#utility.yul\":11474:11493   */\n              add\n                /* \"#utility.yul\":11467:11516   */\n              mstore\n                /* \"#utility.yul\":11533:11611   */\n              tag_360\n                /* \"#utility.yul\":11606:11610   */\n              dup2\n                /* \"#utility.yul\":11597:11603   */\n              dup10\n                /* \"#utility.yul\":11533:11611   */\n              tag_189\n              jump\t// in\n            tag_360:\n                /* \"#utility.yul\":11525:11611   */\n              swap1\n              pop\n                /* \"#utility.yul\":11621:11710   */\n              tag_361\n                /* \"#utility.yul\":11705:11708   */\n              0xa0\n                /* \"#utility.yul\":11694:11703   */\n              dup4\n                /* \"#utility.yul\":11690:11709   */\n              add\n                /* \"#utility.yul\":11681:11687   */\n              dup9\n                /* \"#utility.yul\":11621:11710   */\n              tag_207\n              jump\t// in\n            tag_361:\n                /* \"#utility.yul\":11720:11787   */\n              tag_362\n                /* \"#utility.yul\":11782:11785   */\n              0xc0\n                /* \"#utility.yul\":11771:11780   */\n              dup4\n                /* \"#utility.yul\":11767:11786   */\n              add\n                /* \"#utility.yul\":11758:11764   */\n              dup8\n                /* \"#utility.yul\":11720:11787   */\n              tag_217\n              jump\t// in\n            tag_362:\n                /* \"#utility.yul\":11835:11844   */\n              dup2\n                /* \"#utility.yul\":11829:11833   */\n              dup2\n                /* \"#utility.yul\":11825:11845   */\n              sub\n                /* \"#utility.yul\":11819:11822   */\n              0xe0\n                /* \"#utility.yul\":11808:11817   */\n              dup4\n                /* \"#utility.yul\":11804:11823   */\n              add\n                /* \"#utility.yul\":11797:11846   */\n              mstore\n                /* \"#utility.yul\":11863:11987   */\n              tag_363\n                /* \"#utility.yul\":11982:11986   */\n              dup2\n                /* \"#utility.yul\":11973:11979   */\n              dup7\n                /* \"#utility.yul\":11863:11987   */\n              tag_224\n              jump\t// in\n            tag_363:\n                /* \"#utility.yul\":11855:11987   */\n              swap1\n              pop\n                /* \"#utility.yul\":11997:12070   */\n              tag_364\n                /* \"#utility.yul\":12065:12068   */\n              0x0100\n                /* \"#utility.yul\":12054:12063   */\n              dup4\n                /* \"#utility.yul\":12050:12069   */\n              add\n                /* \"#utility.yul\":12041:12047   */\n              dup6\n                /* \"#utility.yul\":11997:12070   */\n              tag_225\n              jump\t// in\n            tag_364:\n                /* \"#utility.yul\":12118:12127   */\n              dup2\n                /* \"#utility.yul\":12112:12116   */\n              dup2\n                /* \"#utility.yul\":12108:12128   */\n              sub\n                /* \"#utility.yul\":12102:12105   */\n              0x0120\n                /* \"#utility.yul\":12091:12100   */\n              dup4\n                /* \"#utility.yul\":12087:12106   */\n              add\n                /* \"#utility.yul\":12080:12129   */\n              mstore\n                /* \"#utility.yul\":12146:12274   */\n              tag_365\n                /* \"#utility.yul\":12269:12273   */\n              dup2\n                /* \"#utility.yul\":12260:12266   */\n              dup5\n                /* \"#utility.yul\":12146:12274   */\n              tag_215\n              jump\t// in\n            tag_365:\n                /* \"#utility.yul\":12138:12274   */\n              swap1\n              pop\n                /* \"#utility.yul\":10172:12281   */\n              swap12\n              swap11\n              pop\n              pop\n              pop\n              pop\n              pop\n              pop\n              pop\n              pop\n              pop\n              pop\n              pop\n              jump\t// out\n                /* \"#utility.yul\":12287:12700   */\n            tag_52:\n                /* \"#utility.yul\":12450:12454   */\n              0x00\n                /* \"#utility.yul\":12488:12490   */\n              0x20\n                /* \"#utility.yul\":12477:12486   */\n              dup3\n                /* \"#utility.yul\":12473:12491   */\n              add\n                /* \"#utility.yul\":12465:12491   */\n              swap1\n              pop\n                /* \"#utility.yul\":12537:12546   */\n              dup2\n                /* \"#utility.yul\":12531:12535   */\n              dup2\n                /* \"#utility.yul\":12527:12547   */\n              sub\n                /* \"#utility.yul\":12523:12524   */\n              0x00\n                /* \"#utility.yul\":12512:12521   */\n              dup4\n                /* \"#utility.yul\":12508:12525   */\n              add\n                /* \"#utility.yul\":12501:12548   */\n              mstore\n                /* \"#utility.yul\":12565:12693   */\n              tag_367\n                /* \"#utility.yul\":12688:12692   */\n              dup2\n                /* \"#utility.yul\":12679:12685   */\n              dup5\n                /* \"#utility.yul\":12565:12693   */\n              tag_215\n              jump\t// in\n            tag_367:\n                /* \"#utility.yul\":12557:12693   */\n              swap1\n              pop\n                /* \"#utility.yul\":12287:12700   */\n              swap3\n              swap2\n              pop\n              pop\n              jump\t// out\n                /* \"#utility.yul\":12706:12802   */\n            tag_226:\n                /* \"#utility.yul\":12743:12750   */\n              0x00\n                /* \"#utility.yul\":12772:12796   */\n              tag_369\n                /* \"#utility.yul\":12790:12795   */\n              dup3\n                /* \"#utility.yul\":12772:12796   */\n              tag_205\n              jump\t// in\n            tag_369:\n                /* \"#utility.yul\":12761:12796   */\n              swap1\n              pop\n                /* \"#utility.yul\":12706:12802   */\n              swap2\n              swap1\n              pop\n              jump\t// out\n                /* \"#utility.yul\":12808:12930   */\n            tag_227:\n                /* \"#utility.yul\":12881:12905   */\n              tag_371\n                /* \"#utility.yul\":12899:12904   */\n              dup2\n                /* \"#utility.yul\":12881:12905   */\n              tag_226\n              jump\t// in\n            tag_371:\n                /* \"#utility.yul\":12874:12879   */\n              dup2\n                /* \"#utility.yul\":12871:12906   */\n              eq\n                /* \"#utility.yul\":12861:12924   */\n              tag_372\n              jumpi\n                /* \"#utility.yul\":12920:12921   */\n              0x00\n                /* \"#utility.yul\":12917:12918   */\n              dup1\n                /* \"#utility.yul\":12910:12922   */\n              revert\n                /* \"#utility.yul\":12861:12924   */\n            tag_372:\n                /* \"#utility.yul\":12808:12930   */\n              pop\n              jump\t// out\n                /* \"#utility.yul\":12936:13075   */\n            tag_228:\n                /* \"#utility.yul\":12982:12987   */\n              0x00\n                /* \"#utility.yul\":13020:13026   */\n              dup2\n                /* \"#utility.yul\":13007:13027   */\n              calldataload\n                /* \"#utility.yul\":12998:13027   */\n              swap1\n              pop\n                /* \"#utility.yul\":13036:13069   */\n              tag_374\n                /* \"#utility.yul\":13063:13068   */\n              dup2\n                /* \"#utility.yul\":13036:13069   */\n              tag_227\n              jump\t// in\n            tag_374:\n                /* \"#utility.yul\":12936:13075   */\n              swap3\n              swap2\n              pop\n              pop\n              jump\t// out\n                /* \"#utility.yul\":13081:13410   */\n            tag_55:\n                /* \"#utility.yul\":13140:13146   */\n              0x00\n                /* \"#utility.yul\":13189:13191   */\n              0x20\n                /* \"#utility.yul\":13177:13186   */\n              dup3\n                /* \"#utility.yul\":13168:13175   */\n              dup5\n                /* \"#utility.yul\":13164:13187   */\n              sub\n                /* \"#utility.yul\":13160:13192   */\n              slt\n                /* \"#utility.yul\":13157:13276   */\n              iszero\n              tag_376\n              jumpi\n                /* \"#utility.yul\":13195:13274   */\n              tag_377\n              tag_191\n              jump\t// in\n            tag_377:\n                /* \"#utility.yul\":13157:13276   */\n            tag_376:\n                /* \"#utility.yul\":13315:13316   */\n              0x00\n                /* \"#utility.yul\":13340:13393   */\n              tag_378\n                /* \"#utility.yul\":13385:13392   */\n              dup5\n                /* \"#utility.yul\":13376:13382   */\n              dup3\n                /* \"#utility.yul\":13365:13374   */\n              dup6\n                /* \"#utility.yul\":13361:13383   */\n              add\n                /* \"#utility.yul\":13340:13393   */\n              tag_228\n              jump\t// in\n            tag_378:\n                /* \"#utility.yul\":13330:13393   */\n              swap2\n              pop\n                /* \"#utility.yul\":13286:13403   */\n              pop\n                /* \"#utility.yul\":13081:13410   */\n              swap3\n              swap2\n              pop\n              pop\n              jump\t// out\n                /* \"#utility.yul\":13416:13969   */\n            tag_65:\n                /* \"#utility.yul\":13595:13599   */\n              0x00\n                /* \"#utility.yul\":13633:13635   */\n              0x60\n                /* \"#utility.yul\":13622:13631   */\n              dup3\n                /* \"#utility.yul\":13618:13636   */\n              add\n                /* \"#utility.yul\":13610:13636   */\n              swap1\n              pop\n                /* \"#utility.yul\":13682:13691   */\n              dup2\n                /* \"#utility.yul\":13676:13680   */\n              dup2\n                /* \"#utility.yul\":13672:13692   */\n              sub\n                /* \"#utility.yul\":13668:13669   */\n              0x00\n                /* \"#utility.yul\":13657:13666   */\n              dup4\n                /* \"#utility.yul\":13653:13670   */\n              add\n                /* \"#utility.yul\":13646:13693   */\n              mstore\n                /* \"#utility.yul\":13710:13788   */\n              tag_380\n                /* \"#utility.yul\":13783:13787   */\n              dup2\n                /* \"#utility.yul\":13774:13780   */\n              dup7\n                /* \"#utility.yul\":13710:13788   */\n              tag_189\n              jump\t// in\n            tag_380:\n                /* \"#utility.yul\":13702:13788   */\n              swap1\n              pop\n                /* \"#utility.yul\":13798:13886   */\n              tag_381\n                /* \"#utility.yul\":13882:13884   */\n              0x20\n                /* \"#utility.yul\":13871:13880   */\n              dup4\n                /* \"#utility.yul\":13867:13885   */\n              add\n                /* \"#utility.yul\":13858:13864   */\n              dup6\n                /* \"#utility.yul\":13798:13886   */\n              tag_207\n              jump\t// in\n            tag_381:\n                /* \"#utility.yul\":13896:13962   */\n              tag_382\n                /* \"#utility.yul\":13958:13960   */\n              0x40\n                /* \"#utility.yul\":13947:13956   */\n              dup4\n                /* \"#utility.yul\":13943:13961   */\n              add\n                /* \"#utility.yul\":13934:13940   */\n              dup5\n                /* \"#utility.yul\":13896:13962   */\n              tag_217\n              jump\t// in\n            tag_382:\n                /* \"#utility.yul\":13416:13969   */\n              swap5\n              swap4\n              pop\n              pop\n              pop\n              pop\n              jump\t// out\n                /* \"#utility.yul\":13975:14197   */\n            tag_73:\n                /* \"#utility.yul\":14068:14072   */\n              0x00\n                /* \"#utility.yul\":14106:14108   */\n              0x20\n                /* \"#utility.yul\":14095:14104   */\n              dup3\n                /* \"#utility.yul\":14091:14109   */\n              add\n                /* \"#utility.yul\":14083:14109   */\n              swap1\n              pop\n                /* \"#utility.yul\":14119:14190   */\n              tag_384\n                /* \"#utility.yul\":14187:14188   */\n              0x00\n                /* \"#utility.yul\":14176:14185   */\n              dup4\n                /* \"#utility.yul\":14172:14189   */\n              add\n                /* \"#utility.yul\":14163:14169   */\n              dup5\n                /* \"#utility.yul\":14119:14190   */\n              tag_225\n              jump\t// in\n            tag_384:\n                /* \"#utility.yul\":13975:14197   */\n              swap3\n              swap2\n              pop\n              pop\n              jump\t// out\n                /* \"#utility.yul\":14203:14413   */\n            tag_82:\n                /* \"#utility.yul\":14290:14294   */\n              0x00\n                /* \"#utility.yul\":14328:14330   */\n              0x20\n                /* \"#utility.yul\":14317:14326   */\n              dup3\n                /* \"#utility.yul\":14313:14331   */\n              add\n                /* \"#utility.yul\":14305:14331   */\n              swap1\n              pop\n                /* \"#utility.yul\":14341:14406   */\n              tag_386\n                /* \"#utility.yul\":14403:14404   */\n              0x00\n                /* \"#utility.yul\":14392:14401   */\n              dup4\n                /* \"#utility.yul\":14388:14405   */\n              add\n                /* \"#utility.yul\":14379:14385   */\n              dup5\n                /* \"#utility.yul\":14341:14406   */\n              tag_217\n              jump\t// in\n            tag_386:\n                /* \"#utility.yul\":14203:14413   */\n              swap3\n              swap2\n              pop\n              pop\n              jump\t// out\n                /* \"#utility.yul\":14419:14599   */\n            tag_229:\n                /* \"#utility.yul\":14467:14544   */\n              0x4e487b7100000000000000000000000000000000000000000000000000000000\n                /* \"#utility.yul\":14464:14465   */\n              0x00\n                /* \"#utility.yul\":14457:14545   */\n              mstore\n                /* \"#utility.yul\":14564:14568   */\n              0x22\n                /* \"#utility.yul\":14561:14562   */\n              0x04\n                /* \"#utility.yul\":14554:14569   */\n              mstore\n                /* \"#utility.yul\":14588:14592   */\n              0x24\n                /* \"#utility.yul\":14585:14586   */\n              0x00\n                /* \"#utility.yul\":14578:14593   */\n              revert\n                /* \"#utility.yul\":14605:14925   */\n            tag_87:\n                /* \"#utility.yul\":14649:14655   */\n              0x00\n                /* \"#utility.yul\":14686:14687   */\n              0x02\n                /* \"#utility.yul\":14680:14684   */\n              dup3\n                /* \"#utility.yul\":14676:14688   */\n              div\n                /* \"#utility.yul\":14666:14688   */\n              swap1\n              pop\n                /* \"#utility.yul\":14733:14734   */\n              0x01\n                /* \"#utility.yul\":14727:14731   */\n              dup3\n                /* \"#utility.yul\":14723:14735   */\n              and\n                /* \"#utility.yul\":14754:14772   */\n              dup1\n                /* \"#utility.yul\":14744:14825   */\n              tag_389\n              jumpi\n                /* \"#utility.yul\":14810:14814   */\n              0x7f\n                /* \"#utility.yul\":14802:14808   */\n              dup3\n                /* \"#utility.yul\":14798:14815   */\n              and\n                /* \"#utility.yul\":14788:14815   */\n              swap2\n              pop\n                /* \"#utility.yul\":14744:14825   */\n            tag_389:\n                /* \"#utility.yul\":14872:14874   */\n              0x20\n                /* \"#utility.yul\":14864:14870   */\n              dup3\n                /* \"#utility.yul\":14861:14875   */\n              lt\n                /* \"#utility.yul\":14841:14859   */\n              dup2\n                /* \"#utility.yul\":14838:14876   */\n              sub\n                /* \"#utility.yul\":14835:14919   */\n              tag_390\n              jumpi\n                /* \"#utility.yul\":14891:14909   */\n              tag_391\n              tag_229\n              jump\t// in\n            tag_391:\n                /* \"#utility.yul\":14835:14919   */\n            tag_390:\n                /* \"#utility.yul\":14656:14925   */\n              pop\n                /* \"#utility.yul\":14605:14925   */\n              swap2\n              swap1\n              pop\n              jump\t// out\n                /* \"#utility.yul\":14931:15072   */\n            tag_230:\n                /* \"#utility.yul\":14980:14984   */\n              0x00\n                /* \"#utility.yul\":15003:15006   */\n              dup2\n                /* \"#utility.yul\":14995:15006   */\n              swap1\n              pop\n                /* \"#utility.yul\":15026:15029   */\n              dup2\n                /* \"#utility.yul\":15023:15024   */\n              0x00\n                /* \"#utility.yul\":15016:15030   */\n              mstore\n                /* \"#utility.yul\":15060:15064   */\n              0x20\n                /* \"#utility.yul\":15057:15058   */\n              0x00\n                /* \"#utility.yul\":15047:15065   */\n              keccak256\n                /* \"#utility.yul\":15039:15065   */\n              swap1\n              pop\n                /* \"#utility.yul\":14931:15072   */\n              swap2\n              swap1\n              pop\n              jump\t// out\n                /* \"#utility.yul\":15078:15171   */\n            tag_231:\n                /* \"#utility.yul\":15115:15121   */\n              0x00\n                /* \"#utility.yul\":15162:15164   */\n              0x20\n                /* \"#utility.yul\":15157:15159   */\n              0x1f\n                /* \"#utility.yul\":15150:15155   */\n              dup4\n                /* \"#utility.yul\":15146:15160   */\n              add\n                /* \"#utility.yul\":15142:15165   */\n              div\n                /* \"#utility.yul\":15132:15165   */\n              swap1\n              pop\n                /* \"#utility.yul\":15078:15171   */\n              swap2\n              swap1\n              pop\n              jump\t// out\n                /* \"#utility.yul\":15177:15284   */\n            tag_232:\n                /* \"#utility.yul\":15221:15229   */\n              0x00\n                /* \"#utility.yul\":15271:15276   */\n              dup3\n                /* \"#utility.yul\":15265:15269   */\n              dup3\n                /* \"#utility.yul\":15261:15277   */\n              shl\n                /* \"#utility.yul\":15240:15277   */\n              swap1\n              pop\n                /* \"#utility.yul\":15177:15284   */\n              swap3\n              swap2\n              pop\n              pop\n              jump\t// out\n                /* \"#utility.yul\":15290:15683   */\n            tag_233:\n                /* \"#utility.yul\":15359:15365   */\n              0x00\n                /* \"#utility.yul\":15409:15410   */\n              0x08\n                /* \"#utility.yul\":15397:15407   */\n              dup4\n                /* \"#utility.yul\":15393:15411   */\n              mul\n                /* \"#utility.yul\":15432:15529   */\n              tag_396\n                /* \"#utility.yul\":15462:15528   */\n              0xffffffffffffffffffffffffffffffffffffffffffffffffffffffffffffffff\n                /* \"#utility.yul\":15451:15460   */\n              dup3\n                /* \"#utility.yul\":15432:15529   */\n              tag_232\n              jump\t// in\n            tag_396:\n                /* \"#utility.yul\":15550:15589   */\n              tag_397\n                /* \"#utility.yul\":15580:15588   */\n              dup7\n                /* \"#utility.yul\":15569:15578   */\n              dup4\n                /* \"#utility.yul\":15550:15589   */\n              tag_232\n              jump\t// in\n            tag_397:\n                /* \"#utility.yul\":15538:15589   */\n              swap6\n              pop\n                /* \"#utility.yul\":15622:15626   */\n              dup1\n                /* \"#utility.yul\":15618:15627   */\n              not\n                /* \"#utility.yul\":15611:15616   */\n              dup5\n                /* \"#utility.yul\":15607:15628   */\n              and\n                /* \"#utility.yul\":15598:15628   */\n              swap4\n              pop\n                /* \"#utility.yul\":15671:15675   */\n              dup1\n                /* \"#utility.yul\":15661:15669   */\n              dup7\n                /* \"#utility.yul\":15657:15676   */\n              and\n                /* \"#utility.yul\":15650:15655   */\n              dup5\n                /* \"#utility.yul\":15647:15677   */\n              or\n                /* \"#utility.yul\":15637:15677   */\n              swap3\n              pop\n                /* \"#utility.yul\":15366:15683   */\n              pop\n              pop\n                /* \"#utility.yul\":15290:15683   */\n              swap4\n              swap3\n              pop\n              pop\n              pop\n              jump\t// out\n                /* \"#utility.yul\":15689:15749   */\n            tag_234:\n                /* \"#utility.yul\":15717:15720   */\n              0x00\n                /* \"#utility.yul\":15738:15743   */\n              dup2\n                /* \"#utility.yul\":15731:15743   */\n              swap1\n              pop\n                /* \"#utility.yul\":15689:15749   */\n              swap2\n              swap1\n              pop\n              jump\t// out\n                /* \"#utility.yul\":15755:15897   */\n            tag_235:\n                /* \"#utility.yul\":15805:15814   */\n              0x00\n                /* \"#utility.yul\":15838:15891   */\n              tag_400\n                /* \"#utility.yul\":15856:15890   */\n              tag_401\n                /* \"#utility.yul\":15865:15889   */\n              tag_402\n                /* \"#utility.yul\":15883:15888   */\n              dup5\n                /* \"#utility.yul\":15865:15889   */\n              tag_202\n              jump\t// in\n            tag_402:\n                /* \"#utility.yul\":15856:15890   */\n              tag_234\n              jump\t// in\n            tag_401:\n                /* \"#utility.yul\":15838:15891   */\n              tag_202\n              jump\t// in\n            tag_400:\n                /* \"#utility.yul\":15825:15891   */\n              swap1\n              pop\n                /* \"#utility.yul\":15755:15897   */\n              swap2\n              swap1\n              pop\n              jump\t// out\n                /* \"#utility.yul\":15903:15978   */\n            tag_236:\n                /* \"#utility.yul\":15946:15949   */\n              0x00\n                /* \"#utility.yul\":15967:15972   */\n              dup2\n                /* \"#utility.yul\":15960:15972   */\n              swap1\n              pop\n                /* \"#utility.yul\":15903:15978   */\n              swap2\n              swap1\n              pop\n              jump\t// out\n                /* \"#utility.yul\":15984:16253   */\n            tag_237:\n                /* \"#utility.yul\":16094:16133   */\n              tag_405\n                /* \"#utility.yul\":16125:16132   */\n              dup4\n                /* \"#utility.yul\":16094:16133   */\n              tag_235\n              jump\t// in\n            tag_405:\n                /* \"#utility.yul\":16155:16246   */\n              tag_406\n                /* \"#utility.yul\":16204:16245   */\n              tag_407\n                /* \"#utility.yul\":16228:16244   */\n              dup3\n                /* \"#utility.yul\":16204:16245   */\n              tag_236\n              jump\t// in\n            tag_407:\n                /* \"#utility.yul\":16196:16202   */\n              dup5\n                /* \"#utility.yul\":16189:16193   */\n              dup5\n                /* \"#utility.yul\":16183:16194   */\n              sload\n                /* \"#utility.yul\":16155:16246   */\n              tag_233\n              jump\t// in\n            tag_406:\n                /* \"#utility.yul\":16149:16153   */\n              dup3\n                /* \"#utility.yul\":16142:16247   */\n              sstore\n                /* \"#utility.yul\":16060:16253   */\n              pop\n                /* \"#utility.yul\":15984:16253   */\n              pop\n              pop\n              pop\n              jump\t// out\n                /* \"#utility.yul\":16259:16332   */\n            tag_238:\n                /* \"#utility.yul\":16304:16307   */\n              0x00\n                /* \"#utility.yul\":16259:16332   */\n              swap1\n              jump\t// out\n                /* \"#utility.yul\":16338:16527   */\n            tag_239:\n                /* \"#utility.yul\":16415:16447   */\n              tag_410\n              tag_238\n              jump\t// in\n            tag_410:\n                /* \"#utility.yul\":16456:16521   */\n              tag_411\n                /* \"#utility.yul\":16514:16520   */\n              dup2\n                /* \"#utility.yul\":16506:16512   */\n              dup5\n                /* \"#utility.yul\":16500:16504   */\n              dup5\n                /* \"#utility.yul\":16456:16521   */\n              tag_237\n              jump\t// in\n            tag_411:\n                /* \"#utility.yul\":16391:16527   */\n              pop\n                /* \"#utility.yul\":16338:16527   */\n              pop\n              pop\n              jump\t// out\n                /* \"#utility.yul\":16533:16719   */\n            tag_240:\n                /* \"#utility.yul\":16593:16713   */\n            tag_413:\n                /* \"#utility.yul\":16610:16613   */\n              dup2\n                /* \"#utility.yul\":16603:16608   */\n              dup2\n                /* \"#utility.yul\":16600:16614   */\n              lt\n                /* \"#utility.yul\":16593:16713   */\n              iszero\n              tag_415\n              jumpi\n                /* \"#utility.yul\":16664:16703   */\n              tag_416\n                /* \"#utility.yul\":16701:16702   */\n              0x00\n                /* \"#utility.yul\":16694:16699   */\n              dup3\n                /* \"#utility.yul\":16664:16703   */\n              tag_239\n              jump\t// in\n            tag_416:\n                /* \"#utility.yul\":16637:16638   */\n              0x01\n                /* \"#utility.yul\":16630:16635   */\n              dup2\n                /* \"#utility.yul\":16626:16639   */\n              add\n                /* \"#utility.yul\":16617:16639   */\n              swap1\n              pop\n                /* \"#utility.yul\":16593:16713   */\n              jump(tag_413)\n            tag_415:\n                /* \"#utility.yul\":16533:16719   */\n              pop\n              pop\n              jump\t// out\n                /* \"#utility.yul\":16725:17268   */\n            tag_241:\n                /* \"#utility.yul\":16826:16828   */\n              0x1f\n                /* \"#utility.yul\":16821:16824   */\n              dup3\n                /* \"#utility.yul\":16818:16829   */\n              gt\n                /* \"#utility.yul\":16815:17261   */\n              iszero\n              tag_418\n              jumpi\n                /* \"#utility.yul\":16860:16898   */\n              tag_419\n                /* \"#utility.yul\":16892:16897   */\n              dup2\n                /* \"#utility.yul\":16860:16898   */\n              tag_230\n              jump\t// in\n            tag_419:\n                /* \"#utility.yul\":16944:16973   */\n              tag_420\n                /* \"#utility.yul\":16962:16972   */\n              dup5\n                /* \"#utility.yul\":16944:16973   */\n              tag_231\n              jump\t// in\n            tag_420:\n                /* \"#utility.yul\":16934:16942   */\n              dup2\n                /* \"#utility.yul\":16930:16974   */\n              add\n                /* \"#utility.yul\":17127:17129   */\n              0x20\n                /* \"#utility.yul\":17115:17125   */\n              dup6\n                /* \"#utility.yul\":17112:17130   */\n              lt\n                /* \"#utility.yul\":17109:17158   */\n              iszero\n              tag_421\n              jumpi\n                /* \"#utility.yul\":17148:17156   */\n              dup2\n                /* \"#utility.yul\":17133:17156   */\n              swap1\n              pop\n                /* \"#utility.yul\":17109:17158   */\n            tag_421:\n                /* \"#utility.yul\":17171:17251   */\n              tag_422\n                /* \"#utility.yul\":17227:17249   */\n              tag_423\n                /* \"#utility.yul\":17245:17248   */\n              dup6\n                /* \"#utility.yul\":17227:17249   */\n              tag_231\n              jump\t// in\n            tag_423:\n                /* \"#utility.yul\":17217:17225   */\n              dup4\n                /* \"#utility.yul\":17213:17250   */\n              add\n                /* \"#utility.yul\":17200:17211   */\n              dup3\n                /* \"#utility.yul\":17171:17251   */\n              tag_240\n              jump\t// in\n            tag_422:\n                /* \"#utility.yul\":16830:17261   */\n              pop\n              pop\n                /* \"#utility.yul\":16815:17261   */\n            tag_418:\n                /* \"#utility.yul\":16725:17268   */\n              pop\n              pop\n              pop\n              jump\t// out\n                /* \"#utility.yul\":17274:17391   */\n            tag_242:\n                /* \"#utility.yul\":17328:17336   */\n              0x00\n                /* \"#utility.yul\":17378:17383   */\n              dup3\n                /* \"#utility.yul\":17372:17376   */\n              dup3\n                /* \"#utility.yul\":17368:17384   */\n              shr\n                /* \"#utility.yul\":17347:17384   */\n              swap1\n              pop\n                /* \"#utility.yul\":17274:17391   */\n              swap3\n              swap2\n              pop\n              pop\n              jump\t// out\n                /* \"#utility.yul\":17397:17566   */\n            tag_243:\n                /* \"#utility.yul\":17441:17447   */\n              0x00\n                /* \"#utility.yul\":17474:17525   */\n              tag_426\n                /* \"#utility.yul\":17522:17523   */\n              0x00\n                /* \"#utility.yul\":17518:17524   */\n              not\n                /* \"#utility.yul\":17510:17515   */\n              dup5\n                /* \"#utility.yul\":17507:17508   */\n              0x08\n                /* \"#utility.yul\":17503:17516   */\n              mul\n                /* \"#utility.yul\":17474:17525   */\n              tag_242\n              jump\t// in\n            tag_426:\n                /* \"#utility.yul\":17470:17526   */\n              not\n                /* \"#utility.yul\":17555:17559   */\n              dup1\n                /* \"#utility.yul\":17549:17553   */\n              dup4\n                /* \"#utility.yul\":17545:17560   */\n              and\n                /* \"#utility.yul\":17535:17560   */\n              swap2\n              pop\n                /* \"#utility.yul\":17448:17566   */\n              pop\n                /* \"#utility.yul\":17397:17566   */\n              swap3\n              swap2\n              pop\n              pop\n              jump\t// out\n                /* \"#utility.yul\":17571:17866   */\n            tag_244:\n                /* \"#utility.yul\":17647:17651   */\n              0x00\n                /* \"#utility.yul\":17793:17822   */\n              tag_428\n                /* \"#utility.yul\":17818:17821   */\n              dup4\n                /* \"#utility.yul\":17812:17816   */\n              dup4\n                /* \"#utility.yul\":17793:17822   */\n              tag_243\n              jump\t// in\n            tag_428:\n                /* \"#utility.yul\":17785:17822   */\n              swap2\n              pop\n                /* \"#utility.yul\":17855:17858   */\n              dup3\n                /* \"#utility.yul\":17852:17853   */\n              0x02\n                /* \"#utility.yul\":17848:17859   */\n              mul\n                /* \"#utility.yul\":17842:17846   */\n              dup3\n                /* \"#utility.yul\":17839:17860   */\n              or\n                /* \"#utility.yul\":17831:17860   */\n              swap1\n              pop\n                /* \"#utility.yul\":17571:17866   */\n              swap3\n              swap2\n              pop\n              pop\n              jump\t// out\n                /* \"#utility.yul\":17871:19266   */\n            tag_100:\n                /* \"#utility.yul\":17988:18025   */\n              tag_430\n                /* \"#utility.yul\":18021:18024   */\n              dup3\n                /* \"#utility.yul\":17988:18025   */\n              tag_185\n              jump\t// in\n            tag_430:\n                /* \"#utility.yul\":18090:18108   */\n              0xffffffffffffffff\n                /* \"#utility.yul\":18082:18088   */\n              dup2\n                /* \"#utility.yul\":18079:18109   */\n              gt\n                /* \"#utility.yul\":18076:18132   */\n              iszero\n              tag_431\n              jumpi\n                /* \"#utility.yul\":18112:18130   */\n              tag_432\n              tag_195\n              jump\t// in\n            tag_432:\n                /* \"#utility.yul\":18076:18132   */\n            tag_431:\n                /* \"#utility.yul\":18156:18194   */\n              tag_433\n                /* \"#utility.yul\":18188:18192   */\n              dup3\n                /* \"#utility.yul\":18182:18193   */\n              sload\n                /* \"#utility.yul\":18156:18194   */\n              tag_87\n              jump\t// in\n            tag_433:\n                /* \"#utility.yul\":18241:18308   */\n              tag_434\n                /* \"#utility.yul\":18301:18307   */\n              dup3\n                /* \"#utility.yul\":18293:18299   */\n              dup3\n                /* \"#utility.yul\":18287:18291   */\n              dup6\n                /* \"#utility.yul\":18241:18308   */\n              tag_241\n              jump\t// in\n            tag_434:\n                /* \"#utility.yul\":18335:18336   */\n              0x00\n                /* \"#utility.yul\":18359:18363   */\n              0x20\n                /* \"#utility.yul\":18346:18363   */\n              swap1\n              pop\n                /* \"#utility.yul\":18391:18393   */\n              0x1f\n                /* \"#utility.yul\":18383:18389   */\n              dup4\n                /* \"#utility.yul\":18380:18394   */\n              gt\n                /* \"#utility.yul\":18408:18409   */\n              0x01\n                /* \"#utility.yul\":18403:19021   */\n              dup2\n              eq\n              tag_436\n              jumpi\n                /* \"#utility.yul\":19065:19066   */\n              0x00\n                /* \"#utility.yul\":19082:19088   */\n              dup5\n                /* \"#utility.yul\":19079:19156   */\n              iszero\n              tag_437\n              jumpi\n                /* \"#utility.yul\":19131:19140   */\n              dup3\n                /* \"#utility.yul\":19126:19129   */\n              dup8\n                /* \"#utility.yul\":19122:19141   */\n              add\n                /* \"#utility.yul\":19116:19142   */\n              mload\n                /* \"#utility.yul\":19107:19142   */\n              swap1\n              pop\n                /* \"#utility.yul\":19079:19156   */\n            tag_437:\n                /* \"#utility.yul\":19182:19249   */\n              tag_438\n                /* \"#utility.yul\":19242:19248   */\n              dup6\n                /* \"#utility.yul\":19235:19240   */\n              dup3\n                /* \"#utility.yul\":19182:19249   */\n              tag_244\n              jump\t// in\n            tag_438:\n                /* \"#utility.yul\":19176:19180   */\n              dup7\n                /* \"#utility.yul\":19169:19250   */\n              sstore\n                /* \"#utility.yul\":19038:19260   */\n              pop\n                /* \"#utility.yul\":18373:19260   */\n              jump(tag_435)\n                /* \"#utility.yul\":18403:19021   */\n            tag_436:\n                /* \"#utility.yul\":18455:18459   */\n              0x1f\n                /* \"#utility.yul\":18451:18460   */\n              not\n                /* \"#utility.yul\":18443:18449   */\n              dup5\n                /* \"#utility.yul\":18439:18461   */\n              and\n                /* \"#utility.yul\":18489:18526   */\n              tag_439\n                /* \"#utility.yul\":18521:18525   */\n              dup7\n                /* \"#utility.yul\":18489:18526   */\n              tag_230\n              jump\t// in\n            tag_439:\n                /* \"#utility.yul\":18548:18549   */\n              0x00\n                /* \"#utility.yul\":18562:18770   */\n            tag_440:\n                /* \"#utility.yul\":18576:18583   */\n              dup3\n                /* \"#utility.yul\":18573:18574   */\n              dup2\n                /* \"#utility.yul\":18570:18584   */\n              lt\n                /* \"#utility.yul\":18562:18770   */\n              iszero\n              tag_442\n              jumpi\n                /* \"#utility.yul\":18655:18664   */\n              dup5\n                /* \"#utility.yul\":18650:18653   */\n              dup10\n                /* \"#utility.yul\":18646:18665   */\n              add\n                /* \"#utility.yul\":18640:18666   */\n              mload\n                /* \"#utility.yul\":18632:18638   */\n              dup3\n                /* \"#utility.yul\":18625:18667   */\n              sstore\n                /* \"#utility.yul\":18706:18707   */\n              0x01\n                /* \"#utility.yul\":18698:18704   */\n              dup3\n                /* \"#utility.yul\":18694:18708   */\n              add\n                /* \"#utility.yul\":18684:18708   */\n              swap2\n              pop\n                /* \"#utility.yul\":18753:18755   */\n              0x20\n                /* \"#utility.yul\":18742:18751   */\n              dup6\n                /* \"#utility.yul\":18738:18756   */\n              add\n                /* \"#utility.yul\":18725:18756   */\n              swap5\n              pop\n                /* \"#utility.yul\":18599:18603   */\n              0x20\n                /* \"#utility.yul\":18596:18597   */\n              dup2\n                /* \"#utility.yul\":18592:18604   */\n              add\n                /* \"#utility.yul\":18587:18604   */\n              swap1\n              pop\n                /* \"#utility.yul\":18562:18770   */\n              jump(tag_440)\n            tag_442:\n                /* \"#utility.yul\":18798:18804   */\n              dup7\n                /* \"#utility.yul\":18789:18796   */\n              dup4\n                /* \"#utility.yul\":18786:18805   */\n              lt\n                /* \"#utility.yul\":18783:18962   */\n              iszero\n              tag_443\n              jumpi\n                /* \"#utility.yul\":18856:18865   */\n              dup5\n                /* \"#utility.yul\":18851:18854   */\n              dup10\n                /* \"#utility.yul\":18847:18866   */\n              add\n                /* \"#utility.yul\":18841:18867   */\n              mload\n                /* \"#utility.yul\":18899:18947   */\n              tag_444\n                /* \"#utility.yul\":18941:18945   */\n              0x1f\n                /* \"#utility.yul\":18933:18939   */\n              dup10\n                /* \"#utility.yul\":18929:18946   */\n              and\n                /* \"#utility.yul\":18918:18927   */\n              dup3\n                /* \"#utility.yul\":18899:18947   */\n              tag_243\n              jump\t// in\n            tag_444:\n                /* \"#utility.yul\":18891:18897   */\n              dup4\n                /* \"#utility.yul\":18884:18948   */\n              sstore\n                /* \"#utility.yul\":18806:18962   */\n              pop\n                /* \"#utility.yul\":18783:18962   */\n            tag_443:\n                /* \"#utility.yul\":19008:19009   */\n              0x01\n                /* \"#utility.yul\":19004:19005   */\n              0x02\n                /* \"#utility.yul\":18996:19002   */\n              dup9\n                /* \"#utility.yul\":18992:19006   */\n              mul\n                /* \"#utility.yul\":18988:19010   */\n              add\n                /* \"#utility.yul\":18982:18986   */\n              dup9\n                /* \"#utility.yul\":18975:19011   */\n              sstore\n                /* \"#utility.yul\":18410:19021   */\n              pop\n              pop\n              pop\n                /* \"#utility.yul\":18373:19260   */\n            tag_435:\n              pop\n                /* \"#utility.yul\":17963:19266   */\n              pop\n              pop\n              pop\n                /* \"#utility.yul\":17871:19266   */\n              pop\n              pop\n              jump\t// out\n\n            auxdata: 0xa2646970667358221220d812c5356ca1074db3ca99c94465e96a782267b1176add27e66c8f979ad1769364736f6c634300080f0033\n        }\n    }\n\n    auxdata: 0xa2646970667358221220254e030f4917f4d48d1552592ff3bab70cd3e242303fee59c7ff6070cf8f105a64736f6c634300080f0033\n}\n","bytecode":{"linkReferences":{},"object":"608060405234801561001057600080fd5b50612f3c806100206000396000f3fe608060405260043610620000385760003560e01c80633f90b454146200003d578063779900b41462000081578063d01d476414620000b1575b600080fd5b3480156200004a57600080fd5b50620000696004803603810190620000639190620002d6565b620000e7565b6040516200007891906200034d565b60405180910390f35b3480156200008e57600080fd5b506200009962000127565b604051620000a8919062000438565b60405180910390f35b620000cf6004803603810190620000c99190620006ba565b620001b7565b604051620000de91906200034d565b60405180910390f35b60008181548110620000f857600080fd5b906000526020600020016000915054906101000a900473ffffffffffffffffffffffffffffffffffffffff1681565b60606000805480602002602001604051908101604052809291908181526020018280548015620001ad57602002820191906000526020600020905b8160009054906101000a900473ffffffffffffffffffffffffffffffffffffffff1673ffffffffffffffffffffffffffffffffffffffff168152602001906001019080831162000162575b5050505050905090565b6000803487878787873342604051620001d09062000279565b620001e29796959493929190620009a3565b6040518091039082f090508015801562000200573d6000803e3d6000fd5b50905060008190506000819080600181540180825580915050600190039060005260206000200160009091909190916101000a81548173ffffffffffffffffffffffffffffffffffffffff021916908373ffffffffffffffffffffffffffffffffffffffff160217905550809250505095945050505050565b6124c38062000a4483390190565b6000604051905090565b600080fd5b600080fd5b6000819050919050565b620002b0816200029b565b8114620002bc57600080fd5b50565b600081359050620002d081620002a5565b92915050565b600060208284031215620002ef57620002ee62000291565b5b6000620002ff84828501620002bf565b91505092915050565b600073ffffffffffffffffffffffffffffffffffffffff82169050919050565b6000620003358262000308565b9050919050565b620003478162000328565b82525050565b60006020820190506200036460008301846200033c565b92915050565b600081519050919050565b600082825260208201905092915050565b6000819050602082019050919050565b620003a18162000328565b82525050565b6000620003b5838362000396565b60208301905092915050565b6000602082019050919050565b6000620003db826200036a565b620003e7818562000375565b9350620003f48362000386565b8060005b838110156200042b5781516200040f8882620003a7565b97506200041c83620003c1565b925050600181019050620003f8565b5085935050505092915050565b60006020820190508181036000830152620004548184620003ce565b905092915050565b600080fd5b600080fd5b6000601f19601f8301169050919050565b7f4e487b7100000000000000000000000000000000000000000000000000000000600052604160045260246000fd5b620004b18262000466565b810181811067ffffffffffffffff82111715620004d357620004d262000477565b5b80604052505050565b6000620004e862000287565b9050620004f68282620004a6565b919050565b600067ffffffffffffffff82111562000519576200051862000477565b5b620005248262000466565b9050602081019050919050565b82818337600083830152505050565b6000620005576200055184620004fb565b620004dc565b90508281526020810184848401111562000576576200057562000461565b5b6200058384828562000531565b509392505050565b600082601f830112620005a357620005a26200045c565b5b8135620005b584826020860162000540565b91505092915050565b600067ffffffffffffffff821115620005dc57620005db62000477565b5b602082029050602081019050919050565b600080fd5b6000620006096200060384620005be565b620004dc565b905080838252602082019050602084028301858111156200062f576200062e620005ed565b5b835b818110156200067d57803567ffffffffffffffff8111156200065857620006576200045c565b5b8086016200066789826200058b565b8552602085019450505060208101905062000631565b5050509392505050565b600082601f8301126200069f576200069e6200045c565b5b8135620006b1848260208601620005f2565b91505092915050565b600080600080600060a08688031215620006d957620006d862000291565b5b600086013567ffffffffffffffff811115620006fa57620006f962000296565b5b62000708888289016200058b565b955050602086013567ffffffffffffffff8111156200072c576200072b62000296565b5b6200073a888289016200058b565b945050604086013567ffffffffffffffff8111156200075e576200075d62000296565b5b6200076c888289016200058b565b935050606086013567ffffffffffffffff81111562000790576200078f62000296565b5b6200079e8882890162000687565b925050608086013567ffffffffffffffff811115620007c257620007c162000296565b5b620007d08882890162000687565b9150509295509295909350565b600081519050919050565b600082825260208201905092915050565b60005b8381101562000819578082015181840152602081019050620007fc565b8381111562000829576000848401525b50505050565b60006200083c82620007dd565b620008488185620007e8565b93506200085a818560208601620007f9565b620008658162000466565b840191505092915050565b600081519050919050565b600082825260208201905092915050565b6000819050602082019050919050565b600082825260208201905092915050565b6000620008ba82620007dd565b620008c681856200089c565b9350620008d8818560208601620007f9565b620008e38162000466565b840191505092915050565b6000620008fc8383620008ad565b905092915050565b6000602082019050919050565b60006200091e8262000870565b6200092a81856200087b565b9350836020820285016200093e856200088c565b8060005b858110156200098057848403895281516200095e8582620008ee565b94506200096b8362000904565b925060208a0199505060018101905062000942565b50829750879550505050505092915050565b6200099d816200029b565b82525050565b600060e0820190508181036000830152620009bf818a6200082f565b90508181036020830152620009d581896200082f565b90508181036040830152620009eb81886200082f565b9050818103606083015262000a01818762000911565b9050818103608083015262000a17818662000911565b905062000a2860a08301856200033c565b62000a3760c083018462000992565b9897505050505050505056fe6080604052604051620024c3380380620024c3833981810160405281019062000029919062000526565b816000806101000a81548173ffffffffffffffffffffffffffffffffffffffff021916908373ffffffffffffffffffffffffffffffffffffffff16021790555084600190816200007a9190620008b5565b5086600290816200008c9190620008b5565b508360039080519060200190620000a592919062000100565b508560049081620000b79190620008b5565b508260059080519060200190620000d092919062000100565b506000600660146101000a81548160ff02191690831515021790555080600981905550505050505050506200099c565b8280548282559060005260206000209081019282156200014d579160200282015b828111156200014c5782518290816200013b9190620008b5565b509160200191906001019062000121565b5b5090506200015c919062000160565b5090565b5b808211156200018457600081816200017a919062000188565b5060010162000161565b5090565b5080546200019690620006ae565b6000825580601f10620001aa5750620001cb565b601f016020900490600052602060002090810190620001ca9190620001ce565b5b50565b5b80821115620001e9576000816000905550600101620001cf565b5090565b6000604051905090565b600080fd5b600080fd5b600080fd5b600080fd5b6000601f19601f8301169050919050565b7f4e487b7100000000000000000000000000000000000000000000000000000000600052604160045260246000fd5b62000256826200020b565b810181811067ffffffffffffffff821117156200027857620002776200021c565b5b80604052505050565b60006200028d620001ed565b90506200029b82826200024b565b919050565b600067ffffffffffffffff821115620002be57620002bd6200021c565b5b620002c9826200020b565b9050602081019050919050565b60005b83811015620002f6578082015181840152602081019050620002d9565b8381111562000306576000848401525b50505050565b6000620003236200031d84620002a0565b62000281565b90508281526020810184848401111562000342576200034162000206565b5b6200034f848285620002d6565b509392505050565b600082601f8301126200036f576200036e62000201565b5b8151620003818482602086016200030c565b91505092915050565b600067ffffffffffffffff821115620003a857620003a76200021c565b5b602082029050602081019050919050565b600080fd5b6000620003d5620003cf846200038a565b62000281565b90508083825260208201905060208402830185811115620003fb57620003fa620003b9565b5b835b818110156200044957805167ffffffffffffffff81111562000424576200042362000201565b5b80860162000433898262000357565b85526020850194505050602081019050620003fd565b5050509392505050565b600082601f8301126200046b576200046a62000201565b5b81516200047d848260208601620003be565b91505092915050565b600073ffffffffffffffffffffffffffffffffffffffff82169050919050565b6000620004b38262000486565b9050919050565b620004c581620004a6565b8114620004d157600080fd5b50565b600081519050620004e581620004ba565b92915050565b6000819050919050565b6200050081620004eb565b81146200050c57600080fd5b50565b6000815190506200052081620004f5565b92915050565b600080600080600080600060e0888a031215620005485762000547620001f7565b5b600088015167ffffffffffffffff811115620005695762000568620001fc565b5b620005778a828b0162000357565b975050602088015167ffffffffffffffff8111156200059b576200059a620001fc565b5b620005a98a828b0162000357565b965050604088015167ffffffffffffffff811115620005cd57620005cc620001fc565b5b620005db8a828b0162000357565b955050606088015167ffffffffffffffff811115620005ff57620005fe620001fc565b5b6200060d8a828b0162000453565b945050608088015167ffffffffffffffff811115620006315762000630620001fc565b5b6200063f8a828b0162000453565b93505060a0620006528a828b01620004d4565b92505060c0620006658a828b016200050f565b91505092959891949750929550565b600081519050919050565b7f4e487b7100000000000000000000000000000000000000000000000000000000600052602260045260246000fd5b60006002820490506001821680620006c757607f821691505b602082108103620006dd57620006dc6200067f565b5b50919050565b60008190508160005260206000209050919050565b60006020601f8301049050919050565b600082821b905092915050565b600060088302620007477fffffffffffffffffffffffffffffffffffffffffffffffffffffffffffffffff8262000708565b62000753868362000708565b95508019841693508086168417925050509392505050565b6000819050919050565b600062000796620007906200078a84620004eb565b6200076b565b620004eb565b9050919050565b6000819050919050565b620007b28362000775565b620007ca620007c1826200079d565b84845462000715565b825550505050565b600090565b620007e1620007d2565b620007ee818484620007a7565b505050565b5b8181101562000816576200080a600082620007d7565b600181019050620007f4565b5050565b601f82111562000865576200082f81620006e3565b6200083a84620006f8565b810160208510156200084a578190505b620008626200085985620006f8565b830182620007f3565b50505b505050565b600082821c905092915050565b60006200088a600019846008026200086a565b1980831691505092915050565b6000620008a5838362000877565b9150826002028217905092915050565b620008c08262000674565b67ffffffffffffffff811115620008dc57620008db6200021c565b5b620008e88254620006ae565b620008f58282856200081a565b600060209050601f8311600181146200092d576000841562000918578287015190505b62000924858262000897565b86555062000994565b601f1984166200093d86620006e3565b60005b82811015620009675784890151825560018201915060208501945060208101905062000940565b8683101562000987578489015162000983601f89168262000877565b8355505b6001600288020188555050505b505050505050565b611b1780620009ac6000396000f3fe608060405234801561001057600080fd5b506004361061010a5760003560e01c80635f51c765116100a25780639e98c6aa116100715780639e98c6aa146102b2578063a20fca5a146102d0578063dea4e339146102da578063fa391c64146102f8578063fbc03a1e146103165761010a565b80635f51c76514610204578063710963871461022057806374adad1d146102505780637b8d558b146102825761010a565b8063481c6a75116100de578063481c6a75146101835780634d547ada146101a15780635a9b0b89146101bf5780635e1c7322146101e65761010a565b80621aea771461010f578063231e407a1461012d57806331c3a6f51461013757806343a7e9b914610153575b600080fd5b610117610334565b60405161012491906111d5565b60405180910390f35b6101356103c2565b005b610151600480360381019061014c9190611340565b6104de565b005b61016d600480360381019061016891906113bf565b610637565b60405161017a919061142d565b60405180910390f35b61018b610676565b604051610198919061142d565b60405180910390f35b6101a961069a565b6040516101b6919061142d565b60405180910390f35b6101c76106c0565b6040516101dd9a9998979695949392919061163c565b60405180910390f35b6101ee610b24565b6040516101fb9190611702565b60405180910390f35b61021e60048036038101906102199190611762565b610bfd565b005b61023a600480360381019061023591906113bf565b610cf2565b60405161024791906111d5565b60405180910390f35b61026a60048036038101906102659190611762565b610d9e565b6040516102799392919061178f565b60405180910390f35b61029c600480360381019061029791906113bf565b610e7d565b6040516102a991906111d5565b60405180910390f35b6102ba610f29565b6040516102c791906117cd565b60405180910390f35b6102d8610f2f565b005b6102e261100d565b6040516102ef91906111d5565b60405180910390f35b61030061109b565b60405161030d91906117e8565b60405180910390f35b61031e6110ae565b60405161032b91906111d5565b60405180910390f35b6002805461034190611832565b80601f016020809104026020016040519081016040528092919081815260200182805461036d90611832565b80156103ba5780601f1061038f576101008083540402835291602001916103ba565b820191906000526020600020905b81548152906001019060200180831161039d57829003601f168201915b505050505081565b60008054906101000a900473ffffffffffffffffffffffffffffffffffffffff1673ffffffffffffffffffffffffffffffffffffffff163373ffffffffffffffffffffffffffffffffffffffff161461041a57600080fd5b600073ffffffffffffffffffffffffffffffffffffffff16600660009054906101000a900473ffffffffffffffffffffffffffffffffffffffff1673ffffffffffffffffffffffffffffffffffffffff161461047557600080fd5b60008054906101000a900473ffffffffffffffffffffffffffffffffffffffff1673ffffffffffffffffffffffffffffffffffffffff166108fc479081150290604051600060405180830381858888f193505050501580156104db573d6000803e3d6000fd5b50565b60405180606001604052808281526020013373ffffffffffffffffffffffffffffffffffffffff16815260200160011515815250600760003373ffffffffffffffffffffffffffffffffffffffff1673ffffffffffffffffffffffffffffffffffffffff16815260200190815260200160002060008201518160000190816105669190611a0f565b5060208201518160010160006101000a81548173ffffffffffffffffffffffffffffffffffffffff021916908373ffffffffffffffffffffffffffffffffffffffff16021790555060408201518160010160146101000a81548160ff0219169083151502179055509050506008339080600181540180825580915050600190039060005260206000200160009091909190916101000a81548173ffffffffffffffffffffffffffffffffffffffff021916908373ffffffffffffffffffffffffffffffffffffffff16021790555050565b6008818154811061064757600080fd5b906000526020600020016000915054906101000a900473ffffffffffffffffffffffffffffffffffffffff1681565b60008054906101000a900473ffffffffffffffffffffffffffffffffffffffff1681565b600660009054906101000a900473ffffffffffffffffffffffffffffffffffffffff1681565b600060608060608060008060606000606060008054906101000a900473ffffffffffffffffffffffffffffffffffffffff166002600360046001600660009054906101000a900473ffffffffffffffffffffffffffffffffffffffff16600660149054906101000a900460ff16600847600588805461073e90611832565b80601f016020809104026020016040519081016040528092919081815260200182805461076a90611832565b80156107b75780601f1061078c576101008083540402835291602001916107b7565b820191906000526020600020905b81548152906001019060200180831161079a57829003601f168201915b5050505050985087805480602002602001604051908101604052809291908181526020016000905b8282101561088b5783829060005260206000200180546107fe90611832565b80601f016020809104026020016040519081016040528092919081815260200182805461082a90611832565b80156108775780601f1061084c57610100808354040283529160200191610877565b820191906000526020600020905b81548152906001019060200180831161085a57829003601f168201915b5050505050815260200190600101906107df565b50505050975086805461089d90611832565b80601f01602080910402602001604051908101604052809291908181526020018280546108c990611832565b80156109165780601f106108eb57610100808354040283529160200191610916565b820191906000526020600020905b8154815290600101906020018083116108f957829003601f168201915b5050505050965085805461092990611832565b80601f016020809104026020016040519081016040528092919081815260200182805461095590611832565b80156109a25780601f10610977576101008083540402835291602001916109a2565b820191906000526020600020905b81548152906001019060200180831161098557829003601f168201915b5050505050955082805480602002602001604051908101604052809291908181526020018280548015610a2a57602002820191906000526020600020905b8160009054906101000a900473ffffffffffffffffffffffffffffffffffffffff1673ffffffffffffffffffffffffffffffffffffffff16815260200190600101908083116109e0575b5050505050925080805480602002602001604051908101604052809291908181526020016000905b82821015610afe578382906000526020600020018054610a7190611832565b80601f0160208091040260200160405190810160405280929190818152602001828054610a9d90611832565b8015610aea5780601f10610abf57610100808354040283529160200191610aea565b820191906000526020600020905b815481529060010190602001808311610acd57829003601f168201915b505050505081526020019060010190610a52565b505050509050995099509950995099509950995099509950995090919293949596979899565b60606005805480602002602001604051908101604052809291908181526020016000905b82821015610bf4578382906000526020600020018054610b6790611832565b80601f0160208091040260200160405190810160405280929190818152602001828054610b9390611832565b8015610be05780601f10610bb557610100808354040283529160200191610be0565b820191906000526020600020905b815481529060010190602001808311610bc357829003601f168201915b505050505081526020019060010190610b48565b50505050905090565b60008054906101000a900473ffffffffffffffffffffffffffffffffffffffff1673ffffffffffffffffffffffffffffffffffffffff163373ffffffffffffffffffffffffffffffffffffffff1614610c5557600080fd5b600760008273ffffffffffffffffffffffffffffffffffffffff1673ffffffffffffffffffffffffffffffffffffffff16815260200190815260200160002060010160149054906101000a900460ff16610cae57600080fd5b80600660006101000a81548173ffffffffffffffffffffffffffffffffffffffff021916908373ffffffffffffffffffffffffffffffffffffffff16021790555050565b60038181548110610d0257600080fd5b906000526020600020016000915090508054610d1d90611832565b80601f0160208091040260200160405190810160405280929190818152602001828054610d4990611832565b8015610d965780601f10610d6b57610100808354040283529160200191610d96565b820191906000526020600020905b815481529060010190602001808311610d7957829003601f168201915b505050505081565b6007602052806000526040600020600091509050806000018054610dc190611832565b80601f0160208091040260200160405190810160405280929190818152602001828054610ded90611832565b8015610e3a5780601f10610e0f57610100808354040283529160200191610e3a565b820191906000526020600020905b815481529060010190602001808311610e1d57829003601f168201915b5050505050908060010160009054906101000a900473ffffffffffffffffffffffffffffffffffffffff16908060010160149054906101000a900460ff16905083565b60058181548110610e8d57600080fd5b906000526020600020016000915090508054610ea890611832565b80601f0160208091040260200160405190810160405280929190818152602001828054610ed490611832565b8015610f215780601f10610ef657610100808354040283529160200191610f21565b820191906000526020600020905b815481529060010190602001808311610f0457829003601f168201915b505050505081565b60095481565b60008054906101000a900473ffffffffffffffffffffffffffffffffffffffff1673ffffffffffffffffffffffffffffffffffffffff163373ffffffffffffffffffffffffffffffffffffffff1614610f8757600080fd5b600660009054906101000a900473ffffffffffffffffffffffffffffffffffffffff1673ffffffffffffffffffffffffffffffffffffffff166108fc479081150290604051600060405180830381858888f19350505050158015610fef573d6000803e3d6000fd5b506001600660146101000a81548160ff021916908315150217905550565b6001805461101a90611832565b80601f016020809104026020016040519081016040528092919081815260200182805461104690611832565b80156110935780601f1061106857610100808354040283529160200191611093565b820191906000526020600020905b81548152906001019060200180831161107657829003601f168201915b505050505081565b600660149054906101000a900460ff1681565b600480546110bb90611832565b80601f01602080910402602001604051908101604052809291908181526020018280546110e790611832565b80156111345780601f1061110957610100808354040283529160200191611134565b820191906000526020600020905b81548152906001019060200180831161111757829003601f168201915b505050505081565b600081519050919050565b600082825260208201905092915050565b60005b8381101561117657808201518184015260208101905061115b565b83811115611185576000848401525b50505050565b6000601f19601f8301169050919050565b60006111a78261113c565b6111b18185611147565b93506111c1818560208601611158565b6111ca8161118b565b840191505092915050565b600060208201905081810360008301526111ef818461119c565b905092915050565b6000604051905090565b600080fd5b600080fd5b600080fd5b600080fd5b7f4e487b7100000000000000000000000000000000000000000000000000000000600052604160045260246000fd5b61124d8261118b565b810181811067ffffffffffffffff8211171561126c5761126b611215565b5b80604052505050565b600061127f6111f7565b905061128b8282611244565b919050565b600067ffffffffffffffff8211156112ab576112aa611215565b5b6112b48261118b565b9050602081019050919050565b82818337600083830152505050565b60006112e36112de84611290565b611275565b9050828152602081018484840111156112ff576112fe611210565b5b61130a8482856112c1565b509392505050565b600082601f8301126113275761132661120b565b5b81356113378482602086016112d0565b91505092915050565b60006020828403121561135657611355611201565b5b600082013567ffffffffffffffff81111561137457611373611206565b5b61138084828501611312565b91505092915050565b6000819050919050565b61139c81611389565b81146113a757600080fd5b50565b6000813590506113b981611393565b92915050565b6000602082840312156113d5576113d4611201565b5b60006113e3848285016113aa565b91505092915050565b600073ffffffffffffffffffffffffffffffffffffffff82169050919050565b6000611417826113ec565b9050919050565b6114278161140c565b82525050565b6000602082019050611442600083018461141e565b92915050565b600081519050919050565b600082825260208201905092915050565b6000819050602082019050919050565b600082825260208201905092915050565b60006114908261113c565b61149a8185611474565b93506114aa818560208601611158565b6114b38161118b565b840191505092915050565b60006114ca8383611485565b905092915050565b6000602082019050919050565b60006114ea82611448565b6114f48185611453565b93508360208202850161150685611464565b8060005b85811015611542578484038952815161152385826114be565b945061152e836114d2565b925060208a0199505060018101905061150a565b50829750879550505050505092915050565b60008115159050919050565b61156981611554565b82525050565b600081519050919050565b600082825260208201905092915050565b6000819050602082019050919050565b6115a48161140c565b82525050565b60006115b6838361159b565b60208301905092915050565b6000602082019050919050565b60006115da8261156f565b6115e4818561157a565b93506115ef8361158b565b8060005b8381101561162057815161160788826115aa565b9750611612836115c2565b9250506001810190506115f3565b5085935050505092915050565b61163681611389565b82525050565b600061014082019050611652600083018d61141e565b8181036020830152611664818c61119c565b90508181036040830152611678818b6114df565b9050818103606083015261168c818a61119c565b905081810360808301526116a0818961119c565b90506116af60a083018861141e565b6116bc60c0830187611560565b81810360e08301526116ce81866115cf565b90506116de61010083018561162d565b8181036101208301526116f181846114df565b90509b9a5050505050505050505050565b6000602082019050818103600083015261171c81846114df565b905092915050565b600061172f826113ec565b9050919050565b61173f81611724565b811461174a57600080fd5b50565b60008135905061175c81611736565b92915050565b60006020828403121561177857611777611201565b5b60006117868482850161174d565b91505092915050565b600060608201905081810360008301526117a9818661119c565b90506117b8602083018561141e565b6117c56040830184611560565b949350505050565b60006020820190506117e2600083018461162d565b92915050565b60006020820190506117fd6000830184611560565b92915050565b7f4e487b7100000000000000000000000000000000000000000000000000000000600052602260045260246000fd5b6000600282049050600182168061184a57607f821691505b60208210810361185d5761185c611803565b5b50919050565b60008190508160005260206000209050919050565b60006020601f8301049050919050565b600082821b905092915050565b6000600883026118c57fffffffffffffffffffffffffffffffffffffffffffffffffffffffffffffffff82611888565b6118cf8683611888565b95508019841693508086168417925050509392505050565b6000819050919050565b600061190c61190761190284611389565b6118e7565b611389565b9050919050565b6000819050919050565b611926836118f1565b61193a61193282611913565b848454611895565b825550505050565b600090565b61194f611942565b61195a81848461191d565b505050565b5b8181101561197e57611973600082611947565b600181019050611960565b5050565b601f8211156119c35761199481611863565b61199d84611878565b810160208510156119ac578190505b6119c06119b885611878565b83018261195f565b50505b505050565b600082821c905092915050565b60006119e6600019846008026119c8565b1980831691505092915050565b60006119ff83836119d5565b9150826002028217905092915050565b611a188261113c565b67ffffffffffffffff811115611a3157611a30611215565b5b611a3b8254611832565b611a46828285611982565b600060209050601f831160018114611a795760008415611a67578287015190505b611a7185826119f3565b865550611ad9565b601f198416611a8786611863565b60005b82811015611aaf57848901518255600182019150602085019450602081019050611a8a565b86831015611acc5784890151611ac8601f8916826119d5565b8355505b6001600288020188555050505b50505050505056fea2646970667358221220d812c5356ca1074db3ca99c94465e96a782267b1176add27e66c8f979ad1769364736f6c634300080f0033a2646970667358221220254e030f4917f4d48d1552592ff3bab70cd3e242303fee59c7ff6070cf8f105a64736f6c634300080f0033","opcodes":"PUSH1 0x80 PUSH1 0x40 MSTORE CALLVALUE DUP1 ISZERO PUSH2 0x10 JUMPI PUSH1 0x0 DUP1 REVERT JUMPDEST POP PUSH2 0x2F3C DUP1 PUSH2 0x20 PUSH1 0x0 CODECOPY PUSH1 0x0 RETURN INVALID PUSH1 0x80 PUSH1 0x40 MSTORE PUSH1 0x4 CALLDATASIZE LT PUSH3 0x38 JUMPI PUSH1 0x0 CALLDATALOAD PUSH1 0xE0 SHR DUP1 PUSH4 0x3F90B454 EQ PUSH3 0x3D JUMPI DUP1 PUSH4 0x779900B4 EQ PUSH3 0x81 JUMPI DUP1 PUSH4 0xD01D4764 EQ PUSH3 0xB1 JUMPI JUMPDEST PUSH1 0x0 DUP1 REVERT JUMPDEST CALLVALUE DUP1 ISZERO PUSH3 0x4A JUMPI PUSH1 0x0 DUP1 REVERT JUMPDEST POP PUSH3 0x69 PUSH1 0x4 DUP1 CALLDATASIZE SUB DUP2 ADD SWAP1 PUSH3 0x63 SWAP2 SWAP1 PUSH3 0x2D6 JUMP JUMPDEST PUSH3 0xE7 JUMP JUMPDEST PUSH1 0x40 MLOAD PUSH3 0x78 SWAP2 SWAP1 PUSH3 0x34D JUMP JUMPDEST PUSH1 0x40 MLOAD DUP1 SWAP2 SUB SWAP1 RETURN JUMPDEST CALLVALUE DUP1 ISZERO PUSH3 0x8E JUMPI PUSH1 0x0 DUP1 REVERT JUMPDEST POP PUSH3 0x99 PUSH3 0x127 JUMP JUMPDEST PUSH1 0x40 MLOAD PUSH3 0xA8 SWAP2 SWAP1 PUSH3 0x438 JUMP JUMPDEST PUSH1 0x40 MLOAD DUP1 SWAP2 SUB SWAP1 RETURN JUMPDEST PUSH3 0xCF PUSH1 0x4 DUP1 CALLDATASIZE SUB DUP2 ADD SWAP1 PUSH3 0xC9 SWAP2 SWAP1 PUSH3 0x6BA JUMP JUMPDEST PUSH3 0x1B7 JUMP JUMPDEST PUSH1 0x40 MLOAD PUSH3 0xDE SWAP2 SWAP1 PUSH3 0x34D JUMP JUMPDEST PUSH1 0x40 MLOAD DUP1 SWAP2 SUB SWAP1 RETURN JUMPDEST PUSH1 0x0 DUP2 DUP2 SLOAD DUP2 LT PUSH3 0xF8 JUMPI PUSH1 0x0 DUP1 REVERT JUMPDEST SWAP1 PUSH1 0x0 MSTORE PUSH1 0x20 PUSH1 0x0 KECCAK256 ADD PUSH1 0x0 SWAP2 POP SLOAD SWAP1 PUSH2 0x100 EXP SWAP1 DIV PUSH20 0xFFFFFFFFFFFFFFFFFFFFFFFFFFFFFFFFFFFFFFFF AND DUP2 JUMP JUMPDEST PUSH1 0x60 PUSH1 0x0 DUP1 SLOAD DUP1 PUSH1 0x20 MUL PUSH1 0x20 ADD PUSH1 0x40 MLOAD SWAP1 DUP2 ADD PUSH1 0x40 MSTORE DUP1 SWAP3 SWAP2 SWAP1 DUP2 DUP2 MSTORE PUSH1 0x20 ADD DUP3 DUP1 SLOAD DUP1 ISZERO PUSH3 0x1AD JUMPI PUSH1 0x20 MUL DUP3 ADD SWAP2 SWAP1 PUSH1 0x0 MSTORE PUSH1 0x20 PUSH1 0x0 KECCAK256 SWAP1 JUMPDEST DUP2 PUSH1 0x0 SWAP1 SLOAD SWAP1 PUSH2 0x100 EXP SWAP1 DIV PUSH20 0xFFFFFFFFFFFFFFFFFFFFFFFFFFFFFFFFFFFFFFFF AND PUSH20 0xFFFFFFFFFFFFFFFFFFFFFFFFFFFFFFFFFFFFFFFF AND DUP2 MSTORE PUSH1 0x20 ADD SWAP1 PUSH1 0x1 ADD SWAP1 DUP1 DUP4 GT PUSH3 0x162 JUMPI JUMPDEST POP POP POP POP POP SWAP1 POP SWAP1 JUMP JUMPDEST PUSH1 0x0 DUP1 CALLVALUE DUP8 DUP8 DUP8 DUP8 DUP8 CALLER TIMESTAMP PUSH1 0x40 MLOAD PUSH3 0x1D0 SWAP1 PUSH3 0x279 JUMP JUMPDEST PUSH3 0x1E2 SWAP8 SWAP7 SWAP6 SWAP5 SWAP4 SWAP3 SWAP2 SWAP1 PUSH3 0x9A3 JUMP JUMPDEST PUSH1 0x40 MLOAD DUP1 SWAP2 SUB SWAP1 DUP3 CREATE SWAP1 POP DUP1 ISZERO DUP1 ISZERO PUSH3 0x200 JUMPI RETURNDATASIZE PUSH1 0x0 DUP1 RETURNDATACOPY RETURNDATASIZE PUSH1 0x0 REVERT JUMPDEST POP SWAP1 POP PUSH1 0x0 DUP2 SWAP1 POP PUSH1 0x0 DUP2 SWAP1 DUP1 PUSH1 0x1 DUP2 SLOAD ADD DUP1 DUP3 SSTORE DUP1 SWAP2 POP POP PUSH1 0x1 SWAP1 SUB SWAP1 PUSH1 0x0 MSTORE PUSH1 0x20 PUSH1 0x0 KECCAK256 ADD PUSH1 0x0 SWAP1 SWAP2 SWAP1 SWAP2 SWAP1 SWAP2 PUSH2 0x100 EXP DUP2 SLOAD DUP2 PUSH20 0xFFFFFFFFFFFFFFFFFFFFFFFFFFFFFFFFFFFFFFFF MUL NOT AND SWAP1 DUP4 PUSH20 0xFFFFFFFFFFFFFFFFFFFFFFFFFFFFFFFFFFFFFFFF AND MUL OR SWAP1 SSTORE POP DUP1 SWAP3 POP POP POP SWAP6 SWAP5 POP POP POP POP POP JUMP JUMPDEST PUSH2 0x24C3 DUP1 PUSH3 0xA44 DUP4 CODECOPY ADD SWAP1 JUMP JUMPDEST PUSH1 0x0 PUSH1 0x40 MLOAD SWAP1 POP SWAP1 JUMP JUMPDEST PUSH1 0x0 DUP1 REVERT JUMPDEST PUSH1 0x0 DUP1 REVERT JUMPDEST PUSH1 0x0 DUP2 SWAP1 POP SWAP2 SWAP1 POP JUMP JUMPDEST PUSH3 0x2B0 DUP2 PUSH3 0x29B JUMP JUMPDEST DUP2 EQ PUSH3 0x2BC JUMPI PUSH1 0x0 DUP1 REVERT JUMPDEST POP JUMP JUMPDEST PUSH1 0x0 DUP2 CALLDATALOAD SWAP1 POP PUSH3 0x2D0 DUP2 PUSH3 0x2A5 JUMP JUMPDEST SWAP3 SWAP2 POP POP JUMP JUMPDEST PUSH1 0x0 PUSH1 0x20 DUP3 DUP5 SUB SLT ISZERO PUSH3 0x2EF JUMPI PUSH3 0x2EE PUSH3 0x291 JUMP JUMPDEST JUMPDEST PUSH1 0x0 PUSH3 0x2FF DUP5 DUP3 DUP6 ADD PUSH3 0x2BF JUMP JUMPDEST SWAP2 POP POP SWAP3 SWAP2 POP POP JUMP JUMPDEST PUSH1 0x0 PUSH20 0xFFFFFFFFFFFFFFFFFFFFFFFFFFFFFFFFFFFFFFFF DUP3 AND SWAP1 POP SWAP2 SWAP1 POP JUMP JUMPDEST PUSH1 0x0 PUSH3 0x335 DUP3 PUSH3 0x308 JUMP JUMPDEST SWAP1 POP SWAP2 SWAP1 POP JUMP JUMPDEST PUSH3 0x347 DUP2 PUSH3 0x328 JUMP JUMPDEST DUP3 MSTORE POP POP JUMP JUMPDEST PUSH1 0x0 PUSH1 0x20 DUP3 ADD SWAP1 POP PUSH3 0x364 PUSH1 0x0 DUP4 ADD DUP5 PUSH3 0x33C JUMP JUMPDEST SWAP3 SWAP2 POP POP JUMP JUMPDEST PUSH1 0x0 DUP2 MLOAD SWAP1 POP SWAP2 SWAP1 POP JUMP JUMPDEST PUSH1 0x0 DUP3 DUP3 MSTORE PUSH1 0x20 DUP3 ADD SWAP1 POP SWAP3 SWAP2 POP POP JUMP JUMPDEST PUSH1 0x0 DUP2 SWAP1 POP PUSH1 0x20 DUP3 ADD SWAP1 POP SWAP2 SWAP1 POP JUMP JUMPDEST PUSH3 0x3A1 DUP2 PUSH3 0x328 JUMP JUMPDEST DUP3 MSTORE POP POP JUMP JUMPDEST PUSH1 0x0 PUSH3 0x3B5 DUP4 DUP4 PUSH3 0x396 JUMP JUMPDEST PUSH1 0x20 DUP4 ADD SWAP1 POP SWAP3 SWAP2 POP POP JUMP JUMPDEST PUSH1 0x0 PUSH1 0x20 DUP3 ADD SWAP1 POP SWAP2 SWAP1 POP JUMP JUMPDEST PUSH1 0x0 PUSH3 0x3DB DUP3 PUSH3 0x36A JUMP JUMPDEST PUSH3 0x3E7 DUP2 DUP6 PUSH3 0x375 JUMP JUMPDEST SWAP4 POP PUSH3 0x3F4 DUP4 PUSH3 0x386 JUMP JUMPDEST DUP1 PUSH1 0x0 JUMPDEST DUP4 DUP2 LT ISZERO PUSH3 0x42B JUMPI DUP2 MLOAD PUSH3 0x40F DUP9 DUP3 PUSH3 0x3A7 JUMP JUMPDEST SWAP8 POP PUSH3 0x41C DUP4 PUSH3 0x3C1 JUMP JUMPDEST SWAP3 POP POP PUSH1 0x1 DUP2 ADD SWAP1 POP PUSH3 0x3F8 JUMP JUMPDEST POP DUP6 SWAP4 POP POP POP POP SWAP3 SWAP2 POP POP JUMP JUMPDEST PUSH1 0x0 PUSH1 0x20 DUP3 ADD SWAP1 POP DUP2 DUP2 SUB PUSH1 0x0 DUP4 ADD MSTORE PUSH3 0x454 DUP2 DUP5 PUSH3 0x3CE JUMP JUMPDEST SWAP1 POP SWAP3 SWAP2 POP POP JUMP JUMPDEST PUSH1 0x0 DUP1 REVERT JUMPDEST PUSH1 0x0 DUP1 REVERT JUMPDEST PUSH1 0x0 PUSH1 0x1F NOT PUSH1 0x1F DUP4 ADD AND SWAP1 POP SWAP2 SWAP1 POP JUMP JUMPDEST PUSH32 0x4E487B7100000000000000000000000000000000000000000000000000000000 PUSH1 0x0 MSTORE PUSH1 0x41 PUSH1 0x4 MSTORE PUSH1 0x24 PUSH1 0x0 REVERT JUMPDEST PUSH3 0x4B1 DUP3 PUSH3 0x466 JUMP JUMPDEST DUP2 ADD DUP2 DUP2 LT PUSH8 0xFFFFFFFFFFFFFFFF DUP3 GT OR ISZERO PUSH3 0x4D3 JUMPI PUSH3 0x4D2 PUSH3 0x477 JUMP JUMPDEST JUMPDEST DUP1 PUSH1 0x40 MSTORE POP POP POP JUMP JUMPDEST PUSH1 0x0 PUSH3 0x4E8 PUSH3 0x287 JUMP JUMPDEST SWAP1 POP PUSH3 0x4F6 DUP3 DUP3 PUSH3 0x4A6 JUMP JUMPDEST SWAP2 SWAP1 POP JUMP JUMPDEST PUSH1 0x0 PUSH8 0xFFFFFFFFFFFFFFFF DUP3 GT ISZERO PUSH3 0x519 JUMPI PUSH3 0x518 PUSH3 0x477 JUMP JUMPDEST JUMPDEST PUSH3 0x524 DUP3 PUSH3 0x466 JUMP JUMPDEST SWAP1 POP PUSH1 0x20 DUP2 ADD SWAP1 POP SWAP2 SWAP1 POP JUMP JUMPDEST DUP3 DUP2 DUP4 CALLDATACOPY PUSH1 0x0 DUP4 DUP4 ADD MSTORE POP POP POP JUMP JUMPDEST PUSH1 0x0 PUSH3 0x557 PUSH3 0x551 DUP5 PUSH3 0x4FB JUMP JUMPDEST PUSH3 0x4DC JUMP JUMPDEST SWAP1 POP DUP3 DUP2 MSTORE PUSH1 0x20 DUP2 ADD DUP5 DUP5 DUP5 ADD GT ISZERO PUSH3 0x576 JUMPI PUSH3 0x575 PUSH3 0x461 JUMP JUMPDEST JUMPDEST PUSH3 0x583 DUP5 DUP3 DUP6 PUSH3 0x531 JUMP JUMPDEST POP SWAP4 SWAP3 POP POP POP JUMP JUMPDEST PUSH1 0x0 DUP3 PUSH1 0x1F DUP4 ADD SLT PUSH3 0x5A3 JUMPI PUSH3 0x5A2 PUSH3 0x45C JUMP JUMPDEST JUMPDEST DUP2 CALLDATALOAD PUSH3 0x5B5 DUP5 DUP3 PUSH1 0x20 DUP7 ADD PUSH3 0x540 JUMP JUMPDEST SWAP2 POP POP SWAP3 SWAP2 POP POP JUMP JUMPDEST PUSH1 0x0 PUSH8 0xFFFFFFFFFFFFFFFF DUP3 GT ISZERO PUSH3 0x5DC JUMPI PUSH3 0x5DB PUSH3 0x477 JUMP JUMPDEST JUMPDEST PUSH1 0x20 DUP3 MUL SWAP1 POP PUSH1 0x20 DUP2 ADD SWAP1 POP SWAP2 SWAP1 POP JUMP JUMPDEST PUSH1 0x0 DUP1 REVERT JUMPDEST PUSH1 0x0 PUSH3 0x609 PUSH3 0x603 DUP5 PUSH3 0x5BE JUMP JUMPDEST PUSH3 0x4DC JUMP JUMPDEST SWAP1 POP DUP1 DUP4 DUP3 MSTORE PUSH1 0x20 DUP3 ADD SWAP1 POP PUSH1 0x20 DUP5 MUL DUP4 ADD DUP6 DUP2 GT ISZERO PUSH3 0x62F JUMPI PUSH3 0x62E PUSH3 0x5ED JUMP JUMPDEST JUMPDEST DUP4 JUMPDEST DUP2 DUP2 LT ISZERO PUSH3 0x67D JUMPI DUP1 CALLDATALOAD PUSH8 0xFFFFFFFFFFFFFFFF DUP2 GT ISZERO PUSH3 0x658 JUMPI PUSH3 0x657 PUSH3 0x45C JUMP JUMPDEST JUMPDEST DUP1 DUP7 ADD PUSH3 0x667 DUP10 DUP3 PUSH3 0x58B JUMP JUMPDEST DUP6 MSTORE PUSH1 0x20 DUP6 ADD SWAP5 POP POP POP PUSH1 0x20 DUP2 ADD SWAP1 POP PUSH3 0x631 JUMP JUMPDEST POP POP POP SWAP4 SWAP3 POP POP POP JUMP JUMPDEST PUSH1 0x0 DUP3 PUSH1 0x1F DUP4 ADD SLT PUSH3 0x69F JUMPI PUSH3 0x69E PUSH3 0x45C JUMP JUMPDEST JUMPDEST DUP2 CALLDATALOAD PUSH3 0x6B1 DUP5 DUP3 PUSH1 0x20 DUP7 ADD PUSH3 0x5F2 JUMP JUMPDEST SWAP2 POP POP SWAP3 SWAP2 POP POP JUMP JUMPDEST PUSH1 0x0 DUP1 PUSH1 0x0 DUP1 PUSH1 0x0 PUSH1 0xA0 DUP7 DUP9 SUB SLT ISZERO PUSH3 0x6D9 JUMPI PUSH3 0x6D8 PUSH3 0x291 JUMP JUMPDEST JUMPDEST PUSH1 0x0 DUP7 ADD CALLDATALOAD PUSH8 0xFFFFFFFFFFFFFFFF DUP2 GT ISZERO PUSH3 0x6FA JUMPI PUSH3 0x6F9 PUSH3 0x296 JUMP JUMPDEST JUMPDEST PUSH3 0x708 DUP9 DUP3 DUP10 ADD PUSH3 0x58B JUMP JUMPDEST SWAP6 POP POP PUSH1 0x20 DUP7 ADD CALLDATALOAD PUSH8 0xFFFFFFFFFFFFFFFF DUP2 GT ISZERO PUSH3 0x72C JUMPI PUSH3 0x72B PUSH3 0x296 JUMP JUMPDEST JUMPDEST PUSH3 0x73A DUP9 DUP3 DUP10 ADD PUSH3 0x58B JUMP JUMPDEST SWAP5 POP POP PUSH1 0x40 DUP7 ADD CALLDATALOAD PUSH8 0xFFFFFFFFFFFFFFFF DUP2 GT ISZERO PUSH3 0x75E JUMPI PUSH3 0x75D PUSH3 0x296 JUMP JUMPDEST JUMPDEST PUSH3 0x76C DUP9 DUP3 DUP10 ADD PUSH3 0x58B JUMP JUMPDEST SWAP4 POP POP PUSH1 0x60 DUP7 ADD CALLDATALOAD PUSH8 0xFFFFFFFFFFFFFFFF DUP2 GT ISZERO PUSH3 0x790 JUMPI PUSH3 0x78F PUSH3 0x296 JUMP JUMPDEST JUMPDEST PUSH3 0x79E DUP9 DUP3 DUP10 ADD PUSH3 0x687 JUMP JUMPDEST SWAP3 POP POP PUSH1 0x80 DUP7 ADD CALLDATALOAD PUSH8 0xFFFFFFFFFFFFFFFF DUP2 GT ISZERO PUSH3 0x7C2 JUMPI PUSH3 0x7C1 PUSH3 0x296 JUMP JUMPDEST JUMPDEST PUSH3 0x7D0 DUP9 DUP3 DUP10 ADD PUSH3 0x687 JUMP JUMPDEST SWAP2 POP POP SWAP3 SWAP6 POP SWAP3 SWAP6 SWAP1 SWAP4 POP JUMP JUMPDEST PUSH1 0x0 DUP2 MLOAD SWAP1 POP SWAP2 SWAP1 POP JUMP JUMPDEST PUSH1 0x0 DUP3 DUP3 MSTORE PUSH1 0x20 DUP3 ADD SWAP1 POP SWAP3 SWAP2 POP POP JUMP JUMPDEST PUSH1 0x0 JUMPDEST DUP4 DUP2 LT ISZERO PUSH3 0x819 JUMPI DUP1 DUP3 ADD MLOAD DUP2 DUP5 ADD MSTORE PUSH1 0x20 DUP2 ADD SWAP1 POP PUSH3 0x7FC JUMP JUMPDEST DUP4 DUP2 GT ISZERO PUSH3 0x829 JUMPI PUSH1 0x0 DUP5 DUP5 ADD MSTORE JUMPDEST POP POP POP POP JUMP JUMPDEST PUSH1 0x0 PUSH3 0x83C DUP3 PUSH3 0x7DD JUMP JUMPDEST PUSH3 0x848 DUP2 DUP6 PUSH3 0x7E8 JUMP JUMPDEST SWAP4 POP PUSH3 0x85A DUP2 DUP6 PUSH1 0x20 DUP7 ADD PUSH3 0x7F9 JUMP JUMPDEST PUSH3 0x865 DUP2 PUSH3 0x466 JUMP JUMPDEST DUP5 ADD SWAP2 POP POP SWAP3 SWAP2 POP POP JUMP JUMPDEST PUSH1 0x0 DUP2 MLOAD SWAP1 POP SWAP2 SWAP1 POP JUMP JUMPDEST PUSH1 0x0 DUP3 DUP3 MSTORE PUSH1 0x20 DUP3 ADD SWAP1 POP SWAP3 SWAP2 POP POP JUMP JUMPDEST PUSH1 0x0 DUP2 SWAP1 POP PUSH1 0x20 DUP3 ADD SWAP1 POP SWAP2 SWAP1 POP JUMP JUMPDEST PUSH1 0x0 DUP3 DUP3 MSTORE PUSH1 0x20 DUP3 ADD SWAP1 POP SWAP3 SWAP2 POP POP JUMP JUMPDEST PUSH1 0x0 PUSH3 0x8BA DUP3 PUSH3 0x7DD JUMP JUMPDEST PUSH3 0x8C6 DUP2 DUP6 PUSH3 0x89C JUMP JUMPDEST SWAP4 POP PUSH3 0x8D8 DUP2 DUP6 PUSH1 0x20 DUP7 ADD PUSH3 0x7F9 JUMP JUMPDEST PUSH3 0x8E3 DUP2 PUSH3 0x466 JUMP JUMPDEST DUP5 ADD SWAP2 POP POP SWAP3 SWAP2 POP POP JUMP JUMPDEST PUSH1 0x0 PUSH3 0x8FC DUP4 DUP4 PUSH3 0x8AD JUMP JUMPDEST SWAP1 POP SWAP3 SWAP2 POP POP JUMP JUMPDEST PUSH1 0x0 PUSH1 0x20 DUP3 ADD SWAP1 POP SWAP2 SWAP1 POP JUMP JUMPDEST PUSH1 0x0 PUSH3 0x91E DUP3 PUSH3 0x870 JUMP JUMPDEST PUSH3 0x92A DUP2 DUP6 PUSH3 0x87B JUMP JUMPDEST SWAP4 POP DUP4 PUSH1 0x20 DUP3 MUL DUP6 ADD PUSH3 0x93E DUP6 PUSH3 0x88C JUMP JUMPDEST DUP1 PUSH1 0x0 JUMPDEST DUP6 DUP2 LT ISZERO PUSH3 0x980 JUMPI DUP5 DUP5 SUB DUP10 MSTORE DUP2 MLOAD PUSH3 0x95E DUP6 DUP3 PUSH3 0x8EE JUMP JUMPDEST SWAP5 POP PUSH3 0x96B DUP4 PUSH3 0x904 JUMP JUMPDEST SWAP3 POP PUSH1 0x20 DUP11 ADD SWAP10 POP POP PUSH1 0x1 DUP2 ADD SWAP1 POP PUSH3 0x942 JUMP JUMPDEST POP DUP3 SWAP8 POP DUP8 SWAP6 POP POP POP POP POP POP SWAP3 SWAP2 POP POP JUMP JUMPDEST PUSH3 0x99D DUP2 PUSH3 0x29B JUMP JUMPDEST DUP3 MSTORE POP POP JUMP JUMPDEST PUSH1 0x0 PUSH1 0xE0 DUP3 ADD SWAP1 POP DUP2 DUP2 SUB PUSH1 0x0 DUP4 ADD MSTORE PUSH3 0x9BF DUP2 DUP11 PUSH3 0x82F JUMP JUMPDEST SWAP1 POP DUP2 DUP2 SUB PUSH1 0x20 DUP4 ADD MSTORE PUSH3 0x9D5 DUP2 DUP10 PUSH3 0x82F JUMP JUMPDEST SWAP1 POP DUP2 DUP2 SUB PUSH1 0x40 DUP4 ADD MSTORE PUSH3 0x9EB DUP2 DUP9 PUSH3 0x82F JUMP JUMPDEST SWAP1 POP DUP2 DUP2 SUB PUSH1 0x60 DUP4 ADD MSTORE PUSH3 0xA01 DUP2 DUP8 PUSH3 0x911 JUMP JUMPDEST SWAP1 POP DUP2 DUP2 SUB PUSH1 0x80 DUP4 ADD MSTORE PUSH3 0xA17 DUP2 DUP7 PUSH3 0x911 JUMP JUMPDEST SWAP1 POP PUSH3 0xA28 PUSH1 0xA0 DUP4 ADD DUP6 PUSH3 0x33C JUMP JUMPDEST PUSH3 0xA37 PUSH1 0xC0 DUP4 ADD DUP5 PUSH3 0x992 JUMP JUMPDEST SWAP9 SWAP8 POP POP POP POP POP POP POP POP JUMP INVALID PUSH1 0x80 PUSH1 0x40 MSTORE PUSH1 0x40 MLOAD PUSH3 0x24C3 CODESIZE SUB DUP1 PUSH3 0x24C3 DUP4 CODECOPY DUP2 DUP2 ADD PUSH1 0x40 MSTORE DUP2 ADD SWAP1 PUSH3 0x29 SWAP2 SWAP1 PUSH3 0x526 JUMP JUMPDEST DUP2 PUSH1 0x0 DUP1 PUSH2 0x100 EXP DUP2 SLOAD DUP2 PUSH20 0xFFFFFFFFFFFFFFFFFFFFFFFFFFFFFFFFFFFFFFFF MUL NOT AND SWAP1 DUP4 PUSH20 0xFFFFFFFFFFFFFFFFFFFFFFFFFFFFFFFFFFFFFFFF AND MUL OR SWAP1 SSTORE POP DUP5 PUSH1 0x1 SWAP1 DUP2 PUSH3 0x7A SWAP2 SWAP1 PUSH3 0x8B5 JUMP JUMPDEST POP DUP7 PUSH1 0x2 SWAP1 DUP2 PUSH3 0x8C SWAP2 SWAP1 PUSH3 0x8B5 JUMP JUMPDEST POP DUP4 PUSH1 0x3 SWAP1 DUP1 MLOAD SWAP1 PUSH1 0x20 ADD SWAP1 PUSH3 0xA5 SWAP3 SWAP2 SWAP1 PUSH3 0x100 JUMP JUMPDEST POP DUP6 PUSH1 0x4 SWAP1 DUP2 PUSH3 0xB7 SWAP2 SWAP1 PUSH3 0x8B5 JUMP JUMPDEST POP DUP3 PUSH1 0x5 SWAP1 DUP1 MLOAD SWAP1 PUSH1 0x20 ADD SWAP1 PUSH3 0xD0 SWAP3 SWAP2 SWAP1 PUSH3 0x100 JUMP JUMPDEST POP PUSH1 0x0 PUSH1 0x6 PUSH1 0x14 PUSH2 0x100 EXP DUP2 SLOAD DUP2 PUSH1 0xFF MUL NOT AND SWAP1 DUP4 ISZERO ISZERO MUL OR SWAP1 SSTORE POP DUP1 PUSH1 0x9 DUP2 SWAP1 SSTORE POP POP POP POP POP POP POP POP PUSH3 0x99C JUMP JUMPDEST DUP3 DUP1 SLOAD DUP3 DUP3 SSTORE SWAP1 PUSH1 0x0 MSTORE PUSH1 0x20 PUSH1 0x0 KECCAK256 SWAP1 DUP2 ADD SWAP3 DUP3 ISZERO PUSH3 0x14D JUMPI SWAP2 PUSH1 0x20 MUL DUP3 ADD JUMPDEST DUP3 DUP2 GT ISZERO PUSH3 0x14C JUMPI DUP3 MLOAD DUP3 SWAP1 DUP2 PUSH3 0x13B SWAP2 SWAP1 PUSH3 0x8B5 JUMP JUMPDEST POP SWAP2 PUSH1 0x20 ADD SWAP2 SWAP1 PUSH1 0x1 ADD SWAP1 PUSH3 0x121 JUMP JUMPDEST JUMPDEST POP SWAP1 POP PUSH3 0x15C SWAP2 SWAP1 PUSH3 0x160 JUMP JUMPDEST POP SWAP1 JUMP JUMPDEST JUMPDEST DUP1 DUP3 GT ISZERO PUSH3 0x184 JUMPI PUSH1 0x0 DUP2 DUP2 PUSH3 0x17A SWAP2 SWAP1 PUSH3 0x188 JUMP JUMPDEST POP PUSH1 0x1 ADD PUSH3 0x161 JUMP JUMPDEST POP SWAP1 JUMP JUMPDEST POP DUP1 SLOAD PUSH3 0x196 SWAP1 PUSH3 0x6AE JUMP JUMPDEST PUSH1 0x0 DUP3 SSTORE DUP1 PUSH1 0x1F LT PUSH3 0x1AA JUMPI POP PUSH3 0x1CB JUMP JUMPDEST PUSH1 0x1F ADD PUSH1 0x20 SWAP1 DIV SWAP1 PUSH1 0x0 MSTORE PUSH1 0x20 PUSH1 0x0 KECCAK256 SWAP1 DUP2 ADD SWAP1 PUSH3 0x1CA SWAP2 SWAP1 PUSH3 0x1CE JUMP JUMPDEST JUMPDEST POP JUMP JUMPDEST JUMPDEST DUP1 DUP3 GT ISZERO PUSH3 0x1E9 JUMPI PUSH1 0x0 DUP2 PUSH1 0x0 SWAP1 SSTORE POP PUSH1 0x1 ADD PUSH3 0x1CF JUMP JUMPDEST POP SWAP1 JUMP JUMPDEST PUSH1 0x0 PUSH1 0x40 MLOAD SWAP1 POP SWAP1 JUMP JUMPDEST PUSH1 0x0 DUP1 REVERT JUMPDEST PUSH1 0x0 DUP1 REVERT JUMPDEST PUSH1 0x0 DUP1 REVERT JUMPDEST PUSH1 0x0 DUP1 REVERT JUMPDEST PUSH1 0x0 PUSH1 0x1F NOT PUSH1 0x1F DUP4 ADD AND SWAP1 POP SWAP2 SWAP1 POP JUMP JUMPDEST PUSH32 0x4E487B7100000000000000000000000000000000000000000000000000000000 PUSH1 0x0 MSTORE PUSH1 0x41 PUSH1 0x4 MSTORE PUSH1 0x24 PUSH1 0x0 REVERT JUMPDEST PUSH3 0x256 DUP3 PUSH3 0x20B JUMP JUMPDEST DUP2 ADD DUP2 DUP2 LT PUSH8 0xFFFFFFFFFFFFFFFF DUP3 GT OR ISZERO PUSH3 0x278 JUMPI PUSH3 0x277 PUSH3 0x21C JUMP JUMPDEST JUMPDEST DUP1 PUSH1 0x40 MSTORE POP POP POP JUMP JUMPDEST PUSH1 0x0 PUSH3 0x28D PUSH3 0x1ED JUMP JUMPDEST SWAP1 POP PUSH3 0x29B DUP3 DUP3 PUSH3 0x24B JUMP JUMPDEST SWAP2 SWAP1 POP JUMP JUMPDEST PUSH1 0x0 PUSH8 0xFFFFFFFFFFFFFFFF DUP3 GT ISZERO PUSH3 0x2BE JUMPI PUSH3 0x2BD PUSH3 0x21C JUMP JUMPDEST JUMPDEST PUSH3 0x2C9 DUP3 PUSH3 0x20B JUMP JUMPDEST SWAP1 POP PUSH1 0x20 DUP2 ADD SWAP1 POP SWAP2 SWAP1 POP JUMP JUMPDEST PUSH1 0x0 JUMPDEST DUP4 DUP2 LT ISZERO PUSH3 0x2F6 JUMPI DUP1 DUP3 ADD MLOAD DUP2 DUP5 ADD MSTORE PUSH1 0x20 DUP2 ADD SWAP1 POP PUSH3 0x2D9 JUMP JUMPDEST DUP4 DUP2 GT ISZERO PUSH3 0x306 JUMPI PUSH1 0x0 DUP5 DUP5 ADD MSTORE JUMPDEST POP POP POP POP JUMP JUMPDEST PUSH1 0x0 PUSH3 0x323 PUSH3 0x31D DUP5 PUSH3 0x2A0 JUMP JUMPDEST PUSH3 0x281 JUMP JUMPDEST SWAP1 POP DUP3 DUP2 MSTORE PUSH1 0x20 DUP2 ADD DUP5 DUP5 DUP5 ADD GT ISZERO PUSH3 0x342 JUMPI PUSH3 0x341 PUSH3 0x206 JUMP JUMPDEST JUMPDEST PUSH3 0x34F DUP5 DUP3 DUP6 PUSH3 0x2D6 JUMP JUMPDEST POP SWAP4 SWAP3 POP POP POP JUMP JUMPDEST PUSH1 0x0 DUP3 PUSH1 0x1F DUP4 ADD SLT PUSH3 0x36F JUMPI PUSH3 0x36E PUSH3 0x201 JUMP JUMPDEST JUMPDEST DUP2 MLOAD PUSH3 0x381 DUP5 DUP3 PUSH1 0x20 DUP7 ADD PUSH3 0x30C JUMP JUMPDEST SWAP2 POP POP SWAP3 SWAP2 POP POP JUMP JUMPDEST PUSH1 0x0 PUSH8 0xFFFFFFFFFFFFFFFF DUP3 GT ISZERO PUSH3 0x3A8 JUMPI PUSH3 0x3A7 PUSH3 0x21C JUMP JUMPDEST JUMPDEST PUSH1 0x20 DUP3 MUL SWAP1 POP PUSH1 0x20 DUP2 ADD SWAP1 POP SWAP2 SWAP1 POP JUMP JUMPDEST PUSH1 0x0 DUP1 REVERT JUMPDEST PUSH1 0x0 PUSH3 0x3D5 PUSH3 0x3CF DUP5 PUSH3 0x38A JUMP JUMPDEST PUSH3 0x281 JUMP JUMPDEST SWAP1 POP DUP1 DUP4 DUP3 MSTORE PUSH1 0x20 DUP3 ADD SWAP1 POP PUSH1 0x20 DUP5 MUL DUP4 ADD DUP6 DUP2 GT ISZERO PUSH3 0x3FB JUMPI PUSH3 0x3FA PUSH3 0x3B9 JUMP JUMPDEST JUMPDEST DUP4 JUMPDEST DUP2 DUP2 LT ISZERO PUSH3 0x449 JUMPI DUP1 MLOAD PUSH8 0xFFFFFFFFFFFFFFFF DUP2 GT ISZERO PUSH3 0x424 JUMPI PUSH3 0x423 PUSH3 0x201 JUMP JUMPDEST JUMPDEST DUP1 DUP7 ADD PUSH3 0x433 DUP10 DUP3 PUSH3 0x357 JUMP JUMPDEST DUP6 MSTORE PUSH1 0x20 DUP6 ADD SWAP5 POP POP POP PUSH1 0x20 DUP2 ADD SWAP1 POP PUSH3 0x3FD JUMP JUMPDEST POP POP POP SWAP4 SWAP3 POP POP POP JUMP JUMPDEST PUSH1 0x0 DUP3 PUSH1 0x1F DUP4 ADD SLT PUSH3 0x46B JUMPI PUSH3 0x46A PUSH3 0x201 JUMP JUMPDEST JUMPDEST DUP2 MLOAD PUSH3 0x47D DUP5 DUP3 PUSH1 0x20 DUP7 ADD PUSH3 0x3BE JUMP JUMPDEST SWAP2 POP POP SWAP3 SWAP2 POP POP JUMP JUMPDEST PUSH1 0x0 PUSH20 0xFFFFFFFFFFFFFFFFFFFFFFFFFFFFFFFFFFFFFFFF DUP3 AND SWAP1 POP SWAP2 SWAP1 POP JUMP JUMPDEST PUSH1 0x0 PUSH3 0x4B3 DUP3 PUSH3 0x486 JUMP JUMPDEST SWAP1 POP SWAP2 SWAP1 POP JUMP JUMPDEST PUSH3 0x4C5 DUP2 PUSH3 0x4A6 JUMP JUMPDEST DUP2 EQ PUSH3 0x4D1 JUMPI PUSH1 0x0 DUP1 REVERT JUMPDEST POP JUMP JUMPDEST PUSH1 0x0 DUP2 MLOAD SWAP1 POP PUSH3 0x4E5 DUP2 PUSH3 0x4BA JUMP JUMPDEST SWAP3 SWAP2 POP POP JUMP JUMPDEST PUSH1 0x0 DUP2 SWAP1 POP SWAP2 SWAP1 POP JUMP JUMPDEST PUSH3 0x500 DUP2 PUSH3 0x4EB JUMP JUMPDEST DUP2 EQ PUSH3 0x50C JUMPI PUSH1 0x0 DUP1 REVERT JUMPDEST POP JUMP JUMPDEST PUSH1 0x0 DUP2 MLOAD SWAP1 POP PUSH3 0x520 DUP2 PUSH3 0x4F5 JUMP JUMPDEST SWAP3 SWAP2 POP POP JUMP JUMPDEST PUSH1 0x0 DUP1 PUSH1 0x0 DUP1 PUSH1 0x0 DUP1 PUSH1 0x0 PUSH1 0xE0 DUP9 DUP11 SUB SLT ISZERO PUSH3 0x548 JUMPI PUSH3 0x547 PUSH3 0x1F7 JUMP JUMPDEST JUMPDEST PUSH1 0x0 DUP9 ADD MLOAD PUSH8 0xFFFFFFFFFFFFFFFF DUP2 GT ISZERO PUSH3 0x569 JUMPI PUSH3 0x568 PUSH3 0x1FC JUMP JUMPDEST JUMPDEST PUSH3 0x577 DUP11 DUP3 DUP12 ADD PUSH3 0x357 JUMP JUMPDEST SWAP8 POP POP PUSH1 0x20 DUP9 ADD MLOAD PUSH8 0xFFFFFFFFFFFFFFFF DUP2 GT ISZERO PUSH3 0x59B JUMPI PUSH3 0x59A PUSH3 0x1FC JUMP JUMPDEST JUMPDEST PUSH3 0x5A9 DUP11 DUP3 DUP12 ADD PUSH3 0x357 JUMP JUMPDEST SWAP7 POP POP PUSH1 0x40 DUP9 ADD MLOAD PUSH8 0xFFFFFFFFFFFFFFFF DUP2 GT ISZERO PUSH3 0x5CD JUMPI PUSH3 0x5CC PUSH3 0x1FC JUMP JUMPDEST JUMPDEST PUSH3 0x5DB DUP11 DUP3 DUP12 ADD PUSH3 0x357 JUMP JUMPDEST SWAP6 POP POP PUSH1 0x60 DUP9 ADD MLOAD PUSH8 0xFFFFFFFFFFFFFFFF DUP2 GT ISZERO PUSH3 0x5FF JUMPI PUSH3 0x5FE PUSH3 0x1FC JUMP JUMPDEST JUMPDEST PUSH3 0x60D DUP11 DUP3 DUP12 ADD PUSH3 0x453 JUMP JUMPDEST SWAP5 POP POP PUSH1 0x80 DUP9 ADD MLOAD PUSH8 0xFFFFFFFFFFFFFFFF DUP2 GT ISZERO PUSH3 0x631 JUMPI PUSH3 0x630 PUSH3 0x1FC JUMP JUMPDEST JUMPDEST PUSH3 0x63F DUP11 DUP3 DUP12 ADD PUSH3 0x453 JUMP JUMPDEST SWAP4 POP POP PUSH1 0xA0 PUSH3 0x652 DUP11 DUP3 DUP12 ADD PUSH3 0x4D4 JUMP JUMPDEST SWAP3 POP POP PUSH1 0xC0 PUSH3 0x665 DUP11 DUP3 DUP12 ADD PUSH3 0x50F JUMP JUMPDEST SWAP2 POP POP SWAP3 SWAP6 SWAP9 SWAP2 SWAP5 SWAP8 POP SWAP3 SWAP6 POP JUMP JUMPDEST PUSH1 0x0 DUP2 MLOAD SWAP1 POP SWAP2 SWAP1 POP JUMP JUMPDEST PUSH32 0x4E487B7100000000000000000000000000000000000000000000000000000000 PUSH1 0x0 MSTORE PUSH1 0x22 PUSH1 0x4 MSTORE PUSH1 0x24 PUSH1 0x0 REVERT JUMPDEST PUSH1 0x0 PUSH1 0x2 DUP3 DIV SWAP1 POP PUSH1 0x1 DUP3 AND DUP1 PUSH3 0x6C7 JUMPI PUSH1 0x7F DUP3 AND SWAP2 POP JUMPDEST PUSH1 0x20 DUP3 LT DUP2 SUB PUSH3 0x6DD JUMPI PUSH3 0x6DC PUSH3 0x67F JUMP JUMPDEST JUMPDEST POP SWAP2 SWAP1 POP JUMP JUMPDEST PUSH1 0x0 DUP2 SWAP1 POP DUP2 PUSH1 0x0 MSTORE PUSH1 0x20 PUSH1 0x0 KECCAK256 SWAP1 POP SWAP2 SWAP1 POP JUMP JUMPDEST PUSH1 0x0 PUSH1 0x20 PUSH1 0x1F DUP4 ADD DIV SWAP1 POP SWAP2 SWAP1 POP JUMP JUMPDEST PUSH1 0x0 DUP3 DUP3 SHL SWAP1 POP SWAP3 SWAP2 POP POP JUMP JUMPDEST PUSH1 0x0 PUSH1 0x8 DUP4 MUL PUSH3 0x747 PUSH32 0xFFFFFFFFFFFFFFFFFFFFFFFFFFFFFFFFFFFFFFFFFFFFFFFFFFFFFFFFFFFFFFFF DUP3 PUSH3 0x708 JUMP JUMPDEST PUSH3 0x753 DUP7 DUP4 PUSH3 0x708 JUMP JUMPDEST SWAP6 POP DUP1 NOT DUP5 AND SWAP4 POP DUP1 DUP7 AND DUP5 OR SWAP3 POP POP POP SWAP4 SWAP3 POP POP POP JUMP JUMPDEST PUSH1 0x0 DUP2 SWAP1 POP SWAP2 SWAP1 POP JUMP JUMPDEST PUSH1 0x0 PUSH3 0x796 PUSH3 0x790 PUSH3 0x78A DUP5 PUSH3 0x4EB JUMP JUMPDEST PUSH3 0x76B JUMP JUMPDEST PUSH3 0x4EB JUMP JUMPDEST SWAP1 POP SWAP2 SWAP1 POP JUMP JUMPDEST PUSH1 0x0 DUP2 SWAP1 POP SWAP2 SWAP1 POP JUMP JUMPDEST PUSH3 0x7B2 DUP4 PUSH3 0x775 JUMP JUMPDEST PUSH3 0x7CA PUSH3 0x7C1 DUP3 PUSH3 0x79D JUMP JUMPDEST DUP5 DUP5 SLOAD PUSH3 0x715 JUMP JUMPDEST DUP3 SSTORE POP POP POP POP JUMP JUMPDEST PUSH1 0x0 SWAP1 JUMP JUMPDEST PUSH3 0x7E1 PUSH3 0x7D2 JUMP JUMPDEST PUSH3 0x7EE DUP2 DUP5 DUP5 PUSH3 0x7A7 JUMP JUMPDEST POP POP POP JUMP JUMPDEST JUMPDEST DUP2 DUP2 LT ISZERO PUSH3 0x816 JUMPI PUSH3 0x80A PUSH1 0x0 DUP3 PUSH3 0x7D7 JUMP JUMPDEST PUSH1 0x1 DUP2 ADD SWAP1 POP PUSH3 0x7F4 JUMP JUMPDEST POP POP JUMP JUMPDEST PUSH1 0x1F DUP3 GT ISZERO PUSH3 0x865 JUMPI PUSH3 0x82F DUP2 PUSH3 0x6E3 JUMP JUMPDEST PUSH3 0x83A DUP5 PUSH3 0x6F8 JUMP JUMPDEST DUP2 ADD PUSH1 0x20 DUP6 LT ISZERO PUSH3 0x84A JUMPI DUP2 SWAP1 POP JUMPDEST PUSH3 0x862 PUSH3 0x859 DUP6 PUSH3 0x6F8 JUMP JUMPDEST DUP4 ADD DUP3 PUSH3 0x7F3 JUMP JUMPDEST POP POP JUMPDEST POP POP POP JUMP JUMPDEST PUSH1 0x0 DUP3 DUP3 SHR SWAP1 POP SWAP3 SWAP2 POP POP JUMP JUMPDEST PUSH1 0x0 PUSH3 0x88A PUSH1 0x0 NOT DUP5 PUSH1 0x8 MUL PUSH3 0x86A JUMP JUMPDEST NOT DUP1 DUP4 AND SWAP2 POP POP SWAP3 SWAP2 POP POP JUMP JUMPDEST PUSH1 0x0 PUSH3 0x8A5 DUP4 DUP4 PUSH3 0x877 JUMP JUMPDEST SWAP2 POP DUP3 PUSH1 0x2 MUL DUP3 OR SWAP1 POP SWAP3 SWAP2 POP POP JUMP JUMPDEST PUSH3 0x8C0 DUP3 PUSH3 0x674 JUMP JUMPDEST PUSH8 0xFFFFFFFFFFFFFFFF DUP2 GT ISZERO PUSH3 0x8DC JUMPI PUSH3 0x8DB PUSH3 0x21C JUMP JUMPDEST JUMPDEST PUSH3 0x8E8 DUP3 SLOAD PUSH3 0x6AE JUMP JUMPDEST PUSH3 0x8F5 DUP3 DUP3 DUP6 PUSH3 0x81A JUMP JUMPDEST PUSH1 0x0 PUSH1 0x20 SWAP1 POP PUSH1 0x1F DUP4 GT PUSH1 0x1 DUP2 EQ PUSH3 0x92D JUMPI PUSH1 0x0 DUP5 ISZERO PUSH3 0x918 JUMPI DUP3 DUP8 ADD MLOAD SWAP1 POP JUMPDEST PUSH3 0x924 DUP6 DUP3 PUSH3 0x897 JUMP JUMPDEST DUP7 SSTORE POP PUSH3 0x994 JUMP JUMPDEST PUSH1 0x1F NOT DUP5 AND PUSH3 0x93D DUP7 PUSH3 0x6E3 JUMP JUMPDEST PUSH1 0x0 JUMPDEST DUP3 DUP2 LT ISZERO PUSH3 0x967 JUMPI DUP5 DUP10 ADD MLOAD DUP3 SSTORE PUSH1 0x1 DUP3 ADD SWAP2 POP PUSH1 0x20 DUP6 ADD SWAP5 POP PUSH1 0x20 DUP2 ADD SWAP1 POP PUSH3 0x940 JUMP JUMPDEST DUP7 DUP4 LT ISZERO PUSH3 0x987 JUMPI DUP5 DUP10 ADD MLOAD PUSH3 0x983 PUSH1 0x1F DUP10 AND DUP3 PUSH3 0x877 JUMP JUMPDEST DUP4 SSTORE POP JUMPDEST PUSH1 0x1 PUSH1 0x2 DUP9 MUL ADD DUP9 SSTORE POP POP POP JUMPDEST POP POP POP POP POP POP JUMP JUMPDEST PUSH2 0x1B17 DUP1 PUSH3 0x9AC PUSH1 0x0 CODECOPY PUSH1 0x0 RETURN INVALID PUSH1 0x80 PUSH1 0x40 MSTORE CALLVALUE DUP1 ISZERO PUSH2 0x10 JUMPI PUSH1 0x0 DUP1 REVERT JUMPDEST POP PUSH1 0x4 CALLDATASIZE LT PUSH2 0x10A JUMPI PUSH1 0x0 CALLDATALOAD PUSH1 0xE0 SHR DUP1 PUSH4 0x5F51C765 GT PUSH2 0xA2 JUMPI DUP1 PUSH4 0x9E98C6AA GT PUSH2 0x71 JUMPI DUP1 PUSH4 0x9E98C6AA EQ PUSH2 0x2B2 JUMPI DUP1 PUSH4 0xA20FCA5A EQ PUSH2 0x2D0 JUMPI DUP1 PUSH4 0xDEA4E339 EQ PUSH2 0x2DA JUMPI DUP1 PUSH4 0xFA391C64 EQ PUSH2 0x2F8 JUMPI DUP1 PUSH4 0xFBC03A1E EQ PUSH2 0x316 JUMPI PUSH2 0x10A JUMP JUMPDEST DUP1 PUSH4 0x5F51C765 EQ PUSH2 0x204 JUMPI DUP1 PUSH4 0x71096387 EQ PUSH2 0x220 JUMPI DUP1 PUSH4 0x74ADAD1D EQ PUSH2 0x250 JUMPI DUP1 PUSH4 0x7B8D558B EQ PUSH2 0x282 JUMPI PUSH2 0x10A JUMP JUMPDEST DUP1 PUSH4 0x481C6A75 GT PUSH2 0xDE JUMPI DUP1 PUSH4 0x481C6A75 EQ PUSH2 0x183 JUMPI DUP1 PUSH4 0x4D547ADA EQ PUSH2 0x1A1 JUMPI DUP1 PUSH4 0x5A9B0B89 EQ PUSH2 0x1BF JUMPI DUP1 PUSH4 0x5E1C7322 EQ PUSH2 0x1E6 JUMPI PUSH2 0x10A JUMP JUMPDEST DUP1 PUSH3 0x1AEA77 EQ PUSH2 0x10F JUMPI DUP1 PUSH4 0x231E407A EQ PUSH2 0x12D JUMPI DUP1 PUSH4 0x31C3A6F5 EQ PUSH2 0x137 JUMPI DUP1 PUSH4 0x43A7E9B9 EQ PUSH2 0x153 JUMPI JUMPDEST PUSH1 0x0 DUP1 REVERT JUMPDEST PUSH2 0x117 PUSH2 0x334 JUMP JUMPDEST PUSH1 0x40 MLOAD PUSH2 0x124 SWAP2 SWAP1 PUSH2 0x11D5 JUMP JUMPDEST PUSH1 0x40 MLOAD DUP1 SWAP2 SUB SWAP1 RETURN JUMPDEST PUSH2 0x135 PUSH2 0x3C2 JUMP JUMPDEST STOP JUMPDEST PUSH2 0x151 PUSH1 0x4 DUP1 CALLDATASIZE SUB DUP2 ADD SWAP1 PUSH2 0x14C SWAP2 SWAP1 PUSH2 0x1340 JUMP JUMPDEST PUSH2 0x4DE JUMP JUMPDEST STOP JUMPDEST PUSH2 0x16D PUSH1 0x4 DUP1 CALLDATASIZE SUB DUP2 ADD SWAP1 PUSH2 0x168 SWAP2 SWAP1 PUSH2 0x13BF JUMP JUMPDEST PUSH2 0x637 JUMP JUMPDEST PUSH1 0x40 MLOAD PUSH2 0x17A SWAP2 SWAP1 PUSH2 0x142D JUMP JUMPDEST PUSH1 0x40 MLOAD DUP1 SWAP2 SUB SWAP1 RETURN JUMPDEST PUSH2 0x18B PUSH2 0x676 JUMP JUMPDEST PUSH1 0x40 MLOAD PUSH2 0x198 SWAP2 SWAP1 PUSH2 0x142D JUMP JUMPDEST PUSH1 0x40 MLOAD DUP1 SWAP2 SUB SWAP1 RETURN JUMPDEST PUSH2 0x1A9 PUSH2 0x69A JUMP JUMPDEST PUSH1 0x40 MLOAD PUSH2 0x1B6 SWAP2 SWAP1 PUSH2 0x142D JUMP JUMPDEST PUSH1 0x40 MLOAD DUP1 SWAP2 SUB SWAP1 RETURN JUMPDEST PUSH2 0x1C7 PUSH2 0x6C0 JUMP JUMPDEST PUSH1 0x40 MLOAD PUSH2 0x1DD SWAP11 SWAP10 SWAP9 SWAP8 SWAP7 SWAP6 SWAP5 SWAP4 SWAP3 SWAP2 SWAP1 PUSH2 0x163C JUMP JUMPDEST PUSH1 0x40 MLOAD DUP1 SWAP2 SUB SWAP1 RETURN JUMPDEST PUSH2 0x1EE PUSH2 0xB24 JUMP JUMPDEST PUSH1 0x40 MLOAD PUSH2 0x1FB SWAP2 SWAP1 PUSH2 0x1702 JUMP JUMPDEST PUSH1 0x40 MLOAD DUP1 SWAP2 SUB SWAP1 RETURN JUMPDEST PUSH2 0x21E PUSH1 0x4 DUP1 CALLDATASIZE SUB DUP2 ADD SWAP1 PUSH2 0x219 SWAP2 SWAP1 PUSH2 0x1762 JUMP JUMPDEST PUSH2 0xBFD JUMP JUMPDEST STOP JUMPDEST PUSH2 0x23A PUSH1 0x4 DUP1 CALLDATASIZE SUB DUP2 ADD SWAP1 PUSH2 0x235 SWAP2 SWAP1 PUSH2 0x13BF JUMP JUMPDEST PUSH2 0xCF2 JUMP JUMPDEST PUSH1 0x40 MLOAD PUSH2 0x247 SWAP2 SWAP1 PUSH2 0x11D5 JUMP JUMPDEST PUSH1 0x40 MLOAD DUP1 SWAP2 SUB SWAP1 RETURN JUMPDEST PUSH2 0x26A PUSH1 0x4 DUP1 CALLDATASIZE SUB DUP2 ADD SWAP1 PUSH2 0x265 SWAP2 SWAP1 PUSH2 0x1762 JUMP JUMPDEST PUSH2 0xD9E JUMP JUMPDEST PUSH1 0x40 MLOAD PUSH2 0x279 SWAP4 SWAP3 SWAP2 SWAP1 PUSH2 0x178F JUMP JUMPDEST PUSH1 0x40 MLOAD DUP1 SWAP2 SUB SWAP1 RETURN JUMPDEST PUSH2 0x29C PUSH1 0x4 DUP1 CALLDATASIZE SUB DUP2 ADD SWAP1 PUSH2 0x297 SWAP2 SWAP1 PUSH2 0x13BF JUMP JUMPDEST PUSH2 0xE7D JUMP JUMPDEST PUSH1 0x40 MLOAD PUSH2 0x2A9 SWAP2 SWAP1 PUSH2 0x11D5 JUMP JUMPDEST PUSH1 0x40 MLOAD DUP1 SWAP2 SUB SWAP1 RETURN JUMPDEST PUSH2 0x2BA PUSH2 0xF29 JUMP JUMPDEST PUSH1 0x40 MLOAD PUSH2 0x2C7 SWAP2 SWAP1 PUSH2 0x17CD JUMP JUMPDEST PUSH1 0x40 MLOAD DUP1 SWAP2 SUB SWAP1 RETURN JUMPDEST PUSH2 0x2D8 PUSH2 0xF2F JUMP JUMPDEST STOP JUMPDEST PUSH2 0x2E2 PUSH2 0x100D JUMP JUMPDEST PUSH1 0x40 MLOAD PUSH2 0x2EF SWAP2 SWAP1 PUSH2 0x11D5 JUMP JUMPDEST PUSH1 0x40 MLOAD DUP1 SWAP2 SUB SWAP1 RETURN JUMPDEST PUSH2 0x300 PUSH2 0x109B JUMP JUMPDEST PUSH1 0x40 MLOAD PUSH2 0x30D SWAP2 SWAP1 PUSH2 0x17E8 JUMP JUMPDEST PUSH1 0x40 MLOAD DUP1 SWAP2 SUB SWAP1 RETURN JUMPDEST PUSH2 0x31E PUSH2 0x10AE JUMP JUMPDEST PUSH1 0x40 MLOAD PUSH2 0x32B SWAP2 SWAP1 PUSH2 0x11D5 JUMP JUMPDEST PUSH1 0x40 MLOAD DUP1 SWAP2 SUB SWAP1 RETURN JUMPDEST PUSH1 0x2 DUP1 SLOAD PUSH2 0x341 SWAP1 PUSH2 0x1832 JUMP JUMPDEST DUP1 PUSH1 0x1F ADD PUSH1 0x20 DUP1 SWAP2 DIV MUL PUSH1 0x20 ADD PUSH1 0x40 MLOAD SWAP1 DUP2 ADD PUSH1 0x40 MSTORE DUP1 SWAP3 SWAP2 SWAP1 DUP2 DUP2 MSTORE PUSH1 0x20 ADD DUP3 DUP1 SLOAD PUSH2 0x36D SWAP1 PUSH2 0x1832 JUMP JUMPDEST DUP1 ISZERO PUSH2 0x3BA JUMPI DUP1 PUSH1 0x1F LT PUSH2 0x38F JUMPI PUSH2 0x100 DUP1 DUP4 SLOAD DIV MUL DUP4 MSTORE SWAP2 PUSH1 0x20 ADD SWAP2 PUSH2 0x3BA JUMP JUMPDEST DUP3 ADD SWAP2 SWAP1 PUSH1 0x0 MSTORE PUSH1 0x20 PUSH1 0x0 KECCAK256 SWAP1 JUMPDEST DUP2 SLOAD DUP2 MSTORE SWAP1 PUSH1 0x1 ADD SWAP1 PUSH1 0x20 ADD DUP1 DUP4 GT PUSH2 0x39D JUMPI DUP3 SWAP1 SUB PUSH1 0x1F AND DUP3 ADD SWAP2 JUMPDEST POP POP POP POP POP DUP2 JUMP JUMPDEST PUSH1 0x0 DUP1 SLOAD SWAP1 PUSH2 0x100 EXP SWAP1 DIV PUSH20 0xFFFFFFFFFFFFFFFFFFFFFFFFFFFFFFFFFFFFFFFF AND PUSH20 0xFFFFFFFFFFFFFFFFFFFFFFFFFFFFFFFFFFFFFFFF AND CALLER PUSH20 0xFFFFFFFFFFFFFFFFFFFFFFFFFFFFFFFFFFFFFFFF AND EQ PUSH2 0x41A JUMPI PUSH1 0x0 DUP1 REVERT JUMPDEST PUSH1 0x0 PUSH20 0xFFFFFFFFFFFFFFFFFFFFFFFFFFFFFFFFFFFFFFFF AND PUSH1 0x6 PUSH1 0x0 SWAP1 SLOAD SWAP1 PUSH2 0x100 EXP SWAP1 DIV PUSH20 0xFFFFFFFFFFFFFFFFFFFFFFFFFFFFFFFFFFFFFFFF AND PUSH20 0xFFFFFFFFFFFFFFFFFFFFFFFFFFFFFFFFFFFFFFFF AND EQ PUSH2 0x475 JUMPI PUSH1 0x0 DUP1 REVERT JUMPDEST PUSH1 0x0 DUP1 SLOAD SWAP1 PUSH2 0x100 EXP SWAP1 DIV PUSH20 0xFFFFFFFFFFFFFFFFFFFFFFFFFFFFFFFFFFFFFFFF AND PUSH20 0xFFFFFFFFFFFFFFFFFFFFFFFFFFFFFFFFFFFFFFFF AND PUSH2 0x8FC SELFBALANCE SWAP1 DUP2 ISZERO MUL SWAP1 PUSH1 0x40 MLOAD PUSH1 0x0 PUSH1 0x40 MLOAD DUP1 DUP4 SUB DUP2 DUP6 DUP9 DUP9 CALL SWAP4 POP POP POP POP ISZERO DUP1 ISZERO PUSH2 0x4DB JUMPI RETURNDATASIZE PUSH1 0x0 DUP1 RETURNDATACOPY RETURNDATASIZE PUSH1 0x0 REVERT JUMPDEST POP JUMP JUMPDEST PUSH1 0x40 MLOAD DUP1 PUSH1 0x60 ADD PUSH1 0x40 MSTORE DUP1 DUP3 DUP2 MSTORE PUSH1 0x20 ADD CALLER PUSH20 0xFFFFFFFFFFFFFFFFFFFFFFFFFFFFFFFFFFFFFFFF AND DUP2 MSTORE PUSH1 0x20 ADD PUSH1 0x1 ISZERO ISZERO DUP2 MSTORE POP PUSH1 0x7 PUSH1 0x0 CALLER PUSH20 0xFFFFFFFFFFFFFFFFFFFFFFFFFFFFFFFFFFFFFFFF AND PUSH20 0xFFFFFFFFFFFFFFFFFFFFFFFFFFFFFFFFFFFFFFFF AND DUP2 MSTORE PUSH1 0x20 ADD SWAP1 DUP2 MSTORE PUSH1 0x20 ADD PUSH1 0x0 KECCAK256 PUSH1 0x0 DUP3 ADD MLOAD DUP2 PUSH1 0x0 ADD SWAP1 DUP2 PUSH2 0x566 SWAP2 SWAP1 PUSH2 0x1A0F JUMP JUMPDEST POP PUSH1 0x20 DUP3 ADD MLOAD DUP2 PUSH1 0x1 ADD PUSH1 0x0 PUSH2 0x100 EXP DUP2 SLOAD DUP2 PUSH20 0xFFFFFFFFFFFFFFFFFFFFFFFFFFFFFFFFFFFFFFFF MUL NOT AND SWAP1 DUP4 PUSH20 0xFFFFFFFFFFFFFFFFFFFFFFFFFFFFFFFFFFFFFFFF AND MUL OR SWAP1 SSTORE POP PUSH1 0x40 DUP3 ADD MLOAD DUP2 PUSH1 0x1 ADD PUSH1 0x14 PUSH2 0x100 EXP DUP2 SLOAD DUP2 PUSH1 0xFF MUL NOT AND SWAP1 DUP4 ISZERO ISZERO MUL OR SWAP1 SSTORE POP SWAP1 POP POP PUSH1 0x8 CALLER SWAP1 DUP1 PUSH1 0x1 DUP2 SLOAD ADD DUP1 DUP3 SSTORE DUP1 SWAP2 POP POP PUSH1 0x1 SWAP1 SUB SWAP1 PUSH1 0x0 MSTORE PUSH1 0x20 PUSH1 0x0 KECCAK256 ADD PUSH1 0x0 SWAP1 SWAP2 SWAP1 SWAP2 SWAP1 SWAP2 PUSH2 0x100 EXP DUP2 SLOAD DUP2 PUSH20 0xFFFFFFFFFFFFFFFFFFFFFFFFFFFFFFFFFFFFFFFF MUL NOT AND SWAP1 DUP4 PUSH20 0xFFFFFFFFFFFFFFFFFFFFFFFFFFFFFFFFFFFFFFFF AND MUL OR SWAP1 SSTORE POP POP JUMP JUMPDEST PUSH1 0x8 DUP2 DUP2 SLOAD DUP2 LT PUSH2 0x647 JUMPI PUSH1 0x0 DUP1 REVERT JUMPDEST SWAP1 PUSH1 0x0 MSTORE PUSH1 0x20 PUSH1 0x0 KECCAK256 ADD PUSH1 0x0 SWAP2 POP SLOAD SWAP1 PUSH2 0x100 EXP SWAP1 DIV PUSH20 0xFFFFFFFFFFFFFFFFFFFFFFFFFFFFFFFFFFFFFFFF AND DUP2 JUMP JUMPDEST PUSH1 0x0 DUP1 SLOAD SWAP1 PUSH2 0x100 EXP SWAP1 DIV PUSH20 0xFFFFFFFFFFFFFFFFFFFFFFFFFFFFFFFFFFFFFFFF AND DUP2 JUMP JUMPDEST PUSH1 0x6 PUSH1 0x0 SWAP1 SLOAD SWAP1 PUSH2 0x100 EXP SWAP1 DIV PUSH20 0xFFFFFFFFFFFFFFFFFFFFFFFFFFFFFFFFFFFFFFFF AND DUP2 JUMP JUMPDEST PUSH1 0x0 PUSH1 0x60 DUP1 PUSH1 0x60 DUP1 PUSH1 0x0 DUP1 PUSH1 0x60 PUSH1 0x0 PUSH1 0x60 PUSH1 0x0 DUP1 SLOAD SWAP1 PUSH2 0x100 EXP SWAP1 DIV PUSH20 0xFFFFFFFFFFFFFFFFFFFFFFFFFFFFFFFFFFFFFFFF AND PUSH1 0x2 PUSH1 0x3 PUSH1 0x4 PUSH1 0x1 PUSH1 0x6 PUSH1 0x0 SWAP1 SLOAD SWAP1 PUSH2 0x100 EXP SWAP1 DIV PUSH20 0xFFFFFFFFFFFFFFFFFFFFFFFFFFFFFFFFFFFFFFFF AND PUSH1 0x6 PUSH1 0x14 SWAP1 SLOAD SWAP1 PUSH2 0x100 EXP SWAP1 DIV PUSH1 0xFF AND PUSH1 0x8 SELFBALANCE PUSH1 0x5 DUP9 DUP1 SLOAD PUSH2 0x73E SWAP1 PUSH2 0x1832 JUMP JUMPDEST DUP1 PUSH1 0x1F ADD PUSH1 0x20 DUP1 SWAP2 DIV MUL PUSH1 0x20 ADD PUSH1 0x40 MLOAD SWAP1 DUP2 ADD PUSH1 0x40 MSTORE DUP1 SWAP3 SWAP2 SWAP1 DUP2 DUP2 MSTORE PUSH1 0x20 ADD DUP3 DUP1 SLOAD PUSH2 0x76A SWAP1 PUSH2 0x1832 JUMP JUMPDEST DUP1 ISZERO PUSH2 0x7B7 JUMPI DUP1 PUSH1 0x1F LT PUSH2 0x78C JUMPI PUSH2 0x100 DUP1 DUP4 SLOAD DIV MUL DUP4 MSTORE SWAP2 PUSH1 0x20 ADD SWAP2 PUSH2 0x7B7 JUMP JUMPDEST DUP3 ADD SWAP2 SWAP1 PUSH1 0x0 MSTORE PUSH1 0x20 PUSH1 0x0 KECCAK256 SWAP1 JUMPDEST DUP2 SLOAD DUP2 MSTORE SWAP1 PUSH1 0x1 ADD SWAP1 PUSH1 0x20 ADD DUP1 DUP4 GT PUSH2 0x79A JUMPI DUP3 SWAP1 SUB PUSH1 0x1F AND DUP3 ADD SWAP2 JUMPDEST POP POP POP POP POP SWAP9 POP DUP8 DUP1 SLOAD DUP1 PUSH1 0x20 MUL PUSH1 0x20 ADD PUSH1 0x40 MLOAD SWAP1 DUP2 ADD PUSH1 0x40 MSTORE DUP1 SWAP3 SWAP2 SWAP1 DUP2 DUP2 MSTORE PUSH1 0x20 ADD PUSH1 0x0 SWAP1 JUMPDEST DUP3 DUP3 LT ISZERO PUSH2 0x88B JUMPI DUP4 DUP3 SWAP1 PUSH1 0x0 MSTORE PUSH1 0x20 PUSH1 0x0 KECCAK256 ADD DUP1 SLOAD PUSH2 0x7FE SWAP1 PUSH2 0x1832 JUMP JUMPDEST DUP1 PUSH1 0x1F ADD PUSH1 0x20 DUP1 SWAP2 DIV MUL PUSH1 0x20 ADD PUSH1 0x40 MLOAD SWAP1 DUP2 ADD PUSH1 0x40 MSTORE DUP1 SWAP3 SWAP2 SWAP1 DUP2 DUP2 MSTORE PUSH1 0x20 ADD DUP3 DUP1 SLOAD PUSH2 0x82A SWAP1 PUSH2 0x1832 JUMP JUMPDEST DUP1 ISZERO PUSH2 0x877 JUMPI DUP1 PUSH1 0x1F LT PUSH2 0x84C JUMPI PUSH2 0x100 DUP1 DUP4 SLOAD DIV MUL DUP4 MSTORE SWAP2 PUSH1 0x20 ADD SWAP2 PUSH2 0x877 JUMP JUMPDEST DUP3 ADD SWAP2 SWAP1 PUSH1 0x0 MSTORE PUSH1 0x20 PUSH1 0x0 KECCAK256 SWAP1 JUMPDEST DUP2 SLOAD DUP2 MSTORE SWAP1 PUSH1 0x1 ADD SWAP1 PUSH1 0x20 ADD DUP1 DUP4 GT PUSH2 0x85A JUMPI DUP3 SWAP1 SUB PUSH1 0x1F AND DUP3 ADD SWAP2 JUMPDEST POP POP POP POP POP DUP2 MSTORE PUSH1 0x20 ADD SWAP1 PUSH1 0x1 ADD SWAP1 PUSH2 0x7DF JUMP JUMPDEST POP POP POP POP SWAP8 POP DUP7 DUP1 SLOAD PUSH2 0x89D SWAP1 PUSH2 0x1832 JUMP JUMPDEST DUP1 PUSH1 0x1F ADD PUSH1 0x20 DUP1 SWAP2 DIV MUL PUSH1 0x20 ADD PUSH1 0x40 MLOAD SWAP1 DUP2 ADD PUSH1 0x40 MSTORE DUP1 SWAP3 SWAP2 SWAP1 DUP2 DUP2 MSTORE PUSH1 0x20 ADD DUP3 DUP1 SLOAD PUSH2 0x8C9 SWAP1 PUSH2 0x1832 JUMP JUMPDEST DUP1 ISZERO PUSH2 0x916 JUMPI DUP1 PUSH1 0x1F LT PUSH2 0x8EB JUMPI PUSH2 0x100 DUP1 DUP4 SLOAD DIV MUL DUP4 MSTORE SWAP2 PUSH1 0x20 ADD SWAP2 PUSH2 0x916 JUMP JUMPDEST DUP3 ADD SWAP2 SWAP1 PUSH1 0x0 MSTORE PUSH1 0x20 PUSH1 0x0 KECCAK256 SWAP1 JUMPDEST DUP2 SLOAD DUP2 MSTORE SWAP1 PUSH1 0x1 ADD SWAP1 PUSH1 0x20 ADD DUP1 DUP4 GT PUSH2 0x8F9 JUMPI DUP3 SWAP1 SUB PUSH1 0x1F AND DUP3 ADD SWAP2 JUMPDEST POP POP POP POP POP SWAP7 POP DUP6 DUP1 SLOAD PUSH2 0x929 SWAP1 PUSH2 0x1832 JUMP JUMPDEST DUP1 PUSH1 0x1F ADD PUSH1 0x20 DUP1 SWAP2 DIV MUL PUSH1 0x20 ADD PUSH1 0x40 MLOAD SWAP1 DUP2 ADD PUSH1 0x40 MSTORE DUP1 SWAP3 SWAP2 SWAP1 DUP2 DUP2 MSTORE PUSH1 0x20 ADD DUP3 DUP1 SLOAD PUSH2 0x955 SWAP1 PUSH2 0x1832 JUMP JUMPDEST DUP1 ISZERO PUSH2 0x9A2 JUMPI DUP1 PUSH1 0x1F LT PUSH2 0x977 JUMPI PUSH2 0x100 DUP1 DUP4 SLOAD DIV MUL DUP4 MSTORE SWAP2 PUSH1 0x20 ADD SWAP2 PUSH2 0x9A2 JUMP JUMPDEST DUP3 ADD SWAP2 SWAP1 PUSH1 0x0 MSTORE PUSH1 0x20 PUSH1 0x0 KECCAK256 SWAP1 JUMPDEST DUP2 SLOAD DUP2 MSTORE SWAP1 PUSH1 0x1 ADD SWAP1 PUSH1 0x20 ADD DUP1 DUP4 GT PUSH2 0x985 JUMPI DUP3 SWAP1 SUB PUSH1 0x1F AND DUP3 ADD SWAP2 JUMPDEST POP POP POP POP POP SWAP6 POP DUP3 DUP1 SLOAD DUP1 PUSH1 0x20 MUL PUSH1 0x20 ADD PUSH1 0x40 MLOAD SWAP1 DUP2 ADD PUSH1 0x40 MSTORE DUP1 SWAP3 SWAP2 SWAP1 DUP2 DUP2 MSTORE PUSH1 0x20 ADD DUP3 DUP1 SLOAD DUP1 ISZERO PUSH2 0xA2A JUMPI PUSH1 0x20 MUL DUP3 ADD SWAP2 SWAP1 PUSH1 0x0 MSTORE PUSH1 0x20 PUSH1 0x0 KECCAK256 SWAP1 JUMPDEST DUP2 PUSH1 0x0 SWAP1 SLOAD SWAP1 PUSH2 0x100 EXP SWAP1 DIV PUSH20 0xFFFFFFFFFFFFFFFFFFFFFFFFFFFFFFFFFFFFFFFF AND PUSH20 0xFFFFFFFFFFFFFFFFFFFFFFFFFFFFFFFFFFFFFFFF AND DUP2 MSTORE PUSH1 0x20 ADD SWAP1 PUSH1 0x1 ADD SWAP1 DUP1 DUP4 GT PUSH2 0x9E0 JUMPI JUMPDEST POP POP POP POP POP SWAP3 POP DUP1 DUP1 SLOAD DUP1 PUSH1 0x20 MUL PUSH1 0x20 ADD PUSH1 0x40 MLOAD SWAP1 DUP2 ADD PUSH1 0x40 MSTORE DUP1 SWAP3 SWAP2 SWAP1 DUP2 DUP2 MSTORE PUSH1 0x20 ADD PUSH1 0x0 SWAP1 JUMPDEST DUP3 DUP3 LT ISZERO PUSH2 0xAFE JUMPI DUP4 DUP3 SWAP1 PUSH1 0x0 MSTORE PUSH1 0x20 PUSH1 0x0 KECCAK256 ADD DUP1 SLOAD PUSH2 0xA71 SWAP1 PUSH2 0x1832 JUMP JUMPDEST DUP1 PUSH1 0x1F ADD PUSH1 0x20 DUP1 SWAP2 DIV MUL PUSH1 0x20 ADD PUSH1 0x40 MLOAD SWAP1 DUP2 ADD PUSH1 0x40 MSTORE DUP1 SWAP3 SWAP2 SWAP1 DUP2 DUP2 MSTORE PUSH1 0x20 ADD DUP3 DUP1 SLOAD PUSH2 0xA9D SWAP1 PUSH2 0x1832 JUMP JUMPDEST DUP1 ISZERO PUSH2 0xAEA JUMPI DUP1 PUSH1 0x1F LT PUSH2 0xABF JUMPI PUSH2 0x100 DUP1 DUP4 SLOAD DIV MUL DUP4 MSTORE SWAP2 PUSH1 0x20 ADD SWAP2 PUSH2 0xAEA JUMP JUMPDEST DUP3 ADD SWAP2 SWAP1 PUSH1 0x0 MSTORE PUSH1 0x20 PUSH1 0x0 KECCAK256 SWAP1 JUMPDEST DUP2 SLOAD DUP2 MSTORE SWAP1 PUSH1 0x1 ADD SWAP1 PUSH1 0x20 ADD DUP1 DUP4 GT PUSH2 0xACD JUMPI DUP3 SWAP1 SUB PUSH1 0x1F AND DUP3 ADD SWAP2 JUMPDEST POP POP POP POP POP DUP2 MSTORE PUSH1 0x20 ADD SWAP1 PUSH1 0x1 ADD SWAP1 PUSH2 0xA52 JUMP JUMPDEST POP POP POP POP SWAP1 POP SWAP10 POP SWAP10 POP SWAP10 POP SWAP10 POP SWAP10 POP SWAP10 POP SWAP10 POP SWAP10 POP SWAP10 POP SWAP10 POP SWAP1 SWAP2 SWAP3 SWAP4 SWAP5 SWAP6 SWAP7 SWAP8 SWAP9 SWAP10 JUMP JUMPDEST PUSH1 0x60 PUSH1 0x5 DUP1 SLOAD DUP1 PUSH1 0x20 MUL PUSH1 0x20 ADD PUSH1 0x40 MLOAD SWAP1 DUP2 ADD PUSH1 0x40 MSTORE DUP1 SWAP3 SWAP2 SWAP1 DUP2 DUP2 MSTORE PUSH1 0x20 ADD PUSH1 0x0 SWAP1 JUMPDEST DUP3 DUP3 LT ISZERO PUSH2 0xBF4 JUMPI DUP4 DUP3 SWAP1 PUSH1 0x0 MSTORE PUSH1 0x20 PUSH1 0x0 KECCAK256 ADD DUP1 SLOAD PUSH2 0xB67 SWAP1 PUSH2 0x1832 JUMP JUMPDEST DUP1 PUSH1 0x1F ADD PUSH1 0x20 DUP1 SWAP2 DIV MUL PUSH1 0x20 ADD PUSH1 0x40 MLOAD SWAP1 DUP2 ADD PUSH1 0x40 MSTORE DUP1 SWAP3 SWAP2 SWAP1 DUP2 DUP2 MSTORE PUSH1 0x20 ADD DUP3 DUP1 SLOAD PUSH2 0xB93 SWAP1 PUSH2 0x1832 JUMP JUMPDEST DUP1 ISZERO PUSH2 0xBE0 JUMPI DUP1 PUSH1 0x1F LT PUSH2 0xBB5 JUMPI PUSH2 0x100 DUP1 DUP4 SLOAD DIV MUL DUP4 MSTORE SWAP2 PUSH1 0x20 ADD SWAP2 PUSH2 0xBE0 JUMP JUMPDEST DUP3 ADD SWAP2 SWAP1 PUSH1 0x0 MSTORE PUSH1 0x20 PUSH1 0x0 KECCAK256 SWAP1 JUMPDEST DUP2 SLOAD DUP2 MSTORE SWAP1 PUSH1 0x1 ADD SWAP1 PUSH1 0x20 ADD DUP1 DUP4 GT PUSH2 0xBC3 JUMPI DUP3 SWAP1 SUB PUSH1 0x1F AND DUP3 ADD SWAP2 JUMPDEST POP POP POP POP POP DUP2 MSTORE PUSH1 0x20 ADD SWAP1 PUSH1 0x1 ADD SWAP1 PUSH2 0xB48 JUMP JUMPDEST POP POP POP POP SWAP1 POP SWAP1 JUMP JUMPDEST PUSH1 0x0 DUP1 SLOAD SWAP1 PUSH2 0x100 EXP SWAP1 DIV PUSH20 0xFFFFFFFFFFFFFFFFFFFFFFFFFFFFFFFFFFFFFFFF AND PUSH20 0xFFFFFFFFFFFFFFFFFFFFFFFFFFFFFFFFFFFFFFFF AND CALLER PUSH20 0xFFFFFFFFFFFFFFFFFFFFFFFFFFFFFFFFFFFFFFFF AND EQ PUSH2 0xC55 JUMPI PUSH1 0x0 DUP1 REVERT JUMPDEST PUSH1 0x7 PUSH1 0x0 DUP3 PUSH20 0xFFFFFFFFFFFFFFFFFFFFFFFFFFFFFFFFFFFFFFFF AND PUSH20 0xFFFFFFFFFFFFFFFFFFFFFFFFFFFFFFFFFFFFFFFF AND DUP2 MSTORE PUSH1 0x20 ADD SWAP1 DUP2 MSTORE PUSH1 0x20 ADD PUSH1 0x0 KECCAK256 PUSH1 0x1 ADD PUSH1 0x14 SWAP1 SLOAD SWAP1 PUSH2 0x100 EXP SWAP1 DIV PUSH1 0xFF AND PUSH2 0xCAE JUMPI PUSH1 0x0 DUP1 REVERT JUMPDEST DUP1 PUSH1 0x6 PUSH1 0x0 PUSH2 0x100 EXP DUP2 SLOAD DUP2 PUSH20 0xFFFFFFFFFFFFFFFFFFFFFFFFFFFFFFFFFFFFFFFF MUL NOT AND SWAP1 DUP4 PUSH20 0xFFFFFFFFFFFFFFFFFFFFFFFFFFFFFFFFFFFFFFFF AND MUL OR SWAP1 SSTORE POP POP JUMP JUMPDEST PUSH1 0x3 DUP2 DUP2 SLOAD DUP2 LT PUSH2 0xD02 JUMPI PUSH1 0x0 DUP1 REVERT JUMPDEST SWAP1 PUSH1 0x0 MSTORE PUSH1 0x20 PUSH1 0x0 KECCAK256 ADD PUSH1 0x0 SWAP2 POP SWAP1 POP DUP1 SLOAD PUSH2 0xD1D SWAP1 PUSH2 0x1832 JUMP JUMPDEST DUP1 PUSH1 0x1F ADD PUSH1 0x20 DUP1 SWAP2 DIV MUL PUSH1 0x20 ADD PUSH1 0x40 MLOAD SWAP1 DUP2 ADD PUSH1 0x40 MSTORE DUP1 SWAP3 SWAP2 SWAP1 DUP2 DUP2 MSTORE PUSH1 0x20 ADD DUP3 DUP1 SLOAD PUSH2 0xD49 SWAP1 PUSH2 0x1832 JUMP JUMPDEST DUP1 ISZERO PUSH2 0xD96 JUMPI DUP1 PUSH1 0x1F LT PUSH2 0xD6B JUMPI PUSH2 0x100 DUP1 DUP4 SLOAD DIV MUL DUP4 MSTORE SWAP2 PUSH1 0x20 ADD SWAP2 PUSH2 0xD96 JUMP JUMPDEST DUP3 ADD SWAP2 SWAP1 PUSH1 0x0 MSTORE PUSH1 0x20 PUSH1 0x0 KECCAK256 SWAP1 JUMPDEST DUP2 SLOAD DUP2 MSTORE SWAP1 PUSH1 0x1 ADD SWAP1 PUSH1 0x20 ADD DUP1 DUP4 GT PUSH2 0xD79 JUMPI DUP3 SWAP1 SUB PUSH1 0x1F AND DUP3 ADD SWAP2 JUMPDEST POP POP POP POP POP DUP2 JUMP JUMPDEST PUSH1 0x7 PUSH1 0x20 MSTORE DUP1 PUSH1 0x0 MSTORE PUSH1 0x40 PUSH1 0x0 KECCAK256 PUSH1 0x0 SWAP2 POP SWAP1 POP DUP1 PUSH1 0x0 ADD DUP1 SLOAD PUSH2 0xDC1 SWAP1 PUSH2 0x1832 JUMP JUMPDEST DUP1 PUSH1 0x1F ADD PUSH1 0x20 DUP1 SWAP2 DIV MUL PUSH1 0x20 ADD PUSH1 0x40 MLOAD SWAP1 DUP2 ADD PUSH1 0x40 MSTORE DUP1 SWAP3 SWAP2 SWAP1 DUP2 DUP2 MSTORE PUSH1 0x20 ADD DUP3 DUP1 SLOAD PUSH2 0xDED SWAP1 PUSH2 0x1832 JUMP JUMPDEST DUP1 ISZERO PUSH2 0xE3A JUMPI DUP1 PUSH1 0x1F LT PUSH2 0xE0F JUMPI PUSH2 0x100 DUP1 DUP4 SLOAD DIV MUL DUP4 MSTORE SWAP2 PUSH1 0x20 ADD SWAP2 PUSH2 0xE3A JUMP JUMPDEST DUP3 ADD SWAP2 SWAP1 PUSH1 0x0 MSTORE PUSH1 0x20 PUSH1 0x0 KECCAK256 SWAP1 JUMPDEST DUP2 SLOAD DUP2 MSTORE SWAP1 PUSH1 0x1 ADD SWAP1 PUSH1 0x20 ADD DUP1 DUP4 GT PUSH2 0xE1D JUMPI DUP3 SWAP1 SUB PUSH1 0x1F AND DUP3 ADD SWAP2 JUMPDEST POP POP POP POP POP SWAP1 DUP1 PUSH1 0x1 ADD PUSH1 0x0 SWAP1 SLOAD SWAP1 PUSH2 0x100 EXP SWAP1 DIV PUSH20 0xFFFFFFFFFFFFFFFFFFFFFFFFFFFFFFFFFFFFFFFF AND SWAP1 DUP1 PUSH1 0x1 ADD PUSH1 0x14 SWAP1 SLOAD SWAP1 PUSH2 0x100 EXP SWAP1 DIV PUSH1 0xFF AND SWAP1 POP DUP4 JUMP JUMPDEST PUSH1 0x5 DUP2 DUP2 SLOAD DUP2 LT PUSH2 0xE8D JUMPI PUSH1 0x0 DUP1 REVERT JUMPDEST SWAP1 PUSH1 0x0 MSTORE PUSH1 0x20 PUSH1 0x0 KECCAK256 ADD PUSH1 0x0 SWAP2 POP SWAP1 POP DUP1 SLOAD PUSH2 0xEA8 SWAP1 PUSH2 0x1832 JUMP JUMPDEST DUP1 PUSH1 0x1F ADD PUSH1 0x20 DUP1 SWAP2 DIV MUL PUSH1 0x20 ADD PUSH1 0x40 MLOAD SWAP1 DUP2 ADD PUSH1 0x40 MSTORE DUP1 SWAP3 SWAP2 SWAP1 DUP2 DUP2 MSTORE PUSH1 0x20 ADD DUP3 DUP1 SLOAD PUSH2 0xED4 SWAP1 PUSH2 0x1832 JUMP JUMPDEST DUP1 ISZERO PUSH2 0xF21 JUMPI DUP1 PUSH1 0x1F LT PUSH2 0xEF6 JUMPI PUSH2 0x100 DUP1 DUP4 SLOAD DIV MUL DUP4 MSTORE SWAP2 PUSH1 0x20 ADD SWAP2 PUSH2 0xF21 JUMP JUMPDEST DUP3 ADD SWAP2 SWAP1 PUSH1 0x0 MSTORE PUSH1 0x20 PUSH1 0x0 KECCAK256 SWAP1 JUMPDEST DUP2 SLOAD DUP2 MSTORE SWAP1 PUSH1 0x1 ADD SWAP1 PUSH1 0x20 ADD DUP1 DUP4 GT PUSH2 0xF04 JUMPI DUP3 SWAP1 SUB PUSH1 0x1F AND DUP3 ADD SWAP2 JUMPDEST POP POP POP POP POP DUP2 JUMP JUMPDEST PUSH1 0x9 SLOAD DUP2 JUMP JUMPDEST PUSH1 0x0 DUP1 SLOAD SWAP1 PUSH2 0x100 EXP SWAP1 DIV PUSH20 0xFFFFFFFFFFFFFFFFFFFFFFFFFFFFFFFFFFFFFFFF AND PUSH20 0xFFFFFFFFFFFFFFFFFFFFFFFFFFFFFFFFFFFFFFFF AND CALLER PUSH20 0xFFFFFFFFFFFFFFFFFFFFFFFFFFFFFFFFFFFFFFFF AND EQ PUSH2 0xF87 JUMPI PUSH1 0x0 DUP1 REVERT JUMPDEST PUSH1 0x6 PUSH1 0x0 SWAP1 SLOAD SWAP1 PUSH2 0x100 EXP SWAP1 DIV PUSH20 0xFFFFFFFFFFFFFFFFFFFFFFFFFFFFFFFFFFFFFFFF AND PUSH20 0xFFFFFFFFFFFFFFFFFFFFFFFFFFFFFFFFFFFFFFFF AND PUSH2 0x8FC SELFBALANCE SWAP1 DUP2 ISZERO MUL SWAP1 PUSH1 0x40 MLOAD PUSH1 0x0 PUSH1 0x40 MLOAD DUP1 DUP4 SUB DUP2 DUP6 DUP9 DUP9 CALL SWAP4 POP POP POP POP ISZERO DUP1 ISZERO PUSH2 0xFEF JUMPI RETURNDATASIZE PUSH1 0x0 DUP1 RETURNDATACOPY RETURNDATASIZE PUSH1 0x0 REVERT JUMPDEST POP PUSH1 0x1 PUSH1 0x6 PUSH1 0x14 PUSH2 0x100 EXP DUP2 SLOAD DUP2 PUSH1 0xFF MUL NOT AND SWAP1 DUP4 ISZERO ISZERO MUL OR SWAP1 SSTORE POP JUMP JUMPDEST PUSH1 0x1 DUP1 SLOAD PUSH2 0x101A SWAP1 PUSH2 0x1832 JUMP JUMPDEST DUP1 PUSH1 0x1F ADD PUSH1 0x20 DUP1 SWAP2 DIV MUL PUSH1 0x20 ADD PUSH1 0x40 MLOAD SWAP1 DUP2 ADD PUSH1 0x40 MSTORE DUP1 SWAP3 SWAP2 SWAP1 DUP2 DUP2 MSTORE PUSH1 0x20 ADD DUP3 DUP1 SLOAD PUSH2 0x1046 SWAP1 PUSH2 0x1832 JUMP JUMPDEST DUP1 ISZERO PUSH2 0x1093 JUMPI DUP1 PUSH1 0x1F LT PUSH2 0x1068 JUMPI PUSH2 0x100 DUP1 DUP4 SLOAD DIV MUL DUP4 MSTORE SWAP2 PUSH1 0x20 ADD SWAP2 PUSH2 0x1093 JUMP JUMPDEST DUP3 ADD SWAP2 SWAP1 PUSH1 0x0 MSTORE PUSH1 0x20 PUSH1 0x0 KECCAK256 SWAP1 JUMPDEST DUP2 SLOAD DUP2 MSTORE SWAP1 PUSH1 0x1 ADD SWAP1 PUSH1 0x20 ADD DUP1 DUP4 GT PUSH2 0x1076 JUMPI DUP3 SWAP1 SUB PUSH1 0x1F AND DUP3 ADD SWAP2 JUMPDEST POP POP POP POP POP DUP2 JUMP JUMPDEST PUSH1 0x6 PUSH1 0x14 SWAP1 SLOAD SWAP1 PUSH2 0x100 EXP SWAP1 DIV PUSH1 0xFF AND DUP2 JUMP JUMPDEST PUSH1 0x4 DUP1 SLOAD PUSH2 0x10BB SWAP1 PUSH2 0x1832 JUMP JUMPDEST DUP1 PUSH1 0x1F ADD PUSH1 0x20 DUP1 SWAP2 DIV MUL PUSH1 0x20 ADD PUSH1 0x40 MLOAD SWAP1 DUP2 ADD PUSH1 0x40 MSTORE DUP1 SWAP3 SWAP2 SWAP1 DUP2 DUP2 MSTORE PUSH1 0x20 ADD DUP3 DUP1 SLOAD PUSH2 0x10E7 SWAP1 PUSH2 0x1832 JUMP JUMPDEST DUP1 ISZERO PUSH2 0x1134 JUMPI DUP1 PUSH1 0x1F LT PUSH2 0x1109 JUMPI PUSH2 0x100 DUP1 DUP4 SLOAD DIV MUL DUP4 MSTORE SWAP2 PUSH1 0x20 ADD SWAP2 PUSH2 0x1134 JUMP JUMPDEST DUP3 ADD SWAP2 SWAP1 PUSH1 0x0 MSTORE PUSH1 0x20 PUSH1 0x0 KECCAK256 SWAP1 JUMPDEST DUP2 SLOAD DUP2 MSTORE SWAP1 PUSH1 0x1 ADD SWAP1 PUSH1 0x20 ADD DUP1 DUP4 GT PUSH2 0x1117 JUMPI DUP3 SWAP1 SUB PUSH1 0x1F AND DUP3 ADD SWAP2 JUMPDEST POP POP POP POP POP DUP2 JUMP JUMPDEST PUSH1 0x0 DUP2 MLOAD SWAP1 POP SWAP2 SWAP1 POP JUMP JUMPDEST PUSH1 0x0 DUP3 DUP3 MSTORE PUSH1 0x20 DUP3 ADD SWAP1 POP SWAP3 SWAP2 POP POP JUMP JUMPDEST PUSH1 0x0 JUMPDEST DUP4 DUP2 LT ISZERO PUSH2 0x1176 JUMPI DUP1 DUP3 ADD MLOAD DUP2 DUP5 ADD MSTORE PUSH1 0x20 DUP2 ADD SWAP1 POP PUSH2 0x115B JUMP JUMPDEST DUP4 DUP2 GT ISZERO PUSH2 0x1185 JUMPI PUSH1 0x0 DUP5 DUP5 ADD MSTORE JUMPDEST POP POP POP POP JUMP JUMPDEST PUSH1 0x0 PUSH1 0x1F NOT PUSH1 0x1F DUP4 ADD AND SWAP1 POP SWAP2 SWAP1 POP JUMP JUMPDEST PUSH1 0x0 PUSH2 0x11A7 DUP3 PUSH2 0x113C JUMP JUMPDEST PUSH2 0x11B1 DUP2 DUP6 PUSH2 0x1147 JUMP JUMPDEST SWAP4 POP PUSH2 0x11C1 DUP2 DUP6 PUSH1 0x20 DUP7 ADD PUSH2 0x1158 JUMP JUMPDEST PUSH2 0x11CA DUP2 PUSH2 0x118B JUMP JUMPDEST DUP5 ADD SWAP2 POP POP SWAP3 SWAP2 POP POP JUMP JUMPDEST PUSH1 0x0 PUSH1 0x20 DUP3 ADD SWAP1 POP DUP2 DUP2 SUB PUSH1 0x0 DUP4 ADD MSTORE PUSH2 0x11EF DUP2 DUP5 PUSH2 0x119C JUMP JUMPDEST SWAP1 POP SWAP3 SWAP2 POP POP JUMP JUMPDEST PUSH1 0x0 PUSH1 0x40 MLOAD SWAP1 POP SWAP1 JUMP JUMPDEST PUSH1 0x0 DUP1 REVERT JUMPDEST PUSH1 0x0 DUP1 REVERT JUMPDEST PUSH1 0x0 DUP1 REVERT JUMPDEST PUSH1 0x0 DUP1 REVERT JUMPDEST PUSH32 0x4E487B7100000000000000000000000000000000000000000000000000000000 PUSH1 0x0 MSTORE PUSH1 0x41 PUSH1 0x4 MSTORE PUSH1 0x24 PUSH1 0x0 REVERT JUMPDEST PUSH2 0x124D DUP3 PUSH2 0x118B JUMP JUMPDEST DUP2 ADD DUP2 DUP2 LT PUSH8 0xFFFFFFFFFFFFFFFF DUP3 GT OR ISZERO PUSH2 0x126C JUMPI PUSH2 0x126B PUSH2 0x1215 JUMP JUMPDEST JUMPDEST DUP1 PUSH1 0x40 MSTORE POP POP POP JUMP JUMPDEST PUSH1 0x0 PUSH2 0x127F PUSH2 0x11F7 JUMP JUMPDEST SWAP1 POP PUSH2 0x128B DUP3 DUP3 PUSH2 0x1244 JUMP JUMPDEST SWAP2 SWAP1 POP JUMP JUMPDEST PUSH1 0x0 PUSH8 0xFFFFFFFFFFFFFFFF DUP3 GT ISZERO PUSH2 0x12AB JUMPI PUSH2 0x12AA PUSH2 0x1215 JUMP JUMPDEST JUMPDEST PUSH2 0x12B4 DUP3 PUSH2 0x118B JUMP JUMPDEST SWAP1 POP PUSH1 0x20 DUP2 ADD SWAP1 POP SWAP2 SWAP1 POP JUMP JUMPDEST DUP3 DUP2 DUP4 CALLDATACOPY PUSH1 0x0 DUP4 DUP4 ADD MSTORE POP POP POP JUMP JUMPDEST PUSH1 0x0 PUSH2 0x12E3 PUSH2 0x12DE DUP5 PUSH2 0x1290 JUMP JUMPDEST PUSH2 0x1275 JUMP JUMPDEST SWAP1 POP DUP3 DUP2 MSTORE PUSH1 0x20 DUP2 ADD DUP5 DUP5 DUP5 ADD GT ISZERO PUSH2 0x12FF JUMPI PUSH2 0x12FE PUSH2 0x1210 JUMP JUMPDEST JUMPDEST PUSH2 0x130A DUP5 DUP3 DUP6 PUSH2 0x12C1 JUMP JUMPDEST POP SWAP4 SWAP3 POP POP POP JUMP JUMPDEST PUSH1 0x0 DUP3 PUSH1 0x1F DUP4 ADD SLT PUSH2 0x1327 JUMPI PUSH2 0x1326 PUSH2 0x120B JUMP JUMPDEST JUMPDEST DUP2 CALLDATALOAD PUSH2 0x1337 DUP5 DUP3 PUSH1 0x20 DUP7 ADD PUSH2 0x12D0 JUMP JUMPDEST SWAP2 POP POP SWAP3 SWAP2 POP POP JUMP JUMPDEST PUSH1 0x0 PUSH1 0x20 DUP3 DUP5 SUB SLT ISZERO PUSH2 0x1356 JUMPI PUSH2 0x1355 PUSH2 0x1201 JUMP JUMPDEST JUMPDEST PUSH1 0x0 DUP3 ADD CALLDATALOAD PUSH8 0xFFFFFFFFFFFFFFFF DUP2 GT ISZERO PUSH2 0x1374 JUMPI PUSH2 0x1373 PUSH2 0x1206 JUMP JUMPDEST JUMPDEST PUSH2 0x1380 DUP5 DUP3 DUP6 ADD PUSH2 0x1312 JUMP JUMPDEST SWAP2 POP POP SWAP3 SWAP2 POP POP JUMP JUMPDEST PUSH1 0x0 DUP2 SWAP1 POP SWAP2 SWAP1 POP JUMP JUMPDEST PUSH2 0x139C DUP2 PUSH2 0x1389 JUMP JUMPDEST DUP2 EQ PUSH2 0x13A7 JUMPI PUSH1 0x0 DUP1 REVERT JUMPDEST POP JUMP JUMPDEST PUSH1 0x0 DUP2 CALLDATALOAD SWAP1 POP PUSH2 0x13B9 DUP2 PUSH2 0x1393 JUMP JUMPDEST SWAP3 SWAP2 POP POP JUMP JUMPDEST PUSH1 0x0 PUSH1 0x20 DUP3 DUP5 SUB SLT ISZERO PUSH2 0x13D5 JUMPI PUSH2 0x13D4 PUSH2 0x1201 JUMP JUMPDEST JUMPDEST PUSH1 0x0 PUSH2 0x13E3 DUP5 DUP3 DUP6 ADD PUSH2 0x13AA JUMP JUMPDEST SWAP2 POP POP SWAP3 SWAP2 POP POP JUMP JUMPDEST PUSH1 0x0 PUSH20 0xFFFFFFFFFFFFFFFFFFFFFFFFFFFFFFFFFFFFFFFF DUP3 AND SWAP1 POP SWAP2 SWAP1 POP JUMP JUMPDEST PUSH1 0x0 PUSH2 0x1417 DUP3 PUSH2 0x13EC JUMP JUMPDEST SWAP1 POP SWAP2 SWAP1 POP JUMP JUMPDEST PUSH2 0x1427 DUP2 PUSH2 0x140C JUMP JUMPDEST DUP3 MSTORE POP POP JUMP JUMPDEST PUSH1 0x0 PUSH1 0x20 DUP3 ADD SWAP1 POP PUSH2 0x1442 PUSH1 0x0 DUP4 ADD DUP5 PUSH2 0x141E JUMP JUMPDEST SWAP3 SWAP2 POP POP JUMP JUMPDEST PUSH1 0x0 DUP2 MLOAD SWAP1 POP SWAP2 SWAP1 POP JUMP JUMPDEST PUSH1 0x0 DUP3 DUP3 MSTORE PUSH1 0x20 DUP3 ADD SWAP1 POP SWAP3 SWAP2 POP POP JUMP JUMPDEST PUSH1 0x0 DUP2 SWAP1 POP PUSH1 0x20 DUP3 ADD SWAP1 POP SWAP2 SWAP1 POP JUMP JUMPDEST PUSH1 0x0 DUP3 DUP3 MSTORE PUSH1 0x20 DUP3 ADD SWAP1 POP SWAP3 SWAP2 POP POP JUMP JUMPDEST PUSH1 0x0 PUSH2 0x1490 DUP3 PUSH2 0x113C JUMP JUMPDEST PUSH2 0x149A DUP2 DUP6 PUSH2 0x1474 JUMP JUMPDEST SWAP4 POP PUSH2 0x14AA DUP2 DUP6 PUSH1 0x20 DUP7 ADD PUSH2 0x1158 JUMP JUMPDEST PUSH2 0x14B3 DUP2 PUSH2 0x118B JUMP JUMPDEST DUP5 ADD SWAP2 POP POP SWAP3 SWAP2 POP POP JUMP JUMPDEST PUSH1 0x0 PUSH2 0x14CA DUP4 DUP4 PUSH2 0x1485 JUMP JUMPDEST SWAP1 POP SWAP3 SWAP2 POP POP JUMP JUMPDEST PUSH1 0x0 PUSH1 0x20 DUP3 ADD SWAP1 POP SWAP2 SWAP1 POP JUMP JUMPDEST PUSH1 0x0 PUSH2 0x14EA DUP3 PUSH2 0x1448 JUMP JUMPDEST PUSH2 0x14F4 DUP2 DUP6 PUSH2 0x1453 JUMP JUMPDEST SWAP4 POP DUP4 PUSH1 0x20 DUP3 MUL DUP6 ADD PUSH2 0x1506 DUP6 PUSH2 0x1464 JUMP JUMPDEST DUP1 PUSH1 0x0 JUMPDEST DUP6 DUP2 LT ISZERO PUSH2 0x1542 JUMPI DUP5 DUP5 SUB DUP10 MSTORE DUP2 MLOAD PUSH2 0x1523 DUP6 DUP3 PUSH2 0x14BE JUMP JUMPDEST SWAP5 POP PUSH2 0x152E DUP4 PUSH2 0x14D2 JUMP JUMPDEST SWAP3 POP PUSH1 0x20 DUP11 ADD SWAP10 POP POP PUSH1 0x1 DUP2 ADD SWAP1 POP PUSH2 0x150A JUMP JUMPDEST POP DUP3 SWAP8 POP DUP8 SWAP6 POP POP POP POP POP POP SWAP3 SWAP2 POP POP JUMP JUMPDEST PUSH1 0x0 DUP2 ISZERO ISZERO SWAP1 POP SWAP2 SWAP1 POP JUMP JUMPDEST PUSH2 0x1569 DUP2 PUSH2 0x1554 JUMP JUMPDEST DUP3 MSTORE POP POP JUMP JUMPDEST PUSH1 0x0 DUP2 MLOAD SWAP1 POP SWAP2 SWAP1 POP JUMP JUMPDEST PUSH1 0x0 DUP3 DUP3 MSTORE PUSH1 0x20 DUP3 ADD SWAP1 POP SWAP3 SWAP2 POP POP JUMP JUMPDEST PUSH1 0x0 DUP2 SWAP1 POP PUSH1 0x20 DUP3 ADD SWAP1 POP SWAP2 SWAP1 POP JUMP JUMPDEST PUSH2 0x15A4 DUP2 PUSH2 0x140C JUMP JUMPDEST DUP3 MSTORE POP POP JUMP JUMPDEST PUSH1 0x0 PUSH2 0x15B6 DUP4 DUP4 PUSH2 0x159B JUMP JUMPDEST PUSH1 0x20 DUP4 ADD SWAP1 POP SWAP3 SWAP2 POP POP JUMP JUMPDEST PUSH1 0x0 PUSH1 0x20 DUP3 ADD SWAP1 POP SWAP2 SWAP1 POP JUMP JUMPDEST PUSH1 0x0 PUSH2 0x15DA DUP3 PUSH2 0x156F JUMP JUMPDEST PUSH2 0x15E4 DUP2 DUP6 PUSH2 0x157A JUMP JUMPDEST SWAP4 POP PUSH2 0x15EF DUP4 PUSH2 0x158B JUMP JUMPDEST DUP1 PUSH1 0x0 JUMPDEST DUP4 DUP2 LT ISZERO PUSH2 0x1620 JUMPI DUP2 MLOAD PUSH2 0x1607 DUP9 DUP3 PUSH2 0x15AA JUMP JUMPDEST SWAP8 POP PUSH2 0x1612 DUP4 PUSH2 0x15C2 JUMP JUMPDEST SWAP3 POP POP PUSH1 0x1 DUP2 ADD SWAP1 POP PUSH2 0x15F3 JUMP JUMPDEST POP DUP6 SWAP4 POP POP POP POP SWAP3 SWAP2 POP POP JUMP JUMPDEST PUSH2 0x1636 DUP2 PUSH2 0x1389 JUMP JUMPDEST DUP3 MSTORE POP POP JUMP JUMPDEST PUSH1 0x0 PUSH2 0x140 DUP3 ADD SWAP1 POP PUSH2 0x1652 PUSH1 0x0 DUP4 ADD DUP14 PUSH2 0x141E JUMP JUMPDEST DUP2 DUP2 SUB PUSH1 0x20 DUP4 ADD MSTORE PUSH2 0x1664 DUP2 DUP13 PUSH2 0x119C JUMP JUMPDEST SWAP1 POP DUP2 DUP2 SUB PUSH1 0x40 DUP4 ADD MSTORE PUSH2 0x1678 DUP2 DUP12 PUSH2 0x14DF JUMP JUMPDEST SWAP1 POP DUP2 DUP2 SUB PUSH1 0x60 DUP4 ADD MSTORE PUSH2 0x168C DUP2 DUP11 PUSH2 0x119C JUMP JUMPDEST SWAP1 POP DUP2 DUP2 SUB PUSH1 0x80 DUP4 ADD MSTORE PUSH2 0x16A0 DUP2 DUP10 PUSH2 0x119C JUMP JUMPDEST SWAP1 POP PUSH2 0x16AF PUSH1 0xA0 DUP4 ADD DUP9 PUSH2 0x141E JUMP JUMPDEST PUSH2 0x16BC PUSH1 0xC0 DUP4 ADD DUP8 PUSH2 0x1560 JUMP JUMPDEST DUP2 DUP2 SUB PUSH1 0xE0 DUP4 ADD MSTORE PUSH2 0x16CE DUP2 DUP7 PUSH2 0x15CF JUMP JUMPDEST SWAP1 POP PUSH2 0x16DE PUSH2 0x100 DUP4 ADD DUP6 PUSH2 0x162D JUMP JUMPDEST DUP2 DUP2 SUB PUSH2 0x120 DUP4 ADD MSTORE PUSH2 0x16F1 DUP2 DUP5 PUSH2 0x14DF JUMP JUMPDEST SWAP1 POP SWAP12 SWAP11 POP POP POP POP POP POP POP POP POP POP POP JUMP JUMPDEST PUSH1 0x0 PUSH1 0x20 DUP3 ADD SWAP1 POP DUP2 DUP2 SUB PUSH1 0x0 DUP4 ADD MSTORE PUSH2 0x171C DUP2 DUP5 PUSH2 0x14DF JUMP JUMPDEST SWAP1 POP SWAP3 SWAP2 POP POP JUMP JUMPDEST PUSH1 0x0 PUSH2 0x172F DUP3 PUSH2 0x13EC JUMP JUMPDEST SWAP1 POP SWAP2 SWAP1 POP JUMP JUMPDEST PUSH2 0x173F DUP2 PUSH2 0x1724 JUMP JUMPDEST DUP2 EQ PUSH2 0x174A JUMPI PUSH1 0x0 DUP1 REVERT JUMPDEST POP JUMP JUMPDEST PUSH1 0x0 DUP2 CALLDATALOAD SWAP1 POP PUSH2 0x175C DUP2 PUSH2 0x1736 JUMP JUMPDEST SWAP3 SWAP2 POP POP JUMP JUMPDEST PUSH1 0x0 PUSH1 0x20 DUP3 DUP5 SUB SLT ISZERO PUSH2 0x1778 JUMPI PUSH2 0x1777 PUSH2 0x1201 JUMP JUMPDEST JUMPDEST PUSH1 0x0 PUSH2 0x1786 DUP5 DUP3 DUP6 ADD PUSH2 0x174D JUMP JUMPDEST SWAP2 POP POP SWAP3 SWAP2 POP POP JUMP JUMPDEST PUSH1 0x0 PUSH1 0x60 DUP3 ADD SWAP1 POP DUP2 DUP2 SUB PUSH1 0x0 DUP4 ADD MSTORE PUSH2 0x17A9 DUP2 DUP7 PUSH2 0x119C JUMP JUMPDEST SWAP1 POP PUSH2 0x17B8 PUSH1 0x20 DUP4 ADD DUP6 PUSH2 0x141E JUMP JUMPDEST PUSH2 0x17C5 PUSH1 0x40 DUP4 ADD DUP5 PUSH2 0x1560 JUMP JUMPDEST SWAP5 SWAP4 POP POP POP POP JUMP JUMPDEST PUSH1 0x0 PUSH1 0x20 DUP3 ADD SWAP1 POP PUSH2 0x17E2 PUSH1 0x0 DUP4 ADD DUP5 PUSH2 0x162D JUMP JUMPDEST SWAP3 SWAP2 POP POP JUMP JUMPDEST PUSH1 0x0 PUSH1 0x20 DUP3 ADD SWAP1 POP PUSH2 0x17FD PUSH1 0x0 DUP4 ADD DUP5 PUSH2 0x1560 JUMP JUMPDEST SWAP3 SWAP2 POP POP JUMP JUMPDEST PUSH32 0x4E487B7100000000000000000000000000000000000000000000000000000000 PUSH1 0x0 MSTORE PUSH1 0x22 PUSH1 0x4 MSTORE PUSH1 0x24 PUSH1 0x0 REVERT JUMPDEST PUSH1 0x0 PUSH1 0x2 DUP3 DIV SWAP1 POP PUSH1 0x1 DUP3 AND DUP1 PUSH2 0x184A JUMPI PUSH1 0x7F DUP3 AND SWAP2 POP JUMPDEST PUSH1 0x20 DUP3 LT DUP2 SUB PUSH2 0x185D JUMPI PUSH2 0x185C PUSH2 0x1803 JUMP JUMPDEST JUMPDEST POP SWAP2 SWAP1 POP JUMP JUMPDEST PUSH1 0x0 DUP2 SWAP1 POP DUP2 PUSH1 0x0 MSTORE PUSH1 0x20 PUSH1 0x0 KECCAK256 SWAP1 POP SWAP2 SWAP1 POP JUMP JUMPDEST PUSH1 0x0 PUSH1 0x20 PUSH1 0x1F DUP4 ADD DIV SWAP1 POP SWAP2 SWAP1 POP JUMP JUMPDEST PUSH1 0x0 DUP3 DUP3 SHL SWAP1 POP SWAP3 SWAP2 POP POP JUMP JUMPDEST PUSH1 0x0 PUSH1 0x8 DUP4 MUL PUSH2 0x18C5 PUSH32 0xFFFFFFFFFFFFFFFFFFFFFFFFFFFFFFFFFFFFFFFFFFFFFFFFFFFFFFFFFFFFFFFF DUP3 PUSH2 0x1888 JUMP JUMPDEST PUSH2 0x18CF DUP7 DUP4 PUSH2 0x1888 JUMP JUMPDEST SWAP6 POP DUP1 NOT DUP5 AND SWAP4 POP DUP1 DUP7 AND DUP5 OR SWAP3 POP POP POP SWAP4 SWAP3 POP POP POP JUMP JUMPDEST PUSH1 0x0 DUP2 SWAP1 POP SWAP2 SWAP1 POP JUMP JUMPDEST PUSH1 0x0 PUSH2 0x190C PUSH2 0x1907 PUSH2 0x1902 DUP5 PUSH2 0x1389 JUMP JUMPDEST PUSH2 0x18E7 JUMP JUMPDEST PUSH2 0x1389 JUMP JUMPDEST SWAP1 POP SWAP2 SWAP1 POP JUMP JUMPDEST PUSH1 0x0 DUP2 SWAP1 POP SWAP2 SWAP1 POP JUMP JUMPDEST PUSH2 0x1926 DUP4 PUSH2 0x18F1 JUMP JUMPDEST PUSH2 0x193A PUSH2 0x1932 DUP3 PUSH2 0x1913 JUMP JUMPDEST DUP5 DUP5 SLOAD PUSH2 0x1895 JUMP JUMPDEST DUP3 SSTORE POP POP POP POP JUMP JUMPDEST PUSH1 0x0 SWAP1 JUMP JUMPDEST PUSH2 0x194F PUSH2 0x1942 JUMP JUMPDEST PUSH2 0x195A DUP2 DUP5 DUP5 PUSH2 0x191D JUMP JUMPDEST POP POP POP JUMP JUMPDEST JUMPDEST DUP2 DUP2 LT ISZERO PUSH2 0x197E JUMPI PUSH2 0x1973 PUSH1 0x0 DUP3 PUSH2 0x1947 JUMP JUMPDEST PUSH1 0x1 DUP2 ADD SWAP1 POP PUSH2 0x1960 JUMP JUMPDEST POP POP JUMP JUMPDEST PUSH1 0x1F DUP3 GT ISZERO PUSH2 0x19C3 JUMPI PUSH2 0x1994 DUP2 PUSH2 0x1863 JUMP JUMPDEST PUSH2 0x199D DUP5 PUSH2 0x1878 JUMP JUMPDEST DUP2 ADD PUSH1 0x20 DUP6 LT ISZERO PUSH2 0x19AC JUMPI DUP2 SWAP1 POP JUMPDEST PUSH2 0x19C0 PUSH2 0x19B8 DUP6 PUSH2 0x1878 JUMP JUMPDEST DUP4 ADD DUP3 PUSH2 0x195F JUMP JUMPDEST POP POP JUMPDEST POP POP POP JUMP JUMPDEST PUSH1 0x0 DUP3 DUP3 SHR SWAP1 POP SWAP3 SWAP2 POP POP JUMP JUMPDEST PUSH1 0x0 PUSH2 0x19E6 PUSH1 0x0 NOT DUP5 PUSH1 0x8 MUL PUSH2 0x19C8 JUMP JUMPDEST NOT DUP1 DUP4 AND SWAP2 POP POP SWAP3 SWAP2 POP POP JUMP JUMPDEST PUSH1 0x0 PUSH2 0x19FF DUP4 DUP4 PUSH2 0x19D5 JUMP JUMPDEST SWAP2 POP DUP3 PUSH1 0x2 MUL DUP3 OR SWAP1 POP SWAP3 SWAP2 POP POP JUMP JUMPDEST PUSH2 0x1A18 DUP3 PUSH2 0x113C JUMP JUMPDEST PUSH8 0xFFFFFFFFFFFFFFFF DUP2 GT ISZERO PUSH2 0x1A31 JUMPI PUSH2 0x1A30 PUSH2 0x1215 JUMP JUMPDEST JUMPDEST PUSH2 0x1A3B DUP3 SLOAD PUSH2 0x1832 JUMP JUMPDEST PUSH2 0x1A46 DUP3 DUP3 DUP6 PUSH2 0x1982 JUMP JUMPDEST PUSH1 0x0 PUSH1 0x20 SWAP1 POP PUSH1 0x1F DUP4 GT PUSH1 0x1 DUP2 EQ PUSH2 0x1A79 JUMPI PUSH1 0x0 DUP5 ISZERO PUSH2 0x1A67 JUMPI DUP3 DUP8 ADD MLOAD SWAP1 POP JUMPDEST PUSH2 0x1A71 DUP6 DUP3 PUSH2 0x19F3 JUMP JUMPDEST DUP7 SSTORE POP PUSH2 0x1AD9 JUMP JUMPDEST PUSH1 0x1F NOT DUP5 AND PUSH2 0x1A87 DUP7 PUSH2 0x1863 JUMP JUMPDEST PUSH1 0x0 JUMPDEST DUP3 DUP2 LT ISZERO PUSH2 0x1AAF JUMPI DUP5 DUP10 ADD MLOAD DUP3 SSTORE PUSH1 0x1 DUP3 ADD SWAP2 POP PUSH1 0x20 DUP6 ADD SWAP5 POP PUSH1 0x20 DUP2 ADD SWAP1 POP PUSH2 0x1A8A JUMP JUMPDEST DUP7 DUP4 LT ISZERO PUSH2 0x1ACC JUMPI DUP5 DUP10 ADD MLOAD PUSH2 0x1AC8 PUSH1 0x1F DUP10 AND DUP3 PUSH2 0x19D5 JUMP JUMPDEST DUP4 SSTORE POP JUMPDEST PUSH1 0x1 PUSH1 0x2 DUP9 MUL ADD DUP9 SSTORE POP POP POP JUMPDEST POP POP POP POP POP POP JUMP INVALID LOG2 PUSH5 0x6970667358 0x22 SLT KECCAK256 0xD8 SLT 0xC5 CALLDATALOAD PUSH13 0xA1074DB3CA99C94465E96A7822 PUSH8 0xB1176ADD27E66C8F SWAP8 SWAP11 0xD1 PUSH23 0x9364736F6C634300080F0033A264697066735822122025 0x4E SUB 0xF 0x49 OR DELEGATECALL 0xD4 DUP14 ISZERO MSTORE MSIZE 0x2F RETURN 0xBA 0xB7 0xC 0xD3 0xE2 TIMESTAMP ADDRESS EXTCODEHASH 0xEE MSIZE 0xC7 SELFDESTRUCT PUSH1 0x70 0xCF DUP16 LT GAS PUSH5 0x736F6C6343 STOP ADDMOD 0xF STOP CALLER "},"gasEstimates":{"creation":{"codeDepositCost":"2418400","executionCost":"2598","totalCost":"2420998"},"external":{"allTasks(uint256)":"4934","createTask(string,string,string,string[],string[])":"infinite","getAllTasks()":"infinite"}},"methodIdentifiers":{"allTasks(uint256)":"3f90b454","createTask(string,string,string,string[],string[])":"d01d4764","getAllTasks()":"779900b4"}},"storageLayout":{"storage":[{"astId":13,"contract":"Task.sol:TaskFactory","label":"allTasks","offset":0,"slot":"0","type":"t_array(t_address)dyn_storage"}],"types":{"t_address":{"encoding":"inplace","label":"address","numberOfBytes":"20"},"t_array(t_address)dyn_storage":{"base":"t_address","encoding":"dynamic_array","label":"address[]","numberOfBytes":"32"}}},"userdoc":{"kind":"user","methods":{},"version":1}}