{"abi":[{"inputs":[{"internalType":"uint256","name":"","type":"uint256"}],"name":"allTasks","outputs":[{"internalType":"address","name":"","type":"address"}],"stateMutability":"view","type":"function"},{"inputs":[{"internalType":"string","name":"header","type":"string"},{"internalType":"string","name":"description","type":"string"},{"internalType":"string[]","name":"files","type":"string[]"},{"internalType":"string[]","name":"hashtags","type":"string[]"}],"name":"createTask","outputs":[{"internalType":"address","name":"","type":"address"}],"stateMutability":"payable","type":"function"},{"inputs":[],"name":"getAllTasks","outputs":[{"internalType":"address[]","name":"","type":"address[]"}],"stateMutability":"view","type":"function"}],"devdoc":{"kind":"dev","methods":{},"version":1},"evm":{"assembly":"    /* \"Task.sol\":60:603  contract TaskFactory {... */\n  mstore(0x40, 0x80)\n  callvalue\n  dup1\n  iszero\n  tag_1\n  jumpi\n  0x00\n  dup1\n  revert\ntag_1:\n  pop\n  dataSize(sub_0)\n  dup1\n  dataOffset(sub_0)\n  0x00\n  codecopy\n  0x00\n  return\nstop\n\nsub_0: assembly {\n        /* \"Task.sol\":60:603  contract TaskFactory {... */\n      mstore(0x40, 0x80)\n      jumpi(tag_1, lt(calldatasize, 0x04))\n      shr(0xe0, calldataload(0x00))\n      dup1\n      0x3f90b454\n      eq\n      tag_2\n      jumpi\n      dup1\n      0x779900b4\n      eq\n      tag_3\n      jumpi\n      dup1\n      0xf6654663\n      eq\n      tag_4\n      jumpi\n    tag_1:\n      0x00\n      dup1\n      revert\n        /* \"Task.sol\":88:113  address[] public allTasks */\n    tag_2:\n      callvalue\n      dup1\n      iszero\n      tag_5\n      jumpi\n      0x00\n      dup1\n      revert\n    tag_5:\n      pop\n      tag_6\n      0x04\n      dup1\n      calldatasize\n      sub\n      dup2\n      add\n      swap1\n      tag_7\n      swap2\n      swap1\n      tag_8\n      jump\t// in\n    tag_7:\n      tag_9\n      jump\t// in\n    tag_6:\n      mload(0x40)\n      tag_10\n      swap2\n      swap1\n      tag_11\n      jump\t// in\n    tag_10:\n      mload(0x40)\n      dup1\n      swap2\n      sub\n      swap1\n      return\n        /* \"Task.sol\":505:600  function getAllTasks() public view returns(address[] memory) {... */\n    tag_3:\n      callvalue\n      dup1\n      iszero\n      tag_12\n      jumpi\n      0x00\n      dup1\n      revert\n    tag_12:\n      pop\n      tag_13\n      tag_14\n      jump\t// in\n    tag_13:\n      mload(0x40)\n      tag_15\n      swap2\n      swap1\n      tag_16\n      jump\t// in\n    tag_15:\n      mload(0x40)\n      dup1\n      swap2\n      sub\n      swap1\n      return\n        /* \"Task.sol\":122:497  function createTask(string memory header, string memory description, string[] memory files, string[] memory hashtags) public payable returns(address) {... */\n    tag_4:\n      tag_17\n      0x04\n      dup1\n      calldatasize\n      sub\n      dup2\n      add\n      swap1\n      tag_18\n      swap2\n      swap1\n      tag_19\n      jump\t// in\n    tag_18:\n      tag_20\n      jump\t// in\n    tag_17:\n      mload(0x40)\n      tag_21\n      swap2\n      swap1\n      tag_11\n      jump\t// in\n    tag_21:\n      mload(0x40)\n      dup1\n      swap2\n      sub\n      swap1\n      return\n        /* \"Task.sol\":88:113  address[] public allTasks */\n    tag_9:\n      0x00\n      dup2\n      dup2\n      sload\n      dup2\n      lt\n      tag_22\n      jumpi\n      0x00\n      dup1\n      revert\n    tag_22:\n      swap1\n      0x00\n      mstore\n      keccak256(0x00, 0x20)\n      add\n      0x00\n      swap2\n      pop\n      sload\n      swap1\n      0x0100\n      exp\n      swap1\n      div\n      0xffffffffffffffffffffffffffffffffffffffff\n      and\n      dup2\n      jump\t// out\n        /* \"Task.sol\":505:600  function getAllTasks() public view returns(address[] memory) {... */\n    tag_14:\n        /* \"Task.sol\":548:564  address[] memory */\n      0x60\n        /* \"Task.sol\":584:592  allTasks */\n      0x00\n        /* \"Task.sol\":577:592  return allTasks */\n      dup1\n      sload\n      dup1\n      0x20\n      mul\n      0x20\n      add\n      mload(0x40)\n      swap1\n      dup2\n      add\n      0x40\n      mstore\n      dup1\n      swap3\n      swap2\n      swap1\n      dup2\n      dup2\n      mstore\n      0x20\n      add\n      dup3\n      dup1\n      sload\n      dup1\n      iszero\n      tag_25\n      jumpi\n      0x20\n      mul\n      dup3\n      add\n      swap2\n      swap1\n      0x00\n      mstore\n      keccak256(0x00, 0x20)\n      swap1\n    tag_26:\n      dup2\n      0x00\n      swap1\n      sload\n      swap1\n      0x0100\n      exp\n      swap1\n      div\n      0xffffffffffffffffffffffffffffffffffffffff\n      and\n      0xffffffffffffffffffffffffffffffffffffffff\n      and\n      dup2\n      mstore\n      0x20\n      add\n      swap1\n      0x01\n      add\n      swap1\n      dup1\n      dup4\n      gt\n      tag_26\n      jumpi\n    tag_25:\n      pop\n      pop\n      pop\n      pop\n      pop\n      swap1\n      pop\n        /* \"Task.sol\":505:600  function getAllTasks() public view returns(address[] memory) {... */\n      swap1\n      jump\t// out\n        /* \"Task.sol\":122:497  function createTask(string memory header, string memory description, string[] memory files, string[] memory hashtags) public payable returns(address) {... */\n    tag_20:\n        /* \"Task.sol\":263:270  address */\n      0x00\n        /* \"Task.sol\":283:295  Task newTask */\n      dup1\n        /* \"Task.sol\":314:323  msg.value */\n      callvalue\n        /* \"Task.sol\":325:331  header */\n      dup7\n        /* \"Task.sol\":333:344  description */\n      dup7\n        /* \"Task.sol\":346:351  files */\n      dup7\n        /* \"Task.sol\":353:361  hashtags */\n      dup7\n        /* \"Task.sol\":363:373  msg.sender */\n      caller\n        /* \"Task.sol\":298:374  new Task{value: msg.value}(header, description, files, hashtags, msg.sender) */\n      mload(0x40)\n      tag_28\n      swap1\n      tag_29\n      jump\t// in\n    tag_28:\n      tag_30\n      swap6\n      swap5\n      swap4\n      swap3\n      swap2\n      swap1\n      tag_31\n      jump\t// in\n    tag_30:\n      mload(0x40)\n      dup1\n      swap2\n      sub\n      swap1\n      dup3\n      create\n      swap1\n      pop\n      dup1\n      iszero\n      dup1\n      iszero\n      tag_32\n      jumpi\n      returndatasize\n      0x00\n      dup1\n      returndatacopy\n      revert(0x00, returndatasize)\n    tag_32:\n      pop\n        /* \"Task.sol\":283:374  Task newTask = new Task{value: msg.value}(header, description, files, hashtags, msg.sender) */\n      swap1\n      pop\n        /* \"Task.sol\":385:404  address taskAddress */\n      0x00\n        /* \"Task.sol\":415:422  newTask */\n      dup2\n        /* \"Task.sol\":385:423  address taskAddress = address(newTask) */\n      swap1\n      pop\n        /* \"Task.sol\":434:442  allTasks */\n      0x00\n        /* \"Task.sol\":448:459  taskAddress */\n      dup2\n        /* \"Task.sol\":434:460  allTasks.push(taskAddress) */\n      swap1\n      dup1\n      0x01\n      dup2\n      sload\n      add\n      dup1\n      dup3\n      sstore\n      dup1\n      swap2\n      pop\n      pop\n      0x01\n      swap1\n      sub\n      swap1\n      0x00\n      mstore\n      keccak256(0x00, 0x20)\n      add\n      0x00\n      swap1\n      swap2\n      swap1\n      swap2\n      swap1\n      swap2\n      0x0100\n      exp\n      dup2\n      sload\n      dup2\n      0xffffffffffffffffffffffffffffffffffffffff\n      mul\n      not\n      and\n      swap1\n      dup4\n      0xffffffffffffffffffffffffffffffffffffffff\n      and\n      mul\n      or\n      swap1\n      sstore\n      pop\n        /* \"Task.sol\":478:489  taskAddress */\n      dup1\n        /* \"Task.sol\":471:489  return taskAddress */\n      swap3\n      pop\n      pop\n      pop\n        /* \"Task.sol\":122:497  function createTask(string memory header, string memory description, string[] memory files, string[] memory hashtags) public payable returns(address) {... */\n      swap5\n      swap4\n      pop\n      pop\n      pop\n      pop\n      jump\t// out\n    tag_29:\n      dataSize(sub_0)\n      dup1\n      dataOffset(sub_0)\n      dup4\n      codecopy\n      add\n      swap1\n      jump\t// out\n        /* \"#utility.yul\":7:82   */\n    tag_34:\n        /* \"#utility.yul\":40:46   */\n      0x00\n        /* \"#utility.yul\":73:75   */\n      0x40\n        /* \"#utility.yul\":67:76   */\n      mload\n        /* \"#utility.yul\":57:76   */\n      swap1\n      pop\n        /* \"#utility.yul\":7:82   */\n      swap1\n      jump\t// out\n        /* \"#utility.yul\":88:205   */\n    tag_35:\n        /* \"#utility.yul\":197:198   */\n      0x00\n        /* \"#utility.yul\":194:195   */\n      dup1\n        /* \"#utility.yul\":187:199   */\n      revert\n        /* \"#utility.yul\":211:328   */\n    tag_36:\n        /* \"#utility.yul\":320:321   */\n      0x00\n        /* \"#utility.yul\":317:318   */\n      dup1\n        /* \"#utility.yul\":310:322   */\n      revert\n        /* \"#utility.yul\":334:411   */\n    tag_37:\n        /* \"#utility.yul\":371:378   */\n      0x00\n        /* \"#utility.yul\":400:405   */\n      dup2\n        /* \"#utility.yul\":389:405   */\n      swap1\n      pop\n        /* \"#utility.yul\":334:411   */\n      swap2\n      swap1\n      pop\n      jump\t// out\n        /* \"#utility.yul\":417:539   */\n    tag_38:\n        /* \"#utility.yul\":490:514   */\n      tag_82\n        /* \"#utility.yul\":508:513   */\n      dup2\n        /* \"#utility.yul\":490:514   */\n      tag_37\n      jump\t// in\n    tag_82:\n        /* \"#utility.yul\":483:488   */\n      dup2\n        /* \"#utility.yul\":480:515   */\n      eq\n        /* \"#utility.yul\":470:533   */\n      tag_83\n      jumpi\n        /* \"#utility.yul\":529:530   */\n      0x00\n        /* \"#utility.yul\":526:527   */\n      dup1\n        /* \"#utility.yul\":519:531   */\n      revert\n        /* \"#utility.yul\":470:533   */\n    tag_83:\n        /* \"#utility.yul\":417:539   */\n      pop\n      jump\t// out\n        /* \"#utility.yul\":545:684   */\n    tag_39:\n        /* \"#utility.yul\":591:596   */\n      0x00\n        /* \"#utility.yul\":629:635   */\n      dup2\n        /* \"#utility.yul\":616:636   */\n      calldataload\n        /* \"#utility.yul\":607:636   */\n      swap1\n      pop\n        /* \"#utility.yul\":645:678   */\n      tag_85\n        /* \"#utility.yul\":672:677   */\n      dup2\n        /* \"#utility.yul\":645:678   */\n      tag_38\n      jump\t// in\n    tag_85:\n        /* \"#utility.yul\":545:684   */\n      swap3\n      swap2\n      pop\n      pop\n      jump\t// out\n        /* \"#utility.yul\":690:1019   */\n    tag_8:\n        /* \"#utility.yul\":749:755   */\n      0x00\n        /* \"#utility.yul\":798:800   */\n      0x20\n        /* \"#utility.yul\":786:795   */\n      dup3\n        /* \"#utility.yul\":777:784   */\n      dup5\n        /* \"#utility.yul\":773:796   */\n      sub\n        /* \"#utility.yul\":769:801   */\n      slt\n        /* \"#utility.yul\":766:885   */\n      iszero\n      tag_87\n      jumpi\n        /* \"#utility.yul\":804:883   */\n      tag_88\n      tag_35\n      jump\t// in\n    tag_88:\n        /* \"#utility.yul\":766:885   */\n    tag_87:\n        /* \"#utility.yul\":924:925   */\n      0x00\n        /* \"#utility.yul\":949:1002   */\n      tag_89\n        /* \"#utility.yul\":994:1001   */\n      dup5\n        /* \"#utility.yul\":985:991   */\n      dup3\n        /* \"#utility.yul\":974:983   */\n      dup6\n        /* \"#utility.yul\":970:992   */\n      add\n        /* \"#utility.yul\":949:1002   */\n      tag_39\n      jump\t// in\n    tag_89:\n        /* \"#utility.yul\":939:1002   */\n      swap2\n      pop\n        /* \"#utility.yul\":895:1012   */\n      pop\n        /* \"#utility.yul\":690:1019   */\n      swap3\n      swap2\n      pop\n      pop\n      jump\t// out\n        /* \"#utility.yul\":1025:1151   */\n    tag_40:\n        /* \"#utility.yul\":1062:1069   */\n      0x00\n        /* \"#utility.yul\":1102:1144   */\n      0xffffffffffffffffffffffffffffffffffffffff\n        /* \"#utility.yul\":1095:1100   */\n      dup3\n        /* \"#utility.yul\":1091:1145   */\n      and\n        /* \"#utility.yul\":1080:1145   */\n      swap1\n      pop\n        /* \"#utility.yul\":1025:1151   */\n      swap2\n      swap1\n      pop\n      jump\t// out\n        /* \"#utility.yul\":1157:1253   */\n    tag_41:\n        /* \"#utility.yul\":1194:1201   */\n      0x00\n        /* \"#utility.yul\":1223:1247   */\n      tag_92\n        /* \"#utility.yul\":1241:1246   */\n      dup3\n        /* \"#utility.yul\":1223:1247   */\n      tag_40\n      jump\t// in\n    tag_92:\n        /* \"#utility.yul\":1212:1247   */\n      swap1\n      pop\n        /* \"#utility.yul\":1157:1253   */\n      swap2\n      swap1\n      pop\n      jump\t// out\n        /* \"#utility.yul\":1259:1377   */\n    tag_42:\n        /* \"#utility.yul\":1346:1370   */\n      tag_94\n        /* \"#utility.yul\":1364:1369   */\n      dup2\n        /* \"#utility.yul\":1346:1370   */\n      tag_41\n      jump\t// in\n    tag_94:\n        /* \"#utility.yul\":1341:1344   */\n      dup3\n        /* \"#utility.yul\":1334:1371   */\n      mstore\n        /* \"#utility.yul\":1259:1377   */\n      pop\n      pop\n      jump\t// out\n        /* \"#utility.yul\":1383:1605   */\n    tag_11:\n        /* \"#utility.yul\":1476:1480   */\n      0x00\n        /* \"#utility.yul\":1514:1516   */\n      0x20\n        /* \"#utility.yul\":1503:1512   */\n      dup3\n        /* \"#utility.yul\":1499:1517   */\n      add\n        /* \"#utility.yul\":1491:1517   */\n      swap1\n      pop\n        /* \"#utility.yul\":1527:1598   */\n      tag_96\n        /* \"#utility.yul\":1595:1596   */\n      0x00\n        /* \"#utility.yul\":1584:1593   */\n      dup4\n        /* \"#utility.yul\":1580:1597   */\n      add\n        /* \"#utility.yul\":1571:1577   */\n      dup5\n        /* \"#utility.yul\":1527:1598   */\n      tag_42\n      jump\t// in\n    tag_96:\n        /* \"#utility.yul\":1383:1605   */\n      swap3\n      swap2\n      pop\n      pop\n      jump\t// out\n        /* \"#utility.yul\":1611:1725   */\n    tag_43:\n        /* \"#utility.yul\":1678:1684   */\n      0x00\n        /* \"#utility.yul\":1712:1717   */\n      dup2\n        /* \"#utility.yul\":1706:1718   */\n      mload\n        /* \"#utility.yul\":1696:1718   */\n      swap1\n      pop\n        /* \"#utility.yul\":1611:1725   */\n      swap2\n      swap1\n      pop\n      jump\t// out\n        /* \"#utility.yul\":1731:1915   */\n    tag_44:\n        /* \"#utility.yul\":1830:1841   */\n      0x00\n        /* \"#utility.yul\":1864:1870   */\n      dup3\n        /* \"#utility.yul\":1859:1862   */\n      dup3\n        /* \"#utility.yul\":1852:1871   */\n      mstore\n        /* \"#utility.yul\":1904:1908   */\n      0x20\n        /* \"#utility.yul\":1899:1902   */\n      dup3\n        /* \"#utility.yul\":1895:1909   */\n      add\n        /* \"#utility.yul\":1880:1909   */\n      swap1\n      pop\n        /* \"#utility.yul\":1731:1915   */\n      swap3\n      swap2\n      pop\n      pop\n      jump\t// out\n        /* \"#utility.yul\":1921:2053   */\n    tag_45:\n        /* \"#utility.yul\":1988:1992   */\n      0x00\n        /* \"#utility.yul\":2011:2014   */\n      dup2\n        /* \"#utility.yul\":2003:2014   */\n      swap1\n      pop\n        /* \"#utility.yul\":2041:2045   */\n      0x20\n        /* \"#utility.yul\":2036:2039   */\n      dup3\n        /* \"#utility.yul\":2032:2046   */\n      add\n        /* \"#utility.yul\":2024:2046   */\n      swap1\n      pop\n        /* \"#utility.yul\":1921:2053   */\n      swap2\n      swap1\n      pop\n      jump\t// out\n        /* \"#utility.yul\":2059:2167   */\n    tag_46:\n        /* \"#utility.yul\":2136:2160   */\n      tag_101\n        /* \"#utility.yul\":2154:2159   */\n      dup2\n        /* \"#utility.yul\":2136:2160   */\n      tag_41\n      jump\t// in\n    tag_101:\n        /* \"#utility.yul\":2131:2134   */\n      dup3\n        /* \"#utility.yul\":2124:2161   */\n      mstore\n        /* \"#utility.yul\":2059:2167   */\n      pop\n      pop\n      jump\t// out\n        /* \"#utility.yul\":2173:2352   */\n    tag_47:\n        /* \"#utility.yul\":2242:2252   */\n      0x00\n        /* \"#utility.yul\":2263:2309   */\n      tag_103\n        /* \"#utility.yul\":2305:2308   */\n      dup4\n        /* \"#utility.yul\":2297:2303   */\n      dup4\n        /* \"#utility.yul\":2263:2309   */\n      tag_46\n      jump\t// in\n    tag_103:\n        /* \"#utility.yul\":2341:2345   */\n      0x20\n        /* \"#utility.yul\":2336:2339   */\n      dup4\n        /* \"#utility.yul\":2332:2346   */\n      add\n        /* \"#utility.yul\":2318:2346   */\n      swap1\n      pop\n        /* \"#utility.yul\":2173:2352   */\n      swap3\n      swap2\n      pop\n      pop\n      jump\t// out\n        /* \"#utility.yul\":2358:2471   */\n    tag_48:\n        /* \"#utility.yul\":2428:2432   */\n      0x00\n        /* \"#utility.yul\":2460:2464   */\n      0x20\n        /* \"#utility.yul\":2455:2458   */\n      dup3\n        /* \"#utility.yul\":2451:2465   */\n      add\n        /* \"#utility.yul\":2443:2465   */\n      swap1\n      pop\n        /* \"#utility.yul\":2358:2471   */\n      swap2\n      swap1\n      pop\n      jump\t// out\n        /* \"#utility.yul\":2507:3239   */\n    tag_49:\n        /* \"#utility.yul\":2626:2629   */\n      0x00\n        /* \"#utility.yul\":2655:2709   */\n      tag_106\n        /* \"#utility.yul\":2703:2708   */\n      dup3\n        /* \"#utility.yul\":2655:2709   */\n      tag_43\n      jump\t// in\n    tag_106:\n        /* \"#utility.yul\":2725:2811   */\n      tag_107\n        /* \"#utility.yul\":2804:2810   */\n      dup2\n        /* \"#utility.yul\":2799:2802   */\n      dup6\n        /* \"#utility.yul\":2725:2811   */\n      tag_44\n      jump\t// in\n    tag_107:\n        /* \"#utility.yul\":2718:2811   */\n      swap4\n      pop\n        /* \"#utility.yul\":2835:2891   */\n      tag_108\n        /* \"#utility.yul\":2885:2890   */\n      dup4\n        /* \"#utility.yul\":2835:2891   */\n      tag_45\n      jump\t// in\n    tag_108:\n        /* \"#utility.yul\":2914:2921   */\n      dup1\n        /* \"#utility.yul\":2945:2946   */\n      0x00\n        /* \"#utility.yul\":2930:3214   */\n    tag_109:\n        /* \"#utility.yul\":2955:2961   */\n      dup4\n        /* \"#utility.yul\":2952:2953   */\n      dup2\n        /* \"#utility.yul\":2949:2962   */\n      lt\n        /* \"#utility.yul\":2930:3214   */\n      iszero\n      tag_111\n      jumpi\n        /* \"#utility.yul\":3031:3037   */\n      dup2\n        /* \"#utility.yul\":3025:3038   */\n      mload\n        /* \"#utility.yul\":3058:3121   */\n      tag_112\n        /* \"#utility.yul\":3117:3120   */\n      dup9\n        /* \"#utility.yul\":3102:3115   */\n      dup3\n        /* \"#utility.yul\":3058:3121   */\n      tag_47\n      jump\t// in\n    tag_112:\n        /* \"#utility.yul\":3051:3121   */\n      swap8\n      pop\n        /* \"#utility.yul\":3144:3204   */\n      tag_113\n        /* \"#utility.yul\":3197:3203   */\n      dup4\n        /* \"#utility.yul\":3144:3204   */\n      tag_48\n      jump\t// in\n    tag_113:\n        /* \"#utility.yul\":3134:3204   */\n      swap3\n      pop\n        /* \"#utility.yul\":2990:3214   */\n      pop\n        /* \"#utility.yul\":2977:2978   */\n      0x01\n        /* \"#utility.yul\":2974:2975   */\n      dup2\n        /* \"#utility.yul\":2970:2979   */\n      add\n        /* \"#utility.yul\":2965:2979   */\n      swap1\n      pop\n        /* \"#utility.yul\":2930:3214   */\n      jump(tag_109)\n    tag_111:\n        /* \"#utility.yul\":2934:2948   */\n      pop\n        /* \"#utility.yul\":3230:3233   */\n      dup6\n        /* \"#utility.yul\":3223:3233   */\n      swap4\n      pop\n        /* \"#utility.yul\":2631:3239   */\n      pop\n      pop\n      pop\n        /* \"#utility.yul\":2507:3239   */\n      swap3\n      swap2\n      pop\n      pop\n      jump\t// out\n        /* \"#utility.yul\":3245:3618   */\n    tag_16:\n        /* \"#utility.yul\":3388:3392   */\n      0x00\n        /* \"#utility.yul\":3426:3428   */\n      0x20\n        /* \"#utility.yul\":3415:3424   */\n      dup3\n        /* \"#utility.yul\":3411:3429   */\n      add\n        /* \"#utility.yul\":3403:3429   */\n      swap1\n      pop\n        /* \"#utility.yul\":3475:3484   */\n      dup2\n        /* \"#utility.yul\":3469:3473   */\n      dup2\n        /* \"#utility.yul\":3465:3485   */\n      sub\n        /* \"#utility.yul\":3461:3462   */\n      0x00\n        /* \"#utility.yul\":3450:3459   */\n      dup4\n        /* \"#utility.yul\":3446:3463   */\n      add\n        /* \"#utility.yul\":3439:3486   */\n      mstore\n        /* \"#utility.yul\":3503:3611   */\n      tag_115\n        /* \"#utility.yul\":3606:3610   */\n      dup2\n        /* \"#utility.yul\":3597:3603   */\n      dup5\n        /* \"#utility.yul\":3503:3611   */\n      tag_49\n      jump\t// in\n    tag_115:\n        /* \"#utility.yul\":3495:3611   */\n      swap1\n      pop\n        /* \"#utility.yul\":3245:3618   */\n      swap3\n      swap2\n      pop\n      pop\n      jump\t// out\n        /* \"#utility.yul\":3624:3741   */\n    tag_50:\n        /* \"#utility.yul\":3733:3734   */\n      0x00\n        /* \"#utility.yul\":3730:3731   */\n      dup1\n        /* \"#utility.yul\":3723:3735   */\n      revert\n        /* \"#utility.yul\":3747:3864   */\n    tag_51:\n        /* \"#utility.yul\":3856:3857   */\n      0x00\n        /* \"#utility.yul\":3853:3854   */\n      dup1\n        /* \"#utility.yul\":3846:3858   */\n      revert\n        /* \"#utility.yul\":3870:3972   */\n    tag_52:\n        /* \"#utility.yul\":3911:3917   */\n      0x00\n        /* \"#utility.yul\":3962:3964   */\n      0x1f\n        /* \"#utility.yul\":3958:3965   */\n      not\n        /* \"#utility.yul\":3953:3955   */\n      0x1f\n        /* \"#utility.yul\":3946:3951   */\n      dup4\n        /* \"#utility.yul\":3942:3956   */\n      add\n        /* \"#utility.yul\":3938:3966   */\n      and\n        /* \"#utility.yul\":3928:3966   */\n      swap1\n      pop\n        /* \"#utility.yul\":3870:3972   */\n      swap2\n      swap1\n      pop\n      jump\t// out\n        /* \"#utility.yul\":3978:4158   */\n    tag_53:\n        /* \"#utility.yul\":4026:4103   */\n      0x4e487b7100000000000000000000000000000000000000000000000000000000\n        /* \"#utility.yul\":4023:4024   */\n      0x00\n        /* \"#utility.yul\":4016:4104   */\n      mstore\n        /* \"#utility.yul\":4123:4127   */\n      0x41\n        /* \"#utility.yul\":4120:4121   */\n      0x04\n        /* \"#utility.yul\":4113:4128   */\n      mstore\n        /* \"#utility.yul\":4147:4151   */\n      0x24\n        /* \"#utility.yul\":4144:4145   */\n      0x00\n        /* \"#utility.yul\":4137:4152   */\n      revert\n        /* \"#utility.yul\":4164:4445   */\n    tag_54:\n        /* \"#utility.yul\":4247:4274   */\n      tag_121\n        /* \"#utility.yul\":4269:4273   */\n      dup3\n        /* \"#utility.yul\":4247:4274   */\n      tag_52\n      jump\t// in\n    tag_121:\n        /* \"#utility.yul\":4239:4245   */\n      dup2\n        /* \"#utility.yul\":4235:4275   */\n      add\n        /* \"#utility.yul\":4377:4383   */\n      dup2\n        /* \"#utility.yul\":4365:4375   */\n      dup2\n        /* \"#utility.yul\":4362:4384   */\n      lt\n        /* \"#utility.yul\":4341:4359   */\n      0xffffffffffffffff\n        /* \"#utility.yul\":4329:4339   */\n      dup3\n        /* \"#utility.yul\":4326:4360   */\n      gt\n        /* \"#utility.yul\":4323:4385   */\n      or\n        /* \"#utility.yul\":4320:4408   */\n      iszero\n      tag_122\n      jumpi\n        /* \"#utility.yul\":4388:4406   */\n      tag_123\n      tag_53\n      jump\t// in\n    tag_123:\n        /* \"#utility.yul\":4320:4408   */\n    tag_122:\n        /* \"#utility.yul\":4428:4438   */\n      dup1\n        /* \"#utility.yul\":4424:4426   */\n      0x40\n        /* \"#utility.yul\":4417:4439   */\n      mstore\n        /* \"#utility.yul\":4207:4445   */\n      pop\n        /* \"#utility.yul\":4164:4445   */\n      pop\n      pop\n      jump\t// out\n        /* \"#utility.yul\":4451:4580   */\n    tag_55:\n        /* \"#utility.yul\":4485:4491   */\n      0x00\n        /* \"#utility.yul\":4512:4532   */\n      tag_125\n      tag_34\n      jump\t// in\n    tag_125:\n        /* \"#utility.yul\":4502:4532   */\n      swap1\n      pop\n        /* \"#utility.yul\":4541:4574   */\n      tag_126\n        /* \"#utility.yul\":4569:4573   */\n      dup3\n        /* \"#utility.yul\":4561:4567   */\n      dup3\n        /* \"#utility.yul\":4541:4574   */\n      tag_54\n      jump\t// in\n    tag_126:\n        /* \"#utility.yul\":4451:4580   */\n      swap2\n      swap1\n      pop\n      jump\t// out\n        /* \"#utility.yul\":4586:4894   */\n    tag_56:\n        /* \"#utility.yul\":4648:4652   */\n      0x00\n        /* \"#utility.yul\":4738:4756   */\n      0xffffffffffffffff\n        /* \"#utility.yul\":4730:4736   */\n      dup3\n        /* \"#utility.yul\":4727:4757   */\n      gt\n        /* \"#utility.yul\":4724:4780   */\n      iszero\n      tag_128\n      jumpi\n        /* \"#utility.yul\":4760:4778   */\n      tag_129\n      tag_53\n      jump\t// in\n    tag_129:\n        /* \"#utility.yul\":4724:4780   */\n    tag_128:\n        /* \"#utility.yul\":4798:4827   */\n      tag_130\n        /* \"#utility.yul\":4820:4826   */\n      dup3\n        /* \"#utility.yul\":4798:4827   */\n      tag_52\n      jump\t// in\n    tag_130:\n        /* \"#utility.yul\":4790:4827   */\n      swap1\n      pop\n        /* \"#utility.yul\":4882:4886   */\n      0x20\n        /* \"#utility.yul\":4876:4880   */\n      dup2\n        /* \"#utility.yul\":4872:4887   */\n      add\n        /* \"#utility.yul\":4864:4887   */\n      swap1\n      pop\n        /* \"#utility.yul\":4586:4894   */\n      swap2\n      swap1\n      pop\n      jump\t// out\n        /* \"#utility.yul\":4900:5054   */\n    tag_57:\n        /* \"#utility.yul\":4984:4990   */\n      dup3\n        /* \"#utility.yul\":4979:4982   */\n      dup2\n        /* \"#utility.yul\":4974:4977   */\n      dup4\n        /* \"#utility.yul\":4961:4991   */\n      calldatacopy\n        /* \"#utility.yul\":5046:5047   */\n      0x00\n        /* \"#utility.yul\":5037:5043   */\n      dup4\n        /* \"#utility.yul\":5032:5035   */\n      dup4\n        /* \"#utility.yul\":5028:5044   */\n      add\n        /* \"#utility.yul\":5021:5048   */\n      mstore\n        /* \"#utility.yul\":4900:5054   */\n      pop\n      pop\n      pop\n      jump\t// out\n        /* \"#utility.yul\":5060:5472   */\n    tag_58:\n        /* \"#utility.yul\":5138:5143   */\n      0x00\n        /* \"#utility.yul\":5163:5229   */\n      tag_133\n        /* \"#utility.yul\":5179:5228   */\n      tag_134\n        /* \"#utility.yul\":5221:5227   */\n      dup5\n        /* \"#utility.yul\":5179:5228   */\n      tag_56\n      jump\t// in\n    tag_134:\n        /* \"#utility.yul\":5163:5229   */\n      tag_55\n      jump\t// in\n    tag_133:\n        /* \"#utility.yul\":5154:5229   */\n      swap1\n      pop\n        /* \"#utility.yul\":5252:5258   */\n      dup3\n        /* \"#utility.yul\":5245:5250   */\n      dup2\n        /* \"#utility.yul\":5238:5259   */\n      mstore\n        /* \"#utility.yul\":5290:5294   */\n      0x20\n        /* \"#utility.yul\":5283:5288   */\n      dup2\n        /* \"#utility.yul\":5279:5295   */\n      add\n        /* \"#utility.yul\":5328:5331   */\n      dup5\n        /* \"#utility.yul\":5319:5325   */\n      dup5\n        /* \"#utility.yul\":5314:5317   */\n      dup5\n        /* \"#utility.yul\":5310:5326   */\n      add\n        /* \"#utility.yul\":5307:5332   */\n      gt\n        /* \"#utility.yul\":5304:5416   */\n      iszero\n      tag_135\n      jumpi\n        /* \"#utility.yul\":5335:5414   */\n      tag_136\n      tag_51\n      jump\t// in\n    tag_136:\n        /* \"#utility.yul\":5304:5416   */\n    tag_135:\n        /* \"#utility.yul\":5425:5466   */\n      tag_137\n        /* \"#utility.yul\":5459:5465   */\n      dup5\n        /* \"#utility.yul\":5454:5457   */\n      dup3\n        /* \"#utility.yul\":5449:5452   */\n      dup6\n        /* \"#utility.yul\":5425:5466   */\n      tag_57\n      jump\t// in\n    tag_137:\n        /* \"#utility.yul\":5144:5472   */\n      pop\n        /* \"#utility.yul\":5060:5472   */\n      swap4\n      swap3\n      pop\n      pop\n      pop\n      jump\t// out\n        /* \"#utility.yul\":5492:5832   */\n    tag_59:\n        /* \"#utility.yul\":5548:5553   */\n      0x00\n        /* \"#utility.yul\":5597:5600   */\n      dup3\n        /* \"#utility.yul\":5590:5594   */\n      0x1f\n        /* \"#utility.yul\":5582:5588   */\n      dup4\n        /* \"#utility.yul\":5578:5595   */\n      add\n        /* \"#utility.yul\":5574:5601   */\n      slt\n        /* \"#utility.yul\":5564:5686   */\n      tag_139\n      jumpi\n        /* \"#utility.yul\":5605:5684   */\n      tag_140\n      tag_50\n      jump\t// in\n    tag_140:\n        /* \"#utility.yul\":5564:5686   */\n    tag_139:\n        /* \"#utility.yul\":5722:5728   */\n      dup2\n        /* \"#utility.yul\":5709:5729   */\n      calldataload\n        /* \"#utility.yul\":5747:5826   */\n      tag_141\n        /* \"#utility.yul\":5822:5825   */\n      dup5\n        /* \"#utility.yul\":5814:5820   */\n      dup3\n        /* \"#utility.yul\":5807:5811   */\n      0x20\n        /* \"#utility.yul\":5799:5805   */\n      dup7\n        /* \"#utility.yul\":5795:5812   */\n      add\n        /* \"#utility.yul\":5747:5826   */\n      tag_58\n      jump\t// in\n    tag_141:\n        /* \"#utility.yul\":5738:5826   */\n      swap2\n      pop\n        /* \"#utility.yul\":5554:5832   */\n      pop\n        /* \"#utility.yul\":5492:5832   */\n      swap3\n      swap2\n      pop\n      pop\n      jump\t// out\n        /* \"#utility.yul\":5838:6159   */\n    tag_60:\n        /* \"#utility.yul\":5925:5929   */\n      0x00\n        /* \"#utility.yul\":6015:6033   */\n      0xffffffffffffffff\n        /* \"#utility.yul\":6007:6013   */\n      dup3\n        /* \"#utility.yul\":6004:6034   */\n      gt\n        /* \"#utility.yul\":6001:6057   */\n      iszero\n      tag_143\n      jumpi\n        /* \"#utility.yul\":6037:6055   */\n      tag_144\n      tag_53\n      jump\t// in\n    tag_144:\n        /* \"#utility.yul\":6001:6057   */\n    tag_143:\n        /* \"#utility.yul\":6087:6091   */\n      0x20\n        /* \"#utility.yul\":6079:6085   */\n      dup3\n        /* \"#utility.yul\":6075:6092   */\n      mul\n        /* \"#utility.yul\":6067:6092   */\n      swap1\n      pop\n        /* \"#utility.yul\":6147:6151   */\n      0x20\n        /* \"#utility.yul\":6141:6145   */\n      dup2\n        /* \"#utility.yul\":6137:6152   */\n      add\n        /* \"#utility.yul\":6129:6152   */\n      swap1\n      pop\n        /* \"#utility.yul\":5838:6159   */\n      swap2\n      swap1\n      pop\n      jump\t// out\n        /* \"#utility.yul\":6165:6282   */\n    tag_61:\n        /* \"#utility.yul\":6274:6275   */\n      0x00\n        /* \"#utility.yul\":6271:6272   */\n      dup1\n        /* \"#utility.yul\":6264:6276   */\n      revert\n        /* \"#utility.yul\":6304:7249   */\n    tag_62:\n        /* \"#utility.yul\":6410:6415   */\n      0x00\n        /* \"#utility.yul\":6435:6526   */\n      tag_147\n        /* \"#utility.yul\":6451:6525   */\n      tag_148\n        /* \"#utility.yul\":6518:6524   */\n      dup5\n        /* \"#utility.yul\":6451:6525   */\n      tag_60\n      jump\t// in\n    tag_148:\n        /* \"#utility.yul\":6435:6526   */\n      tag_55\n      jump\t// in\n    tag_147:\n        /* \"#utility.yul\":6426:6526   */\n      swap1\n      pop\n        /* \"#utility.yul\":6546:6551   */\n      dup1\n        /* \"#utility.yul\":6575:6581   */\n      dup4\n        /* \"#utility.yul\":6568:6573   */\n      dup3\n        /* \"#utility.yul\":6561:6582   */\n      mstore\n        /* \"#utility.yul\":6609:6613   */\n      0x20\n        /* \"#utility.yul\":6602:6607   */\n      dup3\n        /* \"#utility.yul\":6598:6614   */\n      add\n        /* \"#utility.yul\":6591:6614   */\n      swap1\n      pop\n        /* \"#utility.yul\":6662:6666   */\n      0x20\n        /* \"#utility.yul\":6654:6660   */\n      dup5\n        /* \"#utility.yul\":6650:6667   */\n      mul\n        /* \"#utility.yul\":6642:6648   */\n      dup4\n        /* \"#utility.yul\":6638:6668   */\n      add\n        /* \"#utility.yul\":6691:6694   */\n      dup6\n        /* \"#utility.yul\":6683:6689   */\n      dup2\n        /* \"#utility.yul\":6680:6695   */\n      gt\n        /* \"#utility.yul\":6677:6799   */\n      iszero\n      tag_149\n      jumpi\n        /* \"#utility.yul\":6710:6789   */\n      tag_150\n      tag_61\n      jump\t// in\n    tag_150:\n        /* \"#utility.yul\":6677:6799   */\n    tag_149:\n        /* \"#utility.yul\":6825:6831   */\n      dup4\n        /* \"#utility.yul\":6808:7243   */\n    tag_151:\n        /* \"#utility.yul\":6842:6848   */\n      dup2\n        /* \"#utility.yul\":6837:6840   */\n      dup2\n        /* \"#utility.yul\":6834:6849   */\n      lt\n        /* \"#utility.yul\":6808:7243   */\n      iszero\n      tag_153\n      jumpi\n        /* \"#utility.yul\":6931:6934   */\n      dup1\n        /* \"#utility.yul\":6918:6935   */\n      calldataload\n        /* \"#utility.yul\":6967:6985   */\n      0xffffffffffffffff\n        /* \"#utility.yul\":6954:6965   */\n      dup2\n        /* \"#utility.yul\":6951:6986   */\n      gt\n        /* \"#utility.yul\":6948:7070   */\n      iszero\n      tag_154\n      jumpi\n        /* \"#utility.yul\":6989:7068   */\n      tag_155\n      tag_50\n      jump\t// in\n    tag_155:\n        /* \"#utility.yul\":6948:7070   */\n    tag_154:\n        /* \"#utility.yul\":7113:7124   */\n      dup1\n        /* \"#utility.yul\":7105:7111   */\n      dup7\n        /* \"#utility.yul\":7101:7125   */\n      add\n        /* \"#utility.yul\":7151:7198   */\n      tag_156\n        /* \"#utility.yul\":7194:7197   */\n      dup10\n        /* \"#utility.yul\":7182:7192   */\n      dup3\n        /* \"#utility.yul\":7151:7198   */\n      tag_59\n      jump\t// in\n    tag_156:\n        /* \"#utility.yul\":7146:7149   */\n      dup6\n        /* \"#utility.yul\":7139:7199   */\n      mstore\n        /* \"#utility.yul\":7228:7232   */\n      0x20\n        /* \"#utility.yul\":7223:7226   */\n      dup6\n        /* \"#utility.yul\":7219:7233   */\n      add\n        /* \"#utility.yul\":7212:7233   */\n      swap5\n      pop\n        /* \"#utility.yul\":6884:7243   */\n      pop\n      pop\n        /* \"#utility.yul\":6868:6872   */\n      0x20\n        /* \"#utility.yul\":6863:6866   */\n      dup2\n        /* \"#utility.yul\":6859:6873   */\n      add\n        /* \"#utility.yul\":6852:6873   */\n      swap1\n      pop\n        /* \"#utility.yul\":6808:7243   */\n      jump(tag_151)\n    tag_153:\n        /* \"#utility.yul\":6812:6833   */\n      pop\n        /* \"#utility.yul\":6416:7249   */\n      pop\n      pop\n        /* \"#utility.yul\":6304:7249   */\n      swap4\n      swap3\n      pop\n      pop\n      pop\n      jump\t// out\n        /* \"#utility.yul\":7271:7661   */\n    tag_63:\n        /* \"#utility.yul\":7352:7357   */\n      0x00\n        /* \"#utility.yul\":7401:7404   */\n      dup3\n        /* \"#utility.yul\":7394:7398   */\n      0x1f\n        /* \"#utility.yul\":7386:7392   */\n      dup4\n        /* \"#utility.yul\":7382:7399   */\n      add\n        /* \"#utility.yul\":7378:7405   */\n      slt\n        /* \"#utility.yul\":7368:7490   */\n      tag_158\n      jumpi\n        /* \"#utility.yul\":7409:7488   */\n      tag_159\n      tag_50\n      jump\t// in\n    tag_159:\n        /* \"#utility.yul\":7368:7490   */\n    tag_158:\n        /* \"#utility.yul\":7526:7532   */\n      dup2\n        /* \"#utility.yul\":7513:7533   */\n      calldataload\n        /* \"#utility.yul\":7551:7655   */\n      tag_160\n        /* \"#utility.yul\":7651:7654   */\n      dup5\n        /* \"#utility.yul\":7643:7649   */\n      dup3\n        /* \"#utility.yul\":7636:7640   */\n      0x20\n        /* \"#utility.yul\":7628:7634   */\n      dup7\n        /* \"#utility.yul\":7624:7641   */\n      add\n        /* \"#utility.yul\":7551:7655   */\n      tag_62\n      jump\t// in\n    tag_160:\n        /* \"#utility.yul\":7542:7655   */\n      swap2\n      pop\n        /* \"#utility.yul\":7358:7661   */\n      pop\n        /* \"#utility.yul\":7271:7661   */\n      swap3\n      swap2\n      pop\n      pop\n      jump\t// out\n        /* \"#utility.yul\":7667:9252   */\n    tag_19:\n        /* \"#utility.yul\":7843:7849   */\n      0x00\n        /* \"#utility.yul\":7851:7857   */\n      dup1\n        /* \"#utility.yul\":7859:7865   */\n      0x00\n        /* \"#utility.yul\":7867:7873   */\n      dup1\n        /* \"#utility.yul\":7916:7919   */\n      0x80\n        /* \"#utility.yul\":7904:7913   */\n      dup6\n        /* \"#utility.yul\":7895:7902   */\n      dup8\n        /* \"#utility.yul\":7891:7914   */\n      sub\n        /* \"#utility.yul\":7887:7920   */\n      slt\n        /* \"#utility.yul\":7884:8004   */\n      iszero\n      tag_162\n      jumpi\n        /* \"#utility.yul\":7923:8002   */\n      tag_163\n      tag_35\n      jump\t// in\n    tag_163:\n        /* \"#utility.yul\":7884:8004   */\n    tag_162:\n        /* \"#utility.yul\":8071:8072   */\n      0x00\n        /* \"#utility.yul\":8060:8069   */\n      dup6\n        /* \"#utility.yul\":8056:8073   */\n      add\n        /* \"#utility.yul\":8043:8074   */\n      calldataload\n        /* \"#utility.yul\":8101:8119   */\n      0xffffffffffffffff\n        /* \"#utility.yul\":8093:8099   */\n      dup2\n        /* \"#utility.yul\":8090:8120   */\n      gt\n        /* \"#utility.yul\":8087:8204   */\n      iszero\n      tag_164\n      jumpi\n        /* \"#utility.yul\":8123:8202   */\n      tag_165\n      tag_36\n      jump\t// in\n    tag_165:\n        /* \"#utility.yul\":8087:8204   */\n    tag_164:\n        /* \"#utility.yul\":8228:8291   */\n      tag_166\n        /* \"#utility.yul\":8283:8290   */\n      dup8\n        /* \"#utility.yul\":8274:8280   */\n      dup3\n        /* \"#utility.yul\":8263:8272   */\n      dup9\n        /* \"#utility.yul\":8259:8281   */\n      add\n        /* \"#utility.yul\":8228:8291   */\n      tag_59\n      jump\t// in\n    tag_166:\n        /* \"#utility.yul\":8218:8291   */\n      swap5\n      pop\n        /* \"#utility.yul\":8014:8301   */\n      pop\n        /* \"#utility.yul\":8368:8370   */\n      0x20\n        /* \"#utility.yul\":8357:8366   */\n      dup6\n        /* \"#utility.yul\":8353:8371   */\n      add\n        /* \"#utility.yul\":8340:8372   */\n      calldataload\n        /* \"#utility.yul\":8399:8417   */\n      0xffffffffffffffff\n        /* \"#utility.yul\":8391:8397   */\n      dup2\n        /* \"#utility.yul\":8388:8418   */\n      gt\n        /* \"#utility.yul\":8385:8502   */\n      iszero\n      tag_167\n      jumpi\n        /* \"#utility.yul\":8421:8500   */\n      tag_168\n      tag_36\n      jump\t// in\n    tag_168:\n        /* \"#utility.yul\":8385:8502   */\n    tag_167:\n        /* \"#utility.yul\":8526:8589   */\n      tag_169\n        /* \"#utility.yul\":8581:8588   */\n      dup8\n        /* \"#utility.yul\":8572:8578   */\n      dup3\n        /* \"#utility.yul\":8561:8570   */\n      dup9\n        /* \"#utility.yul\":8557:8579   */\n      add\n        /* \"#utility.yul\":8526:8589   */\n      tag_59\n      jump\t// in\n    tag_169:\n        /* \"#utility.yul\":8516:8589   */\n      swap4\n      pop\n        /* \"#utility.yul\":8311:8599   */\n      pop\n        /* \"#utility.yul\":8666:8668   */\n      0x40\n        /* \"#utility.yul\":8655:8664   */\n      dup6\n        /* \"#utility.yul\":8651:8669   */\n      add\n        /* \"#utility.yul\":8638:8670   */\n      calldataload\n        /* \"#utility.yul\":8697:8715   */\n      0xffffffffffffffff\n        /* \"#utility.yul\":8689:8695   */\n      dup2\n        /* \"#utility.yul\":8686:8716   */\n      gt\n        /* \"#utility.yul\":8683:8800   */\n      iszero\n      tag_170\n      jumpi\n        /* \"#utility.yul\":8719:8798   */\n      tag_171\n      tag_36\n      jump\t// in\n    tag_171:\n        /* \"#utility.yul\":8683:8800   */\n    tag_170:\n        /* \"#utility.yul\":8824:8912   */\n      tag_172\n        /* \"#utility.yul\":8904:8911   */\n      dup8\n        /* \"#utility.yul\":8895:8901   */\n      dup3\n        /* \"#utility.yul\":8884:8893   */\n      dup9\n        /* \"#utility.yul\":8880:8902   */\n      add\n        /* \"#utility.yul\":8824:8912   */\n      tag_63\n      jump\t// in\n    tag_172:\n        /* \"#utility.yul\":8814:8912   */\n      swap3\n      pop\n        /* \"#utility.yul\":8609:8922   */\n      pop\n        /* \"#utility.yul\":8989:8991   */\n      0x60\n        /* \"#utility.yul\":8978:8987   */\n      dup6\n        /* \"#utility.yul\":8974:8992   */\n      add\n        /* \"#utility.yul\":8961:8993   */\n      calldataload\n        /* \"#utility.yul\":9020:9038   */\n      0xffffffffffffffff\n        /* \"#utility.yul\":9012:9018   */\n      dup2\n        /* \"#utility.yul\":9009:9039   */\n      gt\n        /* \"#utility.yul\":9006:9123   */\n      iszero\n      tag_173\n      jumpi\n        /* \"#utility.yul\":9042:9121   */\n      tag_174\n      tag_36\n      jump\t// in\n    tag_174:\n        /* \"#utility.yul\":9006:9123   */\n    tag_173:\n        /* \"#utility.yul\":9147:9235   */\n      tag_175\n        /* \"#utility.yul\":9227:9234   */\n      dup8\n        /* \"#utility.yul\":9218:9224   */\n      dup3\n        /* \"#utility.yul\":9207:9216   */\n      dup9\n        /* \"#utility.yul\":9203:9225   */\n      add\n        /* \"#utility.yul\":9147:9235   */\n      tag_63\n      jump\t// in\n    tag_175:\n        /* \"#utility.yul\":9137:9235   */\n      swap2\n      pop\n        /* \"#utility.yul\":8932:9245   */\n      pop\n        /* \"#utility.yul\":7667:9252   */\n      swap3\n      swap6\n      swap2\n      swap5\n      pop\n      swap3\n      pop\n      jump\t// out\n        /* \"#utility.yul\":9258:9357   */\n    tag_64:\n        /* \"#utility.yul\":9310:9316   */\n      0x00\n        /* \"#utility.yul\":9344:9349   */\n      dup2\n        /* \"#utility.yul\":9338:9350   */\n      mload\n        /* \"#utility.yul\":9328:9350   */\n      swap1\n      pop\n        /* \"#utility.yul\":9258:9357   */\n      swap2\n      swap1\n      pop\n      jump\t// out\n        /* \"#utility.yul\":9363:9532   */\n    tag_65:\n        /* \"#utility.yul\":9447:9458   */\n      0x00\n        /* \"#utility.yul\":9481:9487   */\n      dup3\n        /* \"#utility.yul\":9476:9479   */\n      dup3\n        /* \"#utility.yul\":9469:9488   */\n      mstore\n        /* \"#utility.yul\":9521:9525   */\n      0x20\n        /* \"#utility.yul\":9516:9519   */\n      dup3\n        /* \"#utility.yul\":9512:9526   */\n      add\n        /* \"#utility.yul\":9497:9526   */\n      swap1\n      pop\n        /* \"#utility.yul\":9363:9532   */\n      swap3\n      swap2\n      pop\n      pop\n      jump\t// out\n        /* \"#utility.yul\":9538:9845   */\n    tag_66:\n        /* \"#utility.yul\":9606:9607   */\n      0x00\n        /* \"#utility.yul\":9616:9729   */\n    tag_179:\n        /* \"#utility.yul\":9630:9636   */\n      dup4\n        /* \"#utility.yul\":9627:9628   */\n      dup2\n        /* \"#utility.yul\":9624:9637   */\n      lt\n        /* \"#utility.yul\":9616:9729   */\n      iszero\n      tag_181\n      jumpi\n        /* \"#utility.yul\":9715:9716   */\n      dup1\n        /* \"#utility.yul\":9710:9713   */\n      dup3\n        /* \"#utility.yul\":9706:9717   */\n      add\n        /* \"#utility.yul\":9700:9718   */\n      mload\n        /* \"#utility.yul\":9696:9697   */\n      dup2\n        /* \"#utility.yul\":9691:9694   */\n      dup5\n        /* \"#utility.yul\":9687:9698   */\n      add\n        /* \"#utility.yul\":9680:9719   */\n      mstore\n        /* \"#utility.yul\":9652:9654   */\n      0x20\n        /* \"#utility.yul\":9649:9650   */\n      dup2\n        /* \"#utility.yul\":9645:9655   */\n      add\n        /* \"#utility.yul\":9640:9655   */\n      swap1\n      pop\n        /* \"#utility.yul\":9616:9729   */\n      jump(tag_179)\n    tag_181:\n        /* \"#utility.yul\":9747:9753   */\n      dup4\n        /* \"#utility.yul\":9744:9745   */\n      dup2\n        /* \"#utility.yul\":9741:9754   */\n      gt\n        /* \"#utility.yul\":9738:9839   */\n      iszero\n      tag_182\n      jumpi\n        /* \"#utility.yul\":9827:9828   */\n      0x00\n        /* \"#utility.yul\":9818:9824   */\n      dup5\n        /* \"#utility.yul\":9813:9816   */\n      dup5\n        /* \"#utility.yul\":9809:9825   */\n      add\n        /* \"#utility.yul\":9802:9829   */\n      mstore\n        /* \"#utility.yul\":9738:9839   */\n    tag_182:\n        /* \"#utility.yul\":9587:9845   */\n      pop\n        /* \"#utility.yul\":9538:9845   */\n      pop\n      pop\n      pop\n      jump\t// out\n        /* \"#utility.yul\":9851:10215   */\n    tag_67:\n        /* \"#utility.yul\":9939:9942   */\n      0x00\n        /* \"#utility.yul\":9967:10006   */\n      tag_184\n        /* \"#utility.yul\":10000:10005   */\n      dup3\n        /* \"#utility.yul\":9967:10006   */\n      tag_64\n      jump\t// in\n    tag_184:\n        /* \"#utility.yul\":10022:10093   */\n      tag_185\n        /* \"#utility.yul\":10086:10092   */\n      dup2\n        /* \"#utility.yul\":10081:10084   */\n      dup6\n        /* \"#utility.yul\":10022:10093   */\n      tag_65\n      jump\t// in\n    tag_185:\n        /* \"#utility.yul\":10015:10093   */\n      swap4\n      pop\n        /* \"#utility.yul\":10102:10154   */\n      tag_186\n        /* \"#utility.yul\":10147:10153   */\n      dup2\n        /* \"#utility.yul\":10142:10145   */\n      dup6\n        /* \"#utility.yul\":10135:10139   */\n      0x20\n        /* \"#utility.yul\":10128:10133   */\n      dup7\n        /* \"#utility.yul\":10124:10140   */\n      add\n        /* \"#utility.yul\":10102:10154   */\n      tag_66\n      jump\t// in\n    tag_186:\n        /* \"#utility.yul\":10179:10208   */\n      tag_187\n        /* \"#utility.yul\":10201:10207   */\n      dup2\n        /* \"#utility.yul\":10179:10208   */\n      tag_52\n      jump\t// in\n    tag_187:\n        /* \"#utility.yul\":10174:10177   */\n      dup5\n        /* \"#utility.yul\":10170:10209   */\n      add\n        /* \"#utility.yul\":10163:10209   */\n      swap2\n      pop\n        /* \"#utility.yul\":9943:10215   */\n      pop\n        /* \"#utility.yul\":9851:10215   */\n      swap3\n      swap2\n      pop\n      pop\n      jump\t// out\n        /* \"#utility.yul\":10221:10345   */\n    tag_68:\n        /* \"#utility.yul\":10298:10304   */\n      0x00\n        /* \"#utility.yul\":10332:10337   */\n      dup2\n        /* \"#utility.yul\":10326:10338   */\n      mload\n        /* \"#utility.yul\":10316:10338   */\n      swap1\n      pop\n        /* \"#utility.yul\":10221:10345   */\n      swap2\n      swap1\n      pop\n      jump\t// out\n        /* \"#utility.yul\":10351:10545   */\n    tag_69:\n        /* \"#utility.yul\":10460:10471   */\n      0x00\n        /* \"#utility.yul\":10494:10500   */\n      dup3\n        /* \"#utility.yul\":10489:10492   */\n      dup3\n        /* \"#utility.yul\":10482:10501   */\n      mstore\n        /* \"#utility.yul\":10534:10538   */\n      0x20\n        /* \"#utility.yul\":10529:10532   */\n      dup3\n        /* \"#utility.yul\":10525:10539   */\n      add\n        /* \"#utility.yul\":10510:10539   */\n      swap1\n      pop\n        /* \"#utility.yul\":10351:10545   */\n      swap3\n      swap2\n      pop\n      pop\n      jump\t// out\n        /* \"#utility.yul\":10551:10693   */\n    tag_70:\n        /* \"#utility.yul\":10628:10632   */\n      0x00\n        /* \"#utility.yul\":10651:10654   */\n      dup2\n        /* \"#utility.yul\":10643:10654   */\n      swap1\n      pop\n        /* \"#utility.yul\":10681:10685   */\n      0x20\n        /* \"#utility.yul\":10676:10679   */\n      dup3\n        /* \"#utility.yul\":10672:10686   */\n      add\n        /* \"#utility.yul\":10664:10686   */\n      swap1\n      pop\n        /* \"#utility.yul\":10551:10693   */\n      swap2\n      swap1\n      pop\n      jump\t// out\n        /* \"#utility.yul\":10699:10858   */\n    tag_71:\n        /* \"#utility.yul\":10773:10784   */\n      0x00\n        /* \"#utility.yul\":10807:10813   */\n      dup3\n        /* \"#utility.yul\":10802:10805   */\n      dup3\n        /* \"#utility.yul\":10795:10814   */\n      mstore\n        /* \"#utility.yul\":10847:10851   */\n      0x20\n        /* \"#utility.yul\":10842:10845   */\n      dup3\n        /* \"#utility.yul\":10838:10852   */\n      add\n        /* \"#utility.yul\":10823:10852   */\n      swap1\n      pop\n        /* \"#utility.yul\":10699:10858   */\n      swap3\n      swap2\n      pop\n      pop\n      jump\t// out\n        /* \"#utility.yul\":10864:11208   */\n    tag_72:\n        /* \"#utility.yul\":10942:10945   */\n      0x00\n        /* \"#utility.yul\":10970:11009   */\n      tag_193\n        /* \"#utility.yul\":11003:11008   */\n      dup3\n        /* \"#utility.yul\":10970:11009   */\n      tag_64\n      jump\t// in\n    tag_193:\n        /* \"#utility.yul\":11025:11086   */\n      tag_194\n        /* \"#utility.yul\":11079:11085   */\n      dup2\n        /* \"#utility.yul\":11074:11077   */\n      dup6\n        /* \"#utility.yul\":11025:11086   */\n      tag_71\n      jump\t// in\n    tag_194:\n        /* \"#utility.yul\":11018:11086   */\n      swap4\n      pop\n        /* \"#utility.yul\":11095:11147   */\n      tag_195\n        /* \"#utility.yul\":11140:11146   */\n      dup2\n        /* \"#utility.yul\":11135:11138   */\n      dup6\n        /* \"#utility.yul\":11128:11132   */\n      0x20\n        /* \"#utility.yul\":11121:11126   */\n      dup7\n        /* \"#utility.yul\":11117:11133   */\n      add\n        /* \"#utility.yul\":11095:11147   */\n      tag_66\n      jump\t// in\n    tag_195:\n        /* \"#utility.yul\":11172:11201   */\n      tag_196\n        /* \"#utility.yul\":11194:11200   */\n      dup2\n        /* \"#utility.yul\":11172:11201   */\n      tag_52\n      jump\t// in\n    tag_196:\n        /* \"#utility.yul\":11167:11170   */\n      dup5\n        /* \"#utility.yul\":11163:11202   */\n      add\n        /* \"#utility.yul\":11156:11202   */\n      swap2\n      pop\n        /* \"#utility.yul\":10946:11208   */\n      pop\n        /* \"#utility.yul\":10864:11208   */\n      swap3\n      swap2\n      pop\n      pop\n      jump\t// out\n        /* \"#utility.yul\":11214:11410   */\n    tag_73:\n        /* \"#utility.yul\":11303:11313   */\n      0x00\n        /* \"#utility.yul\":11338:11404   */\n      tag_198\n        /* \"#utility.yul\":11400:11403   */\n      dup4\n        /* \"#utility.yul\":11392:11398   */\n      dup4\n        /* \"#utility.yul\":11338:11404   */\n      tag_72\n      jump\t// in\n    tag_198:\n        /* \"#utility.yul\":11324:11404   */\n      swap1\n      pop\n        /* \"#utility.yul\":11214:11410   */\n      swap3\n      swap2\n      pop\n      pop\n      jump\t// out\n        /* \"#utility.yul\":11416:11539   */\n    tag_74:\n        /* \"#utility.yul\":11496:11500   */\n      0x00\n        /* \"#utility.yul\":11528:11532   */\n      0x20\n        /* \"#utility.yul\":11523:11526   */\n      dup3\n        /* \"#utility.yul\":11519:11533   */\n      add\n        /* \"#utility.yul\":11511:11533   */\n      swap1\n      pop\n        /* \"#utility.yul\":11416:11539   */\n      swap2\n      swap1\n      pop\n      jump\t// out\n        /* \"#utility.yul\":11573:12564   */\n    tag_75:\n        /* \"#utility.yul\":11712:11715   */\n      0x00\n        /* \"#utility.yul\":11741:11805   */\n      tag_201\n        /* \"#utility.yul\":11799:11804   */\n      dup3\n        /* \"#utility.yul\":11741:11805   */\n      tag_68\n      jump\t// in\n    tag_201:\n        /* \"#utility.yul\":11821:11917   */\n      tag_202\n        /* \"#utility.yul\":11910:11916   */\n      dup2\n        /* \"#utility.yul\":11905:11908   */\n      dup6\n        /* \"#utility.yul\":11821:11917   */\n      tag_69\n      jump\t// in\n    tag_202:\n        /* \"#utility.yul\":11814:11917   */\n      swap4\n      pop\n        /* \"#utility.yul\":11943:11946   */\n      dup4\n        /* \"#utility.yul\":11988:11992   */\n      0x20\n        /* \"#utility.yul\":11980:11986   */\n      dup3\n        /* \"#utility.yul\":11976:11993   */\n      mul\n        /* \"#utility.yul\":11971:11974   */\n      dup6\n        /* \"#utility.yul\":11967:11994   */\n      add\n        /* \"#utility.yul\":12018:12084   */\n      tag_203\n        /* \"#utility.yul\":12078:12083   */\n      dup6\n        /* \"#utility.yul\":12018:12084   */\n      tag_70\n      jump\t// in\n    tag_203:\n        /* \"#utility.yul\":12107:12114   */\n      dup1\n        /* \"#utility.yul\":12138:12139   */\n      0x00\n        /* \"#utility.yul\":12123:12519   */\n    tag_204:\n        /* \"#utility.yul\":12148:12154   */\n      dup6\n        /* \"#utility.yul\":12145:12146   */\n      dup2\n        /* \"#utility.yul\":12142:12155   */\n      lt\n        /* \"#utility.yul\":12123:12519   */\n      iszero\n      tag_206\n      jumpi\n        /* \"#utility.yul\":12219:12228   */\n      dup5\n        /* \"#utility.yul\":12213:12217   */\n      dup5\n        /* \"#utility.yul\":12209:12229   */\n      sub\n        /* \"#utility.yul\":12204:12207   */\n      dup10\n        /* \"#utility.yul\":12197:12230   */\n      mstore\n        /* \"#utility.yul\":12270:12276   */\n      dup2\n        /* \"#utility.yul\":12264:12277   */\n      mload\n        /* \"#utility.yul\":12298:12382   */\n      tag_207\n        /* \"#utility.yul\":12377:12381   */\n      dup6\n        /* \"#utility.yul\":12362:12375   */\n      dup3\n        /* \"#utility.yul\":12298:12382   */\n      tag_73\n      jump\t// in\n    tag_207:\n        /* \"#utility.yul\":12290:12382   */\n      swap5\n      pop\n        /* \"#utility.yul\":12405:12475   */\n      tag_208\n        /* \"#utility.yul\":12468:12474   */\n      dup4\n        /* \"#utility.yul\":12405:12475   */\n      tag_74\n      jump\t// in\n    tag_208:\n        /* \"#utility.yul\":12395:12475   */\n      swap3\n      pop\n        /* \"#utility.yul\":12504:12508   */\n      0x20\n        /* \"#utility.yul\":12499:12502   */\n      dup11\n        /* \"#utility.yul\":12495:12509   */\n      add\n        /* \"#utility.yul\":12488:12509   */\n      swap10\n      pop\n        /* \"#utility.yul\":12183:12519   */\n      pop\n        /* \"#utility.yul\":12170:12171   */\n      0x01\n        /* \"#utility.yul\":12167:12168   */\n      dup2\n        /* \"#utility.yul\":12163:12172   */\n      add\n        /* \"#utility.yul\":12158:12172   */\n      swap1\n      pop\n        /* \"#utility.yul\":12123:12519   */\n      jump(tag_204)\n    tag_206:\n        /* \"#utility.yul\":12127:12141   */\n      pop\n        /* \"#utility.yul\":12535:12539   */\n      dup3\n        /* \"#utility.yul\":12528:12539   */\n      swap8\n      pop\n        /* \"#utility.yul\":12555:12558   */\n      dup8\n        /* \"#utility.yul\":12548:12558   */\n      swap6\n      pop\n        /* \"#utility.yul\":11717:12564   */\n      pop\n      pop\n      pop\n      pop\n      pop\n        /* \"#utility.yul\":11573:12564   */\n      swap3\n      swap2\n      pop\n      pop\n      jump\t// out\n        /* \"#utility.yul\":12570:13798   */\n    tag_31:\n        /* \"#utility.yul\":12955:12959   */\n      0x00\n        /* \"#utility.yul\":12993:12996   */\n      0xa0\n        /* \"#utility.yul\":12982:12991   */\n      dup3\n        /* \"#utility.yul\":12978:12997   */\n      add\n        /* \"#utility.yul\":12970:12997   */\n      swap1\n      pop\n        /* \"#utility.yul\":13043:13052   */\n      dup2\n        /* \"#utility.yul\":13037:13041   */\n      dup2\n        /* \"#utility.yul\":13033:13053   */\n      sub\n        /* \"#utility.yul\":13029:13030   */\n      0x00\n        /* \"#utility.yul\":13018:13027   */\n      dup4\n        /* \"#utility.yul\":13014:13031   */\n      add\n        /* \"#utility.yul\":13007:13054   */\n      mstore\n        /* \"#utility.yul\":13071:13149   */\n      tag_210\n        /* \"#utility.yul\":13144:13148   */\n      dup2\n        /* \"#utility.yul\":13135:13141   */\n      dup9\n        /* \"#utility.yul\":13071:13149   */\n      tag_67\n      jump\t// in\n    tag_210:\n        /* \"#utility.yul\":13063:13149   */\n      swap1\n      pop\n        /* \"#utility.yul\":13196:13205   */\n      dup2\n        /* \"#utility.yul\":13190:13194   */\n      dup2\n        /* \"#utility.yul\":13186:13206   */\n      sub\n        /* \"#utility.yul\":13181:13183   */\n      0x20\n        /* \"#utility.yul\":13170:13179   */\n      dup4\n        /* \"#utility.yul\":13166:13184   */\n      add\n        /* \"#utility.yul\":13159:13207   */\n      mstore\n        /* \"#utility.yul\":13224:13302   */\n      tag_211\n        /* \"#utility.yul\":13297:13301   */\n      dup2\n        /* \"#utility.yul\":13288:13294   */\n      dup8\n        /* \"#utility.yul\":13224:13302   */\n      tag_67\n      jump\t// in\n    tag_211:\n        /* \"#utility.yul\":13216:13302   */\n      swap1\n      pop\n        /* \"#utility.yul\":13349:13358   */\n      dup2\n        /* \"#utility.yul\":13343:13347   */\n      dup2\n        /* \"#utility.yul\":13339:13359   */\n      sub\n        /* \"#utility.yul\":13334:13336   */\n      0x40\n        /* \"#utility.yul\":13323:13332   */\n      dup4\n        /* \"#utility.yul\":13319:13337   */\n      add\n        /* \"#utility.yul\":13312:13360   */\n      mstore\n        /* \"#utility.yul\":13377:13505   */\n      tag_212\n        /* \"#utility.yul\":13500:13504   */\n      dup2\n        /* \"#utility.yul\":13491:13497   */\n      dup7\n        /* \"#utility.yul\":13377:13505   */\n      tag_75\n      jump\t// in\n    tag_212:\n        /* \"#utility.yul\":13369:13505   */\n      swap1\n      pop\n        /* \"#utility.yul\":13552:13561   */\n      dup2\n        /* \"#utility.yul\":13546:13550   */\n      dup2\n        /* \"#utility.yul\":13542:13562   */\n      sub\n        /* \"#utility.yul\":13537:13539   */\n      0x60\n        /* \"#utility.yul\":13526:13535   */\n      dup4\n        /* \"#utility.yul\":13522:13540   */\n      add\n        /* \"#utility.yul\":13515:13563   */\n      mstore\n        /* \"#utility.yul\":13580:13708   */\n      tag_213\n        /* \"#utility.yul\":13703:13707   */\n      dup2\n        /* \"#utility.yul\":13694:13700   */\n      dup6\n        /* \"#utility.yul\":13580:13708   */\n      tag_75\n      jump\t// in\n    tag_213:\n        /* \"#utility.yul\":13572:13708   */\n      swap1\n      pop\n        /* \"#utility.yul\":13718:13791   */\n      tag_214\n        /* \"#utility.yul\":13786:13789   */\n      0x80\n        /* \"#utility.yul\":13775:13784   */\n      dup4\n        /* \"#utility.yul\":13771:13790   */\n      add\n        /* \"#utility.yul\":13762:13768   */\n      dup5\n        /* \"#utility.yul\":13718:13791   */\n      tag_42\n      jump\t// in\n    tag_214:\n        /* \"#utility.yul\":12570:13798   */\n      swap7\n      swap6\n      pop\n      pop\n      pop\n      pop\n      pop\n      pop\n      jump\t// out\n    stop\n\n    sub_0: assembly {\n            /* \"Task.sol\":609:2374  contract Task {... */\n          mstore(0x40, 0x80)\n            /* \"Task.sol\":1002:1349  constructor(string memory header, string memory description, string[] memory files, string[] memory hashtags, address newManager) payable {... */\n          mload(0x40)\n          sub(codesize, bytecodeSize)\n          dup1\n          bytecodeSize\n          dup4\n          codecopy\n          dup2\n          dup2\n          add\n          0x40\n          mstore\n          dup2\n          add\n          swap1\n          tag_1\n          swap2\n          swap1\n          tag_2\n          jump\t// in\n        tag_1:\n            /* \"Task.sol\":1169:1179  newManager */\n          dup1\n            /* \"Task.sol\":1151:1158  manager */\n          0x00\n          dup1\n            /* \"Task.sol\":1151:1180  manager = payable(newManager) */\n          0x0100\n          exp\n          dup2\n          sload\n          dup2\n          0xffffffffffffffffffffffffffffffffffffffff\n          mul\n          not\n          and\n          swap1\n          dup4\n          0xffffffffffffffffffffffffffffffffffffffff\n          and\n          mul\n          or\n          swap1\n          sstore\n          pop\n            /* \"Task.sol\":1202:1208  header */\n          dup5\n            /* \"Task.sol\":1191:1199  taskName */\n          0x01\n            /* \"Task.sol\":1191:1208  taskName = header */\n          swap1\n          dup1\n          mload\n          swap1\n          0x20\n          add\n          swap1\n          tag_5\n          swap3\n          swap2\n          swap1\n          tag_6\n          jump\t// in\n        tag_5:\n          pop\n            /* \"Task.sol\":1231:1236  files */\n          dup3\n            /* \"Task.sol\":1219:1228  taskFiles */\n          0x02\n            /* \"Task.sol\":1219:1236  taskFiles = files */\n          swap1\n          dup1\n          mload\n          swap1\n          0x20\n          add\n          swap1\n          tag_7\n          swap3\n          swap2\n          swap1\n          tag_8\n          jump\t// in\n        tag_7:\n          pop\n            /* \"Task.sol\":1265:1276  description */\n          dup4\n            /* \"Task.sol\":1247:1262  taskDescription */\n          0x03\n            /* \"Task.sol\":1247:1276  taskDescription = description */\n          swap1\n          dup1\n          mload\n          swap1\n          0x20\n          add\n          swap1\n          tag_9\n          swap3\n          swap2\n          swap1\n          tag_6\n          jump\t// in\n        tag_9:\n          pop\n            /* \"Task.sol\":1303:1311  hashtags */\n          dup2\n            /* \"Task.sol\":1288:1300  taskHashtags */\n          0x04\n            /* \"Task.sol\":1288:1311  taskHashtags = hashtags */\n          swap1\n          dup1\n          mload\n          swap1\n          0x20\n          add\n          swap1\n          tag_10\n          swap3\n          swap2\n          swap1\n          tag_8\n          jump\t// in\n        tag_10:\n          pop\n            /* \"Task.sol\":1336:1341  false */\n          0x00\n            /* \"Task.sol\":1322:1333  isCompleted */\n          0x05\n          0x14\n            /* \"Task.sol\":1322:1341  isCompleted = false */\n          0x0100\n          exp\n          dup2\n          sload\n          dup2\n          0xff\n          mul\n          not\n          and\n          swap1\n          dup4\n          iszero\n          iszero\n          mul\n          or\n          swap1\n          sstore\n          pop\n            /* \"Task.sol\":1002:1349  constructor(string memory header, string memory description, string[] memory files, string[] memory hashtags, address newManager) payable {... */\n          pop\n          pop\n          pop\n          pop\n          pop\n            /* \"Task.sol\":609:2374  contract Task {... */\n          jump(tag_11)\n        tag_6:\n          dup3\n          dup1\n          sload\n          tag_12\n          swap1\n          tag_13\n          jump\t// in\n        tag_12:\n          swap1\n          0x00\n          mstore\n          keccak256(0x00, 0x20)\n          swap1\n          0x1f\n          add\n          0x20\n          swap1\n          div\n          dup2\n          add\n          swap3\n          dup3\n          tag_15\n          jumpi\n          0x00\n          dup6\n          sstore\n          jump(tag_14)\n        tag_15:\n          dup3\n          0x1f\n          lt\n          tag_16\n          jumpi\n          dup1\n          mload\n          not(0xff)\n          and\n          dup4\n          dup1\n          add\n          or\n          dup6\n          sstore\n          jump(tag_14)\n        tag_16:\n          dup3\n          dup1\n          add\n          0x01\n          add\n          dup6\n          sstore\n          dup3\n          iszero\n          tag_14\n          jumpi\n          swap2\n          dup3\n          add\n        tag_17:\n          dup3\n          dup2\n          gt\n          iszero\n          tag_18\n          jumpi\n          dup3\n          mload\n          dup3\n          sstore\n          swap2\n          0x20\n          add\n          swap2\n          swap1\n          0x01\n          add\n          swap1\n          jump(tag_17)\n        tag_18:\n        tag_14:\n          pop\n          swap1\n          pop\n          tag_19\n          swap2\n          swap1\n          tag_20\n          jump\t// in\n        tag_19:\n          pop\n          swap1\n          jump\t// out\n        tag_8:\n          dup3\n          dup1\n          sload\n          dup3\n          dup3\n          sstore\n          swap1\n          0x00\n          mstore\n          keccak256(0x00, 0x20)\n          swap1\n          dup2\n          add\n          swap3\n          dup3\n          iszero\n          tag_21\n          jumpi\n          swap2\n          0x20\n          mul\n          dup3\n          add\n        tag_22:\n          dup3\n          dup2\n          gt\n          iszero\n          tag_23\n          jumpi\n          dup3\n          mload\n          dup3\n          swap1\n          dup1\n          mload\n          swap1\n          0x20\n          add\n          swap1\n          tag_24\n          swap3\n          swap2\n          swap1\n          tag_6\n          jump\t// in\n        tag_24:\n          pop\n          swap2\n          0x20\n          add\n          swap2\n          swap1\n          0x01\n          add\n          swap1\n          jump(tag_22)\n        tag_23:\n        tag_21:\n          pop\n          swap1\n          pop\n          tag_25\n          swap2\n          swap1\n          tag_26\n          jump\t// in\n        tag_25:\n          pop\n          swap1\n          jump\t// out\n        tag_20:\n        tag_27:\n          dup1\n          dup3\n          gt\n          iszero\n          tag_28\n          jumpi\n          0x00\n          dup2\n          0x00\n          swap1\n          sstore\n          pop\n          0x01\n          add\n          jump(tag_27)\n        tag_28:\n          pop\n          swap1\n          jump\t// out\n        tag_26:\n        tag_29:\n          dup1\n          dup3\n          gt\n          iszero\n          tag_30\n          jumpi\n          0x00\n          dup2\n          dup2\n          tag_31\n          swap2\n          swap1\n          tag_32\n          jump\t// in\n        tag_31:\n          pop\n          0x01\n          add\n          jump(tag_29)\n        tag_30:\n          pop\n          swap1\n          jump\t// out\n        tag_32:\n          pop\n          dup1\n          sload\n          tag_33\n          swap1\n          tag_13\n          jump\t// in\n        tag_33:\n          0x00\n          dup3\n          sstore\n          dup1\n          0x1f\n          lt\n          tag_35\n          jumpi\n          pop\n          jump(tag_34)\n        tag_35:\n          0x1f\n          add\n          0x20\n          swap1\n          div\n          swap1\n          0x00\n          mstore\n          keccak256(0x00, 0x20)\n          swap1\n          dup2\n          add\n          swap1\n          tag_36\n          swap2\n          swap1\n          tag_20\n          jump\t// in\n        tag_36:\n        tag_34:\n          pop\n          jump\t// out\n            /* \"#utility.yul\":7:82   */\n        tag_37:\n            /* \"#utility.yul\":40:46   */\n          0x00\n            /* \"#utility.yul\":73:75   */\n          0x40\n            /* \"#utility.yul\":67:76   */\n          mload\n            /* \"#utility.yul\":57:76   */\n          swap1\n          pop\n            /* \"#utility.yul\":7:82   */\n          swap1\n          jump\t// out\n            /* \"#utility.yul\":88:205   */\n        tag_38:\n            /* \"#utility.yul\":197:198   */\n          0x00\n            /* \"#utility.yul\":194:195   */\n          dup1\n            /* \"#utility.yul\":187:199   */\n          revert\n            /* \"#utility.yul\":211:328   */\n        tag_39:\n            /* \"#utility.yul\":320:321   */\n          0x00\n            /* \"#utility.yul\":317:318   */\n          dup1\n            /* \"#utility.yul\":310:322   */\n          revert\n            /* \"#utility.yul\":334:451   */\n        tag_40:\n            /* \"#utility.yul\":443:444   */\n          0x00\n            /* \"#utility.yul\":440:441   */\n          dup1\n            /* \"#utility.yul\":433:445   */\n          revert\n            /* \"#utility.yul\":457:574   */\n        tag_41:\n            /* \"#utility.yul\":566:567   */\n          0x00\n            /* \"#utility.yul\":563:564   */\n          dup1\n            /* \"#utility.yul\":556:568   */\n          revert\n            /* \"#utility.yul\":580:682   */\n        tag_42:\n            /* \"#utility.yul\":621:627   */\n          0x00\n            /* \"#utility.yul\":672:674   */\n          0x1f\n            /* \"#utility.yul\":668:675   */\n          not\n            /* \"#utility.yul\":663:665   */\n          0x1f\n            /* \"#utility.yul\":656:661   */\n          dup4\n            /* \"#utility.yul\":652:666   */\n          add\n            /* \"#utility.yul\":648:676   */\n          and\n            /* \"#utility.yul\":638:676   */\n          swap1\n          pop\n            /* \"#utility.yul\":580:682   */\n          swap2\n          swap1\n          pop\n          jump\t// out\n            /* \"#utility.yul\":688:868   */\n        tag_43:\n            /* \"#utility.yul\":736:813   */\n          0x4e487b7100000000000000000000000000000000000000000000000000000000\n            /* \"#utility.yul\":733:734   */\n          0x00\n            /* \"#utility.yul\":726:814   */\n          mstore\n            /* \"#utility.yul\":833:837   */\n          0x41\n            /* \"#utility.yul\":830:831   */\n          0x04\n            /* \"#utility.yul\":823:838   */\n          mstore\n            /* \"#utility.yul\":857:861   */\n          0x24\n            /* \"#utility.yul\":854:855   */\n          0x00\n            /* \"#utility.yul\":847:862   */\n          revert\n            /* \"#utility.yul\":874:1155   */\n        tag_44:\n            /* \"#utility.yul\":957:984   */\n          tag_68\n            /* \"#utility.yul\":979:983   */\n          dup3\n            /* \"#utility.yul\":957:984   */\n          tag_42\n          jump\t// in\n        tag_68:\n            /* \"#utility.yul\":949:955   */\n          dup2\n            /* \"#utility.yul\":945:985   */\n          add\n            /* \"#utility.yul\":1087:1093   */\n          dup2\n            /* \"#utility.yul\":1075:1085   */\n          dup2\n            /* \"#utility.yul\":1072:1094   */\n          lt\n            /* \"#utility.yul\":1051:1069   */\n          0xffffffffffffffff\n            /* \"#utility.yul\":1039:1049   */\n          dup3\n            /* \"#utility.yul\":1036:1070   */\n          gt\n            /* \"#utility.yul\":1033:1095   */\n          or\n            /* \"#utility.yul\":1030:1118   */\n          iszero\n          tag_69\n          jumpi\n            /* \"#utility.yul\":1098:1116   */\n          tag_70\n          tag_43\n          jump\t// in\n        tag_70:\n            /* \"#utility.yul\":1030:1118   */\n        tag_69:\n            /* \"#utility.yul\":1138:1148   */\n          dup1\n            /* \"#utility.yul\":1134:1136   */\n          0x40\n            /* \"#utility.yul\":1127:1149   */\n          mstore\n            /* \"#utility.yul\":917:1155   */\n          pop\n            /* \"#utility.yul\":874:1155   */\n          pop\n          pop\n          jump\t// out\n            /* \"#utility.yul\":1161:1290   */\n        tag_45:\n            /* \"#utility.yul\":1195:1201   */\n          0x00\n            /* \"#utility.yul\":1222:1242   */\n          tag_72\n          tag_37\n          jump\t// in\n        tag_72:\n            /* \"#utility.yul\":1212:1242   */\n          swap1\n          pop\n            /* \"#utility.yul\":1251:1284   */\n          tag_73\n            /* \"#utility.yul\":1279:1283   */\n          dup3\n            /* \"#utility.yul\":1271:1277   */\n          dup3\n            /* \"#utility.yul\":1251:1284   */\n          tag_44\n          jump\t// in\n        tag_73:\n            /* \"#utility.yul\":1161:1290   */\n          swap2\n          swap1\n          pop\n          jump\t// out\n            /* \"#utility.yul\":1296:1604   */\n        tag_46:\n            /* \"#utility.yul\":1358:1362   */\n          0x00\n            /* \"#utility.yul\":1448:1466   */\n          0xffffffffffffffff\n            /* \"#utility.yul\":1440:1446   */\n          dup3\n            /* \"#utility.yul\":1437:1467   */\n          gt\n            /* \"#utility.yul\":1434:1490   */\n          iszero\n          tag_75\n          jumpi\n            /* \"#utility.yul\":1470:1488   */\n          tag_76\n          tag_43\n          jump\t// in\n        tag_76:\n            /* \"#utility.yul\":1434:1490   */\n        tag_75:\n            /* \"#utility.yul\":1508:1537   */\n          tag_77\n            /* \"#utility.yul\":1530:1536   */\n          dup3\n            /* \"#utility.yul\":1508:1537   */\n          tag_42\n          jump\t// in\n        tag_77:\n            /* \"#utility.yul\":1500:1537   */\n          swap1\n          pop\n            /* \"#utility.yul\":1592:1596   */\n          0x20\n            /* \"#utility.yul\":1586:1590   */\n          dup2\n            /* \"#utility.yul\":1582:1597   */\n          add\n            /* \"#utility.yul\":1574:1597   */\n          swap1\n          pop\n            /* \"#utility.yul\":1296:1604   */\n          swap2\n          swap1\n          pop\n          jump\t// out\n            /* \"#utility.yul\":1610:1917   */\n        tag_47:\n            /* \"#utility.yul\":1678:1679   */\n          0x00\n            /* \"#utility.yul\":1688:1801   */\n        tag_79:\n            /* \"#utility.yul\":1702:1708   */\n          dup4\n            /* \"#utility.yul\":1699:1700   */\n          dup2\n            /* \"#utility.yul\":1696:1709   */\n          lt\n            /* \"#utility.yul\":1688:1801   */\n          iszero\n          tag_81\n          jumpi\n            /* \"#utility.yul\":1787:1788   */\n          dup1\n            /* \"#utility.yul\":1782:1785   */\n          dup3\n            /* \"#utility.yul\":1778:1789   */\n          add\n            /* \"#utility.yul\":1772:1790   */\n          mload\n            /* \"#utility.yul\":1768:1769   */\n          dup2\n            /* \"#utility.yul\":1763:1766   */\n          dup5\n            /* \"#utility.yul\":1759:1770   */\n          add\n            /* \"#utility.yul\":1752:1791   */\n          mstore\n            /* \"#utility.yul\":1724:1726   */\n          0x20\n            /* \"#utility.yul\":1721:1722   */\n          dup2\n            /* \"#utility.yul\":1717:1727   */\n          add\n            /* \"#utility.yul\":1712:1727   */\n          swap1\n          pop\n            /* \"#utility.yul\":1688:1801   */\n          jump(tag_79)\n        tag_81:\n            /* \"#utility.yul\":1819:1825   */\n          dup4\n            /* \"#utility.yul\":1816:1817   */\n          dup2\n            /* \"#utility.yul\":1813:1826   */\n          gt\n            /* \"#utility.yul\":1810:1911   */\n          iszero\n          tag_82\n          jumpi\n            /* \"#utility.yul\":1899:1900   */\n          0x00\n            /* \"#utility.yul\":1890:1896   */\n          dup5\n            /* \"#utility.yul\":1885:1888   */\n          dup5\n            /* \"#utility.yul\":1881:1897   */\n          add\n            /* \"#utility.yul\":1874:1901   */\n          mstore\n            /* \"#utility.yul\":1810:1911   */\n        tag_82:\n            /* \"#utility.yul\":1659:1917   */\n          pop\n            /* \"#utility.yul\":1610:1917   */\n          pop\n          pop\n          pop\n          jump\t// out\n            /* \"#utility.yul\":1923:2344   */\n        tag_48:\n            /* \"#utility.yul\":2012:2017   */\n          0x00\n            /* \"#utility.yul\":2037:2103   */\n          tag_84\n            /* \"#utility.yul\":2053:2102   */\n          tag_85\n            /* \"#utility.yul\":2095:2101   */\n          dup5\n            /* \"#utility.yul\":2053:2102   */\n          tag_46\n          jump\t// in\n        tag_85:\n            /* \"#utility.yul\":2037:2103   */\n          tag_45\n          jump\t// in\n        tag_84:\n            /* \"#utility.yul\":2028:2103   */\n          swap1\n          pop\n            /* \"#utility.yul\":2126:2132   */\n          dup3\n            /* \"#utility.yul\":2119:2124   */\n          dup2\n            /* \"#utility.yul\":2112:2133   */\n          mstore\n            /* \"#utility.yul\":2164:2168   */\n          0x20\n            /* \"#utility.yul\":2157:2162   */\n          dup2\n            /* \"#utility.yul\":2153:2169   */\n          add\n            /* \"#utility.yul\":2202:2205   */\n          dup5\n            /* \"#utility.yul\":2193:2199   */\n          dup5\n            /* \"#utility.yul\":2188:2191   */\n          dup5\n            /* \"#utility.yul\":2184:2200   */\n          add\n            /* \"#utility.yul\":2181:2206   */\n          gt\n            /* \"#utility.yul\":2178:2290   */\n          iszero\n          tag_86\n          jumpi\n            /* \"#utility.yul\":2209:2288   */\n          tag_87\n          tag_41\n          jump\t// in\n        tag_87:\n            /* \"#utility.yul\":2178:2290   */\n        tag_86:\n            /* \"#utility.yul\":2299:2338   */\n          tag_88\n            /* \"#utility.yul\":2331:2337   */\n          dup5\n            /* \"#utility.yul\":2326:2329   */\n          dup3\n            /* \"#utility.yul\":2321:2324   */\n          dup6\n            /* \"#utility.yul\":2299:2338   */\n          tag_47\n          jump\t// in\n        tag_88:\n            /* \"#utility.yul\":2018:2344   */\n          pop\n            /* \"#utility.yul\":1923:2344   */\n          swap4\n          swap3\n          pop\n          pop\n          pop\n          jump\t// out\n            /* \"#utility.yul\":2364:2719   */\n        tag_49:\n            /* \"#utility.yul\":2431:2436   */\n          0x00\n            /* \"#utility.yul\":2480:2483   */\n          dup3\n            /* \"#utility.yul\":2473:2477   */\n          0x1f\n            /* \"#utility.yul\":2465:2471   */\n          dup4\n            /* \"#utility.yul\":2461:2478   */\n          add\n            /* \"#utility.yul\":2457:2484   */\n          slt\n            /* \"#utility.yul\":2447:2569   */\n          tag_90\n          jumpi\n            /* \"#utility.yul\":2488:2567   */\n          tag_91\n          tag_40\n          jump\t// in\n        tag_91:\n            /* \"#utility.yul\":2447:2569   */\n        tag_90:\n            /* \"#utility.yul\":2598:2604   */\n          dup2\n            /* \"#utility.yul\":2592:2605   */\n          mload\n            /* \"#utility.yul\":2623:2713   */\n          tag_92\n            /* \"#utility.yul\":2709:2712   */\n          dup5\n            /* \"#utility.yul\":2701:2707   */\n          dup3\n            /* \"#utility.yul\":2694:2698   */\n          0x20\n            /* \"#utility.yul\":2686:2692   */\n          dup7\n            /* \"#utility.yul\":2682:2699   */\n          add\n            /* \"#utility.yul\":2623:2713   */\n          tag_48\n          jump\t// in\n        tag_92:\n            /* \"#utility.yul\":2614:2713   */\n          swap2\n          pop\n            /* \"#utility.yul\":2437:2719   */\n          pop\n            /* \"#utility.yul\":2364:2719   */\n          swap3\n          swap2\n          pop\n          pop\n          jump\t// out\n            /* \"#utility.yul\":2725:3046   */\n        tag_50:\n            /* \"#utility.yul\":2812:2816   */\n          0x00\n            /* \"#utility.yul\":2902:2920   */\n          0xffffffffffffffff\n            /* \"#utility.yul\":2894:2900   */\n          dup3\n            /* \"#utility.yul\":2891:2921   */\n          gt\n            /* \"#utility.yul\":2888:2944   */\n          iszero\n          tag_94\n          jumpi\n            /* \"#utility.yul\":2924:2942   */\n          tag_95\n          tag_43\n          jump\t// in\n        tag_95:\n            /* \"#utility.yul\":2888:2944   */\n        tag_94:\n            /* \"#utility.yul\":2974:2978   */\n          0x20\n            /* \"#utility.yul\":2966:2972   */\n          dup3\n            /* \"#utility.yul\":2962:2979   */\n          mul\n            /* \"#utility.yul\":2954:2979   */\n          swap1\n          pop\n            /* \"#utility.yul\":3034:3038   */\n          0x20\n            /* \"#utility.yul\":3028:3032   */\n          dup2\n            /* \"#utility.yul\":3024:3039   */\n          add\n            /* \"#utility.yul\":3016:3039   */\n          swap1\n          pop\n            /* \"#utility.yul\":2725:3046   */\n          swap2\n          swap1\n          pop\n          jump\t// out\n            /* \"#utility.yul\":3052:3169   */\n        tag_51:\n            /* \"#utility.yul\":3161:3162   */\n          0x00\n            /* \"#utility.yul\":3158:3159   */\n          dup1\n            /* \"#utility.yul\":3151:3163   */\n          revert\n            /* \"#utility.yul\":3191:4151   */\n        tag_52:\n            /* \"#utility.yul\":3308:3313   */\n          0x00\n            /* \"#utility.yul\":3333:3424   */\n          tag_98\n            /* \"#utility.yul\":3349:3423   */\n          tag_99\n            /* \"#utility.yul\":3416:3422   */\n          dup5\n            /* \"#utility.yul\":3349:3423   */\n          tag_50\n          jump\t// in\n        tag_99:\n            /* \"#utility.yul\":3333:3424   */\n          tag_45\n          jump\t// in\n        tag_98:\n            /* \"#utility.yul\":3324:3424   */\n          swap1\n          pop\n            /* \"#utility.yul\":3444:3449   */\n          dup1\n            /* \"#utility.yul\":3473:3479   */\n          dup4\n            /* \"#utility.yul\":3466:3471   */\n          dup3\n            /* \"#utility.yul\":3459:3480   */\n          mstore\n            /* \"#utility.yul\":3507:3511   */\n          0x20\n            /* \"#utility.yul\":3500:3505   */\n          dup3\n            /* \"#utility.yul\":3496:3512   */\n          add\n            /* \"#utility.yul\":3489:3512   */\n          swap1\n          pop\n            /* \"#utility.yul\":3560:3564   */\n          0x20\n            /* \"#utility.yul\":3552:3558   */\n          dup5\n            /* \"#utility.yul\":3548:3565   */\n          mul\n            /* \"#utility.yul\":3540:3546   */\n          dup4\n            /* \"#utility.yul\":3536:3566   */\n          add\n            /* \"#utility.yul\":3589:3592   */\n          dup6\n            /* \"#utility.yul\":3581:3587   */\n          dup2\n            /* \"#utility.yul\":3578:3593   */\n          gt\n            /* \"#utility.yul\":3575:3697   */\n          iszero\n          tag_100\n          jumpi\n            /* \"#utility.yul\":3608:3687   */\n          tag_101\n          tag_51\n          jump\t// in\n        tag_101:\n            /* \"#utility.yul\":3575:3697   */\n        tag_100:\n            /* \"#utility.yul\":3723:3729   */\n          dup4\n            /* \"#utility.yul\":3706:4145   */\n        tag_102:\n            /* \"#utility.yul\":3740:3746   */\n          dup2\n            /* \"#utility.yul\":3735:3738   */\n          dup2\n            /* \"#utility.yul\":3732:3747   */\n          lt\n            /* \"#utility.yul\":3706:4145   */\n          iszero\n          tag_104\n          jumpi\n            /* \"#utility.yul\":3822:3825   */\n          dup1\n            /* \"#utility.yul\":3816:3826   */\n          mload\n            /* \"#utility.yul\":3858:3876   */\n          0xffffffffffffffff\n            /* \"#utility.yul\":3845:3856   */\n          dup2\n            /* \"#utility.yul\":3842:3877   */\n          gt\n            /* \"#utility.yul\":3839:3961   */\n          iszero\n          tag_105\n          jumpi\n            /* \"#utility.yul\":3880:3959   */\n          tag_106\n          tag_40\n          jump\t// in\n        tag_106:\n            /* \"#utility.yul\":3839:3961   */\n        tag_105:\n            /* \"#utility.yul\":4004:4015   */\n          dup1\n            /* \"#utility.yul\":3996:4002   */\n          dup7\n            /* \"#utility.yul\":3992:4016   */\n          add\n            /* \"#utility.yul\":4042:4100   */\n          tag_107\n            /* \"#utility.yul\":4096:4099   */\n          dup10\n            /* \"#utility.yul\":4084:4094   */\n          dup3\n            /* \"#utility.yul\":4042:4100   */\n          tag_49\n          jump\t// in\n        tag_107:\n            /* \"#utility.yul\":4037:4040   */\n          dup6\n            /* \"#utility.yul\":4030:4101   */\n          mstore\n            /* \"#utility.yul\":4130:4134   */\n          0x20\n            /* \"#utility.yul\":4125:4128   */\n          dup6\n            /* \"#utility.yul\":4121:4135   */\n          add\n            /* \"#utility.yul\":4114:4135   */\n          swap5\n          pop\n            /* \"#utility.yul\":3782:4145   */\n          pop\n          pop\n            /* \"#utility.yul\":3766:3770   */\n          0x20\n            /* \"#utility.yul\":3761:3764   */\n          dup2\n            /* \"#utility.yul\":3757:3771   */\n          add\n            /* \"#utility.yul\":3750:3771   */\n          swap1\n          pop\n            /* \"#utility.yul\":3706:4145   */\n          jump(tag_102)\n        tag_104:\n            /* \"#utility.yul\":3710:3731   */\n          pop\n            /* \"#utility.yul\":3314:4151   */\n          pop\n          pop\n            /* \"#utility.yul\":3191:4151   */\n          swap4\n          swap3\n          pop\n          pop\n          pop\n          jump\t// out\n            /* \"#utility.yul\":4173:4578   */\n        tag_53:\n            /* \"#utility.yul\":4265:4270   */\n          0x00\n            /* \"#utility.yul\":4314:4317   */\n          dup3\n            /* \"#utility.yul\":4307:4311   */\n          0x1f\n            /* \"#utility.yul\":4299:4305   */\n          dup4\n            /* \"#utility.yul\":4295:4312   */\n          add\n            /* \"#utility.yul\":4291:4318   */\n          slt\n            /* \"#utility.yul\":4281:4403   */\n          tag_109\n          jumpi\n            /* \"#utility.yul\":4322:4401   */\n          tag_110\n          tag_40\n          jump\t// in\n        tag_110:\n            /* \"#utility.yul\":4281:4403   */\n        tag_109:\n            /* \"#utility.yul\":4432:4438   */\n          dup2\n            /* \"#utility.yul\":4426:4439   */\n          mload\n            /* \"#utility.yul\":4457:4572   */\n          tag_111\n            /* \"#utility.yul\":4568:4571   */\n          dup5\n            /* \"#utility.yul\":4560:4566   */\n          dup3\n            /* \"#utility.yul\":4553:4557   */\n          0x20\n            /* \"#utility.yul\":4545:4551   */\n          dup7\n            /* \"#utility.yul\":4541:4558   */\n          add\n            /* \"#utility.yul\":4457:4572   */\n          tag_52\n          jump\t// in\n        tag_111:\n            /* \"#utility.yul\":4448:4572   */\n          swap2\n          pop\n            /* \"#utility.yul\":4271:4578   */\n          pop\n            /* \"#utility.yul\":4173:4578   */\n          swap3\n          swap2\n          pop\n          pop\n          jump\t// out\n            /* \"#utility.yul\":4584:4710   */\n        tag_54:\n            /* \"#utility.yul\":4621:4628   */\n          0x00\n            /* \"#utility.yul\":4661:4703   */\n          0xffffffffffffffffffffffffffffffffffffffff\n            /* \"#utility.yul\":4654:4659   */\n          dup3\n            /* \"#utility.yul\":4650:4704   */\n          and\n            /* \"#utility.yul\":4639:4704   */\n          swap1\n          pop\n            /* \"#utility.yul\":4584:4710   */\n          swap2\n          swap1\n          pop\n          jump\t// out\n            /* \"#utility.yul\":4716:4812   */\n        tag_55:\n            /* \"#utility.yul\":4753:4760   */\n          0x00\n            /* \"#utility.yul\":4782:4806   */\n          tag_114\n            /* \"#utility.yul\":4800:4805   */\n          dup3\n            /* \"#utility.yul\":4782:4806   */\n          tag_54\n          jump\t// in\n        tag_114:\n            /* \"#utility.yul\":4771:4806   */\n          swap1\n          pop\n            /* \"#utility.yul\":4716:4812   */\n          swap2\n          swap1\n          pop\n          jump\t// out\n            /* \"#utility.yul\":4818:4940   */\n        tag_56:\n            /* \"#utility.yul\":4891:4915   */\n          tag_116\n            /* \"#utility.yul\":4909:4914   */\n          dup2\n            /* \"#utility.yul\":4891:4915   */\n          tag_55\n          jump\t// in\n        tag_116:\n            /* \"#utility.yul\":4884:4889   */\n          dup2\n            /* \"#utility.yul\":4881:4916   */\n          eq\n            /* \"#utility.yul\":4871:4934   */\n          tag_117\n          jumpi\n            /* \"#utility.yul\":4930:4931   */\n          0x00\n            /* \"#utility.yul\":4927:4928   */\n          dup1\n            /* \"#utility.yul\":4920:4932   */\n          revert\n            /* \"#utility.yul\":4871:4934   */\n        tag_117:\n            /* \"#utility.yul\":4818:4940   */\n          pop\n          jump\t// out\n            /* \"#utility.yul\":4946:5089   */\n        tag_57:\n            /* \"#utility.yul\":5003:5008   */\n          0x00\n            /* \"#utility.yul\":5034:5040   */\n          dup2\n            /* \"#utility.yul\":5028:5041   */\n          mload\n            /* \"#utility.yul\":5019:5041   */\n          swap1\n          pop\n            /* \"#utility.yul\":5050:5083   */\n          tag_119\n            /* \"#utility.yul\":5077:5082   */\n          dup2\n            /* \"#utility.yul\":5050:5083   */\n          tag_56\n          jump\t// in\n        tag_119:\n            /* \"#utility.yul\":4946:5089   */\n          swap3\n          swap2\n          pop\n          pop\n          jump\t// out\n            /* \"#utility.yul\":5095:6864   */\n        tag_2:\n            /* \"#utility.yul\":5291:5297   */\n          0x00\n            /* \"#utility.yul\":5299:5305   */\n          dup1\n            /* \"#utility.yul\":5307:5313   */\n          0x00\n            /* \"#utility.yul\":5315:5321   */\n          dup1\n            /* \"#utility.yul\":5323:5329   */\n          0x00\n            /* \"#utility.yul\":5372:5375   */\n          0xa0\n            /* \"#utility.yul\":5360:5369   */\n          dup7\n            /* \"#utility.yul\":5351:5358   */\n          dup9\n            /* \"#utility.yul\":5347:5370   */\n          sub\n            /* \"#utility.yul\":5343:5376   */\n          slt\n            /* \"#utility.yul\":5340:5460   */\n          iszero\n          tag_121\n          jumpi\n            /* \"#utility.yul\":5379:5458   */\n          tag_122\n          tag_38\n          jump\t// in\n        tag_122:\n            /* \"#utility.yul\":5340:5460   */\n        tag_121:\n            /* \"#utility.yul\":5520:5521   */\n          0x00\n            /* \"#utility.yul\":5509:5518   */\n          dup7\n            /* \"#utility.yul\":5505:5522   */\n          add\n            /* \"#utility.yul\":5499:5523   */\n          mload\n            /* \"#utility.yul\":5550:5568   */\n          0xffffffffffffffff\n            /* \"#utility.yul\":5542:5548   */\n          dup2\n            /* \"#utility.yul\":5539:5569   */\n          gt\n            /* \"#utility.yul\":5536:5653   */\n          iszero\n          tag_123\n          jumpi\n            /* \"#utility.yul\":5572:5651   */\n          tag_124\n          tag_39\n          jump\t// in\n        tag_124:\n            /* \"#utility.yul\":5536:5653   */\n        tag_123:\n            /* \"#utility.yul\":5677:5751   */\n          tag_125\n            /* \"#utility.yul\":5743:5750   */\n          dup9\n            /* \"#utility.yul\":5734:5740   */\n          dup3\n            /* \"#utility.yul\":5723:5732   */\n          dup10\n            /* \"#utility.yul\":5719:5741   */\n          add\n            /* \"#utility.yul\":5677:5751   */\n          tag_49\n          jump\t// in\n        tag_125:\n            /* \"#utility.yul\":5667:5751   */\n          swap6\n          pop\n            /* \"#utility.yul\":5470:5761   */\n          pop\n            /* \"#utility.yul\":5821:5823   */\n          0x20\n            /* \"#utility.yul\":5810:5819   */\n          dup7\n            /* \"#utility.yul\":5806:5824   */\n          add\n            /* \"#utility.yul\":5800:5825   */\n          mload\n            /* \"#utility.yul\":5852:5870   */\n          0xffffffffffffffff\n            /* \"#utility.yul\":5844:5850   */\n          dup2\n            /* \"#utility.yul\":5841:5871   */\n          gt\n            /* \"#utility.yul\":5838:5955   */\n          iszero\n          tag_126\n          jumpi\n            /* \"#utility.yul\":5874:5953   */\n          tag_127\n          tag_39\n          jump\t// in\n        tag_127:\n            /* \"#utility.yul\":5838:5955   */\n        tag_126:\n            /* \"#utility.yul\":5979:6053   */\n          tag_128\n            /* \"#utility.yul\":6045:6052   */\n          dup9\n            /* \"#utility.yul\":6036:6042   */\n          dup3\n            /* \"#utility.yul\":6025:6034   */\n          dup10\n            /* \"#utility.yul\":6021:6043   */\n          add\n            /* \"#utility.yul\":5979:6053   */\n          tag_49\n          jump\t// in\n        tag_128:\n            /* \"#utility.yul\":5969:6053   */\n          swap5\n          pop\n            /* \"#utility.yul\":5771:6063   */\n          pop\n            /* \"#utility.yul\":6123:6125   */\n          0x40\n            /* \"#utility.yul\":6112:6121   */\n          dup7\n            /* \"#utility.yul\":6108:6126   */\n          add\n            /* \"#utility.yul\":6102:6127   */\n          mload\n            /* \"#utility.yul\":6154:6172   */\n          0xffffffffffffffff\n            /* \"#utility.yul\":6146:6152   */\n          dup2\n            /* \"#utility.yul\":6143:6173   */\n          gt\n            /* \"#utility.yul\":6140:6257   */\n          iszero\n          tag_129\n          jumpi\n            /* \"#utility.yul\":6176:6255   */\n          tag_130\n          tag_39\n          jump\t// in\n        tag_130:\n            /* \"#utility.yul\":6140:6257   */\n        tag_129:\n            /* \"#utility.yul\":6281:6380   */\n          tag_131\n            /* \"#utility.yul\":6372:6379   */\n          dup9\n            /* \"#utility.yul\":6363:6369   */\n          dup3\n            /* \"#utility.yul\":6352:6361   */\n          dup10\n            /* \"#utility.yul\":6348:6370   */\n          add\n            /* \"#utility.yul\":6281:6380   */\n          tag_53\n          jump\t// in\n        tag_131:\n            /* \"#utility.yul\":6271:6380   */\n          swap4\n          pop\n            /* \"#utility.yul\":6073:6390   */\n          pop\n            /* \"#utility.yul\":6450:6452   */\n          0x60\n            /* \"#utility.yul\":6439:6448   */\n          dup7\n            /* \"#utility.yul\":6435:6453   */\n          add\n            /* \"#utility.yul\":6429:6454   */\n          mload\n            /* \"#utility.yul\":6481:6499   */\n          0xffffffffffffffff\n            /* \"#utility.yul\":6473:6479   */\n          dup2\n            /* \"#utility.yul\":6470:6500   */\n          gt\n            /* \"#utility.yul\":6467:6584   */\n          iszero\n          tag_132\n          jumpi\n            /* \"#utility.yul\":6503:6582   */\n          tag_133\n          tag_39\n          jump\t// in\n        tag_133:\n            /* \"#utility.yul\":6467:6584   */\n        tag_132:\n            /* \"#utility.yul\":6608:6707   */\n          tag_134\n            /* \"#utility.yul\":6699:6706   */\n          dup9\n            /* \"#utility.yul\":6690:6696   */\n          dup3\n            /* \"#utility.yul\":6679:6688   */\n          dup10\n            /* \"#utility.yul\":6675:6697   */\n          add\n            /* \"#utility.yul\":6608:6707   */\n          tag_53\n          jump\t// in\n        tag_134:\n            /* \"#utility.yul\":6598:6707   */\n          swap3\n          pop\n            /* \"#utility.yul\":6400:6717   */\n          pop\n            /* \"#utility.yul\":6756:6759   */\n          0x80\n            /* \"#utility.yul\":6783:6847   */\n          tag_135\n            /* \"#utility.yul\":6839:6846   */\n          dup9\n            /* \"#utility.yul\":6830:6836   */\n          dup3\n            /* \"#utility.yul\":6819:6828   */\n          dup10\n            /* \"#utility.yul\":6815:6837   */\n          add\n            /* \"#utility.yul\":6783:6847   */\n          tag_57\n          jump\t// in\n        tag_135:\n            /* \"#utility.yul\":6773:6847   */\n          swap2\n          pop\n            /* \"#utility.yul\":6727:6857   */\n          pop\n            /* \"#utility.yul\":5095:6864   */\n          swap3\n          swap6\n          pop\n          swap3\n          swap6\n          swap1\n          swap4\n          pop\n          jump\t// out\n            /* \"#utility.yul\":6870:7050   */\n        tag_58:\n            /* \"#utility.yul\":6918:6995   */\n          0x4e487b7100000000000000000000000000000000000000000000000000000000\n            /* \"#utility.yul\":6915:6916   */\n          0x00\n            /* \"#utility.yul\":6908:6996   */\n          mstore\n            /* \"#utility.yul\":7015:7019   */\n          0x22\n            /* \"#utility.yul\":7012:7013   */\n          0x04\n            /* \"#utility.yul\":7005:7020   */\n          mstore\n            /* \"#utility.yul\":7039:7043   */\n          0x24\n            /* \"#utility.yul\":7036:7037   */\n          0x00\n            /* \"#utility.yul\":7029:7044   */\n          revert\n            /* \"#utility.yul\":7056:7376   */\n        tag_13:\n            /* \"#utility.yul\":7100:7106   */\n          0x00\n            /* \"#utility.yul\":7137:7138   */\n          0x02\n            /* \"#utility.yul\":7131:7135   */\n          dup3\n            /* \"#utility.yul\":7127:7139   */\n          div\n            /* \"#utility.yul\":7117:7139   */\n          swap1\n          pop\n            /* \"#utility.yul\":7184:7185   */\n          0x01\n            /* \"#utility.yul\":7178:7182   */\n          dup3\n            /* \"#utility.yul\":7174:7186   */\n          and\n            /* \"#utility.yul\":7205:7223   */\n          dup1\n            /* \"#utility.yul\":7195:7276   */\n          tag_138\n          jumpi\n            /* \"#utility.yul\":7261:7265   */\n          0x7f\n            /* \"#utility.yul\":7253:7259   */\n          dup3\n            /* \"#utility.yul\":7249:7266   */\n          and\n            /* \"#utility.yul\":7239:7266   */\n          swap2\n          pop\n            /* \"#utility.yul\":7195:7276   */\n        tag_138:\n            /* \"#utility.yul\":7323:7325   */\n          0x20\n            /* \"#utility.yul\":7315:7321   */\n          dup3\n            /* \"#utility.yul\":7312:7326   */\n          lt\n            /* \"#utility.yul\":7292:7310   */\n          dup2\n            /* \"#utility.yul\":7289:7327   */\n          sub\n            /* \"#utility.yul\":7286:7370   */\n          tag_139\n          jumpi\n            /* \"#utility.yul\":7342:7360   */\n          tag_140\n          tag_58\n          jump\t// in\n        tag_140:\n            /* \"#utility.yul\":7286:7370   */\n        tag_139:\n            /* \"#utility.yul\":7107:7376   */\n          pop\n            /* \"#utility.yul\":7056:7376   */\n          swap2\n          swap1\n          pop\n          jump\t// out\n            /* \"Task.sol\":609:2374  contract Task {... */\n        tag_11:\n          dataSize(sub_0)\n          dup1\n          dataOffset(sub_0)\n          0x00\n          codecopy\n          0x00\n          return\n        stop\n\n        sub_0: assembly {\n                /* \"Task.sol\":609:2374  contract Task {... */\n              mstore(0x40, 0x80)\n              callvalue\n              dup1\n              iszero\n              tag_1\n              jumpi\n              0x00\n              dup1\n              revert\n            tag_1:\n              pop\n              jumpi(tag_2, lt(calldatasize, 0x04))\n              shr(0xe0, calldataload(0x00))\n              dup1\n              0x5f51c765\n              gt\n              tag_17\n              jumpi\n              dup1\n              0xa20fca5a\n              gt\n              tag_18\n              jumpi\n              dup1\n              0xa20fca5a\n              eq\n              tag_13\n              jumpi\n              dup1\n              0xaf84a013\n              eq\n              tag_14\n              jumpi\n              dup1\n              0xfa391c64\n              eq\n              tag_15\n              jumpi\n              dup1\n              0xfbc03a1e\n              eq\n              tag_16\n              jumpi\n              jump(tag_2)\n            tag_18:\n              dup1\n              0x5f51c765\n              eq\n              tag_10\n              jumpi\n              dup1\n              0x71096387\n              eq\n              tag_11\n              jumpi\n              dup1\n              0x74adad1d\n              eq\n              tag_12\n              jumpi\n              jump(tag_2)\n            tag_17:\n              dup1\n              0x481c6a75\n              gt\n              tag_19\n              jumpi\n              dup1\n              0x481c6a75\n              eq\n              tag_6\n              jumpi\n              dup1\n              0x4d547ada\n              eq\n              tag_7\n              jumpi\n              dup1\n              0x5a9b0b89\n              eq\n              tag_8\n              jumpi\n              dup1\n              0x5e1c7322\n              eq\n              tag_9\n              jumpi\n              jump(tag_2)\n            tag_19:\n              dup1\n              0x1aea77\n              eq\n              tag_3\n              jumpi\n              dup1\n              0x231e407a\n              eq\n              tag_4\n              jumpi\n              dup1\n              0x31c3a6f5\n              eq\n              tag_5\n              jumpi\n            tag_2:\n              0x00\n              dup1\n              revert\n                /* \"Task.sol\":750:772  string public taskName */\n            tag_3:\n              tag_20\n              tag_21\n              jump\t// in\n            tag_20:\n              mload(0x40)\n              tag_22\n              swap2\n              swap1\n              tag_23\n              jump\t// in\n            tag_22:\n              mload(0x40)\n              dup1\n              swap2\n              sub\n              swap1\n              return\n                /* \"Task.sol\":1784:1921  function killTask() public restricted {... */\n            tag_4:\n              tag_24\n              tag_25\n              jump\t// in\n            tag_24:\n              stop\n                /* \"Task.sol\":1929:2079  function creaetRequest(string memory description) public  {... */\n            tag_5:\n              tag_26\n              0x04\n              dup1\n              calldatasize\n              sub\n              dup2\n              add\n              swap1\n              tag_27\n              swap2\n              swap1\n              tag_28\n              jump\t// in\n            tag_27:\n              tag_29\n              jump\t// in\n            tag_26:\n              stop\n                /* \"Task.sol\":713:743  address payable public manager */\n            tag_6:\n              tag_30\n              tag_31\n              jump\t// in\n            tag_30:\n              mload(0x40)\n              tag_32\n              swap2\n              swap1\n              tag_33\n              jump\t// in\n            tag_32:\n              mload(0x40)\n              dup1\n              swap2\n              sub\n              swap1\n              return\n                /* \"Task.sol\":882:911  address payable public worker */\n            tag_7:\n              tag_34\n              tag_35\n              jump\t// in\n            tag_34:\n              mload(0x40)\n              tag_36\n              swap2\n              swap1\n              tag_33\n              jump\t// in\n            tag_36:\n              mload(0x40)\n              dup1\n              swap2\n              sub\n              swap1\n              return\n                /* \"Task.sol\":1357:1579  function getInfo() public view returns(address payable, string memory, string[] memory, string memory, address payable, bool) {... */\n            tag_8:\n              tag_37\n              tag_38\n              jump\t// in\n            tag_37:\n              mload(0x40)\n              tag_39\n              swap7\n              swap6\n              swap5\n              swap4\n              swap3\n              swap2\n              swap1\n              tag_40\n              jump\t// in\n            tag_39:\n              mload(0x40)\n              dup1\n              swap2\n              sub\n              swap1\n              return\n                /* \"Task.sol\":1678:1776  function getHashtags() public view returns(string[] memory) {... */\n            tag_9:\n              tag_41\n              tag_42\n              jump\t// in\n            tag_41:\n              mload(0x40)\n              tag_43\n              swap2\n              swap1\n              tag_44\n              jump\t// in\n            tag_43:\n              mload(0x40)\n              dup1\n              swap2\n              sub\n              swap1\n              return\n                /* \"Task.sol\":2087:2234  function startTask(address newWorker) public restricted {... */\n            tag_10:\n              tag_45\n              0x04\n              dup1\n              calldatasize\n              sub\n              dup2\n              add\n              swap1\n              tag_46\n              swap2\n              swap1\n              tag_47\n              jump\t// in\n            tag_46:\n              tag_48\n              jump\t// in\n            tag_45:\n              stop\n                /* \"Task.sol\":779:804  string[] public taskFiles */\n            tag_11:\n              tag_49\n              0x04\n              dup1\n              calldatasize\n              sub\n              dup2\n              add\n              swap1\n              tag_50\n              swap2\n              swap1\n              tag_51\n              jump\t// in\n            tag_50:\n              tag_52\n              jump\t// in\n            tag_49:\n              mload(0x40)\n              tag_53\n              swap2\n              swap1\n              tag_23\n              jump\t// in\n            tag_53:\n              mload(0x40)\n              dup1\n              swap2\n              sub\n              swap1\n              return\n                /* \"Task.sol\":948:991  mapping(address => Request) public requests */\n            tag_12:\n              tag_54\n              0x04\n              dup1\n              calldatasize\n              sub\n              dup2\n              add\n              swap1\n              tag_55\n              swap2\n              swap1\n              tag_47\n              jump\t// in\n            tag_55:\n              tag_56\n              jump\t// in\n            tag_54:\n              mload(0x40)\n              tag_57\n              swap3\n              swap2\n              swap1\n              tag_58\n              jump\t// in\n            tag_57:\n              mload(0x40)\n              dup1\n              swap2\n              sub\n              swap1\n              return\n                /* \"Task.sol\":2242:2371  function finalizeTask () public restricted {... */\n            tag_13:\n              tag_59\n              tag_60\n              jump\t// in\n            tag_59:\n              stop\n                /* \"Task.sol\":847:875  string[] public taskHashtags */\n            tag_14:\n              tag_61\n              0x04\n              dup1\n              calldatasize\n              sub\n              dup2\n              add\n              swap1\n              tag_62\n              swap2\n              swap1\n              tag_51\n              jump\t// in\n            tag_62:\n              tag_63\n              jump\t// in\n            tag_61:\n              mload(0x40)\n              tag_64\n              swap2\n              swap1\n              tag_23\n              jump\t// in\n            tag_64:\n              mload(0x40)\n              dup1\n              swap2\n              sub\n              swap1\n              return\n                /* \"Task.sol\":918:941  bool public isCompleted */\n            tag_15:\n              tag_65\n              tag_66\n              jump\t// in\n            tag_65:\n              mload(0x40)\n              tag_67\n              swap2\n              swap1\n              tag_68\n              jump\t// in\n            tag_67:\n              mload(0x40)\n              dup1\n              swap2\n              sub\n              swap1\n              return\n                /* \"Task.sol\":811:840  string public taskDescription */\n            tag_16:\n              tag_69\n              tag_70\n              jump\t// in\n            tag_69:\n              mload(0x40)\n              tag_71\n              swap2\n              swap1\n              tag_23\n              jump\t// in\n            tag_71:\n              mload(0x40)\n              dup1\n              swap2\n              sub\n              swap1\n              return\n                /* \"Task.sol\":750:772  string public taskName */\n            tag_21:\n              0x01\n              dup1\n              sload\n              tag_72\n              swap1\n              tag_73\n              jump\t// in\n            tag_72:\n              dup1\n              0x1f\n              add\n              0x20\n              dup1\n              swap2\n              div\n              mul\n              0x20\n              add\n              mload(0x40)\n              swap1\n              dup2\n              add\n              0x40\n              mstore\n              dup1\n              swap3\n              swap2\n              swap1\n              dup2\n              dup2\n              mstore\n              0x20\n              add\n              dup3\n              dup1\n              sload\n              tag_74\n              swap1\n              tag_73\n              jump\t// in\n            tag_74:\n              dup1\n              iszero\n              tag_75\n              jumpi\n              dup1\n              0x1f\n              lt\n              tag_76\n              jumpi\n              0x0100\n              dup1\n              dup4\n              sload\n              div\n              mul\n              dup4\n              mstore\n              swap2\n              0x20\n              add\n              swap2\n              jump(tag_75)\n            tag_76:\n              dup3\n              add\n              swap2\n              swap1\n              0x00\n              mstore\n              keccak256(0x00, 0x20)\n              swap1\n            tag_77:\n              dup2\n              sload\n              dup2\n              mstore\n              swap1\n              0x01\n              add\n              swap1\n              0x20\n              add\n              dup1\n              dup4\n              gt\n              tag_77\n              jumpi\n              dup3\n              swap1\n              sub\n              0x1f\n              and\n              dup3\n              add\n              swap2\n            tag_75:\n              pop\n              pop\n              pop\n              pop\n              pop\n              dup2\n              jump\t// out\n                /* \"Task.sol\":1784:1921  function killTask() public restricted {... */\n            tag_25:\n                /* \"Task.sol\":1642:1649  manager */\n              0x00\n              dup1\n              sload\n              swap1\n              0x0100\n              exp\n              swap1\n              div\n              0xffffffffffffffffffffffffffffffffffffffff\n              and\n                /* \"Task.sol\":1628:1649  msg.sender == manager */\n              0xffffffffffffffffffffffffffffffffffffffff\n              and\n                /* \"Task.sol\":1628:1638  msg.sender */\n              caller\n                /* \"Task.sol\":1628:1649  msg.sender == manager */\n              0xffffffffffffffffffffffffffffffffffffffff\n              and\n              eq\n                /* \"Task.sol\":1620:1650  require(msg.sender == manager) */\n              tag_79\n              jumpi\n              0x00\n              dup1\n              revert\n            tag_79:\n                /* \"Task.sol\":1859:1860  0 */\n              0x00\n                /* \"Task.sol\":1841:1861  worker == address(0) */\n              0xffffffffffffffffffffffffffffffffffffffff\n              and\n                /* \"Task.sol\":1841:1847  worker */\n              0x05\n              0x00\n              swap1\n              sload\n              swap1\n              0x0100\n              exp\n              swap1\n              div\n              0xffffffffffffffffffffffffffffffffffffffff\n              and\n                /* \"Task.sol\":1841:1861  worker == address(0) */\n              0xffffffffffffffffffffffffffffffffffffffff\n              and\n              eq\n                /* \"Task.sol\":1833:1862  require(worker == address(0)) */\n              tag_81\n              jumpi\n              0x00\n              dup1\n              revert\n            tag_81:\n                /* \"Task.sol\":1874:1881  manager */\n              0x00\n              dup1\n              sload\n              swap1\n              0x0100\n              exp\n              swap1\n              div\n              0xffffffffffffffffffffffffffffffffffffffff\n              and\n                /* \"Task.sol\":1874:1890  manager.transfer */\n              0xffffffffffffffffffffffffffffffffffffffff\n              and\n                /* \"Task.sol\":1874:1913  manager.transfer(address(this).balance) */\n              0x08fc\n                /* \"Task.sol\":1891:1912  address(this).balance */\n              selfbalance\n                /* \"Task.sol\":1874:1913  manager.transfer(address(this).balance) */\n              swap1\n              dup2\n              iszero\n              mul\n              swap1\n              mload(0x40)\n              0x00\n              mload(0x40)\n              dup1\n              dup4\n              sub\n              dup2\n              dup6\n              dup9\n              dup9\n              call\n              swap4\n              pop\n              pop\n              pop\n              pop\n              iszero\n              dup1\n              iszero\n              tag_83\n              jumpi\n              returndatasize\n              0x00\n              dup1\n              returndatacopy\n              revert(0x00, returndatasize)\n            tag_83:\n              pop\n                /* \"Task.sol\":1784:1921  function killTask() public restricted {... */\n              jump\t// out\n                /* \"Task.sol\":1929:2079  function creaetRequest(string memory description) public  {... */\n            tag_29:\n                /* \"Task.sol\":2021:2071  Request(... */\n              mload(0x40)\n              dup1\n              0x40\n              add\n              0x40\n              mstore\n              dup1\n                /* \"Task.sol\":2043:2054  description */\n              dup3\n                /* \"Task.sol\":2021:2071  Request(... */\n              dup2\n              mstore\n              0x20\n              add\n                /* \"Task.sol\":2056:2060  true */\n              0x01\n                /* \"Task.sol\":2021:2071  Request(... */\n              iszero\n              iszero\n              dup2\n              mstore\n              pop\n                /* \"Task.sol\":1998:2006  requests */\n              0x06\n                /* \"Task.sol\":1998:2018  requests[msg.sender] */\n              0x00\n                /* \"Task.sol\":2007:2017  msg.sender */\n              caller\n                /* \"Task.sol\":1998:2018  requests[msg.sender] */\n              0xffffffffffffffffffffffffffffffffffffffff\n              and\n              0xffffffffffffffffffffffffffffffffffffffff\n              and\n              dup2\n              mstore\n              0x20\n              add\n              swap1\n              dup2\n              mstore\n              0x20\n              add\n              0x00\n              keccak256\n                /* \"Task.sol\":1998:2071  requests[msg.sender] = Request(... */\n              0x00\n              dup3\n              add\n              mload\n              dup2\n              0x00\n              add\n              swap1\n              dup1\n              mload\n              swap1\n              0x20\n              add\n              swap1\n              tag_85\n              swap3\n              swap2\n              swap1\n              tag_86\n              jump\t// in\n            tag_85:\n              pop\n              0x20\n              dup3\n              add\n              mload\n              dup2\n              0x01\n              add\n              exp(0x0100, 0x00)\n              dup2\n              sload\n              dup2\n              0xff\n              mul\n              not\n              and\n              swap1\n              dup4\n              iszero\n              iszero\n              mul\n              or\n              swap1\n              sstore\n              pop\n              swap1\n              pop\n              pop\n                /* \"Task.sol\":1929:2079  function creaetRequest(string memory description) public  {... */\n              pop\n              jump\t// out\n                /* \"Task.sol\":713:743  address payable public manager */\n            tag_31:\n              0x00\n              dup1\n              sload\n              swap1\n              0x0100\n              exp\n              swap1\n              div\n              0xffffffffffffffffffffffffffffffffffffffff\n              and\n              dup2\n              jump\t// out\n                /* \"Task.sol\":882:911  address payable public worker */\n            tag_35:\n              0x05\n              0x00\n              swap1\n              sload\n              swap1\n              0x0100\n              exp\n              swap1\n              div\n              0xffffffffffffffffffffffffffffffffffffffff\n              and\n              dup2\n              jump\t// out\n                /* \"Task.sol\":1357:1579  function getInfo() public view returns(address payable, string memory, string[] memory, string memory, address payable, bool) {... */\n            tag_38:\n                /* \"Task.sol\":1396:1411  address payable */\n              0x00\n                /* \"Task.sol\":1413:1426  string memory */\n              0x60\n                /* \"Task.sol\":1428:1443  string[] memory */\n              dup1\n                /* \"Task.sol\":1445:1458  string memory */\n              0x60\n                /* \"Task.sol\":1460:1475  address payable */\n              0x00\n                /* \"Task.sol\":1477:1481  bool */\n              dup1\n                /* \"Task.sol\":1502:1509  manager */\n              0x00\n              dup1\n              sload\n              swap1\n              0x0100\n              exp\n              swap1\n              div\n              0xffffffffffffffffffffffffffffffffffffffff\n              and\n                /* \"Task.sol\":1511:1519  taskName */\n              0x01\n                /* \"Task.sol\":1521:1530  taskFiles */\n              0x02\n                /* \"Task.sol\":1532:1547  taskDescription */\n              0x03\n                /* \"Task.sol\":1549:1555  worker */\n              0x05\n              0x00\n              swap1\n              sload\n              swap1\n              0x0100\n              exp\n              swap1\n              div\n              0xffffffffffffffffffffffffffffffffffffffff\n              and\n                /* \"Task.sol\":1557:1568  isCompleted */\n              0x05\n              0x14\n              swap1\n              sload\n              swap1\n              0x0100\n              exp\n              swap1\n              div\n              0xff\n              and\n                /* \"Task.sol\":1494:1569  return (manager, taskName, taskFiles, taskDescription, worker, isCompleted) */\n              dup5\n              dup1\n              sload\n              tag_88\n              swap1\n              tag_73\n              jump\t// in\n            tag_88:\n              dup1\n              0x1f\n              add\n              0x20\n              dup1\n              swap2\n              div\n              mul\n              0x20\n              add\n              mload(0x40)\n              swap1\n              dup2\n              add\n              0x40\n              mstore\n              dup1\n              swap3\n              swap2\n              swap1\n              dup2\n              dup2\n              mstore\n              0x20\n              add\n              dup3\n              dup1\n              sload\n              tag_89\n              swap1\n              tag_73\n              jump\t// in\n            tag_89:\n              dup1\n              iszero\n              tag_90\n              jumpi\n              dup1\n              0x1f\n              lt\n              tag_91\n              jumpi\n              0x0100\n              dup1\n              dup4\n              sload\n              div\n              mul\n              dup4\n              mstore\n              swap2\n              0x20\n              add\n              swap2\n              jump(tag_90)\n            tag_91:\n              dup3\n              add\n              swap2\n              swap1\n              0x00\n              mstore\n              keccak256(0x00, 0x20)\n              swap1\n            tag_92:\n              dup2\n              sload\n              dup2\n              mstore\n              swap1\n              0x01\n              add\n              swap1\n              0x20\n              add\n              dup1\n              dup4\n              gt\n              tag_92\n              jumpi\n              dup3\n              swap1\n              sub\n              0x1f\n              and\n              dup3\n              add\n              swap2\n            tag_90:\n              pop\n              pop\n              pop\n              pop\n              pop\n              swap5\n              pop\n              dup4\n              dup1\n              sload\n              dup1\n              0x20\n              mul\n              0x20\n              add\n              mload(0x40)\n              swap1\n              dup2\n              add\n              0x40\n              mstore\n              dup1\n              swap3\n              swap2\n              swap1\n              dup2\n              dup2\n              mstore\n              0x20\n              add\n              0x00\n              swap1\n            tag_93:\n              dup3\n              dup3\n              lt\n              iszero\n              tag_94\n              jumpi\n              dup4\n              dup3\n              swap1\n              0x00\n              mstore\n              keccak256(0x00, 0x20)\n              add\n              dup1\n              sload\n              tag_96\n              swap1\n              tag_73\n              jump\t// in\n            tag_96:\n              dup1\n              0x1f\n              add\n              0x20\n              dup1\n              swap2\n              div\n              mul\n              0x20\n              add\n              mload(0x40)\n              swap1\n              dup2\n              add\n              0x40\n              mstore\n              dup1\n              swap3\n              swap2\n              swap1\n              dup2\n              dup2\n              mstore\n              0x20\n              add\n              dup3\n              dup1\n              sload\n              tag_97\n              swap1\n              tag_73\n              jump\t// in\n            tag_97:\n              dup1\n              iszero\n              tag_98\n              jumpi\n              dup1\n              0x1f\n              lt\n              tag_99\n              jumpi\n              0x0100\n              dup1\n              dup4\n              sload\n              div\n              mul\n              dup4\n              mstore\n              swap2\n              0x20\n              add\n              swap2\n              jump(tag_98)\n            tag_99:\n              dup3\n              add\n              swap2\n              swap1\n              0x00\n              mstore\n              keccak256(0x00, 0x20)\n              swap1\n            tag_100:\n              dup2\n              sload\n              dup2\n              mstore\n              swap1\n              0x01\n              add\n              swap1\n              0x20\n              add\n              dup1\n              dup4\n              gt\n              tag_100\n              jumpi\n              dup3\n              swap1\n              sub\n              0x1f\n              and\n              dup3\n              add\n              swap2\n            tag_98:\n              pop\n              pop\n              pop\n              pop\n              pop\n              dup2\n              mstore\n              0x20\n              add\n              swap1\n              0x01\n              add\n              swap1\n              jump(tag_93)\n            tag_94:\n              pop\n              pop\n              pop\n              pop\n              swap4\n              pop\n              dup3\n              dup1\n              sload\n              tag_101\n              swap1\n              tag_73\n              jump\t// in\n            tag_101:\n              dup1\n              0x1f\n              add\n              0x20\n              dup1\n              swap2\n              div\n              mul\n              0x20\n              add\n              mload(0x40)\n              swap1\n              dup2\n              add\n              0x40\n              mstore\n              dup1\n              swap3\n              swap2\n              swap1\n              dup2\n              dup2\n              mstore\n              0x20\n              add\n              dup3\n              dup1\n              sload\n              tag_102\n              swap1\n              tag_73\n              jump\t// in\n            tag_102:\n              dup1\n              iszero\n              tag_103\n              jumpi\n              dup1\n              0x1f\n              lt\n              tag_104\n              jumpi\n              0x0100\n              dup1\n              dup4\n              sload\n              div\n              mul\n              dup4\n              mstore\n              swap2\n              0x20\n              add\n              swap2\n              jump(tag_103)\n            tag_104:\n              dup3\n              add\n              swap2\n              swap1\n              0x00\n              mstore\n              keccak256(0x00, 0x20)\n              swap1\n            tag_105:\n              dup2\n              sload\n              dup2\n              mstore\n              swap1\n              0x01\n              add\n              swap1\n              0x20\n              add\n              dup1\n              dup4\n              gt\n              tag_105\n              jumpi\n              dup3\n              swap1\n              sub\n              0x1f\n              and\n              dup3\n              add\n              swap2\n            tag_103:\n              pop\n              pop\n              pop\n              pop\n              pop\n              swap3\n              pop\n              swap6\n              pop\n              swap6\n              pop\n              swap6\n              pop\n              swap6\n              pop\n              swap6\n              pop\n              swap6\n              pop\n                /* \"Task.sol\":1357:1579  function getInfo() public view returns(address payable, string memory, string[] memory, string memory, address payable, bool) {... */\n              swap1\n              swap2\n              swap3\n              swap4\n              swap5\n              swap6\n              jump\t// out\n                /* \"Task.sol\":1678:1776  function getHashtags() public view returns(string[] memory) {... */\n            tag_42:\n                /* \"Task.sol\":1721:1736  string[] memory */\n              0x60\n                /* \"Task.sol\":1756:1768  taskHashtags */\n              0x04\n                /* \"Task.sol\":1749:1768  return taskHashtags */\n              dup1\n              sload\n              dup1\n              0x20\n              mul\n              0x20\n              add\n              mload(0x40)\n              swap1\n              dup2\n              add\n              0x40\n              mstore\n              dup1\n              swap3\n              swap2\n              swap1\n              dup2\n              dup2\n              mstore\n              0x20\n              add\n              0x00\n              swap1\n            tag_107:\n              dup3\n              dup3\n              lt\n              iszero\n              tag_108\n              jumpi\n              dup4\n              dup3\n              swap1\n              0x00\n              mstore\n              keccak256(0x00, 0x20)\n              add\n              dup1\n              sload\n              tag_110\n              swap1\n              tag_73\n              jump\t// in\n            tag_110:\n              dup1\n              0x1f\n              add\n              0x20\n              dup1\n              swap2\n              div\n              mul\n              0x20\n              add\n              mload(0x40)\n              swap1\n              dup2\n              add\n              0x40\n              mstore\n              dup1\n              swap3\n              swap2\n              swap1\n              dup2\n              dup2\n              mstore\n              0x20\n              add\n              dup3\n              dup1\n              sload\n              tag_111\n              swap1\n              tag_73\n              jump\t// in\n            tag_111:\n              dup1\n              iszero\n              tag_112\n              jumpi\n              dup1\n              0x1f\n              lt\n              tag_113\n              jumpi\n              0x0100\n              dup1\n              dup4\n              sload\n              div\n              mul\n              dup4\n              mstore\n              swap2\n              0x20\n              add\n              swap2\n              jump(tag_112)\n            tag_113:\n              dup3\n              add\n              swap2\n              swap1\n              0x00\n              mstore\n              keccak256(0x00, 0x20)\n              swap1\n            tag_114:\n              dup2\n              sload\n              dup2\n              mstore\n              swap1\n              0x01\n              add\n              swap1\n              0x20\n              add\n              dup1\n              dup4\n              gt\n              tag_114\n              jumpi\n              dup3\n              swap1\n              sub\n              0x1f\n              and\n              dup3\n              add\n              swap2\n            tag_112:\n              pop\n              pop\n              pop\n              pop\n              pop\n              dup2\n              mstore\n              0x20\n              add\n              swap1\n              0x01\n              add\n              swap1\n              jump(tag_107)\n            tag_108:\n              pop\n              pop\n              pop\n              pop\n              swap1\n              pop\n                /* \"Task.sol\":1678:1776  function getHashtags() public view returns(string[] memory) {... */\n              swap1\n              jump\t// out\n                /* \"Task.sol\":2087:2234  function startTask(address newWorker) public restricted {... */\n            tag_48:\n                /* \"Task.sol\":1642:1649  manager */\n              0x00\n              dup1\n              sload\n              swap1\n              0x0100\n              exp\n              swap1\n              div\n              0xffffffffffffffffffffffffffffffffffffffff\n              and\n                /* \"Task.sol\":1628:1649  msg.sender == manager */\n              0xffffffffffffffffffffffffffffffffffffffff\n              and\n                /* \"Task.sol\":1628:1638  msg.sender */\n              caller\n                /* \"Task.sol\":1628:1649  msg.sender == manager */\n              0xffffffffffffffffffffffffffffffffffffffff\n              and\n              eq\n                /* \"Task.sol\":1620:1650  require(msg.sender == manager) */\n              tag_116\n              jumpi\n              0x00\n              dup1\n              revert\n            tag_116:\n                /* \"Task.sol\":2162:2170  requests */\n              0x06\n                /* \"Task.sol\":2162:2181  requests[newWorker] */\n              0x00\n                /* \"Task.sol\":2171:2180  newWorker */\n              dup3\n                /* \"Task.sol\":2162:2181  requests[newWorker] */\n              0xffffffffffffffffffffffffffffffffffffffff\n              and\n              0xffffffffffffffffffffffffffffffffffffffff\n              and\n              dup2\n              mstore\n              0x20\n              add\n              swap1\n              dup2\n              mstore\n              0x20\n              add\n              0x00\n              keccak256\n                /* \"Task.sol\":2162:2187  requests[newWorker].exist */\n              0x01\n              add\n              0x00\n              swap1\n              sload\n              swap1\n              0x0100\n              exp\n              swap1\n              div\n              0xff\n              and\n                /* \"Task.sol\":2154:2188  require(requests[newWorker].exist) */\n              tag_118\n              jumpi\n              0x00\n              dup1\n              revert\n            tag_118:\n                /* \"Task.sol\":2216:2225  newWorker */\n              dup1\n                /* \"Task.sol\":2199:2205  worker */\n              0x05\n              0x00\n                /* \"Task.sol\":2199:2226  worker = payable(newWorker) */\n              0x0100\n              exp\n              dup2\n              sload\n              dup2\n              0xffffffffffffffffffffffffffffffffffffffff\n              mul\n              not\n              and\n              swap1\n              dup4\n              0xffffffffffffffffffffffffffffffffffffffff\n              and\n              mul\n              or\n              swap1\n              sstore\n              pop\n                /* \"Task.sol\":2087:2234  function startTask(address newWorker) public restricted {... */\n              pop\n              jump\t// out\n                /* \"Task.sol\":779:804  string[] public taskFiles */\n            tag_52:\n              0x02\n              dup2\n              dup2\n              sload\n              dup2\n              lt\n              tag_119\n              jumpi\n              0x00\n              dup1\n              revert\n            tag_119:\n              swap1\n              0x00\n              mstore\n              keccak256(0x00, 0x20)\n              add\n              0x00\n              swap2\n              pop\n              swap1\n              pop\n              dup1\n              sload\n              tag_121\n              swap1\n              tag_73\n              jump\t// in\n            tag_121:\n              dup1\n              0x1f\n              add\n              0x20\n              dup1\n              swap2\n              div\n              mul\n              0x20\n              add\n              mload(0x40)\n              swap1\n              dup2\n              add\n              0x40\n              mstore\n              dup1\n              swap3\n              swap2\n              swap1\n              dup2\n              dup2\n              mstore\n              0x20\n              add\n              dup3\n              dup1\n              sload\n              tag_122\n              swap1\n              tag_73\n              jump\t// in\n            tag_122:\n              dup1\n              iszero\n              tag_123\n              jumpi\n              dup1\n              0x1f\n              lt\n              tag_124\n              jumpi\n              0x0100\n              dup1\n              dup4\n              sload\n              div\n              mul\n              dup4\n              mstore\n              swap2\n              0x20\n              add\n              swap2\n              jump(tag_123)\n            tag_124:\n              dup3\n              add\n              swap2\n              swap1\n              0x00\n              mstore\n              keccak256(0x00, 0x20)\n              swap1\n            tag_125:\n              dup2\n              sload\n              dup2\n              mstore\n              swap1\n              0x01\n              add\n              swap1\n              0x20\n              add\n              dup1\n              dup4\n              gt\n              tag_125\n              jumpi\n              dup3\n              swap1\n              sub\n              0x1f\n              and\n              dup3\n              add\n              swap2\n            tag_123:\n              pop\n              pop\n              pop\n              pop\n              pop\n              dup2\n              jump\t// out\n                /* \"Task.sol\":948:991  mapping(address => Request) public requests */\n            tag_56:\n              mstore(0x20, 0x06)\n              dup1\n              0x00\n              mstore\n              keccak256(0x00, 0x40)\n              0x00\n              swap2\n              pop\n              swap1\n              pop\n              dup1\n              0x00\n              add\n              dup1\n              sload\n              tag_126\n              swap1\n              tag_73\n              jump\t// in\n            tag_126:\n              dup1\n              0x1f\n              add\n              0x20\n              dup1\n              swap2\n              div\n              mul\n              0x20\n              add\n              mload(0x40)\n              swap1\n              dup2\n              add\n              0x40\n              mstore\n              dup1\n              swap3\n              swap2\n              swap1\n              dup2\n              dup2\n              mstore\n              0x20\n              add\n              dup3\n              dup1\n              sload\n              tag_127\n              swap1\n              tag_73\n              jump\t// in\n            tag_127:\n              dup1\n              iszero\n              tag_128\n              jumpi\n              dup1\n              0x1f\n              lt\n              tag_129\n              jumpi\n              0x0100\n              dup1\n              dup4\n              sload\n              div\n              mul\n              dup4\n              mstore\n              swap2\n              0x20\n              add\n              swap2\n              jump(tag_128)\n            tag_129:\n              dup3\n              add\n              swap2\n              swap1\n              0x00\n              mstore\n              keccak256(0x00, 0x20)\n              swap1\n            tag_130:\n              dup2\n              sload\n              dup2\n              mstore\n              swap1\n              0x01\n              add\n              swap1\n              0x20\n              add\n              dup1\n              dup4\n              gt\n              tag_130\n              jumpi\n              dup3\n              swap1\n              sub\n              0x1f\n              and\n              dup3\n              add\n              swap2\n            tag_128:\n              pop\n              pop\n              pop\n              pop\n              pop\n              swap1\n              dup1\n              0x01\n              add\n              0x00\n              swap1\n              sload\n              swap1\n              0x0100\n              exp\n              swap1\n              div\n              0xff\n              and\n              swap1\n              pop\n              dup3\n              jump\t// out\n                /* \"Task.sol\":2242:2371  function finalizeTask () public restricted {... */\n            tag_60:\n                /* \"Task.sol\":1642:1649  manager */\n              0x00\n              dup1\n              sload\n              swap1\n              0x0100\n              exp\n              swap1\n              div\n              0xffffffffffffffffffffffffffffffffffffffff\n              and\n                /* \"Task.sol\":1628:1649  msg.sender == manager */\n              0xffffffffffffffffffffffffffffffffffffffff\n              and\n                /* \"Task.sol\":1628:1638  msg.sender */\n              caller\n                /* \"Task.sol\":1628:1649  msg.sender == manager */\n              0xffffffffffffffffffffffffffffffffffffffff\n              and\n              eq\n                /* \"Task.sol\":1620:1650  require(msg.sender == manager) */\n              tag_132\n              jumpi\n              0x00\n              dup1\n              revert\n            tag_132:\n                /* \"Task.sol\":2296:2302  worker */\n              0x05\n              0x00\n              swap1\n              sload\n              swap1\n              0x0100\n              exp\n              swap1\n              div\n              0xffffffffffffffffffffffffffffffffffffffff\n              and\n                /* \"Task.sol\":2296:2311  worker.transfer */\n              0xffffffffffffffffffffffffffffffffffffffff\n              and\n                /* \"Task.sol\":2296:2334  worker.transfer(address(this).balance) */\n              0x08fc\n                /* \"Task.sol\":2312:2333  address(this).balance */\n              selfbalance\n                /* \"Task.sol\":2296:2334  worker.transfer(address(this).balance) */\n              swap1\n              dup2\n              iszero\n              mul\n              swap1\n              mload(0x40)\n              0x00\n              mload(0x40)\n              dup1\n              dup4\n              sub\n              dup2\n              dup6\n              dup9\n              dup9\n              call\n              swap4\n              pop\n              pop\n              pop\n              pop\n              iszero\n              dup1\n              iszero\n              tag_135\n              jumpi\n              returndatasize\n              0x00\n              dup1\n              returndatacopy\n              revert(0x00, returndatasize)\n            tag_135:\n              pop\n                /* \"Task.sol\":2359:2363  true */\n              0x01\n                /* \"Task.sol\":2345:2356  isCompleted */\n              0x05\n              0x14\n                /* \"Task.sol\":2345:2363  isCompleted = true */\n              0x0100\n              exp\n              dup2\n              sload\n              dup2\n              0xff\n              mul\n              not\n              and\n              swap1\n              dup4\n              iszero\n              iszero\n              mul\n              or\n              swap1\n              sstore\n              pop\n                /* \"Task.sol\":2242:2371  function finalizeTask () public restricted {... */\n              jump\t// out\n                /* \"Task.sol\":847:875  string[] public taskHashtags */\n            tag_63:\n              0x04\n              dup2\n              dup2\n              sload\n              dup2\n              lt\n              tag_136\n              jumpi\n              0x00\n              dup1\n              revert\n            tag_136:\n              swap1\n              0x00\n              mstore\n              keccak256(0x00, 0x20)\n              add\n              0x00\n              swap2\n              pop\n              swap1\n              pop\n              dup1\n              sload\n              tag_138\n              swap1\n              tag_73\n              jump\t// in\n            tag_138:\n              dup1\n              0x1f\n              add\n              0x20\n              dup1\n              swap2\n              div\n              mul\n              0x20\n              add\n              mload(0x40)\n              swap1\n              dup2\n              add\n              0x40\n              mstore\n              dup1\n              swap3\n              swap2\n              swap1\n              dup2\n              dup2\n              mstore\n              0x20\n              add\n              dup3\n              dup1\n              sload\n              tag_139\n              swap1\n              tag_73\n              jump\t// in\n            tag_139:\n              dup1\n              iszero\n              tag_140\n              jumpi\n              dup1\n              0x1f\n              lt\n              tag_141\n              jumpi\n              0x0100\n              dup1\n              dup4\n              sload\n              div\n              mul\n              dup4\n              mstore\n              swap2\n              0x20\n              add\n              swap2\n              jump(tag_140)\n            tag_141:\n              dup3\n              add\n              swap2\n              swap1\n              0x00\n              mstore\n              keccak256(0x00, 0x20)\n              swap1\n            tag_142:\n              dup2\n              sload\n              dup2\n              mstore\n              swap1\n              0x01\n              add\n              swap1\n              0x20\n              add\n              dup1\n              dup4\n              gt\n              tag_142\n              jumpi\n              dup3\n              swap1\n              sub\n              0x1f\n              and\n              dup3\n              add\n              swap2\n            tag_140:\n              pop\n              pop\n              pop\n              pop\n              pop\n              dup2\n              jump\t// out\n                /* \"Task.sol\":918:941  bool public isCompleted */\n            tag_66:\n              0x05\n              0x14\n              swap1\n              sload\n              swap1\n              0x0100\n              exp\n              swap1\n              div\n              0xff\n              and\n              dup2\n              jump\t// out\n                /* \"Task.sol\":811:840  string public taskDescription */\n            tag_70:\n              0x03\n              dup1\n              sload\n              tag_143\n              swap1\n              tag_73\n              jump\t// in\n            tag_143:\n              dup1\n              0x1f\n              add\n              0x20\n              dup1\n              swap2\n              div\n              mul\n              0x20\n              add\n              mload(0x40)\n              swap1\n              dup2\n              add\n              0x40\n              mstore\n              dup1\n              swap3\n              swap2\n              swap1\n              dup2\n              dup2\n              mstore\n              0x20\n              add\n              dup3\n              dup1\n              sload\n              tag_144\n              swap1\n              tag_73\n              jump\t// in\n            tag_144:\n              dup1\n              iszero\n              tag_145\n              jumpi\n              dup1\n              0x1f\n              lt\n              tag_146\n              jumpi\n              0x0100\n              dup1\n              dup4\n              sload\n              div\n              mul\n              dup4\n              mstore\n              swap2\n              0x20\n              add\n              swap2\n              jump(tag_145)\n            tag_146:\n              dup3\n              add\n              swap2\n              swap1\n              0x00\n              mstore\n              keccak256(0x00, 0x20)\n              swap1\n            tag_147:\n              dup2\n              sload\n              dup2\n              mstore\n              swap1\n              0x01\n              add\n              swap1\n              0x20\n              add\n              dup1\n              dup4\n              gt\n              tag_147\n              jumpi\n              dup3\n              swap1\n              sub\n              0x1f\n              and\n              dup3\n              add\n              swap2\n            tag_145:\n              pop\n              pop\n              pop\n              pop\n              pop\n              dup2\n              jump\t// out\n            tag_86:\n              dup3\n              dup1\n              sload\n              tag_148\n              swap1\n              tag_73\n              jump\t// in\n            tag_148:\n              swap1\n              0x00\n              mstore\n              keccak256(0x00, 0x20)\n              swap1\n              0x1f\n              add\n              0x20\n              swap1\n              div\n              dup2\n              add\n              swap3\n              dup3\n              tag_150\n              jumpi\n              0x00\n              dup6\n              sstore\n              jump(tag_149)\n            tag_150:\n              dup3\n              0x1f\n              lt\n              tag_151\n              jumpi\n              dup1\n              mload\n              not(0xff)\n              and\n              dup4\n              dup1\n              add\n              or\n              dup6\n              sstore\n              jump(tag_149)\n            tag_151:\n              dup3\n              dup1\n              add\n              0x01\n              add\n              dup6\n              sstore\n              dup3\n              iszero\n              tag_149\n              jumpi\n              swap2\n              dup3\n              add\n            tag_152:\n              dup3\n              dup2\n              gt\n              iszero\n              tag_153\n              jumpi\n              dup3\n              mload\n              dup3\n              sstore\n              swap2\n              0x20\n              add\n              swap2\n              swap1\n              0x01\n              add\n              swap1\n              jump(tag_152)\n            tag_153:\n            tag_149:\n              pop\n              swap1\n              pop\n              tag_154\n              swap2\n              swap1\n              tag_155\n              jump\t// in\n            tag_154:\n              pop\n              swap1\n              jump\t// out\n            tag_155:\n            tag_156:\n              dup1\n              dup3\n              gt\n              iszero\n              tag_157\n              jumpi\n              0x00\n              dup2\n              0x00\n              swap1\n              sstore\n              pop\n              0x01\n              add\n              jump(tag_156)\n            tag_157:\n              pop\n              swap1\n              jump\t// out\n                /* \"#utility.yul\":7:106   */\n            tag_158:\n                /* \"#utility.yul\":59:65   */\n              0x00\n                /* \"#utility.yul\":93:98   */\n              dup2\n                /* \"#utility.yul\":87:99   */\n              mload\n                /* \"#utility.yul\":77:99   */\n              swap1\n              pop\n                /* \"#utility.yul\":7:106   */\n              swap2\n              swap1\n              pop\n              jump\t// out\n                /* \"#utility.yul\":112:281   */\n            tag_159:\n                /* \"#utility.yul\":196:207   */\n              0x00\n                /* \"#utility.yul\":230:236   */\n              dup3\n                /* \"#utility.yul\":225:228   */\n              dup3\n                /* \"#utility.yul\":218:237   */\n              mstore\n                /* \"#utility.yul\":270:274   */\n              0x20\n                /* \"#utility.yul\":265:268   */\n              dup3\n                /* \"#utility.yul\":261:275   */\n              add\n                /* \"#utility.yul\":246:275   */\n              swap1\n              pop\n                /* \"#utility.yul\":112:281   */\n              swap3\n              swap2\n              pop\n              pop\n              jump\t// out\n                /* \"#utility.yul\":287:594   */\n            tag_160:\n                /* \"#utility.yul\":355:356   */\n              0x00\n                /* \"#utility.yul\":365:478   */\n            tag_199:\n                /* \"#utility.yul\":379:385   */\n              dup4\n                /* \"#utility.yul\":376:377   */\n              dup2\n                /* \"#utility.yul\":373:386   */\n              lt\n                /* \"#utility.yul\":365:478   */\n              iszero\n              tag_201\n              jumpi\n                /* \"#utility.yul\":464:465   */\n              dup1\n                /* \"#utility.yul\":459:462   */\n              dup3\n                /* \"#utility.yul\":455:466   */\n              add\n                /* \"#utility.yul\":449:467   */\n              mload\n                /* \"#utility.yul\":445:446   */\n              dup2\n                /* \"#utility.yul\":440:443   */\n              dup5\n                /* \"#utility.yul\":436:447   */\n              add\n                /* \"#utility.yul\":429:468   */\n              mstore\n                /* \"#utility.yul\":401:403   */\n              0x20\n                /* \"#utility.yul\":398:399   */\n              dup2\n                /* \"#utility.yul\":394:404   */\n              add\n                /* \"#utility.yul\":389:404   */\n              swap1\n              pop\n                /* \"#utility.yul\":365:478   */\n              jump(tag_199)\n            tag_201:\n                /* \"#utility.yul\":496:502   */\n              dup4\n                /* \"#utility.yul\":493:494   */\n              dup2\n                /* \"#utility.yul\":490:503   */\n              gt\n                /* \"#utility.yul\":487:588   */\n              iszero\n              tag_202\n              jumpi\n                /* \"#utility.yul\":576:577   */\n              0x00\n                /* \"#utility.yul\":567:573   */\n              dup5\n                /* \"#utility.yul\":562:565   */\n              dup5\n                /* \"#utility.yul\":558:574   */\n              add\n                /* \"#utility.yul\":551:578   */\n              mstore\n                /* \"#utility.yul\":487:588   */\n            tag_202:\n                /* \"#utility.yul\":336:594   */\n              pop\n                /* \"#utility.yul\":287:594   */\n              pop\n              pop\n              pop\n              jump\t// out\n                /* \"#utility.yul\":600:702   */\n            tag_161:\n                /* \"#utility.yul\":641:647   */\n              0x00\n                /* \"#utility.yul\":692:694   */\n              0x1f\n                /* \"#utility.yul\":688:695   */\n              not\n                /* \"#utility.yul\":683:685   */\n              0x1f\n                /* \"#utility.yul\":676:681   */\n              dup4\n                /* \"#utility.yul\":672:686   */\n              add\n                /* \"#utility.yul\":668:696   */\n              and\n                /* \"#utility.yul\":658:696   */\n              swap1\n              pop\n                /* \"#utility.yul\":600:702   */\n              swap2\n              swap1\n              pop\n              jump\t// out\n                /* \"#utility.yul\":708:1072   */\n            tag_162:\n                /* \"#utility.yul\":796:799   */\n              0x00\n                /* \"#utility.yul\":824:863   */\n              tag_205\n                /* \"#utility.yul\":857:862   */\n              dup3\n                /* \"#utility.yul\":824:863   */\n              tag_158\n              jump\t// in\n            tag_205:\n                /* \"#utility.yul\":879:950   */\n              tag_206\n                /* \"#utility.yul\":943:949   */\n              dup2\n                /* \"#utility.yul\":938:941   */\n              dup6\n                /* \"#utility.yul\":879:950   */\n              tag_159\n              jump\t// in\n            tag_206:\n                /* \"#utility.yul\":872:950   */\n              swap4\n              pop\n                /* \"#utility.yul\":959:1011   */\n              tag_207\n                /* \"#utility.yul\":1004:1010   */\n              dup2\n                /* \"#utility.yul\":999:1002   */\n              dup6\n                /* \"#utility.yul\":992:996   */\n              0x20\n                /* \"#utility.yul\":985:990   */\n              dup7\n                /* \"#utility.yul\":981:997   */\n              add\n                /* \"#utility.yul\":959:1011   */\n              tag_160\n              jump\t// in\n            tag_207:\n                /* \"#utility.yul\":1036:1065   */\n              tag_208\n                /* \"#utility.yul\":1058:1064   */\n              dup2\n                /* \"#utility.yul\":1036:1065   */\n              tag_161\n              jump\t// in\n            tag_208:\n                /* \"#utility.yul\":1031:1034   */\n              dup5\n                /* \"#utility.yul\":1027:1066   */\n              add\n                /* \"#utility.yul\":1020:1066   */\n              swap2\n              pop\n                /* \"#utility.yul\":800:1072   */\n              pop\n                /* \"#utility.yul\":708:1072   */\n              swap3\n              swap2\n              pop\n              pop\n              jump\t// out\n                /* \"#utility.yul\":1078:1391   */\n            tag_23:\n                /* \"#utility.yul\":1191:1195   */\n              0x00\n                /* \"#utility.yul\":1229:1231   */\n              0x20\n                /* \"#utility.yul\":1218:1227   */\n              dup3\n                /* \"#utility.yul\":1214:1232   */\n              add\n                /* \"#utility.yul\":1206:1232   */\n              swap1\n              pop\n                /* \"#utility.yul\":1278:1287   */\n              dup2\n                /* \"#utility.yul\":1272:1276   */\n              dup2\n                /* \"#utility.yul\":1268:1288   */\n              sub\n                /* \"#utility.yul\":1264:1265   */\n              0x00\n                /* \"#utility.yul\":1253:1262   */\n              dup4\n                /* \"#utility.yul\":1249:1266   */\n              add\n                /* \"#utility.yul\":1242:1289   */\n              mstore\n                /* \"#utility.yul\":1306:1384   */\n              tag_210\n                /* \"#utility.yul\":1379:1383   */\n              dup2\n                /* \"#utility.yul\":1370:1376   */\n              dup5\n                /* \"#utility.yul\":1306:1384   */\n              tag_162\n              jump\t// in\n            tag_210:\n                /* \"#utility.yul\":1298:1384   */\n              swap1\n              pop\n                /* \"#utility.yul\":1078:1391   */\n              swap3\n              swap2\n              pop\n              pop\n              jump\t// out\n                /* \"#utility.yul\":1397:1472   */\n            tag_163:\n                /* \"#utility.yul\":1430:1436   */\n              0x00\n                /* \"#utility.yul\":1463:1465   */\n              0x40\n                /* \"#utility.yul\":1457:1466   */\n              mload\n                /* \"#utility.yul\":1447:1466   */\n              swap1\n              pop\n                /* \"#utility.yul\":1397:1472   */\n              swap1\n              jump\t// out\n                /* \"#utility.yul\":1478:1595   */\n            tag_164:\n                /* \"#utility.yul\":1587:1588   */\n              0x00\n                /* \"#utility.yul\":1584:1585   */\n              dup1\n                /* \"#utility.yul\":1577:1589   */\n              revert\n                /* \"#utility.yul\":1601:1718   */\n            tag_165:\n                /* \"#utility.yul\":1710:1711   */\n              0x00\n                /* \"#utility.yul\":1707:1708   */\n              dup1\n                /* \"#utility.yul\":1700:1712   */\n              revert\n                /* \"#utility.yul\":1724:1841   */\n            tag_166:\n                /* \"#utility.yul\":1833:1834   */\n              0x00\n                /* \"#utility.yul\":1830:1831   */\n              dup1\n                /* \"#utility.yul\":1823:1835   */\n              revert\n                /* \"#utility.yul\":1847:1964   */\n            tag_167:\n                /* \"#utility.yul\":1956:1957   */\n              0x00\n                /* \"#utility.yul\":1953:1954   */\n              dup1\n                /* \"#utility.yul\":1946:1958   */\n              revert\n                /* \"#utility.yul\":1970:2150   */\n            tag_168:\n                /* \"#utility.yul\":2018:2095   */\n              0x4e487b7100000000000000000000000000000000000000000000000000000000\n                /* \"#utility.yul\":2015:2016   */\n              0x00\n                /* \"#utility.yul\":2008:2096   */\n              mstore\n                /* \"#utility.yul\":2115:2119   */\n              0x41\n                /* \"#utility.yul\":2112:2113   */\n              0x04\n                /* \"#utility.yul\":2105:2120   */\n              mstore\n                /* \"#utility.yul\":2139:2143   */\n              0x24\n                /* \"#utility.yul\":2136:2137   */\n              0x00\n                /* \"#utility.yul\":2129:2144   */\n              revert\n                /* \"#utility.yul\":2156:2437   */\n            tag_169:\n                /* \"#utility.yul\":2239:2266   */\n              tag_218\n                /* \"#utility.yul\":2261:2265   */\n              dup3\n                /* \"#utility.yul\":2239:2266   */\n              tag_161\n              jump\t// in\n            tag_218:\n                /* \"#utility.yul\":2231:2237   */\n              dup2\n                /* \"#utility.yul\":2227:2267   */\n              add\n                /* \"#utility.yul\":2369:2375   */\n              dup2\n                /* \"#utility.yul\":2357:2367   */\n              dup2\n                /* \"#utility.yul\":2354:2376   */\n              lt\n                /* \"#utility.yul\":2333:2351   */\n              0xffffffffffffffff\n                /* \"#utility.yul\":2321:2331   */\n              dup3\n                /* \"#utility.yul\":2318:2352   */\n              gt\n                /* \"#utility.yul\":2315:2377   */\n              or\n                /* \"#utility.yul\":2312:2400   */\n              iszero\n              tag_219\n              jumpi\n                /* \"#utility.yul\":2380:2398   */\n              tag_220\n              tag_168\n              jump\t// in\n            tag_220:\n                /* \"#utility.yul\":2312:2400   */\n            tag_219:\n                /* \"#utility.yul\":2420:2430   */\n              dup1\n                /* \"#utility.yul\":2416:2418   */\n              0x40\n                /* \"#utility.yul\":2409:2431   */\n              mstore\n                /* \"#utility.yul\":2199:2437   */\n              pop\n                /* \"#utility.yul\":2156:2437   */\n              pop\n              pop\n              jump\t// out\n                /* \"#utility.yul\":2443:2572   */\n            tag_170:\n                /* \"#utility.yul\":2477:2483   */\n              0x00\n                /* \"#utility.yul\":2504:2524   */\n              tag_222\n              tag_163\n              jump\t// in\n            tag_222:\n                /* \"#utility.yul\":2494:2524   */\n              swap1\n              pop\n                /* \"#utility.yul\":2533:2566   */\n              tag_223\n                /* \"#utility.yul\":2561:2565   */\n              dup3\n                /* \"#utility.yul\":2553:2559   */\n              dup3\n                /* \"#utility.yul\":2533:2566   */\n              tag_169\n              jump\t// in\n            tag_223:\n                /* \"#utility.yul\":2443:2572   */\n              swap2\n              swap1\n              pop\n              jump\t// out\n                /* \"#utility.yul\":2578:2886   */\n            tag_171:\n                /* \"#utility.yul\":2640:2644   */\n              0x00\n                /* \"#utility.yul\":2730:2748   */\n              0xffffffffffffffff\n                /* \"#utility.yul\":2722:2728   */\n              dup3\n                /* \"#utility.yul\":2719:2749   */\n              gt\n                /* \"#utility.yul\":2716:2772   */\n              iszero\n              tag_225\n              jumpi\n                /* \"#utility.yul\":2752:2770   */\n              tag_226\n              tag_168\n              jump\t// in\n            tag_226:\n                /* \"#utility.yul\":2716:2772   */\n            tag_225:\n                /* \"#utility.yul\":2790:2819   */\n              tag_227\n                /* \"#utility.yul\":2812:2818   */\n              dup3\n                /* \"#utility.yul\":2790:2819   */\n              tag_161\n              jump\t// in\n            tag_227:\n                /* \"#utility.yul\":2782:2819   */\n              swap1\n              pop\n                /* \"#utility.yul\":2874:2878   */\n              0x20\n                /* \"#utility.yul\":2868:2872   */\n              dup2\n                /* \"#utility.yul\":2864:2879   */\n              add\n                /* \"#utility.yul\":2856:2879   */\n              swap1\n              pop\n                /* \"#utility.yul\":2578:2886   */\n              swap2\n              swap1\n              pop\n              jump\t// out\n                /* \"#utility.yul\":2892:3046   */\n            tag_172:\n                /* \"#utility.yul\":2976:2982   */\n              dup3\n                /* \"#utility.yul\":2971:2974   */\n              dup2\n                /* \"#utility.yul\":2966:2969   */\n              dup4\n                /* \"#utility.yul\":2953:2983   */\n              calldatacopy\n                /* \"#utility.yul\":3038:3039   */\n              0x00\n                /* \"#utility.yul\":3029:3035   */\n              dup4\n                /* \"#utility.yul\":3024:3027   */\n              dup4\n                /* \"#utility.yul\":3020:3036   */\n              add\n                /* \"#utility.yul\":3013:3040   */\n              mstore\n                /* \"#utility.yul\":2892:3046   */\n              pop\n              pop\n              pop\n              jump\t// out\n                /* \"#utility.yul\":3052:3464   */\n            tag_173:\n                /* \"#utility.yul\":3130:3135   */\n              0x00\n                /* \"#utility.yul\":3155:3221   */\n              tag_230\n                /* \"#utility.yul\":3171:3220   */\n              tag_231\n                /* \"#utility.yul\":3213:3219   */\n              dup5\n                /* \"#utility.yul\":3171:3220   */\n              tag_171\n              jump\t// in\n            tag_231:\n                /* \"#utility.yul\":3155:3221   */\n              tag_170\n              jump\t// in\n            tag_230:\n                /* \"#utility.yul\":3146:3221   */\n              swap1\n              pop\n                /* \"#utility.yul\":3244:3250   */\n              dup3\n                /* \"#utility.yul\":3237:3242   */\n              dup2\n                /* \"#utility.yul\":3230:3251   */\n              mstore\n                /* \"#utility.yul\":3282:3286   */\n              0x20\n                /* \"#utility.yul\":3275:3280   */\n              dup2\n                /* \"#utility.yul\":3271:3287   */\n              add\n                /* \"#utility.yul\":3320:3323   */\n              dup5\n                /* \"#utility.yul\":3311:3317   */\n              dup5\n                /* \"#utility.yul\":3306:3309   */\n              dup5\n                /* \"#utility.yul\":3302:3318   */\n              add\n                /* \"#utility.yul\":3299:3324   */\n              gt\n                /* \"#utility.yul\":3296:3408   */\n              iszero\n              tag_232\n              jumpi\n                /* \"#utility.yul\":3327:3406   */\n              tag_233\n              tag_167\n              jump\t// in\n            tag_233:\n                /* \"#utility.yul\":3296:3408   */\n            tag_232:\n                /* \"#utility.yul\":3417:3458   */\n              tag_234\n                /* \"#utility.yul\":3451:3457   */\n              dup5\n                /* \"#utility.yul\":3446:3449   */\n              dup3\n                /* \"#utility.yul\":3441:3444   */\n              dup6\n                /* \"#utility.yul\":3417:3458   */\n              tag_172\n              jump\t// in\n            tag_234:\n                /* \"#utility.yul\":3136:3464   */\n              pop\n                /* \"#utility.yul\":3052:3464   */\n              swap4\n              swap3\n              pop\n              pop\n              pop\n              jump\t// out\n                /* \"#utility.yul\":3484:3824   */\n            tag_174:\n                /* \"#utility.yul\":3540:3545   */\n              0x00\n                /* \"#utility.yul\":3589:3592   */\n              dup3\n                /* \"#utility.yul\":3582:3586   */\n              0x1f\n                /* \"#utility.yul\":3574:3580   */\n              dup4\n                /* \"#utility.yul\":3570:3587   */\n              add\n                /* \"#utility.yul\":3566:3593   */\n              slt\n                /* \"#utility.yul\":3556:3678   */\n              tag_236\n              jumpi\n                /* \"#utility.yul\":3597:3676   */\n              tag_237\n              tag_166\n              jump\t// in\n            tag_237:\n                /* \"#utility.yul\":3556:3678   */\n            tag_236:\n                /* \"#utility.yul\":3714:3720   */\n              dup2\n                /* \"#utility.yul\":3701:3721   */\n              calldataload\n                /* \"#utility.yul\":3739:3818   */\n              tag_238\n                /* \"#utility.yul\":3814:3817   */\n              dup5\n                /* \"#utility.yul\":3806:3812   */\n              dup3\n                /* \"#utility.yul\":3799:3803   */\n              0x20\n                /* \"#utility.yul\":3791:3797   */\n              dup7\n                /* \"#utility.yul\":3787:3804   */\n              add\n                /* \"#utility.yul\":3739:3818   */\n              tag_173\n              jump\t// in\n            tag_238:\n                /* \"#utility.yul\":3730:3818   */\n              swap2\n              pop\n                /* \"#utility.yul\":3546:3824   */\n              pop\n                /* \"#utility.yul\":3484:3824   */\n              swap3\n              swap2\n              pop\n              pop\n              jump\t// out\n                /* \"#utility.yul\":3830:4339   */\n            tag_28:\n                /* \"#utility.yul\":3899:3905   */\n              0x00\n                /* \"#utility.yul\":3948:3950   */\n              0x20\n                /* \"#utility.yul\":3936:3945   */\n              dup3\n                /* \"#utility.yul\":3927:3934   */\n              dup5\n                /* \"#utility.yul\":3923:3946   */\n              sub\n                /* \"#utility.yul\":3919:3951   */\n              slt\n                /* \"#utility.yul\":3916:4035   */\n              iszero\n              tag_240\n              jumpi\n                /* \"#utility.yul\":3954:4033   */\n              tag_241\n              tag_164\n              jump\t// in\n            tag_241:\n                /* \"#utility.yul\":3916:4035   */\n            tag_240:\n                /* \"#utility.yul\":4102:4103   */\n              0x00\n                /* \"#utility.yul\":4091:4100   */\n              dup3\n                /* \"#utility.yul\":4087:4104   */\n              add\n                /* \"#utility.yul\":4074:4105   */\n              calldataload\n                /* \"#utility.yul\":4132:4150   */\n              0xffffffffffffffff\n                /* \"#utility.yul\":4124:4130   */\n              dup2\n                /* \"#utility.yul\":4121:4151   */\n              gt\n                /* \"#utility.yul\":4118:4235   */\n              iszero\n              tag_242\n              jumpi\n                /* \"#utility.yul\":4154:4233   */\n              tag_243\n              tag_165\n              jump\t// in\n            tag_243:\n                /* \"#utility.yul\":4118:4235   */\n            tag_242:\n                /* \"#utility.yul\":4259:4322   */\n              tag_244\n                /* \"#utility.yul\":4314:4321   */\n              dup5\n                /* \"#utility.yul\":4305:4311   */\n              dup3\n                /* \"#utility.yul\":4294:4303   */\n              dup6\n                /* \"#utility.yul\":4290:4312   */\n              add\n                /* \"#utility.yul\":4259:4322   */\n              tag_174\n              jump\t// in\n            tag_244:\n                /* \"#utility.yul\":4249:4322   */\n              swap2\n              pop\n                /* \"#utility.yul\":4045:4332   */\n              pop\n                /* \"#utility.yul\":3830:4339   */\n              swap3\n              swap2\n              pop\n              pop\n              jump\t// out\n                /* \"#utility.yul\":4345:4471   */\n            tag_175:\n                /* \"#utility.yul\":4382:4389   */\n              0x00\n                /* \"#utility.yul\":4422:4464   */\n              0xffffffffffffffffffffffffffffffffffffffff\n                /* \"#utility.yul\":4415:4420   */\n              dup3\n                /* \"#utility.yul\":4411:4465   */\n              and\n                /* \"#utility.yul\":4400:4465   */\n              swap1\n              pop\n                /* \"#utility.yul\":4345:4471   */\n              swap2\n              swap1\n              pop\n              jump\t// out\n                /* \"#utility.yul\":4477:4581   */\n            tag_176:\n                /* \"#utility.yul\":4522:4529   */\n              0x00\n                /* \"#utility.yul\":4551:4575   */\n              tag_247\n                /* \"#utility.yul\":4569:4574   */\n              dup3\n                /* \"#utility.yul\":4551:4575   */\n              tag_175\n              jump\t// in\n            tag_247:\n                /* \"#utility.yul\":4540:4575   */\n              swap1\n              pop\n                /* \"#utility.yul\":4477:4581   */\n              swap2\n              swap1\n              pop\n              jump\t// out\n                /* \"#utility.yul\":4587:4729   */\n            tag_177:\n                /* \"#utility.yul\":4690:4722   */\n              tag_249\n                /* \"#utility.yul\":4716:4721   */\n              dup2\n                /* \"#utility.yul\":4690:4722   */\n              tag_176\n              jump\t// in\n            tag_249:\n                /* \"#utility.yul\":4685:4688   */\n              dup3\n                /* \"#utility.yul\":4678:4723   */\n              mstore\n                /* \"#utility.yul\":4587:4729   */\n              pop\n              pop\n              jump\t// out\n                /* \"#utility.yul\":4735:4989   */\n            tag_33:\n                /* \"#utility.yul\":4844:4848   */\n              0x00\n                /* \"#utility.yul\":4882:4884   */\n              0x20\n                /* \"#utility.yul\":4871:4880   */\n              dup3\n                /* \"#utility.yul\":4867:4885   */\n              add\n                /* \"#utility.yul\":4859:4885   */\n              swap1\n              pop\n                /* \"#utility.yul\":4895:4982   */\n              tag_251\n                /* \"#utility.yul\":4979:4980   */\n              0x00\n                /* \"#utility.yul\":4968:4977   */\n              dup4\n                /* \"#utility.yul\":4964:4981   */\n              add\n                /* \"#utility.yul\":4955:4961   */\n              dup5\n                /* \"#utility.yul\":4895:4982   */\n              tag_177\n              jump\t// in\n            tag_251:\n                /* \"#utility.yul\":4735:4989   */\n              swap3\n              swap2\n              pop\n              pop\n              jump\t// out\n                /* \"#utility.yul\":4995:5119   */\n            tag_178:\n                /* \"#utility.yul\":5072:5078   */\n              0x00\n                /* \"#utility.yul\":5106:5111   */\n              dup2\n                /* \"#utility.yul\":5100:5112   */\n              mload\n                /* \"#utility.yul\":5090:5112   */\n              swap1\n              pop\n                /* \"#utility.yul\":4995:5119   */\n              swap2\n              swap1\n              pop\n              jump\t// out\n                /* \"#utility.yul\":5125:5319   */\n            tag_179:\n                /* \"#utility.yul\":5234:5245   */\n              0x00\n                /* \"#utility.yul\":5268:5274   */\n              dup3\n                /* \"#utility.yul\":5263:5266   */\n              dup3\n                /* \"#utility.yul\":5256:5275   */\n              mstore\n                /* \"#utility.yul\":5308:5312   */\n              0x20\n                /* \"#utility.yul\":5303:5306   */\n              dup3\n                /* \"#utility.yul\":5299:5313   */\n              add\n                /* \"#utility.yul\":5284:5313   */\n              swap1\n              pop\n                /* \"#utility.yul\":5125:5319   */\n              swap3\n              swap2\n              pop\n              pop\n              jump\t// out\n                /* \"#utility.yul\":5325:5467   */\n            tag_180:\n                /* \"#utility.yul\":5402:5406   */\n              0x00\n                /* \"#utility.yul\":5425:5428   */\n              dup2\n                /* \"#utility.yul\":5417:5428   */\n              swap1\n              pop\n                /* \"#utility.yul\":5455:5459   */\n              0x20\n                /* \"#utility.yul\":5450:5453   */\n              dup3\n                /* \"#utility.yul\":5446:5460   */\n              add\n                /* \"#utility.yul\":5438:5460   */\n              swap1\n              pop\n                /* \"#utility.yul\":5325:5467   */\n              swap2\n              swap1\n              pop\n              jump\t// out\n                /* \"#utility.yul\":5473:5632   */\n            tag_181:\n                /* \"#utility.yul\":5547:5558   */\n              0x00\n                /* \"#utility.yul\":5581:5587   */\n              dup3\n                /* \"#utility.yul\":5576:5579   */\n              dup3\n                /* \"#utility.yul\":5569:5588   */\n              mstore\n                /* \"#utility.yul\":5621:5625   */\n              0x20\n                /* \"#utility.yul\":5616:5619   */\n              dup3\n                /* \"#utility.yul\":5612:5626   */\n              add\n                /* \"#utility.yul\":5597:5626   */\n              swap1\n              pop\n                /* \"#utility.yul\":5473:5632   */\n              swap3\n              swap2\n              pop\n              pop\n              jump\t// out\n                /* \"#utility.yul\":5638:5982   */\n            tag_182:\n                /* \"#utility.yul\":5716:5719   */\n              0x00\n                /* \"#utility.yul\":5744:5783   */\n              tag_257\n                /* \"#utility.yul\":5777:5782   */\n              dup3\n                /* \"#utility.yul\":5744:5783   */\n              tag_158\n              jump\t// in\n            tag_257:\n                /* \"#utility.yul\":5799:5860   */\n              tag_258\n                /* \"#utility.yul\":5853:5859   */\n              dup2\n                /* \"#utility.yul\":5848:5851   */\n              dup6\n                /* \"#utility.yul\":5799:5860   */\n              tag_181\n              jump\t// in\n            tag_258:\n                /* \"#utility.yul\":5792:5860   */\n              swap4\n              pop\n                /* \"#utility.yul\":5869:5921   */\n              tag_259\n                /* \"#utility.yul\":5914:5920   */\n              dup2\n                /* \"#utility.yul\":5909:5912   */\n              dup6\n                /* \"#utility.yul\":5902:5906   */\n              0x20\n                /* \"#utility.yul\":5895:5900   */\n              dup7\n                /* \"#utility.yul\":5891:5907   */\n              add\n                /* \"#utility.yul\":5869:5921   */\n              tag_160\n              jump\t// in\n            tag_259:\n                /* \"#utility.yul\":5946:5975   */\n              tag_260\n                /* \"#utility.yul\":5968:5974   */\n              dup2\n                /* \"#utility.yul\":5946:5975   */\n              tag_161\n              jump\t// in\n            tag_260:\n                /* \"#utility.yul\":5941:5944   */\n              dup5\n                /* \"#utility.yul\":5937:5976   */\n              add\n                /* \"#utility.yul\":5930:5976   */\n              swap2\n              pop\n                /* \"#utility.yul\":5720:5982   */\n              pop\n                /* \"#utility.yul\":5638:5982   */\n              swap3\n              swap2\n              pop\n              pop\n              jump\t// out\n                /* \"#utility.yul\":5988:6184   */\n            tag_183:\n                /* \"#utility.yul\":6077:6087   */\n              0x00\n                /* \"#utility.yul\":6112:6178   */\n              tag_262\n                /* \"#utility.yul\":6174:6177   */\n              dup4\n                /* \"#utility.yul\":6166:6172   */\n              dup4\n                /* \"#utility.yul\":6112:6178   */\n              tag_182\n              jump\t// in\n            tag_262:\n                /* \"#utility.yul\":6098:6178   */\n              swap1\n              pop\n                /* \"#utility.yul\":5988:6184   */\n              swap3\n              swap2\n              pop\n              pop\n              jump\t// out\n                /* \"#utility.yul\":6190:6313   */\n            tag_184:\n                /* \"#utility.yul\":6270:6274   */\n              0x00\n                /* \"#utility.yul\":6302:6306   */\n              0x20\n                /* \"#utility.yul\":6297:6300   */\n              dup3\n                /* \"#utility.yul\":6293:6307   */\n              add\n                /* \"#utility.yul\":6285:6307   */\n              swap1\n              pop\n                /* \"#utility.yul\":6190:6313   */\n              swap2\n              swap1\n              pop\n              jump\t// out\n                /* \"#utility.yul\":6347:7338   */\n            tag_185:\n                /* \"#utility.yul\":6486:6489   */\n              0x00\n                /* \"#utility.yul\":6515:6579   */\n              tag_265\n                /* \"#utility.yul\":6573:6578   */\n              dup3\n                /* \"#utility.yul\":6515:6579   */\n              tag_178\n              jump\t// in\n            tag_265:\n                /* \"#utility.yul\":6595:6691   */\n              tag_266\n                /* \"#utility.yul\":6684:6690   */\n              dup2\n                /* \"#utility.yul\":6679:6682   */\n              dup6\n                /* \"#utility.yul\":6595:6691   */\n              tag_179\n              jump\t// in\n            tag_266:\n                /* \"#utility.yul\":6588:6691   */\n              swap4\n              pop\n                /* \"#utility.yul\":6717:6720   */\n              dup4\n                /* \"#utility.yul\":6762:6766   */\n              0x20\n                /* \"#utility.yul\":6754:6760   */\n              dup3\n                /* \"#utility.yul\":6750:6767   */\n              mul\n                /* \"#utility.yul\":6745:6748   */\n              dup6\n                /* \"#utility.yul\":6741:6768   */\n              add\n                /* \"#utility.yul\":6792:6858   */\n              tag_267\n                /* \"#utility.yul\":6852:6857   */\n              dup6\n                /* \"#utility.yul\":6792:6858   */\n              tag_180\n              jump\t// in\n            tag_267:\n                /* \"#utility.yul\":6881:6888   */\n              dup1\n                /* \"#utility.yul\":6912:6913   */\n              0x00\n                /* \"#utility.yul\":6897:7293   */\n            tag_268:\n                /* \"#utility.yul\":6922:6928   */\n              dup6\n                /* \"#utility.yul\":6919:6920   */\n              dup2\n                /* \"#utility.yul\":6916:6929   */\n              lt\n                /* \"#utility.yul\":6897:7293   */\n              iszero\n              tag_270\n              jumpi\n                /* \"#utility.yul\":6993:7002   */\n              dup5\n                /* \"#utility.yul\":6987:6991   */\n              dup5\n                /* \"#utility.yul\":6983:7003   */\n              sub\n                /* \"#utility.yul\":6978:6981   */\n              dup10\n                /* \"#utility.yul\":6971:7004   */\n              mstore\n                /* \"#utility.yul\":7044:7050   */\n              dup2\n                /* \"#utility.yul\":7038:7051   */\n              mload\n                /* \"#utility.yul\":7072:7156   */\n              tag_271\n                /* \"#utility.yul\":7151:7155   */\n              dup6\n                /* \"#utility.yul\":7136:7149   */\n              dup3\n                /* \"#utility.yul\":7072:7156   */\n              tag_183\n              jump\t// in\n            tag_271:\n                /* \"#utility.yul\":7064:7156   */\n              swap5\n              pop\n                /* \"#utility.yul\":7179:7249   */\n              tag_272\n                /* \"#utility.yul\":7242:7248   */\n              dup4\n                /* \"#utility.yul\":7179:7249   */\n              tag_184\n              jump\t// in\n            tag_272:\n                /* \"#utility.yul\":7169:7249   */\n              swap3\n              pop\n                /* \"#utility.yul\":7278:7282   */\n              0x20\n                /* \"#utility.yul\":7273:7276   */\n              dup11\n                /* \"#utility.yul\":7269:7283   */\n              add\n                /* \"#utility.yul\":7262:7283   */\n              swap10\n              pop\n                /* \"#utility.yul\":6957:7293   */\n              pop\n                /* \"#utility.yul\":6944:6945   */\n              0x01\n                /* \"#utility.yul\":6941:6942   */\n              dup2\n                /* \"#utility.yul\":6937:6946   */\n              add\n                /* \"#utility.yul\":6932:6946   */\n              swap1\n              pop\n                /* \"#utility.yul\":6897:7293   */\n              jump(tag_268)\n            tag_270:\n                /* \"#utility.yul\":6901:6915   */\n              pop\n                /* \"#utility.yul\":7309:7313   */\n              dup3\n                /* \"#utility.yul\":7302:7313   */\n              swap8\n              pop\n                /* \"#utility.yul\":7329:7332   */\n              dup8\n                /* \"#utility.yul\":7322:7332   */\n              swap6\n              pop\n                /* \"#utility.yul\":6491:7338   */\n              pop\n              pop\n              pop\n              pop\n              pop\n                /* \"#utility.yul\":6347:7338   */\n              swap3\n              swap2\n              pop\n              pop\n              jump\t// out\n                /* \"#utility.yul\":7344:7434   */\n            tag_186:\n                /* \"#utility.yul\":7378:7385   */\n              0x00\n                /* \"#utility.yul\":7421:7426   */\n              dup2\n                /* \"#utility.yul\":7414:7427   */\n              iszero\n                /* \"#utility.yul\":7407:7428   */\n              iszero\n                /* \"#utility.yul\":7396:7428   */\n              swap1\n              pop\n                /* \"#utility.yul\":7344:7434   */\n              swap2\n              swap1\n              pop\n              jump\t// out\n                /* \"#utility.yul\":7440:7549   */\n            tag_187:\n                /* \"#utility.yul\":7521:7542   */\n              tag_275\n                /* \"#utility.yul\":7536:7541   */\n              dup2\n                /* \"#utility.yul\":7521:7542   */\n              tag_186\n              jump\t// in\n            tag_275:\n                /* \"#utility.yul\":7516:7519   */\n              dup3\n                /* \"#utility.yul\":7509:7543   */\n              mstore\n                /* \"#utility.yul\":7440:7549   */\n              pop\n              pop\n              jump\t// out\n                /* \"#utility.yul\":7555:8755   */\n            tag_40:\n                /* \"#utility.yul\":7924:7928   */\n              0x00\n                /* \"#utility.yul\":7962:7965   */\n              0xc0\n                /* \"#utility.yul\":7951:7960   */\n              dup3\n                /* \"#utility.yul\":7947:7966   */\n              add\n                /* \"#utility.yul\":7939:7966   */\n              swap1\n              pop\n                /* \"#utility.yul\":7976:8063   */\n              tag_277\n                /* \"#utility.yul\":8060:8061   */\n              0x00\n                /* \"#utility.yul\":8049:8058   */\n              dup4\n                /* \"#utility.yul\":8045:8062   */\n              add\n                /* \"#utility.yul\":8036:8042   */\n              dup10\n                /* \"#utility.yul\":7976:8063   */\n              tag_177\n              jump\t// in\n            tag_277:\n                /* \"#utility.yul\":8110:8119   */\n              dup2\n                /* \"#utility.yul\":8104:8108   */\n              dup2\n                /* \"#utility.yul\":8100:8120   */\n              sub\n                /* \"#utility.yul\":8095:8097   */\n              0x20\n                /* \"#utility.yul\":8084:8093   */\n              dup4\n                /* \"#utility.yul\":8080:8098   */\n              add\n                /* \"#utility.yul\":8073:8121   */\n              mstore\n                /* \"#utility.yul\":8138:8216   */\n              tag_278\n                /* \"#utility.yul\":8211:8215   */\n              dup2\n                /* \"#utility.yul\":8202:8208   */\n              dup9\n                /* \"#utility.yul\":8138:8216   */\n              tag_162\n              jump\t// in\n            tag_278:\n                /* \"#utility.yul\":8130:8216   */\n              swap1\n              pop\n                /* \"#utility.yul\":8263:8272   */\n              dup2\n                /* \"#utility.yul\":8257:8261   */\n              dup2\n                /* \"#utility.yul\":8253:8273   */\n              sub\n                /* \"#utility.yul\":8248:8250   */\n              0x40\n                /* \"#utility.yul\":8237:8246   */\n              dup4\n                /* \"#utility.yul\":8233:8251   */\n              add\n                /* \"#utility.yul\":8226:8274   */\n              mstore\n                /* \"#utility.yul\":8291:8419   */\n              tag_279\n                /* \"#utility.yul\":8414:8418   */\n              dup2\n                /* \"#utility.yul\":8405:8411   */\n              dup8\n                /* \"#utility.yul\":8291:8419   */\n              tag_185\n              jump\t// in\n            tag_279:\n                /* \"#utility.yul\":8283:8419   */\n              swap1\n              pop\n                /* \"#utility.yul\":8466:8475   */\n              dup2\n                /* \"#utility.yul\":8460:8464   */\n              dup2\n                /* \"#utility.yul\":8456:8476   */\n              sub\n                /* \"#utility.yul\":8451:8453   */\n              0x60\n                /* \"#utility.yul\":8440:8449   */\n              dup4\n                /* \"#utility.yul\":8436:8454   */\n              add\n                /* \"#utility.yul\":8429:8477   */\n              mstore\n                /* \"#utility.yul\":8494:8572   */\n              tag_280\n                /* \"#utility.yul\":8567:8571   */\n              dup2\n                /* \"#utility.yul\":8558:8564   */\n              dup7\n                /* \"#utility.yul\":8494:8572   */\n              tag_162\n              jump\t// in\n            tag_280:\n                /* \"#utility.yul\":8486:8572   */\n              swap1\n              pop\n                /* \"#utility.yul\":8582:8671   */\n              tag_281\n                /* \"#utility.yul\":8666:8669   */\n              0x80\n                /* \"#utility.yul\":8655:8664   */\n              dup4\n                /* \"#utility.yul\":8651:8670   */\n              add\n                /* \"#utility.yul\":8642:8648   */\n              dup6\n                /* \"#utility.yul\":8582:8671   */\n              tag_177\n              jump\t// in\n            tag_281:\n                /* \"#utility.yul\":8681:8748   */\n              tag_282\n                /* \"#utility.yul\":8743:8746   */\n              0xa0\n                /* \"#utility.yul\":8732:8741   */\n              dup4\n                /* \"#utility.yul\":8728:8747   */\n              add\n                /* \"#utility.yul\":8719:8725   */\n              dup5\n                /* \"#utility.yul\":8681:8748   */\n              tag_187\n              jump\t// in\n            tag_282:\n                /* \"#utility.yul\":7555:8755   */\n              swap8\n              swap7\n              pop\n              pop\n              pop\n              pop\n              pop\n              pop\n              pop\n              jump\t// out\n                /* \"#utility.yul\":8761:9174   */\n            tag_44:\n                /* \"#utility.yul\":8924:8928   */\n              0x00\n                /* \"#utility.yul\":8962:8964   */\n              0x20\n                /* \"#utility.yul\":8951:8960   */\n              dup3\n                /* \"#utility.yul\":8947:8965   */\n              add\n                /* \"#utility.yul\":8939:8965   */\n              swap1\n              pop\n                /* \"#utility.yul\":9011:9020   */\n              dup2\n                /* \"#utility.yul\":9005:9009   */\n              dup2\n                /* \"#utility.yul\":9001:9021   */\n              sub\n                /* \"#utility.yul\":8997:8998   */\n              0x00\n                /* \"#utility.yul\":8986:8995   */\n              dup4\n                /* \"#utility.yul\":8982:8999   */\n              add\n                /* \"#utility.yul\":8975:9022   */\n              mstore\n                /* \"#utility.yul\":9039:9167   */\n              tag_284\n                /* \"#utility.yul\":9162:9166   */\n              dup2\n                /* \"#utility.yul\":9153:9159   */\n              dup5\n                /* \"#utility.yul\":9039:9167   */\n              tag_185\n              jump\t// in\n            tag_284:\n                /* \"#utility.yul\":9031:9167   */\n              swap1\n              pop\n                /* \"#utility.yul\":8761:9174   */\n              swap3\n              swap2\n              pop\n              pop\n              jump\t// out\n                /* \"#utility.yul\":9180:9276   */\n            tag_188:\n                /* \"#utility.yul\":9217:9224   */\n              0x00\n                /* \"#utility.yul\":9246:9270   */\n              tag_286\n                /* \"#utility.yul\":9264:9269   */\n              dup3\n                /* \"#utility.yul\":9246:9270   */\n              tag_175\n              jump\t// in\n            tag_286:\n                /* \"#utility.yul\":9235:9270   */\n              swap1\n              pop\n                /* \"#utility.yul\":9180:9276   */\n              swap2\n              swap1\n              pop\n              jump\t// out\n                /* \"#utility.yul\":9282:9404   */\n            tag_189:\n                /* \"#utility.yul\":9355:9379   */\n              tag_288\n                /* \"#utility.yul\":9373:9378   */\n              dup2\n                /* \"#utility.yul\":9355:9379   */\n              tag_188\n              jump\t// in\n            tag_288:\n                /* \"#utility.yul\":9348:9353   */\n              dup2\n                /* \"#utility.yul\":9345:9380   */\n              eq\n                /* \"#utility.yul\":9335:9398   */\n              tag_289\n              jumpi\n                /* \"#utility.yul\":9394:9395   */\n              0x00\n                /* \"#utility.yul\":9391:9392   */\n              dup1\n                /* \"#utility.yul\":9384:9396   */\n              revert\n                /* \"#utility.yul\":9335:9398   */\n            tag_289:\n                /* \"#utility.yul\":9282:9404   */\n              pop\n              jump\t// out\n                /* \"#utility.yul\":9410:9549   */\n            tag_190:\n                /* \"#utility.yul\":9456:9461   */\n              0x00\n                /* \"#utility.yul\":9494:9500   */\n              dup2\n                /* \"#utility.yul\":9481:9501   */\n              calldataload\n                /* \"#utility.yul\":9472:9501   */\n              swap1\n              pop\n                /* \"#utility.yul\":9510:9543   */\n              tag_291\n                /* \"#utility.yul\":9537:9542   */\n              dup2\n                /* \"#utility.yul\":9510:9543   */\n              tag_189\n              jump\t// in\n            tag_291:\n                /* \"#utility.yul\":9410:9549   */\n              swap3\n              swap2\n              pop\n              pop\n              jump\t// out\n                /* \"#utility.yul\":9555:9884   */\n            tag_47:\n                /* \"#utility.yul\":9614:9620   */\n              0x00\n                /* \"#utility.yul\":9663:9665   */\n              0x20\n                /* \"#utility.yul\":9651:9660   */\n              dup3\n                /* \"#utility.yul\":9642:9649   */\n              dup5\n                /* \"#utility.yul\":9638:9661   */\n              sub\n                /* \"#utility.yul\":9634:9666   */\n              slt\n                /* \"#utility.yul\":9631:9750   */\n              iszero\n              tag_293\n              jumpi\n                /* \"#utility.yul\":9669:9748   */\n              tag_294\n              tag_164\n              jump\t// in\n            tag_294:\n                /* \"#utility.yul\":9631:9750   */\n            tag_293:\n                /* \"#utility.yul\":9789:9790   */\n              0x00\n                /* \"#utility.yul\":9814:9867   */\n              tag_295\n                /* \"#utility.yul\":9859:9866   */\n              dup5\n                /* \"#utility.yul\":9850:9856   */\n              dup3\n                /* \"#utility.yul\":9839:9848   */\n              dup6\n                /* \"#utility.yul\":9835:9857   */\n              add\n                /* \"#utility.yul\":9814:9867   */\n              tag_190\n              jump\t// in\n            tag_295:\n                /* \"#utility.yul\":9804:9867   */\n              swap2\n              pop\n                /* \"#utility.yul\":9760:9877   */\n              pop\n                /* \"#utility.yul\":9555:9884   */\n              swap3\n              swap2\n              pop\n              pop\n              jump\t// out\n                /* \"#utility.yul\":9890:9967   */\n            tag_191:\n                /* \"#utility.yul\":9927:9934   */\n              0x00\n                /* \"#utility.yul\":9956:9961   */\n              dup2\n                /* \"#utility.yul\":9945:9961   */\n              swap1\n              pop\n                /* \"#utility.yul\":9890:9967   */\n              swap2\n              swap1\n              pop\n              jump\t// out\n                /* \"#utility.yul\":9973:10095   */\n            tag_192:\n                /* \"#utility.yul\":10046:10070   */\n              tag_298\n                /* \"#utility.yul\":10064:10069   */\n              dup2\n                /* \"#utility.yul\":10046:10070   */\n              tag_191\n              jump\t// in\n            tag_298:\n                /* \"#utility.yul\":10039:10044   */\n              dup2\n                /* \"#utility.yul\":10036:10071   */\n              eq\n                /* \"#utility.yul\":10026:10089   */\n              tag_299\n              jumpi\n                /* \"#utility.yul\":10085:10086   */\n              0x00\n                /* \"#utility.yul\":10082:10083   */\n              dup1\n                /* \"#utility.yul\":10075:10087   */\n              revert\n                /* \"#utility.yul\":10026:10089   */\n            tag_299:\n                /* \"#utility.yul\":9973:10095   */\n              pop\n              jump\t// out\n                /* \"#utility.yul\":10101:10240   */\n            tag_193:\n                /* \"#utility.yul\":10147:10152   */\n              0x00\n                /* \"#utility.yul\":10185:10191   */\n              dup2\n                /* \"#utility.yul\":10172:10192   */\n              calldataload\n                /* \"#utility.yul\":10163:10192   */\n              swap1\n              pop\n                /* \"#utility.yul\":10201:10234   */\n              tag_301\n                /* \"#utility.yul\":10228:10233   */\n              dup2\n                /* \"#utility.yul\":10201:10234   */\n              tag_192\n              jump\t// in\n            tag_301:\n                /* \"#utility.yul\":10101:10240   */\n              swap3\n              swap2\n              pop\n              pop\n              jump\t// out\n                /* \"#utility.yul\":10246:10575   */\n            tag_51:\n                /* \"#utility.yul\":10305:10311   */\n              0x00\n                /* \"#utility.yul\":10354:10356   */\n              0x20\n                /* \"#utility.yul\":10342:10351   */\n              dup3\n                /* \"#utility.yul\":10333:10340   */\n              dup5\n                /* \"#utility.yul\":10329:10352   */\n              sub\n                /* \"#utility.yul\":10325:10357   */\n              slt\n                /* \"#utility.yul\":10322:10441   */\n              iszero\n              tag_303\n              jumpi\n                /* \"#utility.yul\":10360:10439   */\n              tag_304\n              tag_164\n              jump\t// in\n            tag_304:\n                /* \"#utility.yul\":10322:10441   */\n            tag_303:\n                /* \"#utility.yul\":10480:10481   */\n              0x00\n                /* \"#utility.yul\":10505:10558   */\n              tag_305\n                /* \"#utility.yul\":10550:10557   */\n              dup5\n                /* \"#utility.yul\":10541:10547   */\n              dup3\n                /* \"#utility.yul\":10530:10539   */\n              dup6\n                /* \"#utility.yul\":10526:10548   */\n              add\n                /* \"#utility.yul\":10505:10558   */\n              tag_193\n              jump\t// in\n            tag_305:\n                /* \"#utility.yul\":10495:10558   */\n              swap2\n              pop\n                /* \"#utility.yul\":10451:10568   */\n              pop\n                /* \"#utility.yul\":10246:10575   */\n              swap3\n              swap2\n              pop\n              pop\n              jump\t// out\n                /* \"#utility.yul\":10581:10992   */\n            tag_58:\n                /* \"#utility.yul\":10716:10720   */\n              0x00\n                /* \"#utility.yul\":10754:10756   */\n              0x40\n                /* \"#utility.yul\":10743:10752   */\n              dup3\n                /* \"#utility.yul\":10739:10757   */\n              add\n                /* \"#utility.yul\":10731:10757   */\n              swap1\n              pop\n                /* \"#utility.yul\":10803:10812   */\n              dup2\n                /* \"#utility.yul\":10797:10801   */\n              dup2\n                /* \"#utility.yul\":10793:10813   */\n              sub\n                /* \"#utility.yul\":10789:10790   */\n              0x00\n                /* \"#utility.yul\":10778:10787   */\n              dup4\n                /* \"#utility.yul\":10774:10791   */\n              add\n                /* \"#utility.yul\":10767:10814   */\n              mstore\n                /* \"#utility.yul\":10831:10909   */\n              tag_307\n                /* \"#utility.yul\":10904:10908   */\n              dup2\n                /* \"#utility.yul\":10895:10901   */\n              dup6\n                /* \"#utility.yul\":10831:10909   */\n              tag_162\n              jump\t// in\n            tag_307:\n                /* \"#utility.yul\":10823:10909   */\n              swap1\n              pop\n                /* \"#utility.yul\":10919:10985   */\n              tag_308\n                /* \"#utility.yul\":10981:10983   */\n              0x20\n                /* \"#utility.yul\":10970:10979   */\n              dup4\n                /* \"#utility.yul\":10966:10984   */\n              add\n                /* \"#utility.yul\":10957:10963   */\n              dup5\n                /* \"#utility.yul\":10919:10985   */\n              tag_187\n              jump\t// in\n            tag_308:\n                /* \"#utility.yul\":10581:10992   */\n              swap4\n              swap3\n              pop\n              pop\n              pop\n              jump\t// out\n                /* \"#utility.yul\":10998:11208   */\n            tag_68:\n                /* \"#utility.yul\":11085:11089   */\n              0x00\n                /* \"#utility.yul\":11123:11125   */\n              0x20\n                /* \"#utility.yul\":11112:11121   */\n              dup3\n                /* \"#utility.yul\":11108:11126   */\n              add\n                /* \"#utility.yul\":11100:11126   */\n              swap1\n              pop\n                /* \"#utility.yul\":11136:11201   */\n              tag_310\n                /* \"#utility.yul\":11198:11199   */\n              0x00\n                /* \"#utility.yul\":11187:11196   */\n              dup4\n                /* \"#utility.yul\":11183:11200   */\n              add\n                /* \"#utility.yul\":11174:11180   */\n              dup5\n                /* \"#utility.yul\":11136:11201   */\n              tag_187\n              jump\t// in\n            tag_310:\n                /* \"#utility.yul\":10998:11208   */\n              swap3\n              swap2\n              pop\n              pop\n              jump\t// out\n                /* \"#utility.yul\":11214:11394   */\n            tag_194:\n                /* \"#utility.yul\":11262:11339   */\n              0x4e487b7100000000000000000000000000000000000000000000000000000000\n                /* \"#utility.yul\":11259:11260   */\n              0x00\n                /* \"#utility.yul\":11252:11340   */\n              mstore\n                /* \"#utility.yul\":11359:11363   */\n              0x22\n                /* \"#utility.yul\":11356:11357   */\n              0x04\n                /* \"#utility.yul\":11349:11364   */\n              mstore\n                /* \"#utility.yul\":11383:11387   */\n              0x24\n                /* \"#utility.yul\":11380:11381   */\n              0x00\n                /* \"#utility.yul\":11373:11388   */\n              revert\n                /* \"#utility.yul\":11400:11720   */\n            tag_73:\n                /* \"#utility.yul\":11444:11450   */\n              0x00\n                /* \"#utility.yul\":11481:11482   */\n              0x02\n                /* \"#utility.yul\":11475:11479   */\n              dup3\n                /* \"#utility.yul\":11471:11483   */\n              div\n                /* \"#utility.yul\":11461:11483   */\n              swap1\n              pop\n                /* \"#utility.yul\":11528:11529   */\n              0x01\n                /* \"#utility.yul\":11522:11526   */\n              dup3\n                /* \"#utility.yul\":11518:11530   */\n              and\n                /* \"#utility.yul\":11549:11567   */\n              dup1\n                /* \"#utility.yul\":11539:11620   */\n              tag_313\n              jumpi\n                /* \"#utility.yul\":11605:11609   */\n              0x7f\n                /* \"#utility.yul\":11597:11603   */\n              dup3\n                /* \"#utility.yul\":11593:11610   */\n              and\n                /* \"#utility.yul\":11583:11610   */\n              swap2\n              pop\n                /* \"#utility.yul\":11539:11620   */\n            tag_313:\n                /* \"#utility.yul\":11667:11669   */\n              0x20\n                /* \"#utility.yul\":11659:11665   */\n              dup3\n                /* \"#utility.yul\":11656:11670   */\n              lt\n                /* \"#utility.yul\":11636:11654   */\n              dup2\n                /* \"#utility.yul\":11633:11671   */\n              sub\n                /* \"#utility.yul\":11630:11714   */\n              tag_314\n              jumpi\n                /* \"#utility.yul\":11686:11704   */\n              tag_315\n              tag_194\n              jump\t// in\n            tag_315:\n                /* \"#utility.yul\":11630:11714   */\n            tag_314:\n                /* \"#utility.yul\":11451:11720   */\n              pop\n                /* \"#utility.yul\":11400:11720   */\n              swap2\n              swap1\n              pop\n              jump\t// out\n\n            auxdata: 0xa26469706673582212203dd02038a01e749602d29d73fcf0c0260527a80b9714061806cb0468f153a89364736f6c634300080e0033\n        }\n    }\n\n    auxdata: 0xa26469706673582212202ed2f54d8d2a7e7e23a0a0f0ccf194a4d40fcb90110910892e6b2f8020c8c45664736f6c634300080e0033\n}\n","bytecode":{"linkReferences":{},"object":"608060405234801561001057600080fd5b506124a0806100206000396000f3fe608060405260043610620000385760003560e01c80633f90b454146200003d578063779900b41462000081578063f665466314620000b1575b600080fd5b3480156200004a57600080fd5b50620000696004803603810190620000639190620002d1565b620000e7565b60405162000078919062000348565b60405180910390f35b3480156200008e57600080fd5b506200009962000127565b604051620000a8919062000433565b60405180910390f35b620000cf6004803603810190620000c99190620006b5565b620001b7565b604051620000de919062000348565b60405180910390f35b60008181548110620000f857600080fd5b906000526020600020016000915054906101000a900473ffffffffffffffffffffffffffffffffffffffff1681565b60606000805480602002602001604051908101604052809291908181526020018280548015620001ad57602002820191906000526020600020905b8160009054906101000a900473ffffffffffffffffffffffffffffffffffffffff1673ffffffffffffffffffffffffffffffffffffffff168152602001906001019080831162000162575b5050505050905090565b600080348686868633604051620001ce9062000274565b620001de95949392919062000958565b6040518091039082f0905080158015620001fc573d6000803e3d6000fd5b50905060008190506000819080600181540180825580915050600190039060005260206000200160009091909190916101000a81548173ffffffffffffffffffffffffffffffffffffffff021916908373ffffffffffffffffffffffffffffffffffffffff1602179055508092505050949350505050565b611a9980620009d283390190565b6000604051905090565b600080fd5b600080fd5b6000819050919050565b620002ab8162000296565b8114620002b757600080fd5b50565b600081359050620002cb81620002a0565b92915050565b600060208284031215620002ea57620002e96200028c565b5b6000620002fa84828501620002ba565b91505092915050565b600073ffffffffffffffffffffffffffffffffffffffff82169050919050565b6000620003308262000303565b9050919050565b620003428162000323565b82525050565b60006020820190506200035f600083018462000337565b92915050565b600081519050919050565b600082825260208201905092915050565b6000819050602082019050919050565b6200039c8162000323565b82525050565b6000620003b0838362000391565b60208301905092915050565b6000602082019050919050565b6000620003d68262000365565b620003e2818562000370565b9350620003ef8362000381565b8060005b83811015620004265781516200040a8882620003a2565b97506200041783620003bc565b925050600181019050620003f3565b5085935050505092915050565b600060208201905081810360008301526200044f8184620003c9565b905092915050565b600080fd5b600080fd5b6000601f19601f8301169050919050565b7f4e487b7100000000000000000000000000000000000000000000000000000000600052604160045260246000fd5b620004ac8262000461565b810181811067ffffffffffffffff82111715620004ce57620004cd62000472565b5b80604052505050565b6000620004e362000282565b9050620004f18282620004a1565b919050565b600067ffffffffffffffff82111562000514576200051362000472565b5b6200051f8262000461565b9050602081019050919050565b82818337600083830152505050565b6000620005526200054c84620004f6565b620004d7565b9050828152602081018484840111156200057157620005706200045c565b5b6200057e8482856200052c565b509392505050565b600082601f8301126200059e576200059d62000457565b5b8135620005b08482602086016200053b565b91505092915050565b600067ffffffffffffffff821115620005d757620005d662000472565b5b602082029050602081019050919050565b600080fd5b600062000604620005fe84620005b9565b620004d7565b905080838252602082019050602084028301858111156200062a5762000629620005e8565b5b835b818110156200067857803567ffffffffffffffff81111562000653576200065262000457565b5b80860162000662898262000586565b855260208501945050506020810190506200062c565b5050509392505050565b600082601f8301126200069a576200069962000457565b5b8135620006ac848260208601620005ed565b91505092915050565b60008060008060808587031215620006d257620006d16200028c565b5b600085013567ffffffffffffffff811115620006f357620006f262000291565b5b620007018782880162000586565b945050602085013567ffffffffffffffff81111562000725576200072462000291565b5b620007338782880162000586565b935050604085013567ffffffffffffffff81111562000757576200075662000291565b5b620007658782880162000682565b925050606085013567ffffffffffffffff81111562000789576200078862000291565b5b620007978782880162000682565b91505092959194509250565b600081519050919050565b600082825260208201905092915050565b60005b83811015620007df578082015181840152602081019050620007c2565b83811115620007ef576000848401525b50505050565b60006200080282620007a3565b6200080e8185620007ae565b935062000820818560208601620007bf565b6200082b8162000461565b840191505092915050565b600081519050919050565b600082825260208201905092915050565b6000819050602082019050919050565b600082825260208201905092915050565b60006200088082620007a3565b6200088c818562000862565b93506200089e818560208601620007bf565b620008a98162000461565b840191505092915050565b6000620008c2838362000873565b905092915050565b6000602082019050919050565b6000620008e48262000836565b620008f0818562000841565b935083602082028501620009048562000852565b8060005b85811015620009465784840389528151620009248582620008b4565b94506200093183620008ca565b925060208a0199505060018101905062000908565b50829750879550505050505092915050565b600060a0820190508181036000830152620009748188620007f5565b905081810360208301526200098a8187620007f5565b90508181036040830152620009a08186620008d7565b90508181036060830152620009b68185620008d7565b9050620009c7608083018462000337565b969550505050505056fe608060405260405162001a9938038062001a99833981810160405281019062000029919062000576565b806000806101000a81548173ffffffffffffffffffffffffffffffffffffffff021916908373ffffffffffffffffffffffffffffffffffffffff160217905550846001908051906020019062000081929190620000f3565b5082600290805190602001906200009a92919062000184565b508360039080519060200190620000b3929190620000f3565b508160049080519060200190620000cc92919062000184565b506000600560146101000a81548160ff0219169083151502179055505050505050620006de565b8280546200010190620006a9565b90600052602060002090601f01602090048101928262000125576000855562000171565b82601f106200014057805160ff191683800117855562000171565b8280016001018555821562000171579182015b828111156200017057825182559160200191906001019062000153565b5b509050620001809190620001eb565b5090565b828054828255906000526020600020908101928215620001d8579160200282015b82811115620001d7578251829080519060200190620001c6929190620000f3565b5091602001919060010190620001a5565b5b509050620001e791906200020a565b5090565b5b8082111562000206576000816000905550600101620001ec565b5090565b5b808211156200022e576000818162000224919062000232565b506001016200020b565b5090565b5080546200024090620006a9565b6000825580601f1062000254575062000275565b601f016020900490600052602060002090810190620002749190620001eb565b5b50565b6000604051905090565b600080fd5b600080fd5b600080fd5b600080fd5b6000601f19601f8301169050919050565b7f4e487b7100000000000000000000000000000000000000000000000000000000600052604160045260246000fd5b620002e18262000296565b810181811067ffffffffffffffff82111715620003035762000302620002a7565b5b80604052505050565b60006200031862000278565b9050620003268282620002d6565b919050565b600067ffffffffffffffff821115620003495762000348620002a7565b5b620003548262000296565b9050602081019050919050565b60005b838110156200038157808201518184015260208101905062000364565b8381111562000391576000848401525b50505050565b6000620003ae620003a8846200032b565b6200030c565b905082815260208101848484011115620003cd57620003cc62000291565b5b620003da84828562000361565b509392505050565b600082601f830112620003fa57620003f96200028c565b5b81516200040c84826020860162000397565b91505092915050565b600067ffffffffffffffff821115620004335762000432620002a7565b5b602082029050602081019050919050565b600080fd5b6000620004606200045a8462000415565b6200030c565b9050808382526020820190506020840283018581111562000486576200048562000444565b5b835b81811015620004d457805167ffffffffffffffff811115620004af57620004ae6200028c565b5b808601620004be8982620003e2565b8552602085019450505060208101905062000488565b5050509392505050565b600082601f830112620004f657620004f56200028c565b5b81516200050884826020860162000449565b91505092915050565b600073ffffffffffffffffffffffffffffffffffffffff82169050919050565b60006200053e8262000511565b9050919050565b620005508162000531565b81146200055c57600080fd5b50565b600081519050620005708162000545565b92915050565b600080600080600060a0868803121562000595576200059462000282565b5b600086015167ffffffffffffffff811115620005b657620005b562000287565b5b620005c488828901620003e2565b955050602086015167ffffffffffffffff811115620005e857620005e762000287565b5b620005f688828901620003e2565b945050604086015167ffffffffffffffff8111156200061a576200061962000287565b5b6200062888828901620004de565b935050606086015167ffffffffffffffff8111156200064c576200064b62000287565b5b6200065a88828901620004de565b92505060806200066d888289016200055f565b9150509295509295909350565b7f4e487b7100000000000000000000000000000000000000000000000000000000600052602260045260246000fd5b60006002820490506001821680620006c257607f821691505b602082108103620006d857620006d76200067a565b5b50919050565b6113ab80620006ee6000396000f3fe608060405234801561001057600080fd5b50600436106100e95760003560e01c80635f51c7651161008c578063a20fca5a11610066578063a20fca5a1461022c578063af84a01314610236578063fa391c6414610266578063fbc03a1e14610284576100e9565b80635f51c765146101af57806371096387146101cb57806374adad1d146101fb576100e9565b8063481c6a75116100c8578063481c6a75146101325780634d547ada146101505780635a9b0b891461016e5780635e1c732214610191576100e9565b80621aea77146100ee578063231e407a1461010c57806331c3a6f514610116575b600080fd5b6100f66102a2565b6040516101039190610e2d565b60405180910390f35b610114610330565b005b610130600480360381019061012b9190610f98565b61044c565b005b61013a6104e6565b6040516101479190611022565b60405180910390f35b61015861050a565b6040516101659190611022565b60405180910390f35b610176610530565b60405161018896959493929190611164565b60405180910390f35b610199610793565b6040516101a691906111da565b60405180910390f35b6101c960048036038101906101c4919061123a565b61086c565b005b6101e560048036038101906101e0919061129d565b610961565b6040516101f29190610e2d565b60405180910390f35b6102156004803603810190610210919061123a565b610a0d565b6040516102239291906112ca565b60405180910390f35b610234610ac6565b005b610250600480360381019061024b919061129d565b610ba4565b60405161025d9190610e2d565b60405180910390f35b61026e610c50565b60405161027b91906112fa565b60405180910390f35b61028c610c63565b6040516102999190610e2d565b60405180910390f35b600180546102af90611344565b80601f01602080910402602001604051908101604052809291908181526020018280546102db90611344565b80156103285780601f106102fd57610100808354040283529160200191610328565b820191906000526020600020905b81548152906001019060200180831161030b57829003601f168201915b505050505081565b60008054906101000a900473ffffffffffffffffffffffffffffffffffffffff1673ffffffffffffffffffffffffffffffffffffffff163373ffffffffffffffffffffffffffffffffffffffff161461038857600080fd5b600073ffffffffffffffffffffffffffffffffffffffff16600560009054906101000a900473ffffffffffffffffffffffffffffffffffffffff1673ffffffffffffffffffffffffffffffffffffffff16146103e357600080fd5b60008054906101000a900473ffffffffffffffffffffffffffffffffffffffff1673ffffffffffffffffffffffffffffffffffffffff166108fc479081150290604051600060405180830381858888f19350505050158015610449573d6000803e3d6000fd5b50565b604051806040016040528082815260200160011515815250600660003373ffffffffffffffffffffffffffffffffffffffff1673ffffffffffffffffffffffffffffffffffffffff16815260200190815260200160002060008201518160000190805190602001906104bf929190610cf1565b5060208201518160010160006101000a81548160ff02191690831515021790555090505050565b60008054906101000a900473ffffffffffffffffffffffffffffffffffffffff1681565b600560009054906101000a900473ffffffffffffffffffffffffffffffffffffffff1681565b6000606080606060008060008054906101000a900473ffffffffffffffffffffffffffffffffffffffff16600160026003600560009054906101000a900473ffffffffffffffffffffffffffffffffffffffff16600560149054906101000a900460ff168480546105a090611344565b80601f01602080910402602001604051908101604052809291908181526020018280546105cc90611344565b80156106195780601f106105ee57610100808354040283529160200191610619565b820191906000526020600020905b8154815290600101906020018083116105fc57829003601f168201915b5050505050945083805480602002602001604051908101604052809291908181526020016000905b828210156106ed57838290600052602060002001805461066090611344565b80601f016020809104026020016040519081016040528092919081815260200182805461068c90611344565b80156106d95780601f106106ae576101008083540402835291602001916106d9565b820191906000526020600020905b8154815290600101906020018083116106bc57829003601f168201915b505050505081526020019060010190610641565b5050505093508280546106ff90611344565b80601f016020809104026020016040519081016040528092919081815260200182805461072b90611344565b80156107785780601f1061074d57610100808354040283529160200191610778565b820191906000526020600020905b81548152906001019060200180831161075b57829003601f168201915b50505050509250955095509550955095509550909192939495565b60606004805480602002602001604051908101604052809291908181526020016000905b828210156108635783829060005260206000200180546107d690611344565b80601f016020809104026020016040519081016040528092919081815260200182805461080290611344565b801561084f5780601f106108245761010080835404028352916020019161084f565b820191906000526020600020905b81548152906001019060200180831161083257829003601f168201915b5050505050815260200190600101906107b7565b50505050905090565b60008054906101000a900473ffffffffffffffffffffffffffffffffffffffff1673ffffffffffffffffffffffffffffffffffffffff163373ffffffffffffffffffffffffffffffffffffffff16146108c457600080fd5b600660008273ffffffffffffffffffffffffffffffffffffffff1673ffffffffffffffffffffffffffffffffffffffff16815260200190815260200160002060010160009054906101000a900460ff1661091d57600080fd5b80600560006101000a81548173ffffffffffffffffffffffffffffffffffffffff021916908373ffffffffffffffffffffffffffffffffffffffff16021790555050565b6002818154811061097157600080fd5b90600052602060002001600091509050805461098c90611344565b80601f01602080910402602001604051908101604052809291908181526020018280546109b890611344565b8015610a055780601f106109da57610100808354040283529160200191610a05565b820191906000526020600020905b8154815290600101906020018083116109e857829003601f168201915b505050505081565b6006602052806000526040600020600091509050806000018054610a3090611344565b80601f0160208091040260200160405190810160405280929190818152602001828054610a5c90611344565b8015610aa95780601f10610a7e57610100808354040283529160200191610aa9565b820191906000526020600020905b815481529060010190602001808311610a8c57829003601f168201915b5050505050908060010160009054906101000a900460ff16905082565b60008054906101000a900473ffffffffffffffffffffffffffffffffffffffff1673ffffffffffffffffffffffffffffffffffffffff163373ffffffffffffffffffffffffffffffffffffffff1614610b1e57600080fd5b600560009054906101000a900473ffffffffffffffffffffffffffffffffffffffff1673ffffffffffffffffffffffffffffffffffffffff166108fc479081150290604051600060405180830381858888f19350505050158015610b86573d6000803e3d6000fd5b506001600560146101000a81548160ff021916908315150217905550565b60048181548110610bb457600080fd5b906000526020600020016000915090508054610bcf90611344565b80601f0160208091040260200160405190810160405280929190818152602001828054610bfb90611344565b8015610c485780601f10610c1d57610100808354040283529160200191610c48565b820191906000526020600020905b815481529060010190602001808311610c2b57829003601f168201915b505050505081565b600560149054906101000a900460ff1681565b60038054610c7090611344565b80601f0160208091040260200160405190810160405280929190818152602001828054610c9c90611344565b8015610ce95780601f10610cbe57610100808354040283529160200191610ce9565b820191906000526020600020905b815481529060010190602001808311610ccc57829003601f168201915b505050505081565b828054610cfd90611344565b90600052602060002090601f016020900481019282610d1f5760008555610d66565b82601f10610d3857805160ff1916838001178555610d66565b82800160010185558215610d66579182015b82811115610d65578251825591602001919060010190610d4a565b5b509050610d739190610d77565b5090565b5b80821115610d90576000816000905550600101610d78565b5090565b600081519050919050565b600082825260208201905092915050565b60005b83811015610dce578082015181840152602081019050610db3565b83811115610ddd576000848401525b50505050565b6000601f19601f8301169050919050565b6000610dff82610d94565b610e098185610d9f565b9350610e19818560208601610db0565b610e2281610de3565b840191505092915050565b60006020820190508181036000830152610e478184610df4565b905092915050565b6000604051905090565b600080fd5b600080fd5b600080fd5b600080fd5b7f4e487b7100000000000000000000000000000000000000000000000000000000600052604160045260246000fd5b610ea582610de3565b810181811067ffffffffffffffff82111715610ec457610ec3610e6d565b5b80604052505050565b6000610ed7610e4f565b9050610ee38282610e9c565b919050565b600067ffffffffffffffff821115610f0357610f02610e6d565b5b610f0c82610de3565b9050602081019050919050565b82818337600083830152505050565b6000610f3b610f3684610ee8565b610ecd565b905082815260208101848484011115610f5757610f56610e68565b5b610f62848285610f19565b509392505050565b600082601f830112610f7f57610f7e610e63565b5b8135610f8f848260208601610f28565b91505092915050565b600060208284031215610fae57610fad610e59565b5b600082013567ffffffffffffffff811115610fcc57610fcb610e5e565b5b610fd884828501610f6a565b91505092915050565b600073ffffffffffffffffffffffffffffffffffffffff82169050919050565b600061100c82610fe1565b9050919050565b61101c81611001565b82525050565b60006020820190506110376000830184611013565b92915050565b600081519050919050565b600082825260208201905092915050565b6000819050602082019050919050565b600082825260208201905092915050565b600061108582610d94565b61108f8185611069565b935061109f818560208601610db0565b6110a881610de3565b840191505092915050565b60006110bf838361107a565b905092915050565b6000602082019050919050565b60006110df8261103d565b6110e98185611048565b9350836020820285016110fb85611059565b8060005b85811015611137578484038952815161111885826110b3565b9450611123836110c7565b925060208a019950506001810190506110ff565b50829750879550505050505092915050565b60008115159050919050565b61115e81611149565b82525050565b600060c0820190506111796000830189611013565b818103602083015261118b8188610df4565b9050818103604083015261119f81876110d4565b905081810360608301526111b38186610df4565b90506111c26080830185611013565b6111cf60a0830184611155565b979650505050505050565b600060208201905081810360008301526111f481846110d4565b905092915050565b600061120782610fe1565b9050919050565b611217816111fc565b811461122257600080fd5b50565b6000813590506112348161120e565b92915050565b6000602082840312156112505761124f610e59565b5b600061125e84828501611225565b91505092915050565b6000819050919050565b61127a81611267565b811461128557600080fd5b50565b60008135905061129781611271565b92915050565b6000602082840312156112b3576112b2610e59565b5b60006112c184828501611288565b91505092915050565b600060408201905081810360008301526112e48185610df4565b90506112f36020830184611155565b9392505050565b600060208201905061130f6000830184611155565b92915050565b7f4e487b7100000000000000000000000000000000000000000000000000000000600052602260045260246000fd5b6000600282049050600182168061135c57607f821691505b60208210810361136f5761136e611315565b5b5091905056fea26469706673582212203dd02038a01e749602d29d73fcf0c0260527a80b9714061806cb0468f153a89364736f6c634300080e0033a26469706673582212202ed2f54d8d2a7e7e23a0a0f0ccf194a4d40fcb90110910892e6b2f8020c8c45664736f6c634300080e0033","opcodes":"PUSH1 0x80 PUSH1 0x40 MSTORE CALLVALUE DUP1 ISZERO PUSH2 0x10 JUMPI PUSH1 0x0 DUP1 REVERT JUMPDEST POP PUSH2 0x24A0 DUP1 PUSH2 0x20 PUSH1 0x0 CODECOPY PUSH1 0x0 RETURN INVALID PUSH1 0x80 PUSH1 0x40 MSTORE PUSH1 0x4 CALLDATASIZE LT PUSH3 0x38 JUMPI PUSH1 0x0 CALLDATALOAD PUSH1 0xE0 SHR DUP1 PUSH4 0x3F90B454 EQ PUSH3 0x3D JUMPI DUP1 PUSH4 0x779900B4 EQ PUSH3 0x81 JUMPI DUP1 PUSH4 0xF6654663 EQ PUSH3 0xB1 JUMPI JUMPDEST PUSH1 0x0 DUP1 REVERT JUMPDEST CALLVALUE DUP1 ISZERO PUSH3 0x4A JUMPI PUSH1 0x0 DUP1 REVERT JUMPDEST POP PUSH3 0x69 PUSH1 0x4 DUP1 CALLDATASIZE SUB DUP2 ADD SWAP1 PUSH3 0x63 SWAP2 SWAP1 PUSH3 0x2D1 JUMP JUMPDEST PUSH3 0xE7 JUMP JUMPDEST PUSH1 0x40 MLOAD PUSH3 0x78 SWAP2 SWAP1 PUSH3 0x348 JUMP JUMPDEST PUSH1 0x40 MLOAD DUP1 SWAP2 SUB SWAP1 RETURN JUMPDEST CALLVALUE DUP1 ISZERO PUSH3 0x8E JUMPI PUSH1 0x0 DUP1 REVERT JUMPDEST POP PUSH3 0x99 PUSH3 0x127 JUMP JUMPDEST PUSH1 0x40 MLOAD PUSH3 0xA8 SWAP2 SWAP1 PUSH3 0x433 JUMP JUMPDEST PUSH1 0x40 MLOAD DUP1 SWAP2 SUB SWAP1 RETURN JUMPDEST PUSH3 0xCF PUSH1 0x4 DUP1 CALLDATASIZE SUB DUP2 ADD SWAP1 PUSH3 0xC9 SWAP2 SWAP1 PUSH3 0x6B5 JUMP JUMPDEST PUSH3 0x1B7 JUMP JUMPDEST PUSH1 0x40 MLOAD PUSH3 0xDE SWAP2 SWAP1 PUSH3 0x348 JUMP JUMPDEST PUSH1 0x40 MLOAD DUP1 SWAP2 SUB SWAP1 RETURN JUMPDEST PUSH1 0x0 DUP2 DUP2 SLOAD DUP2 LT PUSH3 0xF8 JUMPI PUSH1 0x0 DUP1 REVERT JUMPDEST SWAP1 PUSH1 0x0 MSTORE PUSH1 0x20 PUSH1 0x0 KECCAK256 ADD PUSH1 0x0 SWAP2 POP SLOAD SWAP1 PUSH2 0x100 EXP SWAP1 DIV PUSH20 0xFFFFFFFFFFFFFFFFFFFFFFFFFFFFFFFFFFFFFFFF AND DUP2 JUMP JUMPDEST PUSH1 0x60 PUSH1 0x0 DUP1 SLOAD DUP1 PUSH1 0x20 MUL PUSH1 0x20 ADD PUSH1 0x40 MLOAD SWAP1 DUP2 ADD PUSH1 0x40 MSTORE DUP1 SWAP3 SWAP2 SWAP1 DUP2 DUP2 MSTORE PUSH1 0x20 ADD DUP3 DUP1 SLOAD DUP1 ISZERO PUSH3 0x1AD JUMPI PUSH1 0x20 MUL DUP3 ADD SWAP2 SWAP1 PUSH1 0x0 MSTORE PUSH1 0x20 PUSH1 0x0 KECCAK256 SWAP1 JUMPDEST DUP2 PUSH1 0x0 SWAP1 SLOAD SWAP1 PUSH2 0x100 EXP SWAP1 DIV PUSH20 0xFFFFFFFFFFFFFFFFFFFFFFFFFFFFFFFFFFFFFFFF AND PUSH20 0xFFFFFFFFFFFFFFFFFFFFFFFFFFFFFFFFFFFFFFFF AND DUP2 MSTORE PUSH1 0x20 ADD SWAP1 PUSH1 0x1 ADD SWAP1 DUP1 DUP4 GT PUSH3 0x162 JUMPI JUMPDEST POP POP POP POP POP SWAP1 POP SWAP1 JUMP JUMPDEST PUSH1 0x0 DUP1 CALLVALUE DUP7 DUP7 DUP7 DUP7 CALLER PUSH1 0x40 MLOAD PUSH3 0x1CE SWAP1 PUSH3 0x274 JUMP JUMPDEST PUSH3 0x1DE SWAP6 SWAP5 SWAP4 SWAP3 SWAP2 SWAP1 PUSH3 0x958 JUMP JUMPDEST PUSH1 0x40 MLOAD DUP1 SWAP2 SUB SWAP1 DUP3 CREATE SWAP1 POP DUP1 ISZERO DUP1 ISZERO PUSH3 0x1FC JUMPI RETURNDATASIZE PUSH1 0x0 DUP1 RETURNDATACOPY RETURNDATASIZE PUSH1 0x0 REVERT JUMPDEST POP SWAP1 POP PUSH1 0x0 DUP2 SWAP1 POP PUSH1 0x0 DUP2 SWAP1 DUP1 PUSH1 0x1 DUP2 SLOAD ADD DUP1 DUP3 SSTORE DUP1 SWAP2 POP POP PUSH1 0x1 SWAP1 SUB SWAP1 PUSH1 0x0 MSTORE PUSH1 0x20 PUSH1 0x0 KECCAK256 ADD PUSH1 0x0 SWAP1 SWAP2 SWAP1 SWAP2 SWAP1 SWAP2 PUSH2 0x100 EXP DUP2 SLOAD DUP2 PUSH20 0xFFFFFFFFFFFFFFFFFFFFFFFFFFFFFFFFFFFFFFFF MUL NOT AND SWAP1 DUP4 PUSH20 0xFFFFFFFFFFFFFFFFFFFFFFFFFFFFFFFFFFFFFFFF AND MUL OR SWAP1 SSTORE POP DUP1 SWAP3 POP POP POP SWAP5 SWAP4 POP POP POP POP JUMP JUMPDEST PUSH2 0x1A99 DUP1 PUSH3 0x9D2 DUP4 CODECOPY ADD SWAP1 JUMP JUMPDEST PUSH1 0x0 PUSH1 0x40 MLOAD SWAP1 POP SWAP1 JUMP JUMPDEST PUSH1 0x0 DUP1 REVERT JUMPDEST PUSH1 0x0 DUP1 REVERT JUMPDEST PUSH1 0x0 DUP2 SWAP1 POP SWAP2 SWAP1 POP JUMP JUMPDEST PUSH3 0x2AB DUP2 PUSH3 0x296 JUMP JUMPDEST DUP2 EQ PUSH3 0x2B7 JUMPI PUSH1 0x0 DUP1 REVERT JUMPDEST POP JUMP JUMPDEST PUSH1 0x0 DUP2 CALLDATALOAD SWAP1 POP PUSH3 0x2CB DUP2 PUSH3 0x2A0 JUMP JUMPDEST SWAP3 SWAP2 POP POP JUMP JUMPDEST PUSH1 0x0 PUSH1 0x20 DUP3 DUP5 SUB SLT ISZERO PUSH3 0x2EA JUMPI PUSH3 0x2E9 PUSH3 0x28C JUMP JUMPDEST JUMPDEST PUSH1 0x0 PUSH3 0x2FA DUP5 DUP3 DUP6 ADD PUSH3 0x2BA JUMP JUMPDEST SWAP2 POP POP SWAP3 SWAP2 POP POP JUMP JUMPDEST PUSH1 0x0 PUSH20 0xFFFFFFFFFFFFFFFFFFFFFFFFFFFFFFFFFFFFFFFF DUP3 AND SWAP1 POP SWAP2 SWAP1 POP JUMP JUMPDEST PUSH1 0x0 PUSH3 0x330 DUP3 PUSH3 0x303 JUMP JUMPDEST SWAP1 POP SWAP2 SWAP1 POP JUMP JUMPDEST PUSH3 0x342 DUP2 PUSH3 0x323 JUMP JUMPDEST DUP3 MSTORE POP POP JUMP JUMPDEST PUSH1 0x0 PUSH1 0x20 DUP3 ADD SWAP1 POP PUSH3 0x35F PUSH1 0x0 DUP4 ADD DUP5 PUSH3 0x337 JUMP JUMPDEST SWAP3 SWAP2 POP POP JUMP JUMPDEST PUSH1 0x0 DUP2 MLOAD SWAP1 POP SWAP2 SWAP1 POP JUMP JUMPDEST PUSH1 0x0 DUP3 DUP3 MSTORE PUSH1 0x20 DUP3 ADD SWAP1 POP SWAP3 SWAP2 POP POP JUMP JUMPDEST PUSH1 0x0 DUP2 SWAP1 POP PUSH1 0x20 DUP3 ADD SWAP1 POP SWAP2 SWAP1 POP JUMP JUMPDEST PUSH3 0x39C DUP2 PUSH3 0x323 JUMP JUMPDEST DUP3 MSTORE POP POP JUMP JUMPDEST PUSH1 0x0 PUSH3 0x3B0 DUP4 DUP4 PUSH3 0x391 JUMP JUMPDEST PUSH1 0x20 DUP4 ADD SWAP1 POP SWAP3 SWAP2 POP POP JUMP JUMPDEST PUSH1 0x0 PUSH1 0x20 DUP3 ADD SWAP1 POP SWAP2 SWAP1 POP JUMP JUMPDEST PUSH1 0x0 PUSH3 0x3D6 DUP3 PUSH3 0x365 JUMP JUMPDEST PUSH3 0x3E2 DUP2 DUP6 PUSH3 0x370 JUMP JUMPDEST SWAP4 POP PUSH3 0x3EF DUP4 PUSH3 0x381 JUMP JUMPDEST DUP1 PUSH1 0x0 JUMPDEST DUP4 DUP2 LT ISZERO PUSH3 0x426 JUMPI DUP2 MLOAD PUSH3 0x40A DUP9 DUP3 PUSH3 0x3A2 JUMP JUMPDEST SWAP8 POP PUSH3 0x417 DUP4 PUSH3 0x3BC JUMP JUMPDEST SWAP3 POP POP PUSH1 0x1 DUP2 ADD SWAP1 POP PUSH3 0x3F3 JUMP JUMPDEST POP DUP6 SWAP4 POP POP POP POP SWAP3 SWAP2 POP POP JUMP JUMPDEST PUSH1 0x0 PUSH1 0x20 DUP3 ADD SWAP1 POP DUP2 DUP2 SUB PUSH1 0x0 DUP4 ADD MSTORE PUSH3 0x44F DUP2 DUP5 PUSH3 0x3C9 JUMP JUMPDEST SWAP1 POP SWAP3 SWAP2 POP POP JUMP JUMPDEST PUSH1 0x0 DUP1 REVERT JUMPDEST PUSH1 0x0 DUP1 REVERT JUMPDEST PUSH1 0x0 PUSH1 0x1F NOT PUSH1 0x1F DUP4 ADD AND SWAP1 POP SWAP2 SWAP1 POP JUMP JUMPDEST PUSH32 0x4E487B7100000000000000000000000000000000000000000000000000000000 PUSH1 0x0 MSTORE PUSH1 0x41 PUSH1 0x4 MSTORE PUSH1 0x24 PUSH1 0x0 REVERT JUMPDEST PUSH3 0x4AC DUP3 PUSH3 0x461 JUMP JUMPDEST DUP2 ADD DUP2 DUP2 LT PUSH8 0xFFFFFFFFFFFFFFFF DUP3 GT OR ISZERO PUSH3 0x4CE JUMPI PUSH3 0x4CD PUSH3 0x472 JUMP JUMPDEST JUMPDEST DUP1 PUSH1 0x40 MSTORE POP POP POP JUMP JUMPDEST PUSH1 0x0 PUSH3 0x4E3 PUSH3 0x282 JUMP JUMPDEST SWAP1 POP PUSH3 0x4F1 DUP3 DUP3 PUSH3 0x4A1 JUMP JUMPDEST SWAP2 SWAP1 POP JUMP JUMPDEST PUSH1 0x0 PUSH8 0xFFFFFFFFFFFFFFFF DUP3 GT ISZERO PUSH3 0x514 JUMPI PUSH3 0x513 PUSH3 0x472 JUMP JUMPDEST JUMPDEST PUSH3 0x51F DUP3 PUSH3 0x461 JUMP JUMPDEST SWAP1 POP PUSH1 0x20 DUP2 ADD SWAP1 POP SWAP2 SWAP1 POP JUMP JUMPDEST DUP3 DUP2 DUP4 CALLDATACOPY PUSH1 0x0 DUP4 DUP4 ADD MSTORE POP POP POP JUMP JUMPDEST PUSH1 0x0 PUSH3 0x552 PUSH3 0x54C DUP5 PUSH3 0x4F6 JUMP JUMPDEST PUSH3 0x4D7 JUMP JUMPDEST SWAP1 POP DUP3 DUP2 MSTORE PUSH1 0x20 DUP2 ADD DUP5 DUP5 DUP5 ADD GT ISZERO PUSH3 0x571 JUMPI PUSH3 0x570 PUSH3 0x45C JUMP JUMPDEST JUMPDEST PUSH3 0x57E DUP5 DUP3 DUP6 PUSH3 0x52C JUMP JUMPDEST POP SWAP4 SWAP3 POP POP POP JUMP JUMPDEST PUSH1 0x0 DUP3 PUSH1 0x1F DUP4 ADD SLT PUSH3 0x59E JUMPI PUSH3 0x59D PUSH3 0x457 JUMP JUMPDEST JUMPDEST DUP2 CALLDATALOAD PUSH3 0x5B0 DUP5 DUP3 PUSH1 0x20 DUP7 ADD PUSH3 0x53B JUMP JUMPDEST SWAP2 POP POP SWAP3 SWAP2 POP POP JUMP JUMPDEST PUSH1 0x0 PUSH8 0xFFFFFFFFFFFFFFFF DUP3 GT ISZERO PUSH3 0x5D7 JUMPI PUSH3 0x5D6 PUSH3 0x472 JUMP JUMPDEST JUMPDEST PUSH1 0x20 DUP3 MUL SWAP1 POP PUSH1 0x20 DUP2 ADD SWAP1 POP SWAP2 SWAP1 POP JUMP JUMPDEST PUSH1 0x0 DUP1 REVERT JUMPDEST PUSH1 0x0 PUSH3 0x604 PUSH3 0x5FE DUP5 PUSH3 0x5B9 JUMP JUMPDEST PUSH3 0x4D7 JUMP JUMPDEST SWAP1 POP DUP1 DUP4 DUP3 MSTORE PUSH1 0x20 DUP3 ADD SWAP1 POP PUSH1 0x20 DUP5 MUL DUP4 ADD DUP6 DUP2 GT ISZERO PUSH3 0x62A JUMPI PUSH3 0x629 PUSH3 0x5E8 JUMP JUMPDEST JUMPDEST DUP4 JUMPDEST DUP2 DUP2 LT ISZERO PUSH3 0x678 JUMPI DUP1 CALLDATALOAD PUSH8 0xFFFFFFFFFFFFFFFF DUP2 GT ISZERO PUSH3 0x653 JUMPI PUSH3 0x652 PUSH3 0x457 JUMP JUMPDEST JUMPDEST DUP1 DUP7 ADD PUSH3 0x662 DUP10 DUP3 PUSH3 0x586 JUMP JUMPDEST DUP6 MSTORE PUSH1 0x20 DUP6 ADD SWAP5 POP POP POP PUSH1 0x20 DUP2 ADD SWAP1 POP PUSH3 0x62C JUMP JUMPDEST POP POP POP SWAP4 SWAP3 POP POP POP JUMP JUMPDEST PUSH1 0x0 DUP3 PUSH1 0x1F DUP4 ADD SLT PUSH3 0x69A JUMPI PUSH3 0x699 PUSH3 0x457 JUMP JUMPDEST JUMPDEST DUP2 CALLDATALOAD PUSH3 0x6AC DUP5 DUP3 PUSH1 0x20 DUP7 ADD PUSH3 0x5ED JUMP JUMPDEST SWAP2 POP POP SWAP3 SWAP2 POP POP JUMP JUMPDEST PUSH1 0x0 DUP1 PUSH1 0x0 DUP1 PUSH1 0x80 DUP6 DUP8 SUB SLT ISZERO PUSH3 0x6D2 JUMPI PUSH3 0x6D1 PUSH3 0x28C JUMP JUMPDEST JUMPDEST PUSH1 0x0 DUP6 ADD CALLDATALOAD PUSH8 0xFFFFFFFFFFFFFFFF DUP2 GT ISZERO PUSH3 0x6F3 JUMPI PUSH3 0x6F2 PUSH3 0x291 JUMP JUMPDEST JUMPDEST PUSH3 0x701 DUP8 DUP3 DUP9 ADD PUSH3 0x586 JUMP JUMPDEST SWAP5 POP POP PUSH1 0x20 DUP6 ADD CALLDATALOAD PUSH8 0xFFFFFFFFFFFFFFFF DUP2 GT ISZERO PUSH3 0x725 JUMPI PUSH3 0x724 PUSH3 0x291 JUMP JUMPDEST JUMPDEST PUSH3 0x733 DUP8 DUP3 DUP9 ADD PUSH3 0x586 JUMP JUMPDEST SWAP4 POP POP PUSH1 0x40 DUP6 ADD CALLDATALOAD PUSH8 0xFFFFFFFFFFFFFFFF DUP2 GT ISZERO PUSH3 0x757 JUMPI PUSH3 0x756 PUSH3 0x291 JUMP JUMPDEST JUMPDEST PUSH3 0x765 DUP8 DUP3 DUP9 ADD PUSH3 0x682 JUMP JUMPDEST SWAP3 POP POP PUSH1 0x60 DUP6 ADD CALLDATALOAD PUSH8 0xFFFFFFFFFFFFFFFF DUP2 GT ISZERO PUSH3 0x789 JUMPI PUSH3 0x788 PUSH3 0x291 JUMP JUMPDEST JUMPDEST PUSH3 0x797 DUP8 DUP3 DUP9 ADD PUSH3 0x682 JUMP JUMPDEST SWAP2 POP POP SWAP3 SWAP6 SWAP2 SWAP5 POP SWAP3 POP JUMP JUMPDEST PUSH1 0x0 DUP2 MLOAD SWAP1 POP SWAP2 SWAP1 POP JUMP JUMPDEST PUSH1 0x0 DUP3 DUP3 MSTORE PUSH1 0x20 DUP3 ADD SWAP1 POP SWAP3 SWAP2 POP POP JUMP JUMPDEST PUSH1 0x0 JUMPDEST DUP4 DUP2 LT ISZERO PUSH3 0x7DF JUMPI DUP1 DUP3 ADD MLOAD DUP2 DUP5 ADD MSTORE PUSH1 0x20 DUP2 ADD SWAP1 POP PUSH3 0x7C2 JUMP JUMPDEST DUP4 DUP2 GT ISZERO PUSH3 0x7EF JUMPI PUSH1 0x0 DUP5 DUP5 ADD MSTORE JUMPDEST POP POP POP POP JUMP JUMPDEST PUSH1 0x0 PUSH3 0x802 DUP3 PUSH3 0x7A3 JUMP JUMPDEST PUSH3 0x80E DUP2 DUP6 PUSH3 0x7AE JUMP JUMPDEST SWAP4 POP PUSH3 0x820 DUP2 DUP6 PUSH1 0x20 DUP7 ADD PUSH3 0x7BF JUMP JUMPDEST PUSH3 0x82B DUP2 PUSH3 0x461 JUMP JUMPDEST DUP5 ADD SWAP2 POP POP SWAP3 SWAP2 POP POP JUMP JUMPDEST PUSH1 0x0 DUP2 MLOAD SWAP1 POP SWAP2 SWAP1 POP JUMP JUMPDEST PUSH1 0x0 DUP3 DUP3 MSTORE PUSH1 0x20 DUP3 ADD SWAP1 POP SWAP3 SWAP2 POP POP JUMP JUMPDEST PUSH1 0x0 DUP2 SWAP1 POP PUSH1 0x20 DUP3 ADD SWAP1 POP SWAP2 SWAP1 POP JUMP JUMPDEST PUSH1 0x0 DUP3 DUP3 MSTORE PUSH1 0x20 DUP3 ADD SWAP1 POP SWAP3 SWAP2 POP POP JUMP JUMPDEST PUSH1 0x0 PUSH3 0x880 DUP3 PUSH3 0x7A3 JUMP JUMPDEST PUSH3 0x88C DUP2 DUP6 PUSH3 0x862 JUMP JUMPDEST SWAP4 POP PUSH3 0x89E DUP2 DUP6 PUSH1 0x20 DUP7 ADD PUSH3 0x7BF JUMP JUMPDEST PUSH3 0x8A9 DUP2 PUSH3 0x461 JUMP JUMPDEST DUP5 ADD SWAP2 POP POP SWAP3 SWAP2 POP POP JUMP JUMPDEST PUSH1 0x0 PUSH3 0x8C2 DUP4 DUP4 PUSH3 0x873 JUMP JUMPDEST SWAP1 POP SWAP3 SWAP2 POP POP JUMP JUMPDEST PUSH1 0x0 PUSH1 0x20 DUP3 ADD SWAP1 POP SWAP2 SWAP1 POP JUMP JUMPDEST PUSH1 0x0 PUSH3 0x8E4 DUP3 PUSH3 0x836 JUMP JUMPDEST PUSH3 0x8F0 DUP2 DUP6 PUSH3 0x841 JUMP JUMPDEST SWAP4 POP DUP4 PUSH1 0x20 DUP3 MUL DUP6 ADD PUSH3 0x904 DUP6 PUSH3 0x852 JUMP JUMPDEST DUP1 PUSH1 0x0 JUMPDEST DUP6 DUP2 LT ISZERO PUSH3 0x946 JUMPI DUP5 DUP5 SUB DUP10 MSTORE DUP2 MLOAD PUSH3 0x924 DUP6 DUP3 PUSH3 0x8B4 JUMP JUMPDEST SWAP5 POP PUSH3 0x931 DUP4 PUSH3 0x8CA JUMP JUMPDEST SWAP3 POP PUSH1 0x20 DUP11 ADD SWAP10 POP POP PUSH1 0x1 DUP2 ADD SWAP1 POP PUSH3 0x908 JUMP JUMPDEST POP DUP3 SWAP8 POP DUP8 SWAP6 POP POP POP POP POP POP SWAP3 SWAP2 POP POP JUMP JUMPDEST PUSH1 0x0 PUSH1 0xA0 DUP3 ADD SWAP1 POP DUP2 DUP2 SUB PUSH1 0x0 DUP4 ADD MSTORE PUSH3 0x974 DUP2 DUP9 PUSH3 0x7F5 JUMP JUMPDEST SWAP1 POP DUP2 DUP2 SUB PUSH1 0x20 DUP4 ADD MSTORE PUSH3 0x98A DUP2 DUP8 PUSH3 0x7F5 JUMP JUMPDEST SWAP1 POP DUP2 DUP2 SUB PUSH1 0x40 DUP4 ADD MSTORE PUSH3 0x9A0 DUP2 DUP7 PUSH3 0x8D7 JUMP JUMPDEST SWAP1 POP DUP2 DUP2 SUB PUSH1 0x60 DUP4 ADD MSTORE PUSH3 0x9B6 DUP2 DUP6 PUSH3 0x8D7 JUMP JUMPDEST SWAP1 POP PUSH3 0x9C7 PUSH1 0x80 DUP4 ADD DUP5 PUSH3 0x337 JUMP JUMPDEST SWAP7 SWAP6 POP POP POP POP POP POP JUMP INVALID PUSH1 0x80 PUSH1 0x40 MSTORE PUSH1 0x40 MLOAD PUSH3 0x1A99 CODESIZE SUB DUP1 PUSH3 0x1A99 DUP4 CODECOPY DUP2 DUP2 ADD PUSH1 0x40 MSTORE DUP2 ADD SWAP1 PUSH3 0x29 SWAP2 SWAP1 PUSH3 0x576 JUMP JUMPDEST DUP1 PUSH1 0x0 DUP1 PUSH2 0x100 EXP DUP2 SLOAD DUP2 PUSH20 0xFFFFFFFFFFFFFFFFFFFFFFFFFFFFFFFFFFFFFFFF MUL NOT AND SWAP1 DUP4 PUSH20 0xFFFFFFFFFFFFFFFFFFFFFFFFFFFFFFFFFFFFFFFF AND MUL OR SWAP1 SSTORE POP DUP5 PUSH1 0x1 SWAP1 DUP1 MLOAD SWAP1 PUSH1 0x20 ADD SWAP1 PUSH3 0x81 SWAP3 SWAP2 SWAP1 PUSH3 0xF3 JUMP JUMPDEST POP DUP3 PUSH1 0x2 SWAP1 DUP1 MLOAD SWAP1 PUSH1 0x20 ADD SWAP1 PUSH3 0x9A SWAP3 SWAP2 SWAP1 PUSH3 0x184 JUMP JUMPDEST POP DUP4 PUSH1 0x3 SWAP1 DUP1 MLOAD SWAP1 PUSH1 0x20 ADD SWAP1 PUSH3 0xB3 SWAP3 SWAP2 SWAP1 PUSH3 0xF3 JUMP JUMPDEST POP DUP2 PUSH1 0x4 SWAP1 DUP1 MLOAD SWAP1 PUSH1 0x20 ADD SWAP1 PUSH3 0xCC SWAP3 SWAP2 SWAP1 PUSH3 0x184 JUMP JUMPDEST POP PUSH1 0x0 PUSH1 0x5 PUSH1 0x14 PUSH2 0x100 EXP DUP2 SLOAD DUP2 PUSH1 0xFF MUL NOT AND SWAP1 DUP4 ISZERO ISZERO MUL OR SWAP1 SSTORE POP POP POP POP POP POP PUSH3 0x6DE JUMP JUMPDEST DUP3 DUP1 SLOAD PUSH3 0x101 SWAP1 PUSH3 0x6A9 JUMP JUMPDEST SWAP1 PUSH1 0x0 MSTORE PUSH1 0x20 PUSH1 0x0 KECCAK256 SWAP1 PUSH1 0x1F ADD PUSH1 0x20 SWAP1 DIV DUP2 ADD SWAP3 DUP3 PUSH3 0x125 JUMPI PUSH1 0x0 DUP6 SSTORE PUSH3 0x171 JUMP JUMPDEST DUP3 PUSH1 0x1F LT PUSH3 0x140 JUMPI DUP1 MLOAD PUSH1 0xFF NOT AND DUP4 DUP1 ADD OR DUP6 SSTORE PUSH3 0x171 JUMP JUMPDEST DUP3 DUP1 ADD PUSH1 0x1 ADD DUP6 SSTORE DUP3 ISZERO PUSH3 0x171 JUMPI SWAP2 DUP3 ADD JUMPDEST DUP3 DUP2 GT ISZERO PUSH3 0x170 JUMPI DUP3 MLOAD DUP3 SSTORE SWAP2 PUSH1 0x20 ADD SWAP2 SWAP1 PUSH1 0x1 ADD SWAP1 PUSH3 0x153 JUMP JUMPDEST JUMPDEST POP SWAP1 POP PUSH3 0x180 SWAP2 SWAP1 PUSH3 0x1EB JUMP JUMPDEST POP SWAP1 JUMP JUMPDEST DUP3 DUP1 SLOAD DUP3 DUP3 SSTORE SWAP1 PUSH1 0x0 MSTORE PUSH1 0x20 PUSH1 0x0 KECCAK256 SWAP1 DUP2 ADD SWAP3 DUP3 ISZERO PUSH3 0x1D8 JUMPI SWAP2 PUSH1 0x20 MUL DUP3 ADD JUMPDEST DUP3 DUP2 GT ISZERO PUSH3 0x1D7 JUMPI DUP3 MLOAD DUP3 SWAP1 DUP1 MLOAD SWAP1 PUSH1 0x20 ADD SWAP1 PUSH3 0x1C6 SWAP3 SWAP2 SWAP1 PUSH3 0xF3 JUMP JUMPDEST POP SWAP2 PUSH1 0x20 ADD SWAP2 SWAP1 PUSH1 0x1 ADD SWAP1 PUSH3 0x1A5 JUMP JUMPDEST JUMPDEST POP SWAP1 POP PUSH3 0x1E7 SWAP2 SWAP1 PUSH3 0x20A JUMP JUMPDEST POP SWAP1 JUMP JUMPDEST JUMPDEST DUP1 DUP3 GT ISZERO PUSH3 0x206 JUMPI PUSH1 0x0 DUP2 PUSH1 0x0 SWAP1 SSTORE POP PUSH1 0x1 ADD PUSH3 0x1EC JUMP JUMPDEST POP SWAP1 JUMP JUMPDEST JUMPDEST DUP1 DUP3 GT ISZERO PUSH3 0x22E JUMPI PUSH1 0x0 DUP2 DUP2 PUSH3 0x224 SWAP2 SWAP1 PUSH3 0x232 JUMP JUMPDEST POP PUSH1 0x1 ADD PUSH3 0x20B JUMP JUMPDEST POP SWAP1 JUMP JUMPDEST POP DUP1 SLOAD PUSH3 0x240 SWAP1 PUSH3 0x6A9 JUMP JUMPDEST PUSH1 0x0 DUP3 SSTORE DUP1 PUSH1 0x1F LT PUSH3 0x254 JUMPI POP PUSH3 0x275 JUMP JUMPDEST PUSH1 0x1F ADD PUSH1 0x20 SWAP1 DIV SWAP1 PUSH1 0x0 MSTORE PUSH1 0x20 PUSH1 0x0 KECCAK256 SWAP1 DUP2 ADD SWAP1 PUSH3 0x274 SWAP2 SWAP1 PUSH3 0x1EB JUMP JUMPDEST JUMPDEST POP JUMP JUMPDEST PUSH1 0x0 PUSH1 0x40 MLOAD SWAP1 POP SWAP1 JUMP JUMPDEST PUSH1 0x0 DUP1 REVERT JUMPDEST PUSH1 0x0 DUP1 REVERT JUMPDEST PUSH1 0x0 DUP1 REVERT JUMPDEST PUSH1 0x0 DUP1 REVERT JUMPDEST PUSH1 0x0 PUSH1 0x1F NOT PUSH1 0x1F DUP4 ADD AND SWAP1 POP SWAP2 SWAP1 POP JUMP JUMPDEST PUSH32 0x4E487B7100000000000000000000000000000000000000000000000000000000 PUSH1 0x0 MSTORE PUSH1 0x41 PUSH1 0x4 MSTORE PUSH1 0x24 PUSH1 0x0 REVERT JUMPDEST PUSH3 0x2E1 DUP3 PUSH3 0x296 JUMP JUMPDEST DUP2 ADD DUP2 DUP2 LT PUSH8 0xFFFFFFFFFFFFFFFF DUP3 GT OR ISZERO PUSH3 0x303 JUMPI PUSH3 0x302 PUSH3 0x2A7 JUMP JUMPDEST JUMPDEST DUP1 PUSH1 0x40 MSTORE POP POP POP JUMP JUMPDEST PUSH1 0x0 PUSH3 0x318 PUSH3 0x278 JUMP JUMPDEST SWAP1 POP PUSH3 0x326 DUP3 DUP3 PUSH3 0x2D6 JUMP JUMPDEST SWAP2 SWAP1 POP JUMP JUMPDEST PUSH1 0x0 PUSH8 0xFFFFFFFFFFFFFFFF DUP3 GT ISZERO PUSH3 0x349 JUMPI PUSH3 0x348 PUSH3 0x2A7 JUMP JUMPDEST JUMPDEST PUSH3 0x354 DUP3 PUSH3 0x296 JUMP JUMPDEST SWAP1 POP PUSH1 0x20 DUP2 ADD SWAP1 POP SWAP2 SWAP1 POP JUMP JUMPDEST PUSH1 0x0 JUMPDEST DUP4 DUP2 LT ISZERO PUSH3 0x381 JUMPI DUP1 DUP3 ADD MLOAD DUP2 DUP5 ADD MSTORE PUSH1 0x20 DUP2 ADD SWAP1 POP PUSH3 0x364 JUMP JUMPDEST DUP4 DUP2 GT ISZERO PUSH3 0x391 JUMPI PUSH1 0x0 DUP5 DUP5 ADD MSTORE JUMPDEST POP POP POP POP JUMP JUMPDEST PUSH1 0x0 PUSH3 0x3AE PUSH3 0x3A8 DUP5 PUSH3 0x32B JUMP JUMPDEST PUSH3 0x30C JUMP JUMPDEST SWAP1 POP DUP3 DUP2 MSTORE PUSH1 0x20 DUP2 ADD DUP5 DUP5 DUP5 ADD GT ISZERO PUSH3 0x3CD JUMPI PUSH3 0x3CC PUSH3 0x291 JUMP JUMPDEST JUMPDEST PUSH3 0x3DA DUP5 DUP3 DUP6 PUSH3 0x361 JUMP JUMPDEST POP SWAP4 SWAP3 POP POP POP JUMP JUMPDEST PUSH1 0x0 DUP3 PUSH1 0x1F DUP4 ADD SLT PUSH3 0x3FA JUMPI PUSH3 0x3F9 PUSH3 0x28C JUMP JUMPDEST JUMPDEST DUP2 MLOAD PUSH3 0x40C DUP5 DUP3 PUSH1 0x20 DUP7 ADD PUSH3 0x397 JUMP JUMPDEST SWAP2 POP POP SWAP3 SWAP2 POP POP JUMP JUMPDEST PUSH1 0x0 PUSH8 0xFFFFFFFFFFFFFFFF DUP3 GT ISZERO PUSH3 0x433 JUMPI PUSH3 0x432 PUSH3 0x2A7 JUMP JUMPDEST JUMPDEST PUSH1 0x20 DUP3 MUL SWAP1 POP PUSH1 0x20 DUP2 ADD SWAP1 POP SWAP2 SWAP1 POP JUMP JUMPDEST PUSH1 0x0 DUP1 REVERT JUMPDEST PUSH1 0x0 PUSH3 0x460 PUSH3 0x45A DUP5 PUSH3 0x415 JUMP JUMPDEST PUSH3 0x30C JUMP JUMPDEST SWAP1 POP DUP1 DUP4 DUP3 MSTORE PUSH1 0x20 DUP3 ADD SWAP1 POP PUSH1 0x20 DUP5 MUL DUP4 ADD DUP6 DUP2 GT ISZERO PUSH3 0x486 JUMPI PUSH3 0x485 PUSH3 0x444 JUMP JUMPDEST JUMPDEST DUP4 JUMPDEST DUP2 DUP2 LT ISZERO PUSH3 0x4D4 JUMPI DUP1 MLOAD PUSH8 0xFFFFFFFFFFFFFFFF DUP2 GT ISZERO PUSH3 0x4AF JUMPI PUSH3 0x4AE PUSH3 0x28C JUMP JUMPDEST JUMPDEST DUP1 DUP7 ADD PUSH3 0x4BE DUP10 DUP3 PUSH3 0x3E2 JUMP JUMPDEST DUP6 MSTORE PUSH1 0x20 DUP6 ADD SWAP5 POP POP POP PUSH1 0x20 DUP2 ADD SWAP1 POP PUSH3 0x488 JUMP JUMPDEST POP POP POP SWAP4 SWAP3 POP POP POP JUMP JUMPDEST PUSH1 0x0 DUP3 PUSH1 0x1F DUP4 ADD SLT PUSH3 0x4F6 JUMPI PUSH3 0x4F5 PUSH3 0x28C JUMP JUMPDEST JUMPDEST DUP2 MLOAD PUSH3 0x508 DUP5 DUP3 PUSH1 0x20 DUP7 ADD PUSH3 0x449 JUMP JUMPDEST SWAP2 POP POP SWAP3 SWAP2 POP POP JUMP JUMPDEST PUSH1 0x0 PUSH20 0xFFFFFFFFFFFFFFFFFFFFFFFFFFFFFFFFFFFFFFFF DUP3 AND SWAP1 POP SWAP2 SWAP1 POP JUMP JUMPDEST PUSH1 0x0 PUSH3 0x53E DUP3 PUSH3 0x511 JUMP JUMPDEST SWAP1 POP SWAP2 SWAP1 POP JUMP JUMPDEST PUSH3 0x550 DUP2 PUSH3 0x531 JUMP JUMPDEST DUP2 EQ PUSH3 0x55C JUMPI PUSH1 0x0 DUP1 REVERT JUMPDEST POP JUMP JUMPDEST PUSH1 0x0 DUP2 MLOAD SWAP1 POP PUSH3 0x570 DUP2 PUSH3 0x545 JUMP JUMPDEST SWAP3 SWAP2 POP POP JUMP JUMPDEST PUSH1 0x0 DUP1 PUSH1 0x0 DUP1 PUSH1 0x0 PUSH1 0xA0 DUP7 DUP9 SUB SLT ISZERO PUSH3 0x595 JUMPI PUSH3 0x594 PUSH3 0x282 JUMP JUMPDEST JUMPDEST PUSH1 0x0 DUP7 ADD MLOAD PUSH8 0xFFFFFFFFFFFFFFFF DUP2 GT ISZERO PUSH3 0x5B6 JUMPI PUSH3 0x5B5 PUSH3 0x287 JUMP JUMPDEST JUMPDEST PUSH3 0x5C4 DUP9 DUP3 DUP10 ADD PUSH3 0x3E2 JUMP JUMPDEST SWAP6 POP POP PUSH1 0x20 DUP7 ADD MLOAD PUSH8 0xFFFFFFFFFFFFFFFF DUP2 GT ISZERO PUSH3 0x5E8 JUMPI PUSH3 0x5E7 PUSH3 0x287 JUMP JUMPDEST JUMPDEST PUSH3 0x5F6 DUP9 DUP3 DUP10 ADD PUSH3 0x3E2 JUMP JUMPDEST SWAP5 POP POP PUSH1 0x40 DUP7 ADD MLOAD PUSH8 0xFFFFFFFFFFFFFFFF DUP2 GT ISZERO PUSH3 0x61A JUMPI PUSH3 0x619 PUSH3 0x287 JUMP JUMPDEST JUMPDEST PUSH3 0x628 DUP9 DUP3 DUP10 ADD PUSH3 0x4DE JUMP JUMPDEST SWAP4 POP POP PUSH1 0x60 DUP7 ADD MLOAD PUSH8 0xFFFFFFFFFFFFFFFF DUP2 GT ISZERO PUSH3 0x64C JUMPI PUSH3 0x64B PUSH3 0x287 JUMP JUMPDEST JUMPDEST PUSH3 0x65A DUP9 DUP3 DUP10 ADD PUSH3 0x4DE JUMP JUMPDEST SWAP3 POP POP PUSH1 0x80 PUSH3 0x66D DUP9 DUP3 DUP10 ADD PUSH3 0x55F JUMP JUMPDEST SWAP2 POP POP SWAP3 SWAP6 POP SWAP3 SWAP6 SWAP1 SWAP4 POP JUMP JUMPDEST PUSH32 0x4E487B7100000000000000000000000000000000000000000000000000000000 PUSH1 0x0 MSTORE PUSH1 0x22 PUSH1 0x4 MSTORE PUSH1 0x24 PUSH1 0x0 REVERT JUMPDEST PUSH1 0x0 PUSH1 0x2 DUP3 DIV SWAP1 POP PUSH1 0x1 DUP3 AND DUP1 PUSH3 0x6C2 JUMPI PUSH1 0x7F DUP3 AND SWAP2 POP JUMPDEST PUSH1 0x20 DUP3 LT DUP2 SUB PUSH3 0x6D8 JUMPI PUSH3 0x6D7 PUSH3 0x67A JUMP JUMPDEST JUMPDEST POP SWAP2 SWAP1 POP JUMP JUMPDEST PUSH2 0x13AB DUP1 PUSH3 0x6EE PUSH1 0x0 CODECOPY PUSH1 0x0 RETURN INVALID PUSH1 0x80 PUSH1 0x40 MSTORE CALLVALUE DUP1 ISZERO PUSH2 0x10 JUMPI PUSH1 0x0 DUP1 REVERT JUMPDEST POP PUSH1 0x4 CALLDATASIZE LT PUSH2 0xE9 JUMPI PUSH1 0x0 CALLDATALOAD PUSH1 0xE0 SHR DUP1 PUSH4 0x5F51C765 GT PUSH2 0x8C JUMPI DUP1 PUSH4 0xA20FCA5A GT PUSH2 0x66 JUMPI DUP1 PUSH4 0xA20FCA5A EQ PUSH2 0x22C JUMPI DUP1 PUSH4 0xAF84A013 EQ PUSH2 0x236 JUMPI DUP1 PUSH4 0xFA391C64 EQ PUSH2 0x266 JUMPI DUP1 PUSH4 0xFBC03A1E EQ PUSH2 0x284 JUMPI PUSH2 0xE9 JUMP JUMPDEST DUP1 PUSH4 0x5F51C765 EQ PUSH2 0x1AF JUMPI DUP1 PUSH4 0x71096387 EQ PUSH2 0x1CB JUMPI DUP1 PUSH4 0x74ADAD1D EQ PUSH2 0x1FB JUMPI PUSH2 0xE9 JUMP JUMPDEST DUP1 PUSH4 0x481C6A75 GT PUSH2 0xC8 JUMPI DUP1 PUSH4 0x481C6A75 EQ PUSH2 0x132 JUMPI DUP1 PUSH4 0x4D547ADA EQ PUSH2 0x150 JUMPI DUP1 PUSH4 0x5A9B0B89 EQ PUSH2 0x16E JUMPI DUP1 PUSH4 0x5E1C7322 EQ PUSH2 0x191 JUMPI PUSH2 0xE9 JUMP JUMPDEST DUP1 PUSH3 0x1AEA77 EQ PUSH2 0xEE JUMPI DUP1 PUSH4 0x231E407A EQ PUSH2 0x10C JUMPI DUP1 PUSH4 0x31C3A6F5 EQ PUSH2 0x116 JUMPI JUMPDEST PUSH1 0x0 DUP1 REVERT JUMPDEST PUSH2 0xF6 PUSH2 0x2A2 JUMP JUMPDEST PUSH1 0x40 MLOAD PUSH2 0x103 SWAP2 SWAP1 PUSH2 0xE2D JUMP JUMPDEST PUSH1 0x40 MLOAD DUP1 SWAP2 SUB SWAP1 RETURN JUMPDEST PUSH2 0x114 PUSH2 0x330 JUMP JUMPDEST STOP JUMPDEST PUSH2 0x130 PUSH1 0x4 DUP1 CALLDATASIZE SUB DUP2 ADD SWAP1 PUSH2 0x12B SWAP2 SWAP1 PUSH2 0xF98 JUMP JUMPDEST PUSH2 0x44C JUMP JUMPDEST STOP JUMPDEST PUSH2 0x13A PUSH2 0x4E6 JUMP JUMPDEST PUSH1 0x40 MLOAD PUSH2 0x147 SWAP2 SWAP1 PUSH2 0x1022 JUMP JUMPDEST PUSH1 0x40 MLOAD DUP1 SWAP2 SUB SWAP1 RETURN JUMPDEST PUSH2 0x158 PUSH2 0x50A JUMP JUMPDEST PUSH1 0x40 MLOAD PUSH2 0x165 SWAP2 SWAP1 PUSH2 0x1022 JUMP JUMPDEST PUSH1 0x40 MLOAD DUP1 SWAP2 SUB SWAP1 RETURN JUMPDEST PUSH2 0x176 PUSH2 0x530 JUMP JUMPDEST PUSH1 0x40 MLOAD PUSH2 0x188 SWAP7 SWAP6 SWAP5 SWAP4 SWAP3 SWAP2 SWAP1 PUSH2 0x1164 JUMP JUMPDEST PUSH1 0x40 MLOAD DUP1 SWAP2 SUB SWAP1 RETURN JUMPDEST PUSH2 0x199 PUSH2 0x793 JUMP JUMPDEST PUSH1 0x40 MLOAD PUSH2 0x1A6 SWAP2 SWAP1 PUSH2 0x11DA JUMP JUMPDEST PUSH1 0x40 MLOAD DUP1 SWAP2 SUB SWAP1 RETURN JUMPDEST PUSH2 0x1C9 PUSH1 0x4 DUP1 CALLDATASIZE SUB DUP2 ADD SWAP1 PUSH2 0x1C4 SWAP2 SWAP1 PUSH2 0x123A JUMP JUMPDEST PUSH2 0x86C JUMP JUMPDEST STOP JUMPDEST PUSH2 0x1E5 PUSH1 0x4 DUP1 CALLDATASIZE SUB DUP2 ADD SWAP1 PUSH2 0x1E0 SWAP2 SWAP1 PUSH2 0x129D JUMP JUMPDEST PUSH2 0x961 JUMP JUMPDEST PUSH1 0x40 MLOAD PUSH2 0x1F2 SWAP2 SWAP1 PUSH2 0xE2D JUMP JUMPDEST PUSH1 0x40 MLOAD DUP1 SWAP2 SUB SWAP1 RETURN JUMPDEST PUSH2 0x215 PUSH1 0x4 DUP1 CALLDATASIZE SUB DUP2 ADD SWAP1 PUSH2 0x210 SWAP2 SWAP1 PUSH2 0x123A JUMP JUMPDEST PUSH2 0xA0D JUMP JUMPDEST PUSH1 0x40 MLOAD PUSH2 0x223 SWAP3 SWAP2 SWAP1 PUSH2 0x12CA JUMP JUMPDEST PUSH1 0x40 MLOAD DUP1 SWAP2 SUB SWAP1 RETURN JUMPDEST PUSH2 0x234 PUSH2 0xAC6 JUMP JUMPDEST STOP JUMPDEST PUSH2 0x250 PUSH1 0x4 DUP1 CALLDATASIZE SUB DUP2 ADD SWAP1 PUSH2 0x24B SWAP2 SWAP1 PUSH2 0x129D JUMP JUMPDEST PUSH2 0xBA4 JUMP JUMPDEST PUSH1 0x40 MLOAD PUSH2 0x25D SWAP2 SWAP1 PUSH2 0xE2D JUMP JUMPDEST PUSH1 0x40 MLOAD DUP1 SWAP2 SUB SWAP1 RETURN JUMPDEST PUSH2 0x26E PUSH2 0xC50 JUMP JUMPDEST PUSH1 0x40 MLOAD PUSH2 0x27B SWAP2 SWAP1 PUSH2 0x12FA JUMP JUMPDEST PUSH1 0x40 MLOAD DUP1 SWAP2 SUB SWAP1 RETURN JUMPDEST PUSH2 0x28C PUSH2 0xC63 JUMP JUMPDEST PUSH1 0x40 MLOAD PUSH2 0x299 SWAP2 SWAP1 PUSH2 0xE2D JUMP JUMPDEST PUSH1 0x40 MLOAD DUP1 SWAP2 SUB SWAP1 RETURN JUMPDEST PUSH1 0x1 DUP1 SLOAD PUSH2 0x2AF SWAP1 PUSH2 0x1344 JUMP JUMPDEST DUP1 PUSH1 0x1F ADD PUSH1 0x20 DUP1 SWAP2 DIV MUL PUSH1 0x20 ADD PUSH1 0x40 MLOAD SWAP1 DUP2 ADD PUSH1 0x40 MSTORE DUP1 SWAP3 SWAP2 SWAP1 DUP2 DUP2 MSTORE PUSH1 0x20 ADD DUP3 DUP1 SLOAD PUSH2 0x2DB SWAP1 PUSH2 0x1344 JUMP JUMPDEST DUP1 ISZERO PUSH2 0x328 JUMPI DUP1 PUSH1 0x1F LT PUSH2 0x2FD JUMPI PUSH2 0x100 DUP1 DUP4 SLOAD DIV MUL DUP4 MSTORE SWAP2 PUSH1 0x20 ADD SWAP2 PUSH2 0x328 JUMP JUMPDEST DUP3 ADD SWAP2 SWAP1 PUSH1 0x0 MSTORE PUSH1 0x20 PUSH1 0x0 KECCAK256 SWAP1 JUMPDEST DUP2 SLOAD DUP2 MSTORE SWAP1 PUSH1 0x1 ADD SWAP1 PUSH1 0x20 ADD DUP1 DUP4 GT PUSH2 0x30B JUMPI DUP3 SWAP1 SUB PUSH1 0x1F AND DUP3 ADD SWAP2 JUMPDEST POP POP POP POP POP DUP2 JUMP JUMPDEST PUSH1 0x0 DUP1 SLOAD SWAP1 PUSH2 0x100 EXP SWAP1 DIV PUSH20 0xFFFFFFFFFFFFFFFFFFFFFFFFFFFFFFFFFFFFFFFF AND PUSH20 0xFFFFFFFFFFFFFFFFFFFFFFFFFFFFFFFFFFFFFFFF AND CALLER PUSH20 0xFFFFFFFFFFFFFFFFFFFFFFFFFFFFFFFFFFFFFFFF AND EQ PUSH2 0x388 JUMPI PUSH1 0x0 DUP1 REVERT JUMPDEST PUSH1 0x0 PUSH20 0xFFFFFFFFFFFFFFFFFFFFFFFFFFFFFFFFFFFFFFFF AND PUSH1 0x5 PUSH1 0x0 SWAP1 SLOAD SWAP1 PUSH2 0x100 EXP SWAP1 DIV PUSH20 0xFFFFFFFFFFFFFFFFFFFFFFFFFFFFFFFFFFFFFFFF AND PUSH20 0xFFFFFFFFFFFFFFFFFFFFFFFFFFFFFFFFFFFFFFFF AND EQ PUSH2 0x3E3 JUMPI PUSH1 0x0 DUP1 REVERT JUMPDEST PUSH1 0x0 DUP1 SLOAD SWAP1 PUSH2 0x100 EXP SWAP1 DIV PUSH20 0xFFFFFFFFFFFFFFFFFFFFFFFFFFFFFFFFFFFFFFFF AND PUSH20 0xFFFFFFFFFFFFFFFFFFFFFFFFFFFFFFFFFFFFFFFF AND PUSH2 0x8FC SELFBALANCE SWAP1 DUP2 ISZERO MUL SWAP1 PUSH1 0x40 MLOAD PUSH1 0x0 PUSH1 0x40 MLOAD DUP1 DUP4 SUB DUP2 DUP6 DUP9 DUP9 CALL SWAP4 POP POP POP POP ISZERO DUP1 ISZERO PUSH2 0x449 JUMPI RETURNDATASIZE PUSH1 0x0 DUP1 RETURNDATACOPY RETURNDATASIZE PUSH1 0x0 REVERT JUMPDEST POP JUMP JUMPDEST PUSH1 0x40 MLOAD DUP1 PUSH1 0x40 ADD PUSH1 0x40 MSTORE DUP1 DUP3 DUP2 MSTORE PUSH1 0x20 ADD PUSH1 0x1 ISZERO ISZERO DUP2 MSTORE POP PUSH1 0x6 PUSH1 0x0 CALLER PUSH20 0xFFFFFFFFFFFFFFFFFFFFFFFFFFFFFFFFFFFFFFFF AND PUSH20 0xFFFFFFFFFFFFFFFFFFFFFFFFFFFFFFFFFFFFFFFF AND DUP2 MSTORE PUSH1 0x20 ADD SWAP1 DUP2 MSTORE PUSH1 0x20 ADD PUSH1 0x0 KECCAK256 PUSH1 0x0 DUP3 ADD MLOAD DUP2 PUSH1 0x0 ADD SWAP1 DUP1 MLOAD SWAP1 PUSH1 0x20 ADD SWAP1 PUSH2 0x4BF SWAP3 SWAP2 SWAP1 PUSH2 0xCF1 JUMP JUMPDEST POP PUSH1 0x20 DUP3 ADD MLOAD DUP2 PUSH1 0x1 ADD PUSH1 0x0 PUSH2 0x100 EXP DUP2 SLOAD DUP2 PUSH1 0xFF MUL NOT AND SWAP1 DUP4 ISZERO ISZERO MUL OR SWAP1 SSTORE POP SWAP1 POP POP POP JUMP JUMPDEST PUSH1 0x0 DUP1 SLOAD SWAP1 PUSH2 0x100 EXP SWAP1 DIV PUSH20 0xFFFFFFFFFFFFFFFFFFFFFFFFFFFFFFFFFFFFFFFF AND DUP2 JUMP JUMPDEST PUSH1 0x5 PUSH1 0x0 SWAP1 SLOAD SWAP1 PUSH2 0x100 EXP SWAP1 DIV PUSH20 0xFFFFFFFFFFFFFFFFFFFFFFFFFFFFFFFFFFFFFFFF AND DUP2 JUMP JUMPDEST PUSH1 0x0 PUSH1 0x60 DUP1 PUSH1 0x60 PUSH1 0x0 DUP1 PUSH1 0x0 DUP1 SLOAD SWAP1 PUSH2 0x100 EXP SWAP1 DIV PUSH20 0xFFFFFFFFFFFFFFFFFFFFFFFFFFFFFFFFFFFFFFFF AND PUSH1 0x1 PUSH1 0x2 PUSH1 0x3 PUSH1 0x5 PUSH1 0x0 SWAP1 SLOAD SWAP1 PUSH2 0x100 EXP SWAP1 DIV PUSH20 0xFFFFFFFFFFFFFFFFFFFFFFFFFFFFFFFFFFFFFFFF AND PUSH1 0x5 PUSH1 0x14 SWAP1 SLOAD SWAP1 PUSH2 0x100 EXP SWAP1 DIV PUSH1 0xFF AND DUP5 DUP1 SLOAD PUSH2 0x5A0 SWAP1 PUSH2 0x1344 JUMP JUMPDEST DUP1 PUSH1 0x1F ADD PUSH1 0x20 DUP1 SWAP2 DIV MUL PUSH1 0x20 ADD PUSH1 0x40 MLOAD SWAP1 DUP2 ADD PUSH1 0x40 MSTORE DUP1 SWAP3 SWAP2 SWAP1 DUP2 DUP2 MSTORE PUSH1 0x20 ADD DUP3 DUP1 SLOAD PUSH2 0x5CC SWAP1 PUSH2 0x1344 JUMP JUMPDEST DUP1 ISZERO PUSH2 0x619 JUMPI DUP1 PUSH1 0x1F LT PUSH2 0x5EE JUMPI PUSH2 0x100 DUP1 DUP4 SLOAD DIV MUL DUP4 MSTORE SWAP2 PUSH1 0x20 ADD SWAP2 PUSH2 0x619 JUMP JUMPDEST DUP3 ADD SWAP2 SWAP1 PUSH1 0x0 MSTORE PUSH1 0x20 PUSH1 0x0 KECCAK256 SWAP1 JUMPDEST DUP2 SLOAD DUP2 MSTORE SWAP1 PUSH1 0x1 ADD SWAP1 PUSH1 0x20 ADD DUP1 DUP4 GT PUSH2 0x5FC JUMPI DUP3 SWAP1 SUB PUSH1 0x1F AND DUP3 ADD SWAP2 JUMPDEST POP POP POP POP POP SWAP5 POP DUP4 DUP1 SLOAD DUP1 PUSH1 0x20 MUL PUSH1 0x20 ADD PUSH1 0x40 MLOAD SWAP1 DUP2 ADD PUSH1 0x40 MSTORE DUP1 SWAP3 SWAP2 SWAP1 DUP2 DUP2 MSTORE PUSH1 0x20 ADD PUSH1 0x0 SWAP1 JUMPDEST DUP3 DUP3 LT ISZERO PUSH2 0x6ED JUMPI DUP4 DUP3 SWAP1 PUSH1 0x0 MSTORE PUSH1 0x20 PUSH1 0x0 KECCAK256 ADD DUP1 SLOAD PUSH2 0x660 SWAP1 PUSH2 0x1344 JUMP JUMPDEST DUP1 PUSH1 0x1F ADD PUSH1 0x20 DUP1 SWAP2 DIV MUL PUSH1 0x20 ADD PUSH1 0x40 MLOAD SWAP1 DUP2 ADD PUSH1 0x40 MSTORE DUP1 SWAP3 SWAP2 SWAP1 DUP2 DUP2 MSTORE PUSH1 0x20 ADD DUP3 DUP1 SLOAD PUSH2 0x68C SWAP1 PUSH2 0x1344 JUMP JUMPDEST DUP1 ISZERO PUSH2 0x6D9 JUMPI DUP1 PUSH1 0x1F LT PUSH2 0x6AE JUMPI PUSH2 0x100 DUP1 DUP4 SLOAD DIV MUL DUP4 MSTORE SWAP2 PUSH1 0x20 ADD SWAP2 PUSH2 0x6D9 JUMP JUMPDEST DUP3 ADD SWAP2 SWAP1 PUSH1 0x0 MSTORE PUSH1 0x20 PUSH1 0x0 KECCAK256 SWAP1 JUMPDEST DUP2 SLOAD DUP2 MSTORE SWAP1 PUSH1 0x1 ADD SWAP1 PUSH1 0x20 ADD DUP1 DUP4 GT PUSH2 0x6BC JUMPI DUP3 SWAP1 SUB PUSH1 0x1F AND DUP3 ADD SWAP2 JUMPDEST POP POP POP POP POP DUP2 MSTORE PUSH1 0x20 ADD SWAP1 PUSH1 0x1 ADD SWAP1 PUSH2 0x641 JUMP JUMPDEST POP POP POP POP SWAP4 POP DUP3 DUP1 SLOAD PUSH2 0x6FF SWAP1 PUSH2 0x1344 JUMP JUMPDEST DUP1 PUSH1 0x1F ADD PUSH1 0x20 DUP1 SWAP2 DIV MUL PUSH1 0x20 ADD PUSH1 0x40 MLOAD SWAP1 DUP2 ADD PUSH1 0x40 MSTORE DUP1 SWAP3 SWAP2 SWAP1 DUP2 DUP2 MSTORE PUSH1 0x20 ADD DUP3 DUP1 SLOAD PUSH2 0x72B SWAP1 PUSH2 0x1344 JUMP JUMPDEST DUP1 ISZERO PUSH2 0x778 JUMPI DUP1 PUSH1 0x1F LT PUSH2 0x74D JUMPI PUSH2 0x100 DUP1 DUP4 SLOAD DIV MUL DUP4 MSTORE SWAP2 PUSH1 0x20 ADD SWAP2 PUSH2 0x778 JUMP JUMPDEST DUP3 ADD SWAP2 SWAP1 PUSH1 0x0 MSTORE PUSH1 0x20 PUSH1 0x0 KECCAK256 SWAP1 JUMPDEST DUP2 SLOAD DUP2 MSTORE SWAP1 PUSH1 0x1 ADD SWAP1 PUSH1 0x20 ADD DUP1 DUP4 GT PUSH2 0x75B JUMPI DUP3 SWAP1 SUB PUSH1 0x1F AND DUP3 ADD SWAP2 JUMPDEST POP POP POP POP POP SWAP3 POP SWAP6 POP SWAP6 POP SWAP6 POP SWAP6 POP SWAP6 POP SWAP6 POP SWAP1 SWAP2 SWAP3 SWAP4 SWAP5 SWAP6 JUMP JUMPDEST PUSH1 0x60 PUSH1 0x4 DUP1 SLOAD DUP1 PUSH1 0x20 MUL PUSH1 0x20 ADD PUSH1 0x40 MLOAD SWAP1 DUP2 ADD PUSH1 0x40 MSTORE DUP1 SWAP3 SWAP2 SWAP1 DUP2 DUP2 MSTORE PUSH1 0x20 ADD PUSH1 0x0 SWAP1 JUMPDEST DUP3 DUP3 LT ISZERO PUSH2 0x863 JUMPI DUP4 DUP3 SWAP1 PUSH1 0x0 MSTORE PUSH1 0x20 PUSH1 0x0 KECCAK256 ADD DUP1 SLOAD PUSH2 0x7D6 SWAP1 PUSH2 0x1344 JUMP JUMPDEST DUP1 PUSH1 0x1F ADD PUSH1 0x20 DUP1 SWAP2 DIV MUL PUSH1 0x20 ADD PUSH1 0x40 MLOAD SWAP1 DUP2 ADD PUSH1 0x40 MSTORE DUP1 SWAP3 SWAP2 SWAP1 DUP2 DUP2 MSTORE PUSH1 0x20 ADD DUP3 DUP1 SLOAD PUSH2 0x802 SWAP1 PUSH2 0x1344 JUMP JUMPDEST DUP1 ISZERO PUSH2 0x84F JUMPI DUP1 PUSH1 0x1F LT PUSH2 0x824 JUMPI PUSH2 0x100 DUP1 DUP4 SLOAD DIV MUL DUP4 MSTORE SWAP2 PUSH1 0x20 ADD SWAP2 PUSH2 0x84F JUMP JUMPDEST DUP3 ADD SWAP2 SWAP1 PUSH1 0x0 MSTORE PUSH1 0x20 PUSH1 0x0 KECCAK256 SWAP1 JUMPDEST DUP2 SLOAD DUP2 MSTORE SWAP1 PUSH1 0x1 ADD SWAP1 PUSH1 0x20 ADD DUP1 DUP4 GT PUSH2 0x832 JUMPI DUP3 SWAP1 SUB PUSH1 0x1F AND DUP3 ADD SWAP2 JUMPDEST POP POP POP POP POP DUP2 MSTORE PUSH1 0x20 ADD SWAP1 PUSH1 0x1 ADD SWAP1 PUSH2 0x7B7 JUMP JUMPDEST POP POP POP POP SWAP1 POP SWAP1 JUMP JUMPDEST PUSH1 0x0 DUP1 SLOAD SWAP1 PUSH2 0x100 EXP SWAP1 DIV PUSH20 0xFFFFFFFFFFFFFFFFFFFFFFFFFFFFFFFFFFFFFFFF AND PUSH20 0xFFFFFFFFFFFFFFFFFFFFFFFFFFFFFFFFFFFFFFFF AND CALLER PUSH20 0xFFFFFFFFFFFFFFFFFFFFFFFFFFFFFFFFFFFFFFFF AND EQ PUSH2 0x8C4 JUMPI PUSH1 0x0 DUP1 REVERT JUMPDEST PUSH1 0x6 PUSH1 0x0 DUP3 PUSH20 0xFFFFFFFFFFFFFFFFFFFFFFFFFFFFFFFFFFFFFFFF AND PUSH20 0xFFFFFFFFFFFFFFFFFFFFFFFFFFFFFFFFFFFFFFFF AND DUP2 MSTORE PUSH1 0x20 ADD SWAP1 DUP2 MSTORE PUSH1 0x20 ADD PUSH1 0x0 KECCAK256 PUSH1 0x1 ADD PUSH1 0x0 SWAP1 SLOAD SWAP1 PUSH2 0x100 EXP SWAP1 DIV PUSH1 0xFF AND PUSH2 0x91D JUMPI PUSH1 0x0 DUP1 REVERT JUMPDEST DUP1 PUSH1 0x5 PUSH1 0x0 PUSH2 0x100 EXP DUP2 SLOAD DUP2 PUSH20 0xFFFFFFFFFFFFFFFFFFFFFFFFFFFFFFFFFFFFFFFF MUL NOT AND SWAP1 DUP4 PUSH20 0xFFFFFFFFFFFFFFFFFFFFFFFFFFFFFFFFFFFFFFFF AND MUL OR SWAP1 SSTORE POP POP JUMP JUMPDEST PUSH1 0x2 DUP2 DUP2 SLOAD DUP2 LT PUSH2 0x971 JUMPI PUSH1 0x0 DUP1 REVERT JUMPDEST SWAP1 PUSH1 0x0 MSTORE PUSH1 0x20 PUSH1 0x0 KECCAK256 ADD PUSH1 0x0 SWAP2 POP SWAP1 POP DUP1 SLOAD PUSH2 0x98C SWAP1 PUSH2 0x1344 JUMP JUMPDEST DUP1 PUSH1 0x1F ADD PUSH1 0x20 DUP1 SWAP2 DIV MUL PUSH1 0x20 ADD PUSH1 0x40 MLOAD SWAP1 DUP2 ADD PUSH1 0x40 MSTORE DUP1 SWAP3 SWAP2 SWAP1 DUP2 DUP2 MSTORE PUSH1 0x20 ADD DUP3 DUP1 SLOAD PUSH2 0x9B8 SWAP1 PUSH2 0x1344 JUMP JUMPDEST DUP1 ISZERO PUSH2 0xA05 JUMPI DUP1 PUSH1 0x1F LT PUSH2 0x9DA JUMPI PUSH2 0x100 DUP1 DUP4 SLOAD DIV MUL DUP4 MSTORE SWAP2 PUSH1 0x20 ADD SWAP2 PUSH2 0xA05 JUMP JUMPDEST DUP3 ADD SWAP2 SWAP1 PUSH1 0x0 MSTORE PUSH1 0x20 PUSH1 0x0 KECCAK256 SWAP1 JUMPDEST DUP2 SLOAD DUP2 MSTORE SWAP1 PUSH1 0x1 ADD SWAP1 PUSH1 0x20 ADD DUP1 DUP4 GT PUSH2 0x9E8 JUMPI DUP3 SWAP1 SUB PUSH1 0x1F AND DUP3 ADD SWAP2 JUMPDEST POP POP POP POP POP DUP2 JUMP JUMPDEST PUSH1 0x6 PUSH1 0x20 MSTORE DUP1 PUSH1 0x0 MSTORE PUSH1 0x40 PUSH1 0x0 KECCAK256 PUSH1 0x0 SWAP2 POP SWAP1 POP DUP1 PUSH1 0x0 ADD DUP1 SLOAD PUSH2 0xA30 SWAP1 PUSH2 0x1344 JUMP JUMPDEST DUP1 PUSH1 0x1F ADD PUSH1 0x20 DUP1 SWAP2 DIV MUL PUSH1 0x20 ADD PUSH1 0x40 MLOAD SWAP1 DUP2 ADD PUSH1 0x40 MSTORE DUP1 SWAP3 SWAP2 SWAP1 DUP2 DUP2 MSTORE PUSH1 0x20 ADD DUP3 DUP1 SLOAD PUSH2 0xA5C SWAP1 PUSH2 0x1344 JUMP JUMPDEST DUP1 ISZERO PUSH2 0xAA9 JUMPI DUP1 PUSH1 0x1F LT PUSH2 0xA7E JUMPI PUSH2 0x100 DUP1 DUP4 SLOAD DIV MUL DUP4 MSTORE SWAP2 PUSH1 0x20 ADD SWAP2 PUSH2 0xAA9 JUMP JUMPDEST DUP3 ADD SWAP2 SWAP1 PUSH1 0x0 MSTORE PUSH1 0x20 PUSH1 0x0 KECCAK256 SWAP1 JUMPDEST DUP2 SLOAD DUP2 MSTORE SWAP1 PUSH1 0x1 ADD SWAP1 PUSH1 0x20 ADD DUP1 DUP4 GT PUSH2 0xA8C JUMPI DUP3 SWAP1 SUB PUSH1 0x1F AND DUP3 ADD SWAP2 JUMPDEST POP POP POP POP POP SWAP1 DUP1 PUSH1 0x1 ADD PUSH1 0x0 SWAP1 SLOAD SWAP1 PUSH2 0x100 EXP SWAP1 DIV PUSH1 0xFF AND SWAP1 POP DUP3 JUMP JUMPDEST PUSH1 0x0 DUP1 SLOAD SWAP1 PUSH2 0x100 EXP SWAP1 DIV PUSH20 0xFFFFFFFFFFFFFFFFFFFFFFFFFFFFFFFFFFFFFFFF AND PUSH20 0xFFFFFFFFFFFFFFFFFFFFFFFFFFFFFFFFFFFFFFFF AND CALLER PUSH20 0xFFFFFFFFFFFFFFFFFFFFFFFFFFFFFFFFFFFFFFFF AND EQ PUSH2 0xB1E JUMPI PUSH1 0x0 DUP1 REVERT JUMPDEST PUSH1 0x5 PUSH1 0x0 SWAP1 SLOAD SWAP1 PUSH2 0x100 EXP SWAP1 DIV PUSH20 0xFFFFFFFFFFFFFFFFFFFFFFFFFFFFFFFFFFFFFFFF AND PUSH20 0xFFFFFFFFFFFFFFFFFFFFFFFFFFFFFFFFFFFFFFFF AND PUSH2 0x8FC SELFBALANCE SWAP1 DUP2 ISZERO MUL SWAP1 PUSH1 0x40 MLOAD PUSH1 0x0 PUSH1 0x40 MLOAD DUP1 DUP4 SUB DUP2 DUP6 DUP9 DUP9 CALL SWAP4 POP POP POP POP ISZERO DUP1 ISZERO PUSH2 0xB86 JUMPI RETURNDATASIZE PUSH1 0x0 DUP1 RETURNDATACOPY RETURNDATASIZE PUSH1 0x0 REVERT JUMPDEST POP PUSH1 0x1 PUSH1 0x5 PUSH1 0x14 PUSH2 0x100 EXP DUP2 SLOAD DUP2 PUSH1 0xFF MUL NOT AND SWAP1 DUP4 ISZERO ISZERO MUL OR SWAP1 SSTORE POP JUMP JUMPDEST PUSH1 0x4 DUP2 DUP2 SLOAD DUP2 LT PUSH2 0xBB4 JUMPI PUSH1 0x0 DUP1 REVERT JUMPDEST SWAP1 PUSH1 0x0 MSTORE PUSH1 0x20 PUSH1 0x0 KECCAK256 ADD PUSH1 0x0 SWAP2 POP SWAP1 POP DUP1 SLOAD PUSH2 0xBCF SWAP1 PUSH2 0x1344 JUMP JUMPDEST DUP1 PUSH1 0x1F ADD PUSH1 0x20 DUP1 SWAP2 DIV MUL PUSH1 0x20 ADD PUSH1 0x40 MLOAD SWAP1 DUP2 ADD PUSH1 0x40 MSTORE DUP1 SWAP3 SWAP2 SWAP1 DUP2 DUP2 MSTORE PUSH1 0x20 ADD DUP3 DUP1 SLOAD PUSH2 0xBFB SWAP1 PUSH2 0x1344 JUMP JUMPDEST DUP1 ISZERO PUSH2 0xC48 JUMPI DUP1 PUSH1 0x1F LT PUSH2 0xC1D JUMPI PUSH2 0x100 DUP1 DUP4 SLOAD DIV MUL DUP4 MSTORE SWAP2 PUSH1 0x20 ADD SWAP2 PUSH2 0xC48 JUMP JUMPDEST DUP3 ADD SWAP2 SWAP1 PUSH1 0x0 MSTORE PUSH1 0x20 PUSH1 0x0 KECCAK256 SWAP1 JUMPDEST DUP2 SLOAD DUP2 MSTORE SWAP1 PUSH1 0x1 ADD SWAP1 PUSH1 0x20 ADD DUP1 DUP4 GT PUSH2 0xC2B JUMPI DUP3 SWAP1 SUB PUSH1 0x1F AND DUP3 ADD SWAP2 JUMPDEST POP POP POP POP POP DUP2 JUMP JUMPDEST PUSH1 0x5 PUSH1 0x14 SWAP1 SLOAD SWAP1 PUSH2 0x100 EXP SWAP1 DIV PUSH1 0xFF AND DUP2 JUMP JUMPDEST PUSH1 0x3 DUP1 SLOAD PUSH2 0xC70 SWAP1 PUSH2 0x1344 JUMP JUMPDEST DUP1 PUSH1 0x1F ADD PUSH1 0x20 DUP1 SWAP2 DIV MUL PUSH1 0x20 ADD PUSH1 0x40 MLOAD SWAP1 DUP2 ADD PUSH1 0x40 MSTORE DUP1 SWAP3 SWAP2 SWAP1 DUP2 DUP2 MSTORE PUSH1 0x20 ADD DUP3 DUP1 SLOAD PUSH2 0xC9C SWAP1 PUSH2 0x1344 JUMP JUMPDEST DUP1 ISZERO PUSH2 0xCE9 JUMPI DUP1 PUSH1 0x1F LT PUSH2 0xCBE JUMPI PUSH2 0x100 DUP1 DUP4 SLOAD DIV MUL DUP4 MSTORE SWAP2 PUSH1 0x20 ADD SWAP2 PUSH2 0xCE9 JUMP JUMPDEST DUP3 ADD SWAP2 SWAP1 PUSH1 0x0 MSTORE PUSH1 0x20 PUSH1 0x0 KECCAK256 SWAP1 JUMPDEST DUP2 SLOAD DUP2 MSTORE SWAP1 PUSH1 0x1 ADD SWAP1 PUSH1 0x20 ADD DUP1 DUP4 GT PUSH2 0xCCC JUMPI DUP3 SWAP1 SUB PUSH1 0x1F AND DUP3 ADD SWAP2 JUMPDEST POP POP POP POP POP DUP2 JUMP JUMPDEST DUP3 DUP1 SLOAD PUSH2 0xCFD SWAP1 PUSH2 0x1344 JUMP JUMPDEST SWAP1 PUSH1 0x0 MSTORE PUSH1 0x20 PUSH1 0x0 KECCAK256 SWAP1 PUSH1 0x1F ADD PUSH1 0x20 SWAP1 DIV DUP2 ADD SWAP3 DUP3 PUSH2 0xD1F JUMPI PUSH1 0x0 DUP6 SSTORE PUSH2 0xD66 JUMP JUMPDEST DUP3 PUSH1 0x1F LT PUSH2 0xD38 JUMPI DUP1 MLOAD PUSH1 0xFF NOT AND DUP4 DUP1 ADD OR DUP6 SSTORE PUSH2 0xD66 JUMP JUMPDEST DUP3 DUP1 ADD PUSH1 0x1 ADD DUP6 SSTORE DUP3 ISZERO PUSH2 0xD66 JUMPI SWAP2 DUP3 ADD JUMPDEST DUP3 DUP2 GT ISZERO PUSH2 0xD65 JUMPI DUP3 MLOAD DUP3 SSTORE SWAP2 PUSH1 0x20 ADD SWAP2 SWAP1 PUSH1 0x1 ADD SWAP1 PUSH2 0xD4A JUMP JUMPDEST JUMPDEST POP SWAP1 POP PUSH2 0xD73 SWAP2 SWAP1 PUSH2 0xD77 JUMP JUMPDEST POP SWAP1 JUMP JUMPDEST JUMPDEST DUP1 DUP3 GT ISZERO PUSH2 0xD90 JUMPI PUSH1 0x0 DUP2 PUSH1 0x0 SWAP1 SSTORE POP PUSH1 0x1 ADD PUSH2 0xD78 JUMP JUMPDEST POP SWAP1 JUMP JUMPDEST PUSH1 0x0 DUP2 MLOAD SWAP1 POP SWAP2 SWAP1 POP JUMP JUMPDEST PUSH1 0x0 DUP3 DUP3 MSTORE PUSH1 0x20 DUP3 ADD SWAP1 POP SWAP3 SWAP2 POP POP JUMP JUMPDEST PUSH1 0x0 JUMPDEST DUP4 DUP2 LT ISZERO PUSH2 0xDCE JUMPI DUP1 DUP3 ADD MLOAD DUP2 DUP5 ADD MSTORE PUSH1 0x20 DUP2 ADD SWAP1 POP PUSH2 0xDB3 JUMP JUMPDEST DUP4 DUP2 GT ISZERO PUSH2 0xDDD JUMPI PUSH1 0x0 DUP5 DUP5 ADD MSTORE JUMPDEST POP POP POP POP JUMP JUMPDEST PUSH1 0x0 PUSH1 0x1F NOT PUSH1 0x1F DUP4 ADD AND SWAP1 POP SWAP2 SWAP1 POP JUMP JUMPDEST PUSH1 0x0 PUSH2 0xDFF DUP3 PUSH2 0xD94 JUMP JUMPDEST PUSH2 0xE09 DUP2 DUP6 PUSH2 0xD9F JUMP JUMPDEST SWAP4 POP PUSH2 0xE19 DUP2 DUP6 PUSH1 0x20 DUP7 ADD PUSH2 0xDB0 JUMP JUMPDEST PUSH2 0xE22 DUP2 PUSH2 0xDE3 JUMP JUMPDEST DUP5 ADD SWAP2 POP POP SWAP3 SWAP2 POP POP JUMP JUMPDEST PUSH1 0x0 PUSH1 0x20 DUP3 ADD SWAP1 POP DUP2 DUP2 SUB PUSH1 0x0 DUP4 ADD MSTORE PUSH2 0xE47 DUP2 DUP5 PUSH2 0xDF4 JUMP JUMPDEST SWAP1 POP SWAP3 SWAP2 POP POP JUMP JUMPDEST PUSH1 0x0 PUSH1 0x40 MLOAD SWAP1 POP SWAP1 JUMP JUMPDEST PUSH1 0x0 DUP1 REVERT JUMPDEST PUSH1 0x0 DUP1 REVERT JUMPDEST PUSH1 0x0 DUP1 REVERT JUMPDEST PUSH1 0x0 DUP1 REVERT JUMPDEST PUSH32 0x4E487B7100000000000000000000000000000000000000000000000000000000 PUSH1 0x0 MSTORE PUSH1 0x41 PUSH1 0x4 MSTORE PUSH1 0x24 PUSH1 0x0 REVERT JUMPDEST PUSH2 0xEA5 DUP3 PUSH2 0xDE3 JUMP JUMPDEST DUP2 ADD DUP2 DUP2 LT PUSH8 0xFFFFFFFFFFFFFFFF DUP3 GT OR ISZERO PUSH2 0xEC4 JUMPI PUSH2 0xEC3 PUSH2 0xE6D JUMP JUMPDEST JUMPDEST DUP1 PUSH1 0x40 MSTORE POP POP POP JUMP JUMPDEST PUSH1 0x0 PUSH2 0xED7 PUSH2 0xE4F JUMP JUMPDEST SWAP1 POP PUSH2 0xEE3 DUP3 DUP3 PUSH2 0xE9C JUMP JUMPDEST SWAP2 SWAP1 POP JUMP JUMPDEST PUSH1 0x0 PUSH8 0xFFFFFFFFFFFFFFFF DUP3 GT ISZERO PUSH2 0xF03 JUMPI PUSH2 0xF02 PUSH2 0xE6D JUMP JUMPDEST JUMPDEST PUSH2 0xF0C DUP3 PUSH2 0xDE3 JUMP JUMPDEST SWAP1 POP PUSH1 0x20 DUP2 ADD SWAP1 POP SWAP2 SWAP1 POP JUMP JUMPDEST DUP3 DUP2 DUP4 CALLDATACOPY PUSH1 0x0 DUP4 DUP4 ADD MSTORE POP POP POP JUMP JUMPDEST PUSH1 0x0 PUSH2 0xF3B PUSH2 0xF36 DUP5 PUSH2 0xEE8 JUMP JUMPDEST PUSH2 0xECD JUMP JUMPDEST SWAP1 POP DUP3 DUP2 MSTORE PUSH1 0x20 DUP2 ADD DUP5 DUP5 DUP5 ADD GT ISZERO PUSH2 0xF57 JUMPI PUSH2 0xF56 PUSH2 0xE68 JUMP JUMPDEST JUMPDEST PUSH2 0xF62 DUP5 DUP3 DUP6 PUSH2 0xF19 JUMP JUMPDEST POP SWAP4 SWAP3 POP POP POP JUMP JUMPDEST PUSH1 0x0 DUP3 PUSH1 0x1F DUP4 ADD SLT PUSH2 0xF7F JUMPI PUSH2 0xF7E PUSH2 0xE63 JUMP JUMPDEST JUMPDEST DUP2 CALLDATALOAD PUSH2 0xF8F DUP5 DUP3 PUSH1 0x20 DUP7 ADD PUSH2 0xF28 JUMP JUMPDEST SWAP2 POP POP SWAP3 SWAP2 POP POP JUMP JUMPDEST PUSH1 0x0 PUSH1 0x20 DUP3 DUP5 SUB SLT ISZERO PUSH2 0xFAE JUMPI PUSH2 0xFAD PUSH2 0xE59 JUMP JUMPDEST JUMPDEST PUSH1 0x0 DUP3 ADD CALLDATALOAD PUSH8 0xFFFFFFFFFFFFFFFF DUP2 GT ISZERO PUSH2 0xFCC JUMPI PUSH2 0xFCB PUSH2 0xE5E JUMP JUMPDEST JUMPDEST PUSH2 0xFD8 DUP5 DUP3 DUP6 ADD PUSH2 0xF6A JUMP JUMPDEST SWAP2 POP POP SWAP3 SWAP2 POP POP JUMP JUMPDEST PUSH1 0x0 PUSH20 0xFFFFFFFFFFFFFFFFFFFFFFFFFFFFFFFFFFFFFFFF DUP3 AND SWAP1 POP SWAP2 SWAP1 POP JUMP JUMPDEST PUSH1 0x0 PUSH2 0x100C DUP3 PUSH2 0xFE1 JUMP JUMPDEST SWAP1 POP SWAP2 SWAP1 POP JUMP JUMPDEST PUSH2 0x101C DUP2 PUSH2 0x1001 JUMP JUMPDEST DUP3 MSTORE POP POP JUMP JUMPDEST PUSH1 0x0 PUSH1 0x20 DUP3 ADD SWAP1 POP PUSH2 0x1037 PUSH1 0x0 DUP4 ADD DUP5 PUSH2 0x1013 JUMP JUMPDEST SWAP3 SWAP2 POP POP JUMP JUMPDEST PUSH1 0x0 DUP2 MLOAD SWAP1 POP SWAP2 SWAP1 POP JUMP JUMPDEST PUSH1 0x0 DUP3 DUP3 MSTORE PUSH1 0x20 DUP3 ADD SWAP1 POP SWAP3 SWAP2 POP POP JUMP JUMPDEST PUSH1 0x0 DUP2 SWAP1 POP PUSH1 0x20 DUP3 ADD SWAP1 POP SWAP2 SWAP1 POP JUMP JUMPDEST PUSH1 0x0 DUP3 DUP3 MSTORE PUSH1 0x20 DUP3 ADD SWAP1 POP SWAP3 SWAP2 POP POP JUMP JUMPDEST PUSH1 0x0 PUSH2 0x1085 DUP3 PUSH2 0xD94 JUMP JUMPDEST PUSH2 0x108F DUP2 DUP6 PUSH2 0x1069 JUMP JUMPDEST SWAP4 POP PUSH2 0x109F DUP2 DUP6 PUSH1 0x20 DUP7 ADD PUSH2 0xDB0 JUMP JUMPDEST PUSH2 0x10A8 DUP2 PUSH2 0xDE3 JUMP JUMPDEST DUP5 ADD SWAP2 POP POP SWAP3 SWAP2 POP POP JUMP JUMPDEST PUSH1 0x0 PUSH2 0x10BF DUP4 DUP4 PUSH2 0x107A JUMP JUMPDEST SWAP1 POP SWAP3 SWAP2 POP POP JUMP JUMPDEST PUSH1 0x0 PUSH1 0x20 DUP3 ADD SWAP1 POP SWAP2 SWAP1 POP JUMP JUMPDEST PUSH1 0x0 PUSH2 0x10DF DUP3 PUSH2 0x103D JUMP JUMPDEST PUSH2 0x10E9 DUP2 DUP6 PUSH2 0x1048 JUMP JUMPDEST SWAP4 POP DUP4 PUSH1 0x20 DUP3 MUL DUP6 ADD PUSH2 0x10FB DUP6 PUSH2 0x1059 JUMP JUMPDEST DUP1 PUSH1 0x0 JUMPDEST DUP6 DUP2 LT ISZERO PUSH2 0x1137 JUMPI DUP5 DUP5 SUB DUP10 MSTORE DUP2 MLOAD PUSH2 0x1118 DUP6 DUP3 PUSH2 0x10B3 JUMP JUMPDEST SWAP5 POP PUSH2 0x1123 DUP4 PUSH2 0x10C7 JUMP JUMPDEST SWAP3 POP PUSH1 0x20 DUP11 ADD SWAP10 POP POP PUSH1 0x1 DUP2 ADD SWAP1 POP PUSH2 0x10FF JUMP JUMPDEST POP DUP3 SWAP8 POP DUP8 SWAP6 POP POP POP POP POP POP SWAP3 SWAP2 POP POP JUMP JUMPDEST PUSH1 0x0 DUP2 ISZERO ISZERO SWAP1 POP SWAP2 SWAP1 POP JUMP JUMPDEST PUSH2 0x115E DUP2 PUSH2 0x1149 JUMP JUMPDEST DUP3 MSTORE POP POP JUMP JUMPDEST PUSH1 0x0 PUSH1 0xC0 DUP3 ADD SWAP1 POP PUSH2 0x1179 PUSH1 0x0 DUP4 ADD DUP10 PUSH2 0x1013 JUMP JUMPDEST DUP2 DUP2 SUB PUSH1 0x20 DUP4 ADD MSTORE PUSH2 0x118B DUP2 DUP9 PUSH2 0xDF4 JUMP JUMPDEST SWAP1 POP DUP2 DUP2 SUB PUSH1 0x40 DUP4 ADD MSTORE PUSH2 0x119F DUP2 DUP8 PUSH2 0x10D4 JUMP JUMPDEST SWAP1 POP DUP2 DUP2 SUB PUSH1 0x60 DUP4 ADD MSTORE PUSH2 0x11B3 DUP2 DUP7 PUSH2 0xDF4 JUMP JUMPDEST SWAP1 POP PUSH2 0x11C2 PUSH1 0x80 DUP4 ADD DUP6 PUSH2 0x1013 JUMP JUMPDEST PUSH2 0x11CF PUSH1 0xA0 DUP4 ADD DUP5 PUSH2 0x1155 JUMP JUMPDEST SWAP8 SWAP7 POP POP POP POP POP POP POP JUMP JUMPDEST PUSH1 0x0 PUSH1 0x20 DUP3 ADD SWAP1 POP DUP2 DUP2 SUB PUSH1 0x0 DUP4 ADD MSTORE PUSH2 0x11F4 DUP2 DUP5 PUSH2 0x10D4 JUMP JUMPDEST SWAP1 POP SWAP3 SWAP2 POP POP JUMP JUMPDEST PUSH1 0x0 PUSH2 0x1207 DUP3 PUSH2 0xFE1 JUMP JUMPDEST SWAP1 POP SWAP2 SWAP1 POP JUMP JUMPDEST PUSH2 0x1217 DUP2 PUSH2 0x11FC JUMP JUMPDEST DUP2 EQ PUSH2 0x1222 JUMPI PUSH1 0x0 DUP1 REVERT JUMPDEST POP JUMP JUMPDEST PUSH1 0x0 DUP2 CALLDATALOAD SWAP1 POP PUSH2 0x1234 DUP2 PUSH2 0x120E JUMP JUMPDEST SWAP3 SWAP2 POP POP JUMP JUMPDEST PUSH1 0x0 PUSH1 0x20 DUP3 DUP5 SUB SLT ISZERO PUSH2 0x1250 JUMPI PUSH2 0x124F PUSH2 0xE59 JUMP JUMPDEST JUMPDEST PUSH1 0x0 PUSH2 0x125E DUP5 DUP3 DUP6 ADD PUSH2 0x1225 JUMP JUMPDEST SWAP2 POP POP SWAP3 SWAP2 POP POP JUMP JUMPDEST PUSH1 0x0 DUP2 SWAP1 POP SWAP2 SWAP1 POP JUMP JUMPDEST PUSH2 0x127A DUP2 PUSH2 0x1267 JUMP JUMPDEST DUP2 EQ PUSH2 0x1285 JUMPI PUSH1 0x0 DUP1 REVERT JUMPDEST POP JUMP JUMPDEST PUSH1 0x0 DUP2 CALLDATALOAD SWAP1 POP PUSH2 0x1297 DUP2 PUSH2 0x1271 JUMP JUMPDEST SWAP3 SWAP2 POP POP JUMP JUMPDEST PUSH1 0x0 PUSH1 0x20 DUP3 DUP5 SUB SLT ISZERO PUSH2 0x12B3 JUMPI PUSH2 0x12B2 PUSH2 0xE59 JUMP JUMPDEST JUMPDEST PUSH1 0x0 PUSH2 0x12C1 DUP5 DUP3 DUP6 ADD PUSH2 0x1288 JUMP JUMPDEST SWAP2 POP POP SWAP3 SWAP2 POP POP JUMP JUMPDEST PUSH1 0x0 PUSH1 0x40 DUP3 ADD SWAP1 POP DUP2 DUP2 SUB PUSH1 0x0 DUP4 ADD MSTORE PUSH2 0x12E4 DUP2 DUP6 PUSH2 0xDF4 JUMP JUMPDEST SWAP1 POP PUSH2 0x12F3 PUSH1 0x20 DUP4 ADD DUP5 PUSH2 0x1155 JUMP JUMPDEST SWAP4 SWAP3 POP POP POP JUMP JUMPDEST PUSH1 0x0 PUSH1 0x20 DUP3 ADD SWAP1 POP PUSH2 0x130F PUSH1 0x0 DUP4 ADD DUP5 PUSH2 0x1155 JUMP JUMPDEST SWAP3 SWAP2 POP POP JUMP JUMPDEST PUSH32 0x4E487B7100000000000000000000000000000000000000000000000000000000 PUSH1 0x0 MSTORE PUSH1 0x22 PUSH1 0x4 MSTORE PUSH1 0x24 PUSH1 0x0 REVERT JUMPDEST PUSH1 0x0 PUSH1 0x2 DUP3 DIV SWAP1 POP PUSH1 0x1 DUP3 AND DUP1 PUSH2 0x135C JUMPI PUSH1 0x7F DUP3 AND SWAP2 POP JUMPDEST PUSH1 0x20 DUP3 LT DUP2 SUB PUSH2 0x136F JUMPI PUSH2 0x136E PUSH2 0x1315 JUMP JUMPDEST JUMPDEST POP SWAP2 SWAP1 POP JUMP INVALID LOG2 PUSH5 0x6970667358 0x22 SLT KECCAK256 RETURNDATASIZE 0xD0 KECCAK256 CODESIZE LOG0 0x1E PUSH21 0x9602D29D73FCF0C0260527A80B9714061806CB0468 CALL MSTORE8 0xA8 SWAP4 PUSH5 0x736F6C6343 STOP ADDMOD 0xE STOP CALLER LOG2 PUSH5 0x6970667358 0x22 SLT KECCAK256 0x2E 0xD2 CREATE2 0x4D DUP14 0x2A PUSH31 0x7E23A0A0F0CCF194A4D40FCB90110910892E6B2F8020C8C45664736F6C6343 STOP ADDMOD 0xE STOP CALLER "},"gasEstimates":{"creation":{"codeDepositCost":"1875200","executionCost":"1976","totalCost":"1877176"},"external":{"allTasks(uint256)":"4934","createTask(string,string,string[],string[])":"infinite","getAllTasks()":"infinite"}},"methodIdentifiers":{"allTasks(uint256)":"3f90b454","createTask(string,string,string[],string[])":"f6654663","getAllTasks()":"779900b4"}},"storageLayout":{"storage":[{"astId":13,"contract":"Task.sol:TaskFactory","label":"allTasks","offset":0,"slot":"0","type":"t_array(t_address)dyn_storage"}],"types":{"t_address":{"encoding":"inplace","label":"address","numberOfBytes":"20"},"t_array(t_address)dyn_storage":{"base":"t_address","encoding":"dynamic_array","label":"address[]","numberOfBytes":"32"}}},"userdoc":{"kind":"user","methods":{},"version":1}}